{
	"solidityCourse2/Module1/struct.sol": {
		"structure": {
			"abi": [
				{
					"inputs": [],
					"name": "getMovieId",
					"outputs": [
						{
							"internalType": "uint256",
							"name": "",
							"type": "uint256"
						}
					],
					"stateMutability": "view",
					"type": "function"
				},
				{
					"inputs": [],
					"name": "setMovie",
					"outputs": [],
					"stateMutability": "nonpayable",
					"type": "function"
				},
				{
					"inputs": [
						{
							"internalType": "string",
							"name": "n",
							"type": "string"
						},
						{
							"internalType": "string",
							"name": "t",
							"type": "string"
						},
						{
							"internalType": "uint256",
							"name": "i",
							"type": "uint256"
						}
					],
					"name": "setNewMovie",
					"outputs": [
						{
							"internalType": "uint256",
							"name": "",
							"type": "uint256"
						}
					],
					"stateMutability": "nonpayable",
					"type": "function"
				}
			],
			"devdoc": {
				"kind": "dev",
				"methods": {},
				"version": 1
			},
			"evm": {
				"assembly": "    /* \"solidityCourse2/Module1/struct.sol\":61:541  contract structure{... */\n  mstore(0x40, 0x80)\n  callvalue\n  dup1\n  iszero\n  tag_1\n  jumpi\n  revert(0x00, 0x00)\ntag_1:\n  pop\n  dataSize(sub_0)\n  dup1\n  dataOffset(sub_0)\n  0x00\n  codecopy\n  0x00\n  return\nstop\n\nsub_0: assembly {\n        /* \"solidityCourse2/Module1/struct.sol\":61:541  contract structure{... */\n      mstore(0x40, 0x80)\n      callvalue\n      dup1\n      iszero\n      tag_1\n      jumpi\n      revert(0x00, 0x00)\n    tag_1:\n      pop\n      jumpi(tag_2, lt(calldatasize, 0x04))\n      shr(0xe0, calldataload(0x00))\n      dup1\n      0x36dcabe0\n      eq\n      tag_3\n      jumpi\n      dup1\n      0xc64e6f4c\n      eq\n      tag_4\n      jumpi\n      dup1\n      0xf6bb33b1\n      eq\n      tag_5\n      jumpi\n    tag_2:\n      revert(0x00, 0x00)\n        /* \"solidityCourse2/Module1/struct.sol\":283:364  function getMovieId() public view returns(uint){... */\n    tag_3:\n      tag_6\n      tag_7\n      jump\t// in\n    tag_6:\n      mload(0x40)\n      tag_8\n      swap2\n      swap1\n      tag_9\n      jump\t// in\n    tag_8:\n      mload(0x40)\n      dup1\n      swap2\n      sub\n      swap1\n      return\n        /* \"solidityCourse2/Module1/struct.sol\":372:517  function setNewMovie(string memory n, string memory t,uint i) public returns(uint){... */\n    tag_4:\n      tag_10\n      0x04\n      dup1\n      calldatasize\n      sub\n      dup2\n      add\n      swap1\n      tag_11\n      swap2\n      swap1\n      tag_12\n      jump\t// in\n    tag_11:\n      tag_13\n      jump\t// in\n    tag_10:\n      mload(0x40)\n      tag_14\n      swap2\n      swap1\n      tag_9\n      jump\t// in\n    tag_14:\n      mload(0x40)\n      dup1\n      swap2\n      sub\n      swap1\n      return\n        /* \"solidityCourse2/Module1/struct.sol\":197:277  function setMovie() public{... */\n    tag_5:\n      tag_15\n      tag_16\n      jump\t// in\n    tag_15:\n      stop\n        /* \"solidityCourse2/Module1/struct.sol\":283:364  function getMovieId() public view returns(uint){... */\n    tag_7:\n        /* \"solidityCourse2/Module1/struct.sol\":325:329  uint */\n      0x00\n        /* \"solidityCourse2/Module1/struct.sol\":348:353  movie */\n      0x00\n        /* \"solidityCourse2/Module1/struct.sol\":348:356  movie.id */\n      0x02\n      add\n      sload\n        /* \"solidityCourse2/Module1/struct.sol\":341:356  return movie.id */\n      swap1\n      pop\n        /* \"solidityCourse2/Module1/struct.sol\":283:364  function getMovieId() public view returns(uint){... */\n      swap1\n      jump\t// out\n        /* \"solidityCourse2/Module1/struct.sol\":372:517  function setNewMovie(string memory n, string memory t,uint i) public returns(uint){... */\n    tag_13:\n        /* \"solidityCourse2/Module1/struct.sol\":449:453  uint */\n      0x00\n        /* \"solidityCourse2/Module1/struct.sol\":471:483  Movie(n,t,i) */\n      mload(0x40)\n      dup1\n      0x60\n      add\n      0x40\n      mstore\n      dup1\n        /* \"solidityCourse2/Module1/struct.sol\":477:478  n */\n      dup6\n        /* \"solidityCourse2/Module1/struct.sol\":471:483  Movie(n,t,i) */\n      dup2\n      mstore\n      0x20\n      add\n        /* \"solidityCourse2/Module1/struct.sol\":479:480  t */\n      dup5\n        /* \"solidityCourse2/Module1/struct.sol\":471:483  Movie(n,t,i) */\n      dup2\n      mstore\n      0x20\n      add\n        /* \"solidityCourse2/Module1/struct.sol\":481:482  i */\n      dup4\n        /* \"solidityCourse2/Module1/struct.sol\":471:483  Movie(n,t,i) */\n      dup2\n      mstore\n      pop\n        /* \"solidityCourse2/Module1/struct.sol\":465:470  movie */\n      0x00\n        /* \"solidityCourse2/Module1/struct.sol\":465:483  movie=Movie(n,t,i) */\n      0x00\n      dup3\n      add\n      mload\n      dup2\n      0x00\n      add\n      swap1\n      dup2\n      tag_19\n      swap2\n      swap1\n      tag_20\n      jump\t// in\n    tag_19:\n      pop\n      0x20\n      dup3\n      add\n      mload\n      dup2\n      0x01\n      add\n      swap1\n      dup2\n      tag_21\n      swap2\n      swap1\n      tag_20\n      jump\t// in\n    tag_21:\n      pop\n      0x40\n      dup3\n      add\n      mload\n      dup2\n      0x02\n      add\n      sstore\n      swap1\n      pop\n      pop\n        /* \"solidityCourse2/Module1/struct.sol\":501:506  movie */\n      0x00\n        /* \"solidityCourse2/Module1/struct.sol\":501:509  movie.id */\n      0x02\n      add\n      sload\n        /* \"solidityCourse2/Module1/struct.sol\":494:509  return movie.id */\n      swap1\n      pop\n        /* \"solidityCourse2/Module1/struct.sol\":372:517  function setNewMovie(string memory n, string memory t,uint i) public returns(uint){... */\n      swap4\n      swap3\n      pop\n      pop\n      pop\n      jump\t// out\n        /* \"solidityCourse2/Module1/struct.sol\":197:277  function setMovie() public{... */\n    tag_16:\n        /* \"solidityCourse2/Module1/struct.sol\":240:269  Movie(\"Batla House\",\"Swar\",3) */\n      mload(0x40)\n      dup1\n      0x60\n      add\n      0x40\n      mstore\n      dup1\n      mload(0x40)\n      dup1\n      0x40\n      add\n      0x40\n      mstore\n      dup1\n      0x0b\n      dup2\n      mstore\n      0x20\n      add\n      0x4261746c6120486f757365000000000000000000000000000000000000000000\n      dup2\n      mstore\n      pop\n      dup2\n      mstore\n      0x20\n      add\n      mload(0x40)\n      dup1\n      0x40\n      add\n      0x40\n      mstore\n      dup1\n      0x04\n      dup2\n      mstore\n      0x20\n      add\n      0x5377617200000000000000000000000000000000000000000000000000000000\n      dup2\n      mstore\n      pop\n      dup2\n      mstore\n      0x20\n      add\n        /* \"solidityCourse2/Module1/struct.sol\":267:268  3 */\n      0x03\n        /* \"solidityCourse2/Module1/struct.sol\":240:269  Movie(\"Batla House\",\"Swar\",3) */\n      dup2\n      mstore\n      pop\n        /* \"solidityCourse2/Module1/struct.sol\":234:239  movie */\n      0x00\n        /* \"solidityCourse2/Module1/struct.sol\":234:269  movie=Movie(\"Batla House\",\"Swar\",3) */\n      0x00\n      dup3\n      add\n      mload\n      dup2\n      0x00\n      add\n      swap1\n      dup2\n      tag_23\n      swap2\n      swap1\n      tag_20\n      jump\t// in\n    tag_23:\n      pop\n      0x20\n      dup3\n      add\n      mload\n      dup2\n      0x01\n      add\n      swap1\n      dup2\n      tag_24\n      swap2\n      swap1\n      tag_20\n      jump\t// in\n    tag_24:\n      pop\n      0x40\n      dup3\n      add\n      mload\n      dup2\n      0x02\n      add\n      sstore\n      swap1\n      pop\n      pop\n        /* \"solidityCourse2/Module1/struct.sol\":197:277  function setMovie() public{... */\n      jump\t// out\n        /* \"#utility.yul\":7:84   */\n    tag_25:\n        /* \"#utility.yul\":44:51   */\n      0x00\n        /* \"#utility.yul\":73:78   */\n      dup2\n        /* \"#utility.yul\":62:78   */\n      swap1\n      pop\n        /* \"#utility.yul\":7:84   */\n      swap2\n      swap1\n      pop\n      jump\t// out\n        /* \"#utility.yul\":90:208   */\n    tag_26:\n        /* \"#utility.yul\":177:201   */\n      tag_63\n        /* \"#utility.yul\":195:200   */\n      dup2\n        /* \"#utility.yul\":177:201   */\n      tag_25\n      jump\t// in\n    tag_63:\n        /* \"#utility.yul\":172:175   */\n      dup3\n        /* \"#utility.yul\":165:202   */\n      mstore\n        /* \"#utility.yul\":90:208   */\n      pop\n      pop\n      jump\t// out\n        /* \"#utility.yul\":214:436   */\n    tag_9:\n        /* \"#utility.yul\":307:311   */\n      0x00\n        /* \"#utility.yul\":345:347   */\n      0x20\n        /* \"#utility.yul\":334:343   */\n      dup3\n        /* \"#utility.yul\":330:348   */\n      add\n        /* \"#utility.yul\":322:348   */\n      swap1\n      pop\n        /* \"#utility.yul\":358:429   */\n      tag_65\n        /* \"#utility.yul\":426:427   */\n      0x00\n        /* \"#utility.yul\":415:424   */\n      dup4\n        /* \"#utility.yul\":411:428   */\n      add\n        /* \"#utility.yul\":402:408   */\n      dup5\n        /* \"#utility.yul\":358:429   */\n      tag_26\n      jump\t// in\n    tag_65:\n        /* \"#utility.yul\":214:436   */\n      swap3\n      swap2\n      pop\n      pop\n      jump\t// out\n        /* \"#utility.yul\":442:517   */\n    tag_27:\n        /* \"#utility.yul\":475:481   */\n      0x00\n        /* \"#utility.yul\":508:510   */\n      0x40\n        /* \"#utility.yul\":502:511   */\n      mload\n        /* \"#utility.yul\":492:511   */\n      swap1\n      pop\n        /* \"#utility.yul\":442:517   */\n      swap1\n      jump\t// out\n        /* \"#utility.yul\":523:640   */\n    tag_28:\n        /* \"#utility.yul\":632:633   */\n      0x00\n        /* \"#utility.yul\":629:630   */\n      0x00\n        /* \"#utility.yul\":622:634   */\n      revert\n        /* \"#utility.yul\":646:763   */\n    tag_29:\n        /* \"#utility.yul\":755:756   */\n      0x00\n        /* \"#utility.yul\":752:753   */\n      0x00\n        /* \"#utility.yul\":745:757   */\n      revert\n        /* \"#utility.yul\":769:886   */\n    tag_30:\n        /* \"#utility.yul\":878:879   */\n      0x00\n        /* \"#utility.yul\":875:876   */\n      0x00\n        /* \"#utility.yul\":868:880   */\n      revert\n        /* \"#utility.yul\":892:1009   */\n    tag_31:\n        /* \"#utility.yul\":1001:1002   */\n      0x00\n        /* \"#utility.yul\":998:999   */\n      0x00\n        /* \"#utility.yul\":991:1003   */\n      revert\n        /* \"#utility.yul\":1015:1117   */\n    tag_32:\n        /* \"#utility.yul\":1056:1062   */\n      0x00\n        /* \"#utility.yul\":1107:1109   */\n      0x1f\n        /* \"#utility.yul\":1103:1110   */\n      not\n        /* \"#utility.yul\":1098:1100   */\n      0x1f\n        /* \"#utility.yul\":1091:1096   */\n      dup4\n        /* \"#utility.yul\":1087:1101   */\n      add\n        /* \"#utility.yul\":1083:1111   */\n      and\n        /* \"#utility.yul\":1073:1111   */\n      swap1\n      pop\n        /* \"#utility.yul\":1015:1117   */\n      swap2\n      swap1\n      pop\n      jump\t// out\n        /* \"#utility.yul\":1123:1303   */\n    tag_33:\n        /* \"#utility.yul\":1171:1248   */\n      0x4e487b7100000000000000000000000000000000000000000000000000000000\n        /* \"#utility.yul\":1168:1169   */\n      0x00\n        /* \"#utility.yul\":1161:1249   */\n      mstore\n        /* \"#utility.yul\":1268:1272   */\n      0x41\n        /* \"#utility.yul\":1265:1266   */\n      0x04\n        /* \"#utility.yul\":1258:1273   */\n      mstore\n        /* \"#utility.yul\":1292:1296   */\n      0x24\n        /* \"#utility.yul\":1289:1290   */\n      0x00\n        /* \"#utility.yul\":1282:1297   */\n      revert\n        /* \"#utility.yul\":1309:1590   */\n    tag_34:\n        /* \"#utility.yul\":1392:1419   */\n      tag_74\n        /* \"#utility.yul\":1414:1418   */\n      dup3\n        /* \"#utility.yul\":1392:1419   */\n      tag_32\n      jump\t// in\n    tag_74:\n        /* \"#utility.yul\":1384:1390   */\n      dup2\n        /* \"#utility.yul\":1380:1420   */\n      add\n        /* \"#utility.yul\":1522:1528   */\n      dup2\n        /* \"#utility.yul\":1510:1520   */\n      dup2\n        /* \"#utility.yul\":1507:1529   */\n      lt\n        /* \"#utility.yul\":1486:1504   */\n      0xffffffffffffffff\n        /* \"#utility.yul\":1474:1484   */\n      dup3\n        /* \"#utility.yul\":1471:1505   */\n      gt\n        /* \"#utility.yul\":1468:1530   */\n      or\n        /* \"#utility.yul\":1465:1553   */\n      iszero\n      tag_75\n      jumpi\n        /* \"#utility.yul\":1533:1551   */\n      tag_76\n      tag_33\n      jump\t// in\n    tag_76:\n        /* \"#utility.yul\":1465:1553   */\n    tag_75:\n        /* \"#utility.yul\":1573:1583   */\n      dup1\n        /* \"#utility.yul\":1569:1571   */\n      0x40\n        /* \"#utility.yul\":1562:1584   */\n      mstore\n        /* \"#utility.yul\":1352:1590   */\n      pop\n        /* \"#utility.yul\":1309:1590   */\n      pop\n      pop\n      jump\t// out\n        /* \"#utility.yul\":1596:1725   */\n    tag_35:\n        /* \"#utility.yul\":1630:1636   */\n      0x00\n        /* \"#utility.yul\":1657:1677   */\n      tag_78\n      tag_27\n      jump\t// in\n    tag_78:\n        /* \"#utility.yul\":1647:1677   */\n      swap1\n      pop\n        /* \"#utility.yul\":1686:1719   */\n      tag_79\n        /* \"#utility.yul\":1714:1718   */\n      dup3\n        /* \"#utility.yul\":1706:1712   */\n      dup3\n        /* \"#utility.yul\":1686:1719   */\n      tag_34\n      jump\t// in\n    tag_79:\n        /* \"#utility.yul\":1596:1725   */\n      swap2\n      swap1\n      pop\n      jump\t// out\n        /* \"#utility.yul\":1731:2039   */\n    tag_36:\n        /* \"#utility.yul\":1793:1797   */\n      0x00\n        /* \"#utility.yul\":1883:1901   */\n      0xffffffffffffffff\n        /* \"#utility.yul\":1875:1881   */\n      dup3\n        /* \"#utility.yul\":1872:1902   */\n      gt\n        /* \"#utility.yul\":1869:1925   */\n      iszero\n      tag_81\n      jumpi\n        /* \"#utility.yul\":1905:1923   */\n      tag_82\n      tag_33\n      jump\t// in\n    tag_82:\n        /* \"#utility.yul\":1869:1925   */\n    tag_81:\n        /* \"#utility.yul\":1943:1972   */\n      tag_83\n        /* \"#utility.yul\":1965:1971   */\n      dup3\n        /* \"#utility.yul\":1943:1972   */\n      tag_32\n      jump\t// in\n    tag_83:\n        /* \"#utility.yul\":1935:1972   */\n      swap1\n      pop\n        /* \"#utility.yul\":2027:2031   */\n      0x20\n        /* \"#utility.yul\":2021:2025   */\n      dup2\n        /* \"#utility.yul\":2017:2032   */\n      add\n        /* \"#utility.yul\":2009:2032   */\n      swap1\n      pop\n        /* \"#utility.yul\":1731:2039   */\n      swap2\n      swap1\n      pop\n      jump\t// out\n        /* \"#utility.yul\":2045:2193   */\n    tag_37:\n        /* \"#utility.yul\":2143:2149   */\n      dup3\n        /* \"#utility.yul\":2138:2141   */\n      dup2\n        /* \"#utility.yul\":2133:2136   */\n      dup4\n        /* \"#utility.yul\":2120:2150   */\n      calldatacopy\n        /* \"#utility.yul\":2184:2185   */\n      0x00\n        /* \"#utility.yul\":2175:2181   */\n      dup4\n        /* \"#utility.yul\":2170:2173   */\n      dup4\n        /* \"#utility.yul\":2166:2182   */\n      add\n        /* \"#utility.yul\":2159:2186   */\n      mstore\n        /* \"#utility.yul\":2045:2193   */\n      pop\n      pop\n      pop\n      jump\t// out\n        /* \"#utility.yul\":2199:2624   */\n    tag_38:\n        /* \"#utility.yul\":2277:2282   */\n      0x00\n        /* \"#utility.yul\":2302:2368   */\n      tag_86\n        /* \"#utility.yul\":2318:2367   */\n      tag_87\n        /* \"#utility.yul\":2360:2366   */\n      dup5\n        /* \"#utility.yul\":2318:2367   */\n      tag_36\n      jump\t// in\n    tag_87:\n        /* \"#utility.yul\":2302:2368   */\n      tag_35\n      jump\t// in\n    tag_86:\n        /* \"#utility.yul\":2293:2368   */\n      swap1\n      pop\n        /* \"#utility.yul\":2391:2397   */\n      dup3\n        /* \"#utility.yul\":2384:2389   */\n      dup2\n        /* \"#utility.yul\":2377:2398   */\n      mstore\n        /* \"#utility.yul\":2429:2433   */\n      0x20\n        /* \"#utility.yul\":2422:2427   */\n      dup2\n        /* \"#utility.yul\":2418:2434   */\n      add\n        /* \"#utility.yul\":2467:2470   */\n      dup5\n        /* \"#utility.yul\":2458:2464   */\n      dup5\n        /* \"#utility.yul\":2453:2456   */\n      dup5\n        /* \"#utility.yul\":2449:2465   */\n      add\n        /* \"#utility.yul\":2446:2471   */\n      gt\n        /* \"#utility.yul\":2443:2555   */\n      iszero\n      tag_88\n      jumpi\n        /* \"#utility.yul\":2474:2553   */\n      tag_89\n      tag_31\n      jump\t// in\n    tag_89:\n        /* \"#utility.yul\":2443:2555   */\n    tag_88:\n        /* \"#utility.yul\":2564:2618   */\n      tag_90\n        /* \"#utility.yul\":2611:2617   */\n      dup5\n        /* \"#utility.yul\":2606:2609   */\n      dup3\n        /* \"#utility.yul\":2601:2604   */\n      dup6\n        /* \"#utility.yul\":2564:2618   */\n      tag_37\n      jump\t// in\n    tag_90:\n        /* \"#utility.yul\":2283:2624   */\n      pop\n        /* \"#utility.yul\":2199:2624   */\n      swap4\n      swap3\n      pop\n      pop\n      pop\n      jump\t// out\n        /* \"#utility.yul\":2644:2984   */\n    tag_39:\n        /* \"#utility.yul\":2700:2705   */\n      0x00\n        /* \"#utility.yul\":2749:2752   */\n      dup3\n        /* \"#utility.yul\":2742:2746   */\n      0x1f\n        /* \"#utility.yul\":2734:2740   */\n      dup4\n        /* \"#utility.yul\":2730:2747   */\n      add\n        /* \"#utility.yul\":2726:2753   */\n      slt\n        /* \"#utility.yul\":2716:2838   */\n      tag_92\n      jumpi\n        /* \"#utility.yul\":2757:2836   */\n      tag_93\n      tag_30\n      jump\t// in\n    tag_93:\n        /* \"#utility.yul\":2716:2838   */\n    tag_92:\n        /* \"#utility.yul\":2874:2880   */\n      dup2\n        /* \"#utility.yul\":2861:2881   */\n      calldataload\n        /* \"#utility.yul\":2899:2978   */\n      tag_94\n        /* \"#utility.yul\":2974:2977   */\n      dup5\n        /* \"#utility.yul\":2966:2972   */\n      dup3\n        /* \"#utility.yul\":2959:2963   */\n      0x20\n        /* \"#utility.yul\":2951:2957   */\n      dup7\n        /* \"#utility.yul\":2947:2964   */\n      add\n        /* \"#utility.yul\":2899:2978   */\n      tag_38\n      jump\t// in\n    tag_94:\n        /* \"#utility.yul\":2890:2978   */\n      swap2\n      pop\n        /* \"#utility.yul\":2706:2984   */\n      pop\n        /* \"#utility.yul\":2644:2984   */\n      swap3\n      swap2\n      pop\n      pop\n      jump\t// out\n        /* \"#utility.yul\":2990:3112   */\n    tag_40:\n        /* \"#utility.yul\":3063:3087   */\n      tag_96\n        /* \"#utility.yul\":3081:3086   */\n      dup2\n        /* \"#utility.yul\":3063:3087   */\n      tag_25\n      jump\t// in\n    tag_96:\n        /* \"#utility.yul\":3056:3061   */\n      dup2\n        /* \"#utility.yul\":3053:3088   */\n      eq\n        /* \"#utility.yul\":3043:3106   */\n      tag_97\n      jumpi\n        /* \"#utility.yul\":3102:3103   */\n      0x00\n        /* \"#utility.yul\":3099:3100   */\n      0x00\n        /* \"#utility.yul\":3092:3104   */\n      revert\n        /* \"#utility.yul\":3043:3106   */\n    tag_97:\n        /* \"#utility.yul\":2990:3112   */\n      pop\n      jump\t// out\n        /* \"#utility.yul\":3118:3257   */\n    tag_41:\n        /* \"#utility.yul\":3164:3169   */\n      0x00\n        /* \"#utility.yul\":3202:3208   */\n      dup2\n        /* \"#utility.yul\":3189:3209   */\n      calldataload\n        /* \"#utility.yul\":3180:3209   */\n      swap1\n      pop\n        /* \"#utility.yul\":3218:3251   */\n      tag_99\n        /* \"#utility.yul\":3245:3250   */\n      dup2\n        /* \"#utility.yul\":3218:3251   */\n      tag_40\n      jump\t// in\n    tag_99:\n        /* \"#utility.yul\":3118:3257   */\n      swap3\n      swap2\n      pop\n      pop\n      jump\t// out\n        /* \"#utility.yul\":3263:4242   */\n    tag_12:\n        /* \"#utility.yul\":3360:3366   */\n      0x00\n        /* \"#utility.yul\":3368:3374   */\n      0x00\n        /* \"#utility.yul\":3376:3382   */\n      0x00\n        /* \"#utility.yul\":3425:3427   */\n      0x60\n        /* \"#utility.yul\":3413:3422   */\n      dup5\n        /* \"#utility.yul\":3404:3411   */\n      dup7\n        /* \"#utility.yul\":3400:3423   */\n      sub\n        /* \"#utility.yul\":3396:3428   */\n      slt\n        /* \"#utility.yul\":3393:3512   */\n      iszero\n      tag_101\n      jumpi\n        /* \"#utility.yul\":3431:3510   */\n      tag_102\n      tag_28\n      jump\t// in\n    tag_102:\n        /* \"#utility.yul\":3393:3512   */\n    tag_101:\n        /* \"#utility.yul\":3579:3580   */\n      0x00\n        /* \"#utility.yul\":3568:3577   */\n      dup5\n        /* \"#utility.yul\":3564:3581   */\n      add\n        /* \"#utility.yul\":3551:3582   */\n      calldataload\n        /* \"#utility.yul\":3609:3627   */\n      0xffffffffffffffff\n        /* \"#utility.yul\":3601:3607   */\n      dup2\n        /* \"#utility.yul\":3598:3628   */\n      gt\n        /* \"#utility.yul\":3595:3712   */\n      iszero\n      tag_103\n      jumpi\n        /* \"#utility.yul\":3631:3710   */\n      tag_104\n      tag_29\n      jump\t// in\n    tag_104:\n        /* \"#utility.yul\":3595:3712   */\n    tag_103:\n        /* \"#utility.yul\":3736:3799   */\n      tag_105\n        /* \"#utility.yul\":3791:3798   */\n      dup7\n        /* \"#utility.yul\":3782:3788   */\n      dup3\n        /* \"#utility.yul\":3771:3780   */\n      dup8\n        /* \"#utility.yul\":3767:3789   */\n      add\n        /* \"#utility.yul\":3736:3799   */\n      tag_39\n      jump\t// in\n    tag_105:\n        /* \"#utility.yul\":3726:3799   */\n      swap4\n      pop\n        /* \"#utility.yul\":3522:3809   */\n      pop\n        /* \"#utility.yul\":3876:3878   */\n      0x20\n        /* \"#utility.yul\":3865:3874   */\n      dup5\n        /* \"#utility.yul\":3861:3879   */\n      add\n        /* \"#utility.yul\":3848:3880   */\n      calldataload\n        /* \"#utility.yul\":3907:3925   */\n      0xffffffffffffffff\n        /* \"#utility.yul\":3899:3905   */\n      dup2\n        /* \"#utility.yul\":3896:3926   */\n      gt\n        /* \"#utility.yul\":3893:4010   */\n      iszero\n      tag_106\n      jumpi\n        /* \"#utility.yul\":3929:4008   */\n      tag_107\n      tag_29\n      jump\t// in\n    tag_107:\n        /* \"#utility.yul\":3893:4010   */\n    tag_106:\n        /* \"#utility.yul\":4034:4097   */\n      tag_108\n        /* \"#utility.yul\":4089:4096   */\n      dup7\n        /* \"#utility.yul\":4080:4086   */\n      dup3\n        /* \"#utility.yul\":4069:4078   */\n      dup8\n        /* \"#utility.yul\":4065:4087   */\n      add\n        /* \"#utility.yul\":4034:4097   */\n      tag_39\n      jump\t// in\n    tag_108:\n        /* \"#utility.yul\":4024:4097   */\n      swap3\n      pop\n        /* \"#utility.yul\":3819:4107   */\n      pop\n        /* \"#utility.yul\":4146:4148   */\n      0x40\n        /* \"#utility.yul\":4172:4225   */\n      tag_109\n        /* \"#utility.yul\":4217:4224   */\n      dup7\n        /* \"#utility.yul\":4208:4214   */\n      dup3\n        /* \"#utility.yul\":4197:4206   */\n      dup8\n        /* \"#utility.yul\":4193:4215   */\n      add\n        /* \"#utility.yul\":4172:4225   */\n      tag_41\n      jump\t// in\n    tag_109:\n        /* \"#utility.yul\":4162:4225   */\n      swap2\n      pop\n        /* \"#utility.yul\":4117:4235   */\n      pop\n        /* \"#utility.yul\":3263:4242   */\n      swap3\n      pop\n      swap3\n      pop\n      swap3\n      jump\t// out\n        /* \"#utility.yul\":4248:4347   */\n    tag_42:\n        /* \"#utility.yul\":4300:4306   */\n      0x00\n        /* \"#utility.yul\":4334:4339   */\n      dup2\n        /* \"#utility.yul\":4328:4340   */\n      mload\n        /* \"#utility.yul\":4318:4340   */\n      swap1\n      pop\n        /* \"#utility.yul\":4248:4347   */\n      swap2\n      swap1\n      pop\n      jump\t// out\n        /* \"#utility.yul\":4353:4533   */\n    tag_43:\n        /* \"#utility.yul\":4401:4478   */\n      0x4e487b7100000000000000000000000000000000000000000000000000000000\n        /* \"#utility.yul\":4398:4399   */\n      0x00\n        /* \"#utility.yul\":4391:4479   */\n      mstore\n        /* \"#utility.yul\":4498:4502   */\n      0x22\n        /* \"#utility.yul\":4495:4496   */\n      0x04\n        /* \"#utility.yul\":4488:4503   */\n      mstore\n        /* \"#utility.yul\":4522:4526   */\n      0x24\n        /* \"#utility.yul\":4519:4520   */\n      0x00\n        /* \"#utility.yul\":4512:4527   */\n      revert\n        /* \"#utility.yul\":4539:4859   */\n    tag_44:\n        /* \"#utility.yul\":4583:4589   */\n      0x00\n        /* \"#utility.yul\":4620:4621   */\n      0x02\n        /* \"#utility.yul\":4614:4618   */\n      dup3\n        /* \"#utility.yul\":4610:4622   */\n      div\n        /* \"#utility.yul\":4600:4622   */\n      swap1\n      pop\n        /* \"#utility.yul\":4667:4668   */\n      0x01\n        /* \"#utility.yul\":4661:4665   */\n      dup3\n        /* \"#utility.yul\":4657:4669   */\n      and\n        /* \"#utility.yul\":4688:4706   */\n      dup1\n        /* \"#utility.yul\":4678:4759   */\n      tag_113\n      jumpi\n        /* \"#utility.yul\":4744:4748   */\n      0x7f\n        /* \"#utility.yul\":4736:4742   */\n      dup3\n        /* \"#utility.yul\":4732:4749   */\n      and\n        /* \"#utility.yul\":4722:4749   */\n      swap2\n      pop\n        /* \"#utility.yul\":4678:4759   */\n    tag_113:\n        /* \"#utility.yul\":4806:4808   */\n      0x20\n        /* \"#utility.yul\":4798:4804   */\n      dup3\n        /* \"#utility.yul\":4795:4809   */\n      lt\n        /* \"#utility.yul\":4775:4793   */\n      dup2\n        /* \"#utility.yul\":4772:4810   */\n      sub\n        /* \"#utility.yul\":4769:4853   */\n      tag_114\n      jumpi\n        /* \"#utility.yul\":4825:4843   */\n      tag_115\n      tag_43\n      jump\t// in\n    tag_115:\n        /* \"#utility.yul\":4769:4853   */\n    tag_114:\n        /* \"#utility.yul\":4590:4859   */\n      pop\n        /* \"#utility.yul\":4539:4859   */\n      swap2\n      swap1\n      pop\n      jump\t// out\n        /* \"#utility.yul\":4865:5006   */\n    tag_45:\n        /* \"#utility.yul\":4914:4918   */\n      0x00\n        /* \"#utility.yul\":4937:4940   */\n      dup2\n        /* \"#utility.yul\":4929:4940   */\n      swap1\n      pop\n        /* \"#utility.yul\":4960:4963   */\n      dup2\n        /* \"#utility.yul\":4957:4958   */\n      0x00\n        /* \"#utility.yul\":4950:4964   */\n      mstore\n        /* \"#utility.yul\":4994:4998   */\n      0x20\n        /* \"#utility.yul\":4991:4992   */\n      0x00\n        /* \"#utility.yul\":4981:4999   */\n      keccak256\n        /* \"#utility.yul\":4973:4999   */\n      swap1\n      pop\n        /* \"#utility.yul\":4865:5006   */\n      swap2\n      swap1\n      pop\n      jump\t// out\n        /* \"#utility.yul\":5012:5105   */\n    tag_46:\n        /* \"#utility.yul\":5049:5055   */\n      0x00\n        /* \"#utility.yul\":5096:5098   */\n      0x20\n        /* \"#utility.yul\":5091:5093   */\n      0x1f\n        /* \"#utility.yul\":5084:5089   */\n      dup4\n        /* \"#utility.yul\":5080:5094   */\n      add\n        /* \"#utility.yul\":5076:5099   */\n      div\n        /* \"#utility.yul\":5066:5099   */\n      swap1\n      pop\n        /* \"#utility.yul\":5012:5105   */\n      swap2\n      swap1\n      pop\n      jump\t// out\n        /* \"#utility.yul\":5111:5218   */\n    tag_47:\n        /* \"#utility.yul\":5155:5163   */\n      0x00\n        /* \"#utility.yul\":5205:5210   */\n      dup3\n        /* \"#utility.yul\":5199:5203   */\n      dup3\n        /* \"#utility.yul\":5195:5211   */\n      shl\n        /* \"#utility.yul\":5174:5211   */\n      swap1\n      pop\n        /* \"#utility.yul\":5111:5218   */\n      swap3\n      swap2\n      pop\n      pop\n      jump\t// out\n        /* \"#utility.yul\":5224:5617   */\n    tag_48:\n        /* \"#utility.yul\":5293:5299   */\n      0x00\n        /* \"#utility.yul\":5343:5344   */\n      0x08\n        /* \"#utility.yul\":5331:5341   */\n      dup4\n        /* \"#utility.yul\":5327:5345   */\n      mul\n        /* \"#utility.yul\":5366:5463   */\n      tag_120\n        /* \"#utility.yul\":5396:5462   */\n      0xffffffffffffffffffffffffffffffffffffffffffffffffffffffffffffffff\n        /* \"#utility.yul\":5385:5394   */\n      dup3\n        /* \"#utility.yul\":5366:5463   */\n      tag_47\n      jump\t// in\n    tag_120:\n        /* \"#utility.yul\":5484:5523   */\n      tag_121\n        /* \"#utility.yul\":5514:5522   */\n      dup7\n        /* \"#utility.yul\":5503:5512   */\n      dup4\n        /* \"#utility.yul\":5484:5523   */\n      tag_47\n      jump\t// in\n    tag_121:\n        /* \"#utility.yul\":5472:5523   */\n      swap6\n      pop\n        /* \"#utility.yul\":5556:5560   */\n      dup1\n        /* \"#utility.yul\":5552:5561   */\n      not\n        /* \"#utility.yul\":5545:5550   */\n      dup5\n        /* \"#utility.yul\":5541:5562   */\n      and\n        /* \"#utility.yul\":5532:5562   */\n      swap4\n      pop\n        /* \"#utility.yul\":5605:5609   */\n      dup1\n        /* \"#utility.yul\":5595:5603   */\n      dup7\n        /* \"#utility.yul\":5591:5610   */\n      and\n        /* \"#utility.yul\":5584:5589   */\n      dup5\n        /* \"#utility.yul\":5581:5611   */\n      or\n        /* \"#utility.yul\":5571:5611   */\n      swap3\n      pop\n        /* \"#utility.yul\":5300:5617   */\n      pop\n      pop\n        /* \"#utility.yul\":5224:5617   */\n      swap4\n      swap3\n      pop\n      pop\n      pop\n      jump\t// out\n        /* \"#utility.yul\":5623:5683   */\n    tag_49:\n        /* \"#utility.yul\":5651:5654   */\n      0x00\n        /* \"#utility.yul\":5672:5677   */\n      dup2\n        /* \"#utility.yul\":5665:5677   */\n      swap1\n      pop\n        /* \"#utility.yul\":5623:5683   */\n      swap2\n      swap1\n      pop\n      jump\t// out\n        /* \"#utility.yul\":5689:5831   */\n    tag_50:\n        /* \"#utility.yul\":5739:5748   */\n      0x00\n        /* \"#utility.yul\":5772:5825   */\n      tag_124\n        /* \"#utility.yul\":5790:5824   */\n      tag_125\n        /* \"#utility.yul\":5799:5823   */\n      tag_126\n        /* \"#utility.yul\":5817:5822   */\n      dup5\n        /* \"#utility.yul\":5799:5823   */\n      tag_25\n      jump\t// in\n    tag_126:\n        /* \"#utility.yul\":5790:5824   */\n      tag_49\n      jump\t// in\n    tag_125:\n        /* \"#utility.yul\":5772:5825   */\n      tag_25\n      jump\t// in\n    tag_124:\n        /* \"#utility.yul\":5759:5825   */\n      swap1\n      pop\n        /* \"#utility.yul\":5689:5831   */\n      swap2\n      swap1\n      pop\n      jump\t// out\n        /* \"#utility.yul\":5837:5912   */\n    tag_51:\n        /* \"#utility.yul\":5880:5883   */\n      0x00\n        /* \"#utility.yul\":5901:5906   */\n      dup2\n        /* \"#utility.yul\":5894:5906   */\n      swap1\n      pop\n        /* \"#utility.yul\":5837:5912   */\n      swap2\n      swap1\n      pop\n      jump\t// out\n        /* \"#utility.yul\":5918:6187   */\n    tag_52:\n        /* \"#utility.yul\":6028:6067   */\n      tag_129\n        /* \"#utility.yul\":6059:6066   */\n      dup4\n        /* \"#utility.yul\":6028:6067   */\n      tag_50\n      jump\t// in\n    tag_129:\n        /* \"#utility.yul\":6089:6180   */\n      tag_130\n        /* \"#utility.yul\":6138:6179   */\n      tag_131\n        /* \"#utility.yul\":6162:6178   */\n      dup3\n        /* \"#utility.yul\":6138:6179   */\n      tag_51\n      jump\t// in\n    tag_131:\n        /* \"#utility.yul\":6130:6136   */\n      dup5\n        /* \"#utility.yul\":6123:6127   */\n      dup5\n        /* \"#utility.yul\":6117:6128   */\n      sload\n        /* \"#utility.yul\":6089:6180   */\n      tag_48\n      jump\t// in\n    tag_130:\n        /* \"#utility.yul\":6083:6087   */\n      dup3\n        /* \"#utility.yul\":6076:6181   */\n      sstore\n        /* \"#utility.yul\":5994:6187   */\n      pop\n        /* \"#utility.yul\":5918:6187   */\n      pop\n      pop\n      pop\n      jump\t// out\n        /* \"#utility.yul\":6193:6266   */\n    tag_53:\n        /* \"#utility.yul\":6238:6241   */\n      0x00\n        /* \"#utility.yul\":6259:6260   */\n      0x00\n        /* \"#utility.yul\":6252:6260   */\n      swap1\n      pop\n        /* \"#utility.yul\":6193:6266   */\n      swap1\n      jump\t// out\n        /* \"#utility.yul\":6272:6461   */\n    tag_54:\n        /* \"#utility.yul\":6349:6381   */\n      tag_134\n      tag_53\n      jump\t// in\n    tag_134:\n        /* \"#utility.yul\":6390:6455   */\n      tag_135\n        /* \"#utility.yul\":6448:6454   */\n      dup2\n        /* \"#utility.yul\":6440:6446   */\n      dup5\n        /* \"#utility.yul\":6434:6438   */\n      dup5\n        /* \"#utility.yul\":6390:6455   */\n      tag_52\n      jump\t// in\n    tag_135:\n        /* \"#utility.yul\":6325:6461   */\n      pop\n        /* \"#utility.yul\":6272:6461   */\n      pop\n      pop\n      jump\t// out\n        /* \"#utility.yul\":6467:6653   */\n    tag_55:\n        /* \"#utility.yul\":6527:6647   */\n    tag_137:\n        /* \"#utility.yul\":6544:6547   */\n      dup2\n        /* \"#utility.yul\":6537:6542   */\n      dup2\n        /* \"#utility.yul\":6534:6548   */\n      lt\n        /* \"#utility.yul\":6527:6647   */\n      iszero\n      tag_139\n      jumpi\n        /* \"#utility.yul\":6598:6637   */\n      tag_140\n        /* \"#utility.yul\":6635:6636   */\n      0x00\n        /* \"#utility.yul\":6628:6633   */\n      dup3\n        /* \"#utility.yul\":6598:6637   */\n      tag_54\n      jump\t// in\n    tag_140:\n        /* \"#utility.yul\":6571:6572   */\n      0x01\n        /* \"#utility.yul\":6564:6569   */\n      dup2\n        /* \"#utility.yul\":6560:6573   */\n      add\n        /* \"#utility.yul\":6551:6573   */\n      swap1\n      pop\n        /* \"#utility.yul\":6527:6647   */\n      jump(tag_137)\n    tag_139:\n        /* \"#utility.yul\":6467:6653   */\n      pop\n      pop\n      jump\t// out\n        /* \"#utility.yul\":6659:7202   */\n    tag_56:\n        /* \"#utility.yul\":6760:6762   */\n      0x1f\n        /* \"#utility.yul\":6755:6758   */\n      dup3\n        /* \"#utility.yul\":6752:6763   */\n      gt\n        /* \"#utility.yul\":6749:7195   */\n      iszero\n      tag_142\n      jumpi\n        /* \"#utility.yul\":6794:6832   */\n      tag_143\n        /* \"#utility.yul\":6826:6831   */\n      dup2\n        /* \"#utility.yul\":6794:6832   */\n      tag_45\n      jump\t// in\n    tag_143:\n        /* \"#utility.yul\":6878:6907   */\n      tag_144\n        /* \"#utility.yul\":6896:6906   */\n      dup5\n        /* \"#utility.yul\":6878:6907   */\n      tag_46\n      jump\t// in\n    tag_144:\n        /* \"#utility.yul\":6868:6876   */\n      dup2\n        /* \"#utility.yul\":6864:6908   */\n      add\n        /* \"#utility.yul\":7061:7063   */\n      0x20\n        /* \"#utility.yul\":7049:7059   */\n      dup6\n        /* \"#utility.yul\":7046:7064   */\n      lt\n        /* \"#utility.yul\":7043:7092   */\n      iszero\n      tag_145\n      jumpi\n        /* \"#utility.yul\":7082:7090   */\n      dup2\n        /* \"#utility.yul\":7067:7090   */\n      swap1\n      pop\n        /* \"#utility.yul\":7043:7092   */\n    tag_145:\n        /* \"#utility.yul\":7105:7185   */\n      tag_146\n        /* \"#utility.yul\":7161:7183   */\n      tag_147\n        /* \"#utility.yul\":7179:7182   */\n      dup6\n        /* \"#utility.yul\":7161:7183   */\n      tag_46\n      jump\t// in\n    tag_147:\n        /* \"#utility.yul\":7151:7159   */\n      dup4\n        /* \"#utility.yul\":7147:7184   */\n      add\n        /* \"#utility.yul\":7134:7145   */\n      dup3\n        /* \"#utility.yul\":7105:7185   */\n      tag_55\n      jump\t// in\n    tag_146:\n        /* \"#utility.yul\":6764:7195   */\n      pop\n      pop\n        /* \"#utility.yul\":6749:7195   */\n    tag_142:\n        /* \"#utility.yul\":6659:7202   */\n      pop\n      pop\n      pop\n      jump\t// out\n        /* \"#utility.yul\":7208:7325   */\n    tag_57:\n        /* \"#utility.yul\":7262:7270   */\n      0x00\n        /* \"#utility.yul\":7312:7317   */\n      dup3\n        /* \"#utility.yul\":7306:7310   */\n      dup3\n        /* \"#utility.yul\":7302:7318   */\n      shr\n        /* \"#utility.yul\":7281:7318   */\n      swap1\n      pop\n        /* \"#utility.yul\":7208:7325   */\n      swap3\n      swap2\n      pop\n      pop\n      jump\t// out\n        /* \"#utility.yul\":7331:7500   */\n    tag_58:\n        /* \"#utility.yul\":7375:7381   */\n      0x00\n        /* \"#utility.yul\":7408:7459   */\n      tag_150\n        /* \"#utility.yul\":7456:7457   */\n      0x00\n        /* \"#utility.yul\":7452:7458   */\n      not\n        /* \"#utility.yul\":7444:7449   */\n      dup5\n        /* \"#utility.yul\":7441:7442   */\n      0x08\n        /* \"#utility.yul\":7437:7450   */\n      mul\n        /* \"#utility.yul\":7408:7459   */\n      tag_57\n      jump\t// in\n    tag_150:\n        /* \"#utility.yul\":7404:7460   */\n      not\n        /* \"#utility.yul\":7489:7493   */\n      dup1\n        /* \"#utility.yul\":7483:7487   */\n      dup4\n        /* \"#utility.yul\":7479:7494   */\n      and\n        /* \"#utility.yul\":7469:7494   */\n      swap2\n      pop\n        /* \"#utility.yul\":7382:7500   */\n      pop\n        /* \"#utility.yul\":7331:7500   */\n      swap3\n      swap2\n      pop\n      pop\n      jump\t// out\n        /* \"#utility.yul\":7505:7800   */\n    tag_59:\n        /* \"#utility.yul\":7581:7585   */\n      0x00\n        /* \"#utility.yul\":7727:7756   */\n      tag_152\n        /* \"#utility.yul\":7752:7755   */\n      dup4\n        /* \"#utility.yul\":7746:7750   */\n      dup4\n        /* \"#utility.yul\":7727:7756   */\n      tag_58\n      jump\t// in\n    tag_152:\n        /* \"#utility.yul\":7719:7756   */\n      swap2\n      pop\n        /* \"#utility.yul\":7789:7792   */\n      dup3\n        /* \"#utility.yul\":7786:7787   */\n      0x02\n        /* \"#utility.yul\":7782:7793   */\n      mul\n        /* \"#utility.yul\":7776:7780   */\n      dup3\n        /* \"#utility.yul\":7773:7794   */\n      or\n        /* \"#utility.yul\":7765:7794   */\n      swap1\n      pop\n        /* \"#utility.yul\":7505:7800   */\n      swap3\n      swap2\n      pop\n      pop\n      jump\t// out\n        /* \"#utility.yul\":7805:9200   */\n    tag_20:\n        /* \"#utility.yul\":7922:7959   */\n      tag_154\n        /* \"#utility.yul\":7955:7958   */\n      dup3\n        /* \"#utility.yul\":7922:7959   */\n      tag_42\n      jump\t// in\n    tag_154:\n        /* \"#utility.yul\":8024:8042   */\n      0xffffffffffffffff\n        /* \"#utility.yul\":8016:8022   */\n      dup2\n        /* \"#utility.yul\":8013:8043   */\n      gt\n        /* \"#utility.yul\":8010:8066   */\n      iszero\n      tag_155\n      jumpi\n        /* \"#utility.yul\":8046:8064   */\n      tag_156\n      tag_33\n      jump\t// in\n    tag_156:\n        /* \"#utility.yul\":8010:8066   */\n    tag_155:\n        /* \"#utility.yul\":8090:8128   */\n      tag_157\n        /* \"#utility.yul\":8122:8126   */\n      dup3\n        /* \"#utility.yul\":8116:8127   */\n      sload\n        /* \"#utility.yul\":8090:8128   */\n      tag_44\n      jump\t// in\n    tag_157:\n        /* \"#utility.yul\":8175:8242   */\n      tag_158\n        /* \"#utility.yul\":8235:8241   */\n      dup3\n        /* \"#utility.yul\":8227:8233   */\n      dup3\n        /* \"#utility.yul\":8221:8225   */\n      dup6\n        /* \"#utility.yul\":8175:8242   */\n      tag_56\n      jump\t// in\n    tag_158:\n        /* \"#utility.yul\":8269:8270   */\n      0x00\n        /* \"#utility.yul\":8293:8297   */\n      0x20\n        /* \"#utility.yul\":8280:8297   */\n      swap1\n      pop\n        /* \"#utility.yul\":8325:8327   */\n      0x1f\n        /* \"#utility.yul\":8317:8323   */\n      dup4\n        /* \"#utility.yul\":8314:8328   */\n      gt\n        /* \"#utility.yul\":8342:8343   */\n      0x01\n        /* \"#utility.yul\":8337:8955   */\n      dup2\n      eq\n      tag_160\n      jumpi\n        /* \"#utility.yul\":8999:9000   */\n      0x00\n        /* \"#utility.yul\":9016:9022   */\n      dup5\n        /* \"#utility.yul\":9013:9090   */\n      iszero\n      tag_161\n      jumpi\n        /* \"#utility.yul\":9065:9074   */\n      dup3\n        /* \"#utility.yul\":9060:9063   */\n      dup8\n        /* \"#utility.yul\":9056:9075   */\n      add\n        /* \"#utility.yul\":9050:9076   */\n      mload\n        /* \"#utility.yul\":9041:9076   */\n      swap1\n      pop\n        /* \"#utility.yul\":9013:9090   */\n    tag_161:\n        /* \"#utility.yul\":9116:9183   */\n      tag_162\n        /* \"#utility.yul\":9176:9182   */\n      dup6\n        /* \"#utility.yul\":9169:9174   */\n      dup3\n        /* \"#utility.yul\":9116:9183   */\n      tag_59\n      jump\t// in\n    tag_162:\n        /* \"#utility.yul\":9110:9114   */\n      dup7\n        /* \"#utility.yul\":9103:9184   */\n      sstore\n        /* \"#utility.yul\":8972:9194   */\n      pop\n        /* \"#utility.yul\":8307:9194   */\n      jump(tag_159)\n        /* \"#utility.yul\":8337:8955   */\n    tag_160:\n        /* \"#utility.yul\":8389:8393   */\n      0x1f\n        /* \"#utility.yul\":8385:8394   */\n      not\n        /* \"#utility.yul\":8377:8383   */\n      dup5\n        /* \"#utility.yul\":8373:8395   */\n      and\n        /* \"#utility.yul\":8423:8460   */\n      tag_163\n        /* \"#utility.yul\":8455:8459   */\n      dup7\n        /* \"#utility.yul\":8423:8460   */\n      tag_45\n      jump\t// in\n    tag_163:\n        /* \"#utility.yul\":8482:8483   */\n      0x00\n        /* \"#utility.yul\":8496:8704   */\n    tag_164:\n        /* \"#utility.yul\":8510:8517   */\n      dup3\n        /* \"#utility.yul\":8507:8508   */\n      dup2\n        /* \"#utility.yul\":8504:8518   */\n      lt\n        /* \"#utility.yul\":8496:8704   */\n      iszero\n      tag_166\n      jumpi\n        /* \"#utility.yul\":8589:8598   */\n      dup5\n        /* \"#utility.yul\":8584:8587   */\n      dup10\n        /* \"#utility.yul\":8580:8599   */\n      add\n        /* \"#utility.yul\":8574:8600   */\n      mload\n        /* \"#utility.yul\":8566:8572   */\n      dup3\n        /* \"#utility.yul\":8559:8601   */\n      sstore\n        /* \"#utility.yul\":8640:8641   */\n      0x01\n        /* \"#utility.yul\":8632:8638   */\n      dup3\n        /* \"#utility.yul\":8628:8642   */\n      add\n        /* \"#utility.yul\":8618:8642   */\n      swap2\n      pop\n        /* \"#utility.yul\":8687:8689   */\n      0x20\n        /* \"#utility.yul\":8676:8685   */\n      dup6\n        /* \"#utility.yul\":8672:8690   */\n      add\n        /* \"#utility.yul\":8659:8690   */\n      swap5\n      pop\n        /* \"#utility.yul\":8533:8537   */\n      0x20\n        /* \"#utility.yul\":8530:8531   */\n      dup2\n        /* \"#utility.yul\":8526:8538   */\n      add\n        /* \"#utility.yul\":8521:8538   */\n      swap1\n      pop\n        /* \"#utility.yul\":8496:8704   */\n      jump(tag_164)\n    tag_166:\n        /* \"#utility.yul\":8732:8738   */\n      dup7\n        /* \"#utility.yul\":8723:8730   */\n      dup4\n        /* \"#utility.yul\":8720:8739   */\n      lt\n        /* \"#utility.yul\":8717:8896   */\n      iszero\n      tag_167\n      jumpi\n        /* \"#utility.yul\":8790:8799   */\n      dup5\n        /* \"#utility.yul\":8785:8788   */\n      dup10\n        /* \"#utility.yul\":8781:8800   */\n      add\n        /* \"#utility.yul\":8775:8801   */\n      mload\n        /* \"#utility.yul\":8833:8881   */\n      tag_168\n        /* \"#utility.yul\":8875:8879   */\n      0x1f\n        /* \"#utility.yul\":8867:8873   */\n      dup10\n        /* \"#utility.yul\":8863:8880   */\n      and\n        /* \"#utility.yul\":8852:8861   */\n      dup3\n        /* \"#utility.yul\":8833:8881   */\n      tag_58\n      jump\t// in\n    tag_168:\n        /* \"#utility.yul\":8825:8831   */\n      dup4\n        /* \"#utility.yul\":8818:8882   */\n      sstore\n        /* \"#utility.yul\":8740:8896   */\n      pop\n        /* \"#utility.yul\":8717:8896   */\n    tag_167:\n        /* \"#utility.yul\":8942:8943   */\n      0x01\n        /* \"#utility.yul\":8938:8939   */\n      0x02\n        /* \"#utility.yul\":8930:8936   */\n      dup9\n        /* \"#utility.yul\":8926:8940   */\n      mul\n        /* \"#utility.yul\":8922:8944   */\n      add\n        /* \"#utility.yul\":8916:8920   */\n      dup9\n        /* \"#utility.yul\":8909:8945   */\n      sstore\n        /* \"#utility.yul\":8344:8955   */\n      pop\n      pop\n      pop\n        /* \"#utility.yul\":8307:9194   */\n    tag_159:\n      pop\n        /* \"#utility.yul\":7897:9200   */\n      pop\n      pop\n      pop\n        /* \"#utility.yul\":7805:9200   */\n      pop\n      pop\n      jump\t// out\n\n    auxdata: 0xa26469706673582212202ce5f5fa5896a187a9a46ee0d1c25f364a6803dcb995bad44c7d4daf1baa0c4364736f6c634300081e0033\n}\n",
				"bytecode": {
					"linkReferences": {},
					"object": "6080604052348015600e575f5ffd5b506107048061001c5f395ff3fe608060405234801561000f575f5ffd5b506004361061003f575f3560e01c806336dcabe014610043578063c64e6f4c14610061578063f6bb33b114610091575b5f5ffd5b61004b61009b565b60405161005891906101e0565b60405180910390f35b61007b60048036038101906100769190610370565b6100a6565b60405161008891906101e0565b60405180910390f35b610099610108565b005b5f5f60020154905090565b5f6040518060600160405280858152602001848152602001838152505f5f820151815f0190816100d691906105ff565b5060208201518160010190816100ec91906105ff565b50604082015181600201559050505f6002015490509392505050565b60405180606001604052806040518060400160405280600b81526020017f4261746c6120486f75736500000000000000000000000000000000000000000081525081526020016040518060400160405280600481526020017f5377617200000000000000000000000000000000000000000000000000000000815250815260200160038152505f5f820151815f0190816101a291906105ff565b5060208201518160010190816101b891906105ff565b5060408201518160020155905050565b5f819050919050565b6101da816101c8565b82525050565b5f6020820190506101f35f8301846101d1565b92915050565b5f604051905090565b5f5ffd5b5f5ffd5b5f5ffd5b5f5ffd5b5f601f19601f8301169050919050565b7f4e487b71000000000000000000000000000000000000000000000000000000005f52604160045260245ffd5b61025882610212565b810181811067ffffffffffffffff8211171561027757610276610222565b5b80604052505050565b5f6102896101f9565b9050610295828261024f565b919050565b5f67ffffffffffffffff8211156102b4576102b3610222565b5b6102bd82610212565b9050602081019050919050565b828183375f83830152505050565b5f6102ea6102e58461029a565b610280565b9050828152602081018484840111156103065761030561020e565b5b6103118482856102ca565b509392505050565b5f82601f83011261032d5761032c61020a565b5b813561033d8482602086016102d8565b91505092915050565b61034f816101c8565b8114610359575f5ffd5b50565b5f8135905061036a81610346565b92915050565b5f5f5f6060848603121561038757610386610202565b5b5f84013567ffffffffffffffff8111156103a4576103a3610206565b5b6103b086828701610319565b935050602084013567ffffffffffffffff8111156103d1576103d0610206565b5b6103dd86828701610319565b92505060406103ee8682870161035c565b9150509250925092565b5f81519050919050565b7f4e487b71000000000000000000000000000000000000000000000000000000005f52602260045260245ffd5b5f600282049050600182168061044657607f821691505b60208210810361045957610458610402565b5b50919050565b5f819050815f5260205f209050919050565b5f6020601f8301049050919050565b5f82821b905092915050565b5f600883026104bb7fffffffffffffffffffffffffffffffffffffffffffffffffffffffffffffffff82610480565b6104c58683610480565b95508019841693508086168417925050509392505050565b5f819050919050565b5f6105006104fb6104f6846101c8565b6104dd565b6101c8565b9050919050565b5f819050919050565b610519836104e6565b61052d61052582610507565b84845461048c565b825550505050565b5f5f905090565b610544610535565b61054f818484610510565b505050565b5b81811015610572576105675f8261053c565b600181019050610555565b5050565b601f8211156105b7576105888161045f565b61059184610471565b810160208510156105a0578190505b6105b46105ac85610471565b830182610554565b50505b505050565b5f82821c905092915050565b5f6105d75f19846008026105bc565b1980831691505092915050565b5f6105ef83836105c8565b9150826002028217905092915050565b610608826103f8565b67ffffffffffffffff81111561062157610620610222565b5b61062b825461042f565b610636828285610576565b5f60209050601f831160018114610667575f8415610655578287015190505b61065f85826105e4565b8655506106c6565b601f1984166106758661045f565b5f5b8281101561069c57848901518255600182019150602085019450602081019050610677565b868310156106b957848901516106b5601f8916826105c8565b8355505b6001600288020188555050505b50505050505056fea26469706673582212202ce5f5fa5896a187a9a46ee0d1c25f364a6803dcb995bad44c7d4daf1baa0c4364736f6c634300081e0033",
					"opcodes": "PUSH1 0x80 PUSH1 0x40 MSTORE CALLVALUE DUP1 ISZERO PUSH1 0xE JUMPI PUSH0 PUSH0 REVERT JUMPDEST POP PUSH2 0x704 DUP1 PUSH2 0x1C PUSH0 CODECOPY PUSH0 RETURN INVALID PUSH1 0x80 PUSH1 0x40 MSTORE CALLVALUE DUP1 ISZERO PUSH2 0xF JUMPI PUSH0 PUSH0 REVERT JUMPDEST POP PUSH1 0x4 CALLDATASIZE LT PUSH2 0x3F JUMPI PUSH0 CALLDATALOAD PUSH1 0xE0 SHR DUP1 PUSH4 0x36DCABE0 EQ PUSH2 0x43 JUMPI DUP1 PUSH4 0xC64E6F4C EQ PUSH2 0x61 JUMPI DUP1 PUSH4 0xF6BB33B1 EQ PUSH2 0x91 JUMPI JUMPDEST PUSH0 PUSH0 REVERT JUMPDEST PUSH2 0x4B PUSH2 0x9B JUMP JUMPDEST PUSH1 0x40 MLOAD PUSH2 0x58 SWAP2 SWAP1 PUSH2 0x1E0 JUMP JUMPDEST PUSH1 0x40 MLOAD DUP1 SWAP2 SUB SWAP1 RETURN JUMPDEST PUSH2 0x7B PUSH1 0x4 DUP1 CALLDATASIZE SUB DUP2 ADD SWAP1 PUSH2 0x76 SWAP2 SWAP1 PUSH2 0x370 JUMP JUMPDEST PUSH2 0xA6 JUMP JUMPDEST PUSH1 0x40 MLOAD PUSH2 0x88 SWAP2 SWAP1 PUSH2 0x1E0 JUMP JUMPDEST PUSH1 0x40 MLOAD DUP1 SWAP2 SUB SWAP1 RETURN JUMPDEST PUSH2 0x99 PUSH2 0x108 JUMP JUMPDEST STOP JUMPDEST PUSH0 PUSH0 PUSH1 0x2 ADD SLOAD SWAP1 POP SWAP1 JUMP JUMPDEST PUSH0 PUSH1 0x40 MLOAD DUP1 PUSH1 0x60 ADD PUSH1 0x40 MSTORE DUP1 DUP6 DUP2 MSTORE PUSH1 0x20 ADD DUP5 DUP2 MSTORE PUSH1 0x20 ADD DUP4 DUP2 MSTORE POP PUSH0 PUSH0 DUP3 ADD MLOAD DUP2 PUSH0 ADD SWAP1 DUP2 PUSH2 0xD6 SWAP2 SWAP1 PUSH2 0x5FF JUMP JUMPDEST POP PUSH1 0x20 DUP3 ADD MLOAD DUP2 PUSH1 0x1 ADD SWAP1 DUP2 PUSH2 0xEC SWAP2 SWAP1 PUSH2 0x5FF JUMP JUMPDEST POP PUSH1 0x40 DUP3 ADD MLOAD DUP2 PUSH1 0x2 ADD SSTORE SWAP1 POP POP PUSH0 PUSH1 0x2 ADD SLOAD SWAP1 POP SWAP4 SWAP3 POP POP POP JUMP JUMPDEST PUSH1 0x40 MLOAD DUP1 PUSH1 0x60 ADD PUSH1 0x40 MSTORE DUP1 PUSH1 0x40 MLOAD DUP1 PUSH1 0x40 ADD PUSH1 0x40 MSTORE DUP1 PUSH1 0xB DUP2 MSTORE PUSH1 0x20 ADD PUSH32 0x4261746C6120486F757365000000000000000000000000000000000000000000 DUP2 MSTORE POP DUP2 MSTORE PUSH1 0x20 ADD PUSH1 0x40 MLOAD DUP1 PUSH1 0x40 ADD PUSH1 0x40 MSTORE DUP1 PUSH1 0x4 DUP2 MSTORE PUSH1 0x20 ADD PUSH32 0x5377617200000000000000000000000000000000000000000000000000000000 DUP2 MSTORE POP DUP2 MSTORE PUSH1 0x20 ADD PUSH1 0x3 DUP2 MSTORE POP PUSH0 PUSH0 DUP3 ADD MLOAD DUP2 PUSH0 ADD SWAP1 DUP2 PUSH2 0x1A2 SWAP2 SWAP1 PUSH2 0x5FF JUMP JUMPDEST POP PUSH1 0x20 DUP3 ADD MLOAD DUP2 PUSH1 0x1 ADD SWAP1 DUP2 PUSH2 0x1B8 SWAP2 SWAP1 PUSH2 0x5FF JUMP JUMPDEST POP PUSH1 0x40 DUP3 ADD MLOAD DUP2 PUSH1 0x2 ADD SSTORE SWAP1 POP POP JUMP JUMPDEST PUSH0 DUP2 SWAP1 POP SWAP2 SWAP1 POP JUMP JUMPDEST PUSH2 0x1DA DUP2 PUSH2 0x1C8 JUMP JUMPDEST DUP3 MSTORE POP POP JUMP JUMPDEST PUSH0 PUSH1 0x20 DUP3 ADD SWAP1 POP PUSH2 0x1F3 PUSH0 DUP4 ADD DUP5 PUSH2 0x1D1 JUMP JUMPDEST SWAP3 SWAP2 POP POP JUMP JUMPDEST PUSH0 PUSH1 0x40 MLOAD SWAP1 POP SWAP1 JUMP JUMPDEST PUSH0 PUSH0 REVERT JUMPDEST PUSH0 PUSH0 REVERT JUMPDEST PUSH0 PUSH0 REVERT JUMPDEST PUSH0 PUSH0 REVERT JUMPDEST PUSH0 PUSH1 0x1F NOT PUSH1 0x1F DUP4 ADD AND SWAP1 POP SWAP2 SWAP1 POP JUMP JUMPDEST PUSH32 0x4E487B7100000000000000000000000000000000000000000000000000000000 PUSH0 MSTORE PUSH1 0x41 PUSH1 0x4 MSTORE PUSH1 0x24 PUSH0 REVERT JUMPDEST PUSH2 0x258 DUP3 PUSH2 0x212 JUMP JUMPDEST DUP2 ADD DUP2 DUP2 LT PUSH8 0xFFFFFFFFFFFFFFFF DUP3 GT OR ISZERO PUSH2 0x277 JUMPI PUSH2 0x276 PUSH2 0x222 JUMP JUMPDEST JUMPDEST DUP1 PUSH1 0x40 MSTORE POP POP POP JUMP JUMPDEST PUSH0 PUSH2 0x289 PUSH2 0x1F9 JUMP JUMPDEST SWAP1 POP PUSH2 0x295 DUP3 DUP3 PUSH2 0x24F JUMP JUMPDEST SWAP2 SWAP1 POP JUMP JUMPDEST PUSH0 PUSH8 0xFFFFFFFFFFFFFFFF DUP3 GT ISZERO PUSH2 0x2B4 JUMPI PUSH2 0x2B3 PUSH2 0x222 JUMP JUMPDEST JUMPDEST PUSH2 0x2BD DUP3 PUSH2 0x212 JUMP JUMPDEST SWAP1 POP PUSH1 0x20 DUP2 ADD SWAP1 POP SWAP2 SWAP1 POP JUMP JUMPDEST DUP3 DUP2 DUP4 CALLDATACOPY PUSH0 DUP4 DUP4 ADD MSTORE POP POP POP JUMP JUMPDEST PUSH0 PUSH2 0x2EA PUSH2 0x2E5 DUP5 PUSH2 0x29A JUMP JUMPDEST PUSH2 0x280 JUMP JUMPDEST SWAP1 POP DUP3 DUP2 MSTORE PUSH1 0x20 DUP2 ADD DUP5 DUP5 DUP5 ADD GT ISZERO PUSH2 0x306 JUMPI PUSH2 0x305 PUSH2 0x20E JUMP JUMPDEST JUMPDEST PUSH2 0x311 DUP5 DUP3 DUP6 PUSH2 0x2CA JUMP JUMPDEST POP SWAP4 SWAP3 POP POP POP JUMP JUMPDEST PUSH0 DUP3 PUSH1 0x1F DUP4 ADD SLT PUSH2 0x32D JUMPI PUSH2 0x32C PUSH2 0x20A JUMP JUMPDEST JUMPDEST DUP2 CALLDATALOAD PUSH2 0x33D DUP5 DUP3 PUSH1 0x20 DUP7 ADD PUSH2 0x2D8 JUMP JUMPDEST SWAP2 POP POP SWAP3 SWAP2 POP POP JUMP JUMPDEST PUSH2 0x34F DUP2 PUSH2 0x1C8 JUMP JUMPDEST DUP2 EQ PUSH2 0x359 JUMPI PUSH0 PUSH0 REVERT JUMPDEST POP JUMP JUMPDEST PUSH0 DUP2 CALLDATALOAD SWAP1 POP PUSH2 0x36A DUP2 PUSH2 0x346 JUMP JUMPDEST SWAP3 SWAP2 POP POP JUMP JUMPDEST PUSH0 PUSH0 PUSH0 PUSH1 0x60 DUP5 DUP7 SUB SLT ISZERO PUSH2 0x387 JUMPI PUSH2 0x386 PUSH2 0x202 JUMP JUMPDEST JUMPDEST PUSH0 DUP5 ADD CALLDATALOAD PUSH8 0xFFFFFFFFFFFFFFFF DUP2 GT ISZERO PUSH2 0x3A4 JUMPI PUSH2 0x3A3 PUSH2 0x206 JUMP JUMPDEST JUMPDEST PUSH2 0x3B0 DUP7 DUP3 DUP8 ADD PUSH2 0x319 JUMP JUMPDEST SWAP4 POP POP PUSH1 0x20 DUP5 ADD CALLDATALOAD PUSH8 0xFFFFFFFFFFFFFFFF DUP2 GT ISZERO PUSH2 0x3D1 JUMPI PUSH2 0x3D0 PUSH2 0x206 JUMP JUMPDEST JUMPDEST PUSH2 0x3DD DUP7 DUP3 DUP8 ADD PUSH2 0x319 JUMP JUMPDEST SWAP3 POP POP PUSH1 0x40 PUSH2 0x3EE DUP7 DUP3 DUP8 ADD PUSH2 0x35C JUMP JUMPDEST SWAP2 POP POP SWAP3 POP SWAP3 POP SWAP3 JUMP JUMPDEST PUSH0 DUP2 MLOAD SWAP1 POP SWAP2 SWAP1 POP JUMP JUMPDEST PUSH32 0x4E487B7100000000000000000000000000000000000000000000000000000000 PUSH0 MSTORE PUSH1 0x22 PUSH1 0x4 MSTORE PUSH1 0x24 PUSH0 REVERT JUMPDEST PUSH0 PUSH1 0x2 DUP3 DIV SWAP1 POP PUSH1 0x1 DUP3 AND DUP1 PUSH2 0x446 JUMPI PUSH1 0x7F DUP3 AND SWAP2 POP JUMPDEST PUSH1 0x20 DUP3 LT DUP2 SUB PUSH2 0x459 JUMPI PUSH2 0x458 PUSH2 0x402 JUMP JUMPDEST JUMPDEST POP SWAP2 SWAP1 POP JUMP JUMPDEST PUSH0 DUP2 SWAP1 POP DUP2 PUSH0 MSTORE PUSH1 0x20 PUSH0 KECCAK256 SWAP1 POP SWAP2 SWAP1 POP JUMP JUMPDEST PUSH0 PUSH1 0x20 PUSH1 0x1F DUP4 ADD DIV SWAP1 POP SWAP2 SWAP1 POP JUMP JUMPDEST PUSH0 DUP3 DUP3 SHL SWAP1 POP SWAP3 SWAP2 POP POP JUMP JUMPDEST PUSH0 PUSH1 0x8 DUP4 MUL PUSH2 0x4BB PUSH32 0xFFFFFFFFFFFFFFFFFFFFFFFFFFFFFFFFFFFFFFFFFFFFFFFFFFFFFFFFFFFFFFFF DUP3 PUSH2 0x480 JUMP JUMPDEST PUSH2 0x4C5 DUP7 DUP4 PUSH2 0x480 JUMP JUMPDEST SWAP6 POP DUP1 NOT DUP5 AND SWAP4 POP DUP1 DUP7 AND DUP5 OR SWAP3 POP POP POP SWAP4 SWAP3 POP POP POP JUMP JUMPDEST PUSH0 DUP2 SWAP1 POP SWAP2 SWAP1 POP JUMP JUMPDEST PUSH0 PUSH2 0x500 PUSH2 0x4FB PUSH2 0x4F6 DUP5 PUSH2 0x1C8 JUMP JUMPDEST PUSH2 0x4DD JUMP JUMPDEST PUSH2 0x1C8 JUMP JUMPDEST SWAP1 POP SWAP2 SWAP1 POP JUMP JUMPDEST PUSH0 DUP2 SWAP1 POP SWAP2 SWAP1 POP JUMP JUMPDEST PUSH2 0x519 DUP4 PUSH2 0x4E6 JUMP JUMPDEST PUSH2 0x52D PUSH2 0x525 DUP3 PUSH2 0x507 JUMP JUMPDEST DUP5 DUP5 SLOAD PUSH2 0x48C JUMP JUMPDEST DUP3 SSTORE POP POP POP POP JUMP JUMPDEST PUSH0 PUSH0 SWAP1 POP SWAP1 JUMP JUMPDEST PUSH2 0x544 PUSH2 0x535 JUMP JUMPDEST PUSH2 0x54F DUP2 DUP5 DUP5 PUSH2 0x510 JUMP JUMPDEST POP POP POP JUMP JUMPDEST JUMPDEST DUP2 DUP2 LT ISZERO PUSH2 0x572 JUMPI PUSH2 0x567 PUSH0 DUP3 PUSH2 0x53C JUMP JUMPDEST PUSH1 0x1 DUP2 ADD SWAP1 POP PUSH2 0x555 JUMP JUMPDEST POP POP JUMP JUMPDEST PUSH1 0x1F DUP3 GT ISZERO PUSH2 0x5B7 JUMPI PUSH2 0x588 DUP2 PUSH2 0x45F JUMP JUMPDEST PUSH2 0x591 DUP5 PUSH2 0x471 JUMP JUMPDEST DUP2 ADD PUSH1 0x20 DUP6 LT ISZERO PUSH2 0x5A0 JUMPI DUP2 SWAP1 POP JUMPDEST PUSH2 0x5B4 PUSH2 0x5AC DUP6 PUSH2 0x471 JUMP JUMPDEST DUP4 ADD DUP3 PUSH2 0x554 JUMP JUMPDEST POP POP JUMPDEST POP POP POP JUMP JUMPDEST PUSH0 DUP3 DUP3 SHR SWAP1 POP SWAP3 SWAP2 POP POP JUMP JUMPDEST PUSH0 PUSH2 0x5D7 PUSH0 NOT DUP5 PUSH1 0x8 MUL PUSH2 0x5BC JUMP JUMPDEST NOT DUP1 DUP4 AND SWAP2 POP POP SWAP3 SWAP2 POP POP JUMP JUMPDEST PUSH0 PUSH2 0x5EF DUP4 DUP4 PUSH2 0x5C8 JUMP JUMPDEST SWAP2 POP DUP3 PUSH1 0x2 MUL DUP3 OR SWAP1 POP SWAP3 SWAP2 POP POP JUMP JUMPDEST PUSH2 0x608 DUP3 PUSH2 0x3F8 JUMP JUMPDEST PUSH8 0xFFFFFFFFFFFFFFFF DUP2 GT ISZERO PUSH2 0x621 JUMPI PUSH2 0x620 PUSH2 0x222 JUMP JUMPDEST JUMPDEST PUSH2 0x62B DUP3 SLOAD PUSH2 0x42F JUMP JUMPDEST PUSH2 0x636 DUP3 DUP3 DUP6 PUSH2 0x576 JUMP JUMPDEST PUSH0 PUSH1 0x20 SWAP1 POP PUSH1 0x1F DUP4 GT PUSH1 0x1 DUP2 EQ PUSH2 0x667 JUMPI PUSH0 DUP5 ISZERO PUSH2 0x655 JUMPI DUP3 DUP8 ADD MLOAD SWAP1 POP JUMPDEST PUSH2 0x65F DUP6 DUP3 PUSH2 0x5E4 JUMP JUMPDEST DUP7 SSTORE POP PUSH2 0x6C6 JUMP JUMPDEST PUSH1 0x1F NOT DUP5 AND PUSH2 0x675 DUP7 PUSH2 0x45F JUMP JUMPDEST PUSH0 JUMPDEST DUP3 DUP2 LT ISZERO PUSH2 0x69C JUMPI DUP5 DUP10 ADD MLOAD DUP3 SSTORE PUSH1 0x1 DUP3 ADD SWAP2 POP PUSH1 0x20 DUP6 ADD SWAP5 POP PUSH1 0x20 DUP2 ADD SWAP1 POP PUSH2 0x677 JUMP JUMPDEST DUP7 DUP4 LT ISZERO PUSH2 0x6B9 JUMPI DUP5 DUP10 ADD MLOAD PUSH2 0x6B5 PUSH1 0x1F DUP10 AND DUP3 PUSH2 0x5C8 JUMP JUMPDEST DUP4 SSTORE POP JUMPDEST PUSH1 0x1 PUSH1 0x2 DUP9 MUL ADD DUP9 SSTORE POP POP POP JUMPDEST POP POP POP POP POP POP JUMP INVALID LOG2 PUSH5 0x6970667358 0x22 SLT KECCAK256 0x2C JUMPF 0xF5FA PC SWAP7 LOG1 DUP8 0xA9 LOG4 PUSH15 0xE0D1C25F364A6803DCB995BAD44C7D 0x4D 0xAF SHL 0xAA 0xC NUMBER PUSH5 0x736F6C6343 STOP ADDMOD 0x1E STOP CALLER "
				},
				"gasEstimates": {
					"creation": {
						"codeDepositCost": "359200",
						"executionCost": "397",
						"totalCost": "359597"
					},
					"external": {
						"getMovieId()": "2415",
						"setMovie()": "infinite",
						"setNewMovie(string,string,uint256)": "infinite"
					}
				},
				"methodIdentifiers": {
					"getMovieId()": "36dcabe0",
					"setMovie()": "f6bb33b1",
					"setNewMovie(string,string,uint256)": "c64e6f4c"
				}
			},
			"storageLayout": {
				"storage": [
					{
						"astId": 11,
						"contract": "solidityCourse2/Module1/struct.sol:structure",
						"label": "movie",
						"offset": 0,
						"slot": "0",
						"type": "t_struct(Movie)8_storage"
					},
					{
						"astId": 58,
						"contract": "solidityCourse2/Module1/struct.sol:structure",
						"label": "comedy",
						"offset": 0,
						"slot": "3",
						"type": "t_struct(Movie)8_storage"
					}
				],
				"types": {
					"t_string_storage": {
						"encoding": "bytes",
						"label": "string",
						"numberOfBytes": "32"
					},
					"t_struct(Movie)8_storage": {
						"encoding": "inplace",
						"label": "struct structure.Movie",
						"members": [
							{
								"astId": 3,
								"contract": "solidityCourse2/Module1/struct.sol:structure",
								"label": "title",
								"offset": 0,
								"slot": "0",
								"type": "t_string_storage"
							},
							{
								"astId": 5,
								"contract": "solidityCourse2/Module1/struct.sol:structure",
								"label": "director",
								"offset": 0,
								"slot": "1",
								"type": "t_string_storage"
							},
							{
								"astId": 7,
								"contract": "solidityCourse2/Module1/struct.sol:structure",
								"label": "id",
								"offset": 0,
								"slot": "2",
								"type": "t_uint256"
							}
						],
						"numberOfBytes": "96"
					},
					"t_uint256": {
						"encoding": "inplace",
						"label": "uint256",
						"numberOfBytes": "32"
					}
				}
			},
			"userdoc": {
				"kind": "user",
				"methods": {},
				"version": 1
			}
		}
	}
}