{
	"solidityCourse3/Module3/Iheritance.sol": {
		"B": {
			"abi": [
				{
					"inputs": [],
					"name": "getInnerVal",
					"outputs": [
						{
							"internalType": "uint256",
							"name": "",
							"type": "uint256"
						}
					],
					"stateMutability": "view",
					"type": "function"
				},
				{
					"inputs": [
						{
							"internalType": "uint256",
							"name": "val",
							"type": "uint256"
						}
					],
					"name": "innerAddTen",
					"outputs": [
						{
							"internalType": "uint256",
							"name": "",
							"type": "uint256"
						}
					],
					"stateMutability": "pure",
					"type": "function"
				},
				{
					"inputs": [
						{
							"internalType": "uint256",
							"name": "amt",
							"type": "uint256"
						}
					],
					"name": "outerAddTen",
					"outputs": [
						{
							"internalType": "uint256",
							"name": "",
							"type": "uint256"
						}
					],
					"stateMutability": "pure",
					"type": "function"
				}
			],
			"devdoc": {
				"kind": "dev",
				"methods": {},
				"version": 1
			},
			"evm": {
				"assembly": "    /* \"solidityCourse3/Module3/Iheritance.sol\":199:414  contract B is A{... */\n  mstore(0x40, 0x80)\n    /* \"solidityCourse3/Module3/Iheritance.sol\":93:96  100 */\n  0x64\n    /* \"solidityCourse3/Module3/Iheritance.sol\":79:96  uint innerSol=100 */\n  0x00\n  sstore\n    /* \"solidityCourse3/Module3/Iheritance.sol\":199:414  contract B is A{... */\n  callvalue\n  dup1\n  iszero\n  tag_1\n  jumpi\n  revert(0x00, 0x00)\ntag_1:\n  pop\n  dataSize(sub_0)\n  dup1\n  dataOffset(sub_0)\n  0x00\n  codecopy\n  0x00\n  return\nstop\n\nsub_0: assembly {\n        /* \"solidityCourse3/Module3/Iheritance.sol\":199:414  contract B is A{... */\n      mstore(0x40, 0x80)\n      callvalue\n      dup1\n      iszero\n      tag_1\n      jumpi\n      revert(0x00, 0x00)\n    tag_1:\n      pop\n      jumpi(tag_2, lt(calldatasize, 0x04))\n      shr(0xe0, calldataload(0x00))\n      dup1\n      0x0d2069ad\n      eq\n      tag_3\n      jumpi\n      dup1\n      0x65b92b70\n      eq\n      tag_4\n      jumpi\n      dup1\n      0x876fe953\n      eq\n      tag_5\n      jumpi\n    tag_2:\n      revert(0x00, 0x00)\n        /* \"solidityCourse3/Module3/Iheritance.sol\":327:411  function getInnerVal() public view returns(uint){... */\n    tag_3:\n      tag_6\n      tag_7\n      jump\t// in\n    tag_6:\n      mload(0x40)\n      tag_8\n      swap2\n      swap1\n      tag_9\n      jump\t// in\n    tag_8:\n      mload(0x40)\n      dup1\n      swap2\n      sub\n      swap1\n      return\n        /* \"solidityCourse3/Module3/Iheritance.sol\":221:321  function outerAddTen(uint amt) public pure returns(uint){... */\n    tag_4:\n      tag_10\n      0x04\n      dup1\n      calldatasize\n      sub\n      dup2\n      add\n      swap1\n      tag_11\n      swap2\n      swap1\n      tag_12\n      jump\t// in\n    tag_11:\n      tag_13\n      jump\t// in\n    tag_10:\n      mload(0x40)\n      tag_14\n      swap2\n      swap1\n      tag_9\n      jump\t// in\n    tag_14:\n      mload(0x40)\n      dup1\n      swap2\n      sub\n      swap1\n      return\n        /* \"solidityCourse3/Module3/Iheritance.sol\":103:191  function innerAddTen(uint val) public pure returns(uint){... */\n    tag_5:\n      tag_15\n      0x04\n      dup1\n      calldatasize\n      sub\n      dup2\n      add\n      swap1\n      tag_16\n      swap2\n      swap1\n      tag_12\n      jump\t// in\n    tag_16:\n      tag_17\n      jump\t// in\n    tag_15:\n      mload(0x40)\n      tag_18\n      swap2\n      swap1\n      tag_9\n      jump\t// in\n    tag_18:\n      mload(0x40)\n      dup1\n      swap2\n      sub\n      swap1\n      return\n        /* \"solidityCourse3/Module3/Iheritance.sol\":327:411  function getInnerVal() public view returns(uint){... */\n    tag_7:\n        /* \"solidityCourse3/Module3/Iheritance.sol\":370:374  uint */\n      0x00\n        /* \"solidityCourse3/Module3/Iheritance.sol\":393:403  A.innerSol */\n      sload(0x00)\n        /* \"solidityCourse3/Module3/Iheritance.sol\":386:403  return A.innerSol */\n      swap1\n      pop\n        /* \"solidityCourse3/Module3/Iheritance.sol\":327:411  function getInnerVal() public view returns(uint){... */\n      swap1\n      jump\t// out\n        /* \"solidityCourse3/Module3/Iheritance.sol\":221:321  function outerAddTen(uint amt) public pure returns(uint){... */\n    tag_13:\n        /* \"solidityCourse3/Module3/Iheritance.sol\":272:276  uint */\n      0x00\n        /* \"solidityCourse3/Module3/Iheritance.sol\":295:313  A.innerAddTen(amt) */\n      tag_21\n        /* \"solidityCourse3/Module3/Iheritance.sol\":309:312  amt */\n      dup3\n        /* \"solidityCourse3/Module3/Iheritance.sol\":295:308  A.innerAddTen */\n      tag_17\n        /* \"solidityCourse3/Module3/Iheritance.sol\":295:313  A.innerAddTen(amt) */\n      jump\t// in\n    tag_21:\n        /* \"solidityCourse3/Module3/Iheritance.sol\":288:313  return A.innerAddTen(amt) */\n      swap1\n      pop\n        /* \"solidityCourse3/Module3/Iheritance.sol\":221:321  function outerAddTen(uint amt) public pure returns(uint){... */\n      swap2\n      swap1\n      pop\n      jump\t// out\n        /* \"solidityCourse3/Module3/Iheritance.sol\":103:191  function innerAddTen(uint val) public pure returns(uint){... */\n    tag_17:\n        /* \"solidityCourse3/Module3/Iheritance.sol\":154:158  uint */\n      0x00\n        /* \"solidityCourse3/Module3/Iheritance.sol\":181:183  10 */\n      0x0a\n        /* \"solidityCourse3/Module3/Iheritance.sol\":177:180  val */\n      dup3\n        /* \"solidityCourse3/Module3/Iheritance.sol\":177:183  val+10 */\n      tag_23\n      swap2\n      swap1\n      tag_24\n      jump\t// in\n    tag_23:\n        /* \"solidityCourse3/Module3/Iheritance.sol\":170:183  return val+10 */\n      swap1\n      pop\n        /* \"solidityCourse3/Module3/Iheritance.sol\":103:191  function innerAddTen(uint val) public pure returns(uint){... */\n      swap2\n      swap1\n      pop\n      jump\t// out\n        /* \"#utility.yul\":7:84   */\n    tag_25:\n        /* \"#utility.yul\":44:51   */\n      0x00\n        /* \"#utility.yul\":73:78   */\n      dup2\n        /* \"#utility.yul\":62:78   */\n      swap1\n      pop\n        /* \"#utility.yul\":7:84   */\n      swap2\n      swap1\n      pop\n      jump\t// out\n        /* \"#utility.yul\":90:208   */\n    tag_26:\n        /* \"#utility.yul\":177:201   */\n      tag_36\n        /* \"#utility.yul\":195:200   */\n      dup2\n        /* \"#utility.yul\":177:201   */\n      tag_25\n      jump\t// in\n    tag_36:\n        /* \"#utility.yul\":172:175   */\n      dup3\n        /* \"#utility.yul\":165:202   */\n      mstore\n        /* \"#utility.yul\":90:208   */\n      pop\n      pop\n      jump\t// out\n        /* \"#utility.yul\":214:436   */\n    tag_9:\n        /* \"#utility.yul\":307:311   */\n      0x00\n        /* \"#utility.yul\":345:347   */\n      0x20\n        /* \"#utility.yul\":334:343   */\n      dup3\n        /* \"#utility.yul\":330:348   */\n      add\n        /* \"#utility.yul\":322:348   */\n      swap1\n      pop\n        /* \"#utility.yul\":358:429   */\n      tag_38\n        /* \"#utility.yul\":426:427   */\n      0x00\n        /* \"#utility.yul\":415:424   */\n      dup4\n        /* \"#utility.yul\":411:428   */\n      add\n        /* \"#utility.yul\":402:408   */\n      dup5\n        /* \"#utility.yul\":358:429   */\n      tag_26\n      jump\t// in\n    tag_38:\n        /* \"#utility.yul\":214:436   */\n      swap3\n      swap2\n      pop\n      pop\n      jump\t// out\n        /* \"#utility.yul\":523:640   */\n    tag_28:\n        /* \"#utility.yul\":632:633   */\n      0x00\n        /* \"#utility.yul\":629:630   */\n      0x00\n        /* \"#utility.yul\":622:634   */\n      revert\n        /* \"#utility.yul\":769:891   */\n    tag_30:\n        /* \"#utility.yul\":842:866   */\n      tag_43\n        /* \"#utility.yul\":860:865   */\n      dup2\n        /* \"#utility.yul\":842:866   */\n      tag_25\n      jump\t// in\n    tag_43:\n        /* \"#utility.yul\":835:840   */\n      dup2\n        /* \"#utility.yul\":832:867   */\n      eq\n        /* \"#utility.yul\":822:885   */\n      tag_44\n      jumpi\n        /* \"#utility.yul\":881:882   */\n      0x00\n        /* \"#utility.yul\":878:879   */\n      0x00\n        /* \"#utility.yul\":871:883   */\n      revert\n        /* \"#utility.yul\":822:885   */\n    tag_44:\n        /* \"#utility.yul\":769:891   */\n      pop\n      jump\t// out\n        /* \"#utility.yul\":897:1036   */\n    tag_31:\n        /* \"#utility.yul\":943:948   */\n      0x00\n        /* \"#utility.yul\":981:987   */\n      dup2\n        /* \"#utility.yul\":968:988   */\n      calldataload\n        /* \"#utility.yul\":959:988   */\n      swap1\n      pop\n        /* \"#utility.yul\":997:1030   */\n      tag_46\n        /* \"#utility.yul\":1024:1029   */\n      dup2\n        /* \"#utility.yul\":997:1030   */\n      tag_30\n      jump\t// in\n    tag_46:\n        /* \"#utility.yul\":897:1036   */\n      swap3\n      swap2\n      pop\n      pop\n      jump\t// out\n        /* \"#utility.yul\":1042:1371   */\n    tag_12:\n        /* \"#utility.yul\":1101:1107   */\n      0x00\n        /* \"#utility.yul\":1150:1152   */\n      0x20\n        /* \"#utility.yul\":1138:1147   */\n      dup3\n        /* \"#utility.yul\":1129:1136   */\n      dup5\n        /* \"#utility.yul\":1125:1148   */\n      sub\n        /* \"#utility.yul\":1121:1153   */\n      slt\n        /* \"#utility.yul\":1118:1237   */\n      iszero\n      tag_48\n      jumpi\n        /* \"#utility.yul\":1156:1235   */\n      tag_49\n      tag_28\n      jump\t// in\n    tag_49:\n        /* \"#utility.yul\":1118:1237   */\n    tag_48:\n        /* \"#utility.yul\":1276:1277   */\n      0x00\n        /* \"#utility.yul\":1301:1354   */\n      tag_50\n        /* \"#utility.yul\":1346:1353   */\n      dup5\n        /* \"#utility.yul\":1337:1343   */\n      dup3\n        /* \"#utility.yul\":1326:1335   */\n      dup6\n        /* \"#utility.yul\":1322:1344   */\n      add\n        /* \"#utility.yul\":1301:1354   */\n      tag_31\n      jump\t// in\n    tag_50:\n        /* \"#utility.yul\":1291:1354   */\n      swap2\n      pop\n        /* \"#utility.yul\":1247:1364   */\n      pop\n        /* \"#utility.yul\":1042:1371   */\n      swap3\n      swap2\n      pop\n      pop\n      jump\t// out\n        /* \"#utility.yul\":1377:1557   */\n    tag_32:\n        /* \"#utility.yul\":1425:1502   */\n      0x4e487b7100000000000000000000000000000000000000000000000000000000\n        /* \"#utility.yul\":1422:1423   */\n      0x00\n        /* \"#utility.yul\":1415:1503   */\n      mstore\n        /* \"#utility.yul\":1522:1526   */\n      0x11\n        /* \"#utility.yul\":1519:1520   */\n      0x04\n        /* \"#utility.yul\":1512:1527   */\n      mstore\n        /* \"#utility.yul\":1546:1550   */\n      0x24\n        /* \"#utility.yul\":1543:1544   */\n      0x00\n        /* \"#utility.yul\":1536:1551   */\n      revert\n        /* \"#utility.yul\":1563:1754   */\n    tag_24:\n        /* \"#utility.yul\":1603:1606   */\n      0x00\n        /* \"#utility.yul\":1622:1642   */\n      tag_53\n        /* \"#utility.yul\":1640:1641   */\n      dup3\n        /* \"#utility.yul\":1622:1642   */\n      tag_25\n      jump\t// in\n    tag_53:\n        /* \"#utility.yul\":1617:1642   */\n      swap2\n      pop\n        /* \"#utility.yul\":1656:1676   */\n      tag_54\n        /* \"#utility.yul\":1674:1675   */\n      dup4\n        /* \"#utility.yul\":1656:1676   */\n      tag_25\n      jump\t// in\n    tag_54:\n        /* \"#utility.yul\":1651:1676   */\n      swap3\n      pop\n        /* \"#utility.yul\":1699:1700   */\n      dup3\n        /* \"#utility.yul\":1696:1697   */\n      dup3\n        /* \"#utility.yul\":1692:1701   */\n      add\n        /* \"#utility.yul\":1685:1701   */\n      swap1\n      pop\n        /* \"#utility.yul\":1720:1723   */\n      dup1\n        /* \"#utility.yul\":1717:1718   */\n      dup3\n        /* \"#utility.yul\":1714:1724   */\n      gt\n        /* \"#utility.yul\":1711:1747   */\n      iszero\n      tag_55\n      jumpi\n        /* \"#utility.yul\":1727:1745   */\n      tag_56\n      tag_32\n      jump\t// in\n    tag_56:\n        /* \"#utility.yul\":1711:1747   */\n    tag_55:\n        /* \"#utility.yul\":1563:1754   */\n      swap3\n      swap2\n      pop\n      pop\n      jump\t// out\n\n    auxdata: 0xa26469706673582212205013555ccd6386827ea13697d187d2536abfc8e7429535deb21e0c4c8636d1d764736f6c634300081e0033\n}\n",
				"bytecode": {
					"linkReferences": {},
					"object": "608060405260645f553480156012575f5ffd5b5061020f806100205f395ff3fe608060405234801561000f575f5ffd5b506004361061003f575f3560e01c80630d2069ad1461004357806365b92b7014610061578063876fe95314610091575b5f5ffd5b61004b6100c1565b6040516100589190610107565b60405180910390f35b61007b6004803603810190610076919061014e565b6100c9565b6040516100889190610107565b60405180910390f35b6100ab60048036038101906100a6919061014e565b6100da565b6040516100b89190610107565b60405180910390f35b5f5f54905090565b5f6100d3826100da565b9050919050565b5f600a826100e891906101a6565b9050919050565b5f819050919050565b610101816100ef565b82525050565b5f60208201905061011a5f8301846100f8565b92915050565b5f5ffd5b61012d816100ef565b8114610137575f5ffd5b50565b5f8135905061014881610124565b92915050565b5f6020828403121561016357610162610120565b5b5f6101708482850161013a565b91505092915050565b7f4e487b71000000000000000000000000000000000000000000000000000000005f52601160045260245ffd5b5f6101b0826100ef565b91506101bb836100ef565b92508282019050808211156101d3576101d2610179565b5b9291505056fea26469706673582212205013555ccd6386827ea13697d187d2536abfc8e7429535deb21e0c4c8636d1d764736f6c634300081e0033",
					"opcodes": "PUSH1 0x80 PUSH1 0x40 MSTORE PUSH1 0x64 PUSH0 SSTORE CALLVALUE DUP1 ISZERO PUSH1 0x12 JUMPI PUSH0 PUSH0 REVERT JUMPDEST POP PUSH2 0x20F DUP1 PUSH2 0x20 PUSH0 CODECOPY PUSH0 RETURN INVALID PUSH1 0x80 PUSH1 0x40 MSTORE CALLVALUE DUP1 ISZERO PUSH2 0xF JUMPI PUSH0 PUSH0 REVERT JUMPDEST POP PUSH1 0x4 CALLDATASIZE LT PUSH2 0x3F JUMPI PUSH0 CALLDATALOAD PUSH1 0xE0 SHR DUP1 PUSH4 0xD2069AD EQ PUSH2 0x43 JUMPI DUP1 PUSH4 0x65B92B70 EQ PUSH2 0x61 JUMPI DUP1 PUSH4 0x876FE953 EQ PUSH2 0x91 JUMPI JUMPDEST PUSH0 PUSH0 REVERT JUMPDEST PUSH2 0x4B PUSH2 0xC1 JUMP JUMPDEST PUSH1 0x40 MLOAD PUSH2 0x58 SWAP2 SWAP1 PUSH2 0x107 JUMP JUMPDEST PUSH1 0x40 MLOAD DUP1 SWAP2 SUB SWAP1 RETURN JUMPDEST PUSH2 0x7B PUSH1 0x4 DUP1 CALLDATASIZE SUB DUP2 ADD SWAP1 PUSH2 0x76 SWAP2 SWAP1 PUSH2 0x14E JUMP JUMPDEST PUSH2 0xC9 JUMP JUMPDEST PUSH1 0x40 MLOAD PUSH2 0x88 SWAP2 SWAP1 PUSH2 0x107 JUMP JUMPDEST PUSH1 0x40 MLOAD DUP1 SWAP2 SUB SWAP1 RETURN JUMPDEST PUSH2 0xAB PUSH1 0x4 DUP1 CALLDATASIZE SUB DUP2 ADD SWAP1 PUSH2 0xA6 SWAP2 SWAP1 PUSH2 0x14E JUMP JUMPDEST PUSH2 0xDA JUMP JUMPDEST PUSH1 0x40 MLOAD PUSH2 0xB8 SWAP2 SWAP1 PUSH2 0x107 JUMP JUMPDEST PUSH1 0x40 MLOAD DUP1 SWAP2 SUB SWAP1 RETURN JUMPDEST PUSH0 PUSH0 SLOAD SWAP1 POP SWAP1 JUMP JUMPDEST PUSH0 PUSH2 0xD3 DUP3 PUSH2 0xDA JUMP JUMPDEST SWAP1 POP SWAP2 SWAP1 POP JUMP JUMPDEST PUSH0 PUSH1 0xA DUP3 PUSH2 0xE8 SWAP2 SWAP1 PUSH2 0x1A6 JUMP JUMPDEST SWAP1 POP SWAP2 SWAP1 POP JUMP JUMPDEST PUSH0 DUP2 SWAP1 POP SWAP2 SWAP1 POP JUMP JUMPDEST PUSH2 0x101 DUP2 PUSH2 0xEF JUMP JUMPDEST DUP3 MSTORE POP POP JUMP JUMPDEST PUSH0 PUSH1 0x20 DUP3 ADD SWAP1 POP PUSH2 0x11A PUSH0 DUP4 ADD DUP5 PUSH2 0xF8 JUMP JUMPDEST SWAP3 SWAP2 POP POP JUMP JUMPDEST PUSH0 PUSH0 REVERT JUMPDEST PUSH2 0x12D DUP2 PUSH2 0xEF JUMP JUMPDEST DUP2 EQ PUSH2 0x137 JUMPI PUSH0 PUSH0 REVERT JUMPDEST POP JUMP JUMPDEST PUSH0 DUP2 CALLDATALOAD SWAP1 POP PUSH2 0x148 DUP2 PUSH2 0x124 JUMP JUMPDEST SWAP3 SWAP2 POP POP JUMP JUMPDEST PUSH0 PUSH1 0x20 DUP3 DUP5 SUB SLT ISZERO PUSH2 0x163 JUMPI PUSH2 0x162 PUSH2 0x120 JUMP JUMPDEST JUMPDEST PUSH0 PUSH2 0x170 DUP5 DUP3 DUP6 ADD PUSH2 0x13A JUMP JUMPDEST SWAP2 POP POP SWAP3 SWAP2 POP POP JUMP JUMPDEST PUSH32 0x4E487B7100000000000000000000000000000000000000000000000000000000 PUSH0 MSTORE PUSH1 0x11 PUSH1 0x4 MSTORE PUSH1 0x24 PUSH0 REVERT JUMPDEST PUSH0 PUSH2 0x1B0 DUP3 PUSH2 0xEF JUMP JUMPDEST SWAP2 POP PUSH2 0x1BB DUP4 PUSH2 0xEF JUMP JUMPDEST SWAP3 POP DUP3 DUP3 ADD SWAP1 POP DUP1 DUP3 GT ISZERO PUSH2 0x1D3 JUMPI PUSH2 0x1D2 PUSH2 0x179 JUMP JUMPDEST JUMPDEST SWAP3 SWAP2 POP POP JUMP INVALID LOG2 PUSH5 0x6970667358 0x22 SLT KECCAK256 POP SGT SSTORE TLOAD 0xCD PUSH4 0x86827EA1 CALLDATASIZE SWAP8 DATALOADN 0x87D2 MSTORE8 PUSH11 0xBFC8E7429535DEB21E0C4C DUP7 CALLDATASIZE DATALOADN 0xD764 PUSH20 0x6F6C634300081E00330000000000000000000000 "
				},
				"gasEstimates": {
					"creation": {
						"codeDepositCost": "105400",
						"executionCost": "22256",
						"totalCost": "127656"
					},
					"external": {
						"getInnerVal()": "2409",
						"innerAddTen(uint256)": "infinite",
						"outerAddTen(uint256)": "infinite"
					}
				},
				"methodIdentifiers": {
					"getInnerVal()": "0d2069ad",
					"innerAddTen(uint256)": "876fe953",
					"outerAddTen(uint256)": "65b92b70"
				}
			},
			"storageLayout": {
				"storage": [
					{
						"astId": 4,
						"contract": "solidityCourse3/Module3/Iheritance.sol:B",
						"label": "innerSol",
						"offset": 0,
						"slot": "0",
						"type": "t_uint256"
					}
				],
				"types": {
					"t_uint256": {
						"encoding": "inplace",
						"label": "uint256",
						"numberOfBytes": "32"
					}
				}
			},
			"userdoc": {
				"kind": "user",
				"methods": {},
				"version": 1
			}
		}
	}
}