{
	"solidityCourse3/Module3/Iheritance.sol": {
		"A": {
			"abi": [
				{
					"inputs": [
						{
							"internalType": "uint256",
							"name": "val",
							"type": "uint256"
						}
					],
					"name": "innerAddTen",
					"outputs": [
						{
							"internalType": "uint256",
							"name": "",
							"type": "uint256"
						}
					],
					"stateMutability": "pure",
					"type": "function"
				}
			],
			"devdoc": {
				"kind": "dev",
				"methods": {},
				"version": 1
			},
			"evm": {
				"assembly": "    /* \"solidityCourse3/Module3/Iheritance.sol\":62:195  contract A{... */\n  mstore(0x40, 0x80)\n    /* \"solidityCourse3/Module3/Iheritance.sol\":93:96  100 */\n  0x64\n    /* \"solidityCourse3/Module3/Iheritance.sol\":79:96  uint innerSol=100 */\n  0x00\n  sstore\n    /* \"solidityCourse3/Module3/Iheritance.sol\":62:195  contract A{... */\n  callvalue\n  dup1\n  iszero\n  tag_1\n  jumpi\n  revert(0x00, 0x00)\ntag_1:\n  pop\n  dataSize(sub_0)\n  dup1\n  dataOffset(sub_0)\n  0x00\n  codecopy\n  0x00\n  return\nstop\n\nsub_0: assembly {\n        /* \"solidityCourse3/Module3/Iheritance.sol\":62:195  contract A{... */\n      mstore(0x40, 0x80)\n      callvalue\n      dup1\n      iszero\n      tag_1\n      jumpi\n      revert(0x00, 0x00)\n    tag_1:\n      pop\n      jumpi(tag_2, lt(calldatasize, 0x04))\n      shr(0xe0, calldataload(0x00))\n      dup1\n      0x876fe953\n      eq\n      tag_3\n      jumpi\n    tag_2:\n      revert(0x00, 0x00)\n        /* \"solidityCourse3/Module3/Iheritance.sol\":103:191  function innerAddTen(uint val) public pure returns(uint){... */\n    tag_3:\n      tag_4\n      0x04\n      dup1\n      calldatasize\n      sub\n      dup2\n      add\n      swap1\n      tag_5\n      swap2\n      swap1\n      tag_6\n      jump\t// in\n    tag_5:\n      tag_7\n      jump\t// in\n    tag_4:\n      mload(0x40)\n      tag_8\n      swap2\n      swap1\n      tag_9\n      jump\t// in\n    tag_8:\n      mload(0x40)\n      dup1\n      swap2\n      sub\n      swap1\n      return\n    tag_7:\n        /* \"solidityCourse3/Module3/Iheritance.sol\":154:158  uint */\n      0x00\n        /* \"solidityCourse3/Module3/Iheritance.sol\":181:183  10 */\n      0x0a\n        /* \"solidityCourse3/Module3/Iheritance.sol\":177:180  val */\n      dup3\n        /* \"solidityCourse3/Module3/Iheritance.sol\":177:183  val+10 */\n      tag_11\n      swap2\n      swap1\n      tag_12\n      jump\t// in\n    tag_11:\n        /* \"solidityCourse3/Module3/Iheritance.sol\":170:183  return val+10 */\n      swap1\n      pop\n        /* \"solidityCourse3/Module3/Iheritance.sol\":103:191  function innerAddTen(uint val) public pure returns(uint){... */\n      swap2\n      swap1\n      pop\n      jump\t// out\n        /* \"#utility.yul\":88:205   */\n    tag_14:\n        /* \"#utility.yul\":197:198   */\n      0x00\n        /* \"#utility.yul\":194:195   */\n      0x00\n        /* \"#utility.yul\":187:199   */\n      revert\n        /* \"#utility.yul\":334:411   */\n    tag_16:\n        /* \"#utility.yul\":371:378   */\n      0x00\n        /* \"#utility.yul\":400:405   */\n      dup2\n        /* \"#utility.yul\":389:405   */\n      swap1\n      pop\n        /* \"#utility.yul\":334:411   */\n      swap2\n      swap1\n      pop\n      jump\t// out\n        /* \"#utility.yul\":417:539   */\n    tag_17:\n        /* \"#utility.yul\":490:514   */\n      tag_27\n        /* \"#utility.yul\":508:513   */\n      dup2\n        /* \"#utility.yul\":490:514   */\n      tag_16\n      jump\t// in\n    tag_27:\n        /* \"#utility.yul\":483:488   */\n      dup2\n        /* \"#utility.yul\":480:515   */\n      eq\n        /* \"#utility.yul\":470:533   */\n      tag_28\n      jumpi\n        /* \"#utility.yul\":529:530   */\n      0x00\n        /* \"#utility.yul\":526:527   */\n      0x00\n        /* \"#utility.yul\":519:531   */\n      revert\n        /* \"#utility.yul\":470:533   */\n    tag_28:\n        /* \"#utility.yul\":417:539   */\n      pop\n      jump\t// out\n        /* \"#utility.yul\":545:684   */\n    tag_18:\n        /* \"#utility.yul\":591:596   */\n      0x00\n        /* \"#utility.yul\":629:635   */\n      dup2\n        /* \"#utility.yul\":616:636   */\n      calldataload\n        /* \"#utility.yul\":607:636   */\n      swap1\n      pop\n        /* \"#utility.yul\":645:678   */\n      tag_30\n        /* \"#utility.yul\":672:677   */\n      dup2\n        /* \"#utility.yul\":645:678   */\n      tag_17\n      jump\t// in\n    tag_30:\n        /* \"#utility.yul\":545:684   */\n      swap3\n      swap2\n      pop\n      pop\n      jump\t// out\n        /* \"#utility.yul\":690:1019   */\n    tag_6:\n        /* \"#utility.yul\":749:755   */\n      0x00\n        /* \"#utility.yul\":798:800   */\n      0x20\n        /* \"#utility.yul\":786:795   */\n      dup3\n        /* \"#utility.yul\":777:784   */\n      dup5\n        /* \"#utility.yul\":773:796   */\n      sub\n        /* \"#utility.yul\":769:801   */\n      slt\n        /* \"#utility.yul\":766:885   */\n      iszero\n      tag_32\n      jumpi\n        /* \"#utility.yul\":804:883   */\n      tag_33\n      tag_14\n      jump\t// in\n    tag_33:\n        /* \"#utility.yul\":766:885   */\n    tag_32:\n        /* \"#utility.yul\":924:925   */\n      0x00\n        /* \"#utility.yul\":949:1002   */\n      tag_34\n        /* \"#utility.yul\":994:1001   */\n      dup5\n        /* \"#utility.yul\":985:991   */\n      dup3\n        /* \"#utility.yul\":974:983   */\n      dup6\n        /* \"#utility.yul\":970:992   */\n      add\n        /* \"#utility.yul\":949:1002   */\n      tag_18\n      jump\t// in\n    tag_34:\n        /* \"#utility.yul\":939:1002   */\n      swap2\n      pop\n        /* \"#utility.yul\":895:1012   */\n      pop\n        /* \"#utility.yul\":690:1019   */\n      swap3\n      swap2\n      pop\n      pop\n      jump\t// out\n        /* \"#utility.yul\":1025:1143   */\n    tag_19:\n        /* \"#utility.yul\":1112:1136   */\n      tag_36\n        /* \"#utility.yul\":1130:1135   */\n      dup2\n        /* \"#utility.yul\":1112:1136   */\n      tag_16\n      jump\t// in\n    tag_36:\n        /* \"#utility.yul\":1107:1110   */\n      dup3\n        /* \"#utility.yul\":1100:1137   */\n      mstore\n        /* \"#utility.yul\":1025:1143   */\n      pop\n      pop\n      jump\t// out\n        /* \"#utility.yul\":1149:1371   */\n    tag_9:\n        /* \"#utility.yul\":1242:1246   */\n      0x00\n        /* \"#utility.yul\":1280:1282   */\n      0x20\n        /* \"#utility.yul\":1269:1278   */\n      dup3\n        /* \"#utility.yul\":1265:1283   */\n      add\n        /* \"#utility.yul\":1257:1283   */\n      swap1\n      pop\n        /* \"#utility.yul\":1293:1364   */\n      tag_38\n        /* \"#utility.yul\":1361:1362   */\n      0x00\n        /* \"#utility.yul\":1350:1359   */\n      dup4\n        /* \"#utility.yul\":1346:1363   */\n      add\n        /* \"#utility.yul\":1337:1343   */\n      dup5\n        /* \"#utility.yul\":1293:1364   */\n      tag_19\n      jump\t// in\n    tag_38:\n        /* \"#utility.yul\":1149:1371   */\n      swap3\n      swap2\n      pop\n      pop\n      jump\t// out\n        /* \"#utility.yul\":1377:1557   */\n    tag_20:\n        /* \"#utility.yul\":1425:1502   */\n      0x4e487b7100000000000000000000000000000000000000000000000000000000\n        /* \"#utility.yul\":1422:1423   */\n      0x00\n        /* \"#utility.yul\":1415:1503   */\n      mstore\n        /* \"#utility.yul\":1522:1526   */\n      0x11\n        /* \"#utility.yul\":1519:1520   */\n      0x04\n        /* \"#utility.yul\":1512:1527   */\n      mstore\n        /* \"#utility.yul\":1546:1550   */\n      0x24\n        /* \"#utility.yul\":1543:1544   */\n      0x00\n        /* \"#utility.yul\":1536:1551   */\n      revert\n        /* \"#utility.yul\":1563:1754   */\n    tag_12:\n        /* \"#utility.yul\":1603:1606   */\n      0x00\n        /* \"#utility.yul\":1622:1642   */\n      tag_41\n        /* \"#utility.yul\":1640:1641   */\n      dup3\n        /* \"#utility.yul\":1622:1642   */\n      tag_16\n      jump\t// in\n    tag_41:\n        /* \"#utility.yul\":1617:1642   */\n      swap2\n      pop\n        /* \"#utility.yul\":1656:1676   */\n      tag_42\n        /* \"#utility.yul\":1674:1675   */\n      dup4\n        /* \"#utility.yul\":1656:1676   */\n      tag_16\n      jump\t// in\n    tag_42:\n        /* \"#utility.yul\":1651:1676   */\n      swap3\n      pop\n        /* \"#utility.yul\":1699:1700   */\n      dup3\n        /* \"#utility.yul\":1696:1697   */\n      dup3\n        /* \"#utility.yul\":1692:1701   */\n      add\n        /* \"#utility.yul\":1685:1701   */\n      swap1\n      pop\n        /* \"#utility.yul\":1720:1723   */\n      dup1\n        /* \"#utility.yul\":1717:1718   */\n      dup3\n        /* \"#utility.yul\":1714:1724   */\n      gt\n        /* \"#utility.yul\":1711:1747   */\n      iszero\n      tag_43\n      jumpi\n        /* \"#utility.yul\":1727:1745   */\n      tag_44\n      tag_20\n      jump\t// in\n    tag_44:\n        /* \"#utility.yul\":1711:1747   */\n    tag_43:\n        /* \"#utility.yul\":1563:1754   */\n      swap3\n      swap2\n      pop\n      pop\n      jump\t// out\n\n    auxdata: 0xa2646970667358221220e950f5ba09f8beead92e671e243367e198d85004ce611c7eccb4d643ba6435fc64736f6c634300081e0033\n}\n",
				"bytecode": {
					"linkReferences": {},
					"object": "608060405260645f553480156012575f5ffd5b50610192806100205f395ff3fe608060405234801561000f575f5ffd5b5060043610610029575f3560e01c8063876fe9531461002d575b5f5ffd5b610047600480360381019061004291906100a9565b61005d565b60405161005491906100e3565b60405180910390f35b5f600a8261006b9190610129565b9050919050565b5f5ffd5b5f819050919050565b61008881610076565b8114610092575f5ffd5b50565b5f813590506100a38161007f565b92915050565b5f602082840312156100be576100bd610072565b5b5f6100cb84828501610095565b91505092915050565b6100dd81610076565b82525050565b5f6020820190506100f65f8301846100d4565b92915050565b7f4e487b71000000000000000000000000000000000000000000000000000000005f52601160045260245ffd5b5f61013382610076565b915061013e83610076565b9250828201905080821115610156576101556100fc565b5b9291505056fea2646970667358221220e950f5ba09f8beead92e671e243367e198d85004ce611c7eccb4d643ba6435fc64736f6c634300081e0033",
					"opcodes": "PUSH1 0x80 PUSH1 0x40 MSTORE PUSH1 0x64 PUSH0 SSTORE CALLVALUE DUP1 ISZERO PUSH1 0x12 JUMPI PUSH0 PUSH0 REVERT JUMPDEST POP PUSH2 0x192 DUP1 PUSH2 0x20 PUSH0 CODECOPY PUSH0 RETURN INVALID PUSH1 0x80 PUSH1 0x40 MSTORE CALLVALUE DUP1 ISZERO PUSH2 0xF JUMPI PUSH0 PUSH0 REVERT JUMPDEST POP PUSH1 0x4 CALLDATASIZE LT PUSH2 0x29 JUMPI PUSH0 CALLDATALOAD PUSH1 0xE0 SHR DUP1 PUSH4 0x876FE953 EQ PUSH2 0x2D JUMPI JUMPDEST PUSH0 PUSH0 REVERT JUMPDEST PUSH2 0x47 PUSH1 0x4 DUP1 CALLDATASIZE SUB DUP2 ADD SWAP1 PUSH2 0x42 SWAP2 SWAP1 PUSH2 0xA9 JUMP JUMPDEST PUSH2 0x5D JUMP JUMPDEST PUSH1 0x40 MLOAD PUSH2 0x54 SWAP2 SWAP1 PUSH2 0xE3 JUMP JUMPDEST PUSH1 0x40 MLOAD DUP1 SWAP2 SUB SWAP1 RETURN JUMPDEST PUSH0 PUSH1 0xA DUP3 PUSH2 0x6B SWAP2 SWAP1 PUSH2 0x129 JUMP JUMPDEST SWAP1 POP SWAP2 SWAP1 POP JUMP JUMPDEST PUSH0 PUSH0 REVERT JUMPDEST PUSH0 DUP2 SWAP1 POP SWAP2 SWAP1 POP JUMP JUMPDEST PUSH2 0x88 DUP2 PUSH2 0x76 JUMP JUMPDEST DUP2 EQ PUSH2 0x92 JUMPI PUSH0 PUSH0 REVERT JUMPDEST POP JUMP JUMPDEST PUSH0 DUP2 CALLDATALOAD SWAP1 POP PUSH2 0xA3 DUP2 PUSH2 0x7F JUMP JUMPDEST SWAP3 SWAP2 POP POP JUMP JUMPDEST PUSH0 PUSH1 0x20 DUP3 DUP5 SUB SLT ISZERO PUSH2 0xBE JUMPI PUSH2 0xBD PUSH2 0x72 JUMP JUMPDEST JUMPDEST PUSH0 PUSH2 0xCB DUP5 DUP3 DUP6 ADD PUSH2 0x95 JUMP JUMPDEST SWAP2 POP POP SWAP3 SWAP2 POP POP JUMP JUMPDEST PUSH2 0xDD DUP2 PUSH2 0x76 JUMP JUMPDEST DUP3 MSTORE POP POP JUMP JUMPDEST PUSH0 PUSH1 0x20 DUP3 ADD SWAP1 POP PUSH2 0xF6 PUSH0 DUP4 ADD DUP5 PUSH2 0xD4 JUMP JUMPDEST SWAP3 SWAP2 POP POP JUMP JUMPDEST PUSH32 0x4E487B7100000000000000000000000000000000000000000000000000000000 PUSH0 MSTORE PUSH1 0x11 PUSH1 0x4 MSTORE PUSH1 0x24 PUSH0 REVERT JUMPDEST PUSH0 PUSH2 0x133 DUP3 PUSH2 0x76 JUMP JUMPDEST SWAP2 POP PUSH2 0x13E DUP4 PUSH2 0x76 JUMP JUMPDEST SWAP3 POP DUP3 DUP3 ADD SWAP1 POP DUP1 DUP3 GT ISZERO PUSH2 0x156 JUMPI PUSH2 0x155 PUSH2 0xFC JUMP JUMPDEST JUMPDEST SWAP3 SWAP2 POP POP JUMP INVALID LOG2 PUSH5 0x6970667358 0x22 SLT KECCAK256 0xE9 POP CREATE2 0xBA MULMOD EXTCALL 0xBE 0xEA 0xD9 0x2E PUSH8 0x1E243367E198D850 DIV 0xCE PUSH2 0x1C7E 0xCC 0xB4 0xD6 NUMBER 0xBA PUSH5 0x35FC64736F PUSH13 0x634300081E0033000000000000 "
				},
				"gasEstimates": {
					"creation": {
						"codeDepositCost": "80400",
						"executionCost": "22232",
						"totalCost": "102632"
					},
					"external": {
						"innerAddTen(uint256)": "infinite"
					}
				},
				"methodIdentifiers": {
					"innerAddTen(uint256)": "876fe953"
				}
			},
			"storageLayout": {
				"storage": [
					{
						"astId": 4,
						"contract": "solidityCourse3/Module3/Iheritance.sol:A",
						"label": "innerSol",
						"offset": 0,
						"slot": "0",
						"type": "t_uint256"
					}
				],
				"types": {
					"t_uint256": {
						"encoding": "inplace",
						"label": "uint256",
						"numberOfBytes": "32"
					}
				}
			},
			"userdoc": {
				"kind": "user",
				"methods": {},
				"version": 1
			}
		}
	}
}