{
	"solidityCourse3/Module1/vul_test.sol": {
		"victim": {
			"abi": [
				{
					"inputs": [],
					"name": "isItAContract",
					"outputs": [
						{
							"internalType": "bool",
							"name": "",
							"type": "bool"
						}
					],
					"stateMutability": "view",
					"type": "function"
				}
			],
			"devdoc": {
				"kind": "dev",
				"methods": {},
				"version": 1
			},
			"evm": {
				"assembly": "    /* \"solidityCourse3/Module1/vul_test.sol\":60:286  contract victim{... */\n  mstore(0x40, 0x80)\n  callvalue\n  dup1\n  iszero\n  tag_1\n  jumpi\n  revert(0x00, 0x00)\ntag_1:\n  pop\n  dataSize(sub_0)\n  dup1\n  dataOffset(sub_0)\n  0x00\n  codecopy\n  0x00\n  return\nstop\n\nsub_0: assembly {\n        /* \"solidityCourse3/Module1/vul_test.sol\":60:286  contract victim{... */\n      mstore(0x40, 0x80)\n      callvalue\n      dup1\n      iszero\n      tag_1\n      jumpi\n      revert(0x00, 0x00)\n    tag_1:\n      pop\n      jumpi(tag_2, lt(calldatasize, 0x04))\n      shr(0xe0, calldataload(0x00))\n      dup1\n      0x63bae962\n      eq\n      tag_3\n      jumpi\n    tag_2:\n      revert(0x00, 0x00)\n        /* \"solidityCourse3/Module1/vul_test.sol\":82:283  function isItAContract() public view returns(bool){... */\n    tag_3:\n      tag_4\n      tag_5\n      jump\t// in\n    tag_4:\n      mload(0x40)\n      tag_6\n      swap2\n      swap1\n      tag_7\n      jump\t// in\n    tag_6:\n      mload(0x40)\n      dup1\n      swap2\n      sub\n      swap1\n      return\n    tag_5:\n        /* \"solidityCourse3/Module1/vul_test.sol\":127:131  bool */\n      0x00\n        /* \"solidityCourse3/Module1/vul_test.sol\":143:152  uint size */\n      0x00\n        /* \"solidityCourse3/Module1/vul_test.sol\":163:172  address a */\n      0x00\n        /* \"solidityCourse3/Module1/vul_test.sol\":175:185  msg.sender */\n      caller\n        /* \"solidityCourse3/Module1/vul_test.sol\":163:185  address a = msg.sender */\n      swap1\n      pop\n        /* \"solidityCourse3/Module1/vul_test.sol\":238:239  a */\n      dup1\n        /* \"solidityCourse3/Module1/vul_test.sol\":226:240  extcodesize(a) */\n      extcodesize\n        /* \"solidityCourse3/Module1/vul_test.sol\":220:240  size:=extcodesize(a) */\n      swap2\n      pop\n        /* \"solidityCourse3/Module1/vul_test.sol\":273:274  0 */\n      0x00\n        /* \"solidityCourse3/Module1/vul_test.sol\":268:272  size */\n      dup3\n        /* \"solidityCourse3/Module1/vul_test.sol\":268:274  size>0 */\n      gt\n        /* \"solidityCourse3/Module1/vul_test.sol\":261:275  return(size>0) */\n      swap3\n      pop\n      pop\n      pop\n        /* \"solidityCourse3/Module1/vul_test.sol\":82:283  function isItAContract() public view returns(bool){... */\n      swap1\n      jump\t// out\n        /* \"#utility.yul\":7:97   */\n    tag_9:\n        /* \"#utility.yul\":41:48   */\n      0x00\n        /* \"#utility.yul\":84:89   */\n      dup2\n        /* \"#utility.yul\":77:90   */\n      iszero\n        /* \"#utility.yul\":70:91   */\n      iszero\n        /* \"#utility.yul\":59:91   */\n      swap1\n      pop\n        /* \"#utility.yul\":7:97   */\n      swap2\n      swap1\n      pop\n      jump\t// out\n        /* \"#utility.yul\":103:212   */\n    tag_10:\n        /* \"#utility.yul\":184:205   */\n      tag_14\n        /* \"#utility.yul\":199:204   */\n      dup2\n        /* \"#utility.yul\":184:205   */\n      tag_9\n      jump\t// in\n    tag_14:\n        /* \"#utility.yul\":179:182   */\n      dup3\n        /* \"#utility.yul\":172:206   */\n      mstore\n        /* \"#utility.yul\":103:212   */\n      pop\n      pop\n      jump\t// out\n        /* \"#utility.yul\":218:428   */\n    tag_7:\n        /* \"#utility.yul\":305:309   */\n      0x00\n        /* \"#utility.yul\":343:345   */\n      0x20\n        /* \"#utility.yul\":332:341   */\n      dup3\n        /* \"#utility.yul\":328:346   */\n      add\n        /* \"#utility.yul\":320:346   */\n      swap1\n      pop\n        /* \"#utility.yul\":356:421   */\n      tag_16\n        /* \"#utility.yul\":418:419   */\n      0x00\n        /* \"#utility.yul\":407:416   */\n      dup4\n        /* \"#utility.yul\":403:420   */\n      add\n        /* \"#utility.yul\":394:400   */\n      dup5\n        /* \"#utility.yul\":356:421   */\n      tag_10\n      jump\t// in\n    tag_16:\n        /* \"#utility.yul\":218:428   */\n      swap3\n      swap2\n      pop\n      pop\n      jump\t// out\n\n    auxdata: 0xa2646970667358221220fe6a4f3c252c360e79001c5d482bf9db7da003b6c05fb87fc4e312a6cb2d93d564736f6c634300081e0033\n}\n",
				"bytecode": {
					"linkReferences": {},
					"object": "6080604052348015600e575f5ffd5b5060bd80601a5f395ff3fe6080604052348015600e575f5ffd5b50600436106026575f3560e01c806363bae96214602a575b5f5ffd5b60306044565b604051603b91906070565b60405180910390f35b5f5f5f339050803b91505f82119250505090565b5f8115159050919050565b606a816058565b82525050565b5f60208201905060815f8301846063565b9291505056fea2646970667358221220fe6a4f3c252c360e79001c5d482bf9db7da003b6c05fb87fc4e312a6cb2d93d564736f6c634300081e0033",
					"opcodes": "PUSH1 0x80 PUSH1 0x40 MSTORE CALLVALUE DUP1 ISZERO PUSH1 0xE JUMPI PUSH0 PUSH0 REVERT JUMPDEST POP PUSH1 0xBD DUP1 PUSH1 0x1A PUSH0 CODECOPY PUSH0 RETURN INVALID PUSH1 0x80 PUSH1 0x40 MSTORE CALLVALUE DUP1 ISZERO PUSH1 0xE JUMPI PUSH0 PUSH0 REVERT JUMPDEST POP PUSH1 0x4 CALLDATASIZE LT PUSH1 0x26 JUMPI PUSH0 CALLDATALOAD PUSH1 0xE0 SHR DUP1 PUSH4 0x63BAE962 EQ PUSH1 0x2A JUMPI JUMPDEST PUSH0 PUSH0 REVERT JUMPDEST PUSH1 0x30 PUSH1 0x44 JUMP JUMPDEST PUSH1 0x40 MLOAD PUSH1 0x3B SWAP2 SWAP1 PUSH1 0x70 JUMP JUMPDEST PUSH1 0x40 MLOAD DUP1 SWAP2 SUB SWAP1 RETURN JUMPDEST PUSH0 PUSH0 PUSH0 CALLER SWAP1 POP DUP1 EXTCODESIZE SWAP2 POP PUSH0 DUP3 GT SWAP3 POP POP POP SWAP1 JUMP JUMPDEST PUSH0 DUP2 ISZERO ISZERO SWAP1 POP SWAP2 SWAP1 POP JUMP JUMPDEST PUSH1 0x6A DUP2 PUSH1 0x58 JUMP JUMPDEST DUP3 MSTORE POP POP JUMP JUMPDEST PUSH0 PUSH1 0x20 DUP3 ADD SWAP1 POP PUSH1 0x81 PUSH0 DUP4 ADD DUP5 PUSH1 0x63 JUMP JUMPDEST SWAP3 SWAP2 POP POP JUMP INVALID LOG2 PUSH5 0x6970667358 0x22 SLT KECCAK256 INVALID PUSH11 0x4F3C252C360E79001C5D48 0x2B EXTDELEGATECALL 0xDB PUSH30 0xA003B6C05FB87FC4E312A6CB2D93D564736F6C634300081E003300000000 "
				},
				"gasEstimates": {
					"creation": {
						"codeDepositCost": "37800",
						"executionCost": "85",
						"totalCost": "37885"
					},
					"external": {
						"isItAContract()": "2944"
					}
				},
				"methodIdentifiers": {
					"isItAContract()": "63bae962"
				}
			},
			"storageLayout": {
				"storage": [],
				"types": null
			},
			"userdoc": {
				"kind": "user",
				"methods": {},
				"version": 1
			}
		}
	}
}