{
	"solidityCourse2/Module3/paymentExcercise.sol": {
		"Register": {
			"abi": [
				{
					"inputs": [
						{
							"internalType": "uint256",
							"name": "_initialPrice",
							"type": "uint256"
						}
					],
					"stateMutability": "nonpayable",
					"type": "constructor"
				},
				{
					"inputs": [
						{
							"internalType": "uint256",
							"name": "_price",
							"type": "uint256"
						}
					],
					"name": "changePrice",
					"outputs": [],
					"stateMutability": "nonpayable",
					"type": "function"
				},
				{
					"inputs": [],
					"name": "price",
					"outputs": [
						{
							"internalType": "uint256",
							"name": "",
							"type": "uint256"
						}
					],
					"stateMutability": "view",
					"type": "function"
				},
				{
					"inputs": [],
					"name": "register",
					"outputs": [],
					"stateMutability": "payable",
					"type": "function"
				}
			],
			"devdoc": {
				"kind": "dev",
				"methods": {},
				"version": 1
			},
			"evm": {
				"assembly": "    /* \"solidityCourse2/Module3/paymentExcercise.sol\":339:718  contract Register is Owner{... */\n  mstore(0x40, 0x80)\n    /* \"solidityCourse2/Module3/paymentExcercise.sol\":445:515  constructor(uint _initialPrice) {... */\n  callvalue\n  dup1\n  iszero\n  tag_1\n  jumpi\n  revert(0x00, 0x00)\ntag_1:\n  pop\n  mload(0x40)\n  sub(codesize, bytecodeSize)\n  dup1\n  bytecodeSize\n  dup4\n  codecopy\n  dup2\n  dup2\n  add\n  0x40\n  mstore\n  dup2\n  add\n  swap1\n  tag_2\n  swap2\n  swap1\n  tag_3\n  jump\t// in\ntag_2:\n    /* \"solidityCourse2/Module3/paymentExcercise.sol\":139:149  msg.sender */\n  caller\n    /* \"solidityCourse2/Module3/paymentExcercise.sol\":133:138  owner */\n  0x00\n  0x00\n    /* \"solidityCourse2/Module3/paymentExcercise.sol\":133:149  owner=msg.sender */\n  0x0100\n  exp\n  dup2\n  sload\n  dup2\n  0xffffffffffffffffffffffffffffffffffffffff\n  mul\n  not\n  and\n  swap1\n  dup4\n  0xffffffffffffffffffffffffffffffffffffffff\n  and\n  mul\n  or\n  swap1\n  sstore\n  pop\n    /* \"solidityCourse2/Module3/paymentExcercise.sol\":494:507  _initialPrice */\n  dup1\n    /* \"solidityCourse2/Module3/paymentExcercise.sol\":488:493  price */\n  0x02\n    /* \"solidityCourse2/Module3/paymentExcercise.sol\":488:507  price=_initialPrice */\n  dup2\n  swap1\n  sstore\n  pop\n    /* \"solidityCourse2/Module3/paymentExcercise.sol\":445:515  constructor(uint _initialPrice) {... */\n  pop\n    /* \"solidityCourse2/Module3/paymentExcercise.sol\":339:718  contract Register is Owner{... */\n  jump(tag_8)\n    /* \"#utility.yul\":88:205   */\ntag_10:\n    /* \"#utility.yul\":197:198   */\n  0x00\n    /* \"#utility.yul\":194:195   */\n  0x00\n    /* \"#utility.yul\":187:199   */\n  revert\n    /* \"#utility.yul\":334:411   */\ntag_12:\n    /* \"#utility.yul\":371:378   */\n  0x00\n    /* \"#utility.yul\":400:405   */\n  dup2\n    /* \"#utility.yul\":389:405   */\n  swap1\n  pop\n    /* \"#utility.yul\":334:411   */\n  swap2\n  swap1\n  pop\n  jump\t// out\n    /* \"#utility.yul\":417:539   */\ntag_13:\n    /* \"#utility.yul\":490:514   */\n  tag_21\n    /* \"#utility.yul\":508:513   */\n  dup2\n    /* \"#utility.yul\":490:514   */\n  tag_12\n  jump\t// in\ntag_21:\n    /* \"#utility.yul\":483:488   */\n  dup2\n    /* \"#utility.yul\":480:515   */\n  eq\n    /* \"#utility.yul\":470:533   */\n  tag_22\n  jumpi\n    /* \"#utility.yul\":529:530   */\n  0x00\n    /* \"#utility.yul\":526:527   */\n  0x00\n    /* \"#utility.yul\":519:531   */\n  revert\n    /* \"#utility.yul\":470:533   */\ntag_22:\n    /* \"#utility.yul\":417:539   */\n  pop\n  jump\t// out\n    /* \"#utility.yul\":545:688   */\ntag_14:\n    /* \"#utility.yul\":602:607   */\n  0x00\n    /* \"#utility.yul\":633:639   */\n  dup2\n    /* \"#utility.yul\":627:640   */\n  mload\n    /* \"#utility.yul\":618:640   */\n  swap1\n  pop\n    /* \"#utility.yul\":649:682   */\n  tag_24\n    /* \"#utility.yul\":676:681   */\n  dup2\n    /* \"#utility.yul\":649:682   */\n  tag_13\n  jump\t// in\ntag_24:\n    /* \"#utility.yul\":545:688   */\n  swap3\n  swap2\n  pop\n  pop\n  jump\t// out\n    /* \"#utility.yul\":694:1045   */\ntag_3:\n    /* \"#utility.yul\":764:770   */\n  0x00\n    /* \"#utility.yul\":813:815   */\n  0x20\n    /* \"#utility.yul\":801:810   */\n  dup3\n    /* \"#utility.yul\":792:799   */\n  dup5\n    /* \"#utility.yul\":788:811   */\n  sub\n    /* \"#utility.yul\":784:816   */\n  slt\n    /* \"#utility.yul\":781:900   */\n  iszero\n  tag_26\n  jumpi\n    /* \"#utility.yul\":819:898   */\n  tag_27\n  tag_10\n  jump\t// in\ntag_27:\n    /* \"#utility.yul\":781:900   */\ntag_26:\n    /* \"#utility.yul\":939:940   */\n  0x00\n    /* \"#utility.yul\":964:1028   */\n  tag_28\n    /* \"#utility.yul\":1020:1027   */\n  dup5\n    /* \"#utility.yul\":1011:1017   */\n  dup3\n    /* \"#utility.yul\":1000:1009   */\n  dup6\n    /* \"#utility.yul\":996:1018   */\n  add\n    /* \"#utility.yul\":964:1028   */\n  tag_14\n  jump\t// in\ntag_28:\n    /* \"#utility.yul\":954:1028   */\n  swap2\n  pop\n    /* \"#utility.yul\":910:1038   */\n  pop\n    /* \"#utility.yul\":694:1045   */\n  swap3\n  swap2\n  pop\n  pop\n  jump\t// out\n    /* \"solidityCourse2/Module3/paymentExcercise.sol\":339:718  contract Register is Owner{... */\ntag_8:\n  dataSize(sub_0)\n  dup1\n  dataOffset(sub_0)\n  0x00\n  codecopy\n  0x00\n  return\nstop\n\nsub_0: assembly {\n        /* \"solidityCourse2/Module3/paymentExcercise.sol\":339:718  contract Register is Owner{... */\n      mstore(0x40, 0x80)\n      jumpi(tag_1, lt(calldatasize, 0x04))\n      shr(0xe0, calldataload(0x00))\n      dup1\n      0x1aa3a008\n      eq\n      tag_2\n      jumpi\n      dup1\n      0xa035b1fe\n      eq\n      tag_3\n      jumpi\n      dup1\n      0xa2b40d19\n      eq\n      tag_4\n      jumpi\n    tag_1:\n      revert(0x00, 0x00)\n        /* \"solidityCourse2/Module3/paymentExcercise.sol\":523:623  function register() public payable costs(price){... */\n    tag_2:\n      tag_5\n      tag_6\n      jump\t// in\n    tag_5:\n      stop\n        /* \"solidityCourse2/Module3/paymentExcercise.sol\":419:436  uint public price */\n    tag_3:\n      callvalue\n      dup1\n      iszero\n      tag_7\n      jumpi\n      revert(0x00, 0x00)\n    tag_7:\n      pop\n      tag_8\n      tag_9\n      jump\t// in\n    tag_8:\n      mload(0x40)\n      tag_10\n      swap2\n      swap1\n      tag_11\n      jump\t// in\n    tag_10:\n      mload(0x40)\n      dup1\n      swap2\n      sub\n      swap1\n      return\n        /* \"solidityCourse2/Module3/paymentExcercise.sol\":629:710  function changePrice(uint _price) public onlyOwner{... */\n    tag_4:\n      callvalue\n      dup1\n      iszero\n      tag_12\n      jumpi\n      revert(0x00, 0x00)\n    tag_12:\n      pop\n      tag_13\n      0x04\n      dup1\n      calldatasize\n      sub\n      dup2\n      add\n      swap1\n      tag_14\n      swap2\n      swap1\n      tag_15\n      jump\t// in\n    tag_14:\n      tag_16\n      jump\t// in\n    tag_13:\n      stop\n        /* \"solidityCourse2/Module3/paymentExcercise.sol\":523:623  function register() public payable costs(price){... */\n    tag_6:\n        /* \"solidityCourse2/Module3/paymentExcercise.sol\":564:569  price */\n      sload(0x02)\n        /* \"solidityCourse2/Module3/paymentExcercise.sol\":300:305  price */\n      dup1\n        /* \"solidityCourse2/Module3/paymentExcercise.sol\":289:298  msg.value */\n      callvalue\n        /* \"solidityCourse2/Module3/paymentExcercise.sol\":289:305  msg.value>=price */\n      lt\n      iszero\n        /* \"solidityCourse2/Module3/paymentExcercise.sol\":281:306  require(msg.value>=price) */\n      tag_18\n      jumpi\n      revert(0x00, 0x00)\n    tag_18:\n        /* \"solidityCourse2/Module3/paymentExcercise.sol\":611:615  true */\n      0x01\n        /* \"solidityCourse2/Module3/paymentExcercise.sol\":581:598  registeredAddress */\n      dup1\n        /* \"solidityCourse2/Module3/paymentExcercise.sol\":581:610  registeredAddress[msg.sender] */\n      0x00\n        /* \"solidityCourse2/Module3/paymentExcercise.sol\":599:609  msg.sender */\n      caller\n        /* \"solidityCourse2/Module3/paymentExcercise.sol\":581:610  registeredAddress[msg.sender] */\n      0xffffffffffffffffffffffffffffffffffffffff\n      and\n      0xffffffffffffffffffffffffffffffffffffffff\n      and\n      dup2\n      mstore\n      0x20\n      add\n      swap1\n      dup2\n      mstore\n      0x20\n      add\n      0x00\n      keccak256\n      0x00\n        /* \"solidityCourse2/Module3/paymentExcercise.sol\":581:615  registeredAddress[msg.sender]=true */\n      0x0100\n      exp\n      dup2\n      sload\n      dup2\n      0xff\n      mul\n      not\n      and\n      swap1\n      dup4\n      iszero\n      iszero\n      mul\n      or\n      swap1\n      sstore\n      pop\n        /* \"solidityCourse2/Module3/paymentExcercise.sol\":523:623  function register() public payable costs(price){... */\n      pop\n      jump\t// out\n        /* \"solidityCourse2/Module3/paymentExcercise.sol\":419:436  uint public price */\n    tag_9:\n      sload(0x02)\n      dup2\n      jump\t// out\n        /* \"solidityCourse2/Module3/paymentExcercise.sol\":629:710  function changePrice(uint _price) public onlyOwner{... */\n    tag_16:\n        /* \"solidityCourse2/Module3/paymentExcercise.sol\":212:217  owner */\n      0x00\n      0x00\n      swap1\n      sload\n      swap1\n      0x0100\n      exp\n      swap1\n      div\n      0xffffffffffffffffffffffffffffffffffffffff\n      and\n        /* \"solidityCourse2/Module3/paymentExcercise.sol\":200:217  msg.sender==owner */\n      0xffffffffffffffffffffffffffffffffffffffff\n      and\n        /* \"solidityCourse2/Module3/paymentExcercise.sol\":200:210  msg.sender */\n      caller\n        /* \"solidityCourse2/Module3/paymentExcercise.sol\":200:217  msg.sender==owner */\n      0xffffffffffffffffffffffffffffffffffffffff\n      and\n      eq\n        /* \"solidityCourse2/Module3/paymentExcercise.sol\":192:218  require(msg.sender==owner) */\n      tag_21\n      jumpi\n      revert(0x00, 0x00)\n    tag_21:\n        /* \"solidityCourse2/Module3/paymentExcercise.sol\":696:702  _price */\n      dup1\n        /* \"solidityCourse2/Module3/paymentExcercise.sol\":690:695  price */\n      0x02\n        /* \"solidityCourse2/Module3/paymentExcercise.sol\":690:702  price=_price */\n      dup2\n      swap1\n      sstore\n      pop\n        /* \"solidityCourse2/Module3/paymentExcercise.sol\":629:710  function changePrice(uint _price) public onlyOwner{... */\n      pop\n      jump\t// out\n        /* \"#utility.yul\":7:84   */\n    tag_23:\n        /* \"#utility.yul\":44:51   */\n      0x00\n        /* \"#utility.yul\":73:78   */\n      dup2\n        /* \"#utility.yul\":62:78   */\n      swap1\n      pop\n        /* \"#utility.yul\":7:84   */\n      swap2\n      swap1\n      pop\n      jump\t// out\n        /* \"#utility.yul\":90:208   */\n    tag_24:\n        /* \"#utility.yul\":177:201   */\n      tag_33\n        /* \"#utility.yul\":195:200   */\n      dup2\n        /* \"#utility.yul\":177:201   */\n      tag_23\n      jump\t// in\n    tag_33:\n        /* \"#utility.yul\":172:175   */\n      dup3\n        /* \"#utility.yul\":165:202   */\n      mstore\n        /* \"#utility.yul\":90:208   */\n      pop\n      pop\n      jump\t// out\n        /* \"#utility.yul\":214:436   */\n    tag_11:\n        /* \"#utility.yul\":307:311   */\n      0x00\n        /* \"#utility.yul\":345:347   */\n      0x20\n        /* \"#utility.yul\":334:343   */\n      dup3\n        /* \"#utility.yul\":330:348   */\n      add\n        /* \"#utility.yul\":322:348   */\n      swap1\n      pop\n        /* \"#utility.yul\":358:429   */\n      tag_35\n        /* \"#utility.yul\":426:427   */\n      0x00\n        /* \"#utility.yul\":415:424   */\n      dup4\n        /* \"#utility.yul\":411:428   */\n      add\n        /* \"#utility.yul\":402:408   */\n      dup5\n        /* \"#utility.yul\":358:429   */\n      tag_24\n      jump\t// in\n    tag_35:\n        /* \"#utility.yul\":214:436   */\n      swap3\n      swap2\n      pop\n      pop\n      jump\t// out\n        /* \"#utility.yul\":523:640   */\n    tag_26:\n        /* \"#utility.yul\":632:633   */\n      0x00\n        /* \"#utility.yul\":629:630   */\n      0x00\n        /* \"#utility.yul\":622:634   */\n      revert\n        /* \"#utility.yul\":769:891   */\n    tag_28:\n        /* \"#utility.yul\":842:866   */\n      tag_40\n        /* \"#utility.yul\":860:865   */\n      dup2\n        /* \"#utility.yul\":842:866   */\n      tag_23\n      jump\t// in\n    tag_40:\n        /* \"#utility.yul\":835:840   */\n      dup2\n        /* \"#utility.yul\":832:867   */\n      eq\n        /* \"#utility.yul\":822:885   */\n      tag_41\n      jumpi\n        /* \"#utility.yul\":881:882   */\n      0x00\n        /* \"#utility.yul\":878:879   */\n      0x00\n        /* \"#utility.yul\":871:883   */\n      revert\n        /* \"#utility.yul\":822:885   */\n    tag_41:\n        /* \"#utility.yul\":769:891   */\n      pop\n      jump\t// out\n        /* \"#utility.yul\":897:1036   */\n    tag_29:\n        /* \"#utility.yul\":943:948   */\n      0x00\n        /* \"#utility.yul\":981:987   */\n      dup2\n        /* \"#utility.yul\":968:988   */\n      calldataload\n        /* \"#utility.yul\":959:988   */\n      swap1\n      pop\n        /* \"#utility.yul\":997:1030   */\n      tag_43\n        /* \"#utility.yul\":1024:1029   */\n      dup2\n        /* \"#utility.yul\":997:1030   */\n      tag_28\n      jump\t// in\n    tag_43:\n        /* \"#utility.yul\":897:1036   */\n      swap3\n      swap2\n      pop\n      pop\n      jump\t// out\n        /* \"#utility.yul\":1042:1371   */\n    tag_15:\n        /* \"#utility.yul\":1101:1107   */\n      0x00\n        /* \"#utility.yul\":1150:1152   */\n      0x20\n        /* \"#utility.yul\":1138:1147   */\n      dup3\n        /* \"#utility.yul\":1129:1136   */\n      dup5\n        /* \"#utility.yul\":1125:1148   */\n      sub\n        /* \"#utility.yul\":1121:1153   */\n      slt\n        /* \"#utility.yul\":1118:1237   */\n      iszero\n      tag_45\n      jumpi\n        /* \"#utility.yul\":1156:1235   */\n      tag_46\n      tag_26\n      jump\t// in\n    tag_46:\n        /* \"#utility.yul\":1118:1237   */\n    tag_45:\n        /* \"#utility.yul\":1276:1277   */\n      0x00\n        /* \"#utility.yul\":1301:1354   */\n      tag_47\n        /* \"#utility.yul\":1346:1353   */\n      dup5\n        /* \"#utility.yul\":1337:1343   */\n      dup3\n        /* \"#utility.yul\":1326:1335   */\n      dup6\n        /* \"#utility.yul\":1322:1344   */\n      add\n        /* \"#utility.yul\":1301:1354   */\n      tag_29\n      jump\t// in\n    tag_47:\n        /* \"#utility.yul\":1291:1354   */\n      swap2\n      pop\n        /* \"#utility.yul\":1247:1364   */\n      pop\n        /* \"#utility.yul\":1042:1371   */\n      swap3\n      swap2\n      pop\n      pop\n      jump\t// out\n\n    auxdata: 0xa264697066735822122019d512fe10d5773a36244b8353def7d4ef38471777cdf95afa88ad0d6b268fa964736f6c634300081e0033\n}\n",
				"bytecode": {
					"linkReferences": {},
					"object": "6080604052348015600e575f5ffd5b506040516102fe3803806102fe8339818101604052810190602e919060ab565b335f5f6101000a81548173ffffffffffffffffffffffffffffffffffffffff021916908373ffffffffffffffffffffffffffffffffffffffff160217905550806002819055505060d1565b5f5ffd5b5f819050919050565b608d81607d565b81146096575f5ffd5b50565b5f8151905060a5816086565b92915050565b5f6020828403121560bd5760bc6079565b5b5f60c8848285016099565b91505092915050565b610220806100de5f395ff3fe608060405260043610610033575f3560e01c80631aa3a00814610037578063a035b1fe14610041578063a2b40d191461006b575b5f5ffd5b61003f610093565b005b34801561004c575f5ffd5b506100556100f9565b6040516100629190610178565b60405180910390f35b348015610076575f5ffd5b50610091600480360381019061008c91906101bf565b6100ff565b005b600254803410156100a2575f5ffd5b6001805f3373ffffffffffffffffffffffffffffffffffffffff1673ffffffffffffffffffffffffffffffffffffffff1681526020019081526020015f205f6101000a81548160ff02191690831515021790555050565b60025481565b5f5f9054906101000a900473ffffffffffffffffffffffffffffffffffffffff1673ffffffffffffffffffffffffffffffffffffffff163373ffffffffffffffffffffffffffffffffffffffff1614610156575f5ffd5b8060028190555050565b5f819050919050565b61017281610160565b82525050565b5f60208201905061018b5f830184610169565b92915050565b5f5ffd5b61019e81610160565b81146101a8575f5ffd5b50565b5f813590506101b981610195565b92915050565b5f602082840312156101d4576101d3610191565b5b5f6101e1848285016101ab565b9150509291505056fea264697066735822122019d512fe10d5773a36244b8353def7d4ef38471777cdf95afa88ad0d6b268fa964736f6c634300081e0033",
					"opcodes": "PUSH1 0x80 PUSH1 0x40 MSTORE CALLVALUE DUP1 ISZERO PUSH1 0xE JUMPI PUSH0 PUSH0 REVERT JUMPDEST POP PUSH1 0x40 MLOAD PUSH2 0x2FE CODESIZE SUB DUP1 PUSH2 0x2FE DUP4 CODECOPY DUP2 DUP2 ADD PUSH1 0x40 MSTORE DUP2 ADD SWAP1 PUSH1 0x2E SWAP2 SWAP1 PUSH1 0xAB JUMP JUMPDEST CALLER PUSH0 PUSH0 PUSH2 0x100 EXP DUP2 SLOAD DUP2 PUSH20 0xFFFFFFFFFFFFFFFFFFFFFFFFFFFFFFFFFFFFFFFF MUL NOT AND SWAP1 DUP4 PUSH20 0xFFFFFFFFFFFFFFFFFFFFFFFFFFFFFFFFFFFFFFFF AND MUL OR SWAP1 SSTORE POP DUP1 PUSH1 0x2 DUP2 SWAP1 SSTORE POP POP PUSH1 0xD1 JUMP JUMPDEST PUSH0 PUSH0 REVERT JUMPDEST PUSH0 DUP2 SWAP1 POP SWAP2 SWAP1 POP JUMP JUMPDEST PUSH1 0x8D DUP2 PUSH1 0x7D JUMP JUMPDEST DUP2 EQ PUSH1 0x96 JUMPI PUSH0 PUSH0 REVERT JUMPDEST POP JUMP JUMPDEST PUSH0 DUP2 MLOAD SWAP1 POP PUSH1 0xA5 DUP2 PUSH1 0x86 JUMP JUMPDEST SWAP3 SWAP2 POP POP JUMP JUMPDEST PUSH0 PUSH1 0x20 DUP3 DUP5 SUB SLT ISZERO PUSH1 0xBD JUMPI PUSH1 0xBC PUSH1 0x79 JUMP JUMPDEST JUMPDEST PUSH0 PUSH1 0xC8 DUP5 DUP3 DUP6 ADD PUSH1 0x99 JUMP JUMPDEST SWAP2 POP POP SWAP3 SWAP2 POP POP JUMP JUMPDEST PUSH2 0x220 DUP1 PUSH2 0xDE PUSH0 CODECOPY PUSH0 RETURN INVALID PUSH1 0x80 PUSH1 0x40 MSTORE PUSH1 0x4 CALLDATASIZE LT PUSH2 0x33 JUMPI PUSH0 CALLDATALOAD PUSH1 0xE0 SHR DUP1 PUSH4 0x1AA3A008 EQ PUSH2 0x37 JUMPI DUP1 PUSH4 0xA035B1FE EQ PUSH2 0x41 JUMPI DUP1 PUSH4 0xA2B40D19 EQ PUSH2 0x6B JUMPI JUMPDEST PUSH0 PUSH0 REVERT JUMPDEST PUSH2 0x3F PUSH2 0x93 JUMP JUMPDEST STOP JUMPDEST CALLVALUE DUP1 ISZERO PUSH2 0x4C JUMPI PUSH0 PUSH0 REVERT JUMPDEST POP PUSH2 0x55 PUSH2 0xF9 JUMP JUMPDEST PUSH1 0x40 MLOAD PUSH2 0x62 SWAP2 SWAP1 PUSH2 0x178 JUMP JUMPDEST PUSH1 0x40 MLOAD DUP1 SWAP2 SUB SWAP1 RETURN JUMPDEST CALLVALUE DUP1 ISZERO PUSH2 0x76 JUMPI PUSH0 PUSH0 REVERT JUMPDEST POP PUSH2 0x91 PUSH1 0x4 DUP1 CALLDATASIZE SUB DUP2 ADD SWAP1 PUSH2 0x8C SWAP2 SWAP1 PUSH2 0x1BF JUMP JUMPDEST PUSH2 0xFF JUMP JUMPDEST STOP JUMPDEST PUSH1 0x2 SLOAD DUP1 CALLVALUE LT ISZERO PUSH2 0xA2 JUMPI PUSH0 PUSH0 REVERT JUMPDEST PUSH1 0x1 DUP1 PUSH0 CALLER PUSH20 0xFFFFFFFFFFFFFFFFFFFFFFFFFFFFFFFFFFFFFFFF AND PUSH20 0xFFFFFFFFFFFFFFFFFFFFFFFFFFFFFFFFFFFFFFFF AND DUP2 MSTORE PUSH1 0x20 ADD SWAP1 DUP2 MSTORE PUSH1 0x20 ADD PUSH0 KECCAK256 PUSH0 PUSH2 0x100 EXP DUP2 SLOAD DUP2 PUSH1 0xFF MUL NOT AND SWAP1 DUP4 ISZERO ISZERO MUL OR SWAP1 SSTORE POP POP JUMP JUMPDEST PUSH1 0x2 SLOAD DUP2 JUMP JUMPDEST PUSH0 PUSH0 SWAP1 SLOAD SWAP1 PUSH2 0x100 EXP SWAP1 DIV PUSH20 0xFFFFFFFFFFFFFFFFFFFFFFFFFFFFFFFFFFFFFFFF AND PUSH20 0xFFFFFFFFFFFFFFFFFFFFFFFFFFFFFFFFFFFFFFFF AND CALLER PUSH20 0xFFFFFFFFFFFFFFFFFFFFFFFFFFFFFFFFFFFFFFFF AND EQ PUSH2 0x156 JUMPI PUSH0 PUSH0 REVERT JUMPDEST DUP1 PUSH1 0x2 DUP2 SWAP1 SSTORE POP POP JUMP JUMPDEST PUSH0 DUP2 SWAP1 POP SWAP2 SWAP1 POP JUMP JUMPDEST PUSH2 0x172 DUP2 PUSH2 0x160 JUMP JUMPDEST DUP3 MSTORE POP POP JUMP JUMPDEST PUSH0 PUSH1 0x20 DUP3 ADD SWAP1 POP PUSH2 0x18B PUSH0 DUP4 ADD DUP5 PUSH2 0x169 JUMP JUMPDEST SWAP3 SWAP2 POP POP JUMP JUMPDEST PUSH0 PUSH0 REVERT JUMPDEST PUSH2 0x19E DUP2 PUSH2 0x160 JUMP JUMPDEST DUP2 EQ PUSH2 0x1A8 JUMPI PUSH0 PUSH0 REVERT JUMPDEST POP JUMP JUMPDEST PUSH0 DUP2 CALLDATALOAD SWAP1 POP PUSH2 0x1B9 DUP2 PUSH2 0x195 JUMP JUMPDEST SWAP3 SWAP2 POP POP JUMP JUMPDEST PUSH0 PUSH1 0x20 DUP3 DUP5 SUB SLT ISZERO PUSH2 0x1D4 JUMPI PUSH2 0x1D3 PUSH2 0x191 JUMP JUMPDEST JUMPDEST PUSH0 PUSH2 0x1E1 DUP5 DUP3 DUP6 ADD PUSH2 0x1AB JUMP JUMPDEST SWAP2 POP POP SWAP3 SWAP2 POP POP JUMP INVALID LOG2 PUSH5 0x6970667358 0x22 SLT KECCAK256 NOT 0xD5 SLT INVALID LT 0xD5 PUSH24 0x3A36244B8353DEF7D4EF38471777CDF95AFA88AD0D6B268F 0xA9 PUSH5 0x736F6C6343 STOP ADDMOD 0x1E STOP CALLER "
				},
				"gasEstimates": {
					"creation": {
						"codeDepositCost": "108800",
						"executionCost": "infinite",
						"totalCost": "infinite"
					},
					"external": {
						"changePrice(uint256)": "24705",
						"price()": "2425",
						"register()": "26580"
					}
				},
				"methodIdentifiers": {
					"changePrice(uint256)": "a2b40d19",
					"price()": "a035b1fe",
					"register()": "1aa3a008"
				}
			},
			"storageLayout": {
				"storage": [
					{
						"astId": 3,
						"contract": "solidityCourse2/Module3/paymentExcercise.sol:Register",
						"label": "owner",
						"offset": 0,
						"slot": "0",
						"type": "t_address"
					},
					{
						"astId": 43,
						"contract": "solidityCourse2/Module3/paymentExcercise.sol:Register",
						"label": "registeredAddress",
						"offset": 0,
						"slot": "1",
						"type": "t_mapping(t_address,t_bool)"
					},
					{
						"astId": 45,
						"contract": "solidityCourse2/Module3/paymentExcercise.sol:Register",
						"label": "price",
						"offset": 0,
						"slot": "2",
						"type": "t_uint256"
					}
				],
				"types": {
					"t_address": {
						"encoding": "inplace",
						"label": "address",
						"numberOfBytes": "20"
					},
					"t_bool": {
						"encoding": "inplace",
						"label": "bool",
						"numberOfBytes": "1"
					},
					"t_mapping(t_address,t_bool)": {
						"encoding": "mapping",
						"key": "t_address",
						"label": "mapping(address => bool)",
						"numberOfBytes": "32",
						"value": "t_bool"
					},
					"t_uint256": {
						"encoding": "inplace",
						"label": "uint256",
						"numberOfBytes": "32"
					}
				}
			},
			"userdoc": {
				"kind": "user",
				"methods": {},
				"version": 1
			}
		}
	}
}