{
	"solidityCourse3/Module2/RestirctedAccess.sol": {
		"RestrictedAccess": {
			"abi": [
				{
					"inputs": [
						{
							"internalType": "address",
							"name": "own",
							"type": "address"
						}
					],
					"name": "changeOwner",
					"outputs": [],
					"stateMutability": "nonpayable",
					"type": "function"
				},
				{
					"inputs": [],
					"name": "creationTime",
					"outputs": [
						{
							"internalType": "uint256",
							"name": "",
							"type": "uint256"
						}
					],
					"stateMutability": "view",
					"type": "function"
				},
				{
					"inputs": [],
					"name": "disown",
					"outputs": [],
					"stateMutability": "nonpayable",
					"type": "function"
				},
				{
					"inputs": [],
					"name": "owner",
					"outputs": [
						{
							"internalType": "address",
							"name": "",
							"type": "address"
						}
					],
					"stateMutability": "view",
					"type": "function"
				}
			],
			"devdoc": {
				"kind": "dev",
				"methods": {},
				"version": 1
			},
			"evm": {
				"assembly": "    /* \"solidityCourse3/Module2/RestirctedAccess.sol\":60:578  contract RestrictedAccess{... */\n  mstore(0x40, 0x80)\n    /* \"solidityCourse3/Module2/RestirctedAccess.sol\":115:125  msg.sender */\n  caller\n    /* \"solidityCourse3/Module2/RestirctedAccess.sol\":92:125  address public owner = msg.sender */\n  0x00\n  exp(0x0100, 0x00)\n  dup2\n  sload\n  dup2\n  0xffffffffffffffffffffffffffffffffffffffff\n  mul\n  not\n  and\n  swap1\n  dup4\n  0xffffffffffffffffffffffffffffffffffffffff\n  and\n  mul\n  or\n  swap1\n  sstore\n  pop\n    /* \"solidityCourse3/Module2/RestirctedAccess.sol\":158:173  block.timestamp */\n  timestamp\n    /* \"solidityCourse3/Module2/RestirctedAccess.sol\":132:173  uint public creationTime= block.timestamp */\n  0x01\n  sstore\n    /* \"solidityCourse3/Module2/RestirctedAccess.sol\":60:578  contract RestrictedAccess{... */\n  callvalue\n  dup1\n  iszero\n  tag_1\n  jumpi\n  revert(0x00, 0x00)\ntag_1:\n  pop\n  dataSize(sub_0)\n  dup1\n  dataOffset(sub_0)\n  0x00\n  codecopy\n  0x00\n  return\nstop\n\nsub_0: assembly {\n        /* \"solidityCourse3/Module2/RestirctedAccess.sol\":60:578  contract RestrictedAccess{... */\n      mstore(0x40, 0x80)\n      callvalue\n      dup1\n      iszero\n      tag_1\n      jumpi\n      revert(0x00, 0x00)\n    tag_1:\n      pop\n      jumpi(tag_2, lt(calldatasize, 0x04))\n      shr(0xe0, calldataload(0x00))\n      dup1\n      0x1e9bf0da\n      eq\n      tag_3\n      jumpi\n      dup1\n      0x8da5cb5b\n      eq\n      tag_4\n      jumpi\n      dup1\n      0xa6f9dae1\n      eq\n      tag_5\n      jumpi\n      dup1\n      0xd8270dce\n      eq\n      tag_6\n      jumpi\n    tag_2:\n      revert(0x00, 0x00)\n        /* \"solidityCourse3/Module2/RestirctedAccess.sol\":506:575  function disown() onlyBy(owner) public{... */\n    tag_3:\n      tag_7\n      tag_8\n      jump\t// in\n    tag_7:\n      stop\n        /* \"solidityCourse3/Module2/RestirctedAccess.sol\":92:125  address public owner = msg.sender */\n    tag_4:\n      tag_9\n      tag_10\n      jump\t// in\n    tag_9:\n      mload(0x40)\n      tag_11\n      swap2\n      swap1\n      tag_12\n      jump\t// in\n    tag_11:\n      mload(0x40)\n      dup1\n      swap2\n      sub\n      swap1\n      return\n        /* \"solidityCourse3/Module2/RestirctedAccess.sol\":416:500  function changeOwner(address own) onlyBy(owner) public{... */\n    tag_5:\n      tag_13\n      0x04\n      dup1\n      calldatasize\n      sub\n      dup2\n      add\n      swap1\n      tag_14\n      swap2\n      swap1\n      tag_15\n      jump\t// in\n    tag_14:\n      tag_16\n      jump\t// in\n    tag_13:\n      stop\n        /* \"solidityCourse3/Module2/RestirctedAccess.sol\":132:173  uint public creationTime= block.timestamp */\n    tag_6:\n      tag_17\n      tag_18\n      jump\t// in\n    tag_17:\n      mload(0x40)\n      tag_19\n      swap2\n      swap1\n      tag_20\n      jump\t// in\n    tag_19:\n      mload(0x40)\n      dup1\n      swap2\n      sub\n      swap1\n      return\n        /* \"solidityCourse3/Module2/RestirctedAccess.sol\":506:575  function disown() onlyBy(owner) public{... */\n    tag_8:\n        /* \"solidityCourse3/Module2/RestirctedAccess.sol\":531:536  owner */\n      0x00\n      0x00\n      swap1\n      sload\n      swap1\n      0x0100\n      exp\n      swap1\n      div\n      0xffffffffffffffffffffffffffffffffffffffff\n      and\n        /* \"solidityCourse3/Module2/RestirctedAccess.sol\":245:252  account */\n      dup1\n        /* \"solidityCourse3/Module2/RestirctedAccess.sol\":233:252  msg.sender==account */\n      0xffffffffffffffffffffffffffffffffffffffff\n      and\n        /* \"solidityCourse3/Module2/RestirctedAccess.sol\":233:243  msg.sender */\n      caller\n        /* \"solidityCourse3/Module2/RestirctedAccess.sol\":233:252  msg.sender==account */\n      0xffffffffffffffffffffffffffffffffffffffff\n      and\n      eq\n        /* \"solidityCourse3/Module2/RestirctedAccess.sol\":225:278  require(msg.sender==account,\"User not Authorized!!!\") */\n      tag_22\n      jumpi\n      mload(0x40)\n      0x08c379a000000000000000000000000000000000000000000000000000000000\n      dup2\n      mstore\n      0x04\n      add\n      tag_23\n      swap1\n      tag_24\n      jump\t// in\n    tag_23:\n      mload(0x40)\n      dup1\n      swap2\n      sub\n      swap1\n      revert\n    tag_22:\n        /* \"solidityCourse3/Module2/RestirctedAccess.sol\":562:567  owner */\n      0x00\n      0x00\n        /* \"solidityCourse3/Module2/RestirctedAccess.sol\":555:567  delete owner */\n      0x0100\n      exp\n      dup2\n      sload\n      swap1\n      0xffffffffffffffffffffffffffffffffffffffff\n      mul\n      not\n      and\n      swap1\n      sstore\n        /* \"solidityCourse3/Module2/RestirctedAccess.sol\":506:575  function disown() onlyBy(owner) public{... */\n      pop\n      jump\t// out\n        /* \"solidityCourse3/Module2/RestirctedAccess.sol\":92:125  address public owner = msg.sender */\n    tag_10:\n      0x00\n      0x00\n      swap1\n      sload\n      swap1\n      0x0100\n      exp\n      swap1\n      div\n      0xffffffffffffffffffffffffffffffffffffffff\n      and\n      dup2\n      jump\t// out\n        /* \"solidityCourse3/Module2/RestirctedAccess.sol\":416:500  function changeOwner(address own) onlyBy(owner) public{... */\n    tag_16:\n        /* \"solidityCourse3/Module2/RestirctedAccess.sol\":457:462  owner */\n      0x00\n      0x00\n      swap1\n      sload\n      swap1\n      0x0100\n      exp\n      swap1\n      div\n      0xffffffffffffffffffffffffffffffffffffffff\n      and\n        /* \"solidityCourse3/Module2/RestirctedAccess.sol\":245:252  account */\n      dup1\n        /* \"solidityCourse3/Module2/RestirctedAccess.sol\":233:252  msg.sender==account */\n      0xffffffffffffffffffffffffffffffffffffffff\n      and\n        /* \"solidityCourse3/Module2/RestirctedAccess.sol\":233:243  msg.sender */\n      caller\n        /* \"solidityCourse3/Module2/RestirctedAccess.sol\":233:252  msg.sender==account */\n      0xffffffffffffffffffffffffffffffffffffffff\n      and\n      eq\n        /* \"solidityCourse3/Module2/RestirctedAccess.sol\":225:278  require(msg.sender==account,\"User not Authorized!!!\") */\n      tag_27\n      jumpi\n      mload(0x40)\n      0x08c379a000000000000000000000000000000000000000000000000000000000\n      dup2\n      mstore\n      0x04\n      add\n      tag_28\n      swap1\n      tag_24\n      jump\t// in\n    tag_28:\n      mload(0x40)\n      dup1\n      swap2\n      sub\n      swap1\n      revert\n    tag_27:\n        /* \"solidityCourse3/Module2/RestirctedAccess.sol\":487:490  own */\n      dup2\n        /* \"solidityCourse3/Module2/RestirctedAccess.sol\":481:486  owner */\n      0x00\n      0x00\n        /* \"solidityCourse3/Module2/RestirctedAccess.sol\":481:490  owner=own */\n      0x0100\n      exp\n      dup2\n      sload\n      dup2\n      0xffffffffffffffffffffffffffffffffffffffff\n      mul\n      not\n      and\n      swap1\n      dup4\n      0xffffffffffffffffffffffffffffffffffffffff\n      and\n      mul\n      or\n      swap1\n      sstore\n      pop\n        /* \"solidityCourse3/Module2/RestirctedAccess.sol\":416:500  function changeOwner(address own) onlyBy(owner) public{... */\n      pop\n      pop\n      jump\t// out\n        /* \"solidityCourse3/Module2/RestirctedAccess.sol\":132:173  uint public creationTime= block.timestamp */\n    tag_18:\n      sload(0x01)\n      dup2\n      jump\t// out\n        /* \"#utility.yul\":7:133   */\n    tag_30:\n        /* \"#utility.yul\":44:51   */\n      0x00\n        /* \"#utility.yul\":84:126   */\n      0xffffffffffffffffffffffffffffffffffffffff\n        /* \"#utility.yul\":77:82   */\n      dup3\n        /* \"#utility.yul\":73:127   */\n      and\n        /* \"#utility.yul\":62:127   */\n      swap1\n      pop\n        /* \"#utility.yul\":7:133   */\n      swap2\n      swap1\n      pop\n      jump\t// out\n        /* \"#utility.yul\":139:235   */\n    tag_31:\n        /* \"#utility.yul\":176:183   */\n      0x00\n        /* \"#utility.yul\":205:229   */\n      tag_46\n        /* \"#utility.yul\":223:228   */\n      dup3\n        /* \"#utility.yul\":205:229   */\n      tag_30\n      jump\t// in\n    tag_46:\n        /* \"#utility.yul\":194:229   */\n      swap1\n      pop\n        /* \"#utility.yul\":139:235   */\n      swap2\n      swap1\n      pop\n      jump\t// out\n        /* \"#utility.yul\":241:359   */\n    tag_32:\n        /* \"#utility.yul\":328:352   */\n      tag_48\n        /* \"#utility.yul\":346:351   */\n      dup2\n        /* \"#utility.yul\":328:352   */\n      tag_31\n      jump\t// in\n    tag_48:\n        /* \"#utility.yul\":323:326   */\n      dup3\n        /* \"#utility.yul\":316:353   */\n      mstore\n        /* \"#utility.yul\":241:359   */\n      pop\n      pop\n      jump\t// out\n        /* \"#utility.yul\":365:587   */\n    tag_12:\n        /* \"#utility.yul\":458:462   */\n      0x00\n        /* \"#utility.yul\":496:498   */\n      0x20\n        /* \"#utility.yul\":485:494   */\n      dup3\n        /* \"#utility.yul\":481:499   */\n      add\n        /* \"#utility.yul\":473:499   */\n      swap1\n      pop\n        /* \"#utility.yul\":509:580   */\n      tag_50\n        /* \"#utility.yul\":577:578   */\n      0x00\n        /* \"#utility.yul\":566:575   */\n      dup4\n        /* \"#utility.yul\":562:579   */\n      add\n        /* \"#utility.yul\":553:559   */\n      dup5\n        /* \"#utility.yul\":509:580   */\n      tag_32\n      jump\t// in\n    tag_50:\n        /* \"#utility.yul\":365:587   */\n      swap3\n      swap2\n      pop\n      pop\n      jump\t// out\n        /* \"#utility.yul\":674:791   */\n    tag_34:\n        /* \"#utility.yul\":783:784   */\n      0x00\n        /* \"#utility.yul\":780:781   */\n      0x00\n        /* \"#utility.yul\":773:785   */\n      revert\n        /* \"#utility.yul\":920:1042   */\n    tag_36:\n        /* \"#utility.yul\":993:1017   */\n      tag_55\n        /* \"#utility.yul\":1011:1016   */\n      dup2\n        /* \"#utility.yul\":993:1017   */\n      tag_31\n      jump\t// in\n    tag_55:\n        /* \"#utility.yul\":986:991   */\n      dup2\n        /* \"#utility.yul\":983:1018   */\n      eq\n        /* \"#utility.yul\":973:1036   */\n      tag_56\n      jumpi\n        /* \"#utility.yul\":1032:1033   */\n      0x00\n        /* \"#utility.yul\":1029:1030   */\n      0x00\n        /* \"#utility.yul\":1022:1034   */\n      revert\n        /* \"#utility.yul\":973:1036   */\n    tag_56:\n        /* \"#utility.yul\":920:1042   */\n      pop\n      jump\t// out\n        /* \"#utility.yul\":1048:1187   */\n    tag_37:\n        /* \"#utility.yul\":1094:1099   */\n      0x00\n        /* \"#utility.yul\":1132:1138   */\n      dup2\n        /* \"#utility.yul\":1119:1139   */\n      calldataload\n        /* \"#utility.yul\":1110:1139   */\n      swap1\n      pop\n        /* \"#utility.yul\":1148:1181   */\n      tag_58\n        /* \"#utility.yul\":1175:1180   */\n      dup2\n        /* \"#utility.yul\":1148:1181   */\n      tag_36\n      jump\t// in\n    tag_58:\n        /* \"#utility.yul\":1048:1187   */\n      swap3\n      swap2\n      pop\n      pop\n      jump\t// out\n        /* \"#utility.yul\":1193:1522   */\n    tag_15:\n        /* \"#utility.yul\":1252:1258   */\n      0x00\n        /* \"#utility.yul\":1301:1303   */\n      0x20\n        /* \"#utility.yul\":1289:1298   */\n      dup3\n        /* \"#utility.yul\":1280:1287   */\n      dup5\n        /* \"#utility.yul\":1276:1299   */\n      sub\n        /* \"#utility.yul\":1272:1304   */\n      slt\n        /* \"#utility.yul\":1269:1388   */\n      iszero\n      tag_60\n      jumpi\n        /* \"#utility.yul\":1307:1386   */\n      tag_61\n      tag_34\n      jump\t// in\n    tag_61:\n        /* \"#utility.yul\":1269:1388   */\n    tag_60:\n        /* \"#utility.yul\":1427:1428   */\n      0x00\n        /* \"#utility.yul\":1452:1505   */\n      tag_62\n        /* \"#utility.yul\":1497:1504   */\n      dup5\n        /* \"#utility.yul\":1488:1494   */\n      dup3\n        /* \"#utility.yul\":1477:1486   */\n      dup6\n        /* \"#utility.yul\":1473:1495   */\n      add\n        /* \"#utility.yul\":1452:1505   */\n      tag_37\n      jump\t// in\n    tag_62:\n        /* \"#utility.yul\":1442:1505   */\n      swap2\n      pop\n        /* \"#utility.yul\":1398:1515   */\n      pop\n        /* \"#utility.yul\":1193:1522   */\n      swap3\n      swap2\n      pop\n      pop\n      jump\t// out\n        /* \"#utility.yul\":1528:1605   */\n    tag_38:\n        /* \"#utility.yul\":1565:1572   */\n      0x00\n        /* \"#utility.yul\":1594:1599   */\n      dup2\n        /* \"#utility.yul\":1583:1599   */\n      swap1\n      pop\n        /* \"#utility.yul\":1528:1605   */\n      swap2\n      swap1\n      pop\n      jump\t// out\n        /* \"#utility.yul\":1611:1729   */\n    tag_39:\n        /* \"#utility.yul\":1698:1722   */\n      tag_65\n        /* \"#utility.yul\":1716:1721   */\n      dup2\n        /* \"#utility.yul\":1698:1722   */\n      tag_38\n      jump\t// in\n    tag_65:\n        /* \"#utility.yul\":1693:1696   */\n      dup3\n        /* \"#utility.yul\":1686:1723   */\n      mstore\n        /* \"#utility.yul\":1611:1729   */\n      pop\n      pop\n      jump\t// out\n        /* \"#utility.yul\":1735:1957   */\n    tag_20:\n        /* \"#utility.yul\":1828:1832   */\n      0x00\n        /* \"#utility.yul\":1866:1868   */\n      0x20\n        /* \"#utility.yul\":1855:1864   */\n      dup3\n        /* \"#utility.yul\":1851:1869   */\n      add\n        /* \"#utility.yul\":1843:1869   */\n      swap1\n      pop\n        /* \"#utility.yul\":1879:1950   */\n      tag_67\n        /* \"#utility.yul\":1947:1948   */\n      0x00\n        /* \"#utility.yul\":1936:1945   */\n      dup4\n        /* \"#utility.yul\":1932:1949   */\n      add\n        /* \"#utility.yul\":1923:1929   */\n      dup5\n        /* \"#utility.yul\":1879:1950   */\n      tag_39\n      jump\t// in\n    tag_67:\n        /* \"#utility.yul\":1735:1957   */\n      swap3\n      swap2\n      pop\n      pop\n      jump\t// out\n        /* \"#utility.yul\":1963:2132   */\n    tag_40:\n        /* \"#utility.yul\":2047:2058   */\n      0x00\n        /* \"#utility.yul\":2081:2087   */\n      dup3\n        /* \"#utility.yul\":2076:2079   */\n      dup3\n        /* \"#utility.yul\":2069:2088   */\n      mstore\n        /* \"#utility.yul\":2121:2125   */\n      0x20\n        /* \"#utility.yul\":2116:2119   */\n      dup3\n        /* \"#utility.yul\":2112:2126   */\n      add\n        /* \"#utility.yul\":2097:2126   */\n      swap1\n      pop\n        /* \"#utility.yul\":1963:2132   */\n      swap3\n      swap2\n      pop\n      pop\n      jump\t// out\n        /* \"#utility.yul\":2138:2310   */\n    tag_41:\n        /* \"#utility.yul\":2278:2302   */\n      0x55736572206e6f7420417574686f72697a656421212100000000000000000000\n        /* \"#utility.yul\":2274:2275   */\n      0x00\n        /* \"#utility.yul\":2266:2272   */\n      dup3\n        /* \"#utility.yul\":2262:2276   */\n      add\n        /* \"#utility.yul\":2255:2303   */\n      mstore\n        /* \"#utility.yul\":2138:2310   */\n      pop\n      jump\t// out\n        /* \"#utility.yul\":2316:2682   */\n    tag_42:\n        /* \"#utility.yul\":2458:2461   */\n      0x00\n        /* \"#utility.yul\":2479:2546   */\n      tag_71\n        /* \"#utility.yul\":2543:2545   */\n      0x16\n        /* \"#utility.yul\":2538:2541   */\n      dup4\n        /* \"#utility.yul\":2479:2546   */\n      tag_40\n      jump\t// in\n    tag_71:\n        /* \"#utility.yul\":2472:2546   */\n      swap2\n      pop\n        /* \"#utility.yul\":2555:2648   */\n      tag_72\n        /* \"#utility.yul\":2644:2647   */\n      dup3\n        /* \"#utility.yul\":2555:2648   */\n      tag_41\n      jump\t// in\n    tag_72:\n        /* \"#utility.yul\":2673:2675   */\n      0x20\n        /* \"#utility.yul\":2668:2671   */\n      dup3\n        /* \"#utility.yul\":2664:2676   */\n      add\n        /* \"#utility.yul\":2657:2676   */\n      swap1\n      pop\n        /* \"#utility.yul\":2316:2682   */\n      swap2\n      swap1\n      pop\n      jump\t// out\n        /* \"#utility.yul\":2688:3107   */\n    tag_24:\n        /* \"#utility.yul\":2854:2858   */\n      0x00\n        /* \"#utility.yul\":2892:2894   */\n      0x20\n        /* \"#utility.yul\":2881:2890   */\n      dup3\n        /* \"#utility.yul\":2877:2895   */\n      add\n        /* \"#utility.yul\":2869:2895   */\n      swap1\n      pop\n        /* \"#utility.yul\":2941:2950   */\n      dup2\n        /* \"#utility.yul\":2935:2939   */\n      dup2\n        /* \"#utility.yul\":2931:2951   */\n      sub\n        /* \"#utility.yul\":2927:2928   */\n      0x00\n        /* \"#utility.yul\":2916:2925   */\n      dup4\n        /* \"#utility.yul\":2912:2929   */\n      add\n        /* \"#utility.yul\":2905:2952   */\n      mstore\n        /* \"#utility.yul\":2969:3100   */\n      tag_74\n        /* \"#utility.yul\":3095:3099   */\n      dup2\n        /* \"#utility.yul\":2969:3100   */\n      tag_42\n      jump\t// in\n    tag_74:\n        /* \"#utility.yul\":2961:3100   */\n      swap1\n      pop\n        /* \"#utility.yul\":2688:3107   */\n      swap2\n      swap1\n      pop\n      jump\t// out\n\n    auxdata: 0xa2646970667358221220b9d6a1826424d082c0fef3b051c48bed0b78ab9e5216e4b690bd389609891d5d64736f6c634300081e0033\n}\n",
				"bytecode": {
					"linkReferences": {},
					"object": "6080604052335f5f6101000a81548173ffffffffffffffffffffffffffffffffffffffff021916908373ffffffffffffffffffffffffffffffffffffffff160217905550426001553480156051575f5ffd5b506103f18061005f5f395ff3fe608060405234801561000f575f5ffd5b506004361061004a575f3560e01c80631e9bf0da1461004e5780638da5cb5b14610058578063a6f9dae114610076578063d8270dce14610092575b5f5ffd5b6100566100b0565b005b610060610165565b60405161006d91906102a0565b60405180910390f35b610090600480360381019061008b91906102e7565b610189565b005b61009a61025b565b6040516100a7919061032a565b60405180910390f35b5f5f9054906101000a900473ffffffffffffffffffffffffffffffffffffffff168073ffffffffffffffffffffffffffffffffffffffff163373ffffffffffffffffffffffffffffffffffffffff161461013f576040517f08c379a00000000000000000000000000000000000000000000000000000000081526004016101369061039d565b60405180910390fd5b5f5f6101000a81549073ffffffffffffffffffffffffffffffffffffffff021916905550565b5f5f9054906101000a900473ffffffffffffffffffffffffffffffffffffffff1681565b5f5f9054906101000a900473ffffffffffffffffffffffffffffffffffffffff168073ffffffffffffffffffffffffffffffffffffffff163373ffffffffffffffffffffffffffffffffffffffff1614610218576040517f08c379a000000000000000000000000000000000000000000000000000000000815260040161020f9061039d565b60405180910390fd5b815f5f6101000a81548173ffffffffffffffffffffffffffffffffffffffff021916908373ffffffffffffffffffffffffffffffffffffffff1602179055505050565b60015481565b5f73ffffffffffffffffffffffffffffffffffffffff82169050919050565b5f61028a82610261565b9050919050565b61029a81610280565b82525050565b5f6020820190506102b35f830184610291565b92915050565b5f5ffd5b6102c681610280565b81146102d0575f5ffd5b50565b5f813590506102e1816102bd565b92915050565b5f602082840312156102fc576102fb6102b9565b5b5f610309848285016102d3565b91505092915050565b5f819050919050565b61032481610312565b82525050565b5f60208201905061033d5f83018461031b565b92915050565b5f82825260208201905092915050565b7f55736572206e6f7420417574686f72697a6564212121000000000000000000005f82015250565b5f610387601683610343565b915061039282610353565b602082019050919050565b5f6020820190508181035f8301526103b48161037b565b905091905056fea2646970667358221220b9d6a1826424d082c0fef3b051c48bed0b78ab9e5216e4b690bd389609891d5d64736f6c634300081e0033",
					"opcodes": "PUSH1 0x80 PUSH1 0x40 MSTORE CALLER PUSH0 PUSH0 PUSH2 0x100 EXP DUP2 SLOAD DUP2 PUSH20 0xFFFFFFFFFFFFFFFFFFFFFFFFFFFFFFFFFFFFFFFF MUL NOT AND SWAP1 DUP4 PUSH20 0xFFFFFFFFFFFFFFFFFFFFFFFFFFFFFFFFFFFFFFFF AND MUL OR SWAP1 SSTORE POP TIMESTAMP PUSH1 0x1 SSTORE CALLVALUE DUP1 ISZERO PUSH1 0x51 JUMPI PUSH0 PUSH0 REVERT JUMPDEST POP PUSH2 0x3F1 DUP1 PUSH2 0x5F PUSH0 CODECOPY PUSH0 RETURN INVALID PUSH1 0x80 PUSH1 0x40 MSTORE CALLVALUE DUP1 ISZERO PUSH2 0xF JUMPI PUSH0 PUSH0 REVERT JUMPDEST POP PUSH1 0x4 CALLDATASIZE LT PUSH2 0x4A JUMPI PUSH0 CALLDATALOAD PUSH1 0xE0 SHR DUP1 PUSH4 0x1E9BF0DA EQ PUSH2 0x4E JUMPI DUP1 PUSH4 0x8DA5CB5B EQ PUSH2 0x58 JUMPI DUP1 PUSH4 0xA6F9DAE1 EQ PUSH2 0x76 JUMPI DUP1 PUSH4 0xD8270DCE EQ PUSH2 0x92 JUMPI JUMPDEST PUSH0 PUSH0 REVERT JUMPDEST PUSH2 0x56 PUSH2 0xB0 JUMP JUMPDEST STOP JUMPDEST PUSH2 0x60 PUSH2 0x165 JUMP JUMPDEST PUSH1 0x40 MLOAD PUSH2 0x6D SWAP2 SWAP1 PUSH2 0x2A0 JUMP JUMPDEST PUSH1 0x40 MLOAD DUP1 SWAP2 SUB SWAP1 RETURN JUMPDEST PUSH2 0x90 PUSH1 0x4 DUP1 CALLDATASIZE SUB DUP2 ADD SWAP1 PUSH2 0x8B SWAP2 SWAP1 PUSH2 0x2E7 JUMP JUMPDEST PUSH2 0x189 JUMP JUMPDEST STOP JUMPDEST PUSH2 0x9A PUSH2 0x25B JUMP JUMPDEST PUSH1 0x40 MLOAD PUSH2 0xA7 SWAP2 SWAP1 PUSH2 0x32A JUMP JUMPDEST PUSH1 0x40 MLOAD DUP1 SWAP2 SUB SWAP1 RETURN JUMPDEST PUSH0 PUSH0 SWAP1 SLOAD SWAP1 PUSH2 0x100 EXP SWAP1 DIV PUSH20 0xFFFFFFFFFFFFFFFFFFFFFFFFFFFFFFFFFFFFFFFF AND DUP1 PUSH20 0xFFFFFFFFFFFFFFFFFFFFFFFFFFFFFFFFFFFFFFFF AND CALLER PUSH20 0xFFFFFFFFFFFFFFFFFFFFFFFFFFFFFFFFFFFFFFFF AND EQ PUSH2 0x13F JUMPI PUSH1 0x40 MLOAD PUSH32 0x8C379A000000000000000000000000000000000000000000000000000000000 DUP2 MSTORE PUSH1 0x4 ADD PUSH2 0x136 SWAP1 PUSH2 0x39D JUMP JUMPDEST PUSH1 0x40 MLOAD DUP1 SWAP2 SUB SWAP1 REVERT JUMPDEST PUSH0 PUSH0 PUSH2 0x100 EXP DUP2 SLOAD SWAP1 PUSH20 0xFFFFFFFFFFFFFFFFFFFFFFFFFFFFFFFFFFFFFFFF MUL NOT AND SWAP1 SSTORE POP JUMP JUMPDEST PUSH0 PUSH0 SWAP1 SLOAD SWAP1 PUSH2 0x100 EXP SWAP1 DIV PUSH20 0xFFFFFFFFFFFFFFFFFFFFFFFFFFFFFFFFFFFFFFFF AND DUP2 JUMP JUMPDEST PUSH0 PUSH0 SWAP1 SLOAD SWAP1 PUSH2 0x100 EXP SWAP1 DIV PUSH20 0xFFFFFFFFFFFFFFFFFFFFFFFFFFFFFFFFFFFFFFFF AND DUP1 PUSH20 0xFFFFFFFFFFFFFFFFFFFFFFFFFFFFFFFFFFFFFFFF AND CALLER PUSH20 0xFFFFFFFFFFFFFFFFFFFFFFFFFFFFFFFFFFFFFFFF AND EQ PUSH2 0x218 JUMPI PUSH1 0x40 MLOAD PUSH32 0x8C379A000000000000000000000000000000000000000000000000000000000 DUP2 MSTORE PUSH1 0x4 ADD PUSH2 0x20F SWAP1 PUSH2 0x39D JUMP JUMPDEST PUSH1 0x40 MLOAD DUP1 SWAP2 SUB SWAP1 REVERT JUMPDEST DUP2 PUSH0 PUSH0 PUSH2 0x100 EXP DUP2 SLOAD DUP2 PUSH20 0xFFFFFFFFFFFFFFFFFFFFFFFFFFFFFFFFFFFFFFFF MUL NOT AND SWAP1 DUP4 PUSH20 0xFFFFFFFFFFFFFFFFFFFFFFFFFFFFFFFFFFFFFFFF AND MUL OR SWAP1 SSTORE POP POP POP JUMP JUMPDEST PUSH1 0x1 SLOAD DUP2 JUMP JUMPDEST PUSH0 PUSH20 0xFFFFFFFFFFFFFFFFFFFFFFFFFFFFFFFFFFFFFFFF DUP3 AND SWAP1 POP SWAP2 SWAP1 POP JUMP JUMPDEST PUSH0 PUSH2 0x28A DUP3 PUSH2 0x261 JUMP JUMPDEST SWAP1 POP SWAP2 SWAP1 POP JUMP JUMPDEST PUSH2 0x29A DUP2 PUSH2 0x280 JUMP JUMPDEST DUP3 MSTORE POP POP JUMP JUMPDEST PUSH0 PUSH1 0x20 DUP3 ADD SWAP1 POP PUSH2 0x2B3 PUSH0 DUP4 ADD DUP5 PUSH2 0x291 JUMP JUMPDEST SWAP3 SWAP2 POP POP JUMP JUMPDEST PUSH0 PUSH0 REVERT JUMPDEST PUSH2 0x2C6 DUP2 PUSH2 0x280 JUMP JUMPDEST DUP2 EQ PUSH2 0x2D0 JUMPI PUSH0 PUSH0 REVERT JUMPDEST POP JUMP JUMPDEST PUSH0 DUP2 CALLDATALOAD SWAP1 POP PUSH2 0x2E1 DUP2 PUSH2 0x2BD JUMP JUMPDEST SWAP3 SWAP2 POP POP JUMP JUMPDEST PUSH0 PUSH1 0x20 DUP3 DUP5 SUB SLT ISZERO PUSH2 0x2FC JUMPI PUSH2 0x2FB PUSH2 0x2B9 JUMP JUMPDEST JUMPDEST PUSH0 PUSH2 0x309 DUP5 DUP3 DUP6 ADD PUSH2 0x2D3 JUMP JUMPDEST SWAP2 POP POP SWAP3 SWAP2 POP POP JUMP JUMPDEST PUSH0 DUP2 SWAP1 POP SWAP2 SWAP1 POP JUMP JUMPDEST PUSH2 0x324 DUP2 PUSH2 0x312 JUMP JUMPDEST DUP3 MSTORE POP POP JUMP JUMPDEST PUSH0 PUSH1 0x20 DUP3 ADD SWAP1 POP PUSH2 0x33D PUSH0 DUP4 ADD DUP5 PUSH2 0x31B JUMP JUMPDEST SWAP3 SWAP2 POP POP JUMP JUMPDEST PUSH0 DUP3 DUP3 MSTORE PUSH1 0x20 DUP3 ADD SWAP1 POP SWAP3 SWAP2 POP POP JUMP JUMPDEST PUSH32 0x55736572206E6F7420417574686F72697A656421212100000000000000000000 PUSH0 DUP3 ADD MSTORE POP JUMP JUMPDEST PUSH0 PUSH2 0x387 PUSH1 0x16 DUP4 PUSH2 0x343 JUMP JUMPDEST SWAP2 POP PUSH2 0x392 DUP3 PUSH2 0x353 JUMP JUMPDEST PUSH1 0x20 DUP3 ADD SWAP1 POP SWAP2 SWAP1 POP JUMP JUMPDEST PUSH0 PUSH1 0x20 DUP3 ADD SWAP1 POP DUP2 DUP2 SUB PUSH0 DUP4 ADD MSTORE PUSH2 0x3B4 DUP2 PUSH2 0x37B JUMP JUMPDEST SWAP1 POP SWAP2 SWAP1 POP JUMP INVALID LOG2 PUSH5 0x6970667358 0x22 SLT KECCAK256 0xB9 0xD6 LOG1 DUP3 PUSH5 0x24D082C0FE RETURN 0xB0 MLOAD 0xC4 DUP12 0xED SIGNEXTEND PUSH25 0xAB9E5216E4B690BD389609891D5D64736F6C634300081E0033 "
				},
				"gasEstimates": {
					"creation": {
						"codeDepositCost": "201800",
						"executionCost": "46612",
						"totalCost": "248412"
					},
					"external": {
						"changeOwner(address)": "26909",
						"creationTime()": "2469",
						"disown()": "26534",
						"owner()": "2507"
					}
				},
				"methodIdentifiers": {
					"changeOwner(address)": "a6f9dae1",
					"creationTime()": "d8270dce",
					"disown()": "1e9bf0da",
					"owner()": "8da5cb5b"
				}
			},
			"storageLayout": {
				"storage": [
					{
						"astId": 5,
						"contract": "solidityCourse3/Module2/RestirctedAccess.sol:RestrictedAccess",
						"label": "owner",
						"offset": 0,
						"slot": "0",
						"type": "t_address"
					},
					{
						"astId": 9,
						"contract": "solidityCourse3/Module2/RestirctedAccess.sol:RestrictedAccess",
						"label": "creationTime",
						"offset": 0,
						"slot": "1",
						"type": "t_uint256"
					}
				],
				"types": {
					"t_address": {
						"encoding": "inplace",
						"label": "address",
						"numberOfBytes": "20"
					},
					"t_uint256": {
						"encoding": "inplace",
						"label": "uint256",
						"numberOfBytes": "32"
					}
				}
			},
			"userdoc": {
				"kind": "user",
				"methods": {},
				"version": 1
			}
		}
	}
}