{
	"solidityCourse3/Module3/Events.sol": {
		"transfer": {
			"abi": [
				{
					"anonymous": false,
					"inputs": [
						{
							"indexed": true,
							"internalType": "uint256",
							"name": "date",
							"type": "uint256"
						},
						{
							"indexed": false,
							"internalType": "address",
							"name": "from",
							"type": "address"
						},
						{
							"indexed": true,
							"internalType": "address",
							"name": "to",
							"type": "address"
						},
						{
							"indexed": false,
							"internalType": "uint256",
							"name": "amount",
							"type": "uint256"
						}
					],
					"name": "newTrade",
					"type": "event"
				},
				{
					"inputs": [
						{
							"internalType": "address",
							"name": "to",
							"type": "address"
						},
						{
							"internalType": "uint256",
							"name": "amount",
							"type": "uint256"
						}
					],
					"name": "send",
					"outputs": [],
					"stateMutability": "nonpayable",
					"type": "function"
				}
			],
			"devdoc": {
				"kind": "dev",
				"methods": {},
				"version": 1
			},
			"evm": {
				"assembly": "    /* \"solidityCourse3/Module3/Events.sol\":60:341  contract transfer{... */\n  mstore(0x40, 0x80)\n  callvalue\n  dup1\n  iszero\n  tag_1\n  jumpi\n  revert(0x00, 0x00)\ntag_1:\n  pop\n  dataSize(sub_0)\n  dup1\n  dataOffset(sub_0)\n  0x00\n  codecopy\n  0x00\n  return\nstop\n\nsub_0: assembly {\n        /* \"solidityCourse3/Module3/Events.sol\":60:341  contract transfer{... */\n      mstore(0x40, 0x80)\n      callvalue\n      dup1\n      iszero\n      tag_1\n      jumpi\n      revert(0x00, 0x00)\n    tag_1:\n      pop\n      jumpi(tag_2, lt(calldatasize, 0x04))\n      shr(0xe0, calldataload(0x00))\n      dup1\n      0xd0679d34\n      eq\n      tag_3\n      jumpi\n    tag_2:\n      revert(0x00, 0x00)\n        /* \"solidityCourse3/Module3/Events.sol\":217:338  function send(address to, uint amount) external {... */\n    tag_3:\n      tag_4\n      0x04\n      dup1\n      calldatasize\n      sub\n      dup2\n      add\n      swap1\n      tag_5\n      swap2\n      swap1\n      tag_6\n      jump\t// in\n    tag_5:\n      tag_7\n      jump\t// in\n    tag_4:\n      stop\n    tag_7:\n        /* \"solidityCourse3/Module3/Events.sol\":319:321  to */\n      dup2\n        /* \"solidityCourse3/Module3/Events.sol\":281:330  newTrade(block.timestamp, msg.sender, to, amount) */\n      0xffffffffffffffffffffffffffffffffffffffff\n      and\n        /* \"solidityCourse3/Module3/Events.sol\":290:305  block.timestamp */\n      timestamp\n        /* \"solidityCourse3/Module3/Events.sol\":281:330  newTrade(block.timestamp, msg.sender, to, amount) */\n      0xda7ed2f4b57e459be63c4f11756c1cf2a0e41611d13b30da5b8dd82fdf88b4db\n        /* \"solidityCourse3/Module3/Events.sol\":307:317  msg.sender */\n      caller\n        /* \"solidityCourse3/Module3/Events.sol\":323:329  amount */\n      dup5\n        /* \"solidityCourse3/Module3/Events.sol\":281:330  newTrade(block.timestamp, msg.sender, to, amount) */\n      mload(0x40)\n      tag_9\n      swap3\n      swap2\n      swap1\n      tag_10\n      jump\t// in\n    tag_9:\n      mload(0x40)\n      dup1\n      swap2\n      sub\n      swap1\n      log3\n        /* \"solidityCourse3/Module3/Events.sol\":217:338  function send(address to, uint amount) external {... */\n      pop\n      pop\n      jump\t// out\n        /* \"#utility.yul\":88:205   */\n    tag_12:\n        /* \"#utility.yul\":197:198   */\n      0x00\n        /* \"#utility.yul\":194:195   */\n      0x00\n        /* \"#utility.yul\":187:199   */\n      revert\n        /* \"#utility.yul\":334:460   */\n    tag_14:\n        /* \"#utility.yul\":371:378   */\n      0x00\n        /* \"#utility.yul\":411:453   */\n      0xffffffffffffffffffffffffffffffffffffffff\n        /* \"#utility.yul\":404:409   */\n      dup3\n        /* \"#utility.yul\":400:454   */\n      and\n        /* \"#utility.yul\":389:454   */\n      swap1\n      pop\n        /* \"#utility.yul\":334:460   */\n      swap2\n      swap1\n      pop\n      jump\t// out\n        /* \"#utility.yul\":466:562   */\n    tag_15:\n        /* \"#utility.yul\":503:510   */\n      0x00\n        /* \"#utility.yul\":532:556   */\n      tag_29\n        /* \"#utility.yul\":550:555   */\n      dup3\n        /* \"#utility.yul\":532:556   */\n      tag_14\n      jump\t// in\n    tag_29:\n        /* \"#utility.yul\":521:556   */\n      swap1\n      pop\n        /* \"#utility.yul\":466:562   */\n      swap2\n      swap1\n      pop\n      jump\t// out\n        /* \"#utility.yul\":568:690   */\n    tag_16:\n        /* \"#utility.yul\":641:665   */\n      tag_31\n        /* \"#utility.yul\":659:664   */\n      dup2\n        /* \"#utility.yul\":641:665   */\n      tag_15\n      jump\t// in\n    tag_31:\n        /* \"#utility.yul\":634:639   */\n      dup2\n        /* \"#utility.yul\":631:666   */\n      eq\n        /* \"#utility.yul\":621:684   */\n      tag_32\n      jumpi\n        /* \"#utility.yul\":680:681   */\n      0x00\n        /* \"#utility.yul\":677:678   */\n      0x00\n        /* \"#utility.yul\":670:682   */\n      revert\n        /* \"#utility.yul\":621:684   */\n    tag_32:\n        /* \"#utility.yul\":568:690   */\n      pop\n      jump\t// out\n        /* \"#utility.yul\":696:835   */\n    tag_17:\n        /* \"#utility.yul\":742:747   */\n      0x00\n        /* \"#utility.yul\":780:786   */\n      dup2\n        /* \"#utility.yul\":767:787   */\n      calldataload\n        /* \"#utility.yul\":758:787   */\n      swap1\n      pop\n        /* \"#utility.yul\":796:829   */\n      tag_34\n        /* \"#utility.yul\":823:828   */\n      dup2\n        /* \"#utility.yul\":796:829   */\n      tag_16\n      jump\t// in\n    tag_34:\n        /* \"#utility.yul\":696:835   */\n      swap3\n      swap2\n      pop\n      pop\n      jump\t// out\n        /* \"#utility.yul\":841:918   */\n    tag_18:\n        /* \"#utility.yul\":878:885   */\n      0x00\n        /* \"#utility.yul\":907:912   */\n      dup2\n        /* \"#utility.yul\":896:912   */\n      swap1\n      pop\n        /* \"#utility.yul\":841:918   */\n      swap2\n      swap1\n      pop\n      jump\t// out\n        /* \"#utility.yul\":924:1046   */\n    tag_19:\n        /* \"#utility.yul\":997:1021   */\n      tag_37\n        /* \"#utility.yul\":1015:1020   */\n      dup2\n        /* \"#utility.yul\":997:1021   */\n      tag_18\n      jump\t// in\n    tag_37:\n        /* \"#utility.yul\":990:995   */\n      dup2\n        /* \"#utility.yul\":987:1022   */\n      eq\n        /* \"#utility.yul\":977:1040   */\n      tag_38\n      jumpi\n        /* \"#utility.yul\":1036:1037   */\n      0x00\n        /* \"#utility.yul\":1033:1034   */\n      0x00\n        /* \"#utility.yul\":1026:1038   */\n      revert\n        /* \"#utility.yul\":977:1040   */\n    tag_38:\n        /* \"#utility.yul\":924:1046   */\n      pop\n      jump\t// out\n        /* \"#utility.yul\":1052:1191   */\n    tag_20:\n        /* \"#utility.yul\":1098:1103   */\n      0x00\n        /* \"#utility.yul\":1136:1142   */\n      dup2\n        /* \"#utility.yul\":1123:1143   */\n      calldataload\n        /* \"#utility.yul\":1114:1143   */\n      swap1\n      pop\n        /* \"#utility.yul\":1152:1185   */\n      tag_40\n        /* \"#utility.yul\":1179:1184   */\n      dup2\n        /* \"#utility.yul\":1152:1185   */\n      tag_19\n      jump\t// in\n    tag_40:\n        /* \"#utility.yul\":1052:1191   */\n      swap3\n      swap2\n      pop\n      pop\n      jump\t// out\n        /* \"#utility.yul\":1197:1671   */\n    tag_6:\n        /* \"#utility.yul\":1265:1271   */\n      0x00\n        /* \"#utility.yul\":1273:1279   */\n      0x00\n        /* \"#utility.yul\":1322:1324   */\n      0x40\n        /* \"#utility.yul\":1310:1319   */\n      dup4\n        /* \"#utility.yul\":1301:1308   */\n      dup6\n        /* \"#utility.yul\":1297:1320   */\n      sub\n        /* \"#utility.yul\":1293:1325   */\n      slt\n        /* \"#utility.yul\":1290:1409   */\n      iszero\n      tag_42\n      jumpi\n        /* \"#utility.yul\":1328:1407   */\n      tag_43\n      tag_12\n      jump\t// in\n    tag_43:\n        /* \"#utility.yul\":1290:1409   */\n    tag_42:\n        /* \"#utility.yul\":1448:1449   */\n      0x00\n        /* \"#utility.yul\":1473:1526   */\n      tag_44\n        /* \"#utility.yul\":1518:1525   */\n      dup6\n        /* \"#utility.yul\":1509:1515   */\n      dup3\n        /* \"#utility.yul\":1498:1507   */\n      dup7\n        /* \"#utility.yul\":1494:1516   */\n      add\n        /* \"#utility.yul\":1473:1526   */\n      tag_17\n      jump\t// in\n    tag_44:\n        /* \"#utility.yul\":1463:1526   */\n      swap3\n      pop\n        /* \"#utility.yul\":1419:1536   */\n      pop\n        /* \"#utility.yul\":1575:1577   */\n      0x20\n        /* \"#utility.yul\":1601:1654   */\n      tag_45\n        /* \"#utility.yul\":1646:1653   */\n      dup6\n        /* \"#utility.yul\":1637:1643   */\n      dup3\n        /* \"#utility.yul\":1626:1635   */\n      dup7\n        /* \"#utility.yul\":1622:1644   */\n      add\n        /* \"#utility.yul\":1601:1654   */\n      tag_20\n      jump\t// in\n    tag_45:\n        /* \"#utility.yul\":1591:1654   */\n      swap2\n      pop\n        /* \"#utility.yul\":1546:1664   */\n      pop\n        /* \"#utility.yul\":1197:1671   */\n      swap3\n      pop\n      swap3\n      swap1\n      pop\n      jump\t// out\n        /* \"#utility.yul\":1677:1795   */\n    tag_21:\n        /* \"#utility.yul\":1764:1788   */\n      tag_47\n        /* \"#utility.yul\":1782:1787   */\n      dup2\n        /* \"#utility.yul\":1764:1788   */\n      tag_15\n      jump\t// in\n    tag_47:\n        /* \"#utility.yul\":1759:1762   */\n      dup3\n        /* \"#utility.yul\":1752:1789   */\n      mstore\n        /* \"#utility.yul\":1677:1795   */\n      pop\n      pop\n      jump\t// out\n        /* \"#utility.yul\":1801:1919   */\n    tag_22:\n        /* \"#utility.yul\":1888:1912   */\n      tag_49\n        /* \"#utility.yul\":1906:1911   */\n      dup2\n        /* \"#utility.yul\":1888:1912   */\n      tag_18\n      jump\t// in\n    tag_49:\n        /* \"#utility.yul\":1883:1886   */\n      dup3\n        /* \"#utility.yul\":1876:1913   */\n      mstore\n        /* \"#utility.yul\":1801:1919   */\n      pop\n      pop\n      jump\t// out\n        /* \"#utility.yul\":1925:2257   */\n    tag_10:\n        /* \"#utility.yul\":2046:2050   */\n      0x00\n        /* \"#utility.yul\":2084:2086   */\n      0x40\n        /* \"#utility.yul\":2073:2082   */\n      dup3\n        /* \"#utility.yul\":2069:2087   */\n      add\n        /* \"#utility.yul\":2061:2087   */\n      swap1\n      pop\n        /* \"#utility.yul\":2097:2168   */\n      tag_51\n        /* \"#utility.yul\":2165:2166   */\n      0x00\n        /* \"#utility.yul\":2154:2163   */\n      dup4\n        /* \"#utility.yul\":2150:2167   */\n      add\n        /* \"#utility.yul\":2141:2147   */\n      dup6\n        /* \"#utility.yul\":2097:2168   */\n      tag_21\n      jump\t// in\n    tag_51:\n        /* \"#utility.yul\":2178:2250   */\n      tag_52\n        /* \"#utility.yul\":2246:2248   */\n      0x20\n        /* \"#utility.yul\":2235:2244   */\n      dup4\n        /* \"#utility.yul\":2231:2249   */\n      add\n        /* \"#utility.yul\":2222:2228   */\n      dup5\n        /* \"#utility.yul\":2178:2250   */\n      tag_22\n      jump\t// in\n    tag_52:\n        /* \"#utility.yul\":1925:2257   */\n      swap4\n      swap3\n      pop\n      pop\n      pop\n      jump\t// out\n\n    auxdata: 0xa2646970667358221220be7c4381bc4466b73f556be8b4f2abbf5b500c8c81993956617b4b99b3893d4d64736f6c634300081e0033\n}\n",
				"bytecode": {
					"linkReferences": {},
					"object": "6080604052348015600e575f5ffd5b506101e88061001c5f395ff3fe608060405234801561000f575f5ffd5b5060043610610029575f3560e01c8063d0679d341461002d575b5f5ffd5b6100476004803603810190610042919061012f565b610049565b005b8173ffffffffffffffffffffffffffffffffffffffff16427fda7ed2f4b57e459be63c4f11756c1cf2a0e41611d13b30da5b8dd82fdf88b4db338460405161009292919061018b565b60405180910390a35050565b5f5ffd5b5f73ffffffffffffffffffffffffffffffffffffffff82169050919050565b5f6100cb826100a2565b9050919050565b6100db816100c1565b81146100e5575f5ffd5b50565b5f813590506100f6816100d2565b92915050565b5f819050919050565b61010e816100fc565b8114610118575f5ffd5b50565b5f8135905061012981610105565b92915050565b5f5f604083850312156101455761014461009e565b5b5f610152858286016100e8565b92505060206101638582860161011b565b9150509250929050565b610176816100c1565b82525050565b610185816100fc565b82525050565b5f60408201905061019e5f83018561016d565b6101ab602083018461017c565b939250505056fea2646970667358221220be7c4381bc4466b73f556be8b4f2abbf5b500c8c81993956617b4b99b3893d4d64736f6c634300081e0033",
					"opcodes": "PUSH1 0x80 PUSH1 0x40 MSTORE CALLVALUE DUP1 ISZERO PUSH1 0xE JUMPI PUSH0 PUSH0 REVERT JUMPDEST POP PUSH2 0x1E8 DUP1 PUSH2 0x1C PUSH0 CODECOPY PUSH0 RETURN INVALID PUSH1 0x80 PUSH1 0x40 MSTORE CALLVALUE DUP1 ISZERO PUSH2 0xF JUMPI PUSH0 PUSH0 REVERT JUMPDEST POP PUSH1 0x4 CALLDATASIZE LT PUSH2 0x29 JUMPI PUSH0 CALLDATALOAD PUSH1 0xE0 SHR DUP1 PUSH4 0xD0679D34 EQ PUSH2 0x2D JUMPI JUMPDEST PUSH0 PUSH0 REVERT JUMPDEST PUSH2 0x47 PUSH1 0x4 DUP1 CALLDATASIZE SUB DUP2 ADD SWAP1 PUSH2 0x42 SWAP2 SWAP1 PUSH2 0x12F JUMP JUMPDEST PUSH2 0x49 JUMP JUMPDEST STOP JUMPDEST DUP2 PUSH20 0xFFFFFFFFFFFFFFFFFFFFFFFFFFFFFFFFFFFFFFFF AND TIMESTAMP PUSH32 0xDA7ED2F4B57E459BE63C4F11756C1CF2A0E41611D13B30DA5B8DD82FDF88B4DB CALLER DUP5 PUSH1 0x40 MLOAD PUSH2 0x92 SWAP3 SWAP2 SWAP1 PUSH2 0x18B JUMP JUMPDEST PUSH1 0x40 MLOAD DUP1 SWAP2 SUB SWAP1 LOG3 POP POP JUMP JUMPDEST PUSH0 PUSH0 REVERT JUMPDEST PUSH0 PUSH20 0xFFFFFFFFFFFFFFFFFFFFFFFFFFFFFFFFFFFFFFFF DUP3 AND SWAP1 POP SWAP2 SWAP1 POP JUMP JUMPDEST PUSH0 PUSH2 0xCB DUP3 PUSH2 0xA2 JUMP JUMPDEST SWAP1 POP SWAP2 SWAP1 POP JUMP JUMPDEST PUSH2 0xDB DUP2 PUSH2 0xC1 JUMP JUMPDEST DUP2 EQ PUSH2 0xE5 JUMPI PUSH0 PUSH0 REVERT JUMPDEST POP JUMP JUMPDEST PUSH0 DUP2 CALLDATALOAD SWAP1 POP PUSH2 0xF6 DUP2 PUSH2 0xD2 JUMP JUMPDEST SWAP3 SWAP2 POP POP JUMP JUMPDEST PUSH0 DUP2 SWAP1 POP SWAP2 SWAP1 POP JUMP JUMPDEST PUSH2 0x10E DUP2 PUSH2 0xFC JUMP JUMPDEST DUP2 EQ PUSH2 0x118 JUMPI PUSH0 PUSH0 REVERT JUMPDEST POP JUMP JUMPDEST PUSH0 DUP2 CALLDATALOAD SWAP1 POP PUSH2 0x129 DUP2 PUSH2 0x105 JUMP JUMPDEST SWAP3 SWAP2 POP POP JUMP JUMPDEST PUSH0 PUSH0 PUSH1 0x40 DUP4 DUP6 SUB SLT ISZERO PUSH2 0x145 JUMPI PUSH2 0x144 PUSH2 0x9E JUMP JUMPDEST JUMPDEST PUSH0 PUSH2 0x152 DUP6 DUP3 DUP7 ADD PUSH2 0xE8 JUMP JUMPDEST SWAP3 POP POP PUSH1 0x20 PUSH2 0x163 DUP6 DUP3 DUP7 ADD PUSH2 0x11B JUMP JUMPDEST SWAP2 POP POP SWAP3 POP SWAP3 SWAP1 POP JUMP JUMPDEST PUSH2 0x176 DUP2 PUSH2 0xC1 JUMP JUMPDEST DUP3 MSTORE POP POP JUMP JUMPDEST PUSH2 0x185 DUP2 PUSH2 0xFC JUMP JUMPDEST DUP3 MSTORE POP POP JUMP JUMPDEST PUSH0 PUSH1 0x40 DUP3 ADD SWAP1 POP PUSH2 0x19E PUSH0 DUP4 ADD DUP6 PUSH2 0x16D JUMP JUMPDEST PUSH2 0x1AB PUSH1 0x20 DUP4 ADD DUP5 PUSH2 0x17C JUMP JUMPDEST SWAP4 SWAP3 POP POP POP JUMP INVALID LOG2 PUSH5 0x6970667358 0x22 SLT KECCAK256 0xBE PUSH29 0x4381BC4466B73F556BE8B4F2ABBF5B500C8C81993956617B4B99B3893D 0x4D PUSH5 0x736F6C6343 STOP ADDMOD 0x1E STOP CALLER "
				},
				"gasEstimates": {
					"creation": {
						"codeDepositCost": "97600",
						"executionCost": "145",
						"totalCost": "97745"
					},
					"external": {
						"send(address,uint256)": "infinite"
					}
				},
				"methodIdentifiers": {
					"send(address,uint256)": "d0679d34"
				}
			},
			"storageLayout": {
				"storage": [],
				"types": null
			},
			"userdoc": {
				"kind": "user",
				"methods": {},
				"version": 1
			}
		}
	}
}