{
	"contracts/Twitter.sol": {
		"twitter": {
			"abi": [
				{
					"inputs": [
						{
							"internalType": "string",
							"name": "tweet",
							"type": "string"
						}
					],
					"name": "createTweet",
					"outputs": [],
					"stateMutability": "nonpayable",
					"type": "function"
				},
				{
					"inputs": [
						{
							"internalType": "address",
							"name": "owner",
							"type": "address"
						}
					],
					"name": "getAllTweet",
					"outputs": [
						{
							"internalType": "string[]",
							"name": "",
							"type": "string[]"
						}
					],
					"stateMutability": "view",
					"type": "function"
				},
				{
					"inputs": [
						{
							"internalType": "address",
							"name": "owner",
							"type": "address"
						},
						{
							"internalType": "uint256",
							"name": "idx",
							"type": "uint256"
						}
					],
					"name": "getTweetIdx",
					"outputs": [
						{
							"internalType": "string",
							"name": "",
							"type": "string"
						}
					],
					"stateMutability": "view",
					"type": "function"
				},
				{
					"inputs": [
						{
							"internalType": "address",
							"name": "",
							"type": "address"
						},
						{
							"internalType": "uint256",
							"name": "",
							"type": "uint256"
						}
					],
					"name": "tweets",
					"outputs": [
						{
							"internalType": "string",
							"name": "",
							"type": "string"
						}
					],
					"stateMutability": "view",
					"type": "function"
				}
			],
			"devdoc": {
				"kind": "dev",
				"methods": {},
				"version": 1
			},
			"evm": {
				"assembly": "    /* \"contracts/Twitter.sol\":60:478  contract twitter{... */\n  mstore(0x40, 0x80)\n  callvalue\n  dup1\n  iszero\n  tag_1\n  jumpi\n  0x00\n  dup1\n  revert\ntag_1:\n  pop\n  dataSize(sub_0)\n  dup1\n  dataOffset(sub_0)\n  0x00\n  codecopy\n  0x00\n  return\nstop\n\nsub_0: assembly {\n        /* \"contracts/Twitter.sol\":60:478  contract twitter{... */\n      mstore(0x40, 0x80)\n      callvalue\n      dup1\n      iszero\n      tag_1\n      jumpi\n      0x00\n      dup1\n      revert\n    tag_1:\n      pop\n      jumpi(tag_2, lt(calldatasize, 0x04))\n      shr(0xe0, calldataload(0x00))\n      dup1\n      0x05a1b4a9\n      eq\n      tag_3\n      jumpi\n      dup1\n      0x7c9cd2bc\n      eq\n      tag_4\n      jumpi\n      dup1\n      0xb64988b8\n      eq\n      tag_5\n      jumpi\n      dup1\n      0xf95006a3\n      eq\n      tag_6\n      jumpi\n    tag_2:\n      0x00\n      dup1\n      revert\n        /* \"contracts/Twitter.sol\":83:122  mapping(address=>string[])public tweets */\n    tag_3:\n      tag_7\n      0x04\n      dup1\n      calldatasize\n      sub\n      dup2\n      add\n      swap1\n      tag_8\n      swap2\n      swap1\n      tag_9\n      jump\t// in\n    tag_8:\n      tag_10\n      jump\t// in\n    tag_7:\n      mload(0x40)\n      tag_11\n      swap2\n      swap1\n      tag_12\n      jump\t// in\n    tag_11:\n      mload(0x40)\n      dup1\n      swap2\n      sub\n      swap1\n      return\n        /* \"contracts/Twitter.sol\":129:227  function createTweet(string memory tweet) public {... */\n    tag_4:\n      tag_13\n      0x04\n      dup1\n      calldatasize\n      sub\n      dup2\n      add\n      swap1\n      tag_14\n      swap2\n      swap1\n      tag_15\n      jump\t// in\n    tag_14:\n      tag_16\n      jump\t// in\n    tag_13:\n      stop\n        /* \"contracts/Twitter.sol\":363:473  function getAllTweet(address owner)public view returns(string[] memory){... */\n    tag_5:\n      tag_17\n      0x04\n      dup1\n      calldatasize\n      sub\n      dup2\n      add\n      swap1\n      tag_18\n      swap2\n      swap1\n      tag_19\n      jump\t// in\n    tag_18:\n      tag_20\n      jump\t// in\n    tag_17:\n      mload(0x40)\n      tag_21\n      swap2\n      swap1\n      tag_22\n      jump\t// in\n    tag_21:\n      mload(0x40)\n      dup1\n      swap2\n      sub\n      swap1\n      return\n        /* \"contracts/Twitter.sol\":233:357  function getTweetIdx(address owner, uint idx) public view returns(string memory){... */\n    tag_6:\n      tag_23\n      0x04\n      dup1\n      calldatasize\n      sub\n      dup2\n      add\n      swap1\n      tag_24\n      swap2\n      swap1\n      tag_9\n      jump\t// in\n    tag_24:\n      tag_25\n      jump\t// in\n    tag_23:\n      mload(0x40)\n      tag_26\n      swap2\n      swap1\n      tag_12\n      jump\t// in\n    tag_26:\n      mload(0x40)\n      dup1\n      swap2\n      sub\n      swap1\n      return\n        /* \"contracts/Twitter.sol\":83:122  mapping(address=>string[])public tweets */\n    tag_10:\n      mstore(0x20, 0x00)\n      dup2\n      0x00\n      mstore\n      keccak256(0x00, 0x40)\n      dup2\n      dup2\n      sload\n      dup2\n      lt\n      tag_27\n      jumpi\n      0x00\n      dup1\n      revert\n    tag_27:\n      swap1\n      0x00\n      mstore\n      keccak256(0x00, 0x20)\n      add\n      0x00\n      swap2\n      pop\n      swap2\n      pop\n      pop\n      dup1\n      sload\n      tag_29\n      swap1\n      tag_30\n      jump\t// in\n    tag_29:\n      dup1\n      0x1f\n      add\n      0x20\n      dup1\n      swap2\n      div\n      mul\n      0x20\n      add\n      mload(0x40)\n      swap1\n      dup2\n      add\n      0x40\n      mstore\n      dup1\n      swap3\n      swap2\n      swap1\n      dup2\n      dup2\n      mstore\n      0x20\n      add\n      dup3\n      dup1\n      sload\n      tag_31\n      swap1\n      tag_30\n      jump\t// in\n    tag_31:\n      dup1\n      iszero\n      tag_32\n      jumpi\n      dup1\n      0x1f\n      lt\n      tag_33\n      jumpi\n      0x0100\n      dup1\n      dup4\n      sload\n      div\n      mul\n      dup4\n      mstore\n      swap2\n      0x20\n      add\n      swap2\n      jump(tag_32)\n    tag_33:\n      dup3\n      add\n      swap2\n      swap1\n      0x00\n      mstore\n      keccak256(0x00, 0x20)\n      swap1\n    tag_34:\n      dup2\n      sload\n      dup2\n      mstore\n      swap1\n      0x01\n      add\n      swap1\n      0x20\n      add\n      dup1\n      dup4\n      gt\n      tag_34\n      jumpi\n      dup3\n      swap1\n      sub\n      0x1f\n      and\n      dup3\n      add\n      swap2\n    tag_32:\n      pop\n      pop\n      pop\n      pop\n      pop\n      dup2\n      jump\t// out\n        /* \"contracts/Twitter.sol\":129:227  function createTweet(string memory tweet) public {... */\n    tag_16:\n        /* \"contracts/Twitter.sol\":189:195  tweets */\n      0x00\n        /* \"contracts/Twitter.sol\":189:207  tweets[msg.sender] */\n      dup1\n        /* \"contracts/Twitter.sol\":196:206  msg.sender */\n      caller\n        /* \"contracts/Twitter.sol\":189:207  tweets[msg.sender] */\n      0xffffffffffffffffffffffffffffffffffffffff\n      and\n      0xffffffffffffffffffffffffffffffffffffffff\n      and\n      dup2\n      mstore\n      0x20\n      add\n      swap1\n      dup2\n      mstore\n      0x20\n      add\n      0x00\n      keccak256\n        /* \"contracts/Twitter.sol\":213:218  tweet */\n      dup2\n        /* \"contracts/Twitter.sol\":189:219  tweets[msg.sender].push(tweet) */\n      swap1\n      dup1\n      0x01\n      dup2\n      sload\n      add\n      dup1\n      dup3\n      sstore\n      dup1\n      swap2\n      pop\n      pop\n      0x01\n      swap1\n      sub\n      swap1\n      0x00\n      mstore\n      keccak256(0x00, 0x20)\n      add\n      0x00\n      swap1\n      swap2\n      swap1\n      swap2\n      swap1\n      swap2\n      pop\n      swap1\n      dup2\n      tag_37\n      swap2\n      swap1\n      tag_38\n      jump\t// in\n    tag_37:\n      pop\n        /* \"contracts/Twitter.sol\":129:227  function createTweet(string memory tweet) public {... */\n      pop\n      jump\t// out\n        /* \"contracts/Twitter.sol\":363:473  function getAllTweet(address owner)public view returns(string[] memory){... */\n    tag_20:\n        /* \"contracts/Twitter.sol\":418:433  string[] memory */\n      0x60\n        /* \"contracts/Twitter.sol\":452:458  tweets */\n      0x00\n        /* \"contracts/Twitter.sol\":452:465  tweets[owner] */\n      dup1\n        /* \"contracts/Twitter.sol\":459:464  owner */\n      dup4\n        /* \"contracts/Twitter.sol\":452:465  tweets[owner] */\n      0xffffffffffffffffffffffffffffffffffffffff\n      and\n      0xffffffffffffffffffffffffffffffffffffffff\n      and\n      dup2\n      mstore\n      0x20\n      add\n      swap1\n      dup2\n      mstore\n      0x20\n      add\n      0x00\n      keccak256\n        /* \"contracts/Twitter.sol\":445:465  return tweets[owner] */\n      dup1\n      sload\n      dup1\n      0x20\n      mul\n      0x20\n      add\n      mload(0x40)\n      swap1\n      dup2\n      add\n      0x40\n      mstore\n      dup1\n      swap3\n      swap2\n      swap1\n      dup2\n      dup2\n      mstore\n      0x20\n      add\n      0x00\n      swap1\n    tag_40:\n      dup3\n      dup3\n      lt\n      iszero\n      tag_41\n      jumpi\n      dup4\n      dup3\n      swap1\n      0x00\n      mstore\n      keccak256(0x00, 0x20)\n      add\n      dup1\n      sload\n      tag_43\n      swap1\n      tag_30\n      jump\t// in\n    tag_43:\n      dup1\n      0x1f\n      add\n      0x20\n      dup1\n      swap2\n      div\n      mul\n      0x20\n      add\n      mload(0x40)\n      swap1\n      dup2\n      add\n      0x40\n      mstore\n      dup1\n      swap3\n      swap2\n      swap1\n      dup2\n      dup2\n      mstore\n      0x20\n      add\n      dup3\n      dup1\n      sload\n      tag_44\n      swap1\n      tag_30\n      jump\t// in\n    tag_44:\n      dup1\n      iszero\n      tag_45\n      jumpi\n      dup1\n      0x1f\n      lt\n      tag_46\n      jumpi\n      0x0100\n      dup1\n      dup4\n      sload\n      div\n      mul\n      dup4\n      mstore\n      swap2\n      0x20\n      add\n      swap2\n      jump(tag_45)\n    tag_46:\n      dup3\n      add\n      swap2\n      swap1\n      0x00\n      mstore\n      keccak256(0x00, 0x20)\n      swap1\n    tag_47:\n      dup2\n      sload\n      dup2\n      mstore\n      swap1\n      0x01\n      add\n      swap1\n      0x20\n      add\n      dup1\n      dup4\n      gt\n      tag_47\n      jumpi\n      dup3\n      swap1\n      sub\n      0x1f\n      and\n      dup3\n      add\n      swap2\n    tag_45:\n      pop\n      pop\n      pop\n      pop\n      pop\n      dup2\n      mstore\n      0x20\n      add\n      swap1\n      0x01\n      add\n      swap1\n      jump(tag_40)\n    tag_41:\n      pop\n      pop\n      pop\n      pop\n      swap1\n      pop\n        /* \"contracts/Twitter.sol\":363:473  function getAllTweet(address owner)public view returns(string[] memory){... */\n      swap2\n      swap1\n      pop\n      jump\t// out\n        /* \"contracts/Twitter.sol\":233:357  function getTweetIdx(address owner, uint idx) public view returns(string memory){... */\n    tag_25:\n        /* \"contracts/Twitter.sol\":299:312  string memory */\n      0x60\n        /* \"contracts/Twitter.sol\":331:337  tweets */\n      0x00\n        /* \"contracts/Twitter.sol\":331:344  tweets[owner] */\n      dup1\n        /* \"contracts/Twitter.sol\":338:343  owner */\n      dup5\n        /* \"contracts/Twitter.sol\":331:344  tweets[owner] */\n      0xffffffffffffffffffffffffffffffffffffffff\n      and\n      0xffffffffffffffffffffffffffffffffffffffff\n      and\n      dup2\n      mstore\n      0x20\n      add\n      swap1\n      dup2\n      mstore\n      0x20\n      add\n      0x00\n      keccak256\n        /* \"contracts/Twitter.sol\":345:348  idx */\n      dup3\n        /* \"contracts/Twitter.sol\":331:349  tweets[owner][idx] */\n      dup2\n      sload\n      dup2\n      lt\n      tag_49\n      jumpi\n      tag_50\n      tag_51\n      jump\t// in\n    tag_50:\n    tag_49:\n      swap1\n      0x00\n      mstore\n      keccak256(0x00, 0x20)\n      add\n        /* \"contracts/Twitter.sol\":324:349  return tweets[owner][idx] */\n      dup1\n      sload\n      tag_53\n      swap1\n      tag_30\n      jump\t// in\n    tag_53:\n      dup1\n      0x1f\n      add\n      0x20\n      dup1\n      swap2\n      div\n      mul\n      0x20\n      add\n      mload(0x40)\n      swap1\n      dup2\n      add\n      0x40\n      mstore\n      dup1\n      swap3\n      swap2\n      swap1\n      dup2\n      dup2\n      mstore\n      0x20\n      add\n      dup3\n      dup1\n      sload\n      tag_54\n      swap1\n      tag_30\n      jump\t// in\n    tag_54:\n      dup1\n      iszero\n      tag_55\n      jumpi\n      dup1\n      0x1f\n      lt\n      tag_56\n      jumpi\n      0x0100\n      dup1\n      dup4\n      sload\n      div\n      mul\n      dup4\n      mstore\n      swap2\n      0x20\n      add\n      swap2\n      jump(tag_55)\n    tag_56:\n      dup3\n      add\n      swap2\n      swap1\n      0x00\n      mstore\n      keccak256(0x00, 0x20)\n      swap1\n    tag_57:\n      dup2\n      sload\n      dup2\n      mstore\n      swap1\n      0x01\n      add\n      swap1\n      0x20\n      add\n      dup1\n      dup4\n      gt\n      tag_57\n      jumpi\n      dup3\n      swap1\n      sub\n      0x1f\n      and\n      dup3\n      add\n      swap2\n    tag_55:\n      pop\n      pop\n      pop\n      pop\n      pop\n      swap1\n      pop\n        /* \"contracts/Twitter.sol\":233:357  function getTweetIdx(address owner, uint idx) public view returns(string memory){... */\n      swap3\n      swap2\n      pop\n      pop\n      jump\t// out\n        /* \"#utility.yul\":7:82   */\n    tag_58:\n        /* \"#utility.yul\":40:46   */\n      0x00\n        /* \"#utility.yul\":73:75   */\n      0x40\n        /* \"#utility.yul\":67:76   */\n      mload\n        /* \"#utility.yul\":57:76   */\n      swap1\n      pop\n        /* \"#utility.yul\":7:82   */\n      swap1\n      jump\t// out\n        /* \"#utility.yul\":88:205   */\n    tag_59:\n        /* \"#utility.yul\":197:198   */\n      0x00\n        /* \"#utility.yul\":194:195   */\n      dup1\n        /* \"#utility.yul\":187:199   */\n      revert\n        /* \"#utility.yul\":211:328   */\n    tag_60:\n        /* \"#utility.yul\":320:321   */\n      0x00\n        /* \"#utility.yul\":317:318   */\n      dup1\n        /* \"#utility.yul\":310:322   */\n      revert\n        /* \"#utility.yul\":334:460   */\n    tag_61:\n        /* \"#utility.yul\":371:378   */\n      0x00\n        /* \"#utility.yul\":411:453   */\n      0xffffffffffffffffffffffffffffffffffffffff\n        /* \"#utility.yul\":404:409   */\n      dup3\n        /* \"#utility.yul\":400:454   */\n      and\n        /* \"#utility.yul\":389:454   */\n      swap1\n      pop\n        /* \"#utility.yul\":334:460   */\n      swap2\n      swap1\n      pop\n      jump\t// out\n        /* \"#utility.yul\":466:562   */\n    tag_62:\n        /* \"#utility.yul\":503:510   */\n      0x00\n        /* \"#utility.yul\":532:556   */\n      tag_112\n        /* \"#utility.yul\":550:555   */\n      dup3\n        /* \"#utility.yul\":532:556   */\n      tag_61\n      jump\t// in\n    tag_112:\n        /* \"#utility.yul\":521:556   */\n      swap1\n      pop\n        /* \"#utility.yul\":466:562   */\n      swap2\n      swap1\n      pop\n      jump\t// out\n        /* \"#utility.yul\":568:690   */\n    tag_63:\n        /* \"#utility.yul\":641:665   */\n      tag_114\n        /* \"#utility.yul\":659:664   */\n      dup2\n        /* \"#utility.yul\":641:665   */\n      tag_62\n      jump\t// in\n    tag_114:\n        /* \"#utility.yul\":634:639   */\n      dup2\n        /* \"#utility.yul\":631:666   */\n      eq\n        /* \"#utility.yul\":621:684   */\n      tag_115\n      jumpi\n        /* \"#utility.yul\":680:681   */\n      0x00\n        /* \"#utility.yul\":677:678   */\n      dup1\n        /* \"#utility.yul\":670:682   */\n      revert\n        /* \"#utility.yul\":621:684   */\n    tag_115:\n        /* \"#utility.yul\":568:690   */\n      pop\n      jump\t// out\n        /* \"#utility.yul\":696:835   */\n    tag_64:\n        /* \"#utility.yul\":742:747   */\n      0x00\n        /* \"#utility.yul\":780:786   */\n      dup2\n        /* \"#utility.yul\":767:787   */\n      calldataload\n        /* \"#utility.yul\":758:787   */\n      swap1\n      pop\n        /* \"#utility.yul\":796:829   */\n      tag_117\n        /* \"#utility.yul\":823:828   */\n      dup2\n        /* \"#utility.yul\":796:829   */\n      tag_63\n      jump\t// in\n    tag_117:\n        /* \"#utility.yul\":696:835   */\n      swap3\n      swap2\n      pop\n      pop\n      jump\t// out\n        /* \"#utility.yul\":841:918   */\n    tag_65:\n        /* \"#utility.yul\":878:885   */\n      0x00\n        /* \"#utility.yul\":907:912   */\n      dup2\n        /* \"#utility.yul\":896:912   */\n      swap1\n      pop\n        /* \"#utility.yul\":841:918   */\n      swap2\n      swap1\n      pop\n      jump\t// out\n        /* \"#utility.yul\":924:1046   */\n    tag_66:\n        /* \"#utility.yul\":997:1021   */\n      tag_120\n        /* \"#utility.yul\":1015:1020   */\n      dup2\n        /* \"#utility.yul\":997:1021   */\n      tag_65\n      jump\t// in\n    tag_120:\n        /* \"#utility.yul\":990:995   */\n      dup2\n        /* \"#utility.yul\":987:1022   */\n      eq\n        /* \"#utility.yul\":977:1040   */\n      tag_121\n      jumpi\n        /* \"#utility.yul\":1036:1037   */\n      0x00\n        /* \"#utility.yul\":1033:1034   */\n      dup1\n        /* \"#utility.yul\":1026:1038   */\n      revert\n        /* \"#utility.yul\":977:1040   */\n    tag_121:\n        /* \"#utility.yul\":924:1046   */\n      pop\n      jump\t// out\n        /* \"#utility.yul\":1052:1191   */\n    tag_67:\n        /* \"#utility.yul\":1098:1103   */\n      0x00\n        /* \"#utility.yul\":1136:1142   */\n      dup2\n        /* \"#utility.yul\":1123:1143   */\n      calldataload\n        /* \"#utility.yul\":1114:1143   */\n      swap1\n      pop\n        /* \"#utility.yul\":1152:1185   */\n      tag_123\n        /* \"#utility.yul\":1179:1184   */\n      dup2\n        /* \"#utility.yul\":1152:1185   */\n      tag_66\n      jump\t// in\n    tag_123:\n        /* \"#utility.yul\":1052:1191   */\n      swap3\n      swap2\n      pop\n      pop\n      jump\t// out\n        /* \"#utility.yul\":1197:1671   */\n    tag_9:\n        /* \"#utility.yul\":1265:1271   */\n      0x00\n        /* \"#utility.yul\":1273:1279   */\n      dup1\n        /* \"#utility.yul\":1322:1324   */\n      0x40\n        /* \"#utility.yul\":1310:1319   */\n      dup4\n        /* \"#utility.yul\":1301:1308   */\n      dup6\n        /* \"#utility.yul\":1297:1320   */\n      sub\n        /* \"#utility.yul\":1293:1325   */\n      slt\n        /* \"#utility.yul\":1290:1409   */\n      iszero\n      tag_125\n      jumpi\n        /* \"#utility.yul\":1328:1407   */\n      tag_126\n      tag_59\n      jump\t// in\n    tag_126:\n        /* \"#utility.yul\":1290:1409   */\n    tag_125:\n        /* \"#utility.yul\":1448:1449   */\n      0x00\n        /* \"#utility.yul\":1473:1526   */\n      tag_127\n        /* \"#utility.yul\":1518:1525   */\n      dup6\n        /* \"#utility.yul\":1509:1515   */\n      dup3\n        /* \"#utility.yul\":1498:1507   */\n      dup7\n        /* \"#utility.yul\":1494:1516   */\n      add\n        /* \"#utility.yul\":1473:1526   */\n      tag_64\n      jump\t// in\n    tag_127:\n        /* \"#utility.yul\":1463:1526   */\n      swap3\n      pop\n        /* \"#utility.yul\":1419:1536   */\n      pop\n        /* \"#utility.yul\":1575:1577   */\n      0x20\n        /* \"#utility.yul\":1601:1654   */\n      tag_128\n        /* \"#utility.yul\":1646:1653   */\n      dup6\n        /* \"#utility.yul\":1637:1643   */\n      dup3\n        /* \"#utility.yul\":1626:1635   */\n      dup7\n        /* \"#utility.yul\":1622:1644   */\n      add\n        /* \"#utility.yul\":1601:1654   */\n      tag_67\n      jump\t// in\n    tag_128:\n        /* \"#utility.yul\":1591:1654   */\n      swap2\n      pop\n        /* \"#utility.yul\":1546:1664   */\n      pop\n        /* \"#utility.yul\":1197:1671   */\n      swap3\n      pop\n      swap3\n      swap1\n      pop\n      jump\t// out\n        /* \"#utility.yul\":1677:1776   */\n    tag_68:\n        /* \"#utility.yul\":1729:1735   */\n      0x00\n        /* \"#utility.yul\":1763:1768   */\n      dup2\n        /* \"#utility.yul\":1757:1769   */\n      mload\n        /* \"#utility.yul\":1747:1769   */\n      swap1\n      pop\n        /* \"#utility.yul\":1677:1776   */\n      swap2\n      swap1\n      pop\n      jump\t// out\n        /* \"#utility.yul\":1782:1951   */\n    tag_69:\n        /* \"#utility.yul\":1866:1877   */\n      0x00\n        /* \"#utility.yul\":1900:1906   */\n      dup3\n        /* \"#utility.yul\":1895:1898   */\n      dup3\n        /* \"#utility.yul\":1888:1907   */\n      mstore\n        /* \"#utility.yul\":1940:1944   */\n      0x20\n        /* \"#utility.yul\":1935:1938   */\n      dup3\n        /* \"#utility.yul\":1931:1945   */\n      add\n        /* \"#utility.yul\":1916:1945   */\n      swap1\n      pop\n        /* \"#utility.yul\":1782:1951   */\n      swap3\n      swap2\n      pop\n      pop\n      jump\t// out\n        /* \"#utility.yul\":1957:2096   */\n    tag_70:\n        /* \"#utility.yul\":2046:2052   */\n      dup3\n        /* \"#utility.yul\":2041:2044   */\n      dup2\n        /* \"#utility.yul\":2036:2039   */\n      dup4\n        /* \"#utility.yul\":2030:2053   */\n      mcopy\n        /* \"#utility.yul\":2087:2088   */\n      0x00\n        /* \"#utility.yul\":2078:2084   */\n      dup4\n        /* \"#utility.yul\":2073:2076   */\n      dup4\n        /* \"#utility.yul\":2069:2085   */\n      add\n        /* \"#utility.yul\":2062:2089   */\n      mstore\n        /* \"#utility.yul\":1957:2096   */\n      pop\n      pop\n      pop\n      jump\t// out\n        /* \"#utility.yul\":2102:2204   */\n    tag_71:\n        /* \"#utility.yul\":2143:2149   */\n      0x00\n        /* \"#utility.yul\":2194:2196   */\n      0x1f\n        /* \"#utility.yul\":2190:2197   */\n      not\n        /* \"#utility.yul\":2185:2187   */\n      0x1f\n        /* \"#utility.yul\":2178:2183   */\n      dup4\n        /* \"#utility.yul\":2174:2188   */\n      add\n        /* \"#utility.yul\":2170:2198   */\n      and\n        /* \"#utility.yul\":2160:2198   */\n      swap1\n      pop\n        /* \"#utility.yul\":2102:2204   */\n      swap2\n      swap1\n      pop\n      jump\t// out\n        /* \"#utility.yul\":2210:2587   */\n    tag_72:\n        /* \"#utility.yul\":2298:2301   */\n      0x00\n        /* \"#utility.yul\":2326:2365   */\n      tag_134\n        /* \"#utility.yul\":2359:2364   */\n      dup3\n        /* \"#utility.yul\":2326:2365   */\n      tag_68\n      jump\t// in\n    tag_134:\n        /* \"#utility.yul\":2381:2452   */\n      tag_135\n        /* \"#utility.yul\":2445:2451   */\n      dup2\n        /* \"#utility.yul\":2440:2443   */\n      dup6\n        /* \"#utility.yul\":2381:2452   */\n      tag_69\n      jump\t// in\n    tag_135:\n        /* \"#utility.yul\":2374:2452   */\n      swap4\n      pop\n        /* \"#utility.yul\":2461:2526   */\n      tag_136\n        /* \"#utility.yul\":2519:2525   */\n      dup2\n        /* \"#utility.yul\":2514:2517   */\n      dup6\n        /* \"#utility.yul\":2507:2511   */\n      0x20\n        /* \"#utility.yul\":2500:2505   */\n      dup7\n        /* \"#utility.yul\":2496:2512   */\n      add\n        /* \"#utility.yul\":2461:2526   */\n      tag_70\n      jump\t// in\n    tag_136:\n        /* \"#utility.yul\":2551:2580   */\n      tag_137\n        /* \"#utility.yul\":2573:2579   */\n      dup2\n        /* \"#utility.yul\":2551:2580   */\n      tag_71\n      jump\t// in\n    tag_137:\n        /* \"#utility.yul\":2546:2549   */\n      dup5\n        /* \"#utility.yul\":2542:2581   */\n      add\n        /* \"#utility.yul\":2535:2581   */\n      swap2\n      pop\n        /* \"#utility.yul\":2302:2587   */\n      pop\n        /* \"#utility.yul\":2210:2587   */\n      swap3\n      swap2\n      pop\n      pop\n      jump\t// out\n        /* \"#utility.yul\":2593:2906   */\n    tag_12:\n        /* \"#utility.yul\":2706:2710   */\n      0x00\n        /* \"#utility.yul\":2744:2746   */\n      0x20\n        /* \"#utility.yul\":2733:2742   */\n      dup3\n        /* \"#utility.yul\":2729:2747   */\n      add\n        /* \"#utility.yul\":2721:2747   */\n      swap1\n      pop\n        /* \"#utility.yul\":2793:2802   */\n      dup2\n        /* \"#utility.yul\":2787:2791   */\n      dup2\n        /* \"#utility.yul\":2783:2803   */\n      sub\n        /* \"#utility.yul\":2779:2780   */\n      0x00\n        /* \"#utility.yul\":2768:2777   */\n      dup4\n        /* \"#utility.yul\":2764:2781   */\n      add\n        /* \"#utility.yul\":2757:2804   */\n      mstore\n        /* \"#utility.yul\":2821:2899   */\n      tag_139\n        /* \"#utility.yul\":2894:2898   */\n      dup2\n        /* \"#utility.yul\":2885:2891   */\n      dup5\n        /* \"#utility.yul\":2821:2899   */\n      tag_72\n      jump\t// in\n    tag_139:\n        /* \"#utility.yul\":2813:2899   */\n      swap1\n      pop\n        /* \"#utility.yul\":2593:2906   */\n      swap3\n      swap2\n      pop\n      pop\n      jump\t// out\n        /* \"#utility.yul\":2912:3029   */\n    tag_73:\n        /* \"#utility.yul\":3021:3022   */\n      0x00\n        /* \"#utility.yul\":3018:3019   */\n      dup1\n        /* \"#utility.yul\":3011:3023   */\n      revert\n        /* \"#utility.yul\":3035:3152   */\n    tag_74:\n        /* \"#utility.yul\":3144:3145   */\n      0x00\n        /* \"#utility.yul\":3141:3142   */\n      dup1\n        /* \"#utility.yul\":3134:3146   */\n      revert\n        /* \"#utility.yul\":3158:3338   */\n    tag_75:\n        /* \"#utility.yul\":3206:3283   */\n      0x4e487b7100000000000000000000000000000000000000000000000000000000\n        /* \"#utility.yul\":3203:3204   */\n      0x00\n        /* \"#utility.yul\":3196:3284   */\n      mstore\n        /* \"#utility.yul\":3303:3307   */\n      0x41\n        /* \"#utility.yul\":3300:3301   */\n      0x04\n        /* \"#utility.yul\":3293:3308   */\n      mstore\n        /* \"#utility.yul\":3327:3331   */\n      0x24\n        /* \"#utility.yul\":3324:3325   */\n      0x00\n        /* \"#utility.yul\":3317:3332   */\n      revert\n        /* \"#utility.yul\":3344:3625   */\n    tag_76:\n        /* \"#utility.yul\":3427:3454   */\n      tag_144\n        /* \"#utility.yul\":3449:3453   */\n      dup3\n        /* \"#utility.yul\":3427:3454   */\n      tag_71\n      jump\t// in\n    tag_144:\n        /* \"#utility.yul\":3419:3425   */\n      dup2\n        /* \"#utility.yul\":3415:3455   */\n      add\n        /* \"#utility.yul\":3557:3563   */\n      dup2\n        /* \"#utility.yul\":3545:3555   */\n      dup2\n        /* \"#utility.yul\":3542:3564   */\n      lt\n        /* \"#utility.yul\":3521:3539   */\n      0xffffffffffffffff\n        /* \"#utility.yul\":3509:3519   */\n      dup3\n        /* \"#utility.yul\":3506:3540   */\n      gt\n        /* \"#utility.yul\":3503:3565   */\n      or\n        /* \"#utility.yul\":3500:3588   */\n      iszero\n      tag_145\n      jumpi\n        /* \"#utility.yul\":3568:3586   */\n      tag_146\n      tag_75\n      jump\t// in\n    tag_146:\n        /* \"#utility.yul\":3500:3588   */\n    tag_145:\n        /* \"#utility.yul\":3608:3618   */\n      dup1\n        /* \"#utility.yul\":3604:3606   */\n      0x40\n        /* \"#utility.yul\":3597:3619   */\n      mstore\n        /* \"#utility.yul\":3387:3625   */\n      pop\n        /* \"#utility.yul\":3344:3625   */\n      pop\n      pop\n      jump\t// out\n        /* \"#utility.yul\":3631:3760   */\n    tag_77:\n        /* \"#utility.yul\":3665:3671   */\n      0x00\n        /* \"#utility.yul\":3692:3712   */\n      tag_148\n      tag_58\n      jump\t// in\n    tag_148:\n        /* \"#utility.yul\":3682:3712   */\n      swap1\n      pop\n        /* \"#utility.yul\":3721:3754   */\n      tag_149\n        /* \"#utility.yul\":3749:3753   */\n      dup3\n        /* \"#utility.yul\":3741:3747   */\n      dup3\n        /* \"#utility.yul\":3721:3754   */\n      tag_76\n      jump\t// in\n    tag_149:\n        /* \"#utility.yul\":3631:3760   */\n      swap2\n      swap1\n      pop\n      jump\t// out\n        /* \"#utility.yul\":3766:4074   */\n    tag_78:\n        /* \"#utility.yul\":3828:3832   */\n      0x00\n        /* \"#utility.yul\":3918:3936   */\n      0xffffffffffffffff\n        /* \"#utility.yul\":3910:3916   */\n      dup3\n        /* \"#utility.yul\":3907:3937   */\n      gt\n        /* \"#utility.yul\":3904:3960   */\n      iszero\n      tag_151\n      jumpi\n        /* \"#utility.yul\":3940:3958   */\n      tag_152\n      tag_75\n      jump\t// in\n    tag_152:\n        /* \"#utility.yul\":3904:3960   */\n    tag_151:\n        /* \"#utility.yul\":3978:4007   */\n      tag_153\n        /* \"#utility.yul\":4000:4006   */\n      dup3\n        /* \"#utility.yul\":3978:4007   */\n      tag_71\n      jump\t// in\n    tag_153:\n        /* \"#utility.yul\":3970:4007   */\n      swap1\n      pop\n        /* \"#utility.yul\":4062:4066   */\n      0x20\n        /* \"#utility.yul\":4056:4060   */\n      dup2\n        /* \"#utility.yul\":4052:4067   */\n      add\n        /* \"#utility.yul\":4044:4067   */\n      swap1\n      pop\n        /* \"#utility.yul\":3766:4074   */\n      swap2\n      swap1\n      pop\n      jump\t// out\n        /* \"#utility.yul\":4080:4228   */\n    tag_79:\n        /* \"#utility.yul\":4178:4184   */\n      dup3\n        /* \"#utility.yul\":4173:4176   */\n      dup2\n        /* \"#utility.yul\":4168:4171   */\n      dup4\n        /* \"#utility.yul\":4155:4185   */\n      calldatacopy\n        /* \"#utility.yul\":4219:4220   */\n      0x00\n        /* \"#utility.yul\":4210:4216   */\n      dup4\n        /* \"#utility.yul\":4205:4208   */\n      dup4\n        /* \"#utility.yul\":4201:4217   */\n      add\n        /* \"#utility.yul\":4194:4221   */\n      mstore\n        /* \"#utility.yul\":4080:4228   */\n      pop\n      pop\n      pop\n      jump\t// out\n        /* \"#utility.yul\":4234:4659   */\n    tag_80:\n        /* \"#utility.yul\":4312:4317   */\n      0x00\n        /* \"#utility.yul\":4337:4403   */\n      tag_156\n        /* \"#utility.yul\":4353:4402   */\n      tag_157\n        /* \"#utility.yul\":4395:4401   */\n      dup5\n        /* \"#utility.yul\":4353:4402   */\n      tag_78\n      jump\t// in\n    tag_157:\n        /* \"#utility.yul\":4337:4403   */\n      tag_77\n      jump\t// in\n    tag_156:\n        /* \"#utility.yul\":4328:4403   */\n      swap1\n      pop\n        /* \"#utility.yul\":4426:4432   */\n      dup3\n        /* \"#utility.yul\":4419:4424   */\n      dup2\n        /* \"#utility.yul\":4412:4433   */\n      mstore\n        /* \"#utility.yul\":4464:4468   */\n      0x20\n        /* \"#utility.yul\":4457:4462   */\n      dup2\n        /* \"#utility.yul\":4453:4469   */\n      add\n        /* \"#utility.yul\":4502:4505   */\n      dup5\n        /* \"#utility.yul\":4493:4499   */\n      dup5\n        /* \"#utility.yul\":4488:4491   */\n      dup5\n        /* \"#utility.yul\":4484:4500   */\n      add\n        /* \"#utility.yul\":4481:4506   */\n      gt\n        /* \"#utility.yul\":4478:4590   */\n      iszero\n      tag_158\n      jumpi\n        /* \"#utility.yul\":4509:4588   */\n      tag_159\n      tag_74\n      jump\t// in\n    tag_159:\n        /* \"#utility.yul\":4478:4590   */\n    tag_158:\n        /* \"#utility.yul\":4599:4653   */\n      tag_160\n        /* \"#utility.yul\":4646:4652   */\n      dup5\n        /* \"#utility.yul\":4641:4644   */\n      dup3\n        /* \"#utility.yul\":4636:4639   */\n      dup6\n        /* \"#utility.yul\":4599:4653   */\n      tag_79\n      jump\t// in\n    tag_160:\n        /* \"#utility.yul\":4318:4659   */\n      pop\n        /* \"#utility.yul\":4234:4659   */\n      swap4\n      swap3\n      pop\n      pop\n      pop\n      jump\t// out\n        /* \"#utility.yul\":4679:5019   */\n    tag_81:\n        /* \"#utility.yul\":4735:4740   */\n      0x00\n        /* \"#utility.yul\":4784:4787   */\n      dup3\n        /* \"#utility.yul\":4777:4781   */\n      0x1f\n        /* \"#utility.yul\":4769:4775   */\n      dup4\n        /* \"#utility.yul\":4765:4782   */\n      add\n        /* \"#utility.yul\":4761:4788   */\n      slt\n        /* \"#utility.yul\":4751:4873   */\n      tag_162\n      jumpi\n        /* \"#utility.yul\":4792:4871   */\n      tag_163\n      tag_73\n      jump\t// in\n    tag_163:\n        /* \"#utility.yul\":4751:4873   */\n    tag_162:\n        /* \"#utility.yul\":4909:4915   */\n      dup2\n        /* \"#utility.yul\":4896:4916   */\n      calldataload\n        /* \"#utility.yul\":4934:5013   */\n      tag_164\n        /* \"#utility.yul\":5009:5012   */\n      dup5\n        /* \"#utility.yul\":5001:5007   */\n      dup3\n        /* \"#utility.yul\":4994:4998   */\n      0x20\n        /* \"#utility.yul\":4986:4992   */\n      dup7\n        /* \"#utility.yul\":4982:4999   */\n      add\n        /* \"#utility.yul\":4934:5013   */\n      tag_80\n      jump\t// in\n    tag_164:\n        /* \"#utility.yul\":4925:5013   */\n      swap2\n      pop\n        /* \"#utility.yul\":4741:5019   */\n      pop\n        /* \"#utility.yul\":4679:5019   */\n      swap3\n      swap2\n      pop\n      pop\n      jump\t// out\n        /* \"#utility.yul\":5025:5534   */\n    tag_15:\n        /* \"#utility.yul\":5094:5100   */\n      0x00\n        /* \"#utility.yul\":5143:5145   */\n      0x20\n        /* \"#utility.yul\":5131:5140   */\n      dup3\n        /* \"#utility.yul\":5122:5129   */\n      dup5\n        /* \"#utility.yul\":5118:5141   */\n      sub\n        /* \"#utility.yul\":5114:5146   */\n      slt\n        /* \"#utility.yul\":5111:5230   */\n      iszero\n      tag_166\n      jumpi\n        /* \"#utility.yul\":5149:5228   */\n      tag_167\n      tag_59\n      jump\t// in\n    tag_167:\n        /* \"#utility.yul\":5111:5230   */\n    tag_166:\n        /* \"#utility.yul\":5297:5298   */\n      0x00\n        /* \"#utility.yul\":5286:5295   */\n      dup3\n        /* \"#utility.yul\":5282:5299   */\n      add\n        /* \"#utility.yul\":5269:5300   */\n      calldataload\n        /* \"#utility.yul\":5327:5345   */\n      0xffffffffffffffff\n        /* \"#utility.yul\":5319:5325   */\n      dup2\n        /* \"#utility.yul\":5316:5346   */\n      gt\n        /* \"#utility.yul\":5313:5430   */\n      iszero\n      tag_168\n      jumpi\n        /* \"#utility.yul\":5349:5428   */\n      tag_169\n      tag_60\n      jump\t// in\n    tag_169:\n        /* \"#utility.yul\":5313:5430   */\n    tag_168:\n        /* \"#utility.yul\":5454:5517   */\n      tag_170\n        /* \"#utility.yul\":5509:5516   */\n      dup5\n        /* \"#utility.yul\":5500:5506   */\n      dup3\n        /* \"#utility.yul\":5489:5498   */\n      dup6\n        /* \"#utility.yul\":5485:5507   */\n      add\n        /* \"#utility.yul\":5454:5517   */\n      tag_81\n      jump\t// in\n    tag_170:\n        /* \"#utility.yul\":5444:5517   */\n      swap2\n      pop\n        /* \"#utility.yul\":5240:5527   */\n      pop\n        /* \"#utility.yul\":5025:5534   */\n      swap3\n      swap2\n      pop\n      pop\n      jump\t// out\n        /* \"#utility.yul\":5540:5869   */\n    tag_19:\n        /* \"#utility.yul\":5599:5605   */\n      0x00\n        /* \"#utility.yul\":5648:5650   */\n      0x20\n        /* \"#utility.yul\":5636:5645   */\n      dup3\n        /* \"#utility.yul\":5627:5634   */\n      dup5\n        /* \"#utility.yul\":5623:5646   */\n      sub\n        /* \"#utility.yul\":5619:5651   */\n      slt\n        /* \"#utility.yul\":5616:5735   */\n      iszero\n      tag_172\n      jumpi\n        /* \"#utility.yul\":5654:5733   */\n      tag_173\n      tag_59\n      jump\t// in\n    tag_173:\n        /* \"#utility.yul\":5616:5735   */\n    tag_172:\n        /* \"#utility.yul\":5774:5775   */\n      0x00\n        /* \"#utility.yul\":5799:5852   */\n      tag_174\n        /* \"#utility.yul\":5844:5851   */\n      dup5\n        /* \"#utility.yul\":5835:5841   */\n      dup3\n        /* \"#utility.yul\":5824:5833   */\n      dup6\n        /* \"#utility.yul\":5820:5842   */\n      add\n        /* \"#utility.yul\":5799:5852   */\n      tag_64\n      jump\t// in\n    tag_174:\n        /* \"#utility.yul\":5789:5852   */\n      swap2\n      pop\n        /* \"#utility.yul\":5745:5862   */\n      pop\n        /* \"#utility.yul\":5540:5869   */\n      swap3\n      swap2\n      pop\n      pop\n      jump\t// out\n        /* \"#utility.yul\":5875:5999   */\n    tag_82:\n        /* \"#utility.yul\":5952:5958   */\n      0x00\n        /* \"#utility.yul\":5986:5991   */\n      dup2\n        /* \"#utility.yul\":5980:5992   */\n      mload\n        /* \"#utility.yul\":5970:5992   */\n      swap1\n      pop\n        /* \"#utility.yul\":5875:5999   */\n      swap2\n      swap1\n      pop\n      jump\t// out\n        /* \"#utility.yul\":6005:6199   */\n    tag_83:\n        /* \"#utility.yul\":6114:6125   */\n      0x00\n        /* \"#utility.yul\":6148:6154   */\n      dup3\n        /* \"#utility.yul\":6143:6146   */\n      dup3\n        /* \"#utility.yul\":6136:6155   */\n      mstore\n        /* \"#utility.yul\":6188:6192   */\n      0x20\n        /* \"#utility.yul\":6183:6186   */\n      dup3\n        /* \"#utility.yul\":6179:6193   */\n      add\n        /* \"#utility.yul\":6164:6193   */\n      swap1\n      pop\n        /* \"#utility.yul\":6005:6199   */\n      swap3\n      swap2\n      pop\n      pop\n      jump\t// out\n        /* \"#utility.yul\":6205:6347   */\n    tag_84:\n        /* \"#utility.yul\":6282:6286   */\n      0x00\n        /* \"#utility.yul\":6305:6308   */\n      dup2\n        /* \"#utility.yul\":6297:6308   */\n      swap1\n      pop\n        /* \"#utility.yul\":6335:6339   */\n      0x20\n        /* \"#utility.yul\":6330:6333   */\n      dup3\n        /* \"#utility.yul\":6326:6340   */\n      add\n        /* \"#utility.yul\":6318:6340   */\n      swap1\n      pop\n        /* \"#utility.yul\":6205:6347   */\n      swap2\n      swap1\n      pop\n      jump\t// out\n        /* \"#utility.yul\":6353:6512   */\n    tag_85:\n        /* \"#utility.yul\":6427:6438   */\n      0x00\n        /* \"#utility.yul\":6461:6467   */\n      dup3\n        /* \"#utility.yul\":6456:6459   */\n      dup3\n        /* \"#utility.yul\":6449:6468   */\n      mstore\n        /* \"#utility.yul\":6501:6505   */\n      0x20\n        /* \"#utility.yul\":6496:6499   */\n      dup3\n        /* \"#utility.yul\":6492:6506   */\n      add\n        /* \"#utility.yul\":6477:6506   */\n      swap1\n      pop\n        /* \"#utility.yul\":6353:6512   */\n      swap3\n      swap2\n      pop\n      pop\n      jump\t// out\n        /* \"#utility.yul\":6518:6875   */\n    tag_86:\n        /* \"#utility.yul\":6596:6599   */\n      0x00\n        /* \"#utility.yul\":6624:6663   */\n      tag_180\n        /* \"#utility.yul\":6657:6662   */\n      dup3\n        /* \"#utility.yul\":6624:6663   */\n      tag_68\n      jump\t// in\n    tag_180:\n        /* \"#utility.yul\":6679:6740   */\n      tag_181\n        /* \"#utility.yul\":6733:6739   */\n      dup2\n        /* \"#utility.yul\":6728:6731   */\n      dup6\n        /* \"#utility.yul\":6679:6740   */\n      tag_85\n      jump\t// in\n    tag_181:\n        /* \"#utility.yul\":6672:6740   */\n      swap4\n      pop\n        /* \"#utility.yul\":6749:6814   */\n      tag_182\n        /* \"#utility.yul\":6807:6813   */\n      dup2\n        /* \"#utility.yul\":6802:6805   */\n      dup6\n        /* \"#utility.yul\":6795:6799   */\n      0x20\n        /* \"#utility.yul\":6788:6793   */\n      dup7\n        /* \"#utility.yul\":6784:6800   */\n      add\n        /* \"#utility.yul\":6749:6814   */\n      tag_70\n      jump\t// in\n    tag_182:\n        /* \"#utility.yul\":6839:6868   */\n      tag_183\n        /* \"#utility.yul\":6861:6867   */\n      dup2\n        /* \"#utility.yul\":6839:6868   */\n      tag_71\n      jump\t// in\n    tag_183:\n        /* \"#utility.yul\":6834:6837   */\n      dup5\n        /* \"#utility.yul\":6830:6869   */\n      add\n        /* \"#utility.yul\":6823:6869   */\n      swap2\n      pop\n        /* \"#utility.yul\":6600:6875   */\n      pop\n        /* \"#utility.yul\":6518:6875   */\n      swap3\n      swap2\n      pop\n      pop\n      jump\t// out\n        /* \"#utility.yul\":6881:7077   */\n    tag_87:\n        /* \"#utility.yul\":6970:6980   */\n      0x00\n        /* \"#utility.yul\":7005:7071   */\n      tag_185\n        /* \"#utility.yul\":7067:7070   */\n      dup4\n        /* \"#utility.yul\":7059:7065   */\n      dup4\n        /* \"#utility.yul\":7005:7071   */\n      tag_86\n      jump\t// in\n    tag_185:\n        /* \"#utility.yul\":6991:7071   */\n      swap1\n      pop\n        /* \"#utility.yul\":6881:7077   */\n      swap3\n      swap2\n      pop\n      pop\n      jump\t// out\n        /* \"#utility.yul\":7083:7206   */\n    tag_88:\n        /* \"#utility.yul\":7163:7167   */\n      0x00\n        /* \"#utility.yul\":7195:7199   */\n      0x20\n        /* \"#utility.yul\":7190:7193   */\n      dup3\n        /* \"#utility.yul\":7186:7200   */\n      add\n        /* \"#utility.yul\":7178:7200   */\n      swap1\n      pop\n        /* \"#utility.yul\":7083:7206   */\n      swap2\n      swap1\n      pop\n      jump\t// out\n        /* \"#utility.yul\":7240:8231   */\n    tag_89:\n        /* \"#utility.yul\":7379:7382   */\n      0x00\n        /* \"#utility.yul\":7408:7472   */\n      tag_188\n        /* \"#utility.yul\":7466:7471   */\n      dup3\n        /* \"#utility.yul\":7408:7472   */\n      tag_82\n      jump\t// in\n    tag_188:\n        /* \"#utility.yul\":7488:7584   */\n      tag_189\n        /* \"#utility.yul\":7577:7583   */\n      dup2\n        /* \"#utility.yul\":7572:7575   */\n      dup6\n        /* \"#utility.yul\":7488:7584   */\n      tag_83\n      jump\t// in\n    tag_189:\n        /* \"#utility.yul\":7481:7584   */\n      swap4\n      pop\n        /* \"#utility.yul\":7610:7613   */\n      dup4\n        /* \"#utility.yul\":7655:7659   */\n      0x20\n        /* \"#utility.yul\":7647:7653   */\n      dup3\n        /* \"#utility.yul\":7643:7660   */\n      mul\n        /* \"#utility.yul\":7638:7641   */\n      dup6\n        /* \"#utility.yul\":7634:7661   */\n      add\n        /* \"#utility.yul\":7685:7751   */\n      tag_190\n        /* \"#utility.yul\":7745:7750   */\n      dup6\n        /* \"#utility.yul\":7685:7751   */\n      tag_84\n      jump\t// in\n    tag_190:\n        /* \"#utility.yul\":7774:7781   */\n      dup1\n        /* \"#utility.yul\":7805:7806   */\n      0x00\n        /* \"#utility.yul\":7790:8186   */\n    tag_191:\n        /* \"#utility.yul\":7815:7821   */\n      dup6\n        /* \"#utility.yul\":7812:7813   */\n      dup2\n        /* \"#utility.yul\":7809:7822   */\n      lt\n        /* \"#utility.yul\":7790:8186   */\n      iszero\n      tag_193\n      jumpi\n        /* \"#utility.yul\":7886:7895   */\n      dup5\n        /* \"#utility.yul\":7880:7884   */\n      dup5\n        /* \"#utility.yul\":7876:7896   */\n      sub\n        /* \"#utility.yul\":7871:7874   */\n      dup10\n        /* \"#utility.yul\":7864:7897   */\n      mstore\n        /* \"#utility.yul\":7937:7943   */\n      dup2\n        /* \"#utility.yul\":7931:7944   */\n      mload\n        /* \"#utility.yul\":7965:8049   */\n      tag_194\n        /* \"#utility.yul\":8044:8048   */\n      dup6\n        /* \"#utility.yul\":8029:8042   */\n      dup3\n        /* \"#utility.yul\":7965:8049   */\n      tag_87\n      jump\t// in\n    tag_194:\n        /* \"#utility.yul\":7957:8049   */\n      swap5\n      pop\n        /* \"#utility.yul\":8072:8142   */\n      tag_195\n        /* \"#utility.yul\":8135:8141   */\n      dup4\n        /* \"#utility.yul\":8072:8142   */\n      tag_88\n      jump\t// in\n    tag_195:\n        /* \"#utility.yul\":8062:8142   */\n      swap3\n      pop\n        /* \"#utility.yul\":8171:8175   */\n      0x20\n        /* \"#utility.yul\":8166:8169   */\n      dup11\n        /* \"#utility.yul\":8162:8176   */\n      add\n        /* \"#utility.yul\":8155:8176   */\n      swap10\n      pop\n        /* \"#utility.yul\":7850:8186   */\n      pop\n        /* \"#utility.yul\":7837:7838   */\n      0x01\n        /* \"#utility.yul\":7834:7835   */\n      dup2\n        /* \"#utility.yul\":7830:7839   */\n      add\n        /* \"#utility.yul\":7825:7839   */\n      swap1\n      pop\n        /* \"#utility.yul\":7790:8186   */\n      jump(tag_191)\n    tag_193:\n        /* \"#utility.yul\":7794:7808   */\n      pop\n        /* \"#utility.yul\":8202:8206   */\n      dup3\n        /* \"#utility.yul\":8195:8206   */\n      swap8\n      pop\n        /* \"#utility.yul\":8222:8225   */\n      dup8\n        /* \"#utility.yul\":8215:8225   */\n      swap6\n      pop\n        /* \"#utility.yul\":7384:8231   */\n      pop\n      pop\n      pop\n      pop\n      pop\n        /* \"#utility.yul\":7240:8231   */\n      swap3\n      swap2\n      pop\n      pop\n      jump\t// out\n        /* \"#utility.yul\":8237:8650   */\n    tag_22:\n        /* \"#utility.yul\":8400:8404   */\n      0x00\n        /* \"#utility.yul\":8438:8440   */\n      0x20\n        /* \"#utility.yul\":8427:8436   */\n      dup3\n        /* \"#utility.yul\":8423:8441   */\n      add\n        /* \"#utility.yul\":8415:8441   */\n      swap1\n      pop\n        /* \"#utility.yul\":8487:8496   */\n      dup2\n        /* \"#utility.yul\":8481:8485   */\n      dup2\n        /* \"#utility.yul\":8477:8497   */\n      sub\n        /* \"#utility.yul\":8473:8474   */\n      0x00\n        /* \"#utility.yul\":8462:8471   */\n      dup4\n        /* \"#utility.yul\":8458:8475   */\n      add\n        /* \"#utility.yul\":8451:8498   */\n      mstore\n        /* \"#utility.yul\":8515:8643   */\n      tag_197\n        /* \"#utility.yul\":8638:8642   */\n      dup2\n        /* \"#utility.yul\":8629:8635   */\n      dup5\n        /* \"#utility.yul\":8515:8643   */\n      tag_89\n      jump\t// in\n    tag_197:\n        /* \"#utility.yul\":8507:8643   */\n      swap1\n      pop\n        /* \"#utility.yul\":8237:8650   */\n      swap3\n      swap2\n      pop\n      pop\n      jump\t// out\n        /* \"#utility.yul\":8656:8836   */\n    tag_90:\n        /* \"#utility.yul\":8704:8781   */\n      0x4e487b7100000000000000000000000000000000000000000000000000000000\n        /* \"#utility.yul\":8701:8702   */\n      0x00\n        /* \"#utility.yul\":8694:8782   */\n      mstore\n        /* \"#utility.yul\":8801:8805   */\n      0x22\n        /* \"#utility.yul\":8798:8799   */\n      0x04\n        /* \"#utility.yul\":8791:8806   */\n      mstore\n        /* \"#utility.yul\":8825:8829   */\n      0x24\n        /* \"#utility.yul\":8822:8823   */\n      0x00\n        /* \"#utility.yul\":8815:8830   */\n      revert\n        /* \"#utility.yul\":8842:9162   */\n    tag_30:\n        /* \"#utility.yul\":8886:8892   */\n      0x00\n        /* \"#utility.yul\":8923:8924   */\n      0x02\n        /* \"#utility.yul\":8917:8921   */\n      dup3\n        /* \"#utility.yul\":8913:8925   */\n      div\n        /* \"#utility.yul\":8903:8925   */\n      swap1\n      pop\n        /* \"#utility.yul\":8970:8971   */\n      0x01\n        /* \"#utility.yul\":8964:8968   */\n      dup3\n        /* \"#utility.yul\":8960:8972   */\n      and\n        /* \"#utility.yul\":8991:9009   */\n      dup1\n        /* \"#utility.yul\":8981:9062   */\n      tag_200\n      jumpi\n        /* \"#utility.yul\":9047:9051   */\n      0x7f\n        /* \"#utility.yul\":9039:9045   */\n      dup3\n        /* \"#utility.yul\":9035:9052   */\n      and\n        /* \"#utility.yul\":9025:9052   */\n      swap2\n      pop\n        /* \"#utility.yul\":8981:9062   */\n    tag_200:\n        /* \"#utility.yul\":9109:9111   */\n      0x20\n        /* \"#utility.yul\":9101:9107   */\n      dup3\n        /* \"#utility.yul\":9098:9112   */\n      lt\n        /* \"#utility.yul\":9078:9096   */\n      dup2\n        /* \"#utility.yul\":9075:9113   */\n      sub\n        /* \"#utility.yul\":9072:9156   */\n      tag_201\n      jumpi\n        /* \"#utility.yul\":9128:9146   */\n      tag_202\n      tag_90\n      jump\t// in\n    tag_202:\n        /* \"#utility.yul\":9072:9156   */\n    tag_201:\n        /* \"#utility.yul\":8893:9162   */\n      pop\n        /* \"#utility.yul\":8842:9162   */\n      swap2\n      swap1\n      pop\n      jump\t// out\n        /* \"#utility.yul\":9168:9309   */\n    tag_91:\n        /* \"#utility.yul\":9217:9221   */\n      0x00\n        /* \"#utility.yul\":9240:9243   */\n      dup2\n        /* \"#utility.yul\":9232:9243   */\n      swap1\n      pop\n        /* \"#utility.yul\":9263:9266   */\n      dup2\n        /* \"#utility.yul\":9260:9261   */\n      0x00\n        /* \"#utility.yul\":9253:9267   */\n      mstore\n        /* \"#utility.yul\":9297:9301   */\n      0x20\n        /* \"#utility.yul\":9294:9295   */\n      0x00\n        /* \"#utility.yul\":9284:9302   */\n      keccak256\n        /* \"#utility.yul\":9276:9302   */\n      swap1\n      pop\n        /* \"#utility.yul\":9168:9309   */\n      swap2\n      swap1\n      pop\n      jump\t// out\n        /* \"#utility.yul\":9315:9408   */\n    tag_92:\n        /* \"#utility.yul\":9352:9358   */\n      0x00\n        /* \"#utility.yul\":9399:9401   */\n      0x20\n        /* \"#utility.yul\":9394:9396   */\n      0x1f\n        /* \"#utility.yul\":9387:9392   */\n      dup4\n        /* \"#utility.yul\":9383:9397   */\n      add\n        /* \"#utility.yul\":9379:9402   */\n      div\n        /* \"#utility.yul\":9369:9402   */\n      swap1\n      pop\n        /* \"#utility.yul\":9315:9408   */\n      swap2\n      swap1\n      pop\n      jump\t// out\n        /* \"#utility.yul\":9414:9521   */\n    tag_93:\n        /* \"#utility.yul\":9458:9466   */\n      0x00\n        /* \"#utility.yul\":9508:9513   */\n      dup3\n        /* \"#utility.yul\":9502:9506   */\n      dup3\n        /* \"#utility.yul\":9498:9514   */\n      shl\n        /* \"#utility.yul\":9477:9514   */\n      swap1\n      pop\n        /* \"#utility.yul\":9414:9521   */\n      swap3\n      swap2\n      pop\n      pop\n      jump\t// out\n        /* \"#utility.yul\":9527:9920   */\n    tag_94:\n        /* \"#utility.yul\":9596:9602   */\n      0x00\n        /* \"#utility.yul\":9646:9647   */\n      0x08\n        /* \"#utility.yul\":9634:9644   */\n      dup4\n        /* \"#utility.yul\":9630:9648   */\n      mul\n        /* \"#utility.yul\":9669:9766   */\n      tag_207\n        /* \"#utility.yul\":9699:9765   */\n      0xffffffffffffffffffffffffffffffffffffffffffffffffffffffffffffffff\n        /* \"#utility.yul\":9688:9697   */\n      dup3\n        /* \"#utility.yul\":9669:9766   */\n      tag_93\n      jump\t// in\n    tag_207:\n        /* \"#utility.yul\":9787:9826   */\n      tag_208\n        /* \"#utility.yul\":9817:9825   */\n      dup7\n        /* \"#utility.yul\":9806:9815   */\n      dup4\n        /* \"#utility.yul\":9787:9826   */\n      tag_93\n      jump\t// in\n    tag_208:\n        /* \"#utility.yul\":9775:9826   */\n      swap6\n      pop\n        /* \"#utility.yul\":9859:9863   */\n      dup1\n        /* \"#utility.yul\":9855:9864   */\n      not\n        /* \"#utility.yul\":9848:9853   */\n      dup5\n        /* \"#utility.yul\":9844:9865   */\n      and\n        /* \"#utility.yul\":9835:9865   */\n      swap4\n      pop\n        /* \"#utility.yul\":9908:9912   */\n      dup1\n        /* \"#utility.yul\":9898:9906   */\n      dup7\n        /* \"#utility.yul\":9894:9913   */\n      and\n        /* \"#utility.yul\":9887:9892   */\n      dup5\n        /* \"#utility.yul\":9884:9914   */\n      or\n        /* \"#utility.yul\":9874:9914   */\n      swap3\n      pop\n        /* \"#utility.yul\":9603:9920   */\n      pop\n      pop\n        /* \"#utility.yul\":9527:9920   */\n      swap4\n      swap3\n      pop\n      pop\n      pop\n      jump\t// out\n        /* \"#utility.yul\":9926:9986   */\n    tag_95:\n        /* \"#utility.yul\":9954:9957   */\n      0x00\n        /* \"#utility.yul\":9975:9980   */\n      dup2\n        /* \"#utility.yul\":9968:9980   */\n      swap1\n      pop\n        /* \"#utility.yul\":9926:9986   */\n      swap2\n      swap1\n      pop\n      jump\t// out\n        /* \"#utility.yul\":9992:10134   */\n    tag_96:\n        /* \"#utility.yul\":10042:10051   */\n      0x00\n        /* \"#utility.yul\":10075:10128   */\n      tag_211\n        /* \"#utility.yul\":10093:10127   */\n      tag_212\n        /* \"#utility.yul\":10102:10126   */\n      tag_213\n        /* \"#utility.yul\":10120:10125   */\n      dup5\n        /* \"#utility.yul\":10102:10126   */\n      tag_65\n      jump\t// in\n    tag_213:\n        /* \"#utility.yul\":10093:10127   */\n      tag_95\n      jump\t// in\n    tag_212:\n        /* \"#utility.yul\":10075:10128   */\n      tag_65\n      jump\t// in\n    tag_211:\n        /* \"#utility.yul\":10062:10128   */\n      swap1\n      pop\n        /* \"#utility.yul\":9992:10134   */\n      swap2\n      swap1\n      pop\n      jump\t// out\n        /* \"#utility.yul\":10140:10215   */\n    tag_97:\n        /* \"#utility.yul\":10183:10186   */\n      0x00\n        /* \"#utility.yul\":10204:10209   */\n      dup2\n        /* \"#utility.yul\":10197:10209   */\n      swap1\n      pop\n        /* \"#utility.yul\":10140:10215   */\n      swap2\n      swap1\n      pop\n      jump\t// out\n        /* \"#utility.yul\":10221:10490   */\n    tag_98:\n        /* \"#utility.yul\":10331:10370   */\n      tag_216\n        /* \"#utility.yul\":10362:10369   */\n      dup4\n        /* \"#utility.yul\":10331:10370   */\n      tag_96\n      jump\t// in\n    tag_216:\n        /* \"#utility.yul\":10392:10483   */\n      tag_217\n        /* \"#utility.yul\":10441:10482   */\n      tag_218\n        /* \"#utility.yul\":10465:10481   */\n      dup3\n        /* \"#utility.yul\":10441:10482   */\n      tag_97\n      jump\t// in\n    tag_218:\n        /* \"#utility.yul\":10433:10439   */\n      dup5\n        /* \"#utility.yul\":10426:10430   */\n      dup5\n        /* \"#utility.yul\":10420:10431   */\n      sload\n        /* \"#utility.yul\":10392:10483   */\n      tag_94\n      jump\t// in\n    tag_217:\n        /* \"#utility.yul\":10386:10390   */\n      dup3\n        /* \"#utility.yul\":10379:10484   */\n      sstore\n        /* \"#utility.yul\":10297:10490   */\n      pop\n        /* \"#utility.yul\":10221:10490   */\n      pop\n      pop\n      pop\n      jump\t// out\n        /* \"#utility.yul\":10496:10569   */\n    tag_99:\n        /* \"#utility.yul\":10541:10544   */\n      0x00\n        /* \"#utility.yul\":10496:10569   */\n      swap1\n      jump\t// out\n        /* \"#utility.yul\":10575:10764   */\n    tag_100:\n        /* \"#utility.yul\":10652:10684   */\n      tag_221\n      tag_99\n      jump\t// in\n    tag_221:\n        /* \"#utility.yul\":10693:10758   */\n      tag_222\n        /* \"#utility.yul\":10751:10757   */\n      dup2\n        /* \"#utility.yul\":10743:10749   */\n      dup5\n        /* \"#utility.yul\":10737:10741   */\n      dup5\n        /* \"#utility.yul\":10693:10758   */\n      tag_98\n      jump\t// in\n    tag_222:\n        /* \"#utility.yul\":10628:10764   */\n      pop\n        /* \"#utility.yul\":10575:10764   */\n      pop\n      pop\n      jump\t// out\n        /* \"#utility.yul\":10770:10956   */\n    tag_101:\n        /* \"#utility.yul\":10830:10950   */\n    tag_224:\n        /* \"#utility.yul\":10847:10850   */\n      dup2\n        /* \"#utility.yul\":10840:10845   */\n      dup2\n        /* \"#utility.yul\":10837:10851   */\n      lt\n        /* \"#utility.yul\":10830:10950   */\n      iszero\n      tag_226\n      jumpi\n        /* \"#utility.yul\":10901:10940   */\n      tag_227\n        /* \"#utility.yul\":10938:10939   */\n      0x00\n        /* \"#utility.yul\":10931:10936   */\n      dup3\n        /* \"#utility.yul\":10901:10940   */\n      tag_100\n      jump\t// in\n    tag_227:\n        /* \"#utility.yul\":10874:10875   */\n      0x01\n        /* \"#utility.yul\":10867:10872   */\n      dup2\n        /* \"#utility.yul\":10863:10876   */\n      add\n        /* \"#utility.yul\":10854:10876   */\n      swap1\n      pop\n        /* \"#utility.yul\":10830:10950   */\n      jump(tag_224)\n    tag_226:\n        /* \"#utility.yul\":10770:10956   */\n      pop\n      pop\n      jump\t// out\n        /* \"#utility.yul\":10962:11505   */\n    tag_102:\n        /* \"#utility.yul\":11063:11065   */\n      0x1f\n        /* \"#utility.yul\":11058:11061   */\n      dup3\n        /* \"#utility.yul\":11055:11066   */\n      gt\n        /* \"#utility.yul\":11052:11498   */\n      iszero\n      tag_229\n      jumpi\n        /* \"#utility.yul\":11097:11135   */\n      tag_230\n        /* \"#utility.yul\":11129:11134   */\n      dup2\n        /* \"#utility.yul\":11097:11135   */\n      tag_91\n      jump\t// in\n    tag_230:\n        /* \"#utility.yul\":11181:11210   */\n      tag_231\n        /* \"#utility.yul\":11199:11209   */\n      dup5\n        /* \"#utility.yul\":11181:11210   */\n      tag_92\n      jump\t// in\n    tag_231:\n        /* \"#utility.yul\":11171:11179   */\n      dup2\n        /* \"#utility.yul\":11167:11211   */\n      add\n        /* \"#utility.yul\":11364:11366   */\n      0x20\n        /* \"#utility.yul\":11352:11362   */\n      dup6\n        /* \"#utility.yul\":11349:11367   */\n      lt\n        /* \"#utility.yul\":11346:11395   */\n      iszero\n      tag_232\n      jumpi\n        /* \"#utility.yul\":11385:11393   */\n      dup2\n        /* \"#utility.yul\":11370:11393   */\n      swap1\n      pop\n        /* \"#utility.yul\":11346:11395   */\n    tag_232:\n        /* \"#utility.yul\":11408:11488   */\n      tag_233\n        /* \"#utility.yul\":11464:11486   */\n      tag_234\n        /* \"#utility.yul\":11482:11485   */\n      dup6\n        /* \"#utility.yul\":11464:11486   */\n      tag_92\n      jump\t// in\n    tag_234:\n        /* \"#utility.yul\":11454:11462   */\n      dup4\n        /* \"#utility.yul\":11450:11487   */\n      add\n        /* \"#utility.yul\":11437:11448   */\n      dup3\n        /* \"#utility.yul\":11408:11488   */\n      tag_101\n      jump\t// in\n    tag_233:\n        /* \"#utility.yul\":11067:11498   */\n      pop\n      pop\n        /* \"#utility.yul\":11052:11498   */\n    tag_229:\n        /* \"#utility.yul\":10962:11505   */\n      pop\n      pop\n      pop\n      jump\t// out\n        /* \"#utility.yul\":11511:11628   */\n    tag_103:\n        /* \"#utility.yul\":11565:11573   */\n      0x00\n        /* \"#utility.yul\":11615:11620   */\n      dup3\n        /* \"#utility.yul\":11609:11613   */\n      dup3\n        /* \"#utility.yul\":11605:11621   */\n      shr\n        /* \"#utility.yul\":11584:11621   */\n      swap1\n      pop\n        /* \"#utility.yul\":11511:11628   */\n      swap3\n      swap2\n      pop\n      pop\n      jump\t// out\n        /* \"#utility.yul\":11634:11803   */\n    tag_104:\n        /* \"#utility.yul\":11678:11684   */\n      0x00\n        /* \"#utility.yul\":11711:11762   */\n      tag_237\n        /* \"#utility.yul\":11759:11760   */\n      0x00\n        /* \"#utility.yul\":11755:11761   */\n      not\n        /* \"#utility.yul\":11747:11752   */\n      dup5\n        /* \"#utility.yul\":11744:11745   */\n      0x08\n        /* \"#utility.yul\":11740:11753   */\n      mul\n        /* \"#utility.yul\":11711:11762   */\n      tag_103\n      jump\t// in\n    tag_237:\n        /* \"#utility.yul\":11707:11763   */\n      not\n        /* \"#utility.yul\":11792:11796   */\n      dup1\n        /* \"#utility.yul\":11786:11790   */\n      dup4\n        /* \"#utility.yul\":11782:11797   */\n      and\n        /* \"#utility.yul\":11772:11797   */\n      swap2\n      pop\n        /* \"#utility.yul\":11685:11803   */\n      pop\n        /* \"#utility.yul\":11634:11803   */\n      swap3\n      swap2\n      pop\n      pop\n      jump\t// out\n        /* \"#utility.yul\":11808:12103   */\n    tag_105:\n        /* \"#utility.yul\":11884:11888   */\n      0x00\n        /* \"#utility.yul\":12030:12059   */\n      tag_239\n        /* \"#utility.yul\":12055:12058   */\n      dup4\n        /* \"#utility.yul\":12049:12053   */\n      dup4\n        /* \"#utility.yul\":12030:12059   */\n      tag_104\n      jump\t// in\n    tag_239:\n        /* \"#utility.yul\":12022:12059   */\n      swap2\n      pop\n        /* \"#utility.yul\":12092:12095   */\n      dup3\n        /* \"#utility.yul\":12089:12090   */\n      0x02\n        /* \"#utility.yul\":12085:12096   */\n      mul\n        /* \"#utility.yul\":12079:12083   */\n      dup3\n        /* \"#utility.yul\":12076:12097   */\n      or\n        /* \"#utility.yul\":12068:12097   */\n      swap1\n      pop\n        /* \"#utility.yul\":11808:12103   */\n      swap3\n      swap2\n      pop\n      pop\n      jump\t// out\n        /* \"#utility.yul\":12108:13503   */\n    tag_38:\n        /* \"#utility.yul\":12225:12262   */\n      tag_241\n        /* \"#utility.yul\":12258:12261   */\n      dup3\n        /* \"#utility.yul\":12225:12262   */\n      tag_68\n      jump\t// in\n    tag_241:\n        /* \"#utility.yul\":12327:12345   */\n      0xffffffffffffffff\n        /* \"#utility.yul\":12319:12325   */\n      dup2\n        /* \"#utility.yul\":12316:12346   */\n      gt\n        /* \"#utility.yul\":12313:12369   */\n      iszero\n      tag_242\n      jumpi\n        /* \"#utility.yul\":12349:12367   */\n      tag_243\n      tag_75\n      jump\t// in\n    tag_243:\n        /* \"#utility.yul\":12313:12369   */\n    tag_242:\n        /* \"#utility.yul\":12393:12431   */\n      tag_244\n        /* \"#utility.yul\":12425:12429   */\n      dup3\n        /* \"#utility.yul\":12419:12430   */\n      sload\n        /* \"#utility.yul\":12393:12431   */\n      tag_30\n      jump\t// in\n    tag_244:\n        /* \"#utility.yul\":12478:12545   */\n      tag_245\n        /* \"#utility.yul\":12538:12544   */\n      dup3\n        /* \"#utility.yul\":12530:12536   */\n      dup3\n        /* \"#utility.yul\":12524:12528   */\n      dup6\n        /* \"#utility.yul\":12478:12545   */\n      tag_102\n      jump\t// in\n    tag_245:\n        /* \"#utility.yul\":12572:12573   */\n      0x00\n        /* \"#utility.yul\":12596:12600   */\n      0x20\n        /* \"#utility.yul\":12583:12600   */\n      swap1\n      pop\n        /* \"#utility.yul\":12628:12630   */\n      0x1f\n        /* \"#utility.yul\":12620:12626   */\n      dup4\n        /* \"#utility.yul\":12617:12631   */\n      gt\n        /* \"#utility.yul\":12645:12646   */\n      0x01\n        /* \"#utility.yul\":12640:13258   */\n      dup2\n      eq\n      tag_247\n      jumpi\n        /* \"#utility.yul\":13302:13303   */\n      0x00\n        /* \"#utility.yul\":13319:13325   */\n      dup5\n        /* \"#utility.yul\":13316:13393   */\n      iszero\n      tag_248\n      jumpi\n        /* \"#utility.yul\":13368:13377   */\n      dup3\n        /* \"#utility.yul\":13363:13366   */\n      dup8\n        /* \"#utility.yul\":13359:13378   */\n      add\n        /* \"#utility.yul\":13353:13379   */\n      mload\n        /* \"#utility.yul\":13344:13379   */\n      swap1\n      pop\n        /* \"#utility.yul\":13316:13393   */\n    tag_248:\n        /* \"#utility.yul\":13419:13486   */\n      tag_249\n        /* \"#utility.yul\":13479:13485   */\n      dup6\n        /* \"#utility.yul\":13472:13477   */\n      dup3\n        /* \"#utility.yul\":13419:13486   */\n      tag_105\n      jump\t// in\n    tag_249:\n        /* \"#utility.yul\":13413:13417   */\n      dup7\n        /* \"#utility.yul\":13406:13487   */\n      sstore\n        /* \"#utility.yul\":13275:13497   */\n      pop\n        /* \"#utility.yul\":12610:13497   */\n      jump(tag_246)\n        /* \"#utility.yul\":12640:13258   */\n    tag_247:\n        /* \"#utility.yul\":12692:12696   */\n      0x1f\n        /* \"#utility.yul\":12688:12697   */\n      not\n        /* \"#utility.yul\":12680:12686   */\n      dup5\n        /* \"#utility.yul\":12676:12698   */\n      and\n        /* \"#utility.yul\":12726:12763   */\n      tag_250\n        /* \"#utility.yul\":12758:12762   */\n      dup7\n        /* \"#utility.yul\":12726:12763   */\n      tag_91\n      jump\t// in\n    tag_250:\n        /* \"#utility.yul\":12785:12786   */\n      0x00\n        /* \"#utility.yul\":12799:13007   */\n    tag_251:\n        /* \"#utility.yul\":12813:12820   */\n      dup3\n        /* \"#utility.yul\":12810:12811   */\n      dup2\n        /* \"#utility.yul\":12807:12821   */\n      lt\n        /* \"#utility.yul\":12799:13007   */\n      iszero\n      tag_253\n      jumpi\n        /* \"#utility.yul\":12892:12901   */\n      dup5\n        /* \"#utility.yul\":12887:12890   */\n      dup10\n        /* \"#utility.yul\":12883:12902   */\n      add\n        /* \"#utility.yul\":12877:12903   */\n      mload\n        /* \"#utility.yul\":12869:12875   */\n      dup3\n        /* \"#utility.yul\":12862:12904   */\n      sstore\n        /* \"#utility.yul\":12943:12944   */\n      0x01\n        /* \"#utility.yul\":12935:12941   */\n      dup3\n        /* \"#utility.yul\":12931:12945   */\n      add\n        /* \"#utility.yul\":12921:12945   */\n      swap2\n      pop\n        /* \"#utility.yul\":12990:12992   */\n      0x20\n        /* \"#utility.yul\":12979:12988   */\n      dup6\n        /* \"#utility.yul\":12975:12993   */\n      add\n        /* \"#utility.yul\":12962:12993   */\n      swap5\n      pop\n        /* \"#utility.yul\":12836:12840   */\n      0x20\n        /* \"#utility.yul\":12833:12834   */\n      dup2\n        /* \"#utility.yul\":12829:12841   */\n      add\n        /* \"#utility.yul\":12824:12841   */\n      swap1\n      pop\n        /* \"#utility.yul\":12799:13007   */\n      jump(tag_251)\n    tag_253:\n        /* \"#utility.yul\":13035:13041   */\n      dup7\n        /* \"#utility.yul\":13026:13033   */\n      dup4\n        /* \"#utility.yul\":13023:13042   */\n      lt\n        /* \"#utility.yul\":13020:13199   */\n      iszero\n      tag_254\n      jumpi\n        /* \"#utility.yul\":13093:13102   */\n      dup5\n        /* \"#utility.yul\":13088:13091   */\n      dup10\n        /* \"#utility.yul\":13084:13103   */\n      add\n        /* \"#utility.yul\":13078:13104   */\n      mload\n        /* \"#utility.yul\":13136:13184   */\n      tag_255\n        /* \"#utility.yul\":13178:13182   */\n      0x1f\n        /* \"#utility.yul\":13170:13176   */\n      dup10\n        /* \"#utility.yul\":13166:13183   */\n      and\n        /* \"#utility.yul\":13155:13164   */\n      dup3\n        /* \"#utility.yul\":13136:13184   */\n      tag_104\n      jump\t// in\n    tag_255:\n        /* \"#utility.yul\":13128:13134   */\n      dup4\n        /* \"#utility.yul\":13121:13185   */\n      sstore\n        /* \"#utility.yul\":13043:13199   */\n      pop\n        /* \"#utility.yul\":13020:13199   */\n    tag_254:\n        /* \"#utility.yul\":13245:13246   */\n      0x01\n        /* \"#utility.yul\":13241:13242   */\n      0x02\n        /* \"#utility.yul\":13233:13239   */\n      dup9\n        /* \"#utility.yul\":13229:13243   */\n      mul\n        /* \"#utility.yul\":13225:13247   */\n      add\n        /* \"#utility.yul\":13219:13223   */\n      dup9\n        /* \"#utility.yul\":13212:13248   */\n      sstore\n        /* \"#utility.yul\":12647:13258   */\n      pop\n      pop\n      pop\n        /* \"#utility.yul\":12610:13497   */\n    tag_246:\n      pop\n        /* \"#utility.yul\":12200:13503   */\n      pop\n      pop\n      pop\n        /* \"#utility.yul\":12108:13503   */\n      pop\n      pop\n      jump\t// out\n        /* \"#utility.yul\":13509:13689   */\n    tag_51:\n        /* \"#utility.yul\":13557:13634   */\n      0x4e487b7100000000000000000000000000000000000000000000000000000000\n        /* \"#utility.yul\":13554:13555   */\n      0x00\n        /* \"#utility.yul\":13547:13635   */\n      mstore\n        /* \"#utility.yul\":13654:13658   */\n      0x32\n        /* \"#utility.yul\":13651:13652   */\n      0x04\n        /* \"#utility.yul\":13644:13659   */\n      mstore\n        /* \"#utility.yul\":13678:13682   */\n      0x24\n        /* \"#utility.yul\":13675:13676   */\n      0x00\n        /* \"#utility.yul\":13668:13683   */\n      revert\n\n    auxdata: 0xa2646970667358221220e2941194813a907df866f9820012a9f1f0ad732172449dea4691d20033a7151364736f6c634300081a0033\n}\n",
				"bytecode": {
					"linkReferences": {},
					"object": "6080604052348015600e575f80fd5b50610b698061001c5f395ff3fe608060405234801561000f575f80fd5b506004361061004a575f3560e01c806305a1b4a91461004e5780637c9cd2bc1461007e578063b64988b81461009a578063f95006a3146100ca575b5f80fd5b610068600480360381019061006391906104ae565b6100fa565b604051610075919061055c565b60405180910390f35b610098600480360381019061009391906106a8565b6101aa565b005b6100b460048036038101906100af91906106ef565b610219565b6040516100c1919061081d565b60405180910390f35b6100e460048036038101906100df91906104ae565b610329565b6040516100f1919061055c565b60405180910390f35b5f602052815f5260405f208181548110610112575f80fd5b905f5260205f20015f9150915050805461012b9061086a565b80601f01602080910402602001604051908101604052809291908181526020018280546101579061086a565b80156101a25780601f10610179576101008083540402835291602001916101a2565b820191905f5260205f20905b81548152906001019060200180831161018557829003601f168201915b505050505081565b5f803373ffffffffffffffffffffffffffffffffffffffff1673ffffffffffffffffffffffffffffffffffffffff1681526020019081526020015f2081908060018154018082558091505060019003905f5260205f20015f9091909190915090816102159190610a37565b5050565b60605f808373ffffffffffffffffffffffffffffffffffffffff1673ffffffffffffffffffffffffffffffffffffffff1681526020019081526020015f20805480602002602001604051908101604052809291908181526020015f905b8282101561031e578382905f5260205f200180546102939061086a565b80601f01602080910402602001604051908101604052809291908181526020018280546102bf9061086a565b801561030a5780601f106102e15761010080835404028352916020019161030a565b820191905f5260205f20905b8154815290600101906020018083116102ed57829003601f168201915b505050505081526020019060010190610276565b505050509050919050565b60605f808473ffffffffffffffffffffffffffffffffffffffff1673ffffffffffffffffffffffffffffffffffffffff1681526020019081526020015f20828154811061037957610378610b06565b5b905f5260205f2001805461038c9061086a565b80601f01602080910402602001604051908101604052809291908181526020018280546103b89061086a565b80156104035780601f106103da57610100808354040283529160200191610403565b820191905f5260205f20905b8154815290600101906020018083116103e657829003601f168201915b5050505050905092915050565b5f604051905090565b5f80fd5b5f80fd5b5f73ffffffffffffffffffffffffffffffffffffffff82169050919050565b5f61044a82610421565b9050919050565b61045a81610440565b8114610464575f80fd5b50565b5f8135905061047581610451565b92915050565b5f819050919050565b61048d8161047b565b8114610497575f80fd5b50565b5f813590506104a881610484565b92915050565b5f80604083850312156104c4576104c3610419565b5b5f6104d185828601610467565b92505060206104e28582860161049a565b9150509250929050565b5f81519050919050565b5f82825260208201905092915050565b8281835e5f83830152505050565b5f601f19601f8301169050919050565b5f61052e826104ec565b61053881856104f6565b9350610548818560208601610506565b61055181610514565b840191505092915050565b5f6020820190508181035f8301526105748184610524565b905092915050565b5f80fd5b5f80fd5b7f4e487b71000000000000000000000000000000000000000000000000000000005f52604160045260245ffd5b6105ba82610514565b810181811067ffffffffffffffff821117156105d9576105d8610584565b5b80604052505050565b5f6105eb610410565b90506105f782826105b1565b919050565b5f67ffffffffffffffff82111561061657610615610584565b5b61061f82610514565b9050602081019050919050565b828183375f83830152505050565b5f61064c610647846105fc565b6105e2565b90508281526020810184848401111561066857610667610580565b5b61067384828561062c565b509392505050565b5f82601f83011261068f5761068e61057c565b5b813561069f84826020860161063a565b91505092915050565b5f602082840312156106bd576106bc610419565b5b5f82013567ffffffffffffffff8111156106da576106d961041d565b5b6106e68482850161067b565b91505092915050565b5f6020828403121561070457610703610419565b5b5f61071184828501610467565b91505092915050565b5f81519050919050565b5f82825260208201905092915050565b5f819050602082019050919050565b5f82825260208201905092915050565b5f61075d826104ec565b6107678185610743565b9350610777818560208601610506565b61078081610514565b840191505092915050565b5f6107968383610753565b905092915050565b5f602082019050919050565b5f6107b48261071a565b6107be8185610724565b9350836020820285016107d085610734565b805f5b8581101561080b57848403895281516107ec858261078b565b94506107f78361079e565b925060208a019950506001810190506107d3565b50829750879550505050505092915050565b5f6020820190508181035f83015261083581846107aa565b905092915050565b7f4e487b71000000000000000000000000000000000000000000000000000000005f52602260045260245ffd5b5f600282049050600182168061088157607f821691505b6020821081036108945761089361083d565b5b50919050565b5f819050815f5260205f209050919050565b5f6020601f8301049050919050565b5f82821b905092915050565b5f600883026108f67fffffffffffffffffffffffffffffffffffffffffffffffffffffffffffffffff826108bb565b61090086836108bb565b95508019841693508086168417925050509392505050565b5f819050919050565b5f61093b6109366109318461047b565b610918565b61047b565b9050919050565b5f819050919050565b61095483610921565b61096861096082610942565b8484546108c7565b825550505050565b5f90565b61097c610970565b61098781848461094b565b505050565b5b818110156109aa5761099f5f82610974565b60018101905061098d565b5050565b601f8211156109ef576109c08161089a565b6109c9846108ac565b810160208510156109d8578190505b6109ec6109e4856108ac565b83018261098c565b50505b505050565b5f82821c905092915050565b5f610a0f5f19846008026109f4565b1980831691505092915050565b5f610a278383610a00565b9150826002028217905092915050565b610a40826104ec565b67ffffffffffffffff811115610a5957610a58610584565b5b610a63825461086a565b610a6e8282856109ae565b5f60209050601f831160018114610a9f575f8415610a8d578287015190505b610a978582610a1c565b865550610afe565b601f198416610aad8661089a565b5f5b82811015610ad457848901518255600182019150602085019450602081019050610aaf565b86831015610af15784890151610aed601f891682610a00565b8355505b6001600288020188555050505b505050505050565b7f4e487b71000000000000000000000000000000000000000000000000000000005f52603260045260245ffdfea2646970667358221220e2941194813a907df866f9820012a9f1f0ad732172449dea4691d20033a7151364736f6c634300081a0033",
					"opcodes": "PUSH1 0x80 PUSH1 0x40 MSTORE CALLVALUE DUP1 ISZERO PUSH1 0xE JUMPI PUSH0 DUP1 REVERT JUMPDEST POP PUSH2 0xB69 DUP1 PUSH2 0x1C PUSH0 CODECOPY PUSH0 RETURN INVALID PUSH1 0x80 PUSH1 0x40 MSTORE CALLVALUE DUP1 ISZERO PUSH2 0xF JUMPI PUSH0 DUP1 REVERT JUMPDEST POP PUSH1 0x4 CALLDATASIZE LT PUSH2 0x4A JUMPI PUSH0 CALLDATALOAD PUSH1 0xE0 SHR DUP1 PUSH4 0x5A1B4A9 EQ PUSH2 0x4E JUMPI DUP1 PUSH4 0x7C9CD2BC EQ PUSH2 0x7E JUMPI DUP1 PUSH4 0xB64988B8 EQ PUSH2 0x9A JUMPI DUP1 PUSH4 0xF95006A3 EQ PUSH2 0xCA JUMPI JUMPDEST PUSH0 DUP1 REVERT JUMPDEST PUSH2 0x68 PUSH1 0x4 DUP1 CALLDATASIZE SUB DUP2 ADD SWAP1 PUSH2 0x63 SWAP2 SWAP1 PUSH2 0x4AE JUMP JUMPDEST PUSH2 0xFA JUMP JUMPDEST PUSH1 0x40 MLOAD PUSH2 0x75 SWAP2 SWAP1 PUSH2 0x55C JUMP JUMPDEST PUSH1 0x40 MLOAD DUP1 SWAP2 SUB SWAP1 RETURN JUMPDEST PUSH2 0x98 PUSH1 0x4 DUP1 CALLDATASIZE SUB DUP2 ADD SWAP1 PUSH2 0x93 SWAP2 SWAP1 PUSH2 0x6A8 JUMP JUMPDEST PUSH2 0x1AA JUMP JUMPDEST STOP JUMPDEST PUSH2 0xB4 PUSH1 0x4 DUP1 CALLDATASIZE SUB DUP2 ADD SWAP1 PUSH2 0xAF SWAP2 SWAP1 PUSH2 0x6EF JUMP JUMPDEST PUSH2 0x219 JUMP JUMPDEST PUSH1 0x40 MLOAD PUSH2 0xC1 SWAP2 SWAP1 PUSH2 0x81D JUMP JUMPDEST PUSH1 0x40 MLOAD DUP1 SWAP2 SUB SWAP1 RETURN JUMPDEST PUSH2 0xE4 PUSH1 0x4 DUP1 CALLDATASIZE SUB DUP2 ADD SWAP1 PUSH2 0xDF SWAP2 SWAP1 PUSH2 0x4AE JUMP JUMPDEST PUSH2 0x329 JUMP JUMPDEST PUSH1 0x40 MLOAD PUSH2 0xF1 SWAP2 SWAP1 PUSH2 0x55C JUMP JUMPDEST PUSH1 0x40 MLOAD DUP1 SWAP2 SUB SWAP1 RETURN JUMPDEST PUSH0 PUSH1 0x20 MSTORE DUP2 PUSH0 MSTORE PUSH1 0x40 PUSH0 KECCAK256 DUP2 DUP2 SLOAD DUP2 LT PUSH2 0x112 JUMPI PUSH0 DUP1 REVERT JUMPDEST SWAP1 PUSH0 MSTORE PUSH1 0x20 PUSH0 KECCAK256 ADD PUSH0 SWAP2 POP SWAP2 POP POP DUP1 SLOAD PUSH2 0x12B SWAP1 PUSH2 0x86A JUMP JUMPDEST DUP1 PUSH1 0x1F ADD PUSH1 0x20 DUP1 SWAP2 DIV MUL PUSH1 0x20 ADD PUSH1 0x40 MLOAD SWAP1 DUP2 ADD PUSH1 0x40 MSTORE DUP1 SWAP3 SWAP2 SWAP1 DUP2 DUP2 MSTORE PUSH1 0x20 ADD DUP3 DUP1 SLOAD PUSH2 0x157 SWAP1 PUSH2 0x86A JUMP JUMPDEST DUP1 ISZERO PUSH2 0x1A2 JUMPI DUP1 PUSH1 0x1F LT PUSH2 0x179 JUMPI PUSH2 0x100 DUP1 DUP4 SLOAD DIV MUL DUP4 MSTORE SWAP2 PUSH1 0x20 ADD SWAP2 PUSH2 0x1A2 JUMP JUMPDEST DUP3 ADD SWAP2 SWAP1 PUSH0 MSTORE PUSH1 0x20 PUSH0 KECCAK256 SWAP1 JUMPDEST DUP2 SLOAD DUP2 MSTORE SWAP1 PUSH1 0x1 ADD SWAP1 PUSH1 0x20 ADD DUP1 DUP4 GT PUSH2 0x185 JUMPI DUP3 SWAP1 SUB PUSH1 0x1F AND DUP3 ADD SWAP2 JUMPDEST POP POP POP POP POP DUP2 JUMP JUMPDEST PUSH0 DUP1 CALLER PUSH20 0xFFFFFFFFFFFFFFFFFFFFFFFFFFFFFFFFFFFFFFFF AND PUSH20 0xFFFFFFFFFFFFFFFFFFFFFFFFFFFFFFFFFFFFFFFF AND DUP2 MSTORE PUSH1 0x20 ADD SWAP1 DUP2 MSTORE PUSH1 0x20 ADD PUSH0 KECCAK256 DUP2 SWAP1 DUP1 PUSH1 0x1 DUP2 SLOAD ADD DUP1 DUP3 SSTORE DUP1 SWAP2 POP POP PUSH1 0x1 SWAP1 SUB SWAP1 PUSH0 MSTORE PUSH1 0x20 PUSH0 KECCAK256 ADD PUSH0 SWAP1 SWAP2 SWAP1 SWAP2 SWAP1 SWAP2 POP SWAP1 DUP2 PUSH2 0x215 SWAP2 SWAP1 PUSH2 0xA37 JUMP JUMPDEST POP POP JUMP JUMPDEST PUSH1 0x60 PUSH0 DUP1 DUP4 PUSH20 0xFFFFFFFFFFFFFFFFFFFFFFFFFFFFFFFFFFFFFFFF AND PUSH20 0xFFFFFFFFFFFFFFFFFFFFFFFFFFFFFFFFFFFFFFFF AND DUP2 MSTORE PUSH1 0x20 ADD SWAP1 DUP2 MSTORE PUSH1 0x20 ADD PUSH0 KECCAK256 DUP1 SLOAD DUP1 PUSH1 0x20 MUL PUSH1 0x20 ADD PUSH1 0x40 MLOAD SWAP1 DUP2 ADD PUSH1 0x40 MSTORE DUP1 SWAP3 SWAP2 SWAP1 DUP2 DUP2 MSTORE PUSH1 0x20 ADD PUSH0 SWAP1 JUMPDEST DUP3 DUP3 LT ISZERO PUSH2 0x31E JUMPI DUP4 DUP3 SWAP1 PUSH0 MSTORE PUSH1 0x20 PUSH0 KECCAK256 ADD DUP1 SLOAD PUSH2 0x293 SWAP1 PUSH2 0x86A JUMP JUMPDEST DUP1 PUSH1 0x1F ADD PUSH1 0x20 DUP1 SWAP2 DIV MUL PUSH1 0x20 ADD PUSH1 0x40 MLOAD SWAP1 DUP2 ADD PUSH1 0x40 MSTORE DUP1 SWAP3 SWAP2 SWAP1 DUP2 DUP2 MSTORE PUSH1 0x20 ADD DUP3 DUP1 SLOAD PUSH2 0x2BF SWAP1 PUSH2 0x86A JUMP JUMPDEST DUP1 ISZERO PUSH2 0x30A JUMPI DUP1 PUSH1 0x1F LT PUSH2 0x2E1 JUMPI PUSH2 0x100 DUP1 DUP4 SLOAD DIV MUL DUP4 MSTORE SWAP2 PUSH1 0x20 ADD SWAP2 PUSH2 0x30A JUMP JUMPDEST DUP3 ADD SWAP2 SWAP1 PUSH0 MSTORE PUSH1 0x20 PUSH0 KECCAK256 SWAP1 JUMPDEST DUP2 SLOAD DUP2 MSTORE SWAP1 PUSH1 0x1 ADD SWAP1 PUSH1 0x20 ADD DUP1 DUP4 GT PUSH2 0x2ED JUMPI DUP3 SWAP1 SUB PUSH1 0x1F AND DUP3 ADD SWAP2 JUMPDEST POP POP POP POP POP DUP2 MSTORE PUSH1 0x20 ADD SWAP1 PUSH1 0x1 ADD SWAP1 PUSH2 0x276 JUMP JUMPDEST POP POP POP POP SWAP1 POP SWAP2 SWAP1 POP JUMP JUMPDEST PUSH1 0x60 PUSH0 DUP1 DUP5 PUSH20 0xFFFFFFFFFFFFFFFFFFFFFFFFFFFFFFFFFFFFFFFF AND PUSH20 0xFFFFFFFFFFFFFFFFFFFFFFFFFFFFFFFFFFFFFFFF AND DUP2 MSTORE PUSH1 0x20 ADD SWAP1 DUP2 MSTORE PUSH1 0x20 ADD PUSH0 KECCAK256 DUP3 DUP2 SLOAD DUP2 LT PUSH2 0x379 JUMPI PUSH2 0x378 PUSH2 0xB06 JUMP JUMPDEST JUMPDEST SWAP1 PUSH0 MSTORE PUSH1 0x20 PUSH0 KECCAK256 ADD DUP1 SLOAD PUSH2 0x38C SWAP1 PUSH2 0x86A JUMP JUMPDEST DUP1 PUSH1 0x1F ADD PUSH1 0x20 DUP1 SWAP2 DIV MUL PUSH1 0x20 ADD PUSH1 0x40 MLOAD SWAP1 DUP2 ADD PUSH1 0x40 MSTORE DUP1 SWAP3 SWAP2 SWAP1 DUP2 DUP2 MSTORE PUSH1 0x20 ADD DUP3 DUP1 SLOAD PUSH2 0x3B8 SWAP1 PUSH2 0x86A JUMP JUMPDEST DUP1 ISZERO PUSH2 0x403 JUMPI DUP1 PUSH1 0x1F LT PUSH2 0x3DA JUMPI PUSH2 0x100 DUP1 DUP4 SLOAD DIV MUL DUP4 MSTORE SWAP2 PUSH1 0x20 ADD SWAP2 PUSH2 0x403 JUMP JUMPDEST DUP3 ADD SWAP2 SWAP1 PUSH0 MSTORE PUSH1 0x20 PUSH0 KECCAK256 SWAP1 JUMPDEST DUP2 SLOAD DUP2 MSTORE SWAP1 PUSH1 0x1 ADD SWAP1 PUSH1 0x20 ADD DUP1 DUP4 GT PUSH2 0x3E6 JUMPI DUP3 SWAP1 SUB PUSH1 0x1F AND DUP3 ADD SWAP2 JUMPDEST POP POP POP POP POP SWAP1 POP SWAP3 SWAP2 POP POP JUMP JUMPDEST PUSH0 PUSH1 0x40 MLOAD SWAP1 POP SWAP1 JUMP JUMPDEST PUSH0 DUP1 REVERT JUMPDEST PUSH0 DUP1 REVERT JUMPDEST PUSH0 PUSH20 0xFFFFFFFFFFFFFFFFFFFFFFFFFFFFFFFFFFFFFFFF DUP3 AND SWAP1 POP SWAP2 SWAP1 POP JUMP JUMPDEST PUSH0 PUSH2 0x44A DUP3 PUSH2 0x421 JUMP JUMPDEST SWAP1 POP SWAP2 SWAP1 POP JUMP JUMPDEST PUSH2 0x45A DUP2 PUSH2 0x440 JUMP JUMPDEST DUP2 EQ PUSH2 0x464 JUMPI PUSH0 DUP1 REVERT JUMPDEST POP JUMP JUMPDEST PUSH0 DUP2 CALLDATALOAD SWAP1 POP PUSH2 0x475 DUP2 PUSH2 0x451 JUMP JUMPDEST SWAP3 SWAP2 POP POP JUMP JUMPDEST PUSH0 DUP2 SWAP1 POP SWAP2 SWAP1 POP JUMP JUMPDEST PUSH2 0x48D DUP2 PUSH2 0x47B JUMP JUMPDEST DUP2 EQ PUSH2 0x497 JUMPI PUSH0 DUP1 REVERT JUMPDEST POP JUMP JUMPDEST PUSH0 DUP2 CALLDATALOAD SWAP1 POP PUSH2 0x4A8 DUP2 PUSH2 0x484 JUMP JUMPDEST SWAP3 SWAP2 POP POP JUMP JUMPDEST PUSH0 DUP1 PUSH1 0x40 DUP4 DUP6 SUB SLT ISZERO PUSH2 0x4C4 JUMPI PUSH2 0x4C3 PUSH2 0x419 JUMP JUMPDEST JUMPDEST PUSH0 PUSH2 0x4D1 DUP6 DUP3 DUP7 ADD PUSH2 0x467 JUMP JUMPDEST SWAP3 POP POP PUSH1 0x20 PUSH2 0x4E2 DUP6 DUP3 DUP7 ADD PUSH2 0x49A JUMP JUMPDEST SWAP2 POP POP SWAP3 POP SWAP3 SWAP1 POP JUMP JUMPDEST PUSH0 DUP2 MLOAD SWAP1 POP SWAP2 SWAP1 POP JUMP JUMPDEST PUSH0 DUP3 DUP3 MSTORE PUSH1 0x20 DUP3 ADD SWAP1 POP SWAP3 SWAP2 POP POP JUMP JUMPDEST DUP3 DUP2 DUP4 MCOPY PUSH0 DUP4 DUP4 ADD MSTORE POP POP POP JUMP JUMPDEST PUSH0 PUSH1 0x1F NOT PUSH1 0x1F DUP4 ADD AND SWAP1 POP SWAP2 SWAP1 POP JUMP JUMPDEST PUSH0 PUSH2 0x52E DUP3 PUSH2 0x4EC JUMP JUMPDEST PUSH2 0x538 DUP2 DUP6 PUSH2 0x4F6 JUMP JUMPDEST SWAP4 POP PUSH2 0x548 DUP2 DUP6 PUSH1 0x20 DUP7 ADD PUSH2 0x506 JUMP JUMPDEST PUSH2 0x551 DUP2 PUSH2 0x514 JUMP JUMPDEST DUP5 ADD SWAP2 POP POP SWAP3 SWAP2 POP POP JUMP JUMPDEST PUSH0 PUSH1 0x20 DUP3 ADD SWAP1 POP DUP2 DUP2 SUB PUSH0 DUP4 ADD MSTORE PUSH2 0x574 DUP2 DUP5 PUSH2 0x524 JUMP JUMPDEST SWAP1 POP SWAP3 SWAP2 POP POP JUMP JUMPDEST PUSH0 DUP1 REVERT JUMPDEST PUSH0 DUP1 REVERT JUMPDEST PUSH32 0x4E487B7100000000000000000000000000000000000000000000000000000000 PUSH0 MSTORE PUSH1 0x41 PUSH1 0x4 MSTORE PUSH1 0x24 PUSH0 REVERT JUMPDEST PUSH2 0x5BA DUP3 PUSH2 0x514 JUMP JUMPDEST DUP2 ADD DUP2 DUP2 LT PUSH8 0xFFFFFFFFFFFFFFFF DUP3 GT OR ISZERO PUSH2 0x5D9 JUMPI PUSH2 0x5D8 PUSH2 0x584 JUMP JUMPDEST JUMPDEST DUP1 PUSH1 0x40 MSTORE POP POP POP JUMP JUMPDEST PUSH0 PUSH2 0x5EB PUSH2 0x410 JUMP JUMPDEST SWAP1 POP PUSH2 0x5F7 DUP3 DUP3 PUSH2 0x5B1 JUMP JUMPDEST SWAP2 SWAP1 POP JUMP JUMPDEST PUSH0 PUSH8 0xFFFFFFFFFFFFFFFF DUP3 GT ISZERO PUSH2 0x616 JUMPI PUSH2 0x615 PUSH2 0x584 JUMP JUMPDEST JUMPDEST PUSH2 0x61F DUP3 PUSH2 0x514 JUMP JUMPDEST SWAP1 POP PUSH1 0x20 DUP2 ADD SWAP1 POP SWAP2 SWAP1 POP JUMP JUMPDEST DUP3 DUP2 DUP4 CALLDATACOPY PUSH0 DUP4 DUP4 ADD MSTORE POP POP POP JUMP JUMPDEST PUSH0 PUSH2 0x64C PUSH2 0x647 DUP5 PUSH2 0x5FC JUMP JUMPDEST PUSH2 0x5E2 JUMP JUMPDEST SWAP1 POP DUP3 DUP2 MSTORE PUSH1 0x20 DUP2 ADD DUP5 DUP5 DUP5 ADD GT ISZERO PUSH2 0x668 JUMPI PUSH2 0x667 PUSH2 0x580 JUMP JUMPDEST JUMPDEST PUSH2 0x673 DUP5 DUP3 DUP6 PUSH2 0x62C JUMP JUMPDEST POP SWAP4 SWAP3 POP POP POP JUMP JUMPDEST PUSH0 DUP3 PUSH1 0x1F DUP4 ADD SLT PUSH2 0x68F JUMPI PUSH2 0x68E PUSH2 0x57C JUMP JUMPDEST JUMPDEST DUP2 CALLDATALOAD PUSH2 0x69F DUP5 DUP3 PUSH1 0x20 DUP7 ADD PUSH2 0x63A JUMP JUMPDEST SWAP2 POP POP SWAP3 SWAP2 POP POP JUMP JUMPDEST PUSH0 PUSH1 0x20 DUP3 DUP5 SUB SLT ISZERO PUSH2 0x6BD JUMPI PUSH2 0x6BC PUSH2 0x419 JUMP JUMPDEST JUMPDEST PUSH0 DUP3 ADD CALLDATALOAD PUSH8 0xFFFFFFFFFFFFFFFF DUP2 GT ISZERO PUSH2 0x6DA JUMPI PUSH2 0x6D9 PUSH2 0x41D JUMP JUMPDEST JUMPDEST PUSH2 0x6E6 DUP5 DUP3 DUP6 ADD PUSH2 0x67B JUMP JUMPDEST SWAP2 POP POP SWAP3 SWAP2 POP POP JUMP JUMPDEST PUSH0 PUSH1 0x20 DUP3 DUP5 SUB SLT ISZERO PUSH2 0x704 JUMPI PUSH2 0x703 PUSH2 0x419 JUMP JUMPDEST JUMPDEST PUSH0 PUSH2 0x711 DUP5 DUP3 DUP6 ADD PUSH2 0x467 JUMP JUMPDEST SWAP2 POP POP SWAP3 SWAP2 POP POP JUMP JUMPDEST PUSH0 DUP2 MLOAD SWAP1 POP SWAP2 SWAP1 POP JUMP JUMPDEST PUSH0 DUP3 DUP3 MSTORE PUSH1 0x20 DUP3 ADD SWAP1 POP SWAP3 SWAP2 POP POP JUMP JUMPDEST PUSH0 DUP2 SWAP1 POP PUSH1 0x20 DUP3 ADD SWAP1 POP SWAP2 SWAP1 POP JUMP JUMPDEST PUSH0 DUP3 DUP3 MSTORE PUSH1 0x20 DUP3 ADD SWAP1 POP SWAP3 SWAP2 POP POP JUMP JUMPDEST PUSH0 PUSH2 0x75D DUP3 PUSH2 0x4EC JUMP JUMPDEST PUSH2 0x767 DUP2 DUP6 PUSH2 0x743 JUMP JUMPDEST SWAP4 POP PUSH2 0x777 DUP2 DUP6 PUSH1 0x20 DUP7 ADD PUSH2 0x506 JUMP JUMPDEST PUSH2 0x780 DUP2 PUSH2 0x514 JUMP JUMPDEST DUP5 ADD SWAP2 POP POP SWAP3 SWAP2 POP POP JUMP JUMPDEST PUSH0 PUSH2 0x796 DUP4 DUP4 PUSH2 0x753 JUMP JUMPDEST SWAP1 POP SWAP3 SWAP2 POP POP JUMP JUMPDEST PUSH0 PUSH1 0x20 DUP3 ADD SWAP1 POP SWAP2 SWAP1 POP JUMP JUMPDEST PUSH0 PUSH2 0x7B4 DUP3 PUSH2 0x71A JUMP JUMPDEST PUSH2 0x7BE DUP2 DUP6 PUSH2 0x724 JUMP JUMPDEST SWAP4 POP DUP4 PUSH1 0x20 DUP3 MUL DUP6 ADD PUSH2 0x7D0 DUP6 PUSH2 0x734 JUMP JUMPDEST DUP1 PUSH0 JUMPDEST DUP6 DUP2 LT ISZERO PUSH2 0x80B JUMPI DUP5 DUP5 SUB DUP10 MSTORE DUP2 MLOAD PUSH2 0x7EC DUP6 DUP3 PUSH2 0x78B JUMP JUMPDEST SWAP5 POP PUSH2 0x7F7 DUP4 PUSH2 0x79E JUMP JUMPDEST SWAP3 POP PUSH1 0x20 DUP11 ADD SWAP10 POP POP PUSH1 0x1 DUP2 ADD SWAP1 POP PUSH2 0x7D3 JUMP JUMPDEST POP DUP3 SWAP8 POP DUP8 SWAP6 POP POP POP POP POP POP SWAP3 SWAP2 POP POP JUMP JUMPDEST PUSH0 PUSH1 0x20 DUP3 ADD SWAP1 POP DUP2 DUP2 SUB PUSH0 DUP4 ADD MSTORE PUSH2 0x835 DUP2 DUP5 PUSH2 0x7AA JUMP JUMPDEST SWAP1 POP SWAP3 SWAP2 POP POP JUMP JUMPDEST PUSH32 0x4E487B7100000000000000000000000000000000000000000000000000000000 PUSH0 MSTORE PUSH1 0x22 PUSH1 0x4 MSTORE PUSH1 0x24 PUSH0 REVERT JUMPDEST PUSH0 PUSH1 0x2 DUP3 DIV SWAP1 POP PUSH1 0x1 DUP3 AND DUP1 PUSH2 0x881 JUMPI PUSH1 0x7F DUP3 AND SWAP2 POP JUMPDEST PUSH1 0x20 DUP3 LT DUP2 SUB PUSH2 0x894 JUMPI PUSH2 0x893 PUSH2 0x83D JUMP JUMPDEST JUMPDEST POP SWAP2 SWAP1 POP JUMP JUMPDEST PUSH0 DUP2 SWAP1 POP DUP2 PUSH0 MSTORE PUSH1 0x20 PUSH0 KECCAK256 SWAP1 POP SWAP2 SWAP1 POP JUMP JUMPDEST PUSH0 PUSH1 0x20 PUSH1 0x1F DUP4 ADD DIV SWAP1 POP SWAP2 SWAP1 POP JUMP JUMPDEST PUSH0 DUP3 DUP3 SHL SWAP1 POP SWAP3 SWAP2 POP POP JUMP JUMPDEST PUSH0 PUSH1 0x8 DUP4 MUL PUSH2 0x8F6 PUSH32 0xFFFFFFFFFFFFFFFFFFFFFFFFFFFFFFFFFFFFFFFFFFFFFFFFFFFFFFFFFFFFFFFF DUP3 PUSH2 0x8BB JUMP JUMPDEST PUSH2 0x900 DUP7 DUP4 PUSH2 0x8BB JUMP JUMPDEST SWAP6 POP DUP1 NOT DUP5 AND SWAP4 POP DUP1 DUP7 AND DUP5 OR SWAP3 POP POP POP SWAP4 SWAP3 POP POP POP JUMP JUMPDEST PUSH0 DUP2 SWAP1 POP SWAP2 SWAP1 POP JUMP JUMPDEST PUSH0 PUSH2 0x93B PUSH2 0x936 PUSH2 0x931 DUP5 PUSH2 0x47B JUMP JUMPDEST PUSH2 0x918 JUMP JUMPDEST PUSH2 0x47B JUMP JUMPDEST SWAP1 POP SWAP2 SWAP1 POP JUMP JUMPDEST PUSH0 DUP2 SWAP1 POP SWAP2 SWAP1 POP JUMP JUMPDEST PUSH2 0x954 DUP4 PUSH2 0x921 JUMP JUMPDEST PUSH2 0x968 PUSH2 0x960 DUP3 PUSH2 0x942 JUMP JUMPDEST DUP5 DUP5 SLOAD PUSH2 0x8C7 JUMP JUMPDEST DUP3 SSTORE POP POP POP POP JUMP JUMPDEST PUSH0 SWAP1 JUMP JUMPDEST PUSH2 0x97C PUSH2 0x970 JUMP JUMPDEST PUSH2 0x987 DUP2 DUP5 DUP5 PUSH2 0x94B JUMP JUMPDEST POP POP POP JUMP JUMPDEST JUMPDEST DUP2 DUP2 LT ISZERO PUSH2 0x9AA JUMPI PUSH2 0x99F PUSH0 DUP3 PUSH2 0x974 JUMP JUMPDEST PUSH1 0x1 DUP2 ADD SWAP1 POP PUSH2 0x98D JUMP JUMPDEST POP POP JUMP JUMPDEST PUSH1 0x1F DUP3 GT ISZERO PUSH2 0x9EF JUMPI PUSH2 0x9C0 DUP2 PUSH2 0x89A JUMP JUMPDEST PUSH2 0x9C9 DUP5 PUSH2 0x8AC JUMP JUMPDEST DUP2 ADD PUSH1 0x20 DUP6 LT ISZERO PUSH2 0x9D8 JUMPI DUP2 SWAP1 POP JUMPDEST PUSH2 0x9EC PUSH2 0x9E4 DUP6 PUSH2 0x8AC JUMP JUMPDEST DUP4 ADD DUP3 PUSH2 0x98C JUMP JUMPDEST POP POP JUMPDEST POP POP POP JUMP JUMPDEST PUSH0 DUP3 DUP3 SHR SWAP1 POP SWAP3 SWAP2 POP POP JUMP JUMPDEST PUSH0 PUSH2 0xA0F PUSH0 NOT DUP5 PUSH1 0x8 MUL PUSH2 0x9F4 JUMP JUMPDEST NOT DUP1 DUP4 AND SWAP2 POP POP SWAP3 SWAP2 POP POP JUMP JUMPDEST PUSH0 PUSH2 0xA27 DUP4 DUP4 PUSH2 0xA00 JUMP JUMPDEST SWAP2 POP DUP3 PUSH1 0x2 MUL DUP3 OR SWAP1 POP SWAP3 SWAP2 POP POP JUMP JUMPDEST PUSH2 0xA40 DUP3 PUSH2 0x4EC JUMP JUMPDEST PUSH8 0xFFFFFFFFFFFFFFFF DUP2 GT ISZERO PUSH2 0xA59 JUMPI PUSH2 0xA58 PUSH2 0x584 JUMP JUMPDEST JUMPDEST PUSH2 0xA63 DUP3 SLOAD PUSH2 0x86A JUMP JUMPDEST PUSH2 0xA6E DUP3 DUP3 DUP6 PUSH2 0x9AE JUMP JUMPDEST PUSH0 PUSH1 0x20 SWAP1 POP PUSH1 0x1F DUP4 GT PUSH1 0x1 DUP2 EQ PUSH2 0xA9F JUMPI PUSH0 DUP5 ISZERO PUSH2 0xA8D JUMPI DUP3 DUP8 ADD MLOAD SWAP1 POP JUMPDEST PUSH2 0xA97 DUP6 DUP3 PUSH2 0xA1C JUMP JUMPDEST DUP7 SSTORE POP PUSH2 0xAFE JUMP JUMPDEST PUSH1 0x1F NOT DUP5 AND PUSH2 0xAAD DUP7 PUSH2 0x89A JUMP JUMPDEST PUSH0 JUMPDEST DUP3 DUP2 LT ISZERO PUSH2 0xAD4 JUMPI DUP5 DUP10 ADD MLOAD DUP3 SSTORE PUSH1 0x1 DUP3 ADD SWAP2 POP PUSH1 0x20 DUP6 ADD SWAP5 POP PUSH1 0x20 DUP2 ADD SWAP1 POP PUSH2 0xAAF JUMP JUMPDEST DUP7 DUP4 LT ISZERO PUSH2 0xAF1 JUMPI DUP5 DUP10 ADD MLOAD PUSH2 0xAED PUSH1 0x1F DUP10 AND DUP3 PUSH2 0xA00 JUMP JUMPDEST DUP4 SSTORE POP JUMPDEST PUSH1 0x1 PUSH1 0x2 DUP9 MUL ADD DUP9 SSTORE POP POP POP JUMPDEST POP POP POP POP POP POP JUMP JUMPDEST PUSH32 0x4E487B7100000000000000000000000000000000000000000000000000000000 PUSH0 MSTORE PUSH1 0x32 PUSH1 0x4 MSTORE PUSH1 0x24 PUSH0 REVERT INVALID LOG2 PUSH5 0x6970667358 0x22 SLT KECCAK256 0xE2 SWAP5 GT SWAP5 DUP2 GASPRICE SWAP1 PUSH30 0xF866F9820012A9F1F0AD732172449DEA4691D20033A7151364736F6C6343 STOP ADDMOD BYTE STOP CALLER "
				},
				"gasEstimates": {
					"creation": {
						"codeDepositCost": "584200",
						"executionCost": "617",
						"totalCost": "584817"
					},
					"external": {
						"createTweet(string)": "infinite",
						"getAllTweet(address)": "infinite",
						"getTweetIdx(address,uint256)": "infinite",
						"tweets(address,uint256)": "infinite"
					}
				},
				"methodIdentifiers": {
					"createTweet(string)": "7c9cd2bc",
					"getAllTweet(address)": "b64988b8",
					"getTweetIdx(address,uint256)": "f95006a3",
					"tweets(address,uint256)": "05a1b4a9"
				}
			},
			"storageLayout": {
				"storage": [
					{
						"astId": 6,
						"contract": "contracts/Twitter.sol:twitter",
						"label": "tweets",
						"offset": 0,
						"slot": "0",
						"type": "t_mapping(t_address,t_array(t_string_storage)dyn_storage)"
					}
				],
				"types": {
					"t_address": {
						"encoding": "inplace",
						"label": "address",
						"numberOfBytes": "20"
					},
					"t_array(t_string_storage)dyn_storage": {
						"base": "t_string_storage",
						"encoding": "dynamic_array",
						"label": "string[]",
						"numberOfBytes": "32"
					},
					"t_mapping(t_address,t_array(t_string_storage)dyn_storage)": {
						"encoding": "mapping",
						"key": "t_address",
						"label": "mapping(address => string[])",
						"numberOfBytes": "32",
						"value": "t_array(t_string_storage)dyn_storage"
					},
					"t_string_storage": {
						"encoding": "bytes",
						"label": "string",
						"numberOfBytes": "32"
					}
				}
			},
			"userdoc": {
				"kind": "user",
				"methods": {},
				"version": 1
			}
		}
	}
}