{
	"PatienrReg.sol": {
		"PatientRegistration": {
			"abi": [
				{
					"anonymous": false,
					"inputs": [
						{
							"indexed": false,
							"internalType": "string",
							"name": "hhNumber",
							"type": "string"
						},
						{
							"indexed": false,
							"internalType": "string",
							"name": "name",
							"type": "string"
						},
						{
							"indexed": false,
							"internalType": "address",
							"name": "walletAddress",
							"type": "address"
						}
					],
					"name": "PatientRegistered",
					"type": "event"
				},
				{
					"inputs": [
						{
							"internalType": "string",
							"name": "",
							"type": "string"
						},
						{
							"internalType": "string",
							"name": "",
							"type": "string"
						}
					],
					"name": "doctorPermissions",
					"outputs": [
						{
							"internalType": "bool",
							"name": "",
							"type": "bool"
						}
					],
					"stateMutability": "view",
					"type": "function"
				},
				{
					"inputs": [
						{
							"internalType": "string",
							"name": "_hhNumber",
							"type": "string"
						}
					],
					"name": "getPatientDetails",
					"outputs": [
						{
							"internalType": "address",
							"name": "walletAddress",
							"type": "address"
						},
						{
							"internalType": "string",
							"name": "name",
							"type": "string"
						},
						{
							"internalType": "string",
							"name": "dateOfBirth",
							"type": "string"
						},
						{
							"internalType": "string",
							"name": "gender",
							"type": "string"
						},
						{
							"internalType": "string",
							"name": "bloodGroup",
							"type": "string"
						},
						{
							"internalType": "string",
							"name": "homeAddress",
							"type": "string"
						},
						{
							"internalType": "string",
							"name": "email",
							"type": "string"
						}
					],
					"stateMutability": "view",
					"type": "function"
				},
				{
					"inputs": [
						{
							"internalType": "string",
							"name": "_doctorNumber",
							"type": "string"
						}
					],
					"name": "getPatientList",
					"outputs": [
						{
							"components": [
								{
									"internalType": "string",
									"name": "patient_number",
									"type": "string"
								},
								{
									"internalType": "string",
									"name": "patient_name",
									"type": "string"
								}
							],
							"internalType": "struct PatientRegistration.PatientList[]",
							"name": "",
							"type": "tuple[]"
						}
					],
					"stateMutability": "view",
					"type": "function"
				},
				{
					"inputs": [
						{
							"internalType": "string",
							"name": "_patientNumber",
							"type": "string"
						},
						{
							"internalType": "string",
							"name": "_doctorNumber",
							"type": "string"
						},
						{
							"internalType": "string",
							"name": "_patientName",
							"type": "string"
						}
					],
					"name": "grantPermission",
					"outputs": [],
					"stateMutability": "nonpayable",
					"type": "function"
				},
				{
					"inputs": [
						{
							"internalType": "string",
							"name": "",
							"type": "string"
						}
					],
					"name": "isPatientRegistered",
					"outputs": [
						{
							"internalType": "bool",
							"name": "",
							"type": "bool"
						}
					],
					"stateMutability": "view",
					"type": "function"
				},
				{
					"inputs": [
						{
							"internalType": "string",
							"name": "_patientNumber",
							"type": "string"
						},
						{
							"internalType": "string",
							"name": "_doctorNumber",
							"type": "string"
						}
					],
					"name": "isPermissionGranted",
					"outputs": [
						{
							"internalType": "bool",
							"name": "",
							"type": "bool"
						}
					],
					"stateMutability": "view",
					"type": "function"
				},
				{
					"inputs": [
						{
							"internalType": "string",
							"name": "_hhNumber",
							"type": "string"
						}
					],
					"name": "isRegisteredPatient",
					"outputs": [
						{
							"internalType": "bool",
							"name": "",
							"type": "bool"
						}
					],
					"stateMutability": "view",
					"type": "function"
				},
				{
					"inputs": [
						{
							"internalType": "string",
							"name": "",
							"type": "string"
						}
					],
					"name": "patients",
					"outputs": [
						{
							"internalType": "address",
							"name": "walletAddress",
							"type": "address"
						},
						{
							"internalType": "string",
							"name": "name",
							"type": "string"
						},
						{
							"internalType": "string",
							"name": "dateOfBirth",
							"type": "string"
						},
						{
							"internalType": "string",
							"name": "gender",
							"type": "string"
						},
						{
							"internalType": "string",
							"name": "bloodGroup",
							"type": "string"
						},
						{
							"internalType": "string",
							"name": "homeAddress",
							"type": "string"
						},
						{
							"internalType": "string",
							"name": "email",
							"type": "string"
						},
						{
							"internalType": "string",
							"name": "hhNumber",
							"type": "string"
						},
						{
							"internalType": "string",
							"name": "password",
							"type": "string"
						}
					],
					"stateMutability": "view",
					"type": "function"
				},
				{
					"inputs": [
						{
							"internalType": "address",
							"name": "_walletAddress",
							"type": "address"
						},
						{
							"internalType": "string",
							"name": "_name",
							"type": "string"
						},
						{
							"internalType": "string",
							"name": "_dateOfBirth",
							"type": "string"
						},
						{
							"internalType": "string",
							"name": "_gender",
							"type": "string"
						},
						{
							"internalType": "string",
							"name": "_bloodGroup",
							"type": "string"
						},
						{
							"internalType": "string",
							"name": "_homeAddress",
							"type": "string"
						},
						{
							"internalType": "string",
							"name": "_email",
							"type": "string"
						},
						{
							"internalType": "string",
							"name": "_hhNumber",
							"type": "string"
						},
						{
							"internalType": "string",
							"name": "_password",
							"type": "string"
						}
					],
					"name": "registerPatient",
					"outputs": [],
					"stateMutability": "nonpayable",
					"type": "function"
				},
				{
					"inputs": [
						{
							"internalType": "string",
							"name": "_hhNumber",
							"type": "string"
						},
						{
							"internalType": "string",
							"name": "_password",
							"type": "string"
						}
					],
					"name": "validatePassword",
					"outputs": [
						{
							"internalType": "bool",
							"name": "",
							"type": "bool"
						}
					],
					"stateMutability": "view",
					"type": "function"
				}
			],
			"devdoc": {
				"kind": "dev",
				"methods": {},
				"version": 1
			},
			"evm": {
				"assembly": "    /* \"PatienrReg.sol\":61:4299  contract PatientRegistration {... */\n  mstore(0x40, 0x80)\n  callvalue\n  dup1\n  iszero\n  tag_1\n  jumpi\n  revert(0x00, 0x00)\ntag_1:\n  pop\n  dataSize(sub_0)\n  dup1\n  dataOffset(sub_0)\n  0x00\n  codecopy\n  0x00\n  return\nstop\n\nsub_0: assembly {\n        /* \"PatienrReg.sol\":61:4299  contract PatientRegistration {... */\n      mstore(0x40, 0x80)\n      callvalue\n      dup1\n      iszero\n      tag_1\n      jumpi\n      revert(0x00, 0x00)\n    tag_1:\n      pop\n      jumpi(tag_2, lt(calldatasize, 0x04))\n      shr(0xe0, calldataload(0x00))\n      dup1\n      0x91c12f76\n      gt\n      tag_13\n      jumpi\n      dup1\n      0x91c12f76\n      eq\n      tag_8\n      jumpi\n      dup1\n      0xc6009d84\n      eq\n      tag_9\n      jumpi\n      dup1\n      0xd120c10c\n      eq\n      tag_10\n      jumpi\n      dup1\n      0xea977fc8\n      eq\n      tag_11\n      jumpi\n      dup1\n      0xf7252641\n      eq\n      tag_12\n      jumpi\n      jump(tag_2)\n    tag_13:\n      dup1\n      0x44334733\n      eq\n      tag_3\n      jumpi\n      dup1\n      0x4f10c6c2\n      eq\n      tag_4\n      jumpi\n      dup1\n      0x57812a08\n      eq\n      tag_5\n      jumpi\n      dup1\n      0x5df67040\n      eq\n      tag_6\n      jumpi\n      dup1\n      0x7babdb26\n      eq\n      tag_7\n      jumpi\n    tag_2:\n      revert(0x00, 0x00)\n        /* \"PatienrReg.sol\":628:695  mapping(string => mapping(string => bool)) public doctorPermissions */\n    tag_3:\n      tag_14\n      0x04\n      dup1\n      calldatasize\n      sub\n      dup2\n      add\n      swap1\n      tag_15\n      swap2\n      swap1\n      tag_16\n      jump\t// in\n    tag_15:\n      tag_17\n      jump\t// in\n    tag_14:\n      mload(0x40)\n      tag_18\n      swap2\n      swap1\n      tag_19\n      jump\t// in\n    tag_18:\n      mload(0x40)\n      dup1\n      swap2\n      sub\n      swap1\n      return\n        /* \"PatienrReg.sol\":463:513  mapping(string => bool) public isPatientRegistered */\n    tag_4:\n      tag_20\n      0x04\n      dup1\n      calldatasize\n      sub\n      dup2\n      add\n      swap1\n      tag_21\n      swap2\n      swap1\n      tag_22\n      jump\t// in\n    tag_21:\n      tag_23\n      jump\t// in\n    tag_20:\n      mload(0x40)\n      tag_24\n      swap2\n      swap1\n      tag_19\n      jump\t// in\n    tag_24:\n      mload(0x40)\n      dup1\n      swap2\n      sub\n      swap1\n      return\n        /* \"PatienrReg.sol\":789:1804  function registerPatient(... */\n    tag_5:\n      tag_25\n      0x04\n      dup1\n      calldatasize\n      sub\n      dup2\n      add\n      swap1\n      tag_26\n      swap2\n      swap1\n      tag_27\n      jump\t// in\n    tag_26:\n      tag_28\n      jump\t// in\n    tag_25:\n      stop\n        /* \"PatienrReg.sol\":2909:3942  function grantPermission(... */\n    tag_6:\n      tag_29\n      0x04\n      dup1\n      calldatasize\n      sub\n      dup2\n      add\n      swap1\n      tag_30\n      swap2\n      swap1\n      tag_31\n      jump\t// in\n    tag_30:\n      tag_32\n      jump\t// in\n    tag_29:\n      stop\n        /* \"PatienrReg.sol\":2017:2323  function validatePassword(string memory _hhNumber, string memory _password) external view returns (bool) {... */\n    tag_7:\n      tag_33\n      0x04\n      dup1\n      calldatasize\n      sub\n      dup2\n      add\n      swap1\n      tag_34\n      swap2\n      swap1\n      tag_16\n      jump\t// in\n    tag_34:\n      tag_35\n      jump\t// in\n    tag_33:\n      mload(0x40)\n      tag_36\n      swap2\n      swap1\n      tag_19\n      jump\t// in\n    tag_36:\n      mload(0x40)\n      dup1\n      swap2\n      sub\n      swap1\n      return\n        /* \"PatienrReg.sol\":4148:4296  function getPatientList(string memory _doctorNumber) public view returns (PatientList[] memory) {... */\n    tag_8:\n      tag_37\n      0x04\n      dup1\n      calldatasize\n      sub\n      dup2\n      add\n      swap1\n      tag_38\n      swap2\n      swap1\n      tag_22\n      jump\t// in\n    tag_38:\n      tag_39\n      jump\t// in\n    tag_37:\n      mload(0x40)\n      tag_40\n      swap2\n      swap1\n      tag_41\n      jump\t// in\n    tag_40:\n      mload(0x40)\n      dup1\n      swap2\n      sub\n      swap1\n      return\n        /* \"PatienrReg.sol\":520:562  mapping(string => Patient) public patients */\n    tag_9:\n      tag_42\n      0x04\n      dup1\n      calldatasize\n      sub\n      dup2\n      add\n      swap1\n      tag_43\n      swap2\n      swap1\n      tag_22\n      jump\t// in\n    tag_43:\n      tag_44\n      jump\t// in\n    tag_42:\n      mload(0x40)\n      tag_45\n      swap10\n      swap9\n      swap8\n      swap7\n      swap6\n      swap5\n      swap4\n      swap3\n      swap2\n      swap1\n      tag_46\n      jump\t// in\n    tag_45:\n      mload(0x40)\n      dup1\n      swap2\n      sub\n      swap1\n      return\n        /* \"PatienrReg.sol\":3950:4140  function isPermissionGranted(string memory _patientNumber,string memory _doctorNumber) external view returns (bool) {... */\n    tag_10:\n      tag_47\n      0x04\n      dup1\n      calldatasize\n      sub\n      dup2\n      add\n      swap1\n      tag_48\n      swap2\n      swap1\n      tag_16\n      jump\t// in\n    tag_48:\n      tag_49\n      jump\t// in\n    tag_47:\n      mload(0x40)\n      tag_50\n      swap2\n      swap1\n      tag_19\n      jump\t// in\n    tag_50:\n      mload(0x40)\n      dup1\n      swap2\n      sub\n      swap1\n      return\n        /* \"PatienrReg.sol\":2331:2901  function getPatientDetails(string memory _hhNumber) external view returns (... */\n    tag_11:\n      tag_51\n      0x04\n      dup1\n      calldatasize\n      sub\n      dup2\n      add\n      swap1\n      tag_52\n      swap2\n      swap1\n      tag_22\n      jump\t// in\n    tag_52:\n      tag_53\n      jump\t// in\n    tag_51:\n      mload(0x40)\n      tag_54\n      swap8\n      swap7\n      swap6\n      swap5\n      swap4\n      swap3\n      swap2\n      swap1\n      tag_55\n      jump\t// in\n    tag_54:\n      mload(0x40)\n      dup1\n      swap2\n      sub\n      swap1\n      return\n        /* \"PatienrReg.sol\":1812:1951  function isRegisteredPatient(string memory _hhNumber) external view returns (bool) {... */\n    tag_12:\n      tag_56\n      0x04\n      dup1\n      calldatasize\n      sub\n      dup2\n      add\n      swap1\n      tag_57\n      swap2\n      swap1\n      tag_22\n      jump\t// in\n    tag_57:\n      tag_58\n      jump\t// in\n    tag_56:\n      mload(0x40)\n      tag_59\n      swap2\n      swap1\n      tag_19\n      jump\t// in\n    tag_59:\n      mload(0x40)\n      dup1\n      swap2\n      sub\n      swap1\n      return\n        /* \"PatienrReg.sol\":628:695  mapping(string => mapping(string => bool)) public doctorPermissions */\n    tag_17:\n      0x03\n      dup3\n      dup1\n      mload\n      0x20\n      dup2\n      add\n      dup3\n      add\n      dup1\n      mload\n      dup5\n      dup3\n      mstore\n      0x20\n      dup4\n      add\n      0x20\n      dup6\n      add\n      keccak256\n      dup2\n      dup4\n      mstore\n      dup1\n      swap6\n      pop\n      pop\n      pop\n      pop\n      pop\n      pop\n      dup2\n      dup1\n      mload\n      0x20\n      dup2\n      add\n      dup3\n      add\n      dup1\n      mload\n      dup5\n      dup3\n      mstore\n      0x20\n      dup4\n      add\n      0x20\n      dup6\n      add\n      keccak256\n      dup2\n      dup4\n      mstore\n      dup1\n      swap6\n      pop\n      pop\n      pop\n      pop\n      pop\n      pop\n      0x00\n      swap2\n      pop\n      swap2\n      pop\n      swap1\n      sload\n      swap1\n      0x0100\n      exp\n      swap1\n      div\n      0xff\n      and\n      dup2\n      jump\t// out\n        /* \"PatienrReg.sol\":463:513  mapping(string => bool) public isPatientRegistered */\n    tag_23:\n      0x00\n      dup2\n      dup1\n      mload\n      0x20\n      dup2\n      add\n      dup3\n      add\n      dup1\n      mload\n      dup5\n      dup3\n      mstore\n      0x20\n      dup4\n      add\n      0x20\n      dup6\n      add\n      keccak256\n      dup2\n      dup4\n      mstore\n      dup1\n      swap6\n      pop\n      pop\n      pop\n      pop\n      pop\n      pop\n      0x00\n      swap2\n      pop\n      sload\n      swap1\n      0x0100\n      exp\n      swap1\n      div\n      0xff\n      and\n      dup2\n      jump\t// out\n        /* \"PatienrReg.sol\":789:1804  function registerPatient(... */\n    tag_28:\n        /* \"PatienrReg.sol\":1156:1175  isPatientRegistered */\n      0x00\n        /* \"PatienrReg.sol\":1176:1185  _hhNumber */\n      dup3\n        /* \"PatienrReg.sol\":1156:1186  isPatientRegistered[_hhNumber] */\n      mload(0x40)\n      tag_61\n      swap2\n      swap1\n      tag_62\n      jump\t// in\n    tag_61:\n      swap1\n      dup2\n      mstore\n      0x20\n      add\n      mload(0x40)\n      dup1\n      swap2\n      sub\n      swap1\n      keccak256\n      0x00\n      swap1\n      sload\n      swap1\n      0x0100\n      exp\n      swap1\n      div\n      0xff\n      and\n        /* \"PatienrReg.sol\":1155:1186  !isPatientRegistered[_hhNumber] */\n      iszero\n        /* \"PatienrReg.sol\":1147:1217  require(!isPatientRegistered[_hhNumber], \"Patient already registered\") */\n      tag_63\n      jumpi\n      mload(0x40)\n      0x08c379a000000000000000000000000000000000000000000000000000000000\n      dup2\n      mstore\n      0x04\n      add\n      tag_64\n      swap1\n      tag_65\n      jump\t// in\n    tag_64:\n      mload(0x40)\n      dup1\n      swap2\n      sub\n      swap1\n      revert\n    tag_63:\n        /* \"PatienrReg.sol\":1230:1255  Patient memory newPatient */\n      0x00\n        /* \"PatienrReg.sol\":1258:1636  Patient({... */\n      mload(0x40)\n      dup1\n      0x0120\n      add\n      0x40\n      mstore\n      dup1\n        /* \"PatienrReg.sol\":1296:1310  _walletAddress */\n      dup12\n        /* \"PatienrReg.sol\":1258:1636  Patient({... */\n      0xffffffffffffffffffffffffffffffffffffffff\n      and\n      dup2\n      mstore\n      0x20\n      add\n        /* \"PatienrReg.sol\":1331:1336  _name */\n      dup11\n        /* \"PatienrReg.sol\":1258:1636  Patient({... */\n      dup2\n      mstore\n      0x20\n      add\n        /* \"PatienrReg.sol\":1364:1376  _dateOfBirth */\n      dup10\n        /* \"PatienrReg.sol\":1258:1636  Patient({... */\n      dup2\n      mstore\n      0x20\n      add\n        /* \"PatienrReg.sol\":1399:1406  _gender */\n      dup9\n        /* \"PatienrReg.sol\":1258:1636  Patient({... */\n      dup2\n      mstore\n      0x20\n      add\n        /* \"PatienrReg.sol\":1433:1444  _bloodGroup */\n      dup8\n        /* \"PatienrReg.sol\":1258:1636  Patient({... */\n      dup2\n      mstore\n      0x20\n      add\n        /* \"PatienrReg.sol\":1472:1484  _homeAddress */\n      dup7\n        /* \"PatienrReg.sol\":1258:1636  Patient({... */\n      dup2\n      mstore\n      0x20\n      add\n        /* \"PatienrReg.sol\":1506:1512  _email */\n      dup6\n        /* \"PatienrReg.sol\":1258:1636  Patient({... */\n      dup2\n      mstore\n      0x20\n      add\n        /* \"PatienrReg.sol\":1541:1550  _hhNumber */\n      dup5\n        /* \"PatienrReg.sol\":1258:1636  Patient({... */\n      dup2\n      mstore\n      0x20\n      add\n        /* \"PatienrReg.sol\":1583:1592  _password */\n      dup4\n        /* \"PatienrReg.sol\":1258:1636  Patient({... */\n      dup2\n      mstore\n      pop\n        /* \"PatienrReg.sol\":1230:1636  Patient memory newPatient = Patient({... */\n      swap1\n      pop\n        /* \"PatienrReg.sol\":1671:1681  newPatient */\n      dup1\n        /* \"PatienrReg.sol\":1649:1657  patients */\n      0x01\n        /* \"PatienrReg.sol\":1658:1667  _hhNumber */\n      dup5\n        /* \"PatienrReg.sol\":1649:1668  patients[_hhNumber] */\n      mload(0x40)\n      tag_66\n      swap2\n      swap1\n      tag_62\n      jump\t// in\n    tag_66:\n      swap1\n      dup2\n      mstore\n      0x20\n      add\n      mload(0x40)\n      dup1\n      swap2\n      sub\n      swap1\n      keccak256\n        /* \"PatienrReg.sol\":1649:1681  patients[_hhNumber] = newPatient */\n      0x00\n      dup3\n      add\n      mload\n      dup2\n      0x00\n      add\n      exp(0x0100, 0x00)\n      dup2\n      sload\n      dup2\n      0xffffffffffffffffffffffffffffffffffffffff\n      mul\n      not\n      and\n      swap1\n      dup4\n      0xffffffffffffffffffffffffffffffffffffffff\n      and\n      mul\n      or\n      swap1\n      sstore\n      pop\n      0x20\n      dup3\n      add\n      mload\n      dup2\n      0x01\n      add\n      swap1\n      dup2\n      tag_67\n      swap2\n      swap1\n      tag_68\n      jump\t// in\n    tag_67:\n      pop\n      0x40\n      dup3\n      add\n      mload\n      dup2\n      0x02\n      add\n      swap1\n      dup2\n      tag_69\n      swap2\n      swap1\n      tag_68\n      jump\t// in\n    tag_69:\n      pop\n      0x60\n      dup3\n      add\n      mload\n      dup2\n      0x03\n      add\n      swap1\n      dup2\n      tag_70\n      swap2\n      swap1\n      tag_68\n      jump\t// in\n    tag_70:\n      pop\n      0x80\n      dup3\n      add\n      mload\n      dup2\n      0x04\n      add\n      swap1\n      dup2\n      tag_71\n      swap2\n      swap1\n      tag_68\n      jump\t// in\n    tag_71:\n      pop\n      0xa0\n      dup3\n      add\n      mload\n      dup2\n      0x05\n      add\n      swap1\n      dup2\n      tag_72\n      swap2\n      swap1\n      tag_68\n      jump\t// in\n    tag_72:\n      pop\n      0xc0\n      dup3\n      add\n      mload\n      dup2\n      0x06\n      add\n      swap1\n      dup2\n      tag_73\n      swap2\n      swap1\n      tag_68\n      jump\t// in\n    tag_73:\n      pop\n      0xe0\n      dup3\n      add\n      mload\n      dup2\n      0x07\n      add\n      swap1\n      dup2\n      tag_74\n      swap2\n      swap1\n      tag_68\n      jump\t// in\n    tag_74:\n      pop\n      0x0100\n      dup3\n      add\n      mload\n      dup2\n      0x08\n      add\n      swap1\n      dup2\n      tag_75\n      swap2\n      swap1\n      tag_68\n      jump\t// in\n    tag_75:\n      pop\n      swap1\n      pop\n      pop\n        /* \"PatienrReg.sol\":1725:1729  true */\n      0x01\n        /* \"PatienrReg.sol\":1692:1711  isPatientRegistered */\n      0x00\n        /* \"PatienrReg.sol\":1712:1721  _hhNumber */\n      dup5\n        /* \"PatienrReg.sol\":1692:1722  isPatientRegistered[_hhNumber] */\n      mload(0x40)\n      tag_76\n      swap2\n      swap1\n      tag_62\n      jump\t// in\n    tag_76:\n      swap1\n      dup2\n      mstore\n      0x20\n      add\n      mload(0x40)\n      dup1\n      swap2\n      sub\n      swap1\n      keccak256\n      0x00\n        /* \"PatienrReg.sol\":1692:1729  isPatientRegistered[_hhNumber] = true */\n      0x0100\n      exp\n      dup2\n      sload\n      dup2\n      0xff\n      mul\n      not\n      and\n      swap1\n      dup4\n      iszero\n      iszero\n      mul\n      or\n      swap1\n      sstore\n      pop\n        /* \"PatienrReg.sol\":1745:1796  PatientRegistered(_hhNumber, _name, _walletAddress) */\n      0x319ae3a95b9a410d647835a7e64d54ddf28faf35a698f0a2b63999585fa38edc\n        /* \"PatienrReg.sol\":1763:1772  _hhNumber */\n      dup4\n        /* \"PatienrReg.sol\":1774:1779  _name */\n      dup11\n        /* \"PatienrReg.sol\":1781:1795  _walletAddress */\n      dup13\n        /* \"PatienrReg.sol\":1745:1796  PatientRegistered(_hhNumber, _name, _walletAddress) */\n      mload(0x40)\n      tag_77\n      swap4\n      swap3\n      swap2\n      swap1\n      tag_78\n      jump\t// in\n    tag_77:\n      mload(0x40)\n      dup1\n      swap2\n      sub\n      swap1\n      log1\n        /* \"PatienrReg.sol\":1136:1804  {... */\n      pop\n        /* \"PatienrReg.sol\":789:1804  function registerPatient(... */\n      pop\n      pop\n      pop\n      pop\n      pop\n      pop\n      pop\n      pop\n      pop\n      jump\t// out\n        /* \"PatienrReg.sol\":2909:3942  function grantPermission(... */\n    tag_32:\n        /* \"PatienrReg.sol\":3084:3101  doctorPermissions */\n      0x03\n        /* \"PatienrReg.sol\":3102:3116  _patientNumber */\n      dup4\n        /* \"PatienrReg.sol\":3084:3117  doctorPermissions[_patientNumber] */\n      mload(0x40)\n      tag_80\n      swap2\n      swap1\n      tag_62\n      jump\t// in\n    tag_80:\n      swap1\n      dup2\n      mstore\n      0x20\n      add\n      mload(0x40)\n      dup1\n      swap2\n      sub\n      swap1\n      keccak256\n        /* \"PatienrReg.sol\":3118:3131  _doctorNumber */\n      dup3\n        /* \"PatienrReg.sol\":3084:3132  doctorPermissions[_patientNumber][_doctorNumber] */\n      mload(0x40)\n      tag_81\n      swap2\n      swap1\n      tag_62\n      jump\t// in\n    tag_81:\n      swap1\n      dup2\n      mstore\n      0x20\n      add\n      mload(0x40)\n      dup1\n      swap2\n      sub\n      swap1\n      keccak256\n      0x00\n      swap1\n      sload\n      swap1\n      0x0100\n      exp\n      swap1\n      div\n      0xff\n      and\n        /* \"PatienrReg.sol\":3083:3132  !doctorPermissions[_patientNumber][_doctorNumber] */\n      iszero\n        /* \"PatienrReg.sol\":3075:3177  require(!doctorPermissions[_patientNumber][_doctorNumber], \"View Access already given to the Doctor!\") */\n      tag_82\n      jumpi\n      mload(0x40)\n      0x08c379a000000000000000000000000000000000000000000000000000000000\n      dup2\n      mstore\n      0x04\n      add\n      tag_83\n      swap1\n      tag_84\n      jump\t// in\n    tag_83:\n      mload(0x40)\n      dup1\n      swap2\n      sub\n      swap1\n      revert\n    tag_82:\n        /* \"PatienrReg.sol\":3255:3266  bool exists */\n      0x00\n        /* \"PatienrReg.sol\":3269:3274  false */\n      0x00\n        /* \"PatienrReg.sol\":3255:3274  bool exists = false */\n      swap1\n      pop\n        /* \"PatienrReg.sol\":3290:3296  uint i */\n      0x00\n        /* \"PatienrReg.sol\":3299:3300  0 */\n      0x00\n        /* \"PatienrReg.sol\":3290:3300  uint i = 0 */\n      swap1\n      pop\n        /* \"PatienrReg.sol\":3285:3570  for (uint i = 0; i < Dpermission[_doctorNumber].length; i++) {... */\n    tag_85:\n        /* \"PatienrReg.sol\":3306:3317  Dpermission */\n      0x02\n        /* \"PatienrReg.sol\":3318:3331  _doctorNumber */\n      dup5\n        /* \"PatienrReg.sol\":3306:3332  Dpermission[_doctorNumber] */\n      mload(0x40)\n      tag_88\n      swap2\n      swap1\n      tag_62\n      jump\t// in\n    tag_88:\n      swap1\n      dup2\n      mstore\n      0x20\n      add\n      mload(0x40)\n      dup1\n      swap2\n      sub\n      swap1\n      keccak256\n        /* \"PatienrReg.sol\":3306:3339  Dpermission[_doctorNumber].length */\n      dup1\n      sload\n      swap1\n      pop\n        /* \"PatienrReg.sol\":3302:3303  i */\n      dup2\n        /* \"PatienrReg.sol\":3302:3339  i < Dpermission[_doctorNumber].length */\n      lt\n        /* \"PatienrReg.sol\":3285:3570  for (uint i = 0; i < Dpermission[_doctorNumber].length; i++) {... */\n      iszero\n      tag_86\n      jumpi\n        /* \"PatienrReg.sol\":3469:3483  _patientNumber */\n      dup5\n        /* \"PatienrReg.sol\":3452:3484  abi.encodePacked(_patientNumber) */\n      add(0x20, mload(0x40))\n      tag_89\n      swap2\n      swap1\n      tag_62\n      jump\t// in\n    tag_89:\n      mload(0x40)\n      0x20\n      dup2\n      dup4\n      sub\n      sub\n      dup2\n      mstore\n      swap1\n      0x40\n      mstore\n        /* \"PatienrReg.sol\":3442:3485  keccak256(abi.encodePacked(_patientNumber)) */\n      dup1\n      mload\n      swap1\n      0x20\n      add\n      keccak256\n        /* \"PatienrReg.sol\":3392:3403  Dpermission */\n      0x02\n        /* \"PatienrReg.sol\":3404:3417  _doctorNumber */\n      dup6\n        /* \"PatienrReg.sol\":3392:3418  Dpermission[_doctorNumber] */\n      mload(0x40)\n      tag_90\n      swap2\n      swap1\n      tag_62\n      jump\t// in\n    tag_90:\n      swap1\n      dup2\n      mstore\n      0x20\n      add\n      mload(0x40)\n      dup1\n      swap2\n      sub\n      swap1\n      keccak256\n        /* \"PatienrReg.sol\":3419:3420  i */\n      dup3\n        /* \"PatienrReg.sol\":3392:3421  Dpermission[_doctorNumber][i] */\n      dup2\n      sload\n      dup2\n      lt\n      tag_91\n      jumpi\n      tag_92\n      tag_93\n      jump\t// in\n    tag_92:\n    tag_91:\n      swap1\n      0x00\n      mstore\n      keccak256(0x00, 0x20)\n      swap1\n      0x02\n      mul\n      add\n        /* \"PatienrReg.sol\":3392:3436  Dpermission[_doctorNumber][i].patient_number */\n      0x00\n      add\n        /* \"PatienrReg.sol\":3375:3437  abi.encodePacked(Dpermission[_doctorNumber][i].patient_number) */\n      add(0x20, mload(0x40))\n      tag_95\n      swap2\n      swap1\n      tag_96\n      jump\t// in\n    tag_95:\n      mload(0x40)\n      0x20\n      dup2\n      dup4\n      sub\n      sub\n      dup2\n      mstore\n      swap1\n      0x40\n      mstore\n        /* \"PatienrReg.sol\":3365:3438  keccak256(abi.encodePacked(Dpermission[_doctorNumber][i].patient_number)) */\n      dup1\n      mload\n      swap1\n      0x20\n      add\n      keccak256\n        /* \"PatienrReg.sol\":3365:3485  keccak256(abi.encodePacked(Dpermission[_doctorNumber][i].patient_number)) == keccak256(abi.encodePacked(_patientNumber)) */\n      sub\n        /* \"PatienrReg.sol\":3361:3559  if (keccak256(abi.encodePacked(Dpermission[_doctorNumber][i].patient_number)) == keccak256(abi.encodePacked(_patientNumber))) {... */\n      tag_97\n      jumpi\n        /* \"PatienrReg.sol\":3515:3519  true */\n      0x01\n        /* \"PatienrReg.sol\":3506:3519  exists = true */\n      swap2\n      pop\n        /* \"PatienrReg.sol\":3538:3543  break */\n      jump(tag_86)\n        /* \"PatienrReg.sol\":3361:3559  if (keccak256(abi.encodePacked(Dpermission[_doctorNumber][i].patient_number)) == keccak256(abi.encodePacked(_patientNumber))) {... */\n    tag_97:\n        /* \"PatienrReg.sol\":3341:3344  i++ */\n      dup1\n      dup1\n      0x01\n      add\n      swap2\n      pop\n      pop\n        /* \"PatienrReg.sol\":3285:3570  for (uint i = 0; i < Dpermission[_doctorNumber].length; i++) {... */\n      jump(tag_85)\n    tag_86:\n      pop\n        /* \"PatienrReg.sol\":3656:3662  exists */\n      dup1\n        /* \"PatienrReg.sol\":3651:3869  if (!exists) {... */\n      tag_98\n      jumpi\n        /* \"PatienrReg.sol\":3679:3707  PatientList memory newRecord */\n      0x00\n        /* \"PatienrReg.sol\":3710:3800  PatientList(... */\n      mload(0x40)\n      dup1\n      0x40\n      add\n      0x40\n      mstore\n      dup1\n        /* \"PatienrReg.sol\":3740:3754  _patientNumber */\n      dup7\n        /* \"PatienrReg.sol\":3710:3800  PatientList(... */\n      dup2\n      mstore\n      0x20\n      add\n        /* \"PatienrReg.sol\":3773:3785  _patientName */\n      dup5\n        /* \"PatienrReg.sol\":3710:3800  PatientList(... */\n      dup2\n      mstore\n      pop\n        /* \"PatienrReg.sol\":3679:3800  PatientList memory newRecord = PatientList(... */\n      swap1\n      pop\n        /* \"PatienrReg.sol\":3815:3826  Dpermission */\n      0x02\n        /* \"PatienrReg.sol\":3827:3840  _doctorNumber */\n      dup5\n        /* \"PatienrReg.sol\":3815:3841  Dpermission[_doctorNumber] */\n      mload(0x40)\n      tag_99\n      swap2\n      swap1\n      tag_62\n      jump\t// in\n    tag_99:\n      swap1\n      dup2\n      mstore\n      0x20\n      add\n      mload(0x40)\n      dup1\n      swap2\n      sub\n      swap1\n      keccak256\n        /* \"PatienrReg.sol\":3847:3856  newRecord */\n      dup2\n        /* \"PatienrReg.sol\":3815:3857  Dpermission[_doctorNumber].push(newRecord) */\n      swap1\n      dup1\n      0x01\n      dup2\n      sload\n      add\n      dup1\n      dup3\n      sstore\n      dup1\n      swap2\n      pop\n      pop\n      0x01\n      swap1\n      sub\n      swap1\n      0x00\n      mstore\n      keccak256(0x00, 0x20)\n      swap1\n      0x02\n      mul\n      add\n      0x00\n      swap1\n      swap2\n      swap1\n      swap2\n      swap1\n      swap2\n      pop\n      0x00\n      dup3\n      add\n      mload\n      dup2\n      0x00\n      add\n      swap1\n      dup2\n      tag_101\n      swap2\n      swap1\n      tag_68\n      jump\t// in\n    tag_101:\n      pop\n      0x20\n      dup3\n      add\n      mload\n      dup2\n      0x01\n      add\n      swap1\n      dup2\n      tag_102\n      swap2\n      swap1\n      tag_68\n      jump\t// in\n    tag_102:\n      pop\n      pop\n      pop\n        /* \"PatienrReg.sol\":3664:3869  {... */\n      pop\n        /* \"PatienrReg.sol\":3651:3869  if (!exists) {... */\n    tag_98:\n        /* \"PatienrReg.sol\":3930:3934  true */\n      0x01\n        /* \"PatienrReg.sol\":3879:3896  doctorPermissions */\n      0x03\n        /* \"PatienrReg.sol\":3897:3911  _patientNumber */\n      dup6\n        /* \"PatienrReg.sol\":3879:3912  doctorPermissions[_patientNumber] */\n      mload(0x40)\n      tag_103\n      swap2\n      swap1\n      tag_62\n      jump\t// in\n    tag_103:\n      swap1\n      dup2\n      mstore\n      0x20\n      add\n      mload(0x40)\n      dup1\n      swap2\n      sub\n      swap1\n      keccak256\n        /* \"PatienrReg.sol\":3913:3926  _doctorNumber */\n      dup5\n        /* \"PatienrReg.sol\":3879:3927  doctorPermissions[_patientNumber][_doctorNumber] */\n      mload(0x40)\n      tag_104\n      swap2\n      swap1\n      tag_62\n      jump\t// in\n    tag_104:\n      swap1\n      dup2\n      mstore\n      0x20\n      add\n      mload(0x40)\n      dup1\n      swap2\n      sub\n      swap1\n      keccak256\n      0x00\n        /* \"PatienrReg.sol\":3879:3934  doctorPermissions[_patientNumber][_doctorNumber] = true */\n      0x0100\n      exp\n      dup2\n      sload\n      dup2\n      0xff\n      mul\n      not\n      and\n      swap1\n      dup4\n      iszero\n      iszero\n      mul\n      or\n      swap1\n      sstore\n      pop\n        /* \"PatienrReg.sol\":3064:3942  {... */\n      pop\n        /* \"PatienrReg.sol\":2909:3942  function grantPermission(... */\n      pop\n      pop\n      pop\n      jump\t// out\n        /* \"PatienrReg.sol\":2017:2323  function validatePassword(string memory _hhNumber, string memory _password) external view returns (bool) {... */\n    tag_35:\n        /* \"PatienrReg.sol\":2116:2120  bool */\n      0x00\n        /* \"PatienrReg.sol\":2141:2160  isPatientRegistered */\n      0x00\n        /* \"PatienrReg.sol\":2161:2170  _hhNumber */\n      dup4\n        /* \"PatienrReg.sol\":2141:2171  isPatientRegistered[_hhNumber] */\n      mload(0x40)\n      tag_106\n      swap2\n      swap1\n      tag_62\n      jump\t// in\n    tag_106:\n      swap1\n      dup2\n      mstore\n      0x20\n      add\n      mload(0x40)\n      dup1\n      swap2\n      sub\n      swap1\n      keccak256\n      0x00\n      swap1\n      sload\n      swap1\n      0x0100\n      exp\n      swap1\n      div\n      0xff\n      and\n        /* \"PatienrReg.sol\":2133:2198  require(isPatientRegistered[_hhNumber], \"Patient not registered\") */\n      tag_107\n      jumpi\n      mload(0x40)\n      0x08c379a000000000000000000000000000000000000000000000000000000000\n      dup2\n      mstore\n      0x04\n      add\n      tag_108\n      swap1\n      tag_109\n      jump\t// in\n    tag_108:\n      mload(0x40)\n      dup1\n      swap2\n      sub\n      swap1\n      revert\n    tag_107:\n        /* \"PatienrReg.sol\":2285:2293  patients */\n      0x01\n        /* \"PatienrReg.sol\":2294:2303  _hhNumber */\n      dup4\n        /* \"PatienrReg.sol\":2285:2304  patients[_hhNumber] */\n      mload(0x40)\n      tag_110\n      swap2\n      swap1\n      tag_62\n      jump\t// in\n    tag_110:\n      swap1\n      dup2\n      mstore\n      0x20\n      add\n      mload(0x40)\n      dup1\n      swap2\n      sub\n      swap1\n      keccak256\n        /* \"PatienrReg.sol\":2285:2313  patients[_hhNumber].password */\n      0x08\n      add\n        /* \"PatienrReg.sol\":2268:2314  abi.encodePacked(patients[_hhNumber].password) */\n      add(0x20, mload(0x40))\n      tag_111\n      swap2\n      swap1\n      tag_96\n      jump\t// in\n    tag_111:\n      mload(0x40)\n      0x20\n      dup2\n      dup4\n      sub\n      sub\n      dup2\n      mstore\n      swap1\n      0x40\n      mstore\n        /* \"PatienrReg.sol\":2258:2315  keccak256(abi.encodePacked(patients[_hhNumber].password)) */\n      dup1\n      mload\n      swap1\n      0x20\n      add\n      keccak256\n        /* \"PatienrReg.sol\":2243:2252  _password */\n      dup3\n        /* \"PatienrReg.sol\":2226:2253  abi.encodePacked(_password) */\n      add(0x20, mload(0x40))\n      tag_112\n      swap2\n      swap1\n      tag_62\n      jump\t// in\n    tag_112:\n      mload(0x40)\n      0x20\n      dup2\n      dup4\n      sub\n      sub\n      dup2\n      mstore\n      swap1\n      0x40\n      mstore\n        /* \"PatienrReg.sol\":2216:2254  keccak256(abi.encodePacked(_password)) */\n      dup1\n      mload\n      swap1\n      0x20\n      add\n      keccak256\n        /* \"PatienrReg.sol\":2216:2315  keccak256(abi.encodePacked(_password)) == keccak256(abi.encodePacked(patients[_hhNumber].password)) */\n      eq\n        /* \"PatienrReg.sol\":2209:2315  return keccak256(abi.encodePacked(_password)) == keccak256(abi.encodePacked(patients[_hhNumber].password)) */\n      swap1\n      pop\n        /* \"PatienrReg.sol\":2017:2323  function validatePassword(string memory _hhNumber, string memory _password) external view returns (bool) {... */\n      swap3\n      swap2\n      pop\n      pop\n      jump\t// out\n        /* \"PatienrReg.sol\":4148:4296  function getPatientList(string memory _doctorNumber) public view returns (PatientList[] memory) {... */\n    tag_39:\n        /* \"PatienrReg.sol\":4222:4242  PatientList[] memory */\n      0x60\n        /* \"PatienrReg.sol\":4262:4273  Dpermission */\n      0x02\n        /* \"PatienrReg.sol\":4274:4287  _doctorNumber */\n      dup3\n        /* \"PatienrReg.sol\":4262:4288  Dpermission[_doctorNumber] */\n      mload(0x40)\n      tag_114\n      swap2\n      swap1\n      tag_62\n      jump\t// in\n    tag_114:\n      swap1\n      dup2\n      mstore\n      0x20\n      add\n      mload(0x40)\n      dup1\n      swap2\n      sub\n      swap1\n      keccak256\n        /* \"PatienrReg.sol\":4255:4288  return Dpermission[_doctorNumber] */\n      dup1\n      sload\n      dup1\n      0x20\n      mul\n      0x20\n      add\n      mload(0x40)\n      swap1\n      dup2\n      add\n      0x40\n      mstore\n      dup1\n      swap3\n      swap2\n      swap1\n      dup2\n      dup2\n      mstore\n      0x20\n      add\n      0x00\n      swap1\n    tag_115:\n      dup3\n      dup3\n      lt\n      iszero\n      tag_116\n      jumpi\n      dup4\n      dup3\n      swap1\n      0x00\n      mstore\n      keccak256(0x00, 0x20)\n      swap1\n      0x02\n      mul\n      add\n      mload(0x40)\n      dup1\n      0x40\n      add\n      0x40\n      mstore\n      swap1\n      dup2\n      0x00\n      dup3\n      add\n      dup1\n      sload\n      tag_118\n      swap1\n      tag_119\n      jump\t// in\n    tag_118:\n      dup1\n      0x1f\n      add\n      0x20\n      dup1\n      swap2\n      div\n      mul\n      0x20\n      add\n      mload(0x40)\n      swap1\n      dup2\n      add\n      0x40\n      mstore\n      dup1\n      swap3\n      swap2\n      swap1\n      dup2\n      dup2\n      mstore\n      0x20\n      add\n      dup3\n      dup1\n      sload\n      tag_120\n      swap1\n      tag_119\n      jump\t// in\n    tag_120:\n      dup1\n      iszero\n      tag_121\n      jumpi\n      dup1\n      0x1f\n      lt\n      tag_122\n      jumpi\n      0x0100\n      dup1\n      dup4\n      sload\n      div\n      mul\n      dup4\n      mstore\n      swap2\n      0x20\n      add\n      swap2\n      jump(tag_121)\n    tag_122:\n      dup3\n      add\n      swap2\n      swap1\n      0x00\n      mstore\n      keccak256(0x00, 0x20)\n      swap1\n    tag_123:\n      dup2\n      sload\n      dup2\n      mstore\n      swap1\n      0x01\n      add\n      swap1\n      0x20\n      add\n      dup1\n      dup4\n      gt\n      tag_123\n      jumpi\n      dup3\n      swap1\n      sub\n      0x1f\n      and\n      dup3\n      add\n      swap2\n    tag_121:\n      pop\n      pop\n      pop\n      pop\n      pop\n      dup2\n      mstore\n      0x20\n      add\n      0x01\n      dup3\n      add\n      dup1\n      sload\n      tag_124\n      swap1\n      tag_119\n      jump\t// in\n    tag_124:\n      dup1\n      0x1f\n      add\n      0x20\n      dup1\n      swap2\n      div\n      mul\n      0x20\n      add\n      mload(0x40)\n      swap1\n      dup2\n      add\n      0x40\n      mstore\n      dup1\n      swap3\n      swap2\n      swap1\n      dup2\n      dup2\n      mstore\n      0x20\n      add\n      dup3\n      dup1\n      sload\n      tag_125\n      swap1\n      tag_119\n      jump\t// in\n    tag_125:\n      dup1\n      iszero\n      tag_126\n      jumpi\n      dup1\n      0x1f\n      lt\n      tag_127\n      jumpi\n      0x0100\n      dup1\n      dup4\n      sload\n      div\n      mul\n      dup4\n      mstore\n      swap2\n      0x20\n      add\n      swap2\n      jump(tag_126)\n    tag_127:\n      dup3\n      add\n      swap2\n      swap1\n      0x00\n      mstore\n      keccak256(0x00, 0x20)\n      swap1\n    tag_128:\n      dup2\n      sload\n      dup2\n      mstore\n      swap1\n      0x01\n      add\n      swap1\n      0x20\n      add\n      dup1\n      dup4\n      gt\n      tag_128\n      jumpi\n      dup3\n      swap1\n      sub\n      0x1f\n      and\n      dup3\n      add\n      swap2\n    tag_126:\n      pop\n      pop\n      pop\n      pop\n      pop\n      dup2\n      mstore\n      pop\n      pop\n      dup2\n      mstore\n      0x20\n      add\n      swap1\n      0x01\n      add\n      swap1\n      jump(tag_115)\n    tag_116:\n      pop\n      pop\n      pop\n      pop\n      swap1\n      pop\n        /* \"PatienrReg.sol\":4148:4296  function getPatientList(string memory _doctorNumber) public view returns (PatientList[] memory) {... */\n      swap2\n      swap1\n      pop\n      jump\t// out\n        /* \"PatienrReg.sol\":520:562  mapping(string => Patient) public patients */\n    tag_44:\n      0x01\n      dup2\n      dup1\n      mload\n      0x20\n      dup2\n      add\n      dup3\n      add\n      dup1\n      mload\n      dup5\n      dup3\n      mstore\n      0x20\n      dup4\n      add\n      0x20\n      dup6\n      add\n      keccak256\n      dup2\n      dup4\n      mstore\n      dup1\n      swap6\n      pop\n      pop\n      pop\n      pop\n      pop\n      pop\n      0x00\n      swap2\n      pop\n      swap1\n      pop\n      dup1\n      0x00\n      add\n      0x00\n      swap1\n      sload\n      swap1\n      0x0100\n      exp\n      swap1\n      div\n      0xffffffffffffffffffffffffffffffffffffffff\n      and\n      swap1\n      dup1\n      0x01\n      add\n      dup1\n      sload\n      tag_129\n      swap1\n      tag_119\n      jump\t// in\n    tag_129:\n      dup1\n      0x1f\n      add\n      0x20\n      dup1\n      swap2\n      div\n      mul\n      0x20\n      add\n      mload(0x40)\n      swap1\n      dup2\n      add\n      0x40\n      mstore\n      dup1\n      swap3\n      swap2\n      swap1\n      dup2\n      dup2\n      mstore\n      0x20\n      add\n      dup3\n      dup1\n      sload\n      tag_130\n      swap1\n      tag_119\n      jump\t// in\n    tag_130:\n      dup1\n      iszero\n      tag_131\n      jumpi\n      dup1\n      0x1f\n      lt\n      tag_132\n      jumpi\n      0x0100\n      dup1\n      dup4\n      sload\n      div\n      mul\n      dup4\n      mstore\n      swap2\n      0x20\n      add\n      swap2\n      jump(tag_131)\n    tag_132:\n      dup3\n      add\n      swap2\n      swap1\n      0x00\n      mstore\n      keccak256(0x00, 0x20)\n      swap1\n    tag_133:\n      dup2\n      sload\n      dup2\n      mstore\n      swap1\n      0x01\n      add\n      swap1\n      0x20\n      add\n      dup1\n      dup4\n      gt\n      tag_133\n      jumpi\n      dup3\n      swap1\n      sub\n      0x1f\n      and\n      dup3\n      add\n      swap2\n    tag_131:\n      pop\n      pop\n      pop\n      pop\n      pop\n      swap1\n      dup1\n      0x02\n      add\n      dup1\n      sload\n      tag_134\n      swap1\n      tag_119\n      jump\t// in\n    tag_134:\n      dup1\n      0x1f\n      add\n      0x20\n      dup1\n      swap2\n      div\n      mul\n      0x20\n      add\n      mload(0x40)\n      swap1\n      dup2\n      add\n      0x40\n      mstore\n      dup1\n      swap3\n      swap2\n      swap1\n      dup2\n      dup2\n      mstore\n      0x20\n      add\n      dup3\n      dup1\n      sload\n      tag_135\n      swap1\n      tag_119\n      jump\t// in\n    tag_135:\n      dup1\n      iszero\n      tag_136\n      jumpi\n      dup1\n      0x1f\n      lt\n      tag_137\n      jumpi\n      0x0100\n      dup1\n      dup4\n      sload\n      div\n      mul\n      dup4\n      mstore\n      swap2\n      0x20\n      add\n      swap2\n      jump(tag_136)\n    tag_137:\n      dup3\n      add\n      swap2\n      swap1\n      0x00\n      mstore\n      keccak256(0x00, 0x20)\n      swap1\n    tag_138:\n      dup2\n      sload\n      dup2\n      mstore\n      swap1\n      0x01\n      add\n      swap1\n      0x20\n      add\n      dup1\n      dup4\n      gt\n      tag_138\n      jumpi\n      dup3\n      swap1\n      sub\n      0x1f\n      and\n      dup3\n      add\n      swap2\n    tag_136:\n      pop\n      pop\n      pop\n      pop\n      pop\n      swap1\n      dup1\n      0x03\n      add\n      dup1\n      sload\n      tag_139\n      swap1\n      tag_119\n      jump\t// in\n    tag_139:\n      dup1\n      0x1f\n      add\n      0x20\n      dup1\n      swap2\n      div\n      mul\n      0x20\n      add\n      mload(0x40)\n      swap1\n      dup2\n      add\n      0x40\n      mstore\n      dup1\n      swap3\n      swap2\n      swap1\n      dup2\n      dup2\n      mstore\n      0x20\n      add\n      dup3\n      dup1\n      sload\n      tag_140\n      swap1\n      tag_119\n      jump\t// in\n    tag_140:\n      dup1\n      iszero\n      tag_141\n      jumpi\n      dup1\n      0x1f\n      lt\n      tag_142\n      jumpi\n      0x0100\n      dup1\n      dup4\n      sload\n      div\n      mul\n      dup4\n      mstore\n      swap2\n      0x20\n      add\n      swap2\n      jump(tag_141)\n    tag_142:\n      dup3\n      add\n      swap2\n      swap1\n      0x00\n      mstore\n      keccak256(0x00, 0x20)\n      swap1\n    tag_143:\n      dup2\n      sload\n      dup2\n      mstore\n      swap1\n      0x01\n      add\n      swap1\n      0x20\n      add\n      dup1\n      dup4\n      gt\n      tag_143\n      jumpi\n      dup3\n      swap1\n      sub\n      0x1f\n      and\n      dup3\n      add\n      swap2\n    tag_141:\n      pop\n      pop\n      pop\n      pop\n      pop\n      swap1\n      dup1\n      0x04\n      add\n      dup1\n      sload\n      tag_144\n      swap1\n      tag_119\n      jump\t// in\n    tag_144:\n      dup1\n      0x1f\n      add\n      0x20\n      dup1\n      swap2\n      div\n      mul\n      0x20\n      add\n      mload(0x40)\n      swap1\n      dup2\n      add\n      0x40\n      mstore\n      dup1\n      swap3\n      swap2\n      swap1\n      dup2\n      dup2\n      mstore\n      0x20\n      add\n      dup3\n      dup1\n      sload\n      tag_145\n      swap1\n      tag_119\n      jump\t// in\n    tag_145:\n      dup1\n      iszero\n      tag_146\n      jumpi\n      dup1\n      0x1f\n      lt\n      tag_147\n      jumpi\n      0x0100\n      dup1\n      dup4\n      sload\n      div\n      mul\n      dup4\n      mstore\n      swap2\n      0x20\n      add\n      swap2\n      jump(tag_146)\n    tag_147:\n      dup3\n      add\n      swap2\n      swap1\n      0x00\n      mstore\n      keccak256(0x00, 0x20)\n      swap1\n    tag_148:\n      dup2\n      sload\n      dup2\n      mstore\n      swap1\n      0x01\n      add\n      swap1\n      0x20\n      add\n      dup1\n      dup4\n      gt\n      tag_148\n      jumpi\n      dup3\n      swap1\n      sub\n      0x1f\n      and\n      dup3\n      add\n      swap2\n    tag_146:\n      pop\n      pop\n      pop\n      pop\n      pop\n      swap1\n      dup1\n      0x05\n      add\n      dup1\n      sload\n      tag_149\n      swap1\n      tag_119\n      jump\t// in\n    tag_149:\n      dup1\n      0x1f\n      add\n      0x20\n      dup1\n      swap2\n      div\n      mul\n      0x20\n      add\n      mload(0x40)\n      swap1\n      dup2\n      add\n      0x40\n      mstore\n      dup1\n      swap3\n      swap2\n      swap1\n      dup2\n      dup2\n      mstore\n      0x20\n      add\n      dup3\n      dup1\n      sload\n      tag_150\n      swap1\n      tag_119\n      jump\t// in\n    tag_150:\n      dup1\n      iszero\n      tag_151\n      jumpi\n      dup1\n      0x1f\n      lt\n      tag_152\n      jumpi\n      0x0100\n      dup1\n      dup4\n      sload\n      div\n      mul\n      dup4\n      mstore\n      swap2\n      0x20\n      add\n      swap2\n      jump(tag_151)\n    tag_152:\n      dup3\n      add\n      swap2\n      swap1\n      0x00\n      mstore\n      keccak256(0x00, 0x20)\n      swap1\n    tag_153:\n      dup2\n      sload\n      dup2\n      mstore\n      swap1\n      0x01\n      add\n      swap1\n      0x20\n      add\n      dup1\n      dup4\n      gt\n      tag_153\n      jumpi\n      dup3\n      swap1\n      sub\n      0x1f\n      and\n      dup3\n      add\n      swap2\n    tag_151:\n      pop\n      pop\n      pop\n      pop\n      pop\n      swap1\n      dup1\n      0x06\n      add\n      dup1\n      sload\n      tag_154\n      swap1\n      tag_119\n      jump\t// in\n    tag_154:\n      dup1\n      0x1f\n      add\n      0x20\n      dup1\n      swap2\n      div\n      mul\n      0x20\n      add\n      mload(0x40)\n      swap1\n      dup2\n      add\n      0x40\n      mstore\n      dup1\n      swap3\n      swap2\n      swap1\n      dup2\n      dup2\n      mstore\n      0x20\n      add\n      dup3\n      dup1\n      sload\n      tag_155\n      swap1\n      tag_119\n      jump\t// in\n    tag_155:\n      dup1\n      iszero\n      tag_156\n      jumpi\n      dup1\n      0x1f\n      lt\n      tag_157\n      jumpi\n      0x0100\n      dup1\n      dup4\n      sload\n      div\n      mul\n      dup4\n      mstore\n      swap2\n      0x20\n      add\n      swap2\n      jump(tag_156)\n    tag_157:\n      dup3\n      add\n      swap2\n      swap1\n      0x00\n      mstore\n      keccak256(0x00, 0x20)\n      swap1\n    tag_158:\n      dup2\n      sload\n      dup2\n      mstore\n      swap1\n      0x01\n      add\n      swap1\n      0x20\n      add\n      dup1\n      dup4\n      gt\n      tag_158\n      jumpi\n      dup3\n      swap1\n      sub\n      0x1f\n      and\n      dup3\n      add\n      swap2\n    tag_156:\n      pop\n      pop\n      pop\n      pop\n      pop\n      swap1\n      dup1\n      0x07\n      add\n      dup1\n      sload\n      tag_159\n      swap1\n      tag_119\n      jump\t// in\n    tag_159:\n      dup1\n      0x1f\n      add\n      0x20\n      dup1\n      swap2\n      div\n      mul\n      0x20\n      add\n      mload(0x40)\n      swap1\n      dup2\n      add\n      0x40\n      mstore\n      dup1\n      swap3\n      swap2\n      swap1\n      dup2\n      dup2\n      mstore\n      0x20\n      add\n      dup3\n      dup1\n      sload\n      tag_160\n      swap1\n      tag_119\n      jump\t// in\n    tag_160:\n      dup1\n      iszero\n      tag_161\n      jumpi\n      dup1\n      0x1f\n      lt\n      tag_162\n      jumpi\n      0x0100\n      dup1\n      dup4\n      sload\n      div\n      mul\n      dup4\n      mstore\n      swap2\n      0x20\n      add\n      swap2\n      jump(tag_161)\n    tag_162:\n      dup3\n      add\n      swap2\n      swap1\n      0x00\n      mstore\n      keccak256(0x00, 0x20)\n      swap1\n    tag_163:\n      dup2\n      sload\n      dup2\n      mstore\n      swap1\n      0x01\n      add\n      swap1\n      0x20\n      add\n      dup1\n      dup4\n      gt\n      tag_163\n      jumpi\n      dup3\n      swap1\n      sub\n      0x1f\n      and\n      dup3\n      add\n      swap2\n    tag_161:\n      pop\n      pop\n      pop\n      pop\n      pop\n      swap1\n      dup1\n      0x08\n      add\n      dup1\n      sload\n      tag_164\n      swap1\n      tag_119\n      jump\t// in\n    tag_164:\n      dup1\n      0x1f\n      add\n      0x20\n      dup1\n      swap2\n      div\n      mul\n      0x20\n      add\n      mload(0x40)\n      swap1\n      dup2\n      add\n      0x40\n      mstore\n      dup1\n      swap3\n      swap2\n      swap1\n      dup2\n      dup2\n      mstore\n      0x20\n      add\n      dup3\n      dup1\n      sload\n      tag_165\n      swap1\n      tag_119\n      jump\t// in\n    tag_165:\n      dup1\n      iszero\n      tag_166\n      jumpi\n      dup1\n      0x1f\n      lt\n      tag_167\n      jumpi\n      0x0100\n      dup1\n      dup4\n      sload\n      div\n      mul\n      dup4\n      mstore\n      swap2\n      0x20\n      add\n      swap2\n      jump(tag_166)\n    tag_167:\n      dup3\n      add\n      swap2\n      swap1\n      0x00\n      mstore\n      keccak256(0x00, 0x20)\n      swap1\n    tag_168:\n      dup2\n      sload\n      dup2\n      mstore\n      swap1\n      0x01\n      add\n      swap1\n      0x20\n      add\n      dup1\n      dup4\n      gt\n      tag_168\n      jumpi\n      dup3\n      swap1\n      sub\n      0x1f\n      and\n      dup3\n      add\n      swap2\n    tag_166:\n      pop\n      pop\n      pop\n      pop\n      pop\n      swap1\n      pop\n      dup10\n      jump\t// out\n        /* \"PatienrReg.sol\":3950:4140  function isPermissionGranted(string memory _patientNumber,string memory _doctorNumber) external view returns (bool) {... */\n    tag_49:\n        /* \"PatienrReg.sol\":4060:4064  bool */\n      0x00\n        /* \"PatienrReg.sol\":4084:4101  doctorPermissions */\n      0x03\n        /* \"PatienrReg.sol\":4102:4116  _patientNumber */\n      dup4\n        /* \"PatienrReg.sol\":4084:4117  doctorPermissions[_patientNumber] */\n      mload(0x40)\n      tag_170\n      swap2\n      swap1\n      tag_62\n      jump\t// in\n    tag_170:\n      swap1\n      dup2\n      mstore\n      0x20\n      add\n      mload(0x40)\n      dup1\n      swap2\n      sub\n      swap1\n      keccak256\n        /* \"PatienrReg.sol\":4118:4131  _doctorNumber */\n      dup3\n        /* \"PatienrReg.sol\":4084:4132  doctorPermissions[_patientNumber][_doctorNumber] */\n      mload(0x40)\n      tag_171\n      swap2\n      swap1\n      tag_62\n      jump\t// in\n    tag_171:\n      swap1\n      dup2\n      mstore\n      0x20\n      add\n      mload(0x40)\n      dup1\n      swap2\n      sub\n      swap1\n      keccak256\n      0x00\n      swap1\n      sload\n      swap1\n      0x0100\n      exp\n      swap1\n      div\n      0xff\n      and\n        /* \"PatienrReg.sol\":4077:4132  return doctorPermissions[_patientNumber][_doctorNumber] */\n      swap1\n      pop\n        /* \"PatienrReg.sol\":3950:4140  function isPermissionGranted(string memory _patientNumber,string memory _doctorNumber) external view returns (bool) {... */\n      swap3\n      swap2\n      pop\n      pop\n      jump\t// out\n        /* \"PatienrReg.sol\":2331:2901  function getPatientDetails(string memory _hhNumber) external view returns (... */\n    tag_53:\n        /* \"PatienrReg.sol\":2412:2433  address walletAddress */\n      0x00\n        /* \"PatienrReg.sol\":2440:2458  string memory name */\n      0x60\n        /* \"PatienrReg.sol\":2465:2490  string memory dateOfBirth */\n      dup1\n        /* \"PatienrReg.sol\":2497:2517  string memory gender */\n      0x60\n        /* \"PatienrReg.sol\":2524:2548  string memory bloodGroup */\n      dup1\n        /* \"PatienrReg.sol\":2555:2580  string memory homeAddress */\n      0x60\n        /* \"PatienrReg.sol\":2587:2606  string memory email */\n      dup1\n        /* \"PatienrReg.sol\":2633:2652  isPatientRegistered */\n      0x00\n        /* \"PatienrReg.sol\":2653:2662  _hhNumber */\n      dup9\n        /* \"PatienrReg.sol\":2633:2663  isPatientRegistered[_hhNumber] */\n      mload(0x40)\n      tag_173\n      swap2\n      swap1\n      tag_62\n      jump\t// in\n    tag_173:\n      swap1\n      dup2\n      mstore\n      0x20\n      add\n      mload(0x40)\n      dup1\n      swap2\n      sub\n      swap1\n      keccak256\n      0x00\n      swap1\n      sload\n      swap1\n      0x0100\n      exp\n      swap1\n      div\n      0xff\n      and\n        /* \"PatienrReg.sol\":2625:2690  require(isPatientRegistered[_hhNumber], \"Patient not registered\") */\n      tag_174\n      jumpi\n      mload(0x40)\n      0x08c379a000000000000000000000000000000000000000000000000000000000\n      dup2\n      mstore\n      0x04\n      add\n      tag_175\n      swap1\n      tag_109\n      jump\t// in\n    tag_175:\n      mload(0x40)\n      dup1\n      swap2\n      sub\n      swap1\n      revert\n    tag_174:\n        /* \"PatienrReg.sol\":2701:2723  Patient memory patient */\n      0x00\n        /* \"PatienrReg.sol\":2726:2734  patients */\n      0x01\n        /* \"PatienrReg.sol\":2735:2744  _hhNumber */\n      dup10\n        /* \"PatienrReg.sol\":2726:2745  patients[_hhNumber] */\n      mload(0x40)\n      tag_176\n      swap2\n      swap1\n      tag_62\n      jump\t// in\n    tag_176:\n      swap1\n      dup2\n      mstore\n      0x20\n      add\n      mload(0x40)\n      dup1\n      swap2\n      sub\n      swap1\n      keccak256\n        /* \"PatienrReg.sol\":2701:2745  Patient memory patient = patients[_hhNumber] */\n      mload(0x40)\n      dup1\n      0x0120\n      add\n      0x40\n      mstore\n      swap1\n      dup2\n      0x00\n      dup3\n      add\n      0x00\n      swap1\n      sload\n      swap1\n      0x0100\n      exp\n      swap1\n      div\n      0xffffffffffffffffffffffffffffffffffffffff\n      and\n      0xffffffffffffffffffffffffffffffffffffffff\n      and\n      0xffffffffffffffffffffffffffffffffffffffff\n      and\n      dup2\n      mstore\n      0x20\n      add\n      0x01\n      dup3\n      add\n      dup1\n      sload\n      tag_177\n      swap1\n      tag_119\n      jump\t// in\n    tag_177:\n      dup1\n      0x1f\n      add\n      0x20\n      dup1\n      swap2\n      div\n      mul\n      0x20\n      add\n      mload(0x40)\n      swap1\n      dup2\n      add\n      0x40\n      mstore\n      dup1\n      swap3\n      swap2\n      swap1\n      dup2\n      dup2\n      mstore\n      0x20\n      add\n      dup3\n      dup1\n      sload\n      tag_178\n      swap1\n      tag_119\n      jump\t// in\n    tag_178:\n      dup1\n      iszero\n      tag_179\n      jumpi\n      dup1\n      0x1f\n      lt\n      tag_180\n      jumpi\n      0x0100\n      dup1\n      dup4\n      sload\n      div\n      mul\n      dup4\n      mstore\n      swap2\n      0x20\n      add\n      swap2\n      jump(tag_179)\n    tag_180:\n      dup3\n      add\n      swap2\n      swap1\n      0x00\n      mstore\n      keccak256(0x00, 0x20)\n      swap1\n    tag_181:\n      dup2\n      sload\n      dup2\n      mstore\n      swap1\n      0x01\n      add\n      swap1\n      0x20\n      add\n      dup1\n      dup4\n      gt\n      tag_181\n      jumpi\n      dup3\n      swap1\n      sub\n      0x1f\n      and\n      dup3\n      add\n      swap2\n    tag_179:\n      pop\n      pop\n      pop\n      pop\n      pop\n      dup2\n      mstore\n      0x20\n      add\n      0x02\n      dup3\n      add\n      dup1\n      sload\n      tag_182\n      swap1\n      tag_119\n      jump\t// in\n    tag_182:\n      dup1\n      0x1f\n      add\n      0x20\n      dup1\n      swap2\n      div\n      mul\n      0x20\n      add\n      mload(0x40)\n      swap1\n      dup2\n      add\n      0x40\n      mstore\n      dup1\n      swap3\n      swap2\n      swap1\n      dup2\n      dup2\n      mstore\n      0x20\n      add\n      dup3\n      dup1\n      sload\n      tag_183\n      swap1\n      tag_119\n      jump\t// in\n    tag_183:\n      dup1\n      iszero\n      tag_184\n      jumpi\n      dup1\n      0x1f\n      lt\n      tag_185\n      jumpi\n      0x0100\n      dup1\n      dup4\n      sload\n      div\n      mul\n      dup4\n      mstore\n      swap2\n      0x20\n      add\n      swap2\n      jump(tag_184)\n    tag_185:\n      dup3\n      add\n      swap2\n      swap1\n      0x00\n      mstore\n      keccak256(0x00, 0x20)\n      swap1\n    tag_186:\n      dup2\n      sload\n      dup2\n      mstore\n      swap1\n      0x01\n      add\n      swap1\n      0x20\n      add\n      dup1\n      dup4\n      gt\n      tag_186\n      jumpi\n      dup3\n      swap1\n      sub\n      0x1f\n      and\n      dup3\n      add\n      swap2\n    tag_184:\n      pop\n      pop\n      pop\n      pop\n      pop\n      dup2\n      mstore\n      0x20\n      add\n      0x03\n      dup3\n      add\n      dup1\n      sload\n      tag_187\n      swap1\n      tag_119\n      jump\t// in\n    tag_187:\n      dup1\n      0x1f\n      add\n      0x20\n      dup1\n      swap2\n      div\n      mul\n      0x20\n      add\n      mload(0x40)\n      swap1\n      dup2\n      add\n      0x40\n      mstore\n      dup1\n      swap3\n      swap2\n      swap1\n      dup2\n      dup2\n      mstore\n      0x20\n      add\n      dup3\n      dup1\n      sload\n      tag_188\n      swap1\n      tag_119\n      jump\t// in\n    tag_188:\n      dup1\n      iszero\n      tag_189\n      jumpi\n      dup1\n      0x1f\n      lt\n      tag_190\n      jumpi\n      0x0100\n      dup1\n      dup4\n      sload\n      div\n      mul\n      dup4\n      mstore\n      swap2\n      0x20\n      add\n      swap2\n      jump(tag_189)\n    tag_190:\n      dup3\n      add\n      swap2\n      swap1\n      0x00\n      mstore\n      keccak256(0x00, 0x20)\n      swap1\n    tag_191:\n      dup2\n      sload\n      dup2\n      mstore\n      swap1\n      0x01\n      add\n      swap1\n      0x20\n      add\n      dup1\n      dup4\n      gt\n      tag_191\n      jumpi\n      dup3\n      swap1\n      sub\n      0x1f\n      and\n      dup3\n      add\n      swap2\n    tag_189:\n      pop\n      pop\n      pop\n      pop\n      pop\n      dup2\n      mstore\n      0x20\n      add\n      0x04\n      dup3\n      add\n      dup1\n      sload\n      tag_192\n      swap1\n      tag_119\n      jump\t// in\n    tag_192:\n      dup1\n      0x1f\n      add\n      0x20\n      dup1\n      swap2\n      div\n      mul\n      0x20\n      add\n      mload(0x40)\n      swap1\n      dup2\n      add\n      0x40\n      mstore\n      dup1\n      swap3\n      swap2\n      swap1\n      dup2\n      dup2\n      mstore\n      0x20\n      add\n      dup3\n      dup1\n      sload\n      tag_193\n      swap1\n      tag_119\n      jump\t// in\n    tag_193:\n      dup1\n      iszero\n      tag_194\n      jumpi\n      dup1\n      0x1f\n      lt\n      tag_195\n      jumpi\n      0x0100\n      dup1\n      dup4\n      sload\n      div\n      mul\n      dup4\n      mstore\n      swap2\n      0x20\n      add\n      swap2\n      jump(tag_194)\n    tag_195:\n      dup3\n      add\n      swap2\n      swap1\n      0x00\n      mstore\n      keccak256(0x00, 0x20)\n      swap1\n    tag_196:\n      dup2\n      sload\n      dup2\n      mstore\n      swap1\n      0x01\n      add\n      swap1\n      0x20\n      add\n      dup1\n      dup4\n      gt\n      tag_196\n      jumpi\n      dup3\n      swap1\n      sub\n      0x1f\n      and\n      dup3\n      add\n      swap2\n    tag_194:\n      pop\n      pop\n      pop\n      pop\n      pop\n      dup2\n      mstore\n      0x20\n      add\n      0x05\n      dup3\n      add\n      dup1\n      sload\n      tag_197\n      swap1\n      tag_119\n      jump\t// in\n    tag_197:\n      dup1\n      0x1f\n      add\n      0x20\n      dup1\n      swap2\n      div\n      mul\n      0x20\n      add\n      mload(0x40)\n      swap1\n      dup2\n      add\n      0x40\n      mstore\n      dup1\n      swap3\n      swap2\n      swap1\n      dup2\n      dup2\n      mstore\n      0x20\n      add\n      dup3\n      dup1\n      sload\n      tag_198\n      swap1\n      tag_119\n      jump\t// in\n    tag_198:\n      dup1\n      iszero\n      tag_199\n      jumpi\n      dup1\n      0x1f\n      lt\n      tag_200\n      jumpi\n      0x0100\n      dup1\n      dup4\n      sload\n      div\n      mul\n      dup4\n      mstore\n      swap2\n      0x20\n      add\n      swap2\n      jump(tag_199)\n    tag_200:\n      dup3\n      add\n      swap2\n      swap1\n      0x00\n      mstore\n      keccak256(0x00, 0x20)\n      swap1\n    tag_201:\n      dup2\n      sload\n      dup2\n      mstore\n      swap1\n      0x01\n      add\n      swap1\n      0x20\n      add\n      dup1\n      dup4\n      gt\n      tag_201\n      jumpi\n      dup3\n      swap1\n      sub\n      0x1f\n      and\n      dup3\n      add\n      swap2\n    tag_199:\n      pop\n      pop\n      pop\n      pop\n      pop\n      dup2\n      mstore\n      0x20\n      add\n      0x06\n      dup3\n      add\n      dup1\n      sload\n      tag_202\n      swap1\n      tag_119\n      jump\t// in\n    tag_202:\n      dup1\n      0x1f\n      add\n      0x20\n      dup1\n      swap2\n      div\n      mul\n      0x20\n      add\n      mload(0x40)\n      swap1\n      dup2\n      add\n      0x40\n      mstore\n      dup1\n      swap3\n      swap2\n      swap1\n      dup2\n      dup2\n      mstore\n      0x20\n      add\n      dup3\n      dup1\n      sload\n      tag_203\n      swap1\n      tag_119\n      jump\t// in\n    tag_203:\n      dup1\n      iszero\n      tag_204\n      jumpi\n      dup1\n      0x1f\n      lt\n      tag_205\n      jumpi\n      0x0100\n      dup1\n      dup4\n      sload\n      div\n      mul\n      dup4\n      mstore\n      swap2\n      0x20\n      add\n      swap2\n      jump(tag_204)\n    tag_205:\n      dup3\n      add\n      swap2\n      swap1\n      0x00\n      mstore\n      keccak256(0x00, 0x20)\n      swap1\n    tag_206:\n      dup2\n      sload\n      dup2\n      mstore\n      swap1\n      0x01\n      add\n      swap1\n      0x20\n      add\n      dup1\n      dup4\n      gt\n      tag_206\n      jumpi\n      dup3\n      swap1\n      sub\n      0x1f\n      and\n      dup3\n      add\n      swap2\n    tag_204:\n      pop\n      pop\n      pop\n      pop\n      pop\n      dup2\n      mstore\n      0x20\n      add\n      0x07\n      dup3\n      add\n      dup1\n      sload\n      tag_207\n      swap1\n      tag_119\n      jump\t// in\n    tag_207:\n      dup1\n      0x1f\n      add\n      0x20\n      dup1\n      swap2\n      div\n      mul\n      0x20\n      add\n      mload(0x40)\n      swap1\n      dup2\n      add\n      0x40\n      mstore\n      dup1\n      swap3\n      swap2\n      swap1\n      dup2\n      dup2\n      mstore\n      0x20\n      add\n      dup3\n      dup1\n      sload\n      tag_208\n      swap1\n      tag_119\n      jump\t// in\n    tag_208:\n      dup1\n      iszero\n      tag_209\n      jumpi\n      dup1\n      0x1f\n      lt\n      tag_210\n      jumpi\n      0x0100\n      dup1\n      dup4\n      sload\n      div\n      mul\n      dup4\n      mstore\n      swap2\n      0x20\n      add\n      swap2\n      jump(tag_209)\n    tag_210:\n      dup3\n      add\n      swap2\n      swap1\n      0x00\n      mstore\n      keccak256(0x00, 0x20)\n      swap1\n    tag_211:\n      dup2\n      sload\n      dup2\n      mstore\n      swap1\n      0x01\n      add\n      swap1\n      0x20\n      add\n      dup1\n      dup4\n      gt\n      tag_211\n      jumpi\n      dup3\n      swap1\n      sub\n      0x1f\n      and\n      dup3\n      add\n      swap2\n    tag_209:\n      pop\n      pop\n      pop\n      pop\n      pop\n      dup2\n      mstore\n      0x20\n      add\n      0x08\n      dup3\n      add\n      dup1\n      sload\n      tag_212\n      swap1\n      tag_119\n      jump\t// in\n    tag_212:\n      dup1\n      0x1f\n      add\n      0x20\n      dup1\n      swap2\n      div\n      mul\n      0x20\n      add\n      mload(0x40)\n      swap1\n      dup2\n      add\n      0x40\n      mstore\n      dup1\n      swap3\n      swap2\n      swap1\n      dup2\n      dup2\n      mstore\n      0x20\n      add\n      dup3\n      dup1\n      sload\n      tag_213\n      swap1\n      tag_119\n      jump\t// in\n    tag_213:\n      dup1\n      iszero\n      tag_214\n      jumpi\n      dup1\n      0x1f\n      lt\n      tag_215\n      jumpi\n      0x0100\n      dup1\n      dup4\n      sload\n      div\n      mul\n      dup4\n      mstore\n      swap2\n      0x20\n      add\n      swap2\n      jump(tag_214)\n    tag_215:\n      dup3\n      add\n      swap2\n      swap1\n      0x00\n      mstore\n      keccak256(0x00, 0x20)\n      swap1\n    tag_216:\n      dup2\n      sload\n      dup2\n      mstore\n      swap1\n      0x01\n      add\n      swap1\n      0x20\n      add\n      dup1\n      dup4\n      gt\n      tag_216\n      jumpi\n      dup3\n      swap1\n      sub\n      0x1f\n      and\n      dup3\n      add\n      swap2\n    tag_214:\n      pop\n      pop\n      pop\n      pop\n      pop\n      dup2\n      mstore\n      pop\n      pop\n      swap1\n      pop\n        /* \"PatienrReg.sol\":2764:2771  patient */\n      dup1\n        /* \"PatienrReg.sol\":2764:2785  patient.walletAddress */\n      0x00\n      add\n      mload\n        /* \"PatienrReg.sol\":2787:2794  patient */\n      dup2\n        /* \"PatienrReg.sol\":2787:2799  patient.name */\n      0x20\n      add\n      mload\n        /* \"PatienrReg.sol\":2801:2808  patient */\n      dup3\n        /* \"PatienrReg.sol\":2801:2820  patient.dateOfBirth */\n      0x40\n      add\n      mload\n        /* \"PatienrReg.sol\":2822:2829  patient */\n      dup4\n        /* \"PatienrReg.sol\":2822:2836  patient.gender */\n      0x60\n      add\n      mload\n        /* \"PatienrReg.sol\":2838:2845  patient */\n      dup5\n        /* \"PatienrReg.sol\":2838:2856  patient.bloodGroup */\n      0x80\n      add\n      mload\n        /* \"PatienrReg.sol\":2858:2865  patient */\n      dup6\n        /* \"PatienrReg.sol\":2858:2877  patient.homeAddress */\n      0xa0\n      add\n      mload\n        /* \"PatienrReg.sol\":2879:2886  patient */\n      dup7\n        /* \"PatienrReg.sol\":2879:2892  patient.email */\n      0xc0\n      add\n      mload\n        /* \"PatienrReg.sol\":2756:2893  return (patient.walletAddress, patient.name, patient.dateOfBirth, patient.gender, patient.bloodGroup, patient.homeAddress, patient.email) */\n      swap8\n      pop\n      swap8\n      pop\n      swap8\n      pop\n      swap8\n      pop\n      swap8\n      pop\n      swap8\n      pop\n      swap8\n      pop\n      pop\n        /* \"PatienrReg.sol\":2331:2901  function getPatientDetails(string memory _hhNumber) external view returns (... */\n      swap2\n      swap4\n      swap6\n      swap8\n      swap1\n      swap3\n      swap5\n      swap7\n      pop\n      jump\t// out\n        /* \"PatienrReg.sol\":1812:1951  function isRegisteredPatient(string memory _hhNumber) external view returns (bool) {... */\n    tag_58:\n        /* \"PatienrReg.sol\":1889:1893  bool */\n      0x00\n        /* \"PatienrReg.sol\":1913:1932  isPatientRegistered */\n      0x00\n        /* \"PatienrReg.sol\":1933:1942  _hhNumber */\n      dup3\n        /* \"PatienrReg.sol\":1913:1943  isPatientRegistered[_hhNumber] */\n      mload(0x40)\n      tag_218\n      swap2\n      swap1\n      tag_62\n      jump\t// in\n    tag_218:\n      swap1\n      dup2\n      mstore\n      0x20\n      add\n      mload(0x40)\n      dup1\n      swap2\n      sub\n      swap1\n      keccak256\n      0x00\n      swap1\n      sload\n      swap1\n      0x0100\n      exp\n      swap1\n      div\n      0xff\n      and\n        /* \"PatienrReg.sol\":1906:1943  return isPatientRegistered[_hhNumber] */\n      swap1\n      pop\n        /* \"PatienrReg.sol\":1812:1951  function isRegisteredPatient(string memory _hhNumber) external view returns (bool) {... */\n      swap2\n      swap1\n      pop\n      jump\t// out\n        /* \"#utility.yul\":7:82   */\n    tag_219:\n        /* \"#utility.yul\":40:46   */\n      0x00\n        /* \"#utility.yul\":73:75   */\n      0x40\n        /* \"#utility.yul\":67:76   */\n      mload\n        /* \"#utility.yul\":57:76   */\n      swap1\n      pop\n        /* \"#utility.yul\":7:82   */\n      swap1\n      jump\t// out\n        /* \"#utility.yul\":88:205   */\n    tag_220:\n        /* \"#utility.yul\":197:198   */\n      0x00\n        /* \"#utility.yul\":194:195   */\n      0x00\n        /* \"#utility.yul\":187:199   */\n      revert\n        /* \"#utility.yul\":211:328   */\n    tag_221:\n        /* \"#utility.yul\":320:321   */\n      0x00\n        /* \"#utility.yul\":317:318   */\n      0x00\n        /* \"#utility.yul\":310:322   */\n      revert\n        /* \"#utility.yul\":334:451   */\n    tag_222:\n        /* \"#utility.yul\":443:444   */\n      0x00\n        /* \"#utility.yul\":440:441   */\n      0x00\n        /* \"#utility.yul\":433:445   */\n      revert\n        /* \"#utility.yul\":457:574   */\n    tag_223:\n        /* \"#utility.yul\":566:567   */\n      0x00\n        /* \"#utility.yul\":563:564   */\n      0x00\n        /* \"#utility.yul\":556:568   */\n      revert\n        /* \"#utility.yul\":580:682   */\n    tag_224:\n        /* \"#utility.yul\":621:627   */\n      0x00\n        /* \"#utility.yul\":672:674   */\n      0x1f\n        /* \"#utility.yul\":668:675   */\n      not\n        /* \"#utility.yul\":663:665   */\n      0x1f\n        /* \"#utility.yul\":656:661   */\n      dup4\n        /* \"#utility.yul\":652:666   */\n      add\n        /* \"#utility.yul\":648:676   */\n      and\n        /* \"#utility.yul\":638:676   */\n      swap1\n      pop\n        /* \"#utility.yul\":580:682   */\n      swap2\n      swap1\n      pop\n      jump\t// out\n        /* \"#utility.yul\":688:868   */\n    tag_225:\n        /* \"#utility.yul\":736:813   */\n      0x4e487b7100000000000000000000000000000000000000000000000000000000\n        /* \"#utility.yul\":733:734   */\n      0x00\n        /* \"#utility.yul\":726:814   */\n      mstore\n        /* \"#utility.yul\":833:837   */\n      0x41\n        /* \"#utility.yul\":830:831   */\n      0x04\n        /* \"#utility.yul\":823:838   */\n      mstore\n        /* \"#utility.yul\":857:861   */\n      0x24\n        /* \"#utility.yul\":854:855   */\n      0x00\n        /* \"#utility.yul\":847:862   */\n      revert\n        /* \"#utility.yul\":874:1155   */\n    tag_226:\n        /* \"#utility.yul\":957:984   */\n      tag_287\n        /* \"#utility.yul\":979:983   */\n      dup3\n        /* \"#utility.yul\":957:984   */\n      tag_224\n      jump\t// in\n    tag_287:\n        /* \"#utility.yul\":949:955   */\n      dup2\n        /* \"#utility.yul\":945:985   */\n      add\n        /* \"#utility.yul\":1087:1093   */\n      dup2\n        /* \"#utility.yul\":1075:1085   */\n      dup2\n        /* \"#utility.yul\":1072:1094   */\n      lt\n        /* \"#utility.yul\":1051:1069   */\n      0xffffffffffffffff\n        /* \"#utility.yul\":1039:1049   */\n      dup3\n        /* \"#utility.yul\":1036:1070   */\n      gt\n        /* \"#utility.yul\":1033:1095   */\n      or\n        /* \"#utility.yul\":1030:1118   */\n      iszero\n      tag_288\n      jumpi\n        /* \"#utility.yul\":1098:1116   */\n      tag_289\n      tag_225\n      jump\t// in\n    tag_289:\n        /* \"#utility.yul\":1030:1118   */\n    tag_288:\n        /* \"#utility.yul\":1138:1148   */\n      dup1\n        /* \"#utility.yul\":1134:1136   */\n      0x40\n        /* \"#utility.yul\":1127:1149   */\n      mstore\n        /* \"#utility.yul\":917:1155   */\n      pop\n        /* \"#utility.yul\":874:1155   */\n      pop\n      pop\n      jump\t// out\n        /* \"#utility.yul\":1161:1290   */\n    tag_227:\n        /* \"#utility.yul\":1195:1201   */\n      0x00\n        /* \"#utility.yul\":1222:1242   */\n      tag_291\n      tag_219\n      jump\t// in\n    tag_291:\n        /* \"#utility.yul\":1212:1242   */\n      swap1\n      pop\n        /* \"#utility.yul\":1251:1284   */\n      tag_292\n        /* \"#utility.yul\":1279:1283   */\n      dup3\n        /* \"#utility.yul\":1271:1277   */\n      dup3\n        /* \"#utility.yul\":1251:1284   */\n      tag_226\n      jump\t// in\n    tag_292:\n        /* \"#utility.yul\":1161:1290   */\n      swap2\n      swap1\n      pop\n      jump\t// out\n        /* \"#utility.yul\":1296:1604   */\n    tag_228:\n        /* \"#utility.yul\":1358:1362   */\n      0x00\n        /* \"#utility.yul\":1448:1466   */\n      0xffffffffffffffff\n        /* \"#utility.yul\":1440:1446   */\n      dup3\n        /* \"#utility.yul\":1437:1467   */\n      gt\n        /* \"#utility.yul\":1434:1490   */\n      iszero\n      tag_294\n      jumpi\n        /* \"#utility.yul\":1470:1488   */\n      tag_295\n      tag_225\n      jump\t// in\n    tag_295:\n        /* \"#utility.yul\":1434:1490   */\n    tag_294:\n        /* \"#utility.yul\":1508:1537   */\n      tag_296\n        /* \"#utility.yul\":1530:1536   */\n      dup3\n        /* \"#utility.yul\":1508:1537   */\n      tag_224\n      jump\t// in\n    tag_296:\n        /* \"#utility.yul\":1500:1537   */\n      swap1\n      pop\n        /* \"#utility.yul\":1592:1596   */\n      0x20\n        /* \"#utility.yul\":1586:1590   */\n      dup2\n        /* \"#utility.yul\":1582:1597   */\n      add\n        /* \"#utility.yul\":1574:1597   */\n      swap1\n      pop\n        /* \"#utility.yul\":1296:1604   */\n      swap2\n      swap1\n      pop\n      jump\t// out\n        /* \"#utility.yul\":1610:1758   */\n    tag_229:\n        /* \"#utility.yul\":1708:1714   */\n      dup3\n        /* \"#utility.yul\":1703:1706   */\n      dup2\n        /* \"#utility.yul\":1698:1701   */\n      dup4\n        /* \"#utility.yul\":1685:1715   */\n      calldatacopy\n        /* \"#utility.yul\":1749:1750   */\n      0x00\n        /* \"#utility.yul\":1740:1746   */\n      dup4\n        /* \"#utility.yul\":1735:1738   */\n      dup4\n        /* \"#utility.yul\":1731:1747   */\n      add\n        /* \"#utility.yul\":1724:1751   */\n      mstore\n        /* \"#utility.yul\":1610:1758   */\n      pop\n      pop\n      pop\n      jump\t// out\n        /* \"#utility.yul\":1764:2189   */\n    tag_230:\n        /* \"#utility.yul\":1842:1847   */\n      0x00\n        /* \"#utility.yul\":1867:1933   */\n      tag_299\n        /* \"#utility.yul\":1883:1932   */\n      tag_300\n        /* \"#utility.yul\":1925:1931   */\n      dup5\n        /* \"#utility.yul\":1883:1932   */\n      tag_228\n      jump\t// in\n    tag_300:\n        /* \"#utility.yul\":1867:1933   */\n      tag_227\n      jump\t// in\n    tag_299:\n        /* \"#utility.yul\":1858:1933   */\n      swap1\n      pop\n        /* \"#utility.yul\":1956:1962   */\n      dup3\n        /* \"#utility.yul\":1949:1954   */\n      dup2\n        /* \"#utility.yul\":1942:1963   */\n      mstore\n        /* \"#utility.yul\":1994:1998   */\n      0x20\n        /* \"#utility.yul\":1987:1992   */\n      dup2\n        /* \"#utility.yul\":1983:1999   */\n      add\n        /* \"#utility.yul\":2032:2035   */\n      dup5\n        /* \"#utility.yul\":2023:2029   */\n      dup5\n        /* \"#utility.yul\":2018:2021   */\n      dup5\n        /* \"#utility.yul\":2014:2030   */\n      add\n        /* \"#utility.yul\":2011:2036   */\n      gt\n        /* \"#utility.yul\":2008:2120   */\n      iszero\n      tag_301\n      jumpi\n        /* \"#utility.yul\":2039:2118   */\n      tag_302\n      tag_223\n      jump\t// in\n    tag_302:\n        /* \"#utility.yul\":2008:2120   */\n    tag_301:\n        /* \"#utility.yul\":2129:2183   */\n      tag_303\n        /* \"#utility.yul\":2176:2182   */\n      dup5\n        /* \"#utility.yul\":2171:2174   */\n      dup3\n        /* \"#utility.yul\":2166:2169   */\n      dup6\n        /* \"#utility.yul\":2129:2183   */\n      tag_229\n      jump\t// in\n    tag_303:\n        /* \"#utility.yul\":1848:2189   */\n      pop\n        /* \"#utility.yul\":1764:2189   */\n      swap4\n      swap3\n      pop\n      pop\n      pop\n      jump\t// out\n        /* \"#utility.yul\":2209:2549   */\n    tag_231:\n        /* \"#utility.yul\":2265:2270   */\n      0x00\n        /* \"#utility.yul\":2314:2317   */\n      dup3\n        /* \"#utility.yul\":2307:2311   */\n      0x1f\n        /* \"#utility.yul\":2299:2305   */\n      dup4\n        /* \"#utility.yul\":2295:2312   */\n      add\n        /* \"#utility.yul\":2291:2318   */\n      slt\n        /* \"#utility.yul\":2281:2403   */\n      tag_305\n      jumpi\n        /* \"#utility.yul\":2322:2401   */\n      tag_306\n      tag_222\n      jump\t// in\n    tag_306:\n        /* \"#utility.yul\":2281:2403   */\n    tag_305:\n        /* \"#utility.yul\":2439:2445   */\n      dup2\n        /* \"#utility.yul\":2426:2446   */\n      calldataload\n        /* \"#utility.yul\":2464:2543   */\n      tag_307\n        /* \"#utility.yul\":2539:2542   */\n      dup5\n        /* \"#utility.yul\":2531:2537   */\n      dup3\n        /* \"#utility.yul\":2524:2528   */\n      0x20\n        /* \"#utility.yul\":2516:2522   */\n      dup7\n        /* \"#utility.yul\":2512:2529   */\n      add\n        /* \"#utility.yul\":2464:2543   */\n      tag_230\n      jump\t// in\n    tag_307:\n        /* \"#utility.yul\":2455:2543   */\n      swap2\n      pop\n        /* \"#utility.yul\":2271:2549   */\n      pop\n        /* \"#utility.yul\":2209:2549   */\n      swap3\n      swap2\n      pop\n      pop\n      jump\t// out\n        /* \"#utility.yul\":2555:3389   */\n    tag_16:\n        /* \"#utility.yul\":2643:2649   */\n      0x00\n        /* \"#utility.yul\":2651:2657   */\n      0x00\n        /* \"#utility.yul\":2700:2702   */\n      0x40\n        /* \"#utility.yul\":2688:2697   */\n      dup4\n        /* \"#utility.yul\":2679:2686   */\n      dup6\n        /* \"#utility.yul\":2675:2698   */\n      sub\n        /* \"#utility.yul\":2671:2703   */\n      slt\n        /* \"#utility.yul\":2668:2787   */\n      iszero\n      tag_309\n      jumpi\n        /* \"#utility.yul\":2706:2785   */\n      tag_310\n      tag_220\n      jump\t// in\n    tag_310:\n        /* \"#utility.yul\":2668:2787   */\n    tag_309:\n        /* \"#utility.yul\":2854:2855   */\n      0x00\n        /* \"#utility.yul\":2843:2852   */\n      dup4\n        /* \"#utility.yul\":2839:2856   */\n      add\n        /* \"#utility.yul\":2826:2857   */\n      calldataload\n        /* \"#utility.yul\":2884:2902   */\n      0xffffffffffffffff\n        /* \"#utility.yul\":2876:2882   */\n      dup2\n        /* \"#utility.yul\":2873:2903   */\n      gt\n        /* \"#utility.yul\":2870:2987   */\n      iszero\n      tag_311\n      jumpi\n        /* \"#utility.yul\":2906:2985   */\n      tag_312\n      tag_221\n      jump\t// in\n    tag_312:\n        /* \"#utility.yul\":2870:2987   */\n    tag_311:\n        /* \"#utility.yul\":3011:3074   */\n      tag_313\n        /* \"#utility.yul\":3066:3073   */\n      dup6\n        /* \"#utility.yul\":3057:3063   */\n      dup3\n        /* \"#utility.yul\":3046:3055   */\n      dup7\n        /* \"#utility.yul\":3042:3064   */\n      add\n        /* \"#utility.yul\":3011:3074   */\n      tag_231\n      jump\t// in\n    tag_313:\n        /* \"#utility.yul\":3001:3074   */\n      swap3\n      pop\n        /* \"#utility.yul\":2797:3084   */\n      pop\n        /* \"#utility.yul\":3151:3153   */\n      0x20\n        /* \"#utility.yul\":3140:3149   */\n      dup4\n        /* \"#utility.yul\":3136:3154   */\n      add\n        /* \"#utility.yul\":3123:3155   */\n      calldataload\n        /* \"#utility.yul\":3182:3200   */\n      0xffffffffffffffff\n        /* \"#utility.yul\":3174:3180   */\n      dup2\n        /* \"#utility.yul\":3171:3201   */\n      gt\n        /* \"#utility.yul\":3168:3285   */\n      iszero\n      tag_314\n      jumpi\n        /* \"#utility.yul\":3204:3283   */\n      tag_315\n      tag_221\n      jump\t// in\n    tag_315:\n        /* \"#utility.yul\":3168:3285   */\n    tag_314:\n        /* \"#utility.yul\":3309:3372   */\n      tag_316\n        /* \"#utility.yul\":3364:3371   */\n      dup6\n        /* \"#utility.yul\":3355:3361   */\n      dup3\n        /* \"#utility.yul\":3344:3353   */\n      dup7\n        /* \"#utility.yul\":3340:3362   */\n      add\n        /* \"#utility.yul\":3309:3372   */\n      tag_231\n      jump\t// in\n    tag_316:\n        /* \"#utility.yul\":3299:3372   */\n      swap2\n      pop\n        /* \"#utility.yul\":3094:3382   */\n      pop\n        /* \"#utility.yul\":2555:3389   */\n      swap3\n      pop\n      swap3\n      swap1\n      pop\n      jump\t// out\n        /* \"#utility.yul\":3395:3485   */\n    tag_232:\n        /* \"#utility.yul\":3429:3436   */\n      0x00\n        /* \"#utility.yul\":3472:3477   */\n      dup2\n        /* \"#utility.yul\":3465:3478   */\n      iszero\n        /* \"#utility.yul\":3458:3479   */\n      iszero\n        /* \"#utility.yul\":3447:3479   */\n      swap1\n      pop\n        /* \"#utility.yul\":3395:3485   */\n      swap2\n      swap1\n      pop\n      jump\t// out\n        /* \"#utility.yul\":3491:3600   */\n    tag_233:\n        /* \"#utility.yul\":3572:3593   */\n      tag_319\n        /* \"#utility.yul\":3587:3592   */\n      dup2\n        /* \"#utility.yul\":3572:3593   */\n      tag_232\n      jump\t// in\n    tag_319:\n        /* \"#utility.yul\":3567:3570   */\n      dup3\n        /* \"#utility.yul\":3560:3594   */\n      mstore\n        /* \"#utility.yul\":3491:3600   */\n      pop\n      pop\n      jump\t// out\n        /* \"#utility.yul\":3606:3816   */\n    tag_19:\n        /* \"#utility.yul\":3693:3697   */\n      0x00\n        /* \"#utility.yul\":3731:3733   */\n      0x20\n        /* \"#utility.yul\":3720:3729   */\n      dup3\n        /* \"#utility.yul\":3716:3734   */\n      add\n        /* \"#utility.yul\":3708:3734   */\n      swap1\n      pop\n        /* \"#utility.yul\":3744:3809   */\n      tag_321\n        /* \"#utility.yul\":3806:3807   */\n      0x00\n        /* \"#utility.yul\":3795:3804   */\n      dup4\n        /* \"#utility.yul\":3791:3808   */\n      add\n        /* \"#utility.yul\":3782:3788   */\n      dup5\n        /* \"#utility.yul\":3744:3809   */\n      tag_233\n      jump\t// in\n    tag_321:\n        /* \"#utility.yul\":3606:3816   */\n      swap3\n      swap2\n      pop\n      pop\n      jump\t// out\n        /* \"#utility.yul\":3822:4331   */\n    tag_22:\n        /* \"#utility.yul\":3891:3897   */\n      0x00\n        /* \"#utility.yul\":3940:3942   */\n      0x20\n        /* \"#utility.yul\":3928:3937   */\n      dup3\n        /* \"#utility.yul\":3919:3926   */\n      dup5\n        /* \"#utility.yul\":3915:3938   */\n      sub\n        /* \"#utility.yul\":3911:3943   */\n      slt\n        /* \"#utility.yul\":3908:4027   */\n      iszero\n      tag_323\n      jumpi\n        /* \"#utility.yul\":3946:4025   */\n      tag_324\n      tag_220\n      jump\t// in\n    tag_324:\n        /* \"#utility.yul\":3908:4027   */\n    tag_323:\n        /* \"#utility.yul\":4094:4095   */\n      0x00\n        /* \"#utility.yul\":4083:4092   */\n      dup3\n        /* \"#utility.yul\":4079:4096   */\n      add\n        /* \"#utility.yul\":4066:4097   */\n      calldataload\n        /* \"#utility.yul\":4124:4142   */\n      0xffffffffffffffff\n        /* \"#utility.yul\":4116:4122   */\n      dup2\n        /* \"#utility.yul\":4113:4143   */\n      gt\n        /* \"#utility.yul\":4110:4227   */\n      iszero\n      tag_325\n      jumpi\n        /* \"#utility.yul\":4146:4225   */\n      tag_326\n      tag_221\n      jump\t// in\n    tag_326:\n        /* \"#utility.yul\":4110:4227   */\n    tag_325:\n        /* \"#utility.yul\":4251:4314   */\n      tag_327\n        /* \"#utility.yul\":4306:4313   */\n      dup5\n        /* \"#utility.yul\":4297:4303   */\n      dup3\n        /* \"#utility.yul\":4286:4295   */\n      dup6\n        /* \"#utility.yul\":4282:4304   */\n      add\n        /* \"#utility.yul\":4251:4314   */\n      tag_231\n      jump\t// in\n    tag_327:\n        /* \"#utility.yul\":4241:4314   */\n      swap2\n      pop\n        /* \"#utility.yul\":4037:4324   */\n      pop\n        /* \"#utility.yul\":3822:4331   */\n      swap3\n      swap2\n      pop\n      pop\n      jump\t// out\n        /* \"#utility.yul\":4337:4463   */\n    tag_234:\n        /* \"#utility.yul\":4374:4381   */\n      0x00\n        /* \"#utility.yul\":4414:4456   */\n      0xffffffffffffffffffffffffffffffffffffffff\n        /* \"#utility.yul\":4407:4412   */\n      dup3\n        /* \"#utility.yul\":4403:4457   */\n      and\n        /* \"#utility.yul\":4392:4457   */\n      swap1\n      pop\n        /* \"#utility.yul\":4337:4463   */\n      swap2\n      swap1\n      pop\n      jump\t// out\n        /* \"#utility.yul\":4469:4565   */\n    tag_235:\n        /* \"#utility.yul\":4506:4513   */\n      0x00\n        /* \"#utility.yul\":4535:4559   */\n      tag_330\n        /* \"#utility.yul\":4553:4558   */\n      dup3\n        /* \"#utility.yul\":4535:4559   */\n      tag_234\n      jump\t// in\n    tag_330:\n        /* \"#utility.yul\":4524:4559   */\n      swap1\n      pop\n        /* \"#utility.yul\":4469:4565   */\n      swap2\n      swap1\n      pop\n      jump\t// out\n        /* \"#utility.yul\":4571:4693   */\n    tag_236:\n        /* \"#utility.yul\":4644:4668   */\n      tag_332\n        /* \"#utility.yul\":4662:4667   */\n      dup2\n        /* \"#utility.yul\":4644:4668   */\n      tag_235\n      jump\t// in\n    tag_332:\n        /* \"#utility.yul\":4637:4642   */\n      dup2\n        /* \"#utility.yul\":4634:4669   */\n      eq\n        /* \"#utility.yul\":4624:4687   */\n      tag_333\n      jumpi\n        /* \"#utility.yul\":4683:4684   */\n      0x00\n        /* \"#utility.yul\":4680:4681   */\n      0x00\n        /* \"#utility.yul\":4673:4685   */\n      revert\n        /* \"#utility.yul\":4624:4687   */\n    tag_333:\n        /* \"#utility.yul\":4571:4693   */\n      pop\n      jump\t// out\n        /* \"#utility.yul\":4699:4838   */\n    tag_237:\n        /* \"#utility.yul\":4745:4750   */\n      0x00\n        /* \"#utility.yul\":4783:4789   */\n      dup2\n        /* \"#utility.yul\":4770:4790   */\n      calldataload\n        /* \"#utility.yul\":4761:4790   */\n      swap1\n      pop\n        /* \"#utility.yul\":4799:4832   */\n      tag_335\n        /* \"#utility.yul\":4826:4831   */\n      dup2\n        /* \"#utility.yul\":4799:4832   */\n      tag_236\n      jump\t// in\n    tag_335:\n        /* \"#utility.yul\":4699:4838   */\n      swap3\n      swap2\n      pop\n      pop\n      jump\t// out\n        /* \"#utility.yul\":4844:7779   */\n    tag_27:\n        /* \"#utility.yul\":5055:5061   */\n      0x00\n        /* \"#utility.yul\":5063:5069   */\n      0x00\n        /* \"#utility.yul\":5071:5077   */\n      0x00\n        /* \"#utility.yul\":5079:5085   */\n      0x00\n        /* \"#utility.yul\":5087:5093   */\n      0x00\n        /* \"#utility.yul\":5095:5101   */\n      0x00\n        /* \"#utility.yul\":5103:5109   */\n      0x00\n        /* \"#utility.yul\":5111:5117   */\n      0x00\n        /* \"#utility.yul\":5119:5125   */\n      0x00\n        /* \"#utility.yul\":5168:5171   */\n      0x0120\n        /* \"#utility.yul\":5156:5165   */\n      dup11\n        /* \"#utility.yul\":5147:5154   */\n      dup13\n        /* \"#utility.yul\":5143:5166   */\n      sub\n        /* \"#utility.yul\":5139:5172   */\n      slt\n        /* \"#utility.yul\":5136:5256   */\n      iszero\n      tag_337\n      jumpi\n        /* \"#utility.yul\":5175:5254   */\n      tag_338\n      tag_220\n      jump\t// in\n    tag_338:\n        /* \"#utility.yul\":5136:5256   */\n    tag_337:\n        /* \"#utility.yul\":5295:5296   */\n      0x00\n        /* \"#utility.yul\":5320:5373   */\n      tag_339\n        /* \"#utility.yul\":5365:5372   */\n      dup13\n        /* \"#utility.yul\":5356:5362   */\n      dup3\n        /* \"#utility.yul\":5345:5354   */\n      dup14\n        /* \"#utility.yul\":5341:5363   */\n      add\n        /* \"#utility.yul\":5320:5373   */\n      tag_237\n      jump\t// in\n    tag_339:\n        /* \"#utility.yul\":5310:5373   */\n      swap10\n      pop\n        /* \"#utility.yul\":5266:5383   */\n      pop\n        /* \"#utility.yul\":5450:5452   */\n      0x20\n        /* \"#utility.yul\":5439:5448   */\n      dup11\n        /* \"#utility.yul\":5435:5453   */\n      add\n        /* \"#utility.yul\":5422:5454   */\n      calldataload\n        /* \"#utility.yul\":5481:5499   */\n      0xffffffffffffffff\n        /* \"#utility.yul\":5473:5479   */\n      dup2\n        /* \"#utility.yul\":5470:5500   */\n      gt\n        /* \"#utility.yul\":5467:5584   */\n      iszero\n      tag_340\n      jumpi\n        /* \"#utility.yul\":5503:5582   */\n      tag_341\n      tag_221\n      jump\t// in\n    tag_341:\n        /* \"#utility.yul\":5467:5584   */\n    tag_340:\n        /* \"#utility.yul\":5608:5671   */\n      tag_342\n        /* \"#utility.yul\":5663:5670   */\n      dup13\n        /* \"#utility.yul\":5654:5660   */\n      dup3\n        /* \"#utility.yul\":5643:5652   */\n      dup14\n        /* \"#utility.yul\":5639:5661   */\n      add\n        /* \"#utility.yul\":5608:5671   */\n      tag_231\n      jump\t// in\n    tag_342:\n        /* \"#utility.yul\":5598:5671   */\n      swap9\n      pop\n        /* \"#utility.yul\":5393:5681   */\n      pop\n        /* \"#utility.yul\":5748:5750   */\n      0x40\n        /* \"#utility.yul\":5737:5746   */\n      dup11\n        /* \"#utility.yul\":5733:5751   */\n      add\n        /* \"#utility.yul\":5720:5752   */\n      calldataload\n        /* \"#utility.yul\":5779:5797   */\n      0xffffffffffffffff\n        /* \"#utility.yul\":5771:5777   */\n      dup2\n        /* \"#utility.yul\":5768:5798   */\n      gt\n        /* \"#utility.yul\":5765:5882   */\n      iszero\n      tag_343\n      jumpi\n        /* \"#utility.yul\":5801:5880   */\n      tag_344\n      tag_221\n      jump\t// in\n    tag_344:\n        /* \"#utility.yul\":5765:5882   */\n    tag_343:\n        /* \"#utility.yul\":5906:5969   */\n      tag_345\n        /* \"#utility.yul\":5961:5968   */\n      dup13\n        /* \"#utility.yul\":5952:5958   */\n      dup3\n        /* \"#utility.yul\":5941:5950   */\n      dup14\n        /* \"#utility.yul\":5937:5959   */\n      add\n        /* \"#utility.yul\":5906:5969   */\n      tag_231\n      jump\t// in\n    tag_345:\n        /* \"#utility.yul\":5896:5969   */\n      swap8\n      pop\n        /* \"#utility.yul\":5691:5979   */\n      pop\n        /* \"#utility.yul\":6046:6048   */\n      0x60\n        /* \"#utility.yul\":6035:6044   */\n      dup11\n        /* \"#utility.yul\":6031:6049   */\n      add\n        /* \"#utility.yul\":6018:6050   */\n      calldataload\n        /* \"#utility.yul\":6077:6095   */\n      0xffffffffffffffff\n        /* \"#utility.yul\":6069:6075   */\n      dup2\n        /* \"#utility.yul\":6066:6096   */\n      gt\n        /* \"#utility.yul\":6063:6180   */\n      iszero\n      tag_346\n      jumpi\n        /* \"#utility.yul\":6099:6178   */\n      tag_347\n      tag_221\n      jump\t// in\n    tag_347:\n        /* \"#utility.yul\":6063:6180   */\n    tag_346:\n        /* \"#utility.yul\":6204:6267   */\n      tag_348\n        /* \"#utility.yul\":6259:6266   */\n      dup13\n        /* \"#utility.yul\":6250:6256   */\n      dup3\n        /* \"#utility.yul\":6239:6248   */\n      dup14\n        /* \"#utility.yul\":6235:6257   */\n      add\n        /* \"#utility.yul\":6204:6267   */\n      tag_231\n      jump\t// in\n    tag_348:\n        /* \"#utility.yul\":6194:6267   */\n      swap7\n      pop\n        /* \"#utility.yul\":5989:6277   */\n      pop\n        /* \"#utility.yul\":6344:6347   */\n      0x80\n        /* \"#utility.yul\":6333:6342   */\n      dup11\n        /* \"#utility.yul\":6329:6348   */\n      add\n        /* \"#utility.yul\":6316:6349   */\n      calldataload\n        /* \"#utility.yul\":6376:6394   */\n      0xffffffffffffffff\n        /* \"#utility.yul\":6368:6374   */\n      dup2\n        /* \"#utility.yul\":6365:6395   */\n      gt\n        /* \"#utility.yul\":6362:6479   */\n      iszero\n      tag_349\n      jumpi\n        /* \"#utility.yul\":6398:6477   */\n      tag_350\n      tag_221\n      jump\t// in\n    tag_350:\n        /* \"#utility.yul\":6362:6479   */\n    tag_349:\n        /* \"#utility.yul\":6503:6566   */\n      tag_351\n        /* \"#utility.yul\":6558:6565   */\n      dup13\n        /* \"#utility.yul\":6549:6555   */\n      dup3\n        /* \"#utility.yul\":6538:6547   */\n      dup14\n        /* \"#utility.yul\":6534:6556   */\n      add\n        /* \"#utility.yul\":6503:6566   */\n      tag_231\n      jump\t// in\n    tag_351:\n        /* \"#utility.yul\":6493:6566   */\n      swap6\n      pop\n        /* \"#utility.yul\":6287:6576   */\n      pop\n        /* \"#utility.yul\":6643:6646   */\n      0xa0\n        /* \"#utility.yul\":6632:6641   */\n      dup11\n        /* \"#utility.yul\":6628:6647   */\n      add\n        /* \"#utility.yul\":6615:6648   */\n      calldataload\n        /* \"#utility.yul\":6675:6693   */\n      0xffffffffffffffff\n        /* \"#utility.yul\":6667:6673   */\n      dup2\n        /* \"#utility.yul\":6664:6694   */\n      gt\n        /* \"#utility.yul\":6661:6778   */\n      iszero\n      tag_352\n      jumpi\n        /* \"#utility.yul\":6697:6776   */\n      tag_353\n      tag_221\n      jump\t// in\n    tag_353:\n        /* \"#utility.yul\":6661:6778   */\n    tag_352:\n        /* \"#utility.yul\":6802:6865   */\n      tag_354\n        /* \"#utility.yul\":6857:6864   */\n      dup13\n        /* \"#utility.yul\":6848:6854   */\n      dup3\n        /* \"#utility.yul\":6837:6846   */\n      dup14\n        /* \"#utility.yul\":6833:6855   */\n      add\n        /* \"#utility.yul\":6802:6865   */\n      tag_231\n      jump\t// in\n    tag_354:\n        /* \"#utility.yul\":6792:6865   */\n      swap5\n      pop\n        /* \"#utility.yul\":6586:6875   */\n      pop\n        /* \"#utility.yul\":6942:6945   */\n      0xc0\n        /* \"#utility.yul\":6931:6940   */\n      dup11\n        /* \"#utility.yul\":6927:6946   */\n      add\n        /* \"#utility.yul\":6914:6947   */\n      calldataload\n        /* \"#utility.yul\":6974:6992   */\n      0xffffffffffffffff\n        /* \"#utility.yul\":6966:6972   */\n      dup2\n        /* \"#utility.yul\":6963:6993   */\n      gt\n        /* \"#utility.yul\":6960:7077   */\n      iszero\n      tag_355\n      jumpi\n        /* \"#utility.yul\":6996:7075   */\n      tag_356\n      tag_221\n      jump\t// in\n    tag_356:\n        /* \"#utility.yul\":6960:7077   */\n    tag_355:\n        /* \"#utility.yul\":7101:7164   */\n      tag_357\n        /* \"#utility.yul\":7156:7163   */\n      dup13\n        /* \"#utility.yul\":7147:7153   */\n      dup3\n        /* \"#utility.yul\":7136:7145   */\n      dup14\n        /* \"#utility.yul\":7132:7154   */\n      add\n        /* \"#utility.yul\":7101:7164   */\n      tag_231\n      jump\t// in\n    tag_357:\n        /* \"#utility.yul\":7091:7164   */\n      swap4\n      pop\n        /* \"#utility.yul\":6885:7174   */\n      pop\n        /* \"#utility.yul\":7241:7244   */\n      0xe0\n        /* \"#utility.yul\":7230:7239   */\n      dup11\n        /* \"#utility.yul\":7226:7245   */\n      add\n        /* \"#utility.yul\":7213:7246   */\n      calldataload\n        /* \"#utility.yul\":7273:7291   */\n      0xffffffffffffffff\n        /* \"#utility.yul\":7265:7271   */\n      dup2\n        /* \"#utility.yul\":7262:7292   */\n      gt\n        /* \"#utility.yul\":7259:7376   */\n      iszero\n      tag_358\n      jumpi\n        /* \"#utility.yul\":7295:7374   */\n      tag_359\n      tag_221\n      jump\t// in\n    tag_359:\n        /* \"#utility.yul\":7259:7376   */\n    tag_358:\n        /* \"#utility.yul\":7400:7463   */\n      tag_360\n        /* \"#utility.yul\":7455:7462   */\n      dup13\n        /* \"#utility.yul\":7446:7452   */\n      dup3\n        /* \"#utility.yul\":7435:7444   */\n      dup14\n        /* \"#utility.yul\":7431:7453   */\n      add\n        /* \"#utility.yul\":7400:7463   */\n      tag_231\n      jump\t// in\n    tag_360:\n        /* \"#utility.yul\":7390:7463   */\n      swap3\n      pop\n        /* \"#utility.yul\":7184:7473   */\n      pop\n        /* \"#utility.yul\":7540:7543   */\n      0x0100\n        /* \"#utility.yul\":7529:7538   */\n      dup11\n        /* \"#utility.yul\":7525:7544   */\n      add\n        /* \"#utility.yul\":7512:7545   */\n      calldataload\n        /* \"#utility.yul\":7572:7590   */\n      0xffffffffffffffff\n        /* \"#utility.yul\":7564:7570   */\n      dup2\n        /* \"#utility.yul\":7561:7591   */\n      gt\n        /* \"#utility.yul\":7558:7675   */\n      iszero\n      tag_361\n      jumpi\n        /* \"#utility.yul\":7594:7673   */\n      tag_362\n      tag_221\n      jump\t// in\n    tag_362:\n        /* \"#utility.yul\":7558:7675   */\n    tag_361:\n        /* \"#utility.yul\":7699:7762   */\n      tag_363\n        /* \"#utility.yul\":7754:7761   */\n      dup13\n        /* \"#utility.yul\":7745:7751   */\n      dup3\n        /* \"#utility.yul\":7734:7743   */\n      dup14\n        /* \"#utility.yul\":7730:7752   */\n      add\n        /* \"#utility.yul\":7699:7762   */\n      tag_231\n      jump\t// in\n    tag_363:\n        /* \"#utility.yul\":7689:7762   */\n      swap2\n      pop\n        /* \"#utility.yul\":7483:7772   */\n      pop\n        /* \"#utility.yul\":4844:7779   */\n      swap3\n      swap6\n      swap9\n      pop\n      swap3\n      swap6\n      swap9\n      pop\n      swap3\n      swap6\n      swap9\n      jump\t// out\n        /* \"#utility.yul\":7785:8944   */\n    tag_31:\n        /* \"#utility.yul\":7892:7898   */\n      0x00\n        /* \"#utility.yul\":7900:7906   */\n      0x00\n        /* \"#utility.yul\":7908:7914   */\n      0x00\n        /* \"#utility.yul\":7957:7959   */\n      0x60\n        /* \"#utility.yul\":7945:7954   */\n      dup5\n        /* \"#utility.yul\":7936:7943   */\n      dup7\n        /* \"#utility.yul\":7932:7955   */\n      sub\n        /* \"#utility.yul\":7928:7960   */\n      slt\n        /* \"#utility.yul\":7925:8044   */\n      iszero\n      tag_365\n      jumpi\n        /* \"#utility.yul\":7963:8042   */\n      tag_366\n      tag_220\n      jump\t// in\n    tag_366:\n        /* \"#utility.yul\":7925:8044   */\n    tag_365:\n        /* \"#utility.yul\":8111:8112   */\n      0x00\n        /* \"#utility.yul\":8100:8109   */\n      dup5\n        /* \"#utility.yul\":8096:8113   */\n      add\n        /* \"#utility.yul\":8083:8114   */\n      calldataload\n        /* \"#utility.yul\":8141:8159   */\n      0xffffffffffffffff\n        /* \"#utility.yul\":8133:8139   */\n      dup2\n        /* \"#utility.yul\":8130:8160   */\n      gt\n        /* \"#utility.yul\":8127:8244   */\n      iszero\n      tag_367\n      jumpi\n        /* \"#utility.yul\":8163:8242   */\n      tag_368\n      tag_221\n      jump\t// in\n    tag_368:\n        /* \"#utility.yul\":8127:8244   */\n    tag_367:\n        /* \"#utility.yul\":8268:8331   */\n      tag_369\n        /* \"#utility.yul\":8323:8330   */\n      dup7\n        /* \"#utility.yul\":8314:8320   */\n      dup3\n        /* \"#utility.yul\":8303:8312   */\n      dup8\n        /* \"#utility.yul\":8299:8321   */\n      add\n        /* \"#utility.yul\":8268:8331   */\n      tag_231\n      jump\t// in\n    tag_369:\n        /* \"#utility.yul\":8258:8331   */\n      swap4\n      pop\n        /* \"#utility.yul\":8054:8341   */\n      pop\n        /* \"#utility.yul\":8408:8410   */\n      0x20\n        /* \"#utility.yul\":8397:8406   */\n      dup5\n        /* \"#utility.yul\":8393:8411   */\n      add\n        /* \"#utility.yul\":8380:8412   */\n      calldataload\n        /* \"#utility.yul\":8439:8457   */\n      0xffffffffffffffff\n        /* \"#utility.yul\":8431:8437   */\n      dup2\n        /* \"#utility.yul\":8428:8458   */\n      gt\n        /* \"#utility.yul\":8425:8542   */\n      iszero\n      tag_370\n      jumpi\n        /* \"#utility.yul\":8461:8540   */\n      tag_371\n      tag_221\n      jump\t// in\n    tag_371:\n        /* \"#utility.yul\":8425:8542   */\n    tag_370:\n        /* \"#utility.yul\":8566:8629   */\n      tag_372\n        /* \"#utility.yul\":8621:8628   */\n      dup7\n        /* \"#utility.yul\":8612:8618   */\n      dup3\n        /* \"#utility.yul\":8601:8610   */\n      dup8\n        /* \"#utility.yul\":8597:8619   */\n      add\n        /* \"#utility.yul\":8566:8629   */\n      tag_231\n      jump\t// in\n    tag_372:\n        /* \"#utility.yul\":8556:8629   */\n      swap3\n      pop\n        /* \"#utility.yul\":8351:8639   */\n      pop\n        /* \"#utility.yul\":8706:8708   */\n      0x40\n        /* \"#utility.yul\":8695:8704   */\n      dup5\n        /* \"#utility.yul\":8691:8709   */\n      add\n        /* \"#utility.yul\":8678:8710   */\n      calldataload\n        /* \"#utility.yul\":8737:8755   */\n      0xffffffffffffffff\n        /* \"#utility.yul\":8729:8735   */\n      dup2\n        /* \"#utility.yul\":8726:8756   */\n      gt\n        /* \"#utility.yul\":8723:8840   */\n      iszero\n      tag_373\n      jumpi\n        /* \"#utility.yul\":8759:8838   */\n      tag_374\n      tag_221\n      jump\t// in\n    tag_374:\n        /* \"#utility.yul\":8723:8840   */\n    tag_373:\n        /* \"#utility.yul\":8864:8927   */\n      tag_375\n        /* \"#utility.yul\":8919:8926   */\n      dup7\n        /* \"#utility.yul\":8910:8916   */\n      dup3\n        /* \"#utility.yul\":8899:8908   */\n      dup8\n        /* \"#utility.yul\":8895:8917   */\n      add\n        /* \"#utility.yul\":8864:8927   */\n      tag_231\n      jump\t// in\n    tag_375:\n        /* \"#utility.yul\":8854:8927   */\n      swap2\n      pop\n        /* \"#utility.yul\":8649:8937   */\n      pop\n        /* \"#utility.yul\":7785:8944   */\n      swap3\n      pop\n      swap3\n      pop\n      swap3\n      jump\t// out\n        /* \"#utility.yul\":8950:9091   */\n    tag_238:\n        /* \"#utility.yul\":9044:9050   */\n      0x00\n        /* \"#utility.yul\":9078:9083   */\n      dup2\n        /* \"#utility.yul\":9072:9084   */\n      mload\n        /* \"#utility.yul\":9062:9084   */\n      swap1\n      pop\n        /* \"#utility.yul\":8950:9091   */\n      swap2\n      swap1\n      pop\n      jump\t// out\n        /* \"#utility.yul\":9097:9308   */\n    tag_239:\n        /* \"#utility.yul\":9223:9234   */\n      0x00\n        /* \"#utility.yul\":9257:9263   */\n      dup3\n        /* \"#utility.yul\":9252:9255   */\n      dup3\n        /* \"#utility.yul\":9245:9264   */\n      mstore\n        /* \"#utility.yul\":9297:9301   */\n      0x20\n        /* \"#utility.yul\":9292:9295   */\n      dup3\n        /* \"#utility.yul\":9288:9302   */\n      add\n        /* \"#utility.yul\":9273:9302   */\n      swap1\n      pop\n        /* \"#utility.yul\":9097:9308   */\n      swap3\n      swap2\n      pop\n      pop\n      jump\t// out\n        /* \"#utility.yul\":9314:9473   */\n    tag_240:\n        /* \"#utility.yul\":9408:9412   */\n      0x00\n        /* \"#utility.yul\":9431:9434   */\n      dup2\n        /* \"#utility.yul\":9423:9434   */\n      swap1\n      pop\n        /* \"#utility.yul\":9461:9465   */\n      0x20\n        /* \"#utility.yul\":9456:9459   */\n      dup3\n        /* \"#utility.yul\":9452:9466   */\n      add\n        /* \"#utility.yul\":9444:9466   */\n      swap1\n      pop\n        /* \"#utility.yul\":9314:9473   */\n      swap2\n      swap1\n      pop\n      jump\t// out\n        /* \"#utility.yul\":9479:9578   */\n    tag_241:\n        /* \"#utility.yul\":9531:9537   */\n      0x00\n        /* \"#utility.yul\":9565:9570   */\n      dup2\n        /* \"#utility.yul\":9559:9571   */\n      mload\n        /* \"#utility.yul\":9549:9571   */\n      swap1\n      pop\n        /* \"#utility.yul\":9479:9578   */\n      swap2\n      swap1\n      pop\n      jump\t// out\n        /* \"#utility.yul\":9584:9743   */\n    tag_242:\n        /* \"#utility.yul\":9658:9669   */\n      0x00\n        /* \"#utility.yul\":9692:9698   */\n      dup3\n        /* \"#utility.yul\":9687:9690   */\n      dup3\n        /* \"#utility.yul\":9680:9699   */\n      mstore\n        /* \"#utility.yul\":9732:9736   */\n      0x20\n        /* \"#utility.yul\":9727:9730   */\n      dup3\n        /* \"#utility.yul\":9723:9737   */\n      add\n        /* \"#utility.yul\":9708:9737   */\n      swap1\n      pop\n        /* \"#utility.yul\":9584:9743   */\n      swap3\n      swap2\n      pop\n      pop\n      jump\t// out\n        /* \"#utility.yul\":9749:9888   */\n    tag_243:\n        /* \"#utility.yul\":9838:9844   */\n      dup3\n        /* \"#utility.yul\":9833:9836   */\n      dup2\n        /* \"#utility.yul\":9828:9831   */\n      dup4\n        /* \"#utility.yul\":9822:9845   */\n      mcopy\n        /* \"#utility.yul\":9879:9880   */\n      0x00\n        /* \"#utility.yul\":9870:9876   */\n      dup4\n        /* \"#utility.yul\":9865:9868   */\n      dup4\n        /* \"#utility.yul\":9861:9877   */\n      add\n        /* \"#utility.yul\":9854:9881   */\n      mstore\n        /* \"#utility.yul\":9749:9888   */\n      pop\n      pop\n      pop\n      jump\t// out\n        /* \"#utility.yul\":9894:10251   */\n    tag_244:\n        /* \"#utility.yul\":9972:9975   */\n      0x00\n        /* \"#utility.yul\":10000:10039   */\n      tag_383\n        /* \"#utility.yul\":10033:10038   */\n      dup3\n        /* \"#utility.yul\":10000:10039   */\n      tag_241\n      jump\t// in\n    tag_383:\n        /* \"#utility.yul\":10055:10116   */\n      tag_384\n        /* \"#utility.yul\":10109:10115   */\n      dup2\n        /* \"#utility.yul\":10104:10107   */\n      dup6\n        /* \"#utility.yul\":10055:10116   */\n      tag_242\n      jump\t// in\n    tag_384:\n        /* \"#utility.yul\":10048:10116   */\n      swap4\n      pop\n        /* \"#utility.yul\":10125:10190   */\n      tag_385\n        /* \"#utility.yul\":10183:10189   */\n      dup2\n        /* \"#utility.yul\":10178:10181   */\n      dup6\n        /* \"#utility.yul\":10171:10175   */\n      0x20\n        /* \"#utility.yul\":10164:10169   */\n      dup7\n        /* \"#utility.yul\":10160:10176   */\n      add\n        /* \"#utility.yul\":10125:10190   */\n      tag_243\n      jump\t// in\n    tag_385:\n        /* \"#utility.yul\":10215:10244   */\n      tag_386\n        /* \"#utility.yul\":10237:10243   */\n      dup2\n        /* \"#utility.yul\":10215:10244   */\n      tag_224\n      jump\t// in\n    tag_386:\n        /* \"#utility.yul\":10210:10213   */\n      dup5\n        /* \"#utility.yul\":10206:10245   */\n      add\n        /* \"#utility.yul\":10199:10245   */\n      swap2\n      pop\n        /* \"#utility.yul\":9976:10251   */\n      pop\n        /* \"#utility.yul\":9894:10251   */\n      swap3\n      swap2\n      pop\n      pop\n      jump\t// out\n        /* \"#utility.yul\":10345:11034   */\n    tag_245:\n        /* \"#utility.yul\":10458:10461   */\n      0x00\n        /* \"#utility.yul\":10494:10498   */\n      0x40\n        /* \"#utility.yul\":10489:10492   */\n      dup4\n        /* \"#utility.yul\":10485:10499   */\n      add\n        /* \"#utility.yul\":10591:10595   */\n      0x00\n        /* \"#utility.yul\":10584:10589   */\n      dup4\n        /* \"#utility.yul\":10580:10596   */\n      add\n        /* \"#utility.yul\":10574:10597   */\n      mload\n        /* \"#utility.yul\":10644:10647   */\n      dup5\n        /* \"#utility.yul\":10638:10642   */\n      dup3\n        /* \"#utility.yul\":10634:10648   */\n      sub\n        /* \"#utility.yul\":10627:10631   */\n      0x00\n        /* \"#utility.yul\":10622:10625   */\n      dup7\n        /* \"#utility.yul\":10618:10632   */\n      add\n        /* \"#utility.yul\":10611:10649   */\n      mstore\n        /* \"#utility.yul\":10670:10743   */\n      tag_388\n        /* \"#utility.yul\":10738:10742   */\n      dup3\n        /* \"#utility.yul\":10724:10736   */\n      dup3\n        /* \"#utility.yul\":10670:10743   */\n      tag_244\n      jump\t// in\n    tag_388:\n        /* \"#utility.yul\":10662:10743   */\n      swap2\n      pop\n        /* \"#utility.yul\":10509:10754   */\n      pop\n        /* \"#utility.yul\":10844:10848   */\n      0x20\n        /* \"#utility.yul\":10837:10842   */\n      dup4\n        /* \"#utility.yul\":10833:10849   */\n      add\n        /* \"#utility.yul\":10827:10850   */\n      mload\n        /* \"#utility.yul\":10897:10900   */\n      dup5\n        /* \"#utility.yul\":10891:10895   */\n      dup3\n        /* \"#utility.yul\":10887:10901   */\n      sub\n        /* \"#utility.yul\":10880:10884   */\n      0x20\n        /* \"#utility.yul\":10875:10878   */\n      dup7\n        /* \"#utility.yul\":10871:10885   */\n      add\n        /* \"#utility.yul\":10864:10902   */\n      mstore\n        /* \"#utility.yul\":10923:10996   */\n      tag_389\n        /* \"#utility.yul\":10991:10995   */\n      dup3\n        /* \"#utility.yul\":10977:10989   */\n      dup3\n        /* \"#utility.yul\":10923:10996   */\n      tag_244\n      jump\t// in\n    tag_389:\n        /* \"#utility.yul\":10915:10996   */\n      swap2\n      pop\n        /* \"#utility.yul\":10764:11007   */\n      pop\n        /* \"#utility.yul\":11024:11028   */\n      dup1\n        /* \"#utility.yul\":11017:11028   */\n      swap2\n      pop\n        /* \"#utility.yul\":10463:11034   */\n      pop\n        /* \"#utility.yul\":10345:11034   */\n      swap3\n      swap2\n      pop\n      pop\n      jump\t// out\n        /* \"#utility.yul\":11040:11304   */\n    tag_246:\n        /* \"#utility.yul\":11163:11173   */\n      0x00\n        /* \"#utility.yul\":11198:11298   */\n      tag_391\n        /* \"#utility.yul\":11294:11297   */\n      dup4\n        /* \"#utility.yul\":11286:11292   */\n      dup4\n        /* \"#utility.yul\":11198:11298   */\n      tag_245\n      jump\t// in\n    tag_391:\n        /* \"#utility.yul\":11184:11298   */\n      swap1\n      pop\n        /* \"#utility.yul\":11040:11304   */\n      swap3\n      swap2\n      pop\n      pop\n      jump\t// out\n        /* \"#utility.yul\":11310:11450   */\n    tag_247:\n        /* \"#utility.yul\":11407:11411   */\n      0x00\n        /* \"#utility.yul\":11439:11443   */\n      0x20\n        /* \"#utility.yul\":11434:11437   */\n      dup3\n        /* \"#utility.yul\":11430:11444   */\n      add\n        /* \"#utility.yul\":11422:11444   */\n      swap1\n      pop\n        /* \"#utility.yul\":11310:11450   */\n      swap2\n      swap1\n      pop\n      jump\t// out\n        /* \"#utility.yul\":11548:12675   */\n    tag_248:\n        /* \"#utility.yul\":11721:11724   */\n      0x00\n        /* \"#utility.yul\":11750:11831   */\n      tag_394\n        /* \"#utility.yul\":11825:11830   */\n      dup3\n        /* \"#utility.yul\":11750:11831   */\n      tag_238\n      jump\t// in\n    tag_394:\n        /* \"#utility.yul\":11847:11960   */\n      tag_395\n        /* \"#utility.yul\":11953:11959   */\n      dup2\n        /* \"#utility.yul\":11948:11951   */\n      dup6\n        /* \"#utility.yul\":11847:11960   */\n      tag_239\n      jump\t// in\n    tag_395:\n        /* \"#utility.yul\":11840:11960   */\n      swap4\n      pop\n        /* \"#utility.yul\":11986:11989   */\n      dup4\n        /* \"#utility.yul\":12031:12035   */\n      0x20\n        /* \"#utility.yul\":12023:12029   */\n      dup3\n        /* \"#utility.yul\":12019:12036   */\n      mul\n        /* \"#utility.yul\":12014:12017   */\n      dup6\n        /* \"#utility.yul\":12010:12037   */\n      add\n        /* \"#utility.yul\":12061:12144   */\n      tag_396\n        /* \"#utility.yul\":12138:12143   */\n      dup6\n        /* \"#utility.yul\":12061:12144   */\n      tag_240\n      jump\t// in\n    tag_396:\n        /* \"#utility.yul\":12167:12174   */\n      dup1\n        /* \"#utility.yul\":12198:12199   */\n      0x00\n        /* \"#utility.yul\":12183:12630   */\n    tag_397:\n        /* \"#utility.yul\":12208:12214   */\n      dup6\n        /* \"#utility.yul\":12205:12206   */\n      dup2\n        /* \"#utility.yul\":12202:12215   */\n      lt\n        /* \"#utility.yul\":12183:12630   */\n      iszero\n      tag_399\n      jumpi\n        /* \"#utility.yul\":12279:12288   */\n      dup5\n        /* \"#utility.yul\":12273:12277   */\n      dup5\n        /* \"#utility.yul\":12269:12289   */\n      sub\n        /* \"#utility.yul\":12264:12267   */\n      dup10\n        /* \"#utility.yul\":12257:12290   */\n      mstore\n        /* \"#utility.yul\":12330:12336   */\n      dup2\n        /* \"#utility.yul\":12324:12337   */\n      mload\n        /* \"#utility.yul\":12358:12476   */\n      tag_400\n        /* \"#utility.yul\":12471:12475   */\n      dup6\n        /* \"#utility.yul\":12456:12469   */\n      dup3\n        /* \"#utility.yul\":12358:12476   */\n      tag_246\n      jump\t// in\n    tag_400:\n        /* \"#utility.yul\":12350:12476   */\n      swap5\n      pop\n        /* \"#utility.yul\":12499:12586   */\n      tag_401\n        /* \"#utility.yul\":12579:12585   */\n      dup4\n        /* \"#utility.yul\":12499:12586   */\n      tag_247\n      jump\t// in\n    tag_401:\n        /* \"#utility.yul\":12489:12586   */\n      swap3\n      pop\n        /* \"#utility.yul\":12615:12619   */\n      0x20\n        /* \"#utility.yul\":12610:12613   */\n      dup11\n        /* \"#utility.yul\":12606:12620   */\n      add\n        /* \"#utility.yul\":12599:12620   */\n      swap10\n      pop\n        /* \"#utility.yul\":12243:12630   */\n      pop\n        /* \"#utility.yul\":12230:12231   */\n      0x01\n        /* \"#utility.yul\":12227:12228   */\n      dup2\n        /* \"#utility.yul\":12223:12232   */\n      add\n        /* \"#utility.yul\":12218:12232   */\n      swap1\n      pop\n        /* \"#utility.yul\":12183:12630   */\n      jump(tag_397)\n    tag_399:\n        /* \"#utility.yul\":12187:12201   */\n      pop\n        /* \"#utility.yul\":12646:12650   */\n      dup3\n        /* \"#utility.yul\":12639:12650   */\n      swap8\n      pop\n        /* \"#utility.yul\":12666:12669   */\n      dup8\n        /* \"#utility.yul\":12659:12669   */\n      swap6\n      pop\n        /* \"#utility.yul\":11726:12675   */\n      pop\n      pop\n      pop\n      pop\n      pop\n        /* \"#utility.yul\":11548:12675   */\n      swap3\n      swap2\n      pop\n      pop\n      jump\t// out\n        /* \"#utility.yul\":12681:13162   */\n    tag_41:\n        /* \"#utility.yul\":12878:12882   */\n      0x00\n        /* \"#utility.yul\":12916:12918   */\n      0x20\n        /* \"#utility.yul\":12905:12914   */\n      dup3\n        /* \"#utility.yul\":12901:12919   */\n      add\n        /* \"#utility.yul\":12893:12919   */\n      swap1\n      pop\n        /* \"#utility.yul\":12965:12974   */\n      dup2\n        /* \"#utility.yul\":12959:12963   */\n      dup2\n        /* \"#utility.yul\":12955:12975   */\n      sub\n        /* \"#utility.yul\":12951:12952   */\n      0x00\n        /* \"#utility.yul\":12940:12949   */\n      dup4\n        /* \"#utility.yul\":12936:12953   */\n      add\n        /* \"#utility.yul\":12929:12976   */\n      mstore\n        /* \"#utility.yul\":12993:13155   */\n      tag_403\n        /* \"#utility.yul\":13150:13154   */\n      dup2\n        /* \"#utility.yul\":13141:13147   */\n      dup5\n        /* \"#utility.yul\":12993:13155   */\n      tag_248\n      jump\t// in\n    tag_403:\n        /* \"#utility.yul\":12985:13155   */\n      swap1\n      pop\n        /* \"#utility.yul\":12681:13162   */\n      swap3\n      swap2\n      pop\n      pop\n      jump\t// out\n        /* \"#utility.yul\":13168:13286   */\n    tag_249:\n        /* \"#utility.yul\":13255:13279   */\n      tag_405\n        /* \"#utility.yul\":13273:13278   */\n      dup2\n        /* \"#utility.yul\":13255:13279   */\n      tag_235\n      jump\t// in\n    tag_405:\n        /* \"#utility.yul\":13250:13253   */\n      dup3\n        /* \"#utility.yul\":13243:13280   */\n      mstore\n        /* \"#utility.yul\":13168:13286   */\n      pop\n      pop\n      jump\t// out\n        /* \"#utility.yul\":13292:13461   */\n    tag_250:\n        /* \"#utility.yul\":13376:13387   */\n      0x00\n        /* \"#utility.yul\":13410:13416   */\n      dup3\n        /* \"#utility.yul\":13405:13408   */\n      dup3\n        /* \"#utility.yul\":13398:13417   */\n      mstore\n        /* \"#utility.yul\":13450:13454   */\n      0x20\n        /* \"#utility.yul\":13445:13448   */\n      dup3\n        /* \"#utility.yul\":13441:13455   */\n      add\n        /* \"#utility.yul\":13426:13455   */\n      swap1\n      pop\n        /* \"#utility.yul\":13292:13461   */\n      swap3\n      swap2\n      pop\n      pop\n      jump\t// out\n        /* \"#utility.yul\":13467:13844   */\n    tag_251:\n        /* \"#utility.yul\":13555:13558   */\n      0x00\n        /* \"#utility.yul\":13583:13622   */\n      tag_408\n        /* \"#utility.yul\":13616:13621   */\n      dup3\n        /* \"#utility.yul\":13583:13622   */\n      tag_241\n      jump\t// in\n    tag_408:\n        /* \"#utility.yul\":13638:13709   */\n      tag_409\n        /* \"#utility.yul\":13702:13708   */\n      dup2\n        /* \"#utility.yul\":13697:13700   */\n      dup6\n        /* \"#utility.yul\":13638:13709   */\n      tag_250\n      jump\t// in\n    tag_409:\n        /* \"#utility.yul\":13631:13709   */\n      swap4\n      pop\n        /* \"#utility.yul\":13718:13783   */\n      tag_410\n        /* \"#utility.yul\":13776:13782   */\n      dup2\n        /* \"#utility.yul\":13771:13774   */\n      dup6\n        /* \"#utility.yul\":13764:13768   */\n      0x20\n        /* \"#utility.yul\":13757:13762   */\n      dup7\n        /* \"#utility.yul\":13753:13769   */\n      add\n        /* \"#utility.yul\":13718:13783   */\n      tag_243\n      jump\t// in\n    tag_410:\n        /* \"#utility.yul\":13808:13837   */\n      tag_411\n        /* \"#utility.yul\":13830:13836   */\n      dup2\n        /* \"#utility.yul\":13808:13837   */\n      tag_224\n      jump\t// in\n    tag_411:\n        /* \"#utility.yul\":13803:13806   */\n      dup5\n        /* \"#utility.yul\":13799:13838   */\n      add\n        /* \"#utility.yul\":13792:13838   */\n      swap2\n      pop\n        /* \"#utility.yul\":13559:13844   */\n      pop\n        /* \"#utility.yul\":13467:13844   */\n      swap3\n      swap2\n      pop\n      pop\n      jump\t// out\n        /* \"#utility.yul\":13850:15686   */\n    tag_46:\n        /* \"#utility.yul\":14327:14331   */\n      0x00\n        /* \"#utility.yul\":14365:14368   */\n      0x0120\n        /* \"#utility.yul\":14354:14363   */\n      dup3\n        /* \"#utility.yul\":14350:14369   */\n      add\n        /* \"#utility.yul\":14342:14369   */\n      swap1\n      pop\n        /* \"#utility.yul\":14379:14450   */\n      tag_413\n        /* \"#utility.yul\":14447:14448   */\n      0x00\n        /* \"#utility.yul\":14436:14445   */\n      dup4\n        /* \"#utility.yul\":14432:14449   */\n      add\n        /* \"#utility.yul\":14423:14429   */\n      dup13\n        /* \"#utility.yul\":14379:14450   */\n      tag_249\n      jump\t// in\n    tag_413:\n        /* \"#utility.yul\":14497:14506   */\n      dup2\n        /* \"#utility.yul\":14491:14495   */\n      dup2\n        /* \"#utility.yul\":14487:14507   */\n      sub\n        /* \"#utility.yul\":14482:14484   */\n      0x20\n        /* \"#utility.yul\":14471:14480   */\n      dup4\n        /* \"#utility.yul\":14467:14485   */\n      add\n        /* \"#utility.yul\":14460:14508   */\n      mstore\n        /* \"#utility.yul\":14525:14603   */\n      tag_414\n        /* \"#utility.yul\":14598:14602   */\n      dup2\n        /* \"#utility.yul\":14589:14595   */\n      dup12\n        /* \"#utility.yul\":14525:14603   */\n      tag_251\n      jump\t// in\n    tag_414:\n        /* \"#utility.yul\":14517:14603   */\n      swap1\n      pop\n        /* \"#utility.yul\":14650:14659   */\n      dup2\n        /* \"#utility.yul\":14644:14648   */\n      dup2\n        /* \"#utility.yul\":14640:14660   */\n      sub\n        /* \"#utility.yul\":14635:14637   */\n      0x40\n        /* \"#utility.yul\":14624:14633   */\n      dup4\n        /* \"#utility.yul\":14620:14638   */\n      add\n        /* \"#utility.yul\":14613:14661   */\n      mstore\n        /* \"#utility.yul\":14678:14756   */\n      tag_415\n        /* \"#utility.yul\":14751:14755   */\n      dup2\n        /* \"#utility.yul\":14742:14748   */\n      dup11\n        /* \"#utility.yul\":14678:14756   */\n      tag_251\n      jump\t// in\n    tag_415:\n        /* \"#utility.yul\":14670:14756   */\n      swap1\n      pop\n        /* \"#utility.yul\":14803:14812   */\n      dup2\n        /* \"#utility.yul\":14797:14801   */\n      dup2\n        /* \"#utility.yul\":14793:14813   */\n      sub\n        /* \"#utility.yul\":14788:14790   */\n      0x60\n        /* \"#utility.yul\":14777:14786   */\n      dup4\n        /* \"#utility.yul\":14773:14791   */\n      add\n        /* \"#utility.yul\":14766:14814   */\n      mstore\n        /* \"#utility.yul\":14831:14909   */\n      tag_416\n        /* \"#utility.yul\":14904:14908   */\n      dup2\n        /* \"#utility.yul\":14895:14901   */\n      dup10\n        /* \"#utility.yul\":14831:14909   */\n      tag_251\n      jump\t// in\n    tag_416:\n        /* \"#utility.yul\":14823:14909   */\n      swap1\n      pop\n        /* \"#utility.yul\":14957:14966   */\n      dup2\n        /* \"#utility.yul\":14951:14955   */\n      dup2\n        /* \"#utility.yul\":14947:14967   */\n      sub\n        /* \"#utility.yul\":14941:14944   */\n      0x80\n        /* \"#utility.yul\":14930:14939   */\n      dup4\n        /* \"#utility.yul\":14926:14945   */\n      add\n        /* \"#utility.yul\":14919:14968   */\n      mstore\n        /* \"#utility.yul\":14985:15063   */\n      tag_417\n        /* \"#utility.yul\":15058:15062   */\n      dup2\n        /* \"#utility.yul\":15049:15055   */\n      dup9\n        /* \"#utility.yul\":14985:15063   */\n      tag_251\n      jump\t// in\n    tag_417:\n        /* \"#utility.yul\":14977:15063   */\n      swap1\n      pop\n        /* \"#utility.yul\":15111:15120   */\n      dup2\n        /* \"#utility.yul\":15105:15109   */\n      dup2\n        /* \"#utility.yul\":15101:15121   */\n      sub\n        /* \"#utility.yul\":15095:15098   */\n      0xa0\n        /* \"#utility.yul\":15084:15093   */\n      dup4\n        /* \"#utility.yul\":15080:15099   */\n      add\n        /* \"#utility.yul\":15073:15122   */\n      mstore\n        /* \"#utility.yul\":15139:15217   */\n      tag_418\n        /* \"#utility.yul\":15212:15216   */\n      dup2\n        /* \"#utility.yul\":15203:15209   */\n      dup8\n        /* \"#utility.yul\":15139:15217   */\n      tag_251\n      jump\t// in\n    tag_418:\n        /* \"#utility.yul\":15131:15217   */\n      swap1\n      pop\n        /* \"#utility.yul\":15265:15274   */\n      dup2\n        /* \"#utility.yul\":15259:15263   */\n      dup2\n        /* \"#utility.yul\":15255:15275   */\n      sub\n        /* \"#utility.yul\":15249:15252   */\n      0xc0\n        /* \"#utility.yul\":15238:15247   */\n      dup4\n        /* \"#utility.yul\":15234:15253   */\n      add\n        /* \"#utility.yul\":15227:15276   */\n      mstore\n        /* \"#utility.yul\":15293:15371   */\n      tag_419\n        /* \"#utility.yul\":15366:15370   */\n      dup2\n        /* \"#utility.yul\":15357:15363   */\n      dup7\n        /* \"#utility.yul\":15293:15371   */\n      tag_251\n      jump\t// in\n    tag_419:\n        /* \"#utility.yul\":15285:15371   */\n      swap1\n      pop\n        /* \"#utility.yul\":15419:15428   */\n      dup2\n        /* \"#utility.yul\":15413:15417   */\n      dup2\n        /* \"#utility.yul\":15409:15429   */\n      sub\n        /* \"#utility.yul\":15403:15406   */\n      0xe0\n        /* \"#utility.yul\":15392:15401   */\n      dup4\n        /* \"#utility.yul\":15388:15407   */\n      add\n        /* \"#utility.yul\":15381:15430   */\n      mstore\n        /* \"#utility.yul\":15447:15525   */\n      tag_420\n        /* \"#utility.yul\":15520:15524   */\n      dup2\n        /* \"#utility.yul\":15511:15517   */\n      dup6\n        /* \"#utility.yul\":15447:15525   */\n      tag_251\n      jump\t// in\n    tag_420:\n        /* \"#utility.yul\":15439:15525   */\n      swap1\n      pop\n        /* \"#utility.yul\":15573:15582   */\n      dup2\n        /* \"#utility.yul\":15567:15571   */\n      dup2\n        /* \"#utility.yul\":15563:15583   */\n      sub\n        /* \"#utility.yul\":15557:15560   */\n      0x0100\n        /* \"#utility.yul\":15546:15555   */\n      dup4\n        /* \"#utility.yul\":15542:15561   */\n      add\n        /* \"#utility.yul\":15535:15584   */\n      mstore\n        /* \"#utility.yul\":15601:15679   */\n      tag_421\n        /* \"#utility.yul\":15674:15678   */\n      dup2\n        /* \"#utility.yul\":15665:15671   */\n      dup5\n        /* \"#utility.yul\":15601:15679   */\n      tag_251\n      jump\t// in\n    tag_421:\n        /* \"#utility.yul\":15593:15679   */\n      swap1\n      pop\n        /* \"#utility.yul\":13850:15686   */\n      swap11\n      swap10\n      pop\n      pop\n      pop\n      pop\n      pop\n      pop\n      pop\n      pop\n      pop\n      pop\n      jump\t// out\n        /* \"#utility.yul\":15692:17124   */\n    tag_55:\n        /* \"#utility.yul\":16073:16077   */\n      0x00\n        /* \"#utility.yul\":16111:16114   */\n      0xe0\n        /* \"#utility.yul\":16100:16109   */\n      dup3\n        /* \"#utility.yul\":16096:16115   */\n      add\n        /* \"#utility.yul\":16088:16115   */\n      swap1\n      pop\n        /* \"#utility.yul\":16125:16196   */\n      tag_423\n        /* \"#utility.yul\":16193:16194   */\n      0x00\n        /* \"#utility.yul\":16182:16191   */\n      dup4\n        /* \"#utility.yul\":16178:16195   */\n      add\n        /* \"#utility.yul\":16169:16175   */\n      dup11\n        /* \"#utility.yul\":16125:16196   */\n      tag_249\n      jump\t// in\n    tag_423:\n        /* \"#utility.yul\":16243:16252   */\n      dup2\n        /* \"#utility.yul\":16237:16241   */\n      dup2\n        /* \"#utility.yul\":16233:16253   */\n      sub\n        /* \"#utility.yul\":16228:16230   */\n      0x20\n        /* \"#utility.yul\":16217:16226   */\n      dup4\n        /* \"#utility.yul\":16213:16231   */\n      add\n        /* \"#utility.yul\":16206:16254   */\n      mstore\n        /* \"#utility.yul\":16271:16349   */\n      tag_424\n        /* \"#utility.yul\":16344:16348   */\n      dup2\n        /* \"#utility.yul\":16335:16341   */\n      dup10\n        /* \"#utility.yul\":16271:16349   */\n      tag_251\n      jump\t// in\n    tag_424:\n        /* \"#utility.yul\":16263:16349   */\n      swap1\n      pop\n        /* \"#utility.yul\":16396:16405   */\n      dup2\n        /* \"#utility.yul\":16390:16394   */\n      dup2\n        /* \"#utility.yul\":16386:16406   */\n      sub\n        /* \"#utility.yul\":16381:16383   */\n      0x40\n        /* \"#utility.yul\":16370:16379   */\n      dup4\n        /* \"#utility.yul\":16366:16384   */\n      add\n        /* \"#utility.yul\":16359:16407   */\n      mstore\n        /* \"#utility.yul\":16424:16502   */\n      tag_425\n        /* \"#utility.yul\":16497:16501   */\n      dup2\n        /* \"#utility.yul\":16488:16494   */\n      dup9\n        /* \"#utility.yul\":16424:16502   */\n      tag_251\n      jump\t// in\n    tag_425:\n        /* \"#utility.yul\":16416:16502   */\n      swap1\n      pop\n        /* \"#utility.yul\":16549:16558   */\n      dup2\n        /* \"#utility.yul\":16543:16547   */\n      dup2\n        /* \"#utility.yul\":16539:16559   */\n      sub\n        /* \"#utility.yul\":16534:16536   */\n      0x60\n        /* \"#utility.yul\":16523:16532   */\n      dup4\n        /* \"#utility.yul\":16519:16537   */\n      add\n        /* \"#utility.yul\":16512:16560   */\n      mstore\n        /* \"#utility.yul\":16577:16655   */\n      tag_426\n        /* \"#utility.yul\":16650:16654   */\n      dup2\n        /* \"#utility.yul\":16641:16647   */\n      dup8\n        /* \"#utility.yul\":16577:16655   */\n      tag_251\n      jump\t// in\n    tag_426:\n        /* \"#utility.yul\":16569:16655   */\n      swap1\n      pop\n        /* \"#utility.yul\":16703:16712   */\n      dup2\n        /* \"#utility.yul\":16697:16701   */\n      dup2\n        /* \"#utility.yul\":16693:16713   */\n      sub\n        /* \"#utility.yul\":16687:16690   */\n      0x80\n        /* \"#utility.yul\":16676:16685   */\n      dup4\n        /* \"#utility.yul\":16672:16691   */\n      add\n        /* \"#utility.yul\":16665:16714   */\n      mstore\n        /* \"#utility.yul\":16731:16809   */\n      tag_427\n        /* \"#utility.yul\":16804:16808   */\n      dup2\n        /* \"#utility.yul\":16795:16801   */\n      dup7\n        /* \"#utility.yul\":16731:16809   */\n      tag_251\n      jump\t// in\n    tag_427:\n        /* \"#utility.yul\":16723:16809   */\n      swap1\n      pop\n        /* \"#utility.yul\":16857:16866   */\n      dup2\n        /* \"#utility.yul\":16851:16855   */\n      dup2\n        /* \"#utility.yul\":16847:16867   */\n      sub\n        /* \"#utility.yul\":16841:16844   */\n      0xa0\n        /* \"#utility.yul\":16830:16839   */\n      dup4\n        /* \"#utility.yul\":16826:16845   */\n      add\n        /* \"#utility.yul\":16819:16868   */\n      mstore\n        /* \"#utility.yul\":16885:16963   */\n      tag_428\n        /* \"#utility.yul\":16958:16962   */\n      dup2\n        /* \"#utility.yul\":16949:16955   */\n      dup6\n        /* \"#utility.yul\":16885:16963   */\n      tag_251\n      jump\t// in\n    tag_428:\n        /* \"#utility.yul\":16877:16963   */\n      swap1\n      pop\n        /* \"#utility.yul\":17011:17020   */\n      dup2\n        /* \"#utility.yul\":17005:17009   */\n      dup2\n        /* \"#utility.yul\":17001:17021   */\n      sub\n        /* \"#utility.yul\":16995:16998   */\n      0xc0\n        /* \"#utility.yul\":16984:16993   */\n      dup4\n        /* \"#utility.yul\":16980:16999   */\n      add\n        /* \"#utility.yul\":16973:17022   */\n      mstore\n        /* \"#utility.yul\":17039:17117   */\n      tag_429\n        /* \"#utility.yul\":17112:17116   */\n      dup2\n        /* \"#utility.yul\":17103:17109   */\n      dup5\n        /* \"#utility.yul\":17039:17117   */\n      tag_251\n      jump\t// in\n    tag_429:\n        /* \"#utility.yul\":17031:17117   */\n      swap1\n      pop\n        /* \"#utility.yul\":15692:17124   */\n      swap9\n      swap8\n      pop\n      pop\n      pop\n      pop\n      pop\n      pop\n      pop\n      pop\n      jump\t// out\n        /* \"#utility.yul\":17130:17278   */\n    tag_252:\n        /* \"#utility.yul\":17232:17243   */\n      0x00\n        /* \"#utility.yul\":17269:17272   */\n      dup2\n        /* \"#utility.yul\":17254:17272   */\n      swap1\n      pop\n        /* \"#utility.yul\":17130:17278   */\n      swap3\n      swap2\n      pop\n      pop\n      jump\t// out\n        /* \"#utility.yul\":17284:17674   */\n    tag_253:\n        /* \"#utility.yul\":17390:17393   */\n      0x00\n        /* \"#utility.yul\":17418:17457   */\n      tag_432\n        /* \"#utility.yul\":17451:17456   */\n      dup3\n        /* \"#utility.yul\":17418:17457   */\n      tag_241\n      jump\t// in\n    tag_432:\n        /* \"#utility.yul\":17473:17562   */\n      tag_433\n        /* \"#utility.yul\":17555:17561   */\n      dup2\n        /* \"#utility.yul\":17550:17553   */\n      dup6\n        /* \"#utility.yul\":17473:17562   */\n      tag_252\n      jump\t// in\n    tag_433:\n        /* \"#utility.yul\":17466:17562   */\n      swap4\n      pop\n        /* \"#utility.yul\":17571:17636   */\n      tag_434\n        /* \"#utility.yul\":17629:17635   */\n      dup2\n        /* \"#utility.yul\":17624:17627   */\n      dup6\n        /* \"#utility.yul\":17617:17621   */\n      0x20\n        /* \"#utility.yul\":17610:17615   */\n      dup7\n        /* \"#utility.yul\":17606:17622   */\n      add\n        /* \"#utility.yul\":17571:17636   */\n      tag_243\n      jump\t// in\n    tag_434:\n        /* \"#utility.yul\":17661:17667   */\n      dup1\n        /* \"#utility.yul\":17656:17659   */\n      dup5\n        /* \"#utility.yul\":17652:17668   */\n      add\n        /* \"#utility.yul\":17645:17668   */\n      swap2\n      pop\n        /* \"#utility.yul\":17394:17674   */\n      pop\n        /* \"#utility.yul\":17284:17674   */\n      swap3\n      swap2\n      pop\n      pop\n      jump\t// out\n        /* \"#utility.yul\":17680:17955   */\n    tag_62:\n        /* \"#utility.yul\":17812:17815   */\n      0x00\n        /* \"#utility.yul\":17834:17929   */\n      tag_436\n        /* \"#utility.yul\":17925:17928   */\n      dup3\n        /* \"#utility.yul\":17916:17922   */\n      dup5\n        /* \"#utility.yul\":17834:17929   */\n      tag_253\n      jump\t// in\n    tag_436:\n        /* \"#utility.yul\":17827:17929   */\n      swap2\n      pop\n        /* \"#utility.yul\":17946:17949   */\n      dup2\n        /* \"#utility.yul\":17939:17949   */\n      swap1\n      pop\n        /* \"#utility.yul\":17680:17955   */\n      swap3\n      swap2\n      pop\n      pop\n      jump\t// out\n        /* \"#utility.yul\":17961:18137   */\n    tag_254:\n        /* \"#utility.yul\":18101:18129   */\n      0x50617469656e7420616c72656164792072656769737465726564000000000000\n        /* \"#utility.yul\":18097:18098   */\n      0x00\n        /* \"#utility.yul\":18089:18095   */\n      dup3\n        /* \"#utility.yul\":18085:18099   */\n      add\n        /* \"#utility.yul\":18078:18130   */\n      mstore\n        /* \"#utility.yul\":17961:18137   */\n      pop\n      jump\t// out\n        /* \"#utility.yul\":18143:18509   */\n    tag_255:\n        /* \"#utility.yul\":18285:18288   */\n      0x00\n        /* \"#utility.yul\":18306:18373   */\n      tag_439\n        /* \"#utility.yul\":18370:18372   */\n      0x1a\n        /* \"#utility.yul\":18365:18368   */\n      dup4\n        /* \"#utility.yul\":18306:18373   */\n      tag_250\n      jump\t// in\n    tag_439:\n        /* \"#utility.yul\":18299:18373   */\n      swap2\n      pop\n        /* \"#utility.yul\":18382:18475   */\n      tag_440\n        /* \"#utility.yul\":18471:18474   */\n      dup3\n        /* \"#utility.yul\":18382:18475   */\n      tag_254\n      jump\t// in\n    tag_440:\n        /* \"#utility.yul\":18500:18502   */\n      0x20\n        /* \"#utility.yul\":18495:18498   */\n      dup3\n        /* \"#utility.yul\":18491:18503   */\n      add\n        /* \"#utility.yul\":18484:18503   */\n      swap1\n      pop\n        /* \"#utility.yul\":18143:18509   */\n      swap2\n      swap1\n      pop\n      jump\t// out\n        /* \"#utility.yul\":18515:18934   */\n    tag_65:\n        /* \"#utility.yul\":18681:18685   */\n      0x00\n        /* \"#utility.yul\":18719:18721   */\n      0x20\n        /* \"#utility.yul\":18708:18717   */\n      dup3\n        /* \"#utility.yul\":18704:18722   */\n      add\n        /* \"#utility.yul\":18696:18722   */\n      swap1\n      pop\n        /* \"#utility.yul\":18768:18777   */\n      dup2\n        /* \"#utility.yul\":18762:18766   */\n      dup2\n        /* \"#utility.yul\":18758:18778   */\n      sub\n        /* \"#utility.yul\":18754:18755   */\n      0x00\n        /* \"#utility.yul\":18743:18752   */\n      dup4\n        /* \"#utility.yul\":18739:18756   */\n      add\n        /* \"#utility.yul\":18732:18779   */\n      mstore\n        /* \"#utility.yul\":18796:18927   */\n      tag_442\n        /* \"#utility.yul\":18922:18926   */\n      dup2\n        /* \"#utility.yul\":18796:18927   */\n      tag_255\n      jump\t// in\n    tag_442:\n        /* \"#utility.yul\":18788:18927   */\n      swap1\n      pop\n        /* \"#utility.yul\":18515:18934   */\n      swap2\n      swap1\n      pop\n      jump\t// out\n        /* \"#utility.yul\":18940:19120   */\n    tag_256:\n        /* \"#utility.yul\":18988:19065   */\n      0x4e487b7100000000000000000000000000000000000000000000000000000000\n        /* \"#utility.yul\":18985:18986   */\n      0x00\n        /* \"#utility.yul\":18978:19066   */\n      mstore\n        /* \"#utility.yul\":19085:19089   */\n      0x22\n        /* \"#utility.yul\":19082:19083   */\n      0x04\n        /* \"#utility.yul\":19075:19090   */\n      mstore\n        /* \"#utility.yul\":19109:19113   */\n      0x24\n        /* \"#utility.yul\":19106:19107   */\n      0x00\n        /* \"#utility.yul\":19099:19114   */\n      revert\n        /* \"#utility.yul\":19126:19446   */\n    tag_119:\n        /* \"#utility.yul\":19170:19176   */\n      0x00\n        /* \"#utility.yul\":19207:19208   */\n      0x02\n        /* \"#utility.yul\":19201:19205   */\n      dup3\n        /* \"#utility.yul\":19197:19209   */\n      div\n        /* \"#utility.yul\":19187:19209   */\n      swap1\n      pop\n        /* \"#utility.yul\":19254:19255   */\n      0x01\n        /* \"#utility.yul\":19248:19252   */\n      dup3\n        /* \"#utility.yul\":19244:19256   */\n      and\n        /* \"#utility.yul\":19275:19293   */\n      dup1\n        /* \"#utility.yul\":19265:19346   */\n      tag_445\n      jumpi\n        /* \"#utility.yul\":19331:19335   */\n      0x7f\n        /* \"#utility.yul\":19323:19329   */\n      dup3\n        /* \"#utility.yul\":19319:19336   */\n      and\n        /* \"#utility.yul\":19309:19336   */\n      swap2\n      pop\n        /* \"#utility.yul\":19265:19346   */\n    tag_445:\n        /* \"#utility.yul\":19393:19395   */\n      0x20\n        /* \"#utility.yul\":19385:19391   */\n      dup3\n        /* \"#utility.yul\":19382:19396   */\n      lt\n        /* \"#utility.yul\":19362:19380   */\n      dup2\n        /* \"#utility.yul\":19359:19397   */\n      sub\n        /* \"#utility.yul\":19356:19440   */\n      tag_446\n      jumpi\n        /* \"#utility.yul\":19412:19430   */\n      tag_447\n      tag_256\n      jump\t// in\n    tag_447:\n        /* \"#utility.yul\":19356:19440   */\n    tag_446:\n        /* \"#utility.yul\":19177:19446   */\n      pop\n        /* \"#utility.yul\":19126:19446   */\n      swap2\n      swap1\n      pop\n      jump\t// out\n        /* \"#utility.yul\":19452:19593   */\n    tag_257:\n        /* \"#utility.yul\":19501:19505   */\n      0x00\n        /* \"#utility.yul\":19524:19527   */\n      dup2\n        /* \"#utility.yul\":19516:19527   */\n      swap1\n      pop\n        /* \"#utility.yul\":19547:19550   */\n      dup2\n        /* \"#utility.yul\":19544:19545   */\n      0x00\n        /* \"#utility.yul\":19537:19551   */\n      mstore\n        /* \"#utility.yul\":19581:19585   */\n      0x20\n        /* \"#utility.yul\":19578:19579   */\n      0x00\n        /* \"#utility.yul\":19568:19586   */\n      keccak256\n        /* \"#utility.yul\":19560:19586   */\n      swap1\n      pop\n        /* \"#utility.yul\":19452:19593   */\n      swap2\n      swap1\n      pop\n      jump\t// out\n        /* \"#utility.yul\":19599:19692   */\n    tag_258:\n        /* \"#utility.yul\":19636:19642   */\n      0x00\n        /* \"#utility.yul\":19683:19685   */\n      0x20\n        /* \"#utility.yul\":19678:19680   */\n      0x1f\n        /* \"#utility.yul\":19671:19676   */\n      dup4\n        /* \"#utility.yul\":19667:19681   */\n      add\n        /* \"#utility.yul\":19663:19686   */\n      div\n        /* \"#utility.yul\":19653:19686   */\n      swap1\n      pop\n        /* \"#utility.yul\":19599:19692   */\n      swap2\n      swap1\n      pop\n      jump\t// out\n        /* \"#utility.yul\":19698:19805   */\n    tag_259:\n        /* \"#utility.yul\":19742:19750   */\n      0x00\n        /* \"#utility.yul\":19792:19797   */\n      dup3\n        /* \"#utility.yul\":19786:19790   */\n      dup3\n        /* \"#utility.yul\":19782:19798   */\n      shl\n        /* \"#utility.yul\":19761:19798   */\n      swap1\n      pop\n        /* \"#utility.yul\":19698:19805   */\n      swap3\n      swap2\n      pop\n      pop\n      jump\t// out\n        /* \"#utility.yul\":19811:20204   */\n    tag_260:\n        /* \"#utility.yul\":19880:19886   */\n      0x00\n        /* \"#utility.yul\":19930:19931   */\n      0x08\n        /* \"#utility.yul\":19918:19928   */\n      dup4\n        /* \"#utility.yul\":19914:19932   */\n      mul\n        /* \"#utility.yul\":19953:20050   */\n      tag_452\n        /* \"#utility.yul\":19983:20049   */\n      0xffffffffffffffffffffffffffffffffffffffffffffffffffffffffffffffff\n        /* \"#utility.yul\":19972:19981   */\n      dup3\n        /* \"#utility.yul\":19953:20050   */\n      tag_259\n      jump\t// in\n    tag_452:\n        /* \"#utility.yul\":20071:20110   */\n      tag_453\n        /* \"#utility.yul\":20101:20109   */\n      dup7\n        /* \"#utility.yul\":20090:20099   */\n      dup4\n        /* \"#utility.yul\":20071:20110   */\n      tag_259\n      jump\t// in\n    tag_453:\n        /* \"#utility.yul\":20059:20110   */\n      swap6\n      pop\n        /* \"#utility.yul\":20143:20147   */\n      dup1\n        /* \"#utility.yul\":20139:20148   */\n      not\n        /* \"#utility.yul\":20132:20137   */\n      dup5\n        /* \"#utility.yul\":20128:20149   */\n      and\n        /* \"#utility.yul\":20119:20149   */\n      swap4\n      pop\n        /* \"#utility.yul\":20192:20196   */\n      dup1\n        /* \"#utility.yul\":20182:20190   */\n      dup7\n        /* \"#utility.yul\":20178:20197   */\n      and\n        /* \"#utility.yul\":20171:20176   */\n      dup5\n        /* \"#utility.yul\":20168:20198   */\n      or\n        /* \"#utility.yul\":20158:20198   */\n      swap3\n      pop\n        /* \"#utility.yul\":19887:20204   */\n      pop\n      pop\n        /* \"#utility.yul\":19811:20204   */\n      swap4\n      swap3\n      pop\n      pop\n      pop\n      jump\t// out\n        /* \"#utility.yul\":20210:20287   */\n    tag_261:\n        /* \"#utility.yul\":20247:20254   */\n      0x00\n        /* \"#utility.yul\":20276:20281   */\n      dup2\n        /* \"#utility.yul\":20265:20281   */\n      swap1\n      pop\n        /* \"#utility.yul\":20210:20287   */\n      swap2\n      swap1\n      pop\n      jump\t// out\n        /* \"#utility.yul\":20293:20353   */\n    tag_262:\n        /* \"#utility.yul\":20321:20324   */\n      0x00\n        /* \"#utility.yul\":20342:20347   */\n      dup2\n        /* \"#utility.yul\":20335:20347   */\n      swap1\n      pop\n        /* \"#utility.yul\":20293:20353   */\n      swap2\n      swap1\n      pop\n      jump\t// out\n        /* \"#utility.yul\":20359:20501   */\n    tag_263:\n        /* \"#utility.yul\":20409:20418   */\n      0x00\n        /* \"#utility.yul\":20442:20495   */\n      tag_457\n        /* \"#utility.yul\":20460:20494   */\n      tag_458\n        /* \"#utility.yul\":20469:20493   */\n      tag_459\n        /* \"#utility.yul\":20487:20492   */\n      dup5\n        /* \"#utility.yul\":20469:20493   */\n      tag_261\n      jump\t// in\n    tag_459:\n        /* \"#utility.yul\":20460:20494   */\n      tag_262\n      jump\t// in\n    tag_458:\n        /* \"#utility.yul\":20442:20495   */\n      tag_261\n      jump\t// in\n    tag_457:\n        /* \"#utility.yul\":20429:20495   */\n      swap1\n      pop\n        /* \"#utility.yul\":20359:20501   */\n      swap2\n      swap1\n      pop\n      jump\t// out\n        /* \"#utility.yul\":20507:20582   */\n    tag_264:\n        /* \"#utility.yul\":20550:20553   */\n      0x00\n        /* \"#utility.yul\":20571:20576   */\n      dup2\n        /* \"#utility.yul\":20564:20576   */\n      swap1\n      pop\n        /* \"#utility.yul\":20507:20582   */\n      swap2\n      swap1\n      pop\n      jump\t// out\n        /* \"#utility.yul\":20588:20857   */\n    tag_265:\n        /* \"#utility.yul\":20698:20737   */\n      tag_462\n        /* \"#utility.yul\":20729:20736   */\n      dup4\n        /* \"#utility.yul\":20698:20737   */\n      tag_263\n      jump\t// in\n    tag_462:\n        /* \"#utility.yul\":20759:20850   */\n      tag_463\n        /* \"#utility.yul\":20808:20849   */\n      tag_464\n        /* \"#utility.yul\":20832:20848   */\n      dup3\n        /* \"#utility.yul\":20808:20849   */\n      tag_264\n      jump\t// in\n    tag_464:\n        /* \"#utility.yul\":20800:20806   */\n      dup5\n        /* \"#utility.yul\":20793:20797   */\n      dup5\n        /* \"#utility.yul\":20787:20798   */\n      sload\n        /* \"#utility.yul\":20759:20850   */\n      tag_260\n      jump\t// in\n    tag_463:\n        /* \"#utility.yul\":20753:20757   */\n      dup3\n        /* \"#utility.yul\":20746:20851   */\n      sstore\n        /* \"#utility.yul\":20664:20857   */\n      pop\n        /* \"#utility.yul\":20588:20857   */\n      pop\n      pop\n      pop\n      jump\t// out\n        /* \"#utility.yul\":20863:20936   */\n    tag_266:\n        /* \"#utility.yul\":20908:20911   */\n      0x00\n        /* \"#utility.yul\":20929:20930   */\n      0x00\n        /* \"#utility.yul\":20922:20930   */\n      swap1\n      pop\n        /* \"#utility.yul\":20863:20936   */\n      swap1\n      jump\t// out\n        /* \"#utility.yul\":20942:21131   */\n    tag_267:\n        /* \"#utility.yul\":21019:21051   */\n      tag_467\n      tag_266\n      jump\t// in\n    tag_467:\n        /* \"#utility.yul\":21060:21125   */\n      tag_468\n        /* \"#utility.yul\":21118:21124   */\n      dup2\n        /* \"#utility.yul\":21110:21116   */\n      dup5\n        /* \"#utility.yul\":21104:21108   */\n      dup5\n        /* \"#utility.yul\":21060:21125   */\n      tag_265\n      jump\t// in\n    tag_468:\n        /* \"#utility.yul\":20995:21131   */\n      pop\n        /* \"#utility.yul\":20942:21131   */\n      pop\n      pop\n      jump\t// out\n        /* \"#utility.yul\":21137:21323   */\n    tag_268:\n        /* \"#utility.yul\":21197:21317   */\n    tag_470:\n        /* \"#utility.yul\":21214:21217   */\n      dup2\n        /* \"#utility.yul\":21207:21212   */\n      dup2\n        /* \"#utility.yul\":21204:21218   */\n      lt\n        /* \"#utility.yul\":21197:21317   */\n      iszero\n      tag_472\n      jumpi\n        /* \"#utility.yul\":21268:21307   */\n      tag_473\n        /* \"#utility.yul\":21305:21306   */\n      0x00\n        /* \"#utility.yul\":21298:21303   */\n      dup3\n        /* \"#utility.yul\":21268:21307   */\n      tag_267\n      jump\t// in\n    tag_473:\n        /* \"#utility.yul\":21241:21242   */\n      0x01\n        /* \"#utility.yul\":21234:21239   */\n      dup2\n        /* \"#utility.yul\":21230:21243   */\n      add\n        /* \"#utility.yul\":21221:21243   */\n      swap1\n      pop\n        /* \"#utility.yul\":21197:21317   */\n      jump(tag_470)\n    tag_472:\n        /* \"#utility.yul\":21137:21323   */\n      pop\n      pop\n      jump\t// out\n        /* \"#utility.yul\":21329:21872   */\n    tag_269:\n        /* \"#utility.yul\":21430:21432   */\n      0x1f\n        /* \"#utility.yul\":21425:21428   */\n      dup3\n        /* \"#utility.yul\":21422:21433   */\n      gt\n        /* \"#utility.yul\":21419:21865   */\n      iszero\n      tag_475\n      jumpi\n        /* \"#utility.yul\":21464:21502   */\n      tag_476\n        /* \"#utility.yul\":21496:21501   */\n      dup2\n        /* \"#utility.yul\":21464:21502   */\n      tag_257\n      jump\t// in\n    tag_476:\n        /* \"#utility.yul\":21548:21577   */\n      tag_477\n        /* \"#utility.yul\":21566:21576   */\n      dup5\n        /* \"#utility.yul\":21548:21577   */\n      tag_258\n      jump\t// in\n    tag_477:\n        /* \"#utility.yul\":21538:21546   */\n      dup2\n        /* \"#utility.yul\":21534:21578   */\n      add\n        /* \"#utility.yul\":21731:21733   */\n      0x20\n        /* \"#utility.yul\":21719:21729   */\n      dup6\n        /* \"#utility.yul\":21716:21734   */\n      lt\n        /* \"#utility.yul\":21713:21762   */\n      iszero\n      tag_478\n      jumpi\n        /* \"#utility.yul\":21752:21760   */\n      dup2\n        /* \"#utility.yul\":21737:21760   */\n      swap1\n      pop\n        /* \"#utility.yul\":21713:21762   */\n    tag_478:\n        /* \"#utility.yul\":21775:21855   */\n      tag_479\n        /* \"#utility.yul\":21831:21853   */\n      tag_480\n        /* \"#utility.yul\":21849:21852   */\n      dup6\n        /* \"#utility.yul\":21831:21853   */\n      tag_258\n      jump\t// in\n    tag_480:\n        /* \"#utility.yul\":21821:21829   */\n      dup4\n        /* \"#utility.yul\":21817:21854   */\n      add\n        /* \"#utility.yul\":21804:21815   */\n      dup3\n        /* \"#utility.yul\":21775:21855   */\n      tag_268\n      jump\t// in\n    tag_479:\n        /* \"#utility.yul\":21434:21865   */\n      pop\n      pop\n        /* \"#utility.yul\":21419:21865   */\n    tag_475:\n        /* \"#utility.yul\":21329:21872   */\n      pop\n      pop\n      pop\n      jump\t// out\n        /* \"#utility.yul\":21878:21995   */\n    tag_270:\n        /* \"#utility.yul\":21932:21940   */\n      0x00\n        /* \"#utility.yul\":21982:21987   */\n      dup3\n        /* \"#utility.yul\":21976:21980   */\n      dup3\n        /* \"#utility.yul\":21972:21988   */\n      shr\n        /* \"#utility.yul\":21951:21988   */\n      swap1\n      pop\n        /* \"#utility.yul\":21878:21995   */\n      swap3\n      swap2\n      pop\n      pop\n      jump\t// out\n        /* \"#utility.yul\":22001:22170   */\n    tag_271:\n        /* \"#utility.yul\":22045:22051   */\n      0x00\n        /* \"#utility.yul\":22078:22129   */\n      tag_483\n        /* \"#utility.yul\":22126:22127   */\n      0x00\n        /* \"#utility.yul\":22122:22128   */\n      not\n        /* \"#utility.yul\":22114:22119   */\n      dup5\n        /* \"#utility.yul\":22111:22112   */\n      0x08\n        /* \"#utility.yul\":22107:22120   */\n      mul\n        /* \"#utility.yul\":22078:22129   */\n      tag_270\n      jump\t// in\n    tag_483:\n        /* \"#utility.yul\":22074:22130   */\n      not\n        /* \"#utility.yul\":22159:22163   */\n      dup1\n        /* \"#utility.yul\":22153:22157   */\n      dup4\n        /* \"#utility.yul\":22149:22164   */\n      and\n        /* \"#utility.yul\":22139:22164   */\n      swap2\n      pop\n        /* \"#utility.yul\":22052:22170   */\n      pop\n        /* \"#utility.yul\":22001:22170   */\n      swap3\n      swap2\n      pop\n      pop\n      jump\t// out\n        /* \"#utility.yul\":22175:22470   */\n    tag_272:\n        /* \"#utility.yul\":22251:22255   */\n      0x00\n        /* \"#utility.yul\":22397:22426   */\n      tag_485\n        /* \"#utility.yul\":22422:22425   */\n      dup4\n        /* \"#utility.yul\":22416:22420   */\n      dup4\n        /* \"#utility.yul\":22397:22426   */\n      tag_271\n      jump\t// in\n    tag_485:\n        /* \"#utility.yul\":22389:22426   */\n      swap2\n      pop\n        /* \"#utility.yul\":22459:22462   */\n      dup3\n        /* \"#utility.yul\":22456:22457   */\n      0x02\n        /* \"#utility.yul\":22452:22463   */\n      mul\n        /* \"#utility.yul\":22446:22450   */\n      dup3\n        /* \"#utility.yul\":22443:22464   */\n      or\n        /* \"#utility.yul\":22435:22464   */\n      swap1\n      pop\n        /* \"#utility.yul\":22175:22470   */\n      swap3\n      swap2\n      pop\n      pop\n      jump\t// out\n        /* \"#utility.yul\":22475:23870   */\n    tag_68:\n        /* \"#utility.yul\":22592:22629   */\n      tag_487\n        /* \"#utility.yul\":22625:22628   */\n      dup3\n        /* \"#utility.yul\":22592:22629   */\n      tag_241\n      jump\t// in\n    tag_487:\n        /* \"#utility.yul\":22694:22712   */\n      0xffffffffffffffff\n        /* \"#utility.yul\":22686:22692   */\n      dup2\n        /* \"#utility.yul\":22683:22713   */\n      gt\n        /* \"#utility.yul\":22680:22736   */\n      iszero\n      tag_488\n      jumpi\n        /* \"#utility.yul\":22716:22734   */\n      tag_489\n      tag_225\n      jump\t// in\n    tag_489:\n        /* \"#utility.yul\":22680:22736   */\n    tag_488:\n        /* \"#utility.yul\":22760:22798   */\n      tag_490\n        /* \"#utility.yul\":22792:22796   */\n      dup3\n        /* \"#utility.yul\":22786:22797   */\n      sload\n        /* \"#utility.yul\":22760:22798   */\n      tag_119\n      jump\t// in\n    tag_490:\n        /* \"#utility.yul\":22845:22912   */\n      tag_491\n        /* \"#utility.yul\":22905:22911   */\n      dup3\n        /* \"#utility.yul\":22897:22903   */\n      dup3\n        /* \"#utility.yul\":22891:22895   */\n      dup6\n        /* \"#utility.yul\":22845:22912   */\n      tag_269\n      jump\t// in\n    tag_491:\n        /* \"#utility.yul\":22939:22940   */\n      0x00\n        /* \"#utility.yul\":22963:22967   */\n      0x20\n        /* \"#utility.yul\":22950:22967   */\n      swap1\n      pop\n        /* \"#utility.yul\":22995:22997   */\n      0x1f\n        /* \"#utility.yul\":22987:22993   */\n      dup4\n        /* \"#utility.yul\":22984:22998   */\n      gt\n        /* \"#utility.yul\":23012:23013   */\n      0x01\n        /* \"#utility.yul\":23007:23625   */\n      dup2\n      eq\n      tag_493\n      jumpi\n        /* \"#utility.yul\":23669:23670   */\n      0x00\n        /* \"#utility.yul\":23686:23692   */\n      dup5\n        /* \"#utility.yul\":23683:23760   */\n      iszero\n      tag_494\n      jumpi\n        /* \"#utility.yul\":23735:23744   */\n      dup3\n        /* \"#utility.yul\":23730:23733   */\n      dup8\n        /* \"#utility.yul\":23726:23745   */\n      add\n        /* \"#utility.yul\":23720:23746   */\n      mload\n        /* \"#utility.yul\":23711:23746   */\n      swap1\n      pop\n        /* \"#utility.yul\":23683:23760   */\n    tag_494:\n        /* \"#utility.yul\":23786:23853   */\n      tag_495\n        /* \"#utility.yul\":23846:23852   */\n      dup6\n        /* \"#utility.yul\":23839:23844   */\n      dup3\n        /* \"#utility.yul\":23786:23853   */\n      tag_272\n      jump\t// in\n    tag_495:\n        /* \"#utility.yul\":23780:23784   */\n      dup7\n        /* \"#utility.yul\":23773:23854   */\n      sstore\n        /* \"#utility.yul\":23642:23864   */\n      pop\n        /* \"#utility.yul\":22977:23864   */\n      jump(tag_492)\n        /* \"#utility.yul\":23007:23625   */\n    tag_493:\n        /* \"#utility.yul\":23059:23063   */\n      0x1f\n        /* \"#utility.yul\":23055:23064   */\n      not\n        /* \"#utility.yul\":23047:23053   */\n      dup5\n        /* \"#utility.yul\":23043:23065   */\n      and\n        /* \"#utility.yul\":23093:23130   */\n      tag_496\n        /* \"#utility.yul\":23125:23129   */\n      dup7\n        /* \"#utility.yul\":23093:23130   */\n      tag_257\n      jump\t// in\n    tag_496:\n        /* \"#utility.yul\":23152:23153   */\n      0x00\n        /* \"#utility.yul\":23166:23374   */\n    tag_497:\n        /* \"#utility.yul\":23180:23187   */\n      dup3\n        /* \"#utility.yul\":23177:23178   */\n      dup2\n        /* \"#utility.yul\":23174:23188   */\n      lt\n        /* \"#utility.yul\":23166:23374   */\n      iszero\n      tag_499\n      jumpi\n        /* \"#utility.yul\":23259:23268   */\n      dup5\n        /* \"#utility.yul\":23254:23257   */\n      dup10\n        /* \"#utility.yul\":23250:23269   */\n      add\n        /* \"#utility.yul\":23244:23270   */\n      mload\n        /* \"#utility.yul\":23236:23242   */\n      dup3\n        /* \"#utility.yul\":23229:23271   */\n      sstore\n        /* \"#utility.yul\":23310:23311   */\n      0x01\n        /* \"#utility.yul\":23302:23308   */\n      dup3\n        /* \"#utility.yul\":23298:23312   */\n      add\n        /* \"#utility.yul\":23288:23312   */\n      swap2\n      pop\n        /* \"#utility.yul\":23357:23359   */\n      0x20\n        /* \"#utility.yul\":23346:23355   */\n      dup6\n        /* \"#utility.yul\":23342:23360   */\n      add\n        /* \"#utility.yul\":23329:23360   */\n      swap5\n      pop\n        /* \"#utility.yul\":23203:23207   */\n      0x20\n        /* \"#utility.yul\":23200:23201   */\n      dup2\n        /* \"#utility.yul\":23196:23208   */\n      add\n        /* \"#utility.yul\":23191:23208   */\n      swap1\n      pop\n        /* \"#utility.yul\":23166:23374   */\n      jump(tag_497)\n    tag_499:\n        /* \"#utility.yul\":23402:23408   */\n      dup7\n        /* \"#utility.yul\":23393:23400   */\n      dup4\n        /* \"#utility.yul\":23390:23409   */\n      lt\n        /* \"#utility.yul\":23387:23566   */\n      iszero\n      tag_500\n      jumpi\n        /* \"#utility.yul\":23460:23469   */\n      dup5\n        /* \"#utility.yul\":23455:23458   */\n      dup10\n        /* \"#utility.yul\":23451:23470   */\n      add\n        /* \"#utility.yul\":23445:23471   */\n      mload\n        /* \"#utility.yul\":23503:23551   */\n      tag_501\n        /* \"#utility.yul\":23545:23549   */\n      0x1f\n        /* \"#utility.yul\":23537:23543   */\n      dup10\n        /* \"#utility.yul\":23533:23550   */\n      and\n        /* \"#utility.yul\":23522:23531   */\n      dup3\n        /* \"#utility.yul\":23503:23551   */\n      tag_271\n      jump\t// in\n    tag_501:\n        /* \"#utility.yul\":23495:23501   */\n      dup4\n        /* \"#utility.yul\":23488:23552   */\n      sstore\n        /* \"#utility.yul\":23410:23566   */\n      pop\n        /* \"#utility.yul\":23387:23566   */\n    tag_500:\n        /* \"#utility.yul\":23612:23613   */\n      0x01\n        /* \"#utility.yul\":23608:23609   */\n      0x02\n        /* \"#utility.yul\":23600:23606   */\n      dup9\n        /* \"#utility.yul\":23596:23610   */\n      mul\n        /* \"#utility.yul\":23592:23614   */\n      add\n        /* \"#utility.yul\":23586:23590   */\n      dup9\n        /* \"#utility.yul\":23579:23615   */\n      sstore\n        /* \"#utility.yul\":23014:23625   */\n      pop\n      pop\n      pop\n        /* \"#utility.yul\":22977:23864   */\n    tag_492:\n      pop\n        /* \"#utility.yul\":22567:23870   */\n      pop\n      pop\n      pop\n        /* \"#utility.yul\":22475:23870   */\n      pop\n      pop\n      jump\t// out\n        /* \"#utility.yul\":23876:24500   */\n    tag_78:\n        /* \"#utility.yul\":24065:24069   */\n      0x00\n        /* \"#utility.yul\":24103:24105   */\n      0x60\n        /* \"#utility.yul\":24092:24101   */\n      dup3\n        /* \"#utility.yul\":24088:24106   */\n      add\n        /* \"#utility.yul\":24080:24106   */\n      swap1\n      pop\n        /* \"#utility.yul\":24152:24161   */\n      dup2\n        /* \"#utility.yul\":24146:24150   */\n      dup2\n        /* \"#utility.yul\":24142:24162   */\n      sub\n        /* \"#utility.yul\":24138:24139   */\n      0x00\n        /* \"#utility.yul\":24127:24136   */\n      dup4\n        /* \"#utility.yul\":24123:24140   */\n      add\n        /* \"#utility.yul\":24116:24163   */\n      mstore\n        /* \"#utility.yul\":24180:24258   */\n      tag_503\n        /* \"#utility.yul\":24253:24257   */\n      dup2\n        /* \"#utility.yul\":24244:24250   */\n      dup7\n        /* \"#utility.yul\":24180:24258   */\n      tag_251\n      jump\t// in\n    tag_503:\n        /* \"#utility.yul\":24172:24258   */\n      swap1\n      pop\n        /* \"#utility.yul\":24305:24314   */\n      dup2\n        /* \"#utility.yul\":24299:24303   */\n      dup2\n        /* \"#utility.yul\":24295:24315   */\n      sub\n        /* \"#utility.yul\":24290:24292   */\n      0x20\n        /* \"#utility.yul\":24279:24288   */\n      dup4\n        /* \"#utility.yul\":24275:24293   */\n      add\n        /* \"#utility.yul\":24268:24316   */\n      mstore\n        /* \"#utility.yul\":24333:24411   */\n      tag_504\n        /* \"#utility.yul\":24406:24410   */\n      dup2\n        /* \"#utility.yul\":24397:24403   */\n      dup6\n        /* \"#utility.yul\":24333:24411   */\n      tag_251\n      jump\t// in\n    tag_504:\n        /* \"#utility.yul\":24325:24411   */\n      swap1\n      pop\n        /* \"#utility.yul\":24421:24493   */\n      tag_505\n        /* \"#utility.yul\":24489:24491   */\n      0x40\n        /* \"#utility.yul\":24478:24487   */\n      dup4\n        /* \"#utility.yul\":24474:24492   */\n      add\n        /* \"#utility.yul\":24465:24471   */\n      dup5\n        /* \"#utility.yul\":24421:24493   */\n      tag_249\n      jump\t// in\n    tag_505:\n        /* \"#utility.yul\":23876:24500   */\n      swap5\n      swap4\n      pop\n      pop\n      pop\n      pop\n      jump\t// out\n        /* \"#utility.yul\":24506:24733   */\n    tag_273:\n        /* \"#utility.yul\":24646:24680   */\n      0x566965772041636365737320616c726561647920676976656e20746f20746865\n        /* \"#utility.yul\":24642:24643   */\n      0x00\n        /* \"#utility.yul\":24634:24640   */\n      dup3\n        /* \"#utility.yul\":24630:24644   */\n      add\n        /* \"#utility.yul\":24623:24681   */\n      mstore\n        /* \"#utility.yul\":24715:24725   */\n      0x20446f63746f7221000000000000000000000000000000000000000000000000\n        /* \"#utility.yul\":24710:24712   */\n      0x20\n        /* \"#utility.yul\":24702:24708   */\n      dup3\n        /* \"#utility.yul\":24698:24713   */\n      add\n        /* \"#utility.yul\":24691:24726   */\n      mstore\n        /* \"#utility.yul\":24506:24733   */\n      pop\n      jump\t// out\n        /* \"#utility.yul\":24739:25105   */\n    tag_274:\n        /* \"#utility.yul\":24881:24884   */\n      0x00\n        /* \"#utility.yul\":24902:24969   */\n      tag_508\n        /* \"#utility.yul\":24966:24968   */\n      0x28\n        /* \"#utility.yul\":24961:24964   */\n      dup4\n        /* \"#utility.yul\":24902:24969   */\n      tag_250\n      jump\t// in\n    tag_508:\n        /* \"#utility.yul\":24895:24969   */\n      swap2\n      pop\n        /* \"#utility.yul\":24978:25071   */\n      tag_509\n        /* \"#utility.yul\":25067:25070   */\n      dup3\n        /* \"#utility.yul\":24978:25071   */\n      tag_273\n      jump\t// in\n    tag_509:\n        /* \"#utility.yul\":25096:25098   */\n      0x40\n        /* \"#utility.yul\":25091:25094   */\n      dup3\n        /* \"#utility.yul\":25087:25099   */\n      add\n        /* \"#utility.yul\":25080:25099   */\n      swap1\n      pop\n        /* \"#utility.yul\":24739:25105   */\n      swap2\n      swap1\n      pop\n      jump\t// out\n        /* \"#utility.yul\":25111:25530   */\n    tag_84:\n        /* \"#utility.yul\":25277:25281   */\n      0x00\n        /* \"#utility.yul\":25315:25317   */\n      0x20\n        /* \"#utility.yul\":25304:25313   */\n      dup3\n        /* \"#utility.yul\":25300:25318   */\n      add\n        /* \"#utility.yul\":25292:25318   */\n      swap1\n      pop\n        /* \"#utility.yul\":25364:25373   */\n      dup2\n        /* \"#utility.yul\":25358:25362   */\n      dup2\n        /* \"#utility.yul\":25354:25374   */\n      sub\n        /* \"#utility.yul\":25350:25351   */\n      0x00\n        /* \"#utility.yul\":25339:25348   */\n      dup4\n        /* \"#utility.yul\":25335:25352   */\n      add\n        /* \"#utility.yul\":25328:25375   */\n      mstore\n        /* \"#utility.yul\":25392:25523   */\n      tag_511\n        /* \"#utility.yul\":25518:25522   */\n      dup2\n        /* \"#utility.yul\":25392:25523   */\n      tag_274\n      jump\t// in\n    tag_511:\n        /* \"#utility.yul\":25384:25523   */\n      swap1\n      pop\n        /* \"#utility.yul\":25111:25530   */\n      swap2\n      swap1\n      pop\n      jump\t// out\n        /* \"#utility.yul\":25536:25716   */\n    tag_93:\n        /* \"#utility.yul\":25584:25661   */\n      0x4e487b7100000000000000000000000000000000000000000000000000000000\n        /* \"#utility.yul\":25581:25582   */\n      0x00\n        /* \"#utility.yul\":25574:25662   */\n      mstore\n        /* \"#utility.yul\":25681:25685   */\n      0x32\n        /* \"#utility.yul\":25678:25679   */\n      0x04\n        /* \"#utility.yul\":25671:25686   */\n      mstore\n        /* \"#utility.yul\":25705:25709   */\n      0x24\n        /* \"#utility.yul\":25702:25703   */\n      0x00\n        /* \"#utility.yul\":25695:25710   */\n      revert\n        /* \"#utility.yul\":25746:26620   */\n    tag_275:\n        /* \"#utility.yul\":25849:25852   */\n      0x00\n        /* \"#utility.yul\":25886:25891   */\n      dup2\n        /* \"#utility.yul\":25880:25892   */\n      sload\n        /* \"#utility.yul\":25915:25951   */\n      tag_514\n        /* \"#utility.yul\":25941:25950   */\n      dup2\n        /* \"#utility.yul\":25915:25951   */\n      tag_119\n      jump\t// in\n    tag_514:\n        /* \"#utility.yul\":25967:26056   */\n      tag_515\n        /* \"#utility.yul\":26049:26055   */\n      dup2\n        /* \"#utility.yul\":26044:26047   */\n      dup7\n        /* \"#utility.yul\":25967:26056   */\n      tag_252\n      jump\t// in\n    tag_515:\n        /* \"#utility.yul\":25960:26056   */\n      swap5\n      pop\n        /* \"#utility.yul\":26087:26088   */\n      0x01\n        /* \"#utility.yul\":26076:26085   */\n      dup3\n        /* \"#utility.yul\":26072:26089   */\n      and\n        /* \"#utility.yul\":26103:26104   */\n      0x00\n        /* \"#utility.yul\":26098:26264   */\n      dup2\n      eq\n      tag_517\n      jumpi\n        /* \"#utility.yul\":26278:26279   */\n      0x01\n        /* \"#utility.yul\":26273:26614   */\n      dup2\n      eq\n      tag_518\n      jumpi\n        /* \"#utility.yul\":26065:26614   */\n      jump(tag_516)\n        /* \"#utility.yul\":26098:26264   */\n    tag_517:\n        /* \"#utility.yul\":26182:26186   */\n      0xff\n        /* \"#utility.yul\":26178:26187   */\n      not\n        /* \"#utility.yul\":26167:26176   */\n      dup4\n        /* \"#utility.yul\":26163:26188   */\n      and\n        /* \"#utility.yul\":26158:26161   */\n      dup7\n        /* \"#utility.yul\":26151:26189   */\n      mstore\n        /* \"#utility.yul\":26244:26250   */\n      dup2\n        /* \"#utility.yul\":26237:26251   */\n      iszero\n        /* \"#utility.yul\":26230:26252   */\n      iszero\n        /* \"#utility.yul\":26222:26228   */\n      dup3\n        /* \"#utility.yul\":26218:26253   */\n      mul\n        /* \"#utility.yul\":26213:26216   */\n      dup7\n        /* \"#utility.yul\":26209:26254   */\n      add\n        /* \"#utility.yul\":26202:26254   */\n      swap4\n      pop\n        /* \"#utility.yul\":26098:26264   */\n      jump(tag_516)\n        /* \"#utility.yul\":26273:26614   */\n    tag_518:\n        /* \"#utility.yul\":26340:26378   */\n      tag_519\n        /* \"#utility.yul\":26372:26377   */\n      dup6\n        /* \"#utility.yul\":26340:26378   */\n      tag_257\n      jump\t// in\n    tag_519:\n        /* \"#utility.yul\":26400:26401   */\n      0x00\n        /* \"#utility.yul\":26414:26568   */\n    tag_520:\n        /* \"#utility.yul\":26428:26434   */\n      dup4\n        /* \"#utility.yul\":26425:26426   */\n      dup2\n        /* \"#utility.yul\":26422:26435   */\n      lt\n        /* \"#utility.yul\":26414:26568   */\n      iszero\n      tag_522\n      jumpi\n        /* \"#utility.yul\":26502:26509   */\n      dup2\n        /* \"#utility.yul\":26496:26510   */\n      sload\n        /* \"#utility.yul\":26492:26493   */\n      dup2\n        /* \"#utility.yul\":26487:26490   */\n      dup10\n        /* \"#utility.yul\":26483:26494   */\n      add\n        /* \"#utility.yul\":26476:26511   */\n      mstore\n        /* \"#utility.yul\":26552:26553   */\n      0x01\n        /* \"#utility.yul\":26543:26550   */\n      dup3\n        /* \"#utility.yul\":26539:26554   */\n      add\n        /* \"#utility.yul\":26528:26554   */\n      swap2\n      pop\n        /* \"#utility.yul\":26450:26454   */\n      0x20\n        /* \"#utility.yul\":26447:26448   */\n      dup2\n        /* \"#utility.yul\":26443:26455   */\n      add\n        /* \"#utility.yul\":26438:26455   */\n      swap1\n      pop\n        /* \"#utility.yul\":26414:26568   */\n      jump(tag_520)\n    tag_522:\n        /* \"#utility.yul\":26597:26603   */\n      dup4\n        /* \"#utility.yul\":26592:26595   */\n      dup9\n        /* \"#utility.yul\":26588:26604   */\n      add\n        /* \"#utility.yul\":26581:26604   */\n      swap6\n      pop\n        /* \"#utility.yul\":26280:26614   */\n      pop\n      pop\n        /* \"#utility.yul\":26065:26614   */\n    tag_516:\n      pop\n        /* \"#utility.yul\":25853:26620   */\n      pop\n      pop\n        /* \"#utility.yul\":25746:26620   */\n      swap3\n      swap2\n      pop\n      pop\n      jump\t// out\n        /* \"#utility.yul\":26626:26895   */\n    tag_96:\n        /* \"#utility.yul\":26755:26758   */\n      0x00\n        /* \"#utility.yul\":26777:26869   */\n      tag_524\n        /* \"#utility.yul\":26865:26868   */\n      dup3\n        /* \"#utility.yul\":26856:26862   */\n      dup5\n        /* \"#utility.yul\":26777:26869   */\n      tag_275\n      jump\t// in\n    tag_524:\n        /* \"#utility.yul\":26770:26869   */\n      swap2\n      pop\n        /* \"#utility.yul\":26886:26889   */\n      dup2\n        /* \"#utility.yul\":26879:26889   */\n      swap1\n      pop\n        /* \"#utility.yul\":26626:26895   */\n      swap3\n      swap2\n      pop\n      pop\n      jump\t// out\n        /* \"#utility.yul\":26901:27073   */\n    tag_276:\n        /* \"#utility.yul\":27041:27065   */\n      0x50617469656e74206e6f74207265676973746572656400000000000000000000\n        /* \"#utility.yul\":27037:27038   */\n      0x00\n        /* \"#utility.yul\":27029:27035   */\n      dup3\n        /* \"#utility.yul\":27025:27039   */\n      add\n        /* \"#utility.yul\":27018:27066   */\n      mstore\n        /* \"#utility.yul\":26901:27073   */\n      pop\n      jump\t// out\n        /* \"#utility.yul\":27079:27445   */\n    tag_277:\n        /* \"#utility.yul\":27221:27224   */\n      0x00\n        /* \"#utility.yul\":27242:27309   */\n      tag_527\n        /* \"#utility.yul\":27306:27308   */\n      0x16\n        /* \"#utility.yul\":27301:27304   */\n      dup4\n        /* \"#utility.yul\":27242:27309   */\n      tag_250\n      jump\t// in\n    tag_527:\n        /* \"#utility.yul\":27235:27309   */\n      swap2\n      pop\n        /* \"#utility.yul\":27318:27411   */\n      tag_528\n        /* \"#utility.yul\":27407:27410   */\n      dup3\n        /* \"#utility.yul\":27318:27411   */\n      tag_276\n      jump\t// in\n    tag_528:\n        /* \"#utility.yul\":27436:27438   */\n      0x20\n        /* \"#utility.yul\":27431:27434   */\n      dup3\n        /* \"#utility.yul\":27427:27439   */\n      add\n        /* \"#utility.yul\":27420:27439   */\n      swap1\n      pop\n        /* \"#utility.yul\":27079:27445   */\n      swap2\n      swap1\n      pop\n      jump\t// out\n        /* \"#utility.yul\":27451:27870   */\n    tag_109:\n        /* \"#utility.yul\":27617:27621   */\n      0x00\n        /* \"#utility.yul\":27655:27657   */\n      0x20\n        /* \"#utility.yul\":27644:27653   */\n      dup3\n        /* \"#utility.yul\":27640:27658   */\n      add\n        /* \"#utility.yul\":27632:27658   */\n      swap1\n      pop\n        /* \"#utility.yul\":27704:27713   */\n      dup2\n        /* \"#utility.yul\":27698:27702   */\n      dup2\n        /* \"#utility.yul\":27694:27714   */\n      sub\n        /* \"#utility.yul\":27690:27691   */\n      0x00\n        /* \"#utility.yul\":27679:27688   */\n      dup4\n        /* \"#utility.yul\":27675:27692   */\n      add\n        /* \"#utility.yul\":27668:27715   */\n      mstore\n        /* \"#utility.yul\":27732:27863   */\n      tag_530\n        /* \"#utility.yul\":27858:27862   */\n      dup2\n        /* \"#utility.yul\":27732:27863   */\n      tag_277\n      jump\t// in\n    tag_530:\n        /* \"#utility.yul\":27724:27863   */\n      swap1\n      pop\n        /* \"#utility.yul\":27451:27870   */\n      swap2\n      swap1\n      pop\n      jump\t// out\n\n    auxdata: 0xa26469706673582212202a137a51684c120f2a078dc122f49008990b543219c93fe30c0f70fcb41b771764736f6c634300081e0033\n}\n",
				"bytecode": {
					"linkReferences": {},
					"object": "6080604052348015600e575f5ffd5b506122ba8061001c5f395ff3fe608060405234801561000f575f5ffd5b506004361061009c575f3560e01c806391c12f761161006457806391c12f7614610168578063c6009d8414610198578063d120c10c146101d0578063ea977fc814610200578063f7252641146102365761009c565b806344334733146100a05780634f10c6c2146100d057806357812a08146101005780635df670401461011c5780637babdb2614610138575b5f5ffd5b6100ba60048036038101906100b5919061163c565b610266565b6040516100c791906116cc565b60405180910390f35b6100ea60048036038101906100e591906116e5565b6102c0565b6040516100f791906116cc565b60405180910390f35b61011a60048036038101906101159190611786565b6102f4565b005b6101366004803603810190610131919061192a565b61054a565b005b610152600480360381019061014d919061163c565b610792565b60405161015f91906116cc565b60405180910390f35b610182600480360381019061017d91906116e5565b610873565b60405161018f9190611b2a565b60405180910390f35b6101b260048036038101906101ad91906116e5565b610a0c565b6040516101c799989796959493929190611ba1565b60405180910390f35b6101ea60048036038101906101e5919061163c565b610ebd565b6040516101f791906116cc565b60405180910390f35b61021a600480360381019061021591906116e5565b610f0d565b60405161022d9796959493929190611c64565b60405180910390f35b610250600480360381019061024b91906116e5565b6114bd565b60405161025d91906116cc565b60405180910390f35b600382805160208101820180518482526020830160208501208183528095505050505050818051602081018201805184825260208301602085012081835280955050505050505f915091509054906101000a900460ff1681565b5f818051602081018201805184825260208301602085012081835280955050505050505f915054906101000a900460ff1681565b5f826040516103039190611d35565b90815260200160405180910390205f9054906101000a900460ff161561035e576040517f08c379a000000000000000000000000000000000000000000000000000000000815260040161035590611d95565b60405180910390fd5b5f6040518061012001604052808b73ffffffffffffffffffffffffffffffffffffffff1681526020018a8152602001898152602001888152602001878152602001868152602001858152602001848152602001838152509050806001846040516103c89190611d35565b90815260200160405180910390205f820151815f015f6101000a81548173ffffffffffffffffffffffffffffffffffffffff021916908373ffffffffffffffffffffffffffffffffffffffff160217905550602082015181600101908161042f9190611fb9565b5060408201518160020190816104459190611fb9565b50606082015181600301908161045b9190611fb9565b5060808201518160040190816104719190611fb9565b5060a08201518160050190816104879190611fb9565b5060c082015181600601908161049d9190611fb9565b5060e08201518160070190816104b39190611fb9565b506101008201518160080190816104ca9190611fb9565b5090505060015f846040516104df9190611d35565b90815260200160405180910390205f6101000a81548160ff0219169083151502179055507f319ae3a95b9a410d647835a7e64d54ddf28faf35a698f0a2b63999585fa38edc838a8c60405161053693929190612088565b60405180910390a150505050505050505050565b60038360405161055a9190611d35565b9081526020016040518091039020826040516105769190611d35565b90815260200160405180910390205f9054906101000a900460ff16156105d1576040517f08c379a00000000000000000000000000000000000000000000000000000000081526004016105c89061213b565b60405180910390fd5b5f5f90505f5f90505b6002846040516105ea9190611d35565b9081526020016040518091039020805490508110156106a957846040516020016106149190611d35565b6040516020818303038152906040528051906020012060028560405161063a9190611d35565b9081526020016040518091039020828154811061065a57610659612159565b5b905f5260205f2090600202015f016040516020016106789190612206565b604051602081830303815290604052805190602001200361069c57600191506106a9565b80806001019150506105da565b508061073a575f60405180604001604052808681526020018481525090506002846040516106d79190611d35565b908152602001604051809103902081908060018154018082558091505060019003905f5260205f2090600202015f909190919091505f820151815f01908161071f9190611fb9565b5060208201518160010190816107359190611fb9565b505050505b600160038560405161074c9190611d35565b9081526020016040518091039020846040516107689190611d35565b90815260200160405180910390205f6101000a81548160ff02191690831515021790555050505050565b5f5f836040516107a29190611d35565b90815260200160405180910390205f9054906101000a900460ff166107fc576040517f08c379a00000000000000000000000000000000000000000000000000000000081526004016107f390612266565b60405180910390fd5b60018360405161080c9190611d35565b908152602001604051809103902060080160405160200161082d9190612206565b60405160208183030381529060405280519060200120826040516020016108549190611d35565b6040516020818303038152906040528051906020012014905092915050565b60606002826040516108859190611d35565b9081526020016040518091039020805480602002602001604051908101604052809291908181526020015f905b82821015610a01578382905f5260205f2090600202016040518060400160405290815f820180546108e290611de0565b80601f016020809104026020016040519081016040528092919081815260200182805461090e90611de0565b80156109595780601f1061093057610100808354040283529160200191610959565b820191905f5260205f20905b81548152906001019060200180831161093c57829003601f168201915b5050505050815260200160018201805461097290611de0565b80601f016020809104026020016040519081016040528092919081815260200182805461099e90611de0565b80156109e95780601f106109c0576101008083540402835291602001916109e9565b820191905f5260205f20905b8154815290600101906020018083116109cc57829003601f168201915b505050505081525050815260200190600101906108b2565b505050509050919050565b6001818051602081018201805184825260208301602085012081835280955050505050505f91509050805f015f9054906101000a900473ffffffffffffffffffffffffffffffffffffffff1690806001018054610a6890611de0565b80601f0160208091040260200160405190810160405280929190818152602001828054610a9490611de0565b8015610adf5780601f10610ab657610100808354040283529160200191610adf565b820191905f5260205f20905b815481529060010190602001808311610ac257829003601f168201915b505050505090806002018054610af490611de0565b80601f0160208091040260200160405190810160405280929190818152602001828054610b2090611de0565b8015610b6b5780601f10610b4257610100808354040283529160200191610b6b565b820191905f5260205f20905b815481529060010190602001808311610b4e57829003601f168201915b505050505090806003018054610b8090611de0565b80601f0160208091040260200160405190810160405280929190818152602001828054610bac90611de0565b8015610bf75780601f10610bce57610100808354040283529160200191610bf7565b820191905f5260205f20905b815481529060010190602001808311610bda57829003601f168201915b505050505090806004018054610c0c90611de0565b80601f0160208091040260200160405190810160405280929190818152602001828054610c3890611de0565b8015610c835780601f10610c5a57610100808354040283529160200191610c83565b820191905f5260205f20905b815481529060010190602001808311610c6657829003601f168201915b505050505090806005018054610c9890611de0565b80601f0160208091040260200160405190810160405280929190818152602001828054610cc490611de0565b8015610d0f5780601f10610ce657610100808354040283529160200191610d0f565b820191905f5260205f20905b815481529060010190602001808311610cf257829003601f168201915b505050505090806006018054610d2490611de0565b80601f0160208091040260200160405190810160405280929190818152602001828054610d5090611de0565b8015610d9b5780601f10610d7257610100808354040283529160200191610d9b565b820191905f5260205f20905b815481529060010190602001808311610d7e57829003601f168201915b505050505090806007018054610db090611de0565b80601f0160208091040260200160405190810160405280929190818152602001828054610ddc90611de0565b8015610e275780601f10610dfe57610100808354040283529160200191610e27565b820191905f5260205f20905b815481529060010190602001808311610e0a57829003601f168201915b505050505090806008018054610e3c90611de0565b80601f0160208091040260200160405190810160405280929190818152602001828054610e6890611de0565b8015610eb35780601f10610e8a57610100808354040283529160200191610eb3565b820191905f5260205f20905b815481529060010190602001808311610e9657829003601f168201915b5050505050905089565b5f600383604051610ece9190611d35565b908152602001604051809103902082604051610eea9190611d35565b90815260200160405180910390205f9054906101000a900460ff16905092915050565b5f6060806060806060805f88604051610f269190611d35565b90815260200160405180910390205f9054906101000a900460ff16610f80576040517f08c379a0000000000000000000000000000000000000000000000000000000008152600401610f7790612266565b60405180910390fd5b5f600189604051610f919190611d35565b9081526020016040518091039020604051806101200160405290815f82015f9054906101000a900473ffffffffffffffffffffffffffffffffffffffff1673ffffffffffffffffffffffffffffffffffffffff1673ffffffffffffffffffffffffffffffffffffffff16815260200160018201805461100f90611de0565b80601f016020809104026020016040519081016040528092919081815260200182805461103b90611de0565b80156110865780601f1061105d57610100808354040283529160200191611086565b820191905f5260205f20905b81548152906001019060200180831161106957829003601f168201915b5050505050815260200160028201805461109f90611de0565b80601f01602080910402602001604051908101604052809291908181526020018280546110cb90611de0565b80156111165780601f106110ed57610100808354040283529160200191611116565b820191905f5260205f20905b8154815290600101906020018083116110f957829003601f168201915b5050505050815260200160038201805461112f90611de0565b80601f016020809104026020016040519081016040528092919081815260200182805461115b90611de0565b80156111a65780601f1061117d576101008083540402835291602001916111a6565b820191905f5260205f20905b81548152906001019060200180831161118957829003601f168201915b505050505081526020016004820180546111bf90611de0565b80601f01602080910402602001604051908101604052809291908181526020018280546111eb90611de0565b80156112365780601f1061120d57610100808354040283529160200191611236565b820191905f5260205f20905b81548152906001019060200180831161121957829003601f168201915b5050505050815260200160058201805461124f90611de0565b80601f016020809104026020016040519081016040528092919081815260200182805461127b90611de0565b80156112c65780601f1061129d576101008083540402835291602001916112c6565b820191905f5260205f20905b8154815290600101906020018083116112a957829003601f168201915b505050505081526020016006820180546112df90611de0565b80601f016020809104026020016040519081016040528092919081815260200182805461130b90611de0565b80156113565780601f1061132d57610100808354040283529160200191611356565b820191905f5260205f20905b81548152906001019060200180831161133957829003601f168201915b5050505050815260200160078201805461136f90611de0565b80601f016020809104026020016040519081016040528092919081815260200182805461139b90611de0565b80156113e65780601f106113bd576101008083540402835291602001916113e6565b820191905f5260205f20905b8154815290600101906020018083116113c957829003601f168201915b505050505081526020016008820180546113ff90611de0565b80601f016020809104026020016040519081016040528092919081815260200182805461142b90611de0565b80156114765780601f1061144d57610100808354040283529160200191611476565b820191905f5260205f20905b81548152906001019060200180831161145957829003601f168201915b5050505050815250509050805f015181602001518260400151836060015184608001518560a001518660c00151975097509750975097509750975050919395979092949650565b5f5f826040516114cd9190611d35565b90815260200160405180910390205f9054906101000a900460ff169050919050565b5f604051905090565b5f5ffd5b5f5ffd5b5f5ffd5b5f5ffd5b5f601f19601f8301169050919050565b7f4e487b71000000000000000000000000000000000000000000000000000000005f52604160045260245ffd5b61154e82611508565b810181811067ffffffffffffffff8211171561156d5761156c611518565b5b80604052505050565b5f61157f6114ef565b905061158b8282611545565b919050565b5f67ffffffffffffffff8211156115aa576115a9611518565b5b6115b382611508565b9050602081019050919050565b828183375f83830152505050565b5f6115e06115db84611590565b611576565b9050828152602081018484840111156115fc576115fb611504565b5b6116078482856115c0565b509392505050565b5f82601f83011261162357611622611500565b5b81356116338482602086016115ce565b91505092915050565b5f5f60408385031215611652576116516114f8565b5b5f83013567ffffffffffffffff81111561166f5761166e6114fc565b5b61167b8582860161160f565b925050602083013567ffffffffffffffff81111561169c5761169b6114fc565b5b6116a88582860161160f565b9150509250929050565b5f8115159050919050565b6116c6816116b2565b82525050565b5f6020820190506116df5f8301846116bd565b92915050565b5f602082840312156116fa576116f96114f8565b5b5f82013567ffffffffffffffff811115611717576117166114fc565b5b6117238482850161160f565b91505092915050565b5f73ffffffffffffffffffffffffffffffffffffffff82169050919050565b5f6117558261172c565b9050919050565b6117658161174b565b811461176f575f5ffd5b50565b5f813590506117808161175c565b92915050565b5f5f5f5f5f5f5f5f5f6101208a8c0312156117a4576117a36114f8565b5b5f6117b18c828d01611772565b99505060208a013567ffffffffffffffff8111156117d2576117d16114fc565b5b6117de8c828d0161160f565b98505060408a013567ffffffffffffffff8111156117ff576117fe6114fc565b5b61180b8c828d0161160f565b97505060608a013567ffffffffffffffff81111561182c5761182b6114fc565b5b6118388c828d0161160f565b96505060808a013567ffffffffffffffff811115611859576118586114fc565b5b6118658c828d0161160f565b95505060a08a013567ffffffffffffffff811115611886576118856114fc565b5b6118928c828d0161160f565b94505060c08a013567ffffffffffffffff8111156118b3576118b26114fc565b5b6118bf8c828d0161160f565b93505060e08a013567ffffffffffffffff8111156118e0576118df6114fc565b5b6118ec8c828d0161160f565b9250506101008a013567ffffffffffffffff81111561190e5761190d6114fc565b5b61191a8c828d0161160f565b9150509295985092959850929598565b5f5f5f60608486031215611941576119406114f8565b5b5f84013567ffffffffffffffff81111561195e5761195d6114fc565b5b61196a8682870161160f565b935050602084013567ffffffffffffffff81111561198b5761198a6114fc565b5b6119978682870161160f565b925050604084013567ffffffffffffffff8111156119b8576119b76114fc565b5b6119c48682870161160f565b9150509250925092565b5f81519050919050565b5f82825260208201905092915050565b5f819050602082019050919050565b5f81519050919050565b5f82825260208201905092915050565b8281835e5f83830152505050565b5f611a29826119f7565b611a338185611a01565b9350611a43818560208601611a11565b611a4c81611508565b840191505092915050565b5f604083015f8301518482035f860152611a718282611a1f565b91505060208301518482036020860152611a8b8282611a1f565b9150508091505092915050565b5f611aa38383611a57565b905092915050565b5f602082019050919050565b5f611ac1826119ce565b611acb81856119d8565b935083602082028501611add856119e8565b805f5b85811015611b185784840389528151611af98582611a98565b9450611b0483611aab565b925060208a01995050600181019050611ae0565b50829750879550505050505092915050565b5f6020820190508181035f830152611b428184611ab7565b905092915050565b611b538161174b565b82525050565b5f82825260208201905092915050565b5f611b73826119f7565b611b7d8185611b59565b9350611b8d818560208601611a11565b611b9681611508565b840191505092915050565b5f61012082019050611bb55f83018c611b4a565b8181036020830152611bc7818b611b69565b90508181036040830152611bdb818a611b69565b90508181036060830152611bef8189611b69565b90508181036080830152611c038188611b69565b905081810360a0830152611c178187611b69565b905081810360c0830152611c2b8186611b69565b905081810360e0830152611c3f8185611b69565b9050818103610100830152611c548184611b69565b90509a9950505050505050505050565b5f60e082019050611c775f83018a611b4a565b8181036020830152611c898189611b69565b90508181036040830152611c9d8188611b69565b90508181036060830152611cb18187611b69565b90508181036080830152611cc58186611b69565b905081810360a0830152611cd98185611b69565b905081810360c0830152611ced8184611b69565b905098975050505050505050565b5f81905092915050565b5f611d0f826119f7565b611d198185611cfb565b9350611d29818560208601611a11565b80840191505092915050565b5f611d408284611d05565b915081905092915050565b7f50617469656e7420616c726561647920726567697374657265640000000000005f82015250565b5f611d7f601a83611b59565b9150611d8a82611d4b565b602082019050919050565b5f6020820190508181035f830152611dac81611d73565b9050919050565b7f4e487b71000000000000000000000000000000000000000000000000000000005f52602260045260245ffd5b5f6002820490506001821680611df757607f821691505b602082108103611e0a57611e09611db3565b5b50919050565b5f819050815f5260205f209050919050565b5f6020601f8301049050919050565b5f82821b905092915050565b5f60088302611e6c7fffffffffffffffffffffffffffffffffffffffffffffffffffffffffffffffff82611e31565b611e768683611e31565b95508019841693508086168417925050509392505050565b5f819050919050565b5f819050919050565b5f611eba611eb5611eb084611e8e565b611e97565b611e8e565b9050919050565b5f819050919050565b611ed383611ea0565b611ee7611edf82611ec1565b848454611e3d565b825550505050565b5f5f905090565b611efe611eef565b611f09818484611eca565b505050565b5b81811015611f2c57611f215f82611ef6565b600181019050611f0f565b5050565b601f821115611f7157611f4281611e10565b611f4b84611e22565b81016020851015611f5a578190505b611f6e611f6685611e22565b830182611f0e565b50505b505050565b5f82821c905092915050565b5f611f915f1984600802611f76565b1980831691505092915050565b5f611fa98383611f82565b9150826002028217905092915050565b611fc2826119f7565b67ffffffffffffffff811115611fdb57611fda611518565b5b611fe58254611de0565b611ff0828285611f30565b5f60209050601f831160018114612021575f841561200f578287015190505b6120198582611f9e565b865550612080565b601f19841661202f86611e10565b5f5b8281101561205657848901518255600182019150602085019450602081019050612031565b86831015612073578489015161206f601f891682611f82565b8355505b6001600288020188555050505b505050505050565b5f6060820190508181035f8301526120a08186611b69565b905081810360208301526120b48185611b69565b90506120c36040830184611b4a565b949350505050565b7f566965772041636365737320616c726561647920676976656e20746f207468655f8201527f20446f63746f7221000000000000000000000000000000000000000000000000602082015250565b5f612125602883611b59565b9150612130826120cb565b604082019050919050565b5f6020820190508181035f83015261215281612119565b9050919050565b7f4e487b71000000000000000000000000000000000000000000000000000000005f52603260045260245ffd5b5f815461219281611de0565b61219c8186611cfb565b9450600182165f81146121b657600181146121cb576121fd565b60ff19831686528115158202860193506121fd565b6121d485611e10565b5f5b838110156121f5578154818901526001820191506020810190506121d6565b838801955050505b50505092915050565b5f6122118284612186565b915081905092915050565b7f50617469656e74206e6f742072656769737465726564000000000000000000005f82015250565b5f612250601683611b59565b915061225b8261221c565b602082019050919050565b5f6020820190508181035f83015261227d81612244565b905091905056fea26469706673582212202a137a51684c120f2a078dc122f49008990b543219c93fe30c0f70fcb41b771764736f6c634300081e0033",
					"opcodes": "PUSH1 0x80 PUSH1 0x40 MSTORE CALLVALUE DUP1 ISZERO PUSH1 0xE JUMPI PUSH0 PUSH0 REVERT JUMPDEST POP PUSH2 0x22BA DUP1 PUSH2 0x1C PUSH0 CODECOPY PUSH0 RETURN INVALID PUSH1 0x80 PUSH1 0x40 MSTORE CALLVALUE DUP1 ISZERO PUSH2 0xF JUMPI PUSH0 PUSH0 REVERT JUMPDEST POP PUSH1 0x4 CALLDATASIZE LT PUSH2 0x9C JUMPI PUSH0 CALLDATALOAD PUSH1 0xE0 SHR DUP1 PUSH4 0x91C12F76 GT PUSH2 0x64 JUMPI DUP1 PUSH4 0x91C12F76 EQ PUSH2 0x168 JUMPI DUP1 PUSH4 0xC6009D84 EQ PUSH2 0x198 JUMPI DUP1 PUSH4 0xD120C10C EQ PUSH2 0x1D0 JUMPI DUP1 PUSH4 0xEA977FC8 EQ PUSH2 0x200 JUMPI DUP1 PUSH4 0xF7252641 EQ PUSH2 0x236 JUMPI PUSH2 0x9C JUMP JUMPDEST DUP1 PUSH4 0x44334733 EQ PUSH2 0xA0 JUMPI DUP1 PUSH4 0x4F10C6C2 EQ PUSH2 0xD0 JUMPI DUP1 PUSH4 0x57812A08 EQ PUSH2 0x100 JUMPI DUP1 PUSH4 0x5DF67040 EQ PUSH2 0x11C JUMPI DUP1 PUSH4 0x7BABDB26 EQ PUSH2 0x138 JUMPI JUMPDEST PUSH0 PUSH0 REVERT JUMPDEST PUSH2 0xBA PUSH1 0x4 DUP1 CALLDATASIZE SUB DUP2 ADD SWAP1 PUSH2 0xB5 SWAP2 SWAP1 PUSH2 0x163C JUMP JUMPDEST PUSH2 0x266 JUMP JUMPDEST PUSH1 0x40 MLOAD PUSH2 0xC7 SWAP2 SWAP1 PUSH2 0x16CC JUMP JUMPDEST PUSH1 0x40 MLOAD DUP1 SWAP2 SUB SWAP1 RETURN JUMPDEST PUSH2 0xEA PUSH1 0x4 DUP1 CALLDATASIZE SUB DUP2 ADD SWAP1 PUSH2 0xE5 SWAP2 SWAP1 PUSH2 0x16E5 JUMP JUMPDEST PUSH2 0x2C0 JUMP JUMPDEST PUSH1 0x40 MLOAD PUSH2 0xF7 SWAP2 SWAP1 PUSH2 0x16CC JUMP JUMPDEST PUSH1 0x40 MLOAD DUP1 SWAP2 SUB SWAP1 RETURN JUMPDEST PUSH2 0x11A PUSH1 0x4 DUP1 CALLDATASIZE SUB DUP2 ADD SWAP1 PUSH2 0x115 SWAP2 SWAP1 PUSH2 0x1786 JUMP JUMPDEST PUSH2 0x2F4 JUMP JUMPDEST STOP JUMPDEST PUSH2 0x136 PUSH1 0x4 DUP1 CALLDATASIZE SUB DUP2 ADD SWAP1 PUSH2 0x131 SWAP2 SWAP1 PUSH2 0x192A JUMP JUMPDEST PUSH2 0x54A JUMP JUMPDEST STOP JUMPDEST PUSH2 0x152 PUSH1 0x4 DUP1 CALLDATASIZE SUB DUP2 ADD SWAP1 PUSH2 0x14D SWAP2 SWAP1 PUSH2 0x163C JUMP JUMPDEST PUSH2 0x792 JUMP JUMPDEST PUSH1 0x40 MLOAD PUSH2 0x15F SWAP2 SWAP1 PUSH2 0x16CC JUMP JUMPDEST PUSH1 0x40 MLOAD DUP1 SWAP2 SUB SWAP1 RETURN JUMPDEST PUSH2 0x182 PUSH1 0x4 DUP1 CALLDATASIZE SUB DUP2 ADD SWAP1 PUSH2 0x17D SWAP2 SWAP1 PUSH2 0x16E5 JUMP JUMPDEST PUSH2 0x873 JUMP JUMPDEST PUSH1 0x40 MLOAD PUSH2 0x18F SWAP2 SWAP1 PUSH2 0x1B2A JUMP JUMPDEST PUSH1 0x40 MLOAD DUP1 SWAP2 SUB SWAP1 RETURN JUMPDEST PUSH2 0x1B2 PUSH1 0x4 DUP1 CALLDATASIZE SUB DUP2 ADD SWAP1 PUSH2 0x1AD SWAP2 SWAP1 PUSH2 0x16E5 JUMP JUMPDEST PUSH2 0xA0C JUMP JUMPDEST PUSH1 0x40 MLOAD PUSH2 0x1C7 SWAP10 SWAP9 SWAP8 SWAP7 SWAP6 SWAP5 SWAP4 SWAP3 SWAP2 SWAP1 PUSH2 0x1BA1 JUMP JUMPDEST PUSH1 0x40 MLOAD DUP1 SWAP2 SUB SWAP1 RETURN JUMPDEST PUSH2 0x1EA PUSH1 0x4 DUP1 CALLDATASIZE SUB DUP2 ADD SWAP1 PUSH2 0x1E5 SWAP2 SWAP1 PUSH2 0x163C JUMP JUMPDEST PUSH2 0xEBD JUMP JUMPDEST PUSH1 0x40 MLOAD PUSH2 0x1F7 SWAP2 SWAP1 PUSH2 0x16CC JUMP JUMPDEST PUSH1 0x40 MLOAD DUP1 SWAP2 SUB SWAP1 RETURN JUMPDEST PUSH2 0x21A PUSH1 0x4 DUP1 CALLDATASIZE SUB DUP2 ADD SWAP1 PUSH2 0x215 SWAP2 SWAP1 PUSH2 0x16E5 JUMP JUMPDEST PUSH2 0xF0D JUMP JUMPDEST PUSH1 0x40 MLOAD PUSH2 0x22D SWAP8 SWAP7 SWAP6 SWAP5 SWAP4 SWAP3 SWAP2 SWAP1 PUSH2 0x1C64 JUMP JUMPDEST PUSH1 0x40 MLOAD DUP1 SWAP2 SUB SWAP1 RETURN JUMPDEST PUSH2 0x250 PUSH1 0x4 DUP1 CALLDATASIZE SUB DUP2 ADD SWAP1 PUSH2 0x24B SWAP2 SWAP1 PUSH2 0x16E5 JUMP JUMPDEST PUSH2 0x14BD JUMP JUMPDEST PUSH1 0x40 MLOAD PUSH2 0x25D SWAP2 SWAP1 PUSH2 0x16CC JUMP JUMPDEST PUSH1 0x40 MLOAD DUP1 SWAP2 SUB SWAP1 RETURN JUMPDEST PUSH1 0x3 DUP3 DUP1 MLOAD PUSH1 0x20 DUP2 ADD DUP3 ADD DUP1 MLOAD DUP5 DUP3 MSTORE PUSH1 0x20 DUP4 ADD PUSH1 0x20 DUP6 ADD KECCAK256 DUP2 DUP4 MSTORE DUP1 SWAP6 POP POP POP POP POP POP DUP2 DUP1 MLOAD PUSH1 0x20 DUP2 ADD DUP3 ADD DUP1 MLOAD DUP5 DUP3 MSTORE PUSH1 0x20 DUP4 ADD PUSH1 0x20 DUP6 ADD KECCAK256 DUP2 DUP4 MSTORE DUP1 SWAP6 POP POP POP POP POP POP PUSH0 SWAP2 POP SWAP2 POP SWAP1 SLOAD SWAP1 PUSH2 0x100 EXP SWAP1 DIV PUSH1 0xFF AND DUP2 JUMP JUMPDEST PUSH0 DUP2 DUP1 MLOAD PUSH1 0x20 DUP2 ADD DUP3 ADD DUP1 MLOAD DUP5 DUP3 MSTORE PUSH1 0x20 DUP4 ADD PUSH1 0x20 DUP6 ADD KECCAK256 DUP2 DUP4 MSTORE DUP1 SWAP6 POP POP POP POP POP POP PUSH0 SWAP2 POP SLOAD SWAP1 PUSH2 0x100 EXP SWAP1 DIV PUSH1 0xFF AND DUP2 JUMP JUMPDEST PUSH0 DUP3 PUSH1 0x40 MLOAD PUSH2 0x303 SWAP2 SWAP1 PUSH2 0x1D35 JUMP JUMPDEST SWAP1 DUP2 MSTORE PUSH1 0x20 ADD PUSH1 0x40 MLOAD DUP1 SWAP2 SUB SWAP1 KECCAK256 PUSH0 SWAP1 SLOAD SWAP1 PUSH2 0x100 EXP SWAP1 DIV PUSH1 0xFF AND ISZERO PUSH2 0x35E JUMPI PUSH1 0x40 MLOAD PUSH32 0x8C379A000000000000000000000000000000000000000000000000000000000 DUP2 MSTORE PUSH1 0x4 ADD PUSH2 0x355 SWAP1 PUSH2 0x1D95 JUMP JUMPDEST PUSH1 0x40 MLOAD DUP1 SWAP2 SUB SWAP1 REVERT JUMPDEST PUSH0 PUSH1 0x40 MLOAD DUP1 PUSH2 0x120 ADD PUSH1 0x40 MSTORE DUP1 DUP12 PUSH20 0xFFFFFFFFFFFFFFFFFFFFFFFFFFFFFFFFFFFFFFFF AND DUP2 MSTORE PUSH1 0x20 ADD DUP11 DUP2 MSTORE PUSH1 0x20 ADD DUP10 DUP2 MSTORE PUSH1 0x20 ADD DUP9 DUP2 MSTORE PUSH1 0x20 ADD DUP8 DUP2 MSTORE PUSH1 0x20 ADD DUP7 DUP2 MSTORE PUSH1 0x20 ADD DUP6 DUP2 MSTORE PUSH1 0x20 ADD DUP5 DUP2 MSTORE PUSH1 0x20 ADD DUP4 DUP2 MSTORE POP SWAP1 POP DUP1 PUSH1 0x1 DUP5 PUSH1 0x40 MLOAD PUSH2 0x3C8 SWAP2 SWAP1 PUSH2 0x1D35 JUMP JUMPDEST SWAP1 DUP2 MSTORE PUSH1 0x20 ADD PUSH1 0x40 MLOAD DUP1 SWAP2 SUB SWAP1 KECCAK256 PUSH0 DUP3 ADD MLOAD DUP2 PUSH0 ADD PUSH0 PUSH2 0x100 EXP DUP2 SLOAD DUP2 PUSH20 0xFFFFFFFFFFFFFFFFFFFFFFFFFFFFFFFFFFFFFFFF MUL NOT AND SWAP1 DUP4 PUSH20 0xFFFFFFFFFFFFFFFFFFFFFFFFFFFFFFFFFFFFFFFF AND MUL OR SWAP1 SSTORE POP PUSH1 0x20 DUP3 ADD MLOAD DUP2 PUSH1 0x1 ADD SWAP1 DUP2 PUSH2 0x42F SWAP2 SWAP1 PUSH2 0x1FB9 JUMP JUMPDEST POP PUSH1 0x40 DUP3 ADD MLOAD DUP2 PUSH1 0x2 ADD SWAP1 DUP2 PUSH2 0x445 SWAP2 SWAP1 PUSH2 0x1FB9 JUMP JUMPDEST POP PUSH1 0x60 DUP3 ADD MLOAD DUP2 PUSH1 0x3 ADD SWAP1 DUP2 PUSH2 0x45B SWAP2 SWAP1 PUSH2 0x1FB9 JUMP JUMPDEST POP PUSH1 0x80 DUP3 ADD MLOAD DUP2 PUSH1 0x4 ADD SWAP1 DUP2 PUSH2 0x471 SWAP2 SWAP1 PUSH2 0x1FB9 JUMP JUMPDEST POP PUSH1 0xA0 DUP3 ADD MLOAD DUP2 PUSH1 0x5 ADD SWAP1 DUP2 PUSH2 0x487 SWAP2 SWAP1 PUSH2 0x1FB9 JUMP JUMPDEST POP PUSH1 0xC0 DUP3 ADD MLOAD DUP2 PUSH1 0x6 ADD SWAP1 DUP2 PUSH2 0x49D SWAP2 SWAP1 PUSH2 0x1FB9 JUMP JUMPDEST POP PUSH1 0xE0 DUP3 ADD MLOAD DUP2 PUSH1 0x7 ADD SWAP1 DUP2 PUSH2 0x4B3 SWAP2 SWAP1 PUSH2 0x1FB9 JUMP JUMPDEST POP PUSH2 0x100 DUP3 ADD MLOAD DUP2 PUSH1 0x8 ADD SWAP1 DUP2 PUSH2 0x4CA SWAP2 SWAP1 PUSH2 0x1FB9 JUMP JUMPDEST POP SWAP1 POP POP PUSH1 0x1 PUSH0 DUP5 PUSH1 0x40 MLOAD PUSH2 0x4DF SWAP2 SWAP1 PUSH2 0x1D35 JUMP JUMPDEST SWAP1 DUP2 MSTORE PUSH1 0x20 ADD PUSH1 0x40 MLOAD DUP1 SWAP2 SUB SWAP1 KECCAK256 PUSH0 PUSH2 0x100 EXP DUP2 SLOAD DUP2 PUSH1 0xFF MUL NOT AND SWAP1 DUP4 ISZERO ISZERO MUL OR SWAP1 SSTORE POP PUSH32 0x319AE3A95B9A410D647835A7E64D54DDF28FAF35A698F0A2B63999585FA38EDC DUP4 DUP11 DUP13 PUSH1 0x40 MLOAD PUSH2 0x536 SWAP4 SWAP3 SWAP2 SWAP1 PUSH2 0x2088 JUMP JUMPDEST PUSH1 0x40 MLOAD DUP1 SWAP2 SUB SWAP1 LOG1 POP POP POP POP POP POP POP POP POP POP JUMP JUMPDEST PUSH1 0x3 DUP4 PUSH1 0x40 MLOAD PUSH2 0x55A SWAP2 SWAP1 PUSH2 0x1D35 JUMP JUMPDEST SWAP1 DUP2 MSTORE PUSH1 0x20 ADD PUSH1 0x40 MLOAD DUP1 SWAP2 SUB SWAP1 KECCAK256 DUP3 PUSH1 0x40 MLOAD PUSH2 0x576 SWAP2 SWAP1 PUSH2 0x1D35 JUMP JUMPDEST SWAP1 DUP2 MSTORE PUSH1 0x20 ADD PUSH1 0x40 MLOAD DUP1 SWAP2 SUB SWAP1 KECCAK256 PUSH0 SWAP1 SLOAD SWAP1 PUSH2 0x100 EXP SWAP1 DIV PUSH1 0xFF AND ISZERO PUSH2 0x5D1 JUMPI PUSH1 0x40 MLOAD PUSH32 0x8C379A000000000000000000000000000000000000000000000000000000000 DUP2 MSTORE PUSH1 0x4 ADD PUSH2 0x5C8 SWAP1 PUSH2 0x213B JUMP JUMPDEST PUSH1 0x40 MLOAD DUP1 SWAP2 SUB SWAP1 REVERT JUMPDEST PUSH0 PUSH0 SWAP1 POP PUSH0 PUSH0 SWAP1 POP JUMPDEST PUSH1 0x2 DUP5 PUSH1 0x40 MLOAD PUSH2 0x5EA SWAP2 SWAP1 PUSH2 0x1D35 JUMP JUMPDEST SWAP1 DUP2 MSTORE PUSH1 0x20 ADD PUSH1 0x40 MLOAD DUP1 SWAP2 SUB SWAP1 KECCAK256 DUP1 SLOAD SWAP1 POP DUP2 LT ISZERO PUSH2 0x6A9 JUMPI DUP5 PUSH1 0x40 MLOAD PUSH1 0x20 ADD PUSH2 0x614 SWAP2 SWAP1 PUSH2 0x1D35 JUMP JUMPDEST PUSH1 0x40 MLOAD PUSH1 0x20 DUP2 DUP4 SUB SUB DUP2 MSTORE SWAP1 PUSH1 0x40 MSTORE DUP1 MLOAD SWAP1 PUSH1 0x20 ADD KECCAK256 PUSH1 0x2 DUP6 PUSH1 0x40 MLOAD PUSH2 0x63A SWAP2 SWAP1 PUSH2 0x1D35 JUMP JUMPDEST SWAP1 DUP2 MSTORE PUSH1 0x20 ADD PUSH1 0x40 MLOAD DUP1 SWAP2 SUB SWAP1 KECCAK256 DUP3 DUP2 SLOAD DUP2 LT PUSH2 0x65A JUMPI PUSH2 0x659 PUSH2 0x2159 JUMP JUMPDEST JUMPDEST SWAP1 PUSH0 MSTORE PUSH1 0x20 PUSH0 KECCAK256 SWAP1 PUSH1 0x2 MUL ADD PUSH0 ADD PUSH1 0x40 MLOAD PUSH1 0x20 ADD PUSH2 0x678 SWAP2 SWAP1 PUSH2 0x2206 JUMP JUMPDEST PUSH1 0x40 MLOAD PUSH1 0x20 DUP2 DUP4 SUB SUB DUP2 MSTORE SWAP1 PUSH1 0x40 MSTORE DUP1 MLOAD SWAP1 PUSH1 0x20 ADD KECCAK256 SUB PUSH2 0x69C JUMPI PUSH1 0x1 SWAP2 POP PUSH2 0x6A9 JUMP JUMPDEST DUP1 DUP1 PUSH1 0x1 ADD SWAP2 POP POP PUSH2 0x5DA JUMP JUMPDEST POP DUP1 PUSH2 0x73A JUMPI PUSH0 PUSH1 0x40 MLOAD DUP1 PUSH1 0x40 ADD PUSH1 0x40 MSTORE DUP1 DUP7 DUP2 MSTORE PUSH1 0x20 ADD DUP5 DUP2 MSTORE POP SWAP1 POP PUSH1 0x2 DUP5 PUSH1 0x40 MLOAD PUSH2 0x6D7 SWAP2 SWAP1 PUSH2 0x1D35 JUMP JUMPDEST SWAP1 DUP2 MSTORE PUSH1 0x20 ADD PUSH1 0x40 MLOAD DUP1 SWAP2 SUB SWAP1 KECCAK256 DUP2 SWAP1 DUP1 PUSH1 0x1 DUP2 SLOAD ADD DUP1 DUP3 SSTORE DUP1 SWAP2 POP POP PUSH1 0x1 SWAP1 SUB SWAP1 PUSH0 MSTORE PUSH1 0x20 PUSH0 KECCAK256 SWAP1 PUSH1 0x2 MUL ADD PUSH0 SWAP1 SWAP2 SWAP1 SWAP2 SWAP1 SWAP2 POP PUSH0 DUP3 ADD MLOAD DUP2 PUSH0 ADD SWAP1 DUP2 PUSH2 0x71F SWAP2 SWAP1 PUSH2 0x1FB9 JUMP JUMPDEST POP PUSH1 0x20 DUP3 ADD MLOAD DUP2 PUSH1 0x1 ADD SWAP1 DUP2 PUSH2 0x735 SWAP2 SWAP1 PUSH2 0x1FB9 JUMP JUMPDEST POP POP POP POP JUMPDEST PUSH1 0x1 PUSH1 0x3 DUP6 PUSH1 0x40 MLOAD PUSH2 0x74C SWAP2 SWAP1 PUSH2 0x1D35 JUMP JUMPDEST SWAP1 DUP2 MSTORE PUSH1 0x20 ADD PUSH1 0x40 MLOAD DUP1 SWAP2 SUB SWAP1 KECCAK256 DUP5 PUSH1 0x40 MLOAD PUSH2 0x768 SWAP2 SWAP1 PUSH2 0x1D35 JUMP JUMPDEST SWAP1 DUP2 MSTORE PUSH1 0x20 ADD PUSH1 0x40 MLOAD DUP1 SWAP2 SUB SWAP1 KECCAK256 PUSH0 PUSH2 0x100 EXP DUP2 SLOAD DUP2 PUSH1 0xFF MUL NOT AND SWAP1 DUP4 ISZERO ISZERO MUL OR SWAP1 SSTORE POP POP POP POP POP JUMP JUMPDEST PUSH0 PUSH0 DUP4 PUSH1 0x40 MLOAD PUSH2 0x7A2 SWAP2 SWAP1 PUSH2 0x1D35 JUMP JUMPDEST SWAP1 DUP2 MSTORE PUSH1 0x20 ADD PUSH1 0x40 MLOAD DUP1 SWAP2 SUB SWAP1 KECCAK256 PUSH0 SWAP1 SLOAD SWAP1 PUSH2 0x100 EXP SWAP1 DIV PUSH1 0xFF AND PUSH2 0x7FC JUMPI PUSH1 0x40 MLOAD PUSH32 0x8C379A000000000000000000000000000000000000000000000000000000000 DUP2 MSTORE PUSH1 0x4 ADD PUSH2 0x7F3 SWAP1 PUSH2 0x2266 JUMP JUMPDEST PUSH1 0x40 MLOAD DUP1 SWAP2 SUB SWAP1 REVERT JUMPDEST PUSH1 0x1 DUP4 PUSH1 0x40 MLOAD PUSH2 0x80C SWAP2 SWAP1 PUSH2 0x1D35 JUMP JUMPDEST SWAP1 DUP2 MSTORE PUSH1 0x20 ADD PUSH1 0x40 MLOAD DUP1 SWAP2 SUB SWAP1 KECCAK256 PUSH1 0x8 ADD PUSH1 0x40 MLOAD PUSH1 0x20 ADD PUSH2 0x82D SWAP2 SWAP1 PUSH2 0x2206 JUMP JUMPDEST PUSH1 0x40 MLOAD PUSH1 0x20 DUP2 DUP4 SUB SUB DUP2 MSTORE SWAP1 PUSH1 0x40 MSTORE DUP1 MLOAD SWAP1 PUSH1 0x20 ADD KECCAK256 DUP3 PUSH1 0x40 MLOAD PUSH1 0x20 ADD PUSH2 0x854 SWAP2 SWAP1 PUSH2 0x1D35 JUMP JUMPDEST PUSH1 0x40 MLOAD PUSH1 0x20 DUP2 DUP4 SUB SUB DUP2 MSTORE SWAP1 PUSH1 0x40 MSTORE DUP1 MLOAD SWAP1 PUSH1 0x20 ADD KECCAK256 EQ SWAP1 POP SWAP3 SWAP2 POP POP JUMP JUMPDEST PUSH1 0x60 PUSH1 0x2 DUP3 PUSH1 0x40 MLOAD PUSH2 0x885 SWAP2 SWAP1 PUSH2 0x1D35 JUMP JUMPDEST SWAP1 DUP2 MSTORE PUSH1 0x20 ADD PUSH1 0x40 MLOAD DUP1 SWAP2 SUB SWAP1 KECCAK256 DUP1 SLOAD DUP1 PUSH1 0x20 MUL PUSH1 0x20 ADD PUSH1 0x40 MLOAD SWAP1 DUP2 ADD PUSH1 0x40 MSTORE DUP1 SWAP3 SWAP2 SWAP1 DUP2 DUP2 MSTORE PUSH1 0x20 ADD PUSH0 SWAP1 JUMPDEST DUP3 DUP3 LT ISZERO PUSH2 0xA01 JUMPI DUP4 DUP3 SWAP1 PUSH0 MSTORE PUSH1 0x20 PUSH0 KECCAK256 SWAP1 PUSH1 0x2 MUL ADD PUSH1 0x40 MLOAD DUP1 PUSH1 0x40 ADD PUSH1 0x40 MSTORE SWAP1 DUP2 PUSH0 DUP3 ADD DUP1 SLOAD PUSH2 0x8E2 SWAP1 PUSH2 0x1DE0 JUMP JUMPDEST DUP1 PUSH1 0x1F ADD PUSH1 0x20 DUP1 SWAP2 DIV MUL PUSH1 0x20 ADD PUSH1 0x40 MLOAD SWAP1 DUP2 ADD PUSH1 0x40 MSTORE DUP1 SWAP3 SWAP2 SWAP1 DUP2 DUP2 MSTORE PUSH1 0x20 ADD DUP3 DUP1 SLOAD PUSH2 0x90E SWAP1 PUSH2 0x1DE0 JUMP JUMPDEST DUP1 ISZERO PUSH2 0x959 JUMPI DUP1 PUSH1 0x1F LT PUSH2 0x930 JUMPI PUSH2 0x100 DUP1 DUP4 SLOAD DIV MUL DUP4 MSTORE SWAP2 PUSH1 0x20 ADD SWAP2 PUSH2 0x959 JUMP JUMPDEST DUP3 ADD SWAP2 SWAP1 PUSH0 MSTORE PUSH1 0x20 PUSH0 KECCAK256 SWAP1 JUMPDEST DUP2 SLOAD DUP2 MSTORE SWAP1 PUSH1 0x1 ADD SWAP1 PUSH1 0x20 ADD DUP1 DUP4 GT PUSH2 0x93C JUMPI DUP3 SWAP1 SUB PUSH1 0x1F AND DUP3 ADD SWAP2 JUMPDEST POP POP POP POP POP DUP2 MSTORE PUSH1 0x20 ADD PUSH1 0x1 DUP3 ADD DUP1 SLOAD PUSH2 0x972 SWAP1 PUSH2 0x1DE0 JUMP JUMPDEST DUP1 PUSH1 0x1F ADD PUSH1 0x20 DUP1 SWAP2 DIV MUL PUSH1 0x20 ADD PUSH1 0x40 MLOAD SWAP1 DUP2 ADD PUSH1 0x40 MSTORE DUP1 SWAP3 SWAP2 SWAP1 DUP2 DUP2 MSTORE PUSH1 0x20 ADD DUP3 DUP1 SLOAD PUSH2 0x99E SWAP1 PUSH2 0x1DE0 JUMP JUMPDEST DUP1 ISZERO PUSH2 0x9E9 JUMPI DUP1 PUSH1 0x1F LT PUSH2 0x9C0 JUMPI PUSH2 0x100 DUP1 DUP4 SLOAD DIV MUL DUP4 MSTORE SWAP2 PUSH1 0x20 ADD SWAP2 PUSH2 0x9E9 JUMP JUMPDEST DUP3 ADD SWAP2 SWAP1 PUSH0 MSTORE PUSH1 0x20 PUSH0 KECCAK256 SWAP1 JUMPDEST DUP2 SLOAD DUP2 MSTORE SWAP1 PUSH1 0x1 ADD SWAP1 PUSH1 0x20 ADD DUP1 DUP4 GT PUSH2 0x9CC JUMPI DUP3 SWAP1 SUB PUSH1 0x1F AND DUP3 ADD SWAP2 JUMPDEST POP POP POP POP POP DUP2 MSTORE POP POP DUP2 MSTORE PUSH1 0x20 ADD SWAP1 PUSH1 0x1 ADD SWAP1 PUSH2 0x8B2 JUMP JUMPDEST POP POP POP POP SWAP1 POP SWAP2 SWAP1 POP JUMP JUMPDEST PUSH1 0x1 DUP2 DUP1 MLOAD PUSH1 0x20 DUP2 ADD DUP3 ADD DUP1 MLOAD DUP5 DUP3 MSTORE PUSH1 0x20 DUP4 ADD PUSH1 0x20 DUP6 ADD KECCAK256 DUP2 DUP4 MSTORE DUP1 SWAP6 POP POP POP POP POP POP PUSH0 SWAP2 POP SWAP1 POP DUP1 PUSH0 ADD PUSH0 SWAP1 SLOAD SWAP1 PUSH2 0x100 EXP SWAP1 DIV PUSH20 0xFFFFFFFFFFFFFFFFFFFFFFFFFFFFFFFFFFFFFFFF AND SWAP1 DUP1 PUSH1 0x1 ADD DUP1 SLOAD PUSH2 0xA68 SWAP1 PUSH2 0x1DE0 JUMP JUMPDEST DUP1 PUSH1 0x1F ADD PUSH1 0x20 DUP1 SWAP2 DIV MUL PUSH1 0x20 ADD PUSH1 0x40 MLOAD SWAP1 DUP2 ADD PUSH1 0x40 MSTORE DUP1 SWAP3 SWAP2 SWAP1 DUP2 DUP2 MSTORE PUSH1 0x20 ADD DUP3 DUP1 SLOAD PUSH2 0xA94 SWAP1 PUSH2 0x1DE0 JUMP JUMPDEST DUP1 ISZERO PUSH2 0xADF JUMPI DUP1 PUSH1 0x1F LT PUSH2 0xAB6 JUMPI PUSH2 0x100 DUP1 DUP4 SLOAD DIV MUL DUP4 MSTORE SWAP2 PUSH1 0x20 ADD SWAP2 PUSH2 0xADF JUMP JUMPDEST DUP3 ADD SWAP2 SWAP1 PUSH0 MSTORE PUSH1 0x20 PUSH0 KECCAK256 SWAP1 JUMPDEST DUP2 SLOAD DUP2 MSTORE SWAP1 PUSH1 0x1 ADD SWAP1 PUSH1 0x20 ADD DUP1 DUP4 GT PUSH2 0xAC2 JUMPI DUP3 SWAP1 SUB PUSH1 0x1F AND DUP3 ADD SWAP2 JUMPDEST POP POP POP POP POP SWAP1 DUP1 PUSH1 0x2 ADD DUP1 SLOAD PUSH2 0xAF4 SWAP1 PUSH2 0x1DE0 JUMP JUMPDEST DUP1 PUSH1 0x1F ADD PUSH1 0x20 DUP1 SWAP2 DIV MUL PUSH1 0x20 ADD PUSH1 0x40 MLOAD SWAP1 DUP2 ADD PUSH1 0x40 MSTORE DUP1 SWAP3 SWAP2 SWAP1 DUP2 DUP2 MSTORE PUSH1 0x20 ADD DUP3 DUP1 SLOAD PUSH2 0xB20 SWAP1 PUSH2 0x1DE0 JUMP JUMPDEST DUP1 ISZERO PUSH2 0xB6B JUMPI DUP1 PUSH1 0x1F LT PUSH2 0xB42 JUMPI PUSH2 0x100 DUP1 DUP4 SLOAD DIV MUL DUP4 MSTORE SWAP2 PUSH1 0x20 ADD SWAP2 PUSH2 0xB6B JUMP JUMPDEST DUP3 ADD SWAP2 SWAP1 PUSH0 MSTORE PUSH1 0x20 PUSH0 KECCAK256 SWAP1 JUMPDEST DUP2 SLOAD DUP2 MSTORE SWAP1 PUSH1 0x1 ADD SWAP1 PUSH1 0x20 ADD DUP1 DUP4 GT PUSH2 0xB4E JUMPI DUP3 SWAP1 SUB PUSH1 0x1F AND DUP3 ADD SWAP2 JUMPDEST POP POP POP POP POP SWAP1 DUP1 PUSH1 0x3 ADD DUP1 SLOAD PUSH2 0xB80 SWAP1 PUSH2 0x1DE0 JUMP JUMPDEST DUP1 PUSH1 0x1F ADD PUSH1 0x20 DUP1 SWAP2 DIV MUL PUSH1 0x20 ADD PUSH1 0x40 MLOAD SWAP1 DUP2 ADD PUSH1 0x40 MSTORE DUP1 SWAP3 SWAP2 SWAP1 DUP2 DUP2 MSTORE PUSH1 0x20 ADD DUP3 DUP1 SLOAD PUSH2 0xBAC SWAP1 PUSH2 0x1DE0 JUMP JUMPDEST DUP1 ISZERO PUSH2 0xBF7 JUMPI DUP1 PUSH1 0x1F LT PUSH2 0xBCE JUMPI PUSH2 0x100 DUP1 DUP4 SLOAD DIV MUL DUP4 MSTORE SWAP2 PUSH1 0x20 ADD SWAP2 PUSH2 0xBF7 JUMP JUMPDEST DUP3 ADD SWAP2 SWAP1 PUSH0 MSTORE PUSH1 0x20 PUSH0 KECCAK256 SWAP1 JUMPDEST DUP2 SLOAD DUP2 MSTORE SWAP1 PUSH1 0x1 ADD SWAP1 PUSH1 0x20 ADD DUP1 DUP4 GT PUSH2 0xBDA JUMPI DUP3 SWAP1 SUB PUSH1 0x1F AND DUP3 ADD SWAP2 JUMPDEST POP POP POP POP POP SWAP1 DUP1 PUSH1 0x4 ADD DUP1 SLOAD PUSH2 0xC0C SWAP1 PUSH2 0x1DE0 JUMP JUMPDEST DUP1 PUSH1 0x1F ADD PUSH1 0x20 DUP1 SWAP2 DIV MUL PUSH1 0x20 ADD PUSH1 0x40 MLOAD SWAP1 DUP2 ADD PUSH1 0x40 MSTORE DUP1 SWAP3 SWAP2 SWAP1 DUP2 DUP2 MSTORE PUSH1 0x20 ADD DUP3 DUP1 SLOAD PUSH2 0xC38 SWAP1 PUSH2 0x1DE0 JUMP JUMPDEST DUP1 ISZERO PUSH2 0xC83 JUMPI DUP1 PUSH1 0x1F LT PUSH2 0xC5A JUMPI PUSH2 0x100 DUP1 DUP4 SLOAD DIV MUL DUP4 MSTORE SWAP2 PUSH1 0x20 ADD SWAP2 PUSH2 0xC83 JUMP JUMPDEST DUP3 ADD SWAP2 SWAP1 PUSH0 MSTORE PUSH1 0x20 PUSH0 KECCAK256 SWAP1 JUMPDEST DUP2 SLOAD DUP2 MSTORE SWAP1 PUSH1 0x1 ADD SWAP1 PUSH1 0x20 ADD DUP1 DUP4 GT PUSH2 0xC66 JUMPI DUP3 SWAP1 SUB PUSH1 0x1F AND DUP3 ADD SWAP2 JUMPDEST POP POP POP POP POP SWAP1 DUP1 PUSH1 0x5 ADD DUP1 SLOAD PUSH2 0xC98 SWAP1 PUSH2 0x1DE0 JUMP JUMPDEST DUP1 PUSH1 0x1F ADD PUSH1 0x20 DUP1 SWAP2 DIV MUL PUSH1 0x20 ADD PUSH1 0x40 MLOAD SWAP1 DUP2 ADD PUSH1 0x40 MSTORE DUP1 SWAP3 SWAP2 SWAP1 DUP2 DUP2 MSTORE PUSH1 0x20 ADD DUP3 DUP1 SLOAD PUSH2 0xCC4 SWAP1 PUSH2 0x1DE0 JUMP JUMPDEST DUP1 ISZERO PUSH2 0xD0F JUMPI DUP1 PUSH1 0x1F LT PUSH2 0xCE6 JUMPI PUSH2 0x100 DUP1 DUP4 SLOAD DIV MUL DUP4 MSTORE SWAP2 PUSH1 0x20 ADD SWAP2 PUSH2 0xD0F JUMP JUMPDEST DUP3 ADD SWAP2 SWAP1 PUSH0 MSTORE PUSH1 0x20 PUSH0 KECCAK256 SWAP1 JUMPDEST DUP2 SLOAD DUP2 MSTORE SWAP1 PUSH1 0x1 ADD SWAP1 PUSH1 0x20 ADD DUP1 DUP4 GT PUSH2 0xCF2 JUMPI DUP3 SWAP1 SUB PUSH1 0x1F AND DUP3 ADD SWAP2 JUMPDEST POP POP POP POP POP SWAP1 DUP1 PUSH1 0x6 ADD DUP1 SLOAD PUSH2 0xD24 SWAP1 PUSH2 0x1DE0 JUMP JUMPDEST DUP1 PUSH1 0x1F ADD PUSH1 0x20 DUP1 SWAP2 DIV MUL PUSH1 0x20 ADD PUSH1 0x40 MLOAD SWAP1 DUP2 ADD PUSH1 0x40 MSTORE DUP1 SWAP3 SWAP2 SWAP1 DUP2 DUP2 MSTORE PUSH1 0x20 ADD DUP3 DUP1 SLOAD PUSH2 0xD50 SWAP1 PUSH2 0x1DE0 JUMP JUMPDEST DUP1 ISZERO PUSH2 0xD9B JUMPI DUP1 PUSH1 0x1F LT PUSH2 0xD72 JUMPI PUSH2 0x100 DUP1 DUP4 SLOAD DIV MUL DUP4 MSTORE SWAP2 PUSH1 0x20 ADD SWAP2 PUSH2 0xD9B JUMP JUMPDEST DUP3 ADD SWAP2 SWAP1 PUSH0 MSTORE PUSH1 0x20 PUSH0 KECCAK256 SWAP1 JUMPDEST DUP2 SLOAD DUP2 MSTORE SWAP1 PUSH1 0x1 ADD SWAP1 PUSH1 0x20 ADD DUP1 DUP4 GT PUSH2 0xD7E JUMPI DUP3 SWAP1 SUB PUSH1 0x1F AND DUP3 ADD SWAP2 JUMPDEST POP POP POP POP POP SWAP1 DUP1 PUSH1 0x7 ADD DUP1 SLOAD PUSH2 0xDB0 SWAP1 PUSH2 0x1DE0 JUMP JUMPDEST DUP1 PUSH1 0x1F ADD PUSH1 0x20 DUP1 SWAP2 DIV MUL PUSH1 0x20 ADD PUSH1 0x40 MLOAD SWAP1 DUP2 ADD PUSH1 0x40 MSTORE DUP1 SWAP3 SWAP2 SWAP1 DUP2 DUP2 MSTORE PUSH1 0x20 ADD DUP3 DUP1 SLOAD PUSH2 0xDDC SWAP1 PUSH2 0x1DE0 JUMP JUMPDEST DUP1 ISZERO PUSH2 0xE27 JUMPI DUP1 PUSH1 0x1F LT PUSH2 0xDFE JUMPI PUSH2 0x100 DUP1 DUP4 SLOAD DIV MUL DUP4 MSTORE SWAP2 PUSH1 0x20 ADD SWAP2 PUSH2 0xE27 JUMP JUMPDEST DUP3 ADD SWAP2 SWAP1 PUSH0 MSTORE PUSH1 0x20 PUSH0 KECCAK256 SWAP1 JUMPDEST DUP2 SLOAD DUP2 MSTORE SWAP1 PUSH1 0x1 ADD SWAP1 PUSH1 0x20 ADD DUP1 DUP4 GT PUSH2 0xE0A JUMPI DUP3 SWAP1 SUB PUSH1 0x1F AND DUP3 ADD SWAP2 JUMPDEST POP POP POP POP POP SWAP1 DUP1 PUSH1 0x8 ADD DUP1 SLOAD PUSH2 0xE3C SWAP1 PUSH2 0x1DE0 JUMP JUMPDEST DUP1 PUSH1 0x1F ADD PUSH1 0x20 DUP1 SWAP2 DIV MUL PUSH1 0x20 ADD PUSH1 0x40 MLOAD SWAP1 DUP2 ADD PUSH1 0x40 MSTORE DUP1 SWAP3 SWAP2 SWAP1 DUP2 DUP2 MSTORE PUSH1 0x20 ADD DUP3 DUP1 SLOAD PUSH2 0xE68 SWAP1 PUSH2 0x1DE0 JUMP JUMPDEST DUP1 ISZERO PUSH2 0xEB3 JUMPI DUP1 PUSH1 0x1F LT PUSH2 0xE8A JUMPI PUSH2 0x100 DUP1 DUP4 SLOAD DIV MUL DUP4 MSTORE SWAP2 PUSH1 0x20 ADD SWAP2 PUSH2 0xEB3 JUMP JUMPDEST DUP3 ADD SWAP2 SWAP1 PUSH0 MSTORE PUSH1 0x20 PUSH0 KECCAK256 SWAP1 JUMPDEST DUP2 SLOAD DUP2 MSTORE SWAP1 PUSH1 0x1 ADD SWAP1 PUSH1 0x20 ADD DUP1 DUP4 GT PUSH2 0xE96 JUMPI DUP3 SWAP1 SUB PUSH1 0x1F AND DUP3 ADD SWAP2 JUMPDEST POP POP POP POP POP SWAP1 POP DUP10 JUMP JUMPDEST PUSH0 PUSH1 0x3 DUP4 PUSH1 0x40 MLOAD PUSH2 0xECE SWAP2 SWAP1 PUSH2 0x1D35 JUMP JUMPDEST SWAP1 DUP2 MSTORE PUSH1 0x20 ADD PUSH1 0x40 MLOAD DUP1 SWAP2 SUB SWAP1 KECCAK256 DUP3 PUSH1 0x40 MLOAD PUSH2 0xEEA SWAP2 SWAP1 PUSH2 0x1D35 JUMP JUMPDEST SWAP1 DUP2 MSTORE PUSH1 0x20 ADD PUSH1 0x40 MLOAD DUP1 SWAP2 SUB SWAP1 KECCAK256 PUSH0 SWAP1 SLOAD SWAP1 PUSH2 0x100 EXP SWAP1 DIV PUSH1 0xFF AND SWAP1 POP SWAP3 SWAP2 POP POP JUMP JUMPDEST PUSH0 PUSH1 0x60 DUP1 PUSH1 0x60 DUP1 PUSH1 0x60 DUP1 PUSH0 DUP9 PUSH1 0x40 MLOAD PUSH2 0xF26 SWAP2 SWAP1 PUSH2 0x1D35 JUMP JUMPDEST SWAP1 DUP2 MSTORE PUSH1 0x20 ADD PUSH1 0x40 MLOAD DUP1 SWAP2 SUB SWAP1 KECCAK256 PUSH0 SWAP1 SLOAD SWAP1 PUSH2 0x100 EXP SWAP1 DIV PUSH1 0xFF AND PUSH2 0xF80 JUMPI PUSH1 0x40 MLOAD PUSH32 0x8C379A000000000000000000000000000000000000000000000000000000000 DUP2 MSTORE PUSH1 0x4 ADD PUSH2 0xF77 SWAP1 PUSH2 0x2266 JUMP JUMPDEST PUSH1 0x40 MLOAD DUP1 SWAP2 SUB SWAP1 REVERT JUMPDEST PUSH0 PUSH1 0x1 DUP10 PUSH1 0x40 MLOAD PUSH2 0xF91 SWAP2 SWAP1 PUSH2 0x1D35 JUMP JUMPDEST SWAP1 DUP2 MSTORE PUSH1 0x20 ADD PUSH1 0x40 MLOAD DUP1 SWAP2 SUB SWAP1 KECCAK256 PUSH1 0x40 MLOAD DUP1 PUSH2 0x120 ADD PUSH1 0x40 MSTORE SWAP1 DUP2 PUSH0 DUP3 ADD PUSH0 SWAP1 SLOAD SWAP1 PUSH2 0x100 EXP SWAP1 DIV PUSH20 0xFFFFFFFFFFFFFFFFFFFFFFFFFFFFFFFFFFFFFFFF AND PUSH20 0xFFFFFFFFFFFFFFFFFFFFFFFFFFFFFFFFFFFFFFFF AND PUSH20 0xFFFFFFFFFFFFFFFFFFFFFFFFFFFFFFFFFFFFFFFF AND DUP2 MSTORE PUSH1 0x20 ADD PUSH1 0x1 DUP3 ADD DUP1 SLOAD PUSH2 0x100F SWAP1 PUSH2 0x1DE0 JUMP JUMPDEST DUP1 PUSH1 0x1F ADD PUSH1 0x20 DUP1 SWAP2 DIV MUL PUSH1 0x20 ADD PUSH1 0x40 MLOAD SWAP1 DUP2 ADD PUSH1 0x40 MSTORE DUP1 SWAP3 SWAP2 SWAP1 DUP2 DUP2 MSTORE PUSH1 0x20 ADD DUP3 DUP1 SLOAD PUSH2 0x103B SWAP1 PUSH2 0x1DE0 JUMP JUMPDEST DUP1 ISZERO PUSH2 0x1086 JUMPI DUP1 PUSH1 0x1F LT PUSH2 0x105D JUMPI PUSH2 0x100 DUP1 DUP4 SLOAD DIV MUL DUP4 MSTORE SWAP2 PUSH1 0x20 ADD SWAP2 PUSH2 0x1086 JUMP JUMPDEST DUP3 ADD SWAP2 SWAP1 PUSH0 MSTORE PUSH1 0x20 PUSH0 KECCAK256 SWAP1 JUMPDEST DUP2 SLOAD DUP2 MSTORE SWAP1 PUSH1 0x1 ADD SWAP1 PUSH1 0x20 ADD DUP1 DUP4 GT PUSH2 0x1069 JUMPI DUP3 SWAP1 SUB PUSH1 0x1F AND DUP3 ADD SWAP2 JUMPDEST POP POP POP POP POP DUP2 MSTORE PUSH1 0x20 ADD PUSH1 0x2 DUP3 ADD DUP1 SLOAD PUSH2 0x109F SWAP1 PUSH2 0x1DE0 JUMP JUMPDEST DUP1 PUSH1 0x1F ADD PUSH1 0x20 DUP1 SWAP2 DIV MUL PUSH1 0x20 ADD PUSH1 0x40 MLOAD SWAP1 DUP2 ADD PUSH1 0x40 MSTORE DUP1 SWAP3 SWAP2 SWAP1 DUP2 DUP2 MSTORE PUSH1 0x20 ADD DUP3 DUP1 SLOAD PUSH2 0x10CB SWAP1 PUSH2 0x1DE0 JUMP JUMPDEST DUP1 ISZERO PUSH2 0x1116 JUMPI DUP1 PUSH1 0x1F LT PUSH2 0x10ED JUMPI PUSH2 0x100 DUP1 DUP4 SLOAD DIV MUL DUP4 MSTORE SWAP2 PUSH1 0x20 ADD SWAP2 PUSH2 0x1116 JUMP JUMPDEST DUP3 ADD SWAP2 SWAP1 PUSH0 MSTORE PUSH1 0x20 PUSH0 KECCAK256 SWAP1 JUMPDEST DUP2 SLOAD DUP2 MSTORE SWAP1 PUSH1 0x1 ADD SWAP1 PUSH1 0x20 ADD DUP1 DUP4 GT PUSH2 0x10F9 JUMPI DUP3 SWAP1 SUB PUSH1 0x1F AND DUP3 ADD SWAP2 JUMPDEST POP POP POP POP POP DUP2 MSTORE PUSH1 0x20 ADD PUSH1 0x3 DUP3 ADD DUP1 SLOAD PUSH2 0x112F SWAP1 PUSH2 0x1DE0 JUMP JUMPDEST DUP1 PUSH1 0x1F ADD PUSH1 0x20 DUP1 SWAP2 DIV MUL PUSH1 0x20 ADD PUSH1 0x40 MLOAD SWAP1 DUP2 ADD PUSH1 0x40 MSTORE DUP1 SWAP3 SWAP2 SWAP1 DUP2 DUP2 MSTORE PUSH1 0x20 ADD DUP3 DUP1 SLOAD PUSH2 0x115B SWAP1 PUSH2 0x1DE0 JUMP JUMPDEST DUP1 ISZERO PUSH2 0x11A6 JUMPI DUP1 PUSH1 0x1F LT PUSH2 0x117D JUMPI PUSH2 0x100 DUP1 DUP4 SLOAD DIV MUL DUP4 MSTORE SWAP2 PUSH1 0x20 ADD SWAP2 PUSH2 0x11A6 JUMP JUMPDEST DUP3 ADD SWAP2 SWAP1 PUSH0 MSTORE PUSH1 0x20 PUSH0 KECCAK256 SWAP1 JUMPDEST DUP2 SLOAD DUP2 MSTORE SWAP1 PUSH1 0x1 ADD SWAP1 PUSH1 0x20 ADD DUP1 DUP4 GT PUSH2 0x1189 JUMPI DUP3 SWAP1 SUB PUSH1 0x1F AND DUP3 ADD SWAP2 JUMPDEST POP POP POP POP POP DUP2 MSTORE PUSH1 0x20 ADD PUSH1 0x4 DUP3 ADD DUP1 SLOAD PUSH2 0x11BF SWAP1 PUSH2 0x1DE0 JUMP JUMPDEST DUP1 PUSH1 0x1F ADD PUSH1 0x20 DUP1 SWAP2 DIV MUL PUSH1 0x20 ADD PUSH1 0x40 MLOAD SWAP1 DUP2 ADD PUSH1 0x40 MSTORE DUP1 SWAP3 SWAP2 SWAP1 DUP2 DUP2 MSTORE PUSH1 0x20 ADD DUP3 DUP1 SLOAD PUSH2 0x11EB SWAP1 PUSH2 0x1DE0 JUMP JUMPDEST DUP1 ISZERO PUSH2 0x1236 JUMPI DUP1 PUSH1 0x1F LT PUSH2 0x120D JUMPI PUSH2 0x100 DUP1 DUP4 SLOAD DIV MUL DUP4 MSTORE SWAP2 PUSH1 0x20 ADD SWAP2 PUSH2 0x1236 JUMP JUMPDEST DUP3 ADD SWAP2 SWAP1 PUSH0 MSTORE PUSH1 0x20 PUSH0 KECCAK256 SWAP1 JUMPDEST DUP2 SLOAD DUP2 MSTORE SWAP1 PUSH1 0x1 ADD SWAP1 PUSH1 0x20 ADD DUP1 DUP4 GT PUSH2 0x1219 JUMPI DUP3 SWAP1 SUB PUSH1 0x1F AND DUP3 ADD SWAP2 JUMPDEST POP POP POP POP POP DUP2 MSTORE PUSH1 0x20 ADD PUSH1 0x5 DUP3 ADD DUP1 SLOAD PUSH2 0x124F SWAP1 PUSH2 0x1DE0 JUMP JUMPDEST DUP1 PUSH1 0x1F ADD PUSH1 0x20 DUP1 SWAP2 DIV MUL PUSH1 0x20 ADD PUSH1 0x40 MLOAD SWAP1 DUP2 ADD PUSH1 0x40 MSTORE DUP1 SWAP3 SWAP2 SWAP1 DUP2 DUP2 MSTORE PUSH1 0x20 ADD DUP3 DUP1 SLOAD PUSH2 0x127B SWAP1 PUSH2 0x1DE0 JUMP JUMPDEST DUP1 ISZERO PUSH2 0x12C6 JUMPI DUP1 PUSH1 0x1F LT PUSH2 0x129D JUMPI PUSH2 0x100 DUP1 DUP4 SLOAD DIV MUL DUP4 MSTORE SWAP2 PUSH1 0x20 ADD SWAP2 PUSH2 0x12C6 JUMP JUMPDEST DUP3 ADD SWAP2 SWAP1 PUSH0 MSTORE PUSH1 0x20 PUSH0 KECCAK256 SWAP1 JUMPDEST DUP2 SLOAD DUP2 MSTORE SWAP1 PUSH1 0x1 ADD SWAP1 PUSH1 0x20 ADD DUP1 DUP4 GT PUSH2 0x12A9 JUMPI DUP3 SWAP1 SUB PUSH1 0x1F AND DUP3 ADD SWAP2 JUMPDEST POP POP POP POP POP DUP2 MSTORE PUSH1 0x20 ADD PUSH1 0x6 DUP3 ADD DUP1 SLOAD PUSH2 0x12DF SWAP1 PUSH2 0x1DE0 JUMP JUMPDEST DUP1 PUSH1 0x1F ADD PUSH1 0x20 DUP1 SWAP2 DIV MUL PUSH1 0x20 ADD PUSH1 0x40 MLOAD SWAP1 DUP2 ADD PUSH1 0x40 MSTORE DUP1 SWAP3 SWAP2 SWAP1 DUP2 DUP2 MSTORE PUSH1 0x20 ADD DUP3 DUP1 SLOAD PUSH2 0x130B SWAP1 PUSH2 0x1DE0 JUMP JUMPDEST DUP1 ISZERO PUSH2 0x1356 JUMPI DUP1 PUSH1 0x1F LT PUSH2 0x132D JUMPI PUSH2 0x100 DUP1 DUP4 SLOAD DIV MUL DUP4 MSTORE SWAP2 PUSH1 0x20 ADD SWAP2 PUSH2 0x1356 JUMP JUMPDEST DUP3 ADD SWAP2 SWAP1 PUSH0 MSTORE PUSH1 0x20 PUSH0 KECCAK256 SWAP1 JUMPDEST DUP2 SLOAD DUP2 MSTORE SWAP1 PUSH1 0x1 ADD SWAP1 PUSH1 0x20 ADD DUP1 DUP4 GT PUSH2 0x1339 JUMPI DUP3 SWAP1 SUB PUSH1 0x1F AND DUP3 ADD SWAP2 JUMPDEST POP POP POP POP POP DUP2 MSTORE PUSH1 0x20 ADD PUSH1 0x7 DUP3 ADD DUP1 SLOAD PUSH2 0x136F SWAP1 PUSH2 0x1DE0 JUMP JUMPDEST DUP1 PUSH1 0x1F ADD PUSH1 0x20 DUP1 SWAP2 DIV MUL PUSH1 0x20 ADD PUSH1 0x40 MLOAD SWAP1 DUP2 ADD PUSH1 0x40 MSTORE DUP1 SWAP3 SWAP2 SWAP1 DUP2 DUP2 MSTORE PUSH1 0x20 ADD DUP3 DUP1 SLOAD PUSH2 0x139B SWAP1 PUSH2 0x1DE0 JUMP JUMPDEST DUP1 ISZERO PUSH2 0x13E6 JUMPI DUP1 PUSH1 0x1F LT PUSH2 0x13BD JUMPI PUSH2 0x100 DUP1 DUP4 SLOAD DIV MUL DUP4 MSTORE SWAP2 PUSH1 0x20 ADD SWAP2 PUSH2 0x13E6 JUMP JUMPDEST DUP3 ADD SWAP2 SWAP1 PUSH0 MSTORE PUSH1 0x20 PUSH0 KECCAK256 SWAP1 JUMPDEST DUP2 SLOAD DUP2 MSTORE SWAP1 PUSH1 0x1 ADD SWAP1 PUSH1 0x20 ADD DUP1 DUP4 GT PUSH2 0x13C9 JUMPI DUP3 SWAP1 SUB PUSH1 0x1F AND DUP3 ADD SWAP2 JUMPDEST POP POP POP POP POP DUP2 MSTORE PUSH1 0x20 ADD PUSH1 0x8 DUP3 ADD DUP1 SLOAD PUSH2 0x13FF SWAP1 PUSH2 0x1DE0 JUMP JUMPDEST DUP1 PUSH1 0x1F ADD PUSH1 0x20 DUP1 SWAP2 DIV MUL PUSH1 0x20 ADD PUSH1 0x40 MLOAD SWAP1 DUP2 ADD PUSH1 0x40 MSTORE DUP1 SWAP3 SWAP2 SWAP1 DUP2 DUP2 MSTORE PUSH1 0x20 ADD DUP3 DUP1 SLOAD PUSH2 0x142B SWAP1 PUSH2 0x1DE0 JUMP JUMPDEST DUP1 ISZERO PUSH2 0x1476 JUMPI DUP1 PUSH1 0x1F LT PUSH2 0x144D JUMPI PUSH2 0x100 DUP1 DUP4 SLOAD DIV MUL DUP4 MSTORE SWAP2 PUSH1 0x20 ADD SWAP2 PUSH2 0x1476 JUMP JUMPDEST DUP3 ADD SWAP2 SWAP1 PUSH0 MSTORE PUSH1 0x20 PUSH0 KECCAK256 SWAP1 JUMPDEST DUP2 SLOAD DUP2 MSTORE SWAP1 PUSH1 0x1 ADD SWAP1 PUSH1 0x20 ADD DUP1 DUP4 GT PUSH2 0x1459 JUMPI DUP3 SWAP1 SUB PUSH1 0x1F AND DUP3 ADD SWAP2 JUMPDEST POP POP POP POP POP DUP2 MSTORE POP POP SWAP1 POP DUP1 PUSH0 ADD MLOAD DUP2 PUSH1 0x20 ADD MLOAD DUP3 PUSH1 0x40 ADD MLOAD DUP4 PUSH1 0x60 ADD MLOAD DUP5 PUSH1 0x80 ADD MLOAD DUP6 PUSH1 0xA0 ADD MLOAD DUP7 PUSH1 0xC0 ADD MLOAD SWAP8 POP SWAP8 POP SWAP8 POP SWAP8 POP SWAP8 POP SWAP8 POP SWAP8 POP POP SWAP2 SWAP4 SWAP6 SWAP8 SWAP1 SWAP3 SWAP5 SWAP7 POP JUMP JUMPDEST PUSH0 PUSH0 DUP3 PUSH1 0x40 MLOAD PUSH2 0x14CD SWAP2 SWAP1 PUSH2 0x1D35 JUMP JUMPDEST SWAP1 DUP2 MSTORE PUSH1 0x20 ADD PUSH1 0x40 MLOAD DUP1 SWAP2 SUB SWAP1 KECCAK256 PUSH0 SWAP1 SLOAD SWAP1 PUSH2 0x100 EXP SWAP1 DIV PUSH1 0xFF AND SWAP1 POP SWAP2 SWAP1 POP JUMP JUMPDEST PUSH0 PUSH1 0x40 MLOAD SWAP1 POP SWAP1 JUMP JUMPDEST PUSH0 PUSH0 REVERT JUMPDEST PUSH0 PUSH0 REVERT JUMPDEST PUSH0 PUSH0 REVERT JUMPDEST PUSH0 PUSH0 REVERT JUMPDEST PUSH0 PUSH1 0x1F NOT PUSH1 0x1F DUP4 ADD AND SWAP1 POP SWAP2 SWAP1 POP JUMP JUMPDEST PUSH32 0x4E487B7100000000000000000000000000000000000000000000000000000000 PUSH0 MSTORE PUSH1 0x41 PUSH1 0x4 MSTORE PUSH1 0x24 PUSH0 REVERT JUMPDEST PUSH2 0x154E DUP3 PUSH2 0x1508 JUMP JUMPDEST DUP2 ADD DUP2 DUP2 LT PUSH8 0xFFFFFFFFFFFFFFFF DUP3 GT OR ISZERO PUSH2 0x156D JUMPI PUSH2 0x156C PUSH2 0x1518 JUMP JUMPDEST JUMPDEST DUP1 PUSH1 0x40 MSTORE POP POP POP JUMP JUMPDEST PUSH0 PUSH2 0x157F PUSH2 0x14EF JUMP JUMPDEST SWAP1 POP PUSH2 0x158B DUP3 DUP3 PUSH2 0x1545 JUMP JUMPDEST SWAP2 SWAP1 POP JUMP JUMPDEST PUSH0 PUSH8 0xFFFFFFFFFFFFFFFF DUP3 GT ISZERO PUSH2 0x15AA JUMPI PUSH2 0x15A9 PUSH2 0x1518 JUMP JUMPDEST JUMPDEST PUSH2 0x15B3 DUP3 PUSH2 0x1508 JUMP JUMPDEST SWAP1 POP PUSH1 0x20 DUP2 ADD SWAP1 POP SWAP2 SWAP1 POP JUMP JUMPDEST DUP3 DUP2 DUP4 CALLDATACOPY PUSH0 DUP4 DUP4 ADD MSTORE POP POP POP JUMP JUMPDEST PUSH0 PUSH2 0x15E0 PUSH2 0x15DB DUP5 PUSH2 0x1590 JUMP JUMPDEST PUSH2 0x1576 JUMP JUMPDEST SWAP1 POP DUP3 DUP2 MSTORE PUSH1 0x20 DUP2 ADD DUP5 DUP5 DUP5 ADD GT ISZERO PUSH2 0x15FC JUMPI PUSH2 0x15FB PUSH2 0x1504 JUMP JUMPDEST JUMPDEST PUSH2 0x1607 DUP5 DUP3 DUP6 PUSH2 0x15C0 JUMP JUMPDEST POP SWAP4 SWAP3 POP POP POP JUMP JUMPDEST PUSH0 DUP3 PUSH1 0x1F DUP4 ADD SLT PUSH2 0x1623 JUMPI PUSH2 0x1622 PUSH2 0x1500 JUMP JUMPDEST JUMPDEST DUP2 CALLDATALOAD PUSH2 0x1633 DUP5 DUP3 PUSH1 0x20 DUP7 ADD PUSH2 0x15CE JUMP JUMPDEST SWAP2 POP POP SWAP3 SWAP2 POP POP JUMP JUMPDEST PUSH0 PUSH0 PUSH1 0x40 DUP4 DUP6 SUB SLT ISZERO PUSH2 0x1652 JUMPI PUSH2 0x1651 PUSH2 0x14F8 JUMP JUMPDEST JUMPDEST PUSH0 DUP4 ADD CALLDATALOAD PUSH8 0xFFFFFFFFFFFFFFFF DUP2 GT ISZERO PUSH2 0x166F JUMPI PUSH2 0x166E PUSH2 0x14FC JUMP JUMPDEST JUMPDEST PUSH2 0x167B DUP6 DUP3 DUP7 ADD PUSH2 0x160F JUMP JUMPDEST SWAP3 POP POP PUSH1 0x20 DUP4 ADD CALLDATALOAD PUSH8 0xFFFFFFFFFFFFFFFF DUP2 GT ISZERO PUSH2 0x169C JUMPI PUSH2 0x169B PUSH2 0x14FC JUMP JUMPDEST JUMPDEST PUSH2 0x16A8 DUP6 DUP3 DUP7 ADD PUSH2 0x160F JUMP JUMPDEST SWAP2 POP POP SWAP3 POP SWAP3 SWAP1 POP JUMP JUMPDEST PUSH0 DUP2 ISZERO ISZERO SWAP1 POP SWAP2 SWAP1 POP JUMP JUMPDEST PUSH2 0x16C6 DUP2 PUSH2 0x16B2 JUMP JUMPDEST DUP3 MSTORE POP POP JUMP JUMPDEST PUSH0 PUSH1 0x20 DUP3 ADD SWAP1 POP PUSH2 0x16DF PUSH0 DUP4 ADD DUP5 PUSH2 0x16BD JUMP JUMPDEST SWAP3 SWAP2 POP POP JUMP JUMPDEST PUSH0 PUSH1 0x20 DUP3 DUP5 SUB SLT ISZERO PUSH2 0x16FA JUMPI PUSH2 0x16F9 PUSH2 0x14F8 JUMP JUMPDEST JUMPDEST PUSH0 DUP3 ADD CALLDATALOAD PUSH8 0xFFFFFFFFFFFFFFFF DUP2 GT ISZERO PUSH2 0x1717 JUMPI PUSH2 0x1716 PUSH2 0x14FC JUMP JUMPDEST JUMPDEST PUSH2 0x1723 DUP5 DUP3 DUP6 ADD PUSH2 0x160F JUMP JUMPDEST SWAP2 POP POP SWAP3 SWAP2 POP POP JUMP JUMPDEST PUSH0 PUSH20 0xFFFFFFFFFFFFFFFFFFFFFFFFFFFFFFFFFFFFFFFF DUP3 AND SWAP1 POP SWAP2 SWAP1 POP JUMP JUMPDEST PUSH0 PUSH2 0x1755 DUP3 PUSH2 0x172C JUMP JUMPDEST SWAP1 POP SWAP2 SWAP1 POP JUMP JUMPDEST PUSH2 0x1765 DUP2 PUSH2 0x174B JUMP JUMPDEST DUP2 EQ PUSH2 0x176F JUMPI PUSH0 PUSH0 REVERT JUMPDEST POP JUMP JUMPDEST PUSH0 DUP2 CALLDATALOAD SWAP1 POP PUSH2 0x1780 DUP2 PUSH2 0x175C JUMP JUMPDEST SWAP3 SWAP2 POP POP JUMP JUMPDEST PUSH0 PUSH0 PUSH0 PUSH0 PUSH0 PUSH0 PUSH0 PUSH0 PUSH0 PUSH2 0x120 DUP11 DUP13 SUB SLT ISZERO PUSH2 0x17A4 JUMPI PUSH2 0x17A3 PUSH2 0x14F8 JUMP JUMPDEST JUMPDEST PUSH0 PUSH2 0x17B1 DUP13 DUP3 DUP14 ADD PUSH2 0x1772 JUMP JUMPDEST SWAP10 POP POP PUSH1 0x20 DUP11 ADD CALLDATALOAD PUSH8 0xFFFFFFFFFFFFFFFF DUP2 GT ISZERO PUSH2 0x17D2 JUMPI PUSH2 0x17D1 PUSH2 0x14FC JUMP JUMPDEST JUMPDEST PUSH2 0x17DE DUP13 DUP3 DUP14 ADD PUSH2 0x160F JUMP JUMPDEST SWAP9 POP POP PUSH1 0x40 DUP11 ADD CALLDATALOAD PUSH8 0xFFFFFFFFFFFFFFFF DUP2 GT ISZERO PUSH2 0x17FF JUMPI PUSH2 0x17FE PUSH2 0x14FC JUMP JUMPDEST JUMPDEST PUSH2 0x180B DUP13 DUP3 DUP14 ADD PUSH2 0x160F JUMP JUMPDEST SWAP8 POP POP PUSH1 0x60 DUP11 ADD CALLDATALOAD PUSH8 0xFFFFFFFFFFFFFFFF DUP2 GT ISZERO PUSH2 0x182C JUMPI PUSH2 0x182B PUSH2 0x14FC JUMP JUMPDEST JUMPDEST PUSH2 0x1838 DUP13 DUP3 DUP14 ADD PUSH2 0x160F JUMP JUMPDEST SWAP7 POP POP PUSH1 0x80 DUP11 ADD CALLDATALOAD PUSH8 0xFFFFFFFFFFFFFFFF DUP2 GT ISZERO PUSH2 0x1859 JUMPI PUSH2 0x1858 PUSH2 0x14FC JUMP JUMPDEST JUMPDEST PUSH2 0x1865 DUP13 DUP3 DUP14 ADD PUSH2 0x160F JUMP JUMPDEST SWAP6 POP POP PUSH1 0xA0 DUP11 ADD CALLDATALOAD PUSH8 0xFFFFFFFFFFFFFFFF DUP2 GT ISZERO PUSH2 0x1886 JUMPI PUSH2 0x1885 PUSH2 0x14FC JUMP JUMPDEST JUMPDEST PUSH2 0x1892 DUP13 DUP3 DUP14 ADD PUSH2 0x160F JUMP JUMPDEST SWAP5 POP POP PUSH1 0xC0 DUP11 ADD CALLDATALOAD PUSH8 0xFFFFFFFFFFFFFFFF DUP2 GT ISZERO PUSH2 0x18B3 JUMPI PUSH2 0x18B2 PUSH2 0x14FC JUMP JUMPDEST JUMPDEST PUSH2 0x18BF DUP13 DUP3 DUP14 ADD PUSH2 0x160F JUMP JUMPDEST SWAP4 POP POP PUSH1 0xE0 DUP11 ADD CALLDATALOAD PUSH8 0xFFFFFFFFFFFFFFFF DUP2 GT ISZERO PUSH2 0x18E0 JUMPI PUSH2 0x18DF PUSH2 0x14FC JUMP JUMPDEST JUMPDEST PUSH2 0x18EC DUP13 DUP3 DUP14 ADD PUSH2 0x160F JUMP JUMPDEST SWAP3 POP POP PUSH2 0x100 DUP11 ADD CALLDATALOAD PUSH8 0xFFFFFFFFFFFFFFFF DUP2 GT ISZERO PUSH2 0x190E JUMPI PUSH2 0x190D PUSH2 0x14FC JUMP JUMPDEST JUMPDEST PUSH2 0x191A DUP13 DUP3 DUP14 ADD PUSH2 0x160F JUMP JUMPDEST SWAP2 POP POP SWAP3 SWAP6 SWAP9 POP SWAP3 SWAP6 SWAP9 POP SWAP3 SWAP6 SWAP9 JUMP JUMPDEST PUSH0 PUSH0 PUSH0 PUSH1 0x60 DUP5 DUP7 SUB SLT ISZERO PUSH2 0x1941 JUMPI PUSH2 0x1940 PUSH2 0x14F8 JUMP JUMPDEST JUMPDEST PUSH0 DUP5 ADD CALLDATALOAD PUSH8 0xFFFFFFFFFFFFFFFF DUP2 GT ISZERO PUSH2 0x195E JUMPI PUSH2 0x195D PUSH2 0x14FC JUMP JUMPDEST JUMPDEST PUSH2 0x196A DUP7 DUP3 DUP8 ADD PUSH2 0x160F JUMP JUMPDEST SWAP4 POP POP PUSH1 0x20 DUP5 ADD CALLDATALOAD PUSH8 0xFFFFFFFFFFFFFFFF DUP2 GT ISZERO PUSH2 0x198B JUMPI PUSH2 0x198A PUSH2 0x14FC JUMP JUMPDEST JUMPDEST PUSH2 0x1997 DUP7 DUP3 DUP8 ADD PUSH2 0x160F JUMP JUMPDEST SWAP3 POP POP PUSH1 0x40 DUP5 ADD CALLDATALOAD PUSH8 0xFFFFFFFFFFFFFFFF DUP2 GT ISZERO PUSH2 0x19B8 JUMPI PUSH2 0x19B7 PUSH2 0x14FC JUMP JUMPDEST JUMPDEST PUSH2 0x19C4 DUP7 DUP3 DUP8 ADD PUSH2 0x160F JUMP JUMPDEST SWAP2 POP POP SWAP3 POP SWAP3 POP SWAP3 JUMP JUMPDEST PUSH0 DUP2 MLOAD SWAP1 POP SWAP2 SWAP1 POP JUMP JUMPDEST PUSH0 DUP3 DUP3 MSTORE PUSH1 0x20 DUP3 ADD SWAP1 POP SWAP3 SWAP2 POP POP JUMP JUMPDEST PUSH0 DUP2 SWAP1 POP PUSH1 0x20 DUP3 ADD SWAP1 POP SWAP2 SWAP1 POP JUMP JUMPDEST PUSH0 DUP2 MLOAD SWAP1 POP SWAP2 SWAP1 POP JUMP JUMPDEST PUSH0 DUP3 DUP3 MSTORE PUSH1 0x20 DUP3 ADD SWAP1 POP SWAP3 SWAP2 POP POP JUMP JUMPDEST DUP3 DUP2 DUP4 MCOPY PUSH0 DUP4 DUP4 ADD MSTORE POP POP POP JUMP JUMPDEST PUSH0 PUSH2 0x1A29 DUP3 PUSH2 0x19F7 JUMP JUMPDEST PUSH2 0x1A33 DUP2 DUP6 PUSH2 0x1A01 JUMP JUMPDEST SWAP4 POP PUSH2 0x1A43 DUP2 DUP6 PUSH1 0x20 DUP7 ADD PUSH2 0x1A11 JUMP JUMPDEST PUSH2 0x1A4C DUP2 PUSH2 0x1508 JUMP JUMPDEST DUP5 ADD SWAP2 POP POP SWAP3 SWAP2 POP POP JUMP JUMPDEST PUSH0 PUSH1 0x40 DUP4 ADD PUSH0 DUP4 ADD MLOAD DUP5 DUP3 SUB PUSH0 DUP7 ADD MSTORE PUSH2 0x1A71 DUP3 DUP3 PUSH2 0x1A1F JUMP JUMPDEST SWAP2 POP POP PUSH1 0x20 DUP4 ADD MLOAD DUP5 DUP3 SUB PUSH1 0x20 DUP7 ADD MSTORE PUSH2 0x1A8B DUP3 DUP3 PUSH2 0x1A1F JUMP JUMPDEST SWAP2 POP POP DUP1 SWAP2 POP POP SWAP3 SWAP2 POP POP JUMP JUMPDEST PUSH0 PUSH2 0x1AA3 DUP4 DUP4 PUSH2 0x1A57 JUMP JUMPDEST SWAP1 POP SWAP3 SWAP2 POP POP JUMP JUMPDEST PUSH0 PUSH1 0x20 DUP3 ADD SWAP1 POP SWAP2 SWAP1 POP JUMP JUMPDEST PUSH0 PUSH2 0x1AC1 DUP3 PUSH2 0x19CE JUMP JUMPDEST PUSH2 0x1ACB DUP2 DUP6 PUSH2 0x19D8 JUMP JUMPDEST SWAP4 POP DUP4 PUSH1 0x20 DUP3 MUL DUP6 ADD PUSH2 0x1ADD DUP6 PUSH2 0x19E8 JUMP JUMPDEST DUP1 PUSH0 JUMPDEST DUP6 DUP2 LT ISZERO PUSH2 0x1B18 JUMPI DUP5 DUP5 SUB DUP10 MSTORE DUP2 MLOAD PUSH2 0x1AF9 DUP6 DUP3 PUSH2 0x1A98 JUMP JUMPDEST SWAP5 POP PUSH2 0x1B04 DUP4 PUSH2 0x1AAB JUMP JUMPDEST SWAP3 POP PUSH1 0x20 DUP11 ADD SWAP10 POP POP PUSH1 0x1 DUP2 ADD SWAP1 POP PUSH2 0x1AE0 JUMP JUMPDEST POP DUP3 SWAP8 POP DUP8 SWAP6 POP POP POP POP POP POP SWAP3 SWAP2 POP POP JUMP JUMPDEST PUSH0 PUSH1 0x20 DUP3 ADD SWAP1 POP DUP2 DUP2 SUB PUSH0 DUP4 ADD MSTORE PUSH2 0x1B42 DUP2 DUP5 PUSH2 0x1AB7 JUMP JUMPDEST SWAP1 POP SWAP3 SWAP2 POP POP JUMP JUMPDEST PUSH2 0x1B53 DUP2 PUSH2 0x174B JUMP JUMPDEST DUP3 MSTORE POP POP JUMP JUMPDEST PUSH0 DUP3 DUP3 MSTORE PUSH1 0x20 DUP3 ADD SWAP1 POP SWAP3 SWAP2 POP POP JUMP JUMPDEST PUSH0 PUSH2 0x1B73 DUP3 PUSH2 0x19F7 JUMP JUMPDEST PUSH2 0x1B7D DUP2 DUP6 PUSH2 0x1B59 JUMP JUMPDEST SWAP4 POP PUSH2 0x1B8D DUP2 DUP6 PUSH1 0x20 DUP7 ADD PUSH2 0x1A11 JUMP JUMPDEST PUSH2 0x1B96 DUP2 PUSH2 0x1508 JUMP JUMPDEST DUP5 ADD SWAP2 POP POP SWAP3 SWAP2 POP POP JUMP JUMPDEST PUSH0 PUSH2 0x120 DUP3 ADD SWAP1 POP PUSH2 0x1BB5 PUSH0 DUP4 ADD DUP13 PUSH2 0x1B4A JUMP JUMPDEST DUP2 DUP2 SUB PUSH1 0x20 DUP4 ADD MSTORE PUSH2 0x1BC7 DUP2 DUP12 PUSH2 0x1B69 JUMP JUMPDEST SWAP1 POP DUP2 DUP2 SUB PUSH1 0x40 DUP4 ADD MSTORE PUSH2 0x1BDB DUP2 DUP11 PUSH2 0x1B69 JUMP JUMPDEST SWAP1 POP DUP2 DUP2 SUB PUSH1 0x60 DUP4 ADD MSTORE PUSH2 0x1BEF DUP2 DUP10 PUSH2 0x1B69 JUMP JUMPDEST SWAP1 POP DUP2 DUP2 SUB PUSH1 0x80 DUP4 ADD MSTORE PUSH2 0x1C03 DUP2 DUP9 PUSH2 0x1B69 JUMP JUMPDEST SWAP1 POP DUP2 DUP2 SUB PUSH1 0xA0 DUP4 ADD MSTORE PUSH2 0x1C17 DUP2 DUP8 PUSH2 0x1B69 JUMP JUMPDEST SWAP1 POP DUP2 DUP2 SUB PUSH1 0xC0 DUP4 ADD MSTORE PUSH2 0x1C2B DUP2 DUP7 PUSH2 0x1B69 JUMP JUMPDEST SWAP1 POP DUP2 DUP2 SUB PUSH1 0xE0 DUP4 ADD MSTORE PUSH2 0x1C3F DUP2 DUP6 PUSH2 0x1B69 JUMP JUMPDEST SWAP1 POP DUP2 DUP2 SUB PUSH2 0x100 DUP4 ADD MSTORE PUSH2 0x1C54 DUP2 DUP5 PUSH2 0x1B69 JUMP JUMPDEST SWAP1 POP SWAP11 SWAP10 POP POP POP POP POP POP POP POP POP POP JUMP JUMPDEST PUSH0 PUSH1 0xE0 DUP3 ADD SWAP1 POP PUSH2 0x1C77 PUSH0 DUP4 ADD DUP11 PUSH2 0x1B4A JUMP JUMPDEST DUP2 DUP2 SUB PUSH1 0x20 DUP4 ADD MSTORE PUSH2 0x1C89 DUP2 DUP10 PUSH2 0x1B69 JUMP JUMPDEST SWAP1 POP DUP2 DUP2 SUB PUSH1 0x40 DUP4 ADD MSTORE PUSH2 0x1C9D DUP2 DUP9 PUSH2 0x1B69 JUMP JUMPDEST SWAP1 POP DUP2 DUP2 SUB PUSH1 0x60 DUP4 ADD MSTORE PUSH2 0x1CB1 DUP2 DUP8 PUSH2 0x1B69 JUMP JUMPDEST SWAP1 POP DUP2 DUP2 SUB PUSH1 0x80 DUP4 ADD MSTORE PUSH2 0x1CC5 DUP2 DUP7 PUSH2 0x1B69 JUMP JUMPDEST SWAP1 POP DUP2 DUP2 SUB PUSH1 0xA0 DUP4 ADD MSTORE PUSH2 0x1CD9 DUP2 DUP6 PUSH2 0x1B69 JUMP JUMPDEST SWAP1 POP DUP2 DUP2 SUB PUSH1 0xC0 DUP4 ADD MSTORE PUSH2 0x1CED DUP2 DUP5 PUSH2 0x1B69 JUMP JUMPDEST SWAP1 POP SWAP9 SWAP8 POP POP POP POP POP POP POP POP JUMP JUMPDEST PUSH0 DUP2 SWAP1 POP SWAP3 SWAP2 POP POP JUMP JUMPDEST PUSH0 PUSH2 0x1D0F DUP3 PUSH2 0x19F7 JUMP JUMPDEST PUSH2 0x1D19 DUP2 DUP6 PUSH2 0x1CFB JUMP JUMPDEST SWAP4 POP PUSH2 0x1D29 DUP2 DUP6 PUSH1 0x20 DUP7 ADD PUSH2 0x1A11 JUMP JUMPDEST DUP1 DUP5 ADD SWAP2 POP POP SWAP3 SWAP2 POP POP JUMP JUMPDEST PUSH0 PUSH2 0x1D40 DUP3 DUP5 PUSH2 0x1D05 JUMP JUMPDEST SWAP2 POP DUP2 SWAP1 POP SWAP3 SWAP2 POP POP JUMP JUMPDEST PUSH32 0x50617469656E7420616C72656164792072656769737465726564000000000000 PUSH0 DUP3 ADD MSTORE POP JUMP JUMPDEST PUSH0 PUSH2 0x1D7F PUSH1 0x1A DUP4 PUSH2 0x1B59 JUMP JUMPDEST SWAP2 POP PUSH2 0x1D8A DUP3 PUSH2 0x1D4B JUMP JUMPDEST PUSH1 0x20 DUP3 ADD SWAP1 POP SWAP2 SWAP1 POP JUMP JUMPDEST PUSH0 PUSH1 0x20 DUP3 ADD SWAP1 POP DUP2 DUP2 SUB PUSH0 DUP4 ADD MSTORE PUSH2 0x1DAC DUP2 PUSH2 0x1D73 JUMP JUMPDEST SWAP1 POP SWAP2 SWAP1 POP JUMP JUMPDEST PUSH32 0x4E487B7100000000000000000000000000000000000000000000000000000000 PUSH0 MSTORE PUSH1 0x22 PUSH1 0x4 MSTORE PUSH1 0x24 PUSH0 REVERT JUMPDEST PUSH0 PUSH1 0x2 DUP3 DIV SWAP1 POP PUSH1 0x1 DUP3 AND DUP1 PUSH2 0x1DF7 JUMPI PUSH1 0x7F DUP3 AND SWAP2 POP JUMPDEST PUSH1 0x20 DUP3 LT DUP2 SUB PUSH2 0x1E0A JUMPI PUSH2 0x1E09 PUSH2 0x1DB3 JUMP JUMPDEST JUMPDEST POP SWAP2 SWAP1 POP JUMP JUMPDEST PUSH0 DUP2 SWAP1 POP DUP2 PUSH0 MSTORE PUSH1 0x20 PUSH0 KECCAK256 SWAP1 POP SWAP2 SWAP1 POP JUMP JUMPDEST PUSH0 PUSH1 0x20 PUSH1 0x1F DUP4 ADD DIV SWAP1 POP SWAP2 SWAP1 POP JUMP JUMPDEST PUSH0 DUP3 DUP3 SHL SWAP1 POP SWAP3 SWAP2 POP POP JUMP JUMPDEST PUSH0 PUSH1 0x8 DUP4 MUL PUSH2 0x1E6C PUSH32 0xFFFFFFFFFFFFFFFFFFFFFFFFFFFFFFFFFFFFFFFFFFFFFFFFFFFFFFFFFFFFFFFF DUP3 PUSH2 0x1E31 JUMP JUMPDEST PUSH2 0x1E76 DUP7 DUP4 PUSH2 0x1E31 JUMP JUMPDEST SWAP6 POP DUP1 NOT DUP5 AND SWAP4 POP DUP1 DUP7 AND DUP5 OR SWAP3 POP POP POP SWAP4 SWAP3 POP POP POP JUMP JUMPDEST PUSH0 DUP2 SWAP1 POP SWAP2 SWAP1 POP JUMP JUMPDEST PUSH0 DUP2 SWAP1 POP SWAP2 SWAP1 POP JUMP JUMPDEST PUSH0 PUSH2 0x1EBA PUSH2 0x1EB5 PUSH2 0x1EB0 DUP5 PUSH2 0x1E8E JUMP JUMPDEST PUSH2 0x1E97 JUMP JUMPDEST PUSH2 0x1E8E JUMP JUMPDEST SWAP1 POP SWAP2 SWAP1 POP JUMP JUMPDEST PUSH0 DUP2 SWAP1 POP SWAP2 SWAP1 POP JUMP JUMPDEST PUSH2 0x1ED3 DUP4 PUSH2 0x1EA0 JUMP JUMPDEST PUSH2 0x1EE7 PUSH2 0x1EDF DUP3 PUSH2 0x1EC1 JUMP JUMPDEST DUP5 DUP5 SLOAD PUSH2 0x1E3D JUMP JUMPDEST DUP3 SSTORE POP POP POP POP JUMP JUMPDEST PUSH0 PUSH0 SWAP1 POP SWAP1 JUMP JUMPDEST PUSH2 0x1EFE PUSH2 0x1EEF JUMP JUMPDEST PUSH2 0x1F09 DUP2 DUP5 DUP5 PUSH2 0x1ECA JUMP JUMPDEST POP POP POP JUMP JUMPDEST JUMPDEST DUP2 DUP2 LT ISZERO PUSH2 0x1F2C JUMPI PUSH2 0x1F21 PUSH0 DUP3 PUSH2 0x1EF6 JUMP JUMPDEST PUSH1 0x1 DUP2 ADD SWAP1 POP PUSH2 0x1F0F JUMP JUMPDEST POP POP JUMP JUMPDEST PUSH1 0x1F DUP3 GT ISZERO PUSH2 0x1F71 JUMPI PUSH2 0x1F42 DUP2 PUSH2 0x1E10 JUMP JUMPDEST PUSH2 0x1F4B DUP5 PUSH2 0x1E22 JUMP JUMPDEST DUP2 ADD PUSH1 0x20 DUP6 LT ISZERO PUSH2 0x1F5A JUMPI DUP2 SWAP1 POP JUMPDEST PUSH2 0x1F6E PUSH2 0x1F66 DUP6 PUSH2 0x1E22 JUMP JUMPDEST DUP4 ADD DUP3 PUSH2 0x1F0E JUMP JUMPDEST POP POP JUMPDEST POP POP POP JUMP JUMPDEST PUSH0 DUP3 DUP3 SHR SWAP1 POP SWAP3 SWAP2 POP POP JUMP JUMPDEST PUSH0 PUSH2 0x1F91 PUSH0 NOT DUP5 PUSH1 0x8 MUL PUSH2 0x1F76 JUMP JUMPDEST NOT DUP1 DUP4 AND SWAP2 POP POP SWAP3 SWAP2 POP POP JUMP JUMPDEST PUSH0 PUSH2 0x1FA9 DUP4 DUP4 PUSH2 0x1F82 JUMP JUMPDEST SWAP2 POP DUP3 PUSH1 0x2 MUL DUP3 OR SWAP1 POP SWAP3 SWAP2 POP POP JUMP JUMPDEST PUSH2 0x1FC2 DUP3 PUSH2 0x19F7 JUMP JUMPDEST PUSH8 0xFFFFFFFFFFFFFFFF DUP2 GT ISZERO PUSH2 0x1FDB JUMPI PUSH2 0x1FDA PUSH2 0x1518 JUMP JUMPDEST JUMPDEST PUSH2 0x1FE5 DUP3 SLOAD PUSH2 0x1DE0 JUMP JUMPDEST PUSH2 0x1FF0 DUP3 DUP3 DUP6 PUSH2 0x1F30 JUMP JUMPDEST PUSH0 PUSH1 0x20 SWAP1 POP PUSH1 0x1F DUP4 GT PUSH1 0x1 DUP2 EQ PUSH2 0x2021 JUMPI PUSH0 DUP5 ISZERO PUSH2 0x200F JUMPI DUP3 DUP8 ADD MLOAD SWAP1 POP JUMPDEST PUSH2 0x2019 DUP6 DUP3 PUSH2 0x1F9E JUMP JUMPDEST DUP7 SSTORE POP PUSH2 0x2080 JUMP JUMPDEST PUSH1 0x1F NOT DUP5 AND PUSH2 0x202F DUP7 PUSH2 0x1E10 JUMP JUMPDEST PUSH0 JUMPDEST DUP3 DUP2 LT ISZERO PUSH2 0x2056 JUMPI DUP5 DUP10 ADD MLOAD DUP3 SSTORE PUSH1 0x1 DUP3 ADD SWAP2 POP PUSH1 0x20 DUP6 ADD SWAP5 POP PUSH1 0x20 DUP2 ADD SWAP1 POP PUSH2 0x2031 JUMP JUMPDEST DUP7 DUP4 LT ISZERO PUSH2 0x2073 JUMPI DUP5 DUP10 ADD MLOAD PUSH2 0x206F PUSH1 0x1F DUP10 AND DUP3 PUSH2 0x1F82 JUMP JUMPDEST DUP4 SSTORE POP JUMPDEST PUSH1 0x1 PUSH1 0x2 DUP9 MUL ADD DUP9 SSTORE POP POP POP JUMPDEST POP POP POP POP POP POP JUMP JUMPDEST PUSH0 PUSH1 0x60 DUP3 ADD SWAP1 POP DUP2 DUP2 SUB PUSH0 DUP4 ADD MSTORE PUSH2 0x20A0 DUP2 DUP7 PUSH2 0x1B69 JUMP JUMPDEST SWAP1 POP DUP2 DUP2 SUB PUSH1 0x20 DUP4 ADD MSTORE PUSH2 0x20B4 DUP2 DUP6 PUSH2 0x1B69 JUMP JUMPDEST SWAP1 POP PUSH2 0x20C3 PUSH1 0x40 DUP4 ADD DUP5 PUSH2 0x1B4A JUMP JUMPDEST SWAP5 SWAP4 POP POP POP POP JUMP JUMPDEST PUSH32 0x566965772041636365737320616C726561647920676976656E20746F20746865 PUSH0 DUP3 ADD MSTORE PUSH32 0x20446F63746F7221000000000000000000000000000000000000000000000000 PUSH1 0x20 DUP3 ADD MSTORE POP JUMP JUMPDEST PUSH0 PUSH2 0x2125 PUSH1 0x28 DUP4 PUSH2 0x1B59 JUMP JUMPDEST SWAP2 POP PUSH2 0x2130 DUP3 PUSH2 0x20CB JUMP JUMPDEST PUSH1 0x40 DUP3 ADD SWAP1 POP SWAP2 SWAP1 POP JUMP JUMPDEST PUSH0 PUSH1 0x20 DUP3 ADD SWAP1 POP DUP2 DUP2 SUB PUSH0 DUP4 ADD MSTORE PUSH2 0x2152 DUP2 PUSH2 0x2119 JUMP JUMPDEST SWAP1 POP SWAP2 SWAP1 POP JUMP JUMPDEST PUSH32 0x4E487B7100000000000000000000000000000000000000000000000000000000 PUSH0 MSTORE PUSH1 0x32 PUSH1 0x4 MSTORE PUSH1 0x24 PUSH0 REVERT JUMPDEST PUSH0 DUP2 SLOAD PUSH2 0x2192 DUP2 PUSH2 0x1DE0 JUMP JUMPDEST PUSH2 0x219C DUP2 DUP7 PUSH2 0x1CFB JUMP JUMPDEST SWAP5 POP PUSH1 0x1 DUP3 AND PUSH0 DUP2 EQ PUSH2 0x21B6 JUMPI PUSH1 0x1 DUP2 EQ PUSH2 0x21CB JUMPI PUSH2 0x21FD JUMP JUMPDEST PUSH1 0xFF NOT DUP4 AND DUP7 MSTORE DUP2 ISZERO ISZERO DUP3 MUL DUP7 ADD SWAP4 POP PUSH2 0x21FD JUMP JUMPDEST PUSH2 0x21D4 DUP6 PUSH2 0x1E10 JUMP JUMPDEST PUSH0 JUMPDEST DUP4 DUP2 LT ISZERO PUSH2 0x21F5 JUMPI DUP2 SLOAD DUP2 DUP10 ADD MSTORE PUSH1 0x1 DUP3 ADD SWAP2 POP PUSH1 0x20 DUP2 ADD SWAP1 POP PUSH2 0x21D6 JUMP JUMPDEST DUP4 DUP9 ADD SWAP6 POP POP POP JUMPDEST POP POP POP SWAP3 SWAP2 POP POP JUMP JUMPDEST PUSH0 PUSH2 0x2211 DUP3 DUP5 PUSH2 0x2186 JUMP JUMPDEST SWAP2 POP DUP2 SWAP1 POP SWAP3 SWAP2 POP POP JUMP JUMPDEST PUSH32 0x50617469656E74206E6F74207265676973746572656400000000000000000000 PUSH0 DUP3 ADD MSTORE POP JUMP JUMPDEST PUSH0 PUSH2 0x2250 PUSH1 0x16 DUP4 PUSH2 0x1B59 JUMP JUMPDEST SWAP2 POP PUSH2 0x225B DUP3 PUSH2 0x221C JUMP JUMPDEST PUSH1 0x20 DUP3 ADD SWAP1 POP SWAP2 SWAP1 POP JUMP JUMPDEST PUSH0 PUSH1 0x20 DUP3 ADD SWAP1 POP DUP2 DUP2 SUB PUSH0 DUP4 ADD MSTORE PUSH2 0x227D DUP2 PUSH2 0x2244 JUMP JUMPDEST SWAP1 POP SWAP2 SWAP1 POP JUMP INVALID LOG2 PUSH5 0x6970667358 0x22 SLT KECCAK256 0x2A SGT PUSH27 0x51684C120F2A078DC122F49008990B543219C93FE30C0F70FCB41B PUSH24 0x1764736F6C634300081E0033000000000000000000000000 "
				},
				"gasEstimates": {
					"creation": {
						"codeDepositCost": "1778000",
						"executionCost": "1867",
						"totalCost": "1779867"
					},
					"external": {
						"doctorPermissions(string,string)": "infinite",
						"getPatientDetails(string)": "infinite",
						"getPatientList(string)": "infinite",
						"grantPermission(string,string,string)": "infinite",
						"isPatientRegistered(string)": "infinite",
						"isPermissionGranted(string,string)": "infinite",
						"isRegisteredPatient(string)": "infinite",
						"patients(string)": "infinite",
						"registerPatient(address,string,string,string,string,string,string,string,string)": "infinite",
						"validatePassword(string,string)": "infinite"
					}
				},
				"methodIdentifiers": {
					"doctorPermissions(string,string)": "44334733",
					"getPatientDetails(string)": "ea977fc8",
					"getPatientList(string)": "91c12f76",
					"grantPermission(string,string,string)": "5df67040",
					"isPatientRegistered(string)": "4f10c6c2",
					"isPermissionGranted(string,string)": "d120c10c",
					"isRegisteredPatient(string)": "f7252641",
					"patients(string)": "c6009d84",
					"registerPatient(address,string,string,string,string,string,string,string,string)": "57812a08",
					"validatePassword(string,string)": "7babdb26"
				}
			},
			"storageLayout": {
				"storage": [
					{
						"astId": 29,
						"contract": "PatienrReg.sol:PatientRegistration",
						"label": "isPatientRegistered",
						"offset": 0,
						"slot": "0",
						"type": "t_mapping(t_string_memory_ptr,t_bool)"
					},
					{
						"astId": 34,
						"contract": "PatienrReg.sol:PatientRegistration",
						"label": "patients",
						"offset": 0,
						"slot": "1",
						"type": "t_mapping(t_string_memory_ptr,t_struct(Patient)20_storage)"
					},
					{
						"astId": 40,
						"contract": "PatienrReg.sol:PatientRegistration",
						"label": "Dpermission",
						"offset": 0,
						"slot": "2",
						"type": "t_mapping(t_string_memory_ptr,t_array(t_struct(PatientList)25_storage)dyn_storage)"
					},
					{
						"astId": 46,
						"contract": "PatienrReg.sol:PatientRegistration",
						"label": "doctorPermissions",
						"offset": 0,
						"slot": "3",
						"type": "t_mapping(t_string_memory_ptr,t_mapping(t_string_memory_ptr,t_bool))"
					}
				],
				"types": {
					"t_address": {
						"encoding": "inplace",
						"label": "address",
						"numberOfBytes": "20"
					},
					"t_array(t_struct(PatientList)25_storage)dyn_storage": {
						"base": "t_struct(PatientList)25_storage",
						"encoding": "dynamic_array",
						"label": "struct PatientRegistration.PatientList[]",
						"numberOfBytes": "32"
					},
					"t_bool": {
						"encoding": "inplace",
						"label": "bool",
						"numberOfBytes": "1"
					},
					"t_mapping(t_string_memory_ptr,t_array(t_struct(PatientList)25_storage)dyn_storage)": {
						"encoding": "mapping",
						"key": "t_string_memory_ptr",
						"label": "mapping(string => struct PatientRegistration.PatientList[])",
						"numberOfBytes": "32",
						"value": "t_array(t_struct(PatientList)25_storage)dyn_storage"
					},
					"t_mapping(t_string_memory_ptr,t_bool)": {
						"encoding": "mapping",
						"key": "t_string_memory_ptr",
						"label": "mapping(string => bool)",
						"numberOfBytes": "32",
						"value": "t_bool"
					},
					"t_mapping(t_string_memory_ptr,t_mapping(t_string_memory_ptr,t_bool))": {
						"encoding": "mapping",
						"key": "t_string_memory_ptr",
						"label": "mapping(string => mapping(string => bool))",
						"numberOfBytes": "32",
						"value": "t_mapping(t_string_memory_ptr,t_bool)"
					},
					"t_mapping(t_string_memory_ptr,t_struct(Patient)20_storage)": {
						"encoding": "mapping",
						"key": "t_string_memory_ptr",
						"label": "mapping(string => struct PatientRegistration.Patient)",
						"numberOfBytes": "32",
						"value": "t_struct(Patient)20_storage"
					},
					"t_string_memory_ptr": {
						"encoding": "bytes",
						"label": "string",
						"numberOfBytes": "32"
					},
					"t_string_storage": {
						"encoding": "bytes",
						"label": "string",
						"numberOfBytes": "32"
					},
					"t_struct(Patient)20_storage": {
						"encoding": "inplace",
						"label": "struct PatientRegistration.Patient",
						"members": [
							{
								"astId": 3,
								"contract": "PatienrReg.sol:PatientRegistration",
								"label": "walletAddress",
								"offset": 0,
								"slot": "0",
								"type": "t_address"
							},
							{
								"astId": 5,
								"contract": "PatienrReg.sol:PatientRegistration",
								"label": "name",
								"offset": 0,
								"slot": "1",
								"type": "t_string_storage"
							},
							{
								"astId": 7,
								"contract": "PatienrReg.sol:PatientRegistration",
								"label": "dateOfBirth",
								"offset": 0,
								"slot": "2",
								"type": "t_string_storage"
							},
							{
								"astId": 9,
								"contract": "PatienrReg.sol:PatientRegistration",
								"label": "gender",
								"offset": 0,
								"slot": "3",
								"type": "t_string_storage"
							},
							{
								"astId": 11,
								"contract": "PatienrReg.sol:PatientRegistration",
								"label": "bloodGroup",
								"offset": 0,
								"slot": "4",
								"type": "t_string_storage"
							},
							{
								"astId": 13,
								"contract": "PatienrReg.sol:PatientRegistration",
								"label": "homeAddress",
								"offset": 0,
								"slot": "5",
								"type": "t_string_storage"
							},
							{
								"astId": 15,
								"contract": "PatienrReg.sol:PatientRegistration",
								"label": "email",
								"offset": 0,
								"slot": "6",
								"type": "t_string_storage"
							},
							{
								"astId": 17,
								"contract": "PatienrReg.sol:PatientRegistration",
								"label": "hhNumber",
								"offset": 0,
								"slot": "7",
								"type": "t_string_storage"
							},
							{
								"astId": 19,
								"contract": "PatienrReg.sol:PatientRegistration",
								"label": "password",
								"offset": 0,
								"slot": "8",
								"type": "t_string_storage"
							}
						],
						"numberOfBytes": "288"
					},
					"t_struct(PatientList)25_storage": {
						"encoding": "inplace",
						"label": "struct PatientRegistration.PatientList",
						"members": [
							{
								"astId": 22,
								"contract": "PatienrReg.sol:PatientRegistration",
								"label": "patient_number",
								"offset": 0,
								"slot": "0",
								"type": "t_string_storage"
							},
							{
								"astId": 24,
								"contract": "PatienrReg.sol:PatientRegistration",
								"label": "patient_name",
								"offset": 0,
								"slot": "1",
								"type": "t_string_storage"
							}
						],
						"numberOfBytes": "64"
					}
				}
			},
			"userdoc": {
				"kind": "user",
				"methods": {},
				"version": 1
			}
		}
	}
}