{
	"contracts/ultimate-solidity-course-for-complete-beginners-main/ultimate-solidity-course-for-complete-beginners-main/Exercises/21-Twitter-AddEvent-Exercise.sol": {
		"TwitterDapp": {
			"abi": [
				{
					"anonymous": false,
					"inputs": [
						{
							"indexed": false,
							"internalType": "uint256",
							"name": "id",
							"type": "uint256"
						},
						{
							"indexed": false,
							"internalType": "address",
							"name": "author",
							"type": "address"
						},
						{
							"indexed": false,
							"internalType": "string",
							"name": "content",
							"type": "string"
						},
						{
							"indexed": false,
							"internalType": "uint256",
							"name": "timestamp",
							"type": "uint256"
						}
					],
					"name": "TweetCreated",
					"type": "event"
				},
				{
					"inputs": [
						{
							"internalType": "uint256",
							"name": "",
							"type": "uint256"
						}
					],
					"name": "allTweets",
					"outputs": [
						{
							"internalType": "uint256",
							"name": "id",
							"type": "uint256"
						},
						{
							"internalType": "address",
							"name": "author",
							"type": "address"
						},
						{
							"internalType": "string",
							"name": "content",
							"type": "string"
						},
						{
							"internalType": "uint256",
							"name": "timestamp",
							"type": "uint256"
						},
						{
							"internalType": "uint256",
							"name": "likes",
							"type": "uint256"
						}
					],
					"stateMutability": "view",
					"type": "function"
				},
				{
					"inputs": [
						{
							"internalType": "string",
							"name": "_tweet",
							"type": "string"
						}
					],
					"name": "createTweet",
					"outputs": [],
					"stateMutability": "nonpayable",
					"type": "function"
				},
				{
					"inputs": [],
					"name": "getAllTweets",
					"outputs": [
						{
							"components": [
								{
									"internalType": "uint256",
									"name": "id",
									"type": "uint256"
								},
								{
									"internalType": "address",
									"name": "author",
									"type": "address"
								},
								{
									"internalType": "string",
									"name": "content",
									"type": "string"
								},
								{
									"internalType": "uint256",
									"name": "timestamp",
									"type": "uint256"
								},
								{
									"internalType": "uint256",
									"name": "likes",
									"type": "uint256"
								}
							],
							"internalType": "struct TwitterDapp.Tweet[]",
							"name": "",
							"type": "tuple[]"
						}
					],
					"stateMutability": "view",
					"type": "function"
				},
				{
					"inputs": [
						{
							"internalType": "address",
							"name": "_user",
							"type": "address"
						}
					],
					"name": "getUserTweets",
					"outputs": [
						{
							"components": [
								{
									"internalType": "uint256",
									"name": "id",
									"type": "uint256"
								},
								{
									"internalType": "address",
									"name": "author",
									"type": "address"
								},
								{
									"internalType": "string",
									"name": "content",
									"type": "string"
								},
								{
									"internalType": "uint256",
									"name": "timestamp",
									"type": "uint256"
								},
								{
									"internalType": "uint256",
									"name": "likes",
									"type": "uint256"
								}
							],
							"internalType": "struct TwitterDapp.Tweet[]",
							"name": "",
							"type": "tuple[]"
						}
					],
					"stateMutability": "view",
					"type": "function"
				},
				{
					"inputs": [
						{
							"internalType": "address",
							"name": "",
							"type": "address"
						},
						{
							"internalType": "uint256",
							"name": "",
							"type": "uint256"
						}
					],
					"name": "tweets",
					"outputs": [
						{
							"internalType": "uint256",
							"name": "id",
							"type": "uint256"
						},
						{
							"internalType": "address",
							"name": "author",
							"type": "address"
						},
						{
							"internalType": "string",
							"name": "content",
							"type": "string"
						},
						{
							"internalType": "uint256",
							"name": "timestamp",
							"type": "uint256"
						},
						{
							"internalType": "uint256",
							"name": "likes",
							"type": "uint256"
						}
					],
					"stateMutability": "view",
					"type": "function"
				}
			],
			"devdoc": {
				"kind": "dev",
				"methods": {},
				"version": 1
			},
			"evm": {
				"assembly": "    /* \"contracts/ultimate-solidity-course-for-complete-beginners-main/ultimate-solidity-course-for-complete-beginners-main/Exercises/21-Twitter-AddEvent-Exercise.sol\":57:1167  contract TwitterDapp {... */\n  mstore(0x40, 0x80)\n  callvalue\n  dup1\n  iszero\n  tag_1\n  jumpi\n  revert(0x00, 0x00)\ntag_1:\n  pop\n  dataSize(sub_0)\n  dup1\n  dataOffset(sub_0)\n  0x00\n  codecopy\n  0x00\n  return\nstop\n\nsub_0: assembly {\n        /* \"contracts/ultimate-solidity-course-for-complete-beginners-main/ultimate-solidity-course-for-complete-beginners-main/Exercises/21-Twitter-AddEvent-Exercise.sol\":57:1167  contract TwitterDapp {... */\n      mstore(0x40, 0x80)\n      callvalue\n      dup1\n      iszero\n      tag_1\n      jumpi\n      revert(0x00, 0x00)\n    tag_1:\n      pop\n      jumpi(tag_2, lt(calldatasize, 0x04))\n      shr(0xe0, calldataload(0x00))\n      dup1\n      0x05a1b4a9\n      eq\n      tag_3\n      jumpi\n      dup1\n      0x2f5899d7\n      eq\n      tag_4\n      jumpi\n      dup1\n      0x53256135\n      eq\n      tag_5\n      jumpi\n      dup1\n      0x7c9cd2bc\n      eq\n      tag_6\n      jumpi\n      dup1\n      0xe28350b7\n      eq\n      tag_7\n      jumpi\n    tag_2:\n      revert(0x00, 0x00)\n        /* \"contracts/ultimate-solidity-course-for-complete-beginners-main/ultimate-solidity-course-for-complete-beginners-main/Exercises/21-Twitter-AddEvent-Exercise.sol\":292:333  mapping(address => Tweet[]) public tweets */\n    tag_3:\n      tag_8\n      0x04\n      dup1\n      calldatasize\n      sub\n      dup2\n      add\n      swap1\n      tag_9\n      swap2\n      swap1\n      tag_10\n      jump\t// in\n    tag_9:\n      tag_11\n      jump\t// in\n    tag_8:\n      mload(0x40)\n      tag_12\n      swap6\n      swap5\n      swap4\n      swap3\n      swap2\n      swap1\n      tag_13\n      jump\t// in\n    tag_12:\n      mload(0x40)\n      dup1\n      swap2\n      sub\n      swap1\n      return\n        /* \"contracts/ultimate-solidity-course-for-complete-beginners-main/ultimate-solidity-course-for-complete-beginners-main/Exercises/21-Twitter-AddEvent-Exercise.sol\":1053:1165  function getUserTweets(address _user) public view returns (Tweet[] memory) {... */\n    tag_4:\n      tag_14\n      0x04\n      dup1\n      calldatasize\n      sub\n      dup2\n      add\n      swap1\n      tag_15\n      swap2\n      swap1\n      tag_16\n      jump\t// in\n    tag_15:\n      tag_17\n      jump\t// in\n    tag_14:\n      mload(0x40)\n      tag_18\n      swap2\n      swap1\n      tag_19\n      jump\t// in\n    tag_18:\n      mload(0x40)\n      dup1\n      swap2\n      sub\n      swap1\n      return\n        /* \"contracts/ultimate-solidity-course-for-complete-beginners-main/ultimate-solidity-course-for-complete-beginners-main/Exercises/21-Twitter-AddEvent-Exercise.sol\":953:1047  function getAllTweets() public view returns (Tweet[] memory) {... */\n    tag_5:\n      tag_20\n      tag_21\n      jump\t// in\n    tag_20:\n      mload(0x40)\n      tag_22\n      swap2\n      swap1\n      tag_19\n      jump\t// in\n    tag_22:\n      mload(0x40)\n      dup1\n      swap2\n      sub\n      swap1\n      return\n        /* \"contracts/ultimate-solidity-course-for-complete-beginners-main/ultimate-solidity-course-for-complete-beginners-main/Exercises/21-Twitter-AddEvent-Exercise.sol\":422:947  function createTweet(string memory _tweet) public {... */\n    tag_6:\n      tag_23\n      0x04\n      dup1\n      calldatasize\n      sub\n      dup2\n      add\n      swap1\n      tag_24\n      swap2\n      swap1\n      tag_25\n      jump\t// in\n    tag_24:\n      tag_26\n      jump\t// in\n    tag_23:\n      stop\n        /* \"contracts/ultimate-solidity-course-for-complete-beginners-main/ultimate-solidity-course-for-complete-beginners-main/Exercises/21-Twitter-AddEvent-Exercise.sol\":262:286  Tweet[] public allTweets */\n    tag_7:\n      tag_27\n      0x04\n      dup1\n      calldatasize\n      sub\n      dup2\n      add\n      swap1\n      tag_28\n      swap2\n      swap1\n      tag_29\n      jump\t// in\n    tag_28:\n      tag_30\n      jump\t// in\n    tag_27:\n      mload(0x40)\n      tag_31\n      swap6\n      swap5\n      swap4\n      swap3\n      swap2\n      swap1\n      tag_13\n      jump\t// in\n    tag_31:\n      mload(0x40)\n      dup1\n      swap2\n      sub\n      swap1\n      return\n        /* \"contracts/ultimate-solidity-course-for-complete-beginners-main/ultimate-solidity-course-for-complete-beginners-main/Exercises/21-Twitter-AddEvent-Exercise.sol\":292:333  mapping(address => Tweet[]) public tweets */\n    tag_11:\n      mstore(0x20, 0x01)\n      dup2\n      0x00\n      mstore\n      keccak256(0x00, 0x40)\n      dup2\n      dup2\n      sload\n      dup2\n      lt\n      tag_32\n      jumpi\n      0x00\n      dup1\n      revert\n    tag_32:\n      swap1\n      0x00\n      mstore\n      keccak256(0x00, 0x20)\n      swap1\n      0x05\n      mul\n      add\n      0x00\n      swap2\n      pop\n      swap2\n      pop\n      pop\n      dup1\n      0x00\n      add\n      sload\n      swap1\n      dup1\n      0x01\n      add\n      0x00\n      swap1\n      sload\n      swap1\n      0x0100\n      exp\n      swap1\n      div\n      0xffffffffffffffffffffffffffffffffffffffff\n      and\n      swap1\n      dup1\n      0x02\n      add\n      dup1\n      sload\n      tag_34\n      swap1\n      tag_35\n      jump\t// in\n    tag_34:\n      dup1\n      0x1f\n      add\n      0x20\n      dup1\n      swap2\n      div\n      mul\n      0x20\n      add\n      mload(0x40)\n      swap1\n      dup2\n      add\n      0x40\n      mstore\n      dup1\n      swap3\n      swap2\n      swap1\n      dup2\n      dup2\n      mstore\n      0x20\n      add\n      dup3\n      dup1\n      sload\n      tag_36\n      swap1\n      tag_35\n      jump\t// in\n    tag_36:\n      dup1\n      iszero\n      tag_37\n      jumpi\n      dup1\n      0x1f\n      lt\n      tag_38\n      jumpi\n      0x0100\n      dup1\n      dup4\n      sload\n      div\n      mul\n      dup4\n      mstore\n      swap2\n      0x20\n      add\n      swap2\n      jump(tag_37)\n    tag_38:\n      dup3\n      add\n      swap2\n      swap1\n      0x00\n      mstore\n      keccak256(0x00, 0x20)\n      swap1\n    tag_39:\n      dup2\n      sload\n      dup2\n      mstore\n      swap1\n      0x01\n      add\n      swap1\n      0x20\n      add\n      dup1\n      dup4\n      gt\n      tag_39\n      jumpi\n      dup3\n      swap1\n      sub\n      0x1f\n      and\n      dup3\n      add\n      swap2\n    tag_37:\n      pop\n      pop\n      pop\n      pop\n      pop\n      swap1\n      dup1\n      0x03\n      add\n      sload\n      swap1\n      dup1\n      0x04\n      add\n      sload\n      swap1\n      pop\n      dup6\n      jump\t// out\n        /* \"contracts/ultimate-solidity-course-for-complete-beginners-main/ultimate-solidity-course-for-complete-beginners-main/Exercises/21-Twitter-AddEvent-Exercise.sol\":1053:1165  function getUserTweets(address _user) public view returns (Tweet[] memory) {... */\n    tag_17:\n        /* \"contracts/ultimate-solidity-course-for-complete-beginners-main/ultimate-solidity-course-for-complete-beginners-main/Exercises/21-Twitter-AddEvent-Exercise.sol\":1112:1126  Tweet[] memory */\n      0x60\n        /* \"contracts/ultimate-solidity-course-for-complete-beginners-main/ultimate-solidity-course-for-complete-beginners-main/Exercises/21-Twitter-AddEvent-Exercise.sol\":1145:1151  tweets */\n      0x01\n        /* \"contracts/ultimate-solidity-course-for-complete-beginners-main/ultimate-solidity-course-for-complete-beginners-main/Exercises/21-Twitter-AddEvent-Exercise.sol\":1145:1158  tweets[_user] */\n      0x00\n        /* \"contracts/ultimate-solidity-course-for-complete-beginners-main/ultimate-solidity-course-for-complete-beginners-main/Exercises/21-Twitter-AddEvent-Exercise.sol\":1152:1157  _user */\n      dup4\n        /* \"contracts/ultimate-solidity-course-for-complete-beginners-main/ultimate-solidity-course-for-complete-beginners-main/Exercises/21-Twitter-AddEvent-Exercise.sol\":1145:1158  tweets[_user] */\n      0xffffffffffffffffffffffffffffffffffffffff\n      and\n      0xffffffffffffffffffffffffffffffffffffffff\n      and\n      dup2\n      mstore\n      0x20\n      add\n      swap1\n      dup2\n      mstore\n      0x20\n      add\n      0x00\n      keccak256\n        /* \"contracts/ultimate-solidity-course-for-complete-beginners-main/ultimate-solidity-course-for-complete-beginners-main/Exercises/21-Twitter-AddEvent-Exercise.sol\":1138:1158  return tweets[_user] */\n      dup1\n      sload\n      dup1\n      0x20\n      mul\n      0x20\n      add\n      mload(0x40)\n      swap1\n      dup2\n      add\n      0x40\n      mstore\n      dup1\n      swap3\n      swap2\n      swap1\n      dup2\n      dup2\n      mstore\n      0x20\n      add\n      0x00\n      swap1\n    tag_41:\n      dup3\n      dup3\n      lt\n      iszero\n      tag_42\n      jumpi\n      dup4\n      dup3\n      swap1\n      0x00\n      mstore\n      keccak256(0x00, 0x20)\n      swap1\n      0x05\n      mul\n      add\n      mload(0x40)\n      dup1\n      0xa0\n      add\n      0x40\n      mstore\n      swap1\n      dup2\n      0x00\n      dup3\n      add\n      sload\n      dup2\n      mstore\n      0x20\n      add\n      0x01\n      dup3\n      add\n      0x00\n      swap1\n      sload\n      swap1\n      0x0100\n      exp\n      swap1\n      div\n      0xffffffffffffffffffffffffffffffffffffffff\n      and\n      0xffffffffffffffffffffffffffffffffffffffff\n      and\n      0xffffffffffffffffffffffffffffffffffffffff\n      and\n      dup2\n      mstore\n      0x20\n      add\n      0x02\n      dup3\n      add\n      dup1\n      sload\n      tag_44\n      swap1\n      tag_35\n      jump\t// in\n    tag_44:\n      dup1\n      0x1f\n      add\n      0x20\n      dup1\n      swap2\n      div\n      mul\n      0x20\n      add\n      mload(0x40)\n      swap1\n      dup2\n      add\n      0x40\n      mstore\n      dup1\n      swap3\n      swap2\n      swap1\n      dup2\n      dup2\n      mstore\n      0x20\n      add\n      dup3\n      dup1\n      sload\n      tag_45\n      swap1\n      tag_35\n      jump\t// in\n    tag_45:\n      dup1\n      iszero\n      tag_46\n      jumpi\n      dup1\n      0x1f\n      lt\n      tag_47\n      jumpi\n      0x0100\n      dup1\n      dup4\n      sload\n      div\n      mul\n      dup4\n      mstore\n      swap2\n      0x20\n      add\n      swap2\n      jump(tag_46)\n    tag_47:\n      dup3\n      add\n      swap2\n      swap1\n      0x00\n      mstore\n      keccak256(0x00, 0x20)\n      swap1\n    tag_48:\n      dup2\n      sload\n      dup2\n      mstore\n      swap1\n      0x01\n      add\n      swap1\n      0x20\n      add\n      dup1\n      dup4\n      gt\n      tag_48\n      jumpi\n      dup3\n      swap1\n      sub\n      0x1f\n      and\n      dup3\n      add\n      swap2\n    tag_46:\n      pop\n      pop\n      pop\n      pop\n      pop\n      dup2\n      mstore\n      0x20\n      add\n      0x03\n      dup3\n      add\n      sload\n      dup2\n      mstore\n      0x20\n      add\n      0x04\n      dup3\n      add\n      sload\n      dup2\n      mstore\n      pop\n      pop\n      dup2\n      mstore\n      0x20\n      add\n      swap1\n      0x01\n      add\n      swap1\n      jump(tag_41)\n    tag_42:\n      pop\n      pop\n      pop\n      pop\n      swap1\n      pop\n        /* \"contracts/ultimate-solidity-course-for-complete-beginners-main/ultimate-solidity-course-for-complete-beginners-main/Exercises/21-Twitter-AddEvent-Exercise.sol\":1053:1165  function getUserTweets(address _user) public view returns (Tweet[] memory) {... */\n      swap2\n      swap1\n      pop\n      jump\t// out\n        /* \"contracts/ultimate-solidity-course-for-complete-beginners-main/ultimate-solidity-course-for-complete-beginners-main/Exercises/21-Twitter-AddEvent-Exercise.sol\":953:1047  function getAllTweets() public view returns (Tweet[] memory) {... */\n    tag_21:\n        /* \"contracts/ultimate-solidity-course-for-complete-beginners-main/ultimate-solidity-course-for-complete-beginners-main/Exercises/21-Twitter-AddEvent-Exercise.sol\":998:1012  Tweet[] memory */\n      0x60\n        /* \"contracts/ultimate-solidity-course-for-complete-beginners-main/ultimate-solidity-course-for-complete-beginners-main/Exercises/21-Twitter-AddEvent-Exercise.sol\":1031:1040  allTweets */\n      0x00\n        /* \"contracts/ultimate-solidity-course-for-complete-beginners-main/ultimate-solidity-course-for-complete-beginners-main/Exercises/21-Twitter-AddEvent-Exercise.sol\":1024:1040  return allTweets */\n      dup1\n      sload\n      dup1\n      0x20\n      mul\n      0x20\n      add\n      mload(0x40)\n      swap1\n      dup2\n      add\n      0x40\n      mstore\n      dup1\n      swap3\n      swap2\n      swap1\n      dup2\n      dup2\n      mstore\n      0x20\n      add\n      0x00\n      swap1\n    tag_50:\n      dup3\n      dup3\n      lt\n      iszero\n      tag_51\n      jumpi\n      dup4\n      dup3\n      swap1\n      0x00\n      mstore\n      keccak256(0x00, 0x20)\n      swap1\n      0x05\n      mul\n      add\n      mload(0x40)\n      dup1\n      0xa0\n      add\n      0x40\n      mstore\n      swap1\n      dup2\n      0x00\n      dup3\n      add\n      sload\n      dup2\n      mstore\n      0x20\n      add\n      0x01\n      dup3\n      add\n      0x00\n      swap1\n      sload\n      swap1\n      0x0100\n      exp\n      swap1\n      div\n      0xffffffffffffffffffffffffffffffffffffffff\n      and\n      0xffffffffffffffffffffffffffffffffffffffff\n      and\n      0xffffffffffffffffffffffffffffffffffffffff\n      and\n      dup2\n      mstore\n      0x20\n      add\n      0x02\n      dup3\n      add\n      dup1\n      sload\n      tag_53\n      swap1\n      tag_35\n      jump\t// in\n    tag_53:\n      dup1\n      0x1f\n      add\n      0x20\n      dup1\n      swap2\n      div\n      mul\n      0x20\n      add\n      mload(0x40)\n      swap1\n      dup2\n      add\n      0x40\n      mstore\n      dup1\n      swap3\n      swap2\n      swap1\n      dup2\n      dup2\n      mstore\n      0x20\n      add\n      dup3\n      dup1\n      sload\n      tag_54\n      swap1\n      tag_35\n      jump\t// in\n    tag_54:\n      dup1\n      iszero\n      tag_55\n      jumpi\n      dup1\n      0x1f\n      lt\n      tag_56\n      jumpi\n      0x0100\n      dup1\n      dup4\n      sload\n      div\n      mul\n      dup4\n      mstore\n      swap2\n      0x20\n      add\n      swap2\n      jump(tag_55)\n    tag_56:\n      dup3\n      add\n      swap2\n      swap1\n      0x00\n      mstore\n      keccak256(0x00, 0x20)\n      swap1\n    tag_57:\n      dup2\n      sload\n      dup2\n      mstore\n      swap1\n      0x01\n      add\n      swap1\n      0x20\n      add\n      dup1\n      dup4\n      gt\n      tag_57\n      jumpi\n      dup3\n      swap1\n      sub\n      0x1f\n      and\n      dup3\n      add\n      swap2\n    tag_55:\n      pop\n      pop\n      pop\n      pop\n      pop\n      dup2\n      mstore\n      0x20\n      add\n      0x03\n      dup3\n      add\n      sload\n      dup2\n      mstore\n      0x20\n      add\n      0x04\n      dup3\n      add\n      sload\n      dup2\n      mstore\n      pop\n      pop\n      dup2\n      mstore\n      0x20\n      add\n      swap1\n      0x01\n      add\n      swap1\n      jump(tag_50)\n    tag_51:\n      pop\n      pop\n      pop\n      pop\n      swap1\n      pop\n        /* \"contracts/ultimate-solidity-course-for-complete-beginners-main/ultimate-solidity-course-for-complete-beginners-main/Exercises/21-Twitter-AddEvent-Exercise.sol\":953:1047  function getAllTweets() public view returns (Tweet[] memory) {... */\n      swap1\n      jump\t// out\n        /* \"contracts/ultimate-solidity-course-for-complete-beginners-main/ultimate-solidity-course-for-complete-beginners-main/Exercises/21-Twitter-AddEvent-Exercise.sol\":422:947  function createTweet(string memory _tweet) public {... */\n    tag_26:\n        /* \"contracts/ultimate-solidity-course-for-complete-beginners-main/ultimate-solidity-course-for-complete-beginners-main/Exercises/21-Twitter-AddEvent-Exercise.sol\":117:120  280 */\n      0x0118\n        /* \"contracts/ultimate-solidity-course-for-complete-beginners-main/ultimate-solidity-course-for-complete-beginners-main/Exercises/21-Twitter-AddEvent-Exercise.sol\":496:502  _tweet */\n      dup2\n        /* \"contracts/ultimate-solidity-course-for-complete-beginners-main/ultimate-solidity-course-for-complete-beginners-main/Exercises/21-Twitter-AddEvent-Exercise.sol\":490:510  bytes(_tweet).length */\n      mload\n        /* \"contracts/ultimate-solidity-course-for-complete-beginners-main/ultimate-solidity-course-for-complete-beginners-main/Exercises/21-Twitter-AddEvent-Exercise.sol\":490:530  bytes(_tweet).length <= MAX_TWEET_LENGTH */\n      gt\n      iszero\n        /* \"contracts/ultimate-solidity-course-for-complete-beginners-main/ultimate-solidity-course-for-complete-beginners-main/Exercises/21-Twitter-AddEvent-Exercise.sol\":482:557  require(bytes(_tweet).length <= MAX_TWEET_LENGTH, \"Tweet is too long bro!\") */\n      tag_59\n      jumpi\n      mload(0x40)\n      0x08c379a000000000000000000000000000000000000000000000000000000000\n      dup2\n      mstore\n      0x04\n      add\n      tag_60\n      swap1\n      tag_61\n      jump\t// in\n    tag_60:\n      mload(0x40)\n      dup1\n      swap2\n      sub\n      swap1\n      revert\n    tag_59:\n        /* \"contracts/ultimate-solidity-course-for-complete-beginners-main/ultimate-solidity-course-for-complete-beginners-main/Exercises/21-Twitter-AddEvent-Exercise.sol\":568:589  Tweet memory newTweet */\n      0x00\n        /* \"contracts/ultimate-solidity-course-for-complete-beginners-main/ultimate-solidity-course-for-complete-beginners-main/Exercises/21-Twitter-AddEvent-Exercise.sol\":592:766  Tweet({... */\n      mload(0x40)\n      dup1\n      0xa0\n      add\n      0x40\n      mstore\n      dup1\n        /* \"contracts/ultimate-solidity-course-for-complete-beginners-main/ultimate-solidity-course-for-complete-beginners-main/Exercises/21-Twitter-AddEvent-Exercise.sol\":616:625  allTweets */\n      0x00\n        /* \"contracts/ultimate-solidity-course-for-complete-beginners-main/ultimate-solidity-course-for-complete-beginners-main/Exercises/21-Twitter-AddEvent-Exercise.sol\":616:632  allTweets.length */\n      dup1\n      sload\n      swap1\n      pop\n        /* \"contracts/ultimate-solidity-course-for-complete-beginners-main/ultimate-solidity-course-for-complete-beginners-main/Exercises/21-Twitter-AddEvent-Exercise.sol\":592:766  Tweet({... */\n      dup2\n      mstore\n      0x20\n      add\n        /* \"contracts/ultimate-solidity-course-for-complete-beginners-main/ultimate-solidity-course-for-complete-beginners-main/Exercises/21-Twitter-AddEvent-Exercise.sol\":654:664  msg.sender */\n      caller\n        /* \"contracts/ultimate-solidity-course-for-complete-beginners-main/ultimate-solidity-course-for-complete-beginners-main/Exercises/21-Twitter-AddEvent-Exercise.sol\":592:766  Tweet({... */\n      0xffffffffffffffffffffffffffffffffffffffff\n      and\n      dup2\n      mstore\n      0x20\n      add\n        /* \"contracts/ultimate-solidity-course-for-complete-beginners-main/ultimate-solidity-course-for-complete-beginners-main/Exercises/21-Twitter-AddEvent-Exercise.sol\":687:693  _tweet */\n      dup4\n        /* \"contracts/ultimate-solidity-course-for-complete-beginners-main/ultimate-solidity-course-for-complete-beginners-main/Exercises/21-Twitter-AddEvent-Exercise.sol\":592:766  Tweet({... */\n      dup2\n      mstore\n      0x20\n      add\n        /* \"contracts/ultimate-solidity-course-for-complete-beginners-main/ultimate-solidity-course-for-complete-beginners-main/Exercises/21-Twitter-AddEvent-Exercise.sol\":718:733  block.timestamp */\n      timestamp\n        /* \"contracts/ultimate-solidity-course-for-complete-beginners-main/ultimate-solidity-course-for-complete-beginners-main/Exercises/21-Twitter-AddEvent-Exercise.sol\":592:766  Tweet({... */\n      dup2\n      mstore\n      0x20\n      add\n        /* \"contracts/ultimate-solidity-course-for-complete-beginners-main/ultimate-solidity-course-for-complete-beginners-main/Exercises/21-Twitter-AddEvent-Exercise.sol\":754:755  0 */\n      0x00\n        /* \"contracts/ultimate-solidity-course-for-complete-beginners-main/ultimate-solidity-course-for-complete-beginners-main/Exercises/21-Twitter-AddEvent-Exercise.sol\":592:766  Tweet({... */\n      dup2\n      mstore\n      pop\n        /* \"contracts/ultimate-solidity-course-for-complete-beginners-main/ultimate-solidity-course-for-complete-beginners-main/Exercises/21-Twitter-AddEvent-Exercise.sol\":568:766  Tweet memory newTweet = Tweet({... */\n      swap1\n      pop\n        /* \"contracts/ultimate-solidity-course-for-complete-beginners-main/ultimate-solidity-course-for-complete-beginners-main/Exercises/21-Twitter-AddEvent-Exercise.sol\":777:783  tweets */\n      0x01\n        /* \"contracts/ultimate-solidity-course-for-complete-beginners-main/ultimate-solidity-course-for-complete-beginners-main/Exercises/21-Twitter-AddEvent-Exercise.sol\":777:795  tweets[msg.sender] */\n      0x00\n        /* \"contracts/ultimate-solidity-course-for-complete-beginners-main/ultimate-solidity-course-for-complete-beginners-main/Exercises/21-Twitter-AddEvent-Exercise.sol\":784:794  msg.sender */\n      caller\n        /* \"contracts/ultimate-solidity-course-for-complete-beginners-main/ultimate-solidity-course-for-complete-beginners-main/Exercises/21-Twitter-AddEvent-Exercise.sol\":777:795  tweets[msg.sender] */\n      0xffffffffffffffffffffffffffffffffffffffff\n      and\n      0xffffffffffffffffffffffffffffffffffffffff\n      and\n      dup2\n      mstore\n      0x20\n      add\n      swap1\n      dup2\n      mstore\n      0x20\n      add\n      0x00\n      keccak256\n        /* \"contracts/ultimate-solidity-course-for-complete-beginners-main/ultimate-solidity-course-for-complete-beginners-main/Exercises/21-Twitter-AddEvent-Exercise.sol\":801:809  newTweet */\n      dup2\n        /* \"contracts/ultimate-solidity-course-for-complete-beginners-main/ultimate-solidity-course-for-complete-beginners-main/Exercises/21-Twitter-AddEvent-Exercise.sol\":777:810  tweets[msg.sender].push(newTweet) */\n      swap1\n      dup1\n      0x01\n      dup2\n      sload\n      add\n      dup1\n      dup3\n      sstore\n      dup1\n      swap2\n      pop\n      pop\n      0x01\n      swap1\n      sub\n      swap1\n      0x00\n      mstore\n      keccak256(0x00, 0x20)\n      swap1\n      0x05\n      mul\n      add\n      0x00\n      swap1\n      swap2\n      swap1\n      swap2\n      swap1\n      swap2\n      pop\n      0x00\n      dup3\n      add\n      mload\n      dup2\n      0x00\n      add\n      sstore\n      0x20\n      dup3\n      add\n      mload\n      dup2\n      0x01\n      add\n      exp(0x0100, 0x00)\n      dup2\n      sload\n      dup2\n      0xffffffffffffffffffffffffffffffffffffffff\n      mul\n      not\n      and\n      swap1\n      dup4\n      0xffffffffffffffffffffffffffffffffffffffff\n      and\n      mul\n      or\n      swap1\n      sstore\n      pop\n      0x40\n      dup3\n      add\n      mload\n      dup2\n      0x02\n      add\n      swap1\n      dup2\n      tag_63\n      swap2\n      swap1\n      tag_64\n      jump\t// in\n    tag_63:\n      pop\n      0x60\n      dup3\n      add\n      mload\n      dup2\n      0x03\n      add\n      sstore\n      0x80\n      dup3\n      add\n      mload\n      dup2\n      0x04\n      add\n      sstore\n      pop\n      pop\n        /* \"contracts/ultimate-solidity-course-for-complete-beginners-main/ultimate-solidity-course-for-complete-beginners-main/Exercises/21-Twitter-AddEvent-Exercise.sol\":820:829  allTweets */\n      0x00\n        /* \"contracts/ultimate-solidity-course-for-complete-beginners-main/ultimate-solidity-course-for-complete-beginners-main/Exercises/21-Twitter-AddEvent-Exercise.sol\":835:843  newTweet */\n      dup2\n        /* \"contracts/ultimate-solidity-course-for-complete-beginners-main/ultimate-solidity-course-for-complete-beginners-main/Exercises/21-Twitter-AddEvent-Exercise.sol\":820:844  allTweets.push(newTweet) */\n      swap1\n      dup1\n      0x01\n      dup2\n      sload\n      add\n      dup1\n      dup3\n      sstore\n      dup1\n      swap2\n      pop\n      pop\n      0x01\n      swap1\n      sub\n      swap1\n      0x00\n      mstore\n      keccak256(0x00, 0x20)\n      swap1\n      0x05\n      mul\n      add\n      0x00\n      swap1\n      swap2\n      swap1\n      swap2\n      swap1\n      swap2\n      pop\n      0x00\n      dup3\n      add\n      mload\n      dup2\n      0x00\n      add\n      sstore\n      0x20\n      dup3\n      add\n      mload\n      dup2\n      0x01\n      add\n      exp(0x0100, 0x00)\n      dup2\n      sload\n      dup2\n      0xffffffffffffffffffffffffffffffffffffffff\n      mul\n      not\n      and\n      swap1\n      dup4\n      0xffffffffffffffffffffffffffffffffffffffff\n      and\n      mul\n      or\n      swap1\n      sstore\n      pop\n      0x40\n      dup3\n      add\n      mload\n      dup2\n      0x02\n      add\n      swap1\n      dup2\n      tag_66\n      swap2\n      swap1\n      tag_64\n      jump\t// in\n    tag_66:\n      pop\n      0x60\n      dup3\n      add\n      mload\n      dup2\n      0x03\n      add\n      sstore\n      0x80\n      dup3\n      add\n      mload\n      dup2\n      0x04\n      add\n      sstore\n      pop\n      pop\n        /* \"contracts/ultimate-solidity-course-for-complete-beginners-main/ultimate-solidity-course-for-complete-beginners-main/Exercises/21-Twitter-AddEvent-Exercise.sol\":860:940  TweetCreated(newTweet.id, newTweet.author, newTweet.content, newTweet.timestamp) */\n      0x16fd3c13e9d46923e0a8bce11c7b473ec508a72e6c96cd2404b29ce972afc29e\n        /* \"contracts/ultimate-solidity-course-for-complete-beginners-main/ultimate-solidity-course-for-complete-beginners-main/Exercises/21-Twitter-AddEvent-Exercise.sol\":873:881  newTweet */\n      dup2\n        /* \"contracts/ultimate-solidity-course-for-complete-beginners-main/ultimate-solidity-course-for-complete-beginners-main/Exercises/21-Twitter-AddEvent-Exercise.sol\":873:884  newTweet.id */\n      0x00\n      add\n      mload\n        /* \"contracts/ultimate-solidity-course-for-complete-beginners-main/ultimate-solidity-course-for-complete-beginners-main/Exercises/21-Twitter-AddEvent-Exercise.sol\":886:894  newTweet */\n      dup3\n        /* \"contracts/ultimate-solidity-course-for-complete-beginners-main/ultimate-solidity-course-for-complete-beginners-main/Exercises/21-Twitter-AddEvent-Exercise.sol\":886:901  newTweet.author */\n      0x20\n      add\n      mload\n        /* \"contracts/ultimate-solidity-course-for-complete-beginners-main/ultimate-solidity-course-for-complete-beginners-main/Exercises/21-Twitter-AddEvent-Exercise.sol\":903:911  newTweet */\n      dup4\n        /* \"contracts/ultimate-solidity-course-for-complete-beginners-main/ultimate-solidity-course-for-complete-beginners-main/Exercises/21-Twitter-AddEvent-Exercise.sol\":903:919  newTweet.content */\n      0x40\n      add\n      mload\n        /* \"contracts/ultimate-solidity-course-for-complete-beginners-main/ultimate-solidity-course-for-complete-beginners-main/Exercises/21-Twitter-AddEvent-Exercise.sol\":921:929  newTweet */\n      dup5\n        /* \"contracts/ultimate-solidity-course-for-complete-beginners-main/ultimate-solidity-course-for-complete-beginners-main/Exercises/21-Twitter-AddEvent-Exercise.sol\":921:939  newTweet.timestamp */\n      0x60\n      add\n      mload\n        /* \"contracts/ultimate-solidity-course-for-complete-beginners-main/ultimate-solidity-course-for-complete-beginners-main/Exercises/21-Twitter-AddEvent-Exercise.sol\":860:940  TweetCreated(newTweet.id, newTweet.author, newTweet.content, newTweet.timestamp) */\n      mload(0x40)\n      tag_67\n      swap5\n      swap4\n      swap3\n      swap2\n      swap1\n      tag_68\n      jump\t// in\n    tag_67:\n      mload(0x40)\n      dup1\n      swap2\n      sub\n      swap1\n      log1\n        /* \"contracts/ultimate-solidity-course-for-complete-beginners-main/ultimate-solidity-course-for-complete-beginners-main/Exercises/21-Twitter-AddEvent-Exercise.sol\":472:947  {... */\n      pop\n        /* \"contracts/ultimate-solidity-course-for-complete-beginners-main/ultimate-solidity-course-for-complete-beginners-main/Exercises/21-Twitter-AddEvent-Exercise.sol\":422:947  function createTweet(string memory _tweet) public {... */\n      pop\n      jump\t// out\n        /* \"contracts/ultimate-solidity-course-for-complete-beginners-main/ultimate-solidity-course-for-complete-beginners-main/Exercises/21-Twitter-AddEvent-Exercise.sol\":262:286  Tweet[] public allTweets */\n    tag_30:\n      0x00\n      dup2\n      dup2\n      sload\n      dup2\n      lt\n      tag_69\n      jumpi\n      0x00\n      dup1\n      revert\n    tag_69:\n      swap1\n      0x00\n      mstore\n      keccak256(0x00, 0x20)\n      swap1\n      0x05\n      mul\n      add\n      0x00\n      swap2\n      pop\n      swap1\n      pop\n      dup1\n      0x00\n      add\n      sload\n      swap1\n      dup1\n      0x01\n      add\n      0x00\n      swap1\n      sload\n      swap1\n      0x0100\n      exp\n      swap1\n      div\n      0xffffffffffffffffffffffffffffffffffffffff\n      and\n      swap1\n      dup1\n      0x02\n      add\n      dup1\n      sload\n      tag_71\n      swap1\n      tag_35\n      jump\t// in\n    tag_71:\n      dup1\n      0x1f\n      add\n      0x20\n      dup1\n      swap2\n      div\n      mul\n      0x20\n      add\n      mload(0x40)\n      swap1\n      dup2\n      add\n      0x40\n      mstore\n      dup1\n      swap3\n      swap2\n      swap1\n      dup2\n      dup2\n      mstore\n      0x20\n      add\n      dup3\n      dup1\n      sload\n      tag_72\n      swap1\n      tag_35\n      jump\t// in\n    tag_72:\n      dup1\n      iszero\n      tag_73\n      jumpi\n      dup1\n      0x1f\n      lt\n      tag_74\n      jumpi\n      0x0100\n      dup1\n      dup4\n      sload\n      div\n      mul\n      dup4\n      mstore\n      swap2\n      0x20\n      add\n      swap2\n      jump(tag_73)\n    tag_74:\n      dup3\n      add\n      swap2\n      swap1\n      0x00\n      mstore\n      keccak256(0x00, 0x20)\n      swap1\n    tag_75:\n      dup2\n      sload\n      dup2\n      mstore\n      swap1\n      0x01\n      add\n      swap1\n      0x20\n      add\n      dup1\n      dup4\n      gt\n      tag_75\n      jumpi\n      dup3\n      swap1\n      sub\n      0x1f\n      and\n      dup3\n      add\n      swap2\n    tag_73:\n      pop\n      pop\n      pop\n      pop\n      pop\n      swap1\n      dup1\n      0x03\n      add\n      sload\n      swap1\n      dup1\n      0x04\n      add\n      sload\n      swap1\n      pop\n      dup6\n      jump\t// out\n        /* \"#utility.yul\":7:82   */\n    tag_76:\n        /* \"#utility.yul\":40:46   */\n      0x00\n        /* \"#utility.yul\":73:75   */\n      0x40\n        /* \"#utility.yul\":67:76   */\n      mload\n        /* \"#utility.yul\":57:76   */\n      swap1\n      pop\n        /* \"#utility.yul\":7:82   */\n      swap1\n      jump\t// out\n        /* \"#utility.yul\":88:205   */\n    tag_77:\n        /* \"#utility.yul\":197:198   */\n      0x00\n        /* \"#utility.yul\":194:195   */\n      0x00\n        /* \"#utility.yul\":187:199   */\n      revert\n        /* \"#utility.yul\":211:328   */\n    tag_78:\n        /* \"#utility.yul\":320:321   */\n      0x00\n        /* \"#utility.yul\":317:318   */\n      0x00\n        /* \"#utility.yul\":310:322   */\n      revert\n        /* \"#utility.yul\":334:460   */\n    tag_79:\n        /* \"#utility.yul\":371:378   */\n      0x00\n        /* \"#utility.yul\":411:453   */\n      0xffffffffffffffffffffffffffffffffffffffff\n        /* \"#utility.yul\":404:409   */\n      dup3\n        /* \"#utility.yul\":400:454   */\n      and\n        /* \"#utility.yul\":389:454   */\n      swap1\n      pop\n        /* \"#utility.yul\":334:460   */\n      swap2\n      swap1\n      pop\n      jump\t// out\n        /* \"#utility.yul\":466:562   */\n    tag_80:\n        /* \"#utility.yul\":503:510   */\n      0x00\n        /* \"#utility.yul\":532:556   */\n      tag_137\n        /* \"#utility.yul\":550:555   */\n      dup3\n        /* \"#utility.yul\":532:556   */\n      tag_79\n      jump\t// in\n    tag_137:\n        /* \"#utility.yul\":521:556   */\n      swap1\n      pop\n        /* \"#utility.yul\":466:562   */\n      swap2\n      swap1\n      pop\n      jump\t// out\n        /* \"#utility.yul\":568:690   */\n    tag_81:\n        /* \"#utility.yul\":641:665   */\n      tag_139\n        /* \"#utility.yul\":659:664   */\n      dup2\n        /* \"#utility.yul\":641:665   */\n      tag_80\n      jump\t// in\n    tag_139:\n        /* \"#utility.yul\":634:639   */\n      dup2\n        /* \"#utility.yul\":631:666   */\n      eq\n        /* \"#utility.yul\":621:684   */\n      tag_140\n      jumpi\n        /* \"#utility.yul\":680:681   */\n      0x00\n        /* \"#utility.yul\":677:678   */\n      0x00\n        /* \"#utility.yul\":670:682   */\n      revert\n        /* \"#utility.yul\":621:684   */\n    tag_140:\n        /* \"#utility.yul\":568:690   */\n      pop\n      jump\t// out\n        /* \"#utility.yul\":696:835   */\n    tag_82:\n        /* \"#utility.yul\":742:747   */\n      0x00\n        /* \"#utility.yul\":780:786   */\n      dup2\n        /* \"#utility.yul\":767:787   */\n      calldataload\n        /* \"#utility.yul\":758:787   */\n      swap1\n      pop\n        /* \"#utility.yul\":796:829   */\n      tag_142\n        /* \"#utility.yul\":823:828   */\n      dup2\n        /* \"#utility.yul\":796:829   */\n      tag_81\n      jump\t// in\n    tag_142:\n        /* \"#utility.yul\":696:835   */\n      swap3\n      swap2\n      pop\n      pop\n      jump\t// out\n        /* \"#utility.yul\":841:918   */\n    tag_83:\n        /* \"#utility.yul\":878:885   */\n      0x00\n        /* \"#utility.yul\":907:912   */\n      dup2\n        /* \"#utility.yul\":896:912   */\n      swap1\n      pop\n        /* \"#utility.yul\":841:918   */\n      swap2\n      swap1\n      pop\n      jump\t// out\n        /* \"#utility.yul\":924:1046   */\n    tag_84:\n        /* \"#utility.yul\":997:1021   */\n      tag_145\n        /* \"#utility.yul\":1015:1020   */\n      dup2\n        /* \"#utility.yul\":997:1021   */\n      tag_83\n      jump\t// in\n    tag_145:\n        /* \"#utility.yul\":990:995   */\n      dup2\n        /* \"#utility.yul\":987:1022   */\n      eq\n        /* \"#utility.yul\":977:1040   */\n      tag_146\n      jumpi\n        /* \"#utility.yul\":1036:1037   */\n      0x00\n        /* \"#utility.yul\":1033:1034   */\n      0x00\n        /* \"#utility.yul\":1026:1038   */\n      revert\n        /* \"#utility.yul\":977:1040   */\n    tag_146:\n        /* \"#utility.yul\":924:1046   */\n      pop\n      jump\t// out\n        /* \"#utility.yul\":1052:1191   */\n    tag_85:\n        /* \"#utility.yul\":1098:1103   */\n      0x00\n        /* \"#utility.yul\":1136:1142   */\n      dup2\n        /* \"#utility.yul\":1123:1143   */\n      calldataload\n        /* \"#utility.yul\":1114:1143   */\n      swap1\n      pop\n        /* \"#utility.yul\":1152:1185   */\n      tag_148\n        /* \"#utility.yul\":1179:1184   */\n      dup2\n        /* \"#utility.yul\":1152:1185   */\n      tag_84\n      jump\t// in\n    tag_148:\n        /* \"#utility.yul\":1052:1191   */\n      swap3\n      swap2\n      pop\n      pop\n      jump\t// out\n        /* \"#utility.yul\":1197:1671   */\n    tag_10:\n        /* \"#utility.yul\":1265:1271   */\n      0x00\n        /* \"#utility.yul\":1273:1279   */\n      0x00\n        /* \"#utility.yul\":1322:1324   */\n      0x40\n        /* \"#utility.yul\":1310:1319   */\n      dup4\n        /* \"#utility.yul\":1301:1308   */\n      dup6\n        /* \"#utility.yul\":1297:1320   */\n      sub\n        /* \"#utility.yul\":1293:1325   */\n      slt\n        /* \"#utility.yul\":1290:1409   */\n      iszero\n      tag_150\n      jumpi\n        /* \"#utility.yul\":1328:1407   */\n      tag_151\n      tag_77\n      jump\t// in\n    tag_151:\n        /* \"#utility.yul\":1290:1409   */\n    tag_150:\n        /* \"#utility.yul\":1448:1449   */\n      0x00\n        /* \"#utility.yul\":1473:1526   */\n      tag_152\n        /* \"#utility.yul\":1518:1525   */\n      dup6\n        /* \"#utility.yul\":1509:1515   */\n      dup3\n        /* \"#utility.yul\":1498:1507   */\n      dup7\n        /* \"#utility.yul\":1494:1516   */\n      add\n        /* \"#utility.yul\":1473:1526   */\n      tag_82\n      jump\t// in\n    tag_152:\n        /* \"#utility.yul\":1463:1526   */\n      swap3\n      pop\n        /* \"#utility.yul\":1419:1536   */\n      pop\n        /* \"#utility.yul\":1575:1577   */\n      0x20\n        /* \"#utility.yul\":1601:1654   */\n      tag_153\n        /* \"#utility.yul\":1646:1653   */\n      dup6\n        /* \"#utility.yul\":1637:1643   */\n      dup3\n        /* \"#utility.yul\":1626:1635   */\n      dup7\n        /* \"#utility.yul\":1622:1644   */\n      add\n        /* \"#utility.yul\":1601:1654   */\n      tag_85\n      jump\t// in\n    tag_153:\n        /* \"#utility.yul\":1591:1654   */\n      swap2\n      pop\n        /* \"#utility.yul\":1546:1664   */\n      pop\n        /* \"#utility.yul\":1197:1671   */\n      swap3\n      pop\n      swap3\n      swap1\n      pop\n      jump\t// out\n        /* \"#utility.yul\":1677:1795   */\n    tag_86:\n        /* \"#utility.yul\":1764:1788   */\n      tag_155\n        /* \"#utility.yul\":1782:1787   */\n      dup2\n        /* \"#utility.yul\":1764:1788   */\n      tag_83\n      jump\t// in\n    tag_155:\n        /* \"#utility.yul\":1759:1762   */\n      dup3\n        /* \"#utility.yul\":1752:1789   */\n      mstore\n        /* \"#utility.yul\":1677:1795   */\n      pop\n      pop\n      jump\t// out\n        /* \"#utility.yul\":1801:1919   */\n    tag_87:\n        /* \"#utility.yul\":1888:1912   */\n      tag_157\n        /* \"#utility.yul\":1906:1911   */\n      dup2\n        /* \"#utility.yul\":1888:1912   */\n      tag_80\n      jump\t// in\n    tag_157:\n        /* \"#utility.yul\":1883:1886   */\n      dup3\n        /* \"#utility.yul\":1876:1913   */\n      mstore\n        /* \"#utility.yul\":1801:1919   */\n      pop\n      pop\n      jump\t// out\n        /* \"#utility.yul\":1925:2024   */\n    tag_88:\n        /* \"#utility.yul\":1977:1983   */\n      0x00\n        /* \"#utility.yul\":2011:2016   */\n      dup2\n        /* \"#utility.yul\":2005:2017   */\n      mload\n        /* \"#utility.yul\":1995:2017   */\n      swap1\n      pop\n        /* \"#utility.yul\":1925:2024   */\n      swap2\n      swap1\n      pop\n      jump\t// out\n        /* \"#utility.yul\":2030:2199   */\n    tag_89:\n        /* \"#utility.yul\":2114:2125   */\n      0x00\n        /* \"#utility.yul\":2148:2154   */\n      dup3\n        /* \"#utility.yul\":2143:2146   */\n      dup3\n        /* \"#utility.yul\":2136:2155   */\n      mstore\n        /* \"#utility.yul\":2188:2192   */\n      0x20\n        /* \"#utility.yul\":2183:2186   */\n      dup3\n        /* \"#utility.yul\":2179:2193   */\n      add\n        /* \"#utility.yul\":2164:2193   */\n      swap1\n      pop\n        /* \"#utility.yul\":2030:2199   */\n      swap3\n      swap2\n      pop\n      pop\n      jump\t// out\n        /* \"#utility.yul\":2205:2344   */\n    tag_90:\n        /* \"#utility.yul\":2294:2300   */\n      dup3\n        /* \"#utility.yul\":2289:2292   */\n      dup2\n        /* \"#utility.yul\":2284:2287   */\n      dup4\n        /* \"#utility.yul\":2278:2301   */\n      mcopy\n        /* \"#utility.yul\":2335:2336   */\n      0x00\n        /* \"#utility.yul\":2326:2332   */\n      dup4\n        /* \"#utility.yul\":2321:2324   */\n      dup4\n        /* \"#utility.yul\":2317:2333   */\n      add\n        /* \"#utility.yul\":2310:2337   */\n      mstore\n        /* \"#utility.yul\":2205:2344   */\n      pop\n      pop\n      pop\n      jump\t// out\n        /* \"#utility.yul\":2350:2452   */\n    tag_91:\n        /* \"#utility.yul\":2391:2397   */\n      0x00\n        /* \"#utility.yul\":2442:2444   */\n      0x1f\n        /* \"#utility.yul\":2438:2445   */\n      not\n        /* \"#utility.yul\":2433:2435   */\n      0x1f\n        /* \"#utility.yul\":2426:2431   */\n      dup4\n        /* \"#utility.yul\":2422:2436   */\n      add\n        /* \"#utility.yul\":2418:2446   */\n      and\n        /* \"#utility.yul\":2408:2446   */\n      swap1\n      pop\n        /* \"#utility.yul\":2350:2452   */\n      swap2\n      swap1\n      pop\n      jump\t// out\n        /* \"#utility.yul\":2458:2835   */\n    tag_92:\n        /* \"#utility.yul\":2546:2549   */\n      0x00\n        /* \"#utility.yul\":2574:2613   */\n      tag_163\n        /* \"#utility.yul\":2607:2612   */\n      dup3\n        /* \"#utility.yul\":2574:2613   */\n      tag_88\n      jump\t// in\n    tag_163:\n        /* \"#utility.yul\":2629:2700   */\n      tag_164\n        /* \"#utility.yul\":2693:2699   */\n      dup2\n        /* \"#utility.yul\":2688:2691   */\n      dup6\n        /* \"#utility.yul\":2629:2700   */\n      tag_89\n      jump\t// in\n    tag_164:\n        /* \"#utility.yul\":2622:2700   */\n      swap4\n      pop\n        /* \"#utility.yul\":2709:2774   */\n      tag_165\n        /* \"#utility.yul\":2767:2773   */\n      dup2\n        /* \"#utility.yul\":2762:2765   */\n      dup6\n        /* \"#utility.yul\":2755:2759   */\n      0x20\n        /* \"#utility.yul\":2748:2753   */\n      dup7\n        /* \"#utility.yul\":2744:2760   */\n      add\n        /* \"#utility.yul\":2709:2774   */\n      tag_90\n      jump\t// in\n    tag_165:\n        /* \"#utility.yul\":2799:2828   */\n      tag_166\n        /* \"#utility.yul\":2821:2827   */\n      dup2\n        /* \"#utility.yul\":2799:2828   */\n      tag_91\n      jump\t// in\n    tag_166:\n        /* \"#utility.yul\":2794:2797   */\n      dup5\n        /* \"#utility.yul\":2790:2829   */\n      add\n        /* \"#utility.yul\":2783:2829   */\n      swap2\n      pop\n        /* \"#utility.yul\":2550:2835   */\n      pop\n        /* \"#utility.yul\":2458:2835   */\n      swap3\n      swap2\n      pop\n      pop\n      jump\t// out\n        /* \"#utility.yul\":2841:3596   */\n    tag_13:\n        /* \"#utility.yul\":3066:3070   */\n      0x00\n        /* \"#utility.yul\":3104:3107   */\n      0xa0\n        /* \"#utility.yul\":3093:3102   */\n      dup3\n        /* \"#utility.yul\":3089:3108   */\n      add\n        /* \"#utility.yul\":3081:3108   */\n      swap1\n      pop\n        /* \"#utility.yul\":3118:3189   */\n      tag_168\n        /* \"#utility.yul\":3186:3187   */\n      0x00\n        /* \"#utility.yul\":3175:3184   */\n      dup4\n        /* \"#utility.yul\":3171:3188   */\n      add\n        /* \"#utility.yul\":3162:3168   */\n      dup9\n        /* \"#utility.yul\":3118:3189   */\n      tag_86\n      jump\t// in\n    tag_168:\n        /* \"#utility.yul\":3199:3271   */\n      tag_169\n        /* \"#utility.yul\":3267:3269   */\n      0x20\n        /* \"#utility.yul\":3256:3265   */\n      dup4\n        /* \"#utility.yul\":3252:3270   */\n      add\n        /* \"#utility.yul\":3243:3249   */\n      dup8\n        /* \"#utility.yul\":3199:3271   */\n      tag_87\n      jump\t// in\n    tag_169:\n        /* \"#utility.yul\":3318:3327   */\n      dup2\n        /* \"#utility.yul\":3312:3316   */\n      dup2\n        /* \"#utility.yul\":3308:3328   */\n      sub\n        /* \"#utility.yul\":3303:3305   */\n      0x40\n        /* \"#utility.yul\":3292:3301   */\n      dup4\n        /* \"#utility.yul\":3288:3306   */\n      add\n        /* \"#utility.yul\":3281:3329   */\n      mstore\n        /* \"#utility.yul\":3346:3424   */\n      tag_170\n        /* \"#utility.yul\":3419:3423   */\n      dup2\n        /* \"#utility.yul\":3410:3416   */\n      dup7\n        /* \"#utility.yul\":3346:3424   */\n      tag_92\n      jump\t// in\n    tag_170:\n        /* \"#utility.yul\":3338:3424   */\n      swap1\n      pop\n        /* \"#utility.yul\":3434:3506   */\n      tag_171\n        /* \"#utility.yul\":3502:3504   */\n      0x60\n        /* \"#utility.yul\":3491:3500   */\n      dup4\n        /* \"#utility.yul\":3487:3505   */\n      add\n        /* \"#utility.yul\":3478:3484   */\n      dup6\n        /* \"#utility.yul\":3434:3506   */\n      tag_86\n      jump\t// in\n    tag_171:\n        /* \"#utility.yul\":3516:3589   */\n      tag_172\n        /* \"#utility.yul\":3584:3587   */\n      0x80\n        /* \"#utility.yul\":3573:3582   */\n      dup4\n        /* \"#utility.yul\":3569:3588   */\n      add\n        /* \"#utility.yul\":3560:3566   */\n      dup5\n        /* \"#utility.yul\":3516:3589   */\n      tag_86\n      jump\t// in\n    tag_172:\n        /* \"#utility.yul\":2841:3596   */\n      swap7\n      swap6\n      pop\n      pop\n      pop\n      pop\n      pop\n      pop\n      jump\t// out\n        /* \"#utility.yul\":3602:3931   */\n    tag_16:\n        /* \"#utility.yul\":3661:3667   */\n      0x00\n        /* \"#utility.yul\":3710:3712   */\n      0x20\n        /* \"#utility.yul\":3698:3707   */\n      dup3\n        /* \"#utility.yul\":3689:3696   */\n      dup5\n        /* \"#utility.yul\":3685:3708   */\n      sub\n        /* \"#utility.yul\":3681:3713   */\n      slt\n        /* \"#utility.yul\":3678:3797   */\n      iszero\n      tag_174\n      jumpi\n        /* \"#utility.yul\":3716:3795   */\n      tag_175\n      tag_77\n      jump\t// in\n    tag_175:\n        /* \"#utility.yul\":3678:3797   */\n    tag_174:\n        /* \"#utility.yul\":3836:3837   */\n      0x00\n        /* \"#utility.yul\":3861:3914   */\n      tag_176\n        /* \"#utility.yul\":3906:3913   */\n      dup5\n        /* \"#utility.yul\":3897:3903   */\n      dup3\n        /* \"#utility.yul\":3886:3895   */\n      dup6\n        /* \"#utility.yul\":3882:3904   */\n      add\n        /* \"#utility.yul\":3861:3914   */\n      tag_82\n      jump\t// in\n    tag_176:\n        /* \"#utility.yul\":3851:3914   */\n      swap2\n      pop\n        /* \"#utility.yul\":3807:3924   */\n      pop\n        /* \"#utility.yul\":3602:3931   */\n      swap3\n      swap2\n      pop\n      pop\n      jump\t// out\n        /* \"#utility.yul\":3937:4072   */\n    tag_93:\n        /* \"#utility.yul\":4025:4031   */\n      0x00\n        /* \"#utility.yul\":4059:4064   */\n      dup2\n        /* \"#utility.yul\":4053:4065   */\n      mload\n        /* \"#utility.yul\":4043:4065   */\n      swap1\n      pop\n        /* \"#utility.yul\":3937:4072   */\n      swap2\n      swap1\n      pop\n      jump\t// out\n        /* \"#utility.yul\":4078:4283   */\n    tag_94:\n        /* \"#utility.yul\":4198:4209   */\n      0x00\n        /* \"#utility.yul\":4232:4238   */\n      dup3\n        /* \"#utility.yul\":4227:4230   */\n      dup3\n        /* \"#utility.yul\":4220:4239   */\n      mstore\n        /* \"#utility.yul\":4272:4276   */\n      0x20\n        /* \"#utility.yul\":4267:4270   */\n      dup3\n        /* \"#utility.yul\":4263:4277   */\n      add\n        /* \"#utility.yul\":4248:4277   */\n      swap1\n      pop\n        /* \"#utility.yul\":4078:4283   */\n      swap3\n      swap2\n      pop\n      pop\n      jump\t// out\n        /* \"#utility.yul\":4289:4442   */\n    tag_95:\n        /* \"#utility.yul\":4377:4381   */\n      0x00\n        /* \"#utility.yul\":4400:4403   */\n      dup2\n        /* \"#utility.yul\":4392:4403   */\n      swap1\n      pop\n        /* \"#utility.yul\":4430:4434   */\n      0x20\n        /* \"#utility.yul\":4425:4428   */\n      dup3\n        /* \"#utility.yul\":4421:4435   */\n      add\n        /* \"#utility.yul\":4413:4435   */\n      swap1\n      pop\n        /* \"#utility.yul\":4289:4442   */\n      swap2\n      swap1\n      pop\n      jump\t// out\n        /* \"#utility.yul\":4448:4556   */\n    tag_96:\n        /* \"#utility.yul\":4525:4549   */\n      tag_181\n        /* \"#utility.yul\":4543:4548   */\n      dup2\n        /* \"#utility.yul\":4525:4549   */\n      tag_83\n      jump\t// in\n    tag_181:\n        /* \"#utility.yul\":4520:4523   */\n      dup3\n        /* \"#utility.yul\":4513:4550   */\n      mstore\n        /* \"#utility.yul\":4448:4556   */\n      pop\n      pop\n      jump\t// out\n        /* \"#utility.yul\":4562:4670   */\n    tag_97:\n        /* \"#utility.yul\":4639:4663   */\n      tag_183\n        /* \"#utility.yul\":4657:4662   */\n      dup2\n        /* \"#utility.yul\":4639:4663   */\n      tag_80\n      jump\t// in\n    tag_183:\n        /* \"#utility.yul\":4634:4637   */\n      dup3\n        /* \"#utility.yul\":4627:4664   */\n      mstore\n        /* \"#utility.yul\":4562:4670   */\n      pop\n      pop\n      jump\t// out\n        /* \"#utility.yul\":4676:4835   */\n    tag_98:\n        /* \"#utility.yul\":4750:4761   */\n      0x00\n        /* \"#utility.yul\":4784:4790   */\n      dup3\n        /* \"#utility.yul\":4779:4782   */\n      dup3\n        /* \"#utility.yul\":4772:4791   */\n      mstore\n        /* \"#utility.yul\":4824:4828   */\n      0x20\n        /* \"#utility.yul\":4819:4822   */\n      dup3\n        /* \"#utility.yul\":4815:4829   */\n      add\n        /* \"#utility.yul\":4800:4829   */\n      swap1\n      pop\n        /* \"#utility.yul\":4676:4835   */\n      swap3\n      swap2\n      pop\n      pop\n      jump\t// out\n        /* \"#utility.yul\":4841:5198   */\n    tag_99:\n        /* \"#utility.yul\":4919:4922   */\n      0x00\n        /* \"#utility.yul\":4947:4986   */\n      tag_186\n        /* \"#utility.yul\":4980:4985   */\n      dup3\n        /* \"#utility.yul\":4947:4986   */\n      tag_88\n      jump\t// in\n    tag_186:\n        /* \"#utility.yul\":5002:5063   */\n      tag_187\n        /* \"#utility.yul\":5056:5062   */\n      dup2\n        /* \"#utility.yul\":5051:5054   */\n      dup6\n        /* \"#utility.yul\":5002:5063   */\n      tag_98\n      jump\t// in\n    tag_187:\n        /* \"#utility.yul\":4995:5063   */\n      swap4\n      pop\n        /* \"#utility.yul\":5072:5137   */\n      tag_188\n        /* \"#utility.yul\":5130:5136   */\n      dup2\n        /* \"#utility.yul\":5125:5128   */\n      dup6\n        /* \"#utility.yul\":5118:5122   */\n      0x20\n        /* \"#utility.yul\":5111:5116   */\n      dup7\n        /* \"#utility.yul\":5107:5123   */\n      add\n        /* \"#utility.yul\":5072:5137   */\n      tag_90\n      jump\t// in\n    tag_188:\n        /* \"#utility.yul\":5162:5191   */\n      tag_189\n        /* \"#utility.yul\":5184:5190   */\n      dup2\n        /* \"#utility.yul\":5162:5191   */\n      tag_91\n      jump\t// in\n    tag_189:\n        /* \"#utility.yul\":5157:5160   */\n      dup5\n        /* \"#utility.yul\":5153:5192   */\n      add\n        /* \"#utility.yul\":5146:5192   */\n      swap2\n      pop\n        /* \"#utility.yul\":4923:5198   */\n      pop\n        /* \"#utility.yul\":4841:5198   */\n      swap3\n      swap2\n      pop\n      pop\n      jump\t// out\n        /* \"#utility.yul\":5264:6383   */\n    tag_100:\n        /* \"#utility.yul\":5365:5368   */\n      0x00\n        /* \"#utility.yul\":5401:5405   */\n      0xa0\n        /* \"#utility.yul\":5396:5399   */\n      dup4\n        /* \"#utility.yul\":5392:5406   */\n      add\n        /* \"#utility.yul\":5486:5490   */\n      0x00\n        /* \"#utility.yul\":5479:5484   */\n      dup4\n        /* \"#utility.yul\":5475:5491   */\n      add\n        /* \"#utility.yul\":5469:5492   */\n      mload\n        /* \"#utility.yul\":5505:5568   */\n      tag_191\n        /* \"#utility.yul\":5562:5566   */\n      0x00\n        /* \"#utility.yul\":5557:5560   */\n      dup7\n        /* \"#utility.yul\":5553:5567   */\n      add\n        /* \"#utility.yul\":5539:5551   */\n      dup3\n        /* \"#utility.yul\":5505:5568   */\n      tag_96\n      jump\t// in\n    tag_191:\n        /* \"#utility.yul\":5416:5578   */\n      pop\n        /* \"#utility.yul\":5662:5666   */\n      0x20\n        /* \"#utility.yul\":5655:5660   */\n      dup4\n        /* \"#utility.yul\":5651:5667   */\n      add\n        /* \"#utility.yul\":5645:5668   */\n      mload\n        /* \"#utility.yul\":5681:5744   */\n      tag_192\n        /* \"#utility.yul\":5738:5742   */\n      0x20\n        /* \"#utility.yul\":5733:5736   */\n      dup7\n        /* \"#utility.yul\":5729:5743   */\n      add\n        /* \"#utility.yul\":5715:5727   */\n      dup3\n        /* \"#utility.yul\":5681:5744   */\n      tag_97\n      jump\t// in\n    tag_192:\n        /* \"#utility.yul\":5588:5754   */\n      pop\n        /* \"#utility.yul\":5839:5843   */\n      0x40\n        /* \"#utility.yul\":5832:5837   */\n      dup4\n        /* \"#utility.yul\":5828:5844   */\n      add\n        /* \"#utility.yul\":5822:5845   */\n      mload\n        /* \"#utility.yul\":5892:5895   */\n      dup5\n        /* \"#utility.yul\":5886:5890   */\n      dup3\n        /* \"#utility.yul\":5882:5896   */\n      sub\n        /* \"#utility.yul\":5875:5879   */\n      0x40\n        /* \"#utility.yul\":5870:5873   */\n      dup7\n        /* \"#utility.yul\":5866:5880   */\n      add\n        /* \"#utility.yul\":5859:5897   */\n      mstore\n        /* \"#utility.yul\":5918:5991   */\n      tag_193\n        /* \"#utility.yul\":5986:5990   */\n      dup3\n        /* \"#utility.yul\":5972:5984   */\n      dup3\n        /* \"#utility.yul\":5918:5991   */\n      tag_99\n      jump\t// in\n    tag_193:\n        /* \"#utility.yul\":5910:5991   */\n      swap2\n      pop\n        /* \"#utility.yul\":5764:6002   */\n      pop\n        /* \"#utility.yul\":6089:6093   */\n      0x60\n        /* \"#utility.yul\":6082:6087   */\n      dup4\n        /* \"#utility.yul\":6078:6094   */\n      add\n        /* \"#utility.yul\":6072:6095   */\n      mload\n        /* \"#utility.yul\":6108:6171   */\n      tag_194\n        /* \"#utility.yul\":6165:6169   */\n      0x60\n        /* \"#utility.yul\":6160:6163   */\n      dup7\n        /* \"#utility.yul\":6156:6170   */\n      add\n        /* \"#utility.yul\":6142:6154   */\n      dup3\n        /* \"#utility.yul\":6108:6171   */\n      tag_96\n      jump\t// in\n    tag_194:\n        /* \"#utility.yul\":6012:6181   */\n      pop\n        /* \"#utility.yul\":6264:6268   */\n      0x80\n        /* \"#utility.yul\":6257:6262   */\n      dup4\n        /* \"#utility.yul\":6253:6269   */\n      add\n        /* \"#utility.yul\":6247:6270   */\n      mload\n        /* \"#utility.yul\":6283:6346   */\n      tag_195\n        /* \"#utility.yul\":6340:6344   */\n      0x80\n        /* \"#utility.yul\":6335:6338   */\n      dup7\n        /* \"#utility.yul\":6331:6345   */\n      add\n        /* \"#utility.yul\":6317:6329   */\n      dup3\n        /* \"#utility.yul\":6283:6346   */\n      tag_96\n      jump\t// in\n    tag_195:\n        /* \"#utility.yul\":6191:6356   */\n      pop\n        /* \"#utility.yul\":6373:6377   */\n      dup1\n        /* \"#utility.yul\":6366:6377   */\n      swap2\n      pop\n        /* \"#utility.yul\":5370:6383   */\n      pop\n        /* \"#utility.yul\":5264:6383   */\n      swap3\n      swap2\n      pop\n      pop\n      jump\t// out\n        /* \"#utility.yul\":6389:6629   */\n    tag_101:\n        /* \"#utility.yul\":6500:6510   */\n      0x00\n        /* \"#utility.yul\":6535:6623   */\n      tag_197\n        /* \"#utility.yul\":6619:6622   */\n      dup4\n        /* \"#utility.yul\":6611:6617   */\n      dup4\n        /* \"#utility.yul\":6535:6623   */\n      tag_100\n      jump\t// in\n    tag_197:\n        /* \"#utility.yul\":6521:6623   */\n      swap1\n      pop\n        /* \"#utility.yul\":6389:6629   */\n      swap3\n      swap2\n      pop\n      pop\n      jump\t// out\n        /* \"#utility.yul\":6635:6769   */\n    tag_102:\n        /* \"#utility.yul\":6726:6730   */\n      0x00\n        /* \"#utility.yul\":6758:6762   */\n      0x20\n        /* \"#utility.yul\":6753:6756   */\n      dup3\n        /* \"#utility.yul\":6749:6763   */\n      add\n        /* \"#utility.yul\":6741:6763   */\n      swap1\n      pop\n        /* \"#utility.yul\":6635:6769   */\n      swap2\n      swap1\n      pop\n      jump\t// out\n        /* \"#utility.yul\":6839:7918   */\n    tag_103:\n        /* \"#utility.yul\":7000:7003   */\n      0x00\n        /* \"#utility.yul\":7029:7104   */\n      tag_200\n        /* \"#utility.yul\":7098:7103   */\n      dup3\n        /* \"#utility.yul\":7029:7104   */\n      tag_93\n      jump\t// in\n    tag_200:\n        /* \"#utility.yul\":7120:7227   */\n      tag_201\n        /* \"#utility.yul\":7220:7226   */\n      dup2\n        /* \"#utility.yul\":7215:7218   */\n      dup6\n        /* \"#utility.yul\":7120:7227   */\n      tag_94\n      jump\t// in\n    tag_201:\n        /* \"#utility.yul\":7113:7227   */\n      swap4\n      pop\n        /* \"#utility.yul\":7253:7256   */\n      dup4\n        /* \"#utility.yul\":7298:7302   */\n      0x20\n        /* \"#utility.yul\":7290:7296   */\n      dup3\n        /* \"#utility.yul\":7286:7303   */\n      mul\n        /* \"#utility.yul\":7281:7284   */\n      dup6\n        /* \"#utility.yul\":7277:7304   */\n      add\n        /* \"#utility.yul\":7328:7405   */\n      tag_202\n        /* \"#utility.yul\":7399:7404   */\n      dup6\n        /* \"#utility.yul\":7328:7405   */\n      tag_95\n      jump\t// in\n    tag_202:\n        /* \"#utility.yul\":7428:7435   */\n      dup1\n        /* \"#utility.yul\":7459:7460   */\n      0x00\n        /* \"#utility.yul\":7444:7873   */\n    tag_203:\n        /* \"#utility.yul\":7469:7475   */\n      dup6\n        /* \"#utility.yul\":7466:7467   */\n      dup2\n        /* \"#utility.yul\":7463:7476   */\n      lt\n        /* \"#utility.yul\":7444:7873   */\n      iszero\n      tag_205\n      jumpi\n        /* \"#utility.yul\":7540:7549   */\n      dup5\n        /* \"#utility.yul\":7534:7538   */\n      dup5\n        /* \"#utility.yul\":7530:7550   */\n      sub\n        /* \"#utility.yul\":7525:7528   */\n      dup10\n        /* \"#utility.yul\":7518:7551   */\n      mstore\n        /* \"#utility.yul\":7591:7597   */\n      dup2\n        /* \"#utility.yul\":7585:7598   */\n      mload\n        /* \"#utility.yul\":7619:7725   */\n      tag_206\n        /* \"#utility.yul\":7720:7724   */\n      dup6\n        /* \"#utility.yul\":7705:7718   */\n      dup3\n        /* \"#utility.yul\":7619:7725   */\n      tag_101\n      jump\t// in\n    tag_206:\n        /* \"#utility.yul\":7611:7725   */\n      swap5\n      pop\n        /* \"#utility.yul\":7748:7829   */\n      tag_207\n        /* \"#utility.yul\":7822:7828   */\n      dup4\n        /* \"#utility.yul\":7748:7829   */\n      tag_102\n      jump\t// in\n    tag_207:\n        /* \"#utility.yul\":7738:7829   */\n      swap3\n      pop\n        /* \"#utility.yul\":7858:7862   */\n      0x20\n        /* \"#utility.yul\":7853:7856   */\n      dup11\n        /* \"#utility.yul\":7849:7863   */\n      add\n        /* \"#utility.yul\":7842:7863   */\n      swap10\n      pop\n        /* \"#utility.yul\":7504:7873   */\n      pop\n        /* \"#utility.yul\":7491:7492   */\n      0x01\n        /* \"#utility.yul\":7488:7489   */\n      dup2\n        /* \"#utility.yul\":7484:7493   */\n      add\n        /* \"#utility.yul\":7479:7493   */\n      swap1\n      pop\n        /* \"#utility.yul\":7444:7873   */\n      jump(tag_203)\n    tag_205:\n        /* \"#utility.yul\":7448:7462   */\n      pop\n        /* \"#utility.yul\":7889:7893   */\n      dup3\n        /* \"#utility.yul\":7882:7893   */\n      swap8\n      pop\n        /* \"#utility.yul\":7909:7912   */\n      dup8\n        /* \"#utility.yul\":7902:7912   */\n      swap6\n      pop\n        /* \"#utility.yul\":7005:7918   */\n      pop\n      pop\n      pop\n      pop\n      pop\n        /* \"#utility.yul\":6839:7918   */\n      swap3\n      swap2\n      pop\n      pop\n      jump\t// out\n        /* \"#utility.yul\":7924:8381   */\n    tag_19:\n        /* \"#utility.yul\":8109:8113   */\n      0x00\n        /* \"#utility.yul\":8147:8149   */\n      0x20\n        /* \"#utility.yul\":8136:8145   */\n      dup3\n        /* \"#utility.yul\":8132:8150   */\n      add\n        /* \"#utility.yul\":8124:8150   */\n      swap1\n      pop\n        /* \"#utility.yul\":8196:8205   */\n      dup2\n        /* \"#utility.yul\":8190:8194   */\n      dup2\n        /* \"#utility.yul\":8186:8206   */\n      sub\n        /* \"#utility.yul\":8182:8183   */\n      0x00\n        /* \"#utility.yul\":8171:8180   */\n      dup4\n        /* \"#utility.yul\":8167:8184   */\n      add\n        /* \"#utility.yul\":8160:8207   */\n      mstore\n        /* \"#utility.yul\":8224:8374   */\n      tag_209\n        /* \"#utility.yul\":8369:8373   */\n      dup2\n        /* \"#utility.yul\":8360:8366   */\n      dup5\n        /* \"#utility.yul\":8224:8374   */\n      tag_103\n      jump\t// in\n    tag_209:\n        /* \"#utility.yul\":8216:8374   */\n      swap1\n      pop\n        /* \"#utility.yul\":7924:8381   */\n      swap3\n      swap2\n      pop\n      pop\n      jump\t// out\n        /* \"#utility.yul\":8387:8504   */\n    tag_104:\n        /* \"#utility.yul\":8496:8497   */\n      0x00\n        /* \"#utility.yul\":8493:8494   */\n      0x00\n        /* \"#utility.yul\":8486:8498   */\n      revert\n        /* \"#utility.yul\":8510:8627   */\n    tag_105:\n        /* \"#utility.yul\":8619:8620   */\n      0x00\n        /* \"#utility.yul\":8616:8617   */\n      0x00\n        /* \"#utility.yul\":8609:8621   */\n      revert\n        /* \"#utility.yul\":8633:8813   */\n    tag_106:\n        /* \"#utility.yul\":8681:8758   */\n      0x4e487b7100000000000000000000000000000000000000000000000000000000\n        /* \"#utility.yul\":8678:8679   */\n      0x00\n        /* \"#utility.yul\":8671:8759   */\n      mstore\n        /* \"#utility.yul\":8778:8782   */\n      0x41\n        /* \"#utility.yul\":8775:8776   */\n      0x04\n        /* \"#utility.yul\":8768:8783   */\n      mstore\n        /* \"#utility.yul\":8802:8806   */\n      0x24\n        /* \"#utility.yul\":8799:8800   */\n      0x00\n        /* \"#utility.yul\":8792:8807   */\n      revert\n        /* \"#utility.yul\":8819:9100   */\n    tag_107:\n        /* \"#utility.yul\":8902:8929   */\n      tag_214\n        /* \"#utility.yul\":8924:8928   */\n      dup3\n        /* \"#utility.yul\":8902:8929   */\n      tag_91\n      jump\t// in\n    tag_214:\n        /* \"#utility.yul\":8894:8900   */\n      dup2\n        /* \"#utility.yul\":8890:8930   */\n      add\n        /* \"#utility.yul\":9032:9038   */\n      dup2\n        /* \"#utility.yul\":9020:9030   */\n      dup2\n        /* \"#utility.yul\":9017:9039   */\n      lt\n        /* \"#utility.yul\":8996:9014   */\n      0xffffffffffffffff\n        /* \"#utility.yul\":8984:8994   */\n      dup3\n        /* \"#utility.yul\":8981:9015   */\n      gt\n        /* \"#utility.yul\":8978:9040   */\n      or\n        /* \"#utility.yul\":8975:9063   */\n      iszero\n      tag_215\n      jumpi\n        /* \"#utility.yul\":9043:9061   */\n      tag_216\n      tag_106\n      jump\t// in\n    tag_216:\n        /* \"#utility.yul\":8975:9063   */\n    tag_215:\n        /* \"#utility.yul\":9083:9093   */\n      dup1\n        /* \"#utility.yul\":9079:9081   */\n      0x40\n        /* \"#utility.yul\":9072:9094   */\n      mstore\n        /* \"#utility.yul\":8862:9100   */\n      pop\n        /* \"#utility.yul\":8819:9100   */\n      pop\n      pop\n      jump\t// out\n        /* \"#utility.yul\":9106:9235   */\n    tag_108:\n        /* \"#utility.yul\":9140:9146   */\n      0x00\n        /* \"#utility.yul\":9167:9187   */\n      tag_218\n      tag_76\n      jump\t// in\n    tag_218:\n        /* \"#utility.yul\":9157:9187   */\n      swap1\n      pop\n        /* \"#utility.yul\":9196:9229   */\n      tag_219\n        /* \"#utility.yul\":9224:9228   */\n      dup3\n        /* \"#utility.yul\":9216:9222   */\n      dup3\n        /* \"#utility.yul\":9196:9229   */\n      tag_107\n      jump\t// in\n    tag_219:\n        /* \"#utility.yul\":9106:9235   */\n      swap2\n      swap1\n      pop\n      jump\t// out\n        /* \"#utility.yul\":9241:9549   */\n    tag_109:\n        /* \"#utility.yul\":9303:9307   */\n      0x00\n        /* \"#utility.yul\":9393:9411   */\n      0xffffffffffffffff\n        /* \"#utility.yul\":9385:9391   */\n      dup3\n        /* \"#utility.yul\":9382:9412   */\n      gt\n        /* \"#utility.yul\":9379:9435   */\n      iszero\n      tag_221\n      jumpi\n        /* \"#utility.yul\":9415:9433   */\n      tag_222\n      tag_106\n      jump\t// in\n    tag_222:\n        /* \"#utility.yul\":9379:9435   */\n    tag_221:\n        /* \"#utility.yul\":9453:9482   */\n      tag_223\n        /* \"#utility.yul\":9475:9481   */\n      dup3\n        /* \"#utility.yul\":9453:9482   */\n      tag_91\n      jump\t// in\n    tag_223:\n        /* \"#utility.yul\":9445:9482   */\n      swap1\n      pop\n        /* \"#utility.yul\":9537:9541   */\n      0x20\n        /* \"#utility.yul\":9531:9535   */\n      dup2\n        /* \"#utility.yul\":9527:9542   */\n      add\n        /* \"#utility.yul\":9519:9542   */\n      swap1\n      pop\n        /* \"#utility.yul\":9241:9549   */\n      swap2\n      swap1\n      pop\n      jump\t// out\n        /* \"#utility.yul\":9555:9703   */\n    tag_110:\n        /* \"#utility.yul\":9653:9659   */\n      dup3\n        /* \"#utility.yul\":9648:9651   */\n      dup2\n        /* \"#utility.yul\":9643:9646   */\n      dup4\n        /* \"#utility.yul\":9630:9660   */\n      calldatacopy\n        /* \"#utility.yul\":9694:9695   */\n      0x00\n        /* \"#utility.yul\":9685:9691   */\n      dup4\n        /* \"#utility.yul\":9680:9683   */\n      dup4\n        /* \"#utility.yul\":9676:9692   */\n      add\n        /* \"#utility.yul\":9669:9696   */\n      mstore\n        /* \"#utility.yul\":9555:9703   */\n      pop\n      pop\n      pop\n      jump\t// out\n        /* \"#utility.yul\":9709:10134   */\n    tag_111:\n        /* \"#utility.yul\":9787:9792   */\n      0x00\n        /* \"#utility.yul\":9812:9878   */\n      tag_226\n        /* \"#utility.yul\":9828:9877   */\n      tag_227\n        /* \"#utility.yul\":9870:9876   */\n      dup5\n        /* \"#utility.yul\":9828:9877   */\n      tag_109\n      jump\t// in\n    tag_227:\n        /* \"#utility.yul\":9812:9878   */\n      tag_108\n      jump\t// in\n    tag_226:\n        /* \"#utility.yul\":9803:9878   */\n      swap1\n      pop\n        /* \"#utility.yul\":9901:9907   */\n      dup3\n        /* \"#utility.yul\":9894:9899   */\n      dup2\n        /* \"#utility.yul\":9887:9908   */\n      mstore\n        /* \"#utility.yul\":9939:9943   */\n      0x20\n        /* \"#utility.yul\":9932:9937   */\n      dup2\n        /* \"#utility.yul\":9928:9944   */\n      add\n        /* \"#utility.yul\":9977:9980   */\n      dup5\n        /* \"#utility.yul\":9968:9974   */\n      dup5\n        /* \"#utility.yul\":9963:9966   */\n      dup5\n        /* \"#utility.yul\":9959:9975   */\n      add\n        /* \"#utility.yul\":9956:9981   */\n      gt\n        /* \"#utility.yul\":9953:10065   */\n      iszero\n      tag_228\n      jumpi\n        /* \"#utility.yul\":9984:10063   */\n      tag_229\n      tag_105\n      jump\t// in\n    tag_229:\n        /* \"#utility.yul\":9953:10065   */\n    tag_228:\n        /* \"#utility.yul\":10074:10128   */\n      tag_230\n        /* \"#utility.yul\":10121:10127   */\n      dup5\n        /* \"#utility.yul\":10116:10119   */\n      dup3\n        /* \"#utility.yul\":10111:10114   */\n      dup6\n        /* \"#utility.yul\":10074:10128   */\n      tag_110\n      jump\t// in\n    tag_230:\n        /* \"#utility.yul\":9793:10134   */\n      pop\n        /* \"#utility.yul\":9709:10134   */\n      swap4\n      swap3\n      pop\n      pop\n      pop\n      jump\t// out\n        /* \"#utility.yul\":10154:10494   */\n    tag_112:\n        /* \"#utility.yul\":10210:10215   */\n      0x00\n        /* \"#utility.yul\":10259:10262   */\n      dup3\n        /* \"#utility.yul\":10252:10256   */\n      0x1f\n        /* \"#utility.yul\":10244:10250   */\n      dup4\n        /* \"#utility.yul\":10240:10257   */\n      add\n        /* \"#utility.yul\":10236:10263   */\n      slt\n        /* \"#utility.yul\":10226:10348   */\n      tag_232\n      jumpi\n        /* \"#utility.yul\":10267:10346   */\n      tag_233\n      tag_104\n      jump\t// in\n    tag_233:\n        /* \"#utility.yul\":10226:10348   */\n    tag_232:\n        /* \"#utility.yul\":10384:10390   */\n      dup2\n        /* \"#utility.yul\":10371:10391   */\n      calldataload\n        /* \"#utility.yul\":10409:10488   */\n      tag_234\n        /* \"#utility.yul\":10484:10487   */\n      dup5\n        /* \"#utility.yul\":10476:10482   */\n      dup3\n        /* \"#utility.yul\":10469:10473   */\n      0x20\n        /* \"#utility.yul\":10461:10467   */\n      dup7\n        /* \"#utility.yul\":10457:10474   */\n      add\n        /* \"#utility.yul\":10409:10488   */\n      tag_111\n      jump\t// in\n    tag_234:\n        /* \"#utility.yul\":10400:10488   */\n      swap2\n      pop\n        /* \"#utility.yul\":10216:10494   */\n      pop\n        /* \"#utility.yul\":10154:10494   */\n      swap3\n      swap2\n      pop\n      pop\n      jump\t// out\n        /* \"#utility.yul\":10500:11009   */\n    tag_25:\n        /* \"#utility.yul\":10569:10575   */\n      0x00\n        /* \"#utility.yul\":10618:10620   */\n      0x20\n        /* \"#utility.yul\":10606:10615   */\n      dup3\n        /* \"#utility.yul\":10597:10604   */\n      dup5\n        /* \"#utility.yul\":10593:10616   */\n      sub\n        /* \"#utility.yul\":10589:10621   */\n      slt\n        /* \"#utility.yul\":10586:10705   */\n      iszero\n      tag_236\n      jumpi\n        /* \"#utility.yul\":10624:10703   */\n      tag_237\n      tag_77\n      jump\t// in\n    tag_237:\n        /* \"#utility.yul\":10586:10705   */\n    tag_236:\n        /* \"#utility.yul\":10772:10773   */\n      0x00\n        /* \"#utility.yul\":10761:10770   */\n      dup3\n        /* \"#utility.yul\":10757:10774   */\n      add\n        /* \"#utility.yul\":10744:10775   */\n      calldataload\n        /* \"#utility.yul\":10802:10820   */\n      0xffffffffffffffff\n        /* \"#utility.yul\":10794:10800   */\n      dup2\n        /* \"#utility.yul\":10791:10821   */\n      gt\n        /* \"#utility.yul\":10788:10905   */\n      iszero\n      tag_238\n      jumpi\n        /* \"#utility.yul\":10824:10903   */\n      tag_239\n      tag_78\n      jump\t// in\n    tag_239:\n        /* \"#utility.yul\":10788:10905   */\n    tag_238:\n        /* \"#utility.yul\":10929:10992   */\n      tag_240\n        /* \"#utility.yul\":10984:10991   */\n      dup5\n        /* \"#utility.yul\":10975:10981   */\n      dup3\n        /* \"#utility.yul\":10964:10973   */\n      dup6\n        /* \"#utility.yul\":10960:10982   */\n      add\n        /* \"#utility.yul\":10929:10992   */\n      tag_112\n      jump\t// in\n    tag_240:\n        /* \"#utility.yul\":10919:10992   */\n      swap2\n      pop\n        /* \"#utility.yul\":10715:11002   */\n      pop\n        /* \"#utility.yul\":10500:11009   */\n      swap3\n      swap2\n      pop\n      pop\n      jump\t// out\n        /* \"#utility.yul\":11015:11344   */\n    tag_29:\n        /* \"#utility.yul\":11074:11080   */\n      0x00\n        /* \"#utility.yul\":11123:11125   */\n      0x20\n        /* \"#utility.yul\":11111:11120   */\n      dup3\n        /* \"#utility.yul\":11102:11109   */\n      dup5\n        /* \"#utility.yul\":11098:11121   */\n      sub\n        /* \"#utility.yul\":11094:11126   */\n      slt\n        /* \"#utility.yul\":11091:11210   */\n      iszero\n      tag_242\n      jumpi\n        /* \"#utility.yul\":11129:11208   */\n      tag_243\n      tag_77\n      jump\t// in\n    tag_243:\n        /* \"#utility.yul\":11091:11210   */\n    tag_242:\n        /* \"#utility.yul\":11249:11250   */\n      0x00\n        /* \"#utility.yul\":11274:11327   */\n      tag_244\n        /* \"#utility.yul\":11319:11326   */\n      dup5\n        /* \"#utility.yul\":11310:11316   */\n      dup3\n        /* \"#utility.yul\":11299:11308   */\n      dup6\n        /* \"#utility.yul\":11295:11317   */\n      add\n        /* \"#utility.yul\":11274:11327   */\n      tag_85\n      jump\t// in\n    tag_244:\n        /* \"#utility.yul\":11264:11327   */\n      swap2\n      pop\n        /* \"#utility.yul\":11220:11337   */\n      pop\n        /* \"#utility.yul\":11015:11344   */\n      swap3\n      swap2\n      pop\n      pop\n      jump\t// out\n        /* \"#utility.yul\":11350:11530   */\n    tag_113:\n        /* \"#utility.yul\":11398:11475   */\n      0x4e487b7100000000000000000000000000000000000000000000000000000000\n        /* \"#utility.yul\":11395:11396   */\n      0x00\n        /* \"#utility.yul\":11388:11476   */\n      mstore\n        /* \"#utility.yul\":11495:11499   */\n      0x22\n        /* \"#utility.yul\":11492:11493   */\n      0x04\n        /* \"#utility.yul\":11485:11500   */\n      mstore\n        /* \"#utility.yul\":11519:11523   */\n      0x24\n        /* \"#utility.yul\":11516:11517   */\n      0x00\n        /* \"#utility.yul\":11509:11524   */\n      revert\n        /* \"#utility.yul\":11536:11856   */\n    tag_35:\n        /* \"#utility.yul\":11580:11586   */\n      0x00\n        /* \"#utility.yul\":11617:11618   */\n      0x02\n        /* \"#utility.yul\":11611:11615   */\n      dup3\n        /* \"#utility.yul\":11607:11619   */\n      div\n        /* \"#utility.yul\":11597:11619   */\n      swap1\n      pop\n        /* \"#utility.yul\":11664:11665   */\n      0x01\n        /* \"#utility.yul\":11658:11662   */\n      dup3\n        /* \"#utility.yul\":11654:11666   */\n      and\n        /* \"#utility.yul\":11685:11703   */\n      dup1\n        /* \"#utility.yul\":11675:11756   */\n      tag_247\n      jumpi\n        /* \"#utility.yul\":11741:11745   */\n      0x7f\n        /* \"#utility.yul\":11733:11739   */\n      dup3\n        /* \"#utility.yul\":11729:11746   */\n      and\n        /* \"#utility.yul\":11719:11746   */\n      swap2\n      pop\n        /* \"#utility.yul\":11675:11756   */\n    tag_247:\n        /* \"#utility.yul\":11803:11805   */\n      0x20\n        /* \"#utility.yul\":11795:11801   */\n      dup3\n        /* \"#utility.yul\":11792:11806   */\n      lt\n        /* \"#utility.yul\":11772:11790   */\n      dup2\n        /* \"#utility.yul\":11769:11807   */\n      sub\n        /* \"#utility.yul\":11766:11850   */\n      tag_248\n      jumpi\n        /* \"#utility.yul\":11822:11840   */\n      tag_249\n      tag_113\n      jump\t// in\n    tag_249:\n        /* \"#utility.yul\":11766:11850   */\n    tag_248:\n        /* \"#utility.yul\":11587:11856   */\n      pop\n        /* \"#utility.yul\":11536:11856   */\n      swap2\n      swap1\n      pop\n      jump\t// out\n        /* \"#utility.yul\":11862:12034   */\n    tag_114:\n        /* \"#utility.yul\":12002:12026   */\n      0x547765657420697320746f6f206c6f6e672062726f2100000000000000000000\n        /* \"#utility.yul\":11998:11999   */\n      0x00\n        /* \"#utility.yul\":11990:11996   */\n      dup3\n        /* \"#utility.yul\":11986:12000   */\n      add\n        /* \"#utility.yul\":11979:12027   */\n      mstore\n        /* \"#utility.yul\":11862:12034   */\n      pop\n      jump\t// out\n        /* \"#utility.yul\":12040:12406   */\n    tag_115:\n        /* \"#utility.yul\":12182:12185   */\n      0x00\n        /* \"#utility.yul\":12203:12270   */\n      tag_252\n        /* \"#utility.yul\":12267:12269   */\n      0x16\n        /* \"#utility.yul\":12262:12265   */\n      dup4\n        /* \"#utility.yul\":12203:12270   */\n      tag_89\n      jump\t// in\n    tag_252:\n        /* \"#utility.yul\":12196:12270   */\n      swap2\n      pop\n        /* \"#utility.yul\":12279:12372   */\n      tag_253\n        /* \"#utility.yul\":12368:12371   */\n      dup3\n        /* \"#utility.yul\":12279:12372   */\n      tag_114\n      jump\t// in\n    tag_253:\n        /* \"#utility.yul\":12397:12399   */\n      0x20\n        /* \"#utility.yul\":12392:12395   */\n      dup3\n        /* \"#utility.yul\":12388:12400   */\n      add\n        /* \"#utility.yul\":12381:12400   */\n      swap1\n      pop\n        /* \"#utility.yul\":12040:12406   */\n      swap2\n      swap1\n      pop\n      jump\t// out\n        /* \"#utility.yul\":12412:12831   */\n    tag_61:\n        /* \"#utility.yul\":12578:12582   */\n      0x00\n        /* \"#utility.yul\":12616:12618   */\n      0x20\n        /* \"#utility.yul\":12605:12614   */\n      dup3\n        /* \"#utility.yul\":12601:12619   */\n      add\n        /* \"#utility.yul\":12593:12619   */\n      swap1\n      pop\n        /* \"#utility.yul\":12665:12674   */\n      dup2\n        /* \"#utility.yul\":12659:12663   */\n      dup2\n        /* \"#utility.yul\":12655:12675   */\n      sub\n        /* \"#utility.yul\":12651:12652   */\n      0x00\n        /* \"#utility.yul\":12640:12649   */\n      dup4\n        /* \"#utility.yul\":12636:12653   */\n      add\n        /* \"#utility.yul\":12629:12676   */\n      mstore\n        /* \"#utility.yul\":12693:12824   */\n      tag_255\n        /* \"#utility.yul\":12819:12823   */\n      dup2\n        /* \"#utility.yul\":12693:12824   */\n      tag_115\n      jump\t// in\n    tag_255:\n        /* \"#utility.yul\":12685:12824   */\n      swap1\n      pop\n        /* \"#utility.yul\":12412:12831   */\n      swap2\n      swap1\n      pop\n      jump\t// out\n        /* \"#utility.yul\":12837:12978   */\n    tag_116:\n        /* \"#utility.yul\":12886:12890   */\n      0x00\n        /* \"#utility.yul\":12909:12912   */\n      dup2\n        /* \"#utility.yul\":12901:12912   */\n      swap1\n      pop\n        /* \"#utility.yul\":12932:12935   */\n      dup2\n        /* \"#utility.yul\":12929:12930   */\n      0x00\n        /* \"#utility.yul\":12922:12936   */\n      mstore\n        /* \"#utility.yul\":12966:12970   */\n      0x20\n        /* \"#utility.yul\":12963:12964   */\n      0x00\n        /* \"#utility.yul\":12953:12971   */\n      keccak256\n        /* \"#utility.yul\":12945:12971   */\n      swap1\n      pop\n        /* \"#utility.yul\":12837:12978   */\n      swap2\n      swap1\n      pop\n      jump\t// out\n        /* \"#utility.yul\":12984:13077   */\n    tag_117:\n        /* \"#utility.yul\":13021:13027   */\n      0x00\n        /* \"#utility.yul\":13068:13070   */\n      0x20\n        /* \"#utility.yul\":13063:13065   */\n      0x1f\n        /* \"#utility.yul\":13056:13061   */\n      dup4\n        /* \"#utility.yul\":13052:13066   */\n      add\n        /* \"#utility.yul\":13048:13071   */\n      div\n        /* \"#utility.yul\":13038:13071   */\n      swap1\n      pop\n        /* \"#utility.yul\":12984:13077   */\n      swap2\n      swap1\n      pop\n      jump\t// out\n        /* \"#utility.yul\":13083:13190   */\n    tag_118:\n        /* \"#utility.yul\":13127:13135   */\n      0x00\n        /* \"#utility.yul\":13177:13182   */\n      dup3\n        /* \"#utility.yul\":13171:13175   */\n      dup3\n        /* \"#utility.yul\":13167:13183   */\n      shl\n        /* \"#utility.yul\":13146:13183   */\n      swap1\n      pop\n        /* \"#utility.yul\":13083:13190   */\n      swap3\n      swap2\n      pop\n      pop\n      jump\t// out\n        /* \"#utility.yul\":13196:13589   */\n    tag_119:\n        /* \"#utility.yul\":13265:13271   */\n      0x00\n        /* \"#utility.yul\":13315:13316   */\n      0x08\n        /* \"#utility.yul\":13303:13313   */\n      dup4\n        /* \"#utility.yul\":13299:13317   */\n      mul\n        /* \"#utility.yul\":13338:13435   */\n      tag_260\n        /* \"#utility.yul\":13368:13434   */\n      0xffffffffffffffffffffffffffffffffffffffffffffffffffffffffffffffff\n        /* \"#utility.yul\":13357:13366   */\n      dup3\n        /* \"#utility.yul\":13338:13435   */\n      tag_118\n      jump\t// in\n    tag_260:\n        /* \"#utility.yul\":13456:13495   */\n      tag_261\n        /* \"#utility.yul\":13486:13494   */\n      dup7\n        /* \"#utility.yul\":13475:13484   */\n      dup4\n        /* \"#utility.yul\":13456:13495   */\n      tag_118\n      jump\t// in\n    tag_261:\n        /* \"#utility.yul\":13444:13495   */\n      swap6\n      pop\n        /* \"#utility.yul\":13528:13532   */\n      dup1\n        /* \"#utility.yul\":13524:13533   */\n      not\n        /* \"#utility.yul\":13517:13522   */\n      dup5\n        /* \"#utility.yul\":13513:13534   */\n      and\n        /* \"#utility.yul\":13504:13534   */\n      swap4\n      pop\n        /* \"#utility.yul\":13577:13581   */\n      dup1\n        /* \"#utility.yul\":13567:13575   */\n      dup7\n        /* \"#utility.yul\":13563:13582   */\n      and\n        /* \"#utility.yul\":13556:13561   */\n      dup5\n        /* \"#utility.yul\":13553:13583   */\n      or\n        /* \"#utility.yul\":13543:13583   */\n      swap3\n      pop\n        /* \"#utility.yul\":13272:13589   */\n      pop\n      pop\n        /* \"#utility.yul\":13196:13589   */\n      swap4\n      swap3\n      pop\n      pop\n      pop\n      jump\t// out\n        /* \"#utility.yul\":13595:13655   */\n    tag_120:\n        /* \"#utility.yul\":13623:13626   */\n      0x00\n        /* \"#utility.yul\":13644:13649   */\n      dup2\n        /* \"#utility.yul\":13637:13649   */\n      swap1\n      pop\n        /* \"#utility.yul\":13595:13655   */\n      swap2\n      swap1\n      pop\n      jump\t// out\n        /* \"#utility.yul\":13661:13803   */\n    tag_121:\n        /* \"#utility.yul\":13711:13720   */\n      0x00\n        /* \"#utility.yul\":13744:13797   */\n      tag_264\n        /* \"#utility.yul\":13762:13796   */\n      tag_265\n        /* \"#utility.yul\":13771:13795   */\n      tag_266\n        /* \"#utility.yul\":13789:13794   */\n      dup5\n        /* \"#utility.yul\":13771:13795   */\n      tag_83\n      jump\t// in\n    tag_266:\n        /* \"#utility.yul\":13762:13796   */\n      tag_120\n      jump\t// in\n    tag_265:\n        /* \"#utility.yul\":13744:13797   */\n      tag_83\n      jump\t// in\n    tag_264:\n        /* \"#utility.yul\":13731:13797   */\n      swap1\n      pop\n        /* \"#utility.yul\":13661:13803   */\n      swap2\n      swap1\n      pop\n      jump\t// out\n        /* \"#utility.yul\":13809:13884   */\n    tag_122:\n        /* \"#utility.yul\":13852:13855   */\n      0x00\n        /* \"#utility.yul\":13873:13878   */\n      dup2\n        /* \"#utility.yul\":13866:13878   */\n      swap1\n      pop\n        /* \"#utility.yul\":13809:13884   */\n      swap2\n      swap1\n      pop\n      jump\t// out\n        /* \"#utility.yul\":13890:14159   */\n    tag_123:\n        /* \"#utility.yul\":14000:14039   */\n      tag_269\n        /* \"#utility.yul\":14031:14038   */\n      dup4\n        /* \"#utility.yul\":14000:14039   */\n      tag_121\n      jump\t// in\n    tag_269:\n        /* \"#utility.yul\":14061:14152   */\n      tag_270\n        /* \"#utility.yul\":14110:14151   */\n      tag_271\n        /* \"#utility.yul\":14134:14150   */\n      dup3\n        /* \"#utility.yul\":14110:14151   */\n      tag_122\n      jump\t// in\n    tag_271:\n        /* \"#utility.yul\":14102:14108   */\n      dup5\n        /* \"#utility.yul\":14095:14099   */\n      dup5\n        /* \"#utility.yul\":14089:14100   */\n      sload\n        /* \"#utility.yul\":14061:14152   */\n      tag_119\n      jump\t// in\n    tag_270:\n        /* \"#utility.yul\":14055:14059   */\n      dup3\n        /* \"#utility.yul\":14048:14153   */\n      sstore\n        /* \"#utility.yul\":13966:14159   */\n      pop\n        /* \"#utility.yul\":13890:14159   */\n      pop\n      pop\n      pop\n      jump\t// out\n        /* \"#utility.yul\":14165:14238   */\n    tag_124:\n        /* \"#utility.yul\":14210:14213   */\n      0x00\n        /* \"#utility.yul\":14231:14232   */\n      0x00\n        /* \"#utility.yul\":14224:14232   */\n      swap1\n      pop\n        /* \"#utility.yul\":14165:14238   */\n      swap1\n      jump\t// out\n        /* \"#utility.yul\":14244:14433   */\n    tag_125:\n        /* \"#utility.yul\":14321:14353   */\n      tag_274\n      tag_124\n      jump\t// in\n    tag_274:\n        /* \"#utility.yul\":14362:14427   */\n      tag_275\n        /* \"#utility.yul\":14420:14426   */\n      dup2\n        /* \"#utility.yul\":14412:14418   */\n      dup5\n        /* \"#utility.yul\":14406:14410   */\n      dup5\n        /* \"#utility.yul\":14362:14427   */\n      tag_123\n      jump\t// in\n    tag_275:\n        /* \"#utility.yul\":14297:14433   */\n      pop\n        /* \"#utility.yul\":14244:14433   */\n      pop\n      pop\n      jump\t// out\n        /* \"#utility.yul\":14439:14625   */\n    tag_126:\n        /* \"#utility.yul\":14499:14619   */\n    tag_277:\n        /* \"#utility.yul\":14516:14519   */\n      dup2\n        /* \"#utility.yul\":14509:14514   */\n      dup2\n        /* \"#utility.yul\":14506:14520   */\n      lt\n        /* \"#utility.yul\":14499:14619   */\n      iszero\n      tag_279\n      jumpi\n        /* \"#utility.yul\":14570:14609   */\n      tag_280\n        /* \"#utility.yul\":14607:14608   */\n      0x00\n        /* \"#utility.yul\":14600:14605   */\n      dup3\n        /* \"#utility.yul\":14570:14609   */\n      tag_125\n      jump\t// in\n    tag_280:\n        /* \"#utility.yul\":14543:14544   */\n      0x01\n        /* \"#utility.yul\":14536:14541   */\n      dup2\n        /* \"#utility.yul\":14532:14545   */\n      add\n        /* \"#utility.yul\":14523:14545   */\n      swap1\n      pop\n        /* \"#utility.yul\":14499:14619   */\n      jump(tag_277)\n    tag_279:\n        /* \"#utility.yul\":14439:14625   */\n      pop\n      pop\n      jump\t// out\n        /* \"#utility.yul\":14631:15174   */\n    tag_127:\n        /* \"#utility.yul\":14732:14734   */\n      0x1f\n        /* \"#utility.yul\":14727:14730   */\n      dup3\n        /* \"#utility.yul\":14724:14735   */\n      gt\n        /* \"#utility.yul\":14721:15167   */\n      iszero\n      tag_282\n      jumpi\n        /* \"#utility.yul\":14766:14804   */\n      tag_283\n        /* \"#utility.yul\":14798:14803   */\n      dup2\n        /* \"#utility.yul\":14766:14804   */\n      tag_116\n      jump\t// in\n    tag_283:\n        /* \"#utility.yul\":14850:14879   */\n      tag_284\n        /* \"#utility.yul\":14868:14878   */\n      dup5\n        /* \"#utility.yul\":14850:14879   */\n      tag_117\n      jump\t// in\n    tag_284:\n        /* \"#utility.yul\":14840:14848   */\n      dup2\n        /* \"#utility.yul\":14836:14880   */\n      add\n        /* \"#utility.yul\":15033:15035   */\n      0x20\n        /* \"#utility.yul\":15021:15031   */\n      dup6\n        /* \"#utility.yul\":15018:15036   */\n      lt\n        /* \"#utility.yul\":15015:15064   */\n      iszero\n      tag_285\n      jumpi\n        /* \"#utility.yul\":15054:15062   */\n      dup2\n        /* \"#utility.yul\":15039:15062   */\n      swap1\n      pop\n        /* \"#utility.yul\":15015:15064   */\n    tag_285:\n        /* \"#utility.yul\":15077:15157   */\n      tag_286\n        /* \"#utility.yul\":15133:15155   */\n      tag_287\n        /* \"#utility.yul\":15151:15154   */\n      dup6\n        /* \"#utility.yul\":15133:15155   */\n      tag_117\n      jump\t// in\n    tag_287:\n        /* \"#utility.yul\":15123:15131   */\n      dup4\n        /* \"#utility.yul\":15119:15156   */\n      add\n        /* \"#utility.yul\":15106:15117   */\n      dup3\n        /* \"#utility.yul\":15077:15157   */\n      tag_126\n      jump\t// in\n    tag_286:\n        /* \"#utility.yul\":14736:15167   */\n      pop\n      pop\n        /* \"#utility.yul\":14721:15167   */\n    tag_282:\n        /* \"#utility.yul\":14631:15174   */\n      pop\n      pop\n      pop\n      jump\t// out\n        /* \"#utility.yul\":15180:15297   */\n    tag_128:\n        /* \"#utility.yul\":15234:15242   */\n      0x00\n        /* \"#utility.yul\":15284:15289   */\n      dup3\n        /* \"#utility.yul\":15278:15282   */\n      dup3\n        /* \"#utility.yul\":15274:15290   */\n      shr\n        /* \"#utility.yul\":15253:15290   */\n      swap1\n      pop\n        /* \"#utility.yul\":15180:15297   */\n      swap3\n      swap2\n      pop\n      pop\n      jump\t// out\n        /* \"#utility.yul\":15303:15472   */\n    tag_129:\n        /* \"#utility.yul\":15347:15353   */\n      0x00\n        /* \"#utility.yul\":15380:15431   */\n      tag_290\n        /* \"#utility.yul\":15428:15429   */\n      0x00\n        /* \"#utility.yul\":15424:15430   */\n      not\n        /* \"#utility.yul\":15416:15421   */\n      dup5\n        /* \"#utility.yul\":15413:15414   */\n      0x08\n        /* \"#utility.yul\":15409:15422   */\n      mul\n        /* \"#utility.yul\":15380:15431   */\n      tag_128\n      jump\t// in\n    tag_290:\n        /* \"#utility.yul\":15376:15432   */\n      not\n        /* \"#utility.yul\":15461:15465   */\n      dup1\n        /* \"#utility.yul\":15455:15459   */\n      dup4\n        /* \"#utility.yul\":15451:15466   */\n      and\n        /* \"#utility.yul\":15441:15466   */\n      swap2\n      pop\n        /* \"#utility.yul\":15354:15472   */\n      pop\n        /* \"#utility.yul\":15303:15472   */\n      swap3\n      swap2\n      pop\n      pop\n      jump\t// out\n        /* \"#utility.yul\":15477:15772   */\n    tag_130:\n        /* \"#utility.yul\":15553:15557   */\n      0x00\n        /* \"#utility.yul\":15699:15728   */\n      tag_292\n        /* \"#utility.yul\":15724:15727   */\n      dup4\n        /* \"#utility.yul\":15718:15722   */\n      dup4\n        /* \"#utility.yul\":15699:15728   */\n      tag_129\n      jump\t// in\n    tag_292:\n        /* \"#utility.yul\":15691:15728   */\n      swap2\n      pop\n        /* \"#utility.yul\":15761:15764   */\n      dup3\n        /* \"#utility.yul\":15758:15759   */\n      0x02\n        /* \"#utility.yul\":15754:15765   */\n      mul\n        /* \"#utility.yul\":15748:15752   */\n      dup3\n        /* \"#utility.yul\":15745:15766   */\n      or\n        /* \"#utility.yul\":15737:15766   */\n      swap1\n      pop\n        /* \"#utility.yul\":15477:15772   */\n      swap3\n      swap2\n      pop\n      pop\n      jump\t// out\n        /* \"#utility.yul\":15777:17172   */\n    tag_64:\n        /* \"#utility.yul\":15894:15931   */\n      tag_294\n        /* \"#utility.yul\":15927:15930   */\n      dup3\n        /* \"#utility.yul\":15894:15931   */\n      tag_88\n      jump\t// in\n    tag_294:\n        /* \"#utility.yul\":15996:16014   */\n      0xffffffffffffffff\n        /* \"#utility.yul\":15988:15994   */\n      dup2\n        /* \"#utility.yul\":15985:16015   */\n      gt\n        /* \"#utility.yul\":15982:16038   */\n      iszero\n      tag_295\n      jumpi\n        /* \"#utility.yul\":16018:16036   */\n      tag_296\n      tag_106\n      jump\t// in\n    tag_296:\n        /* \"#utility.yul\":15982:16038   */\n    tag_295:\n        /* \"#utility.yul\":16062:16100   */\n      tag_297\n        /* \"#utility.yul\":16094:16098   */\n      dup3\n        /* \"#utility.yul\":16088:16099   */\n      sload\n        /* \"#utility.yul\":16062:16100   */\n      tag_35\n      jump\t// in\n    tag_297:\n        /* \"#utility.yul\":16147:16214   */\n      tag_298\n        /* \"#utility.yul\":16207:16213   */\n      dup3\n        /* \"#utility.yul\":16199:16205   */\n      dup3\n        /* \"#utility.yul\":16193:16197   */\n      dup6\n        /* \"#utility.yul\":16147:16214   */\n      tag_127\n      jump\t// in\n    tag_298:\n        /* \"#utility.yul\":16241:16242   */\n      0x00\n        /* \"#utility.yul\":16265:16269   */\n      0x20\n        /* \"#utility.yul\":16252:16269   */\n      swap1\n      pop\n        /* \"#utility.yul\":16297:16299   */\n      0x1f\n        /* \"#utility.yul\":16289:16295   */\n      dup4\n        /* \"#utility.yul\":16286:16300   */\n      gt\n        /* \"#utility.yul\":16314:16315   */\n      0x01\n        /* \"#utility.yul\":16309:16927   */\n      dup2\n      eq\n      tag_300\n      jumpi\n        /* \"#utility.yul\":16971:16972   */\n      0x00\n        /* \"#utility.yul\":16988:16994   */\n      dup5\n        /* \"#utility.yul\":16985:17062   */\n      iszero\n      tag_301\n      jumpi\n        /* \"#utility.yul\":17037:17046   */\n      dup3\n        /* \"#utility.yul\":17032:17035   */\n      dup8\n        /* \"#utility.yul\":17028:17047   */\n      add\n        /* \"#utility.yul\":17022:17048   */\n      mload\n        /* \"#utility.yul\":17013:17048   */\n      swap1\n      pop\n        /* \"#utility.yul\":16985:17062   */\n    tag_301:\n        /* \"#utility.yul\":17088:17155   */\n      tag_302\n        /* \"#utility.yul\":17148:17154   */\n      dup6\n        /* \"#utility.yul\":17141:17146   */\n      dup3\n        /* \"#utility.yul\":17088:17155   */\n      tag_130\n      jump\t// in\n    tag_302:\n        /* \"#utility.yul\":17082:17086   */\n      dup7\n        /* \"#utility.yul\":17075:17156   */\n      sstore\n        /* \"#utility.yul\":16944:17166   */\n      pop\n        /* \"#utility.yul\":16279:17166   */\n      jump(tag_299)\n        /* \"#utility.yul\":16309:16927   */\n    tag_300:\n        /* \"#utility.yul\":16361:16365   */\n      0x1f\n        /* \"#utility.yul\":16357:16366   */\n      not\n        /* \"#utility.yul\":16349:16355   */\n      dup5\n        /* \"#utility.yul\":16345:16367   */\n      and\n        /* \"#utility.yul\":16395:16432   */\n      tag_303\n        /* \"#utility.yul\":16427:16431   */\n      dup7\n        /* \"#utility.yul\":16395:16432   */\n      tag_116\n      jump\t// in\n    tag_303:\n        /* \"#utility.yul\":16454:16455   */\n      0x00\n        /* \"#utility.yul\":16468:16676   */\n    tag_304:\n        /* \"#utility.yul\":16482:16489   */\n      dup3\n        /* \"#utility.yul\":16479:16480   */\n      dup2\n        /* \"#utility.yul\":16476:16490   */\n      lt\n        /* \"#utility.yul\":16468:16676   */\n      iszero\n      tag_306\n      jumpi\n        /* \"#utility.yul\":16561:16570   */\n      dup5\n        /* \"#utility.yul\":16556:16559   */\n      dup10\n        /* \"#utility.yul\":16552:16571   */\n      add\n        /* \"#utility.yul\":16546:16572   */\n      mload\n        /* \"#utility.yul\":16538:16544   */\n      dup3\n        /* \"#utility.yul\":16531:16573   */\n      sstore\n        /* \"#utility.yul\":16612:16613   */\n      0x01\n        /* \"#utility.yul\":16604:16610   */\n      dup3\n        /* \"#utility.yul\":16600:16614   */\n      add\n        /* \"#utility.yul\":16590:16614   */\n      swap2\n      pop\n        /* \"#utility.yul\":16659:16661   */\n      0x20\n        /* \"#utility.yul\":16648:16657   */\n      dup6\n        /* \"#utility.yul\":16644:16662   */\n      add\n        /* \"#utility.yul\":16631:16662   */\n      swap5\n      pop\n        /* \"#utility.yul\":16505:16509   */\n      0x20\n        /* \"#utility.yul\":16502:16503   */\n      dup2\n        /* \"#utility.yul\":16498:16510   */\n      add\n        /* \"#utility.yul\":16493:16510   */\n      swap1\n      pop\n        /* \"#utility.yul\":16468:16676   */\n      jump(tag_304)\n    tag_306:\n        /* \"#utility.yul\":16704:16710   */\n      dup7\n        /* \"#utility.yul\":16695:16702   */\n      dup4\n        /* \"#utility.yul\":16692:16711   */\n      lt\n        /* \"#utility.yul\":16689:16868   */\n      iszero\n      tag_307\n      jumpi\n        /* \"#utility.yul\":16762:16771   */\n      dup5\n        /* \"#utility.yul\":16757:16760   */\n      dup10\n        /* \"#utility.yul\":16753:16772   */\n      add\n        /* \"#utility.yul\":16747:16773   */\n      mload\n        /* \"#utility.yul\":16805:16853   */\n      tag_308\n        /* \"#utility.yul\":16847:16851   */\n      0x1f\n        /* \"#utility.yul\":16839:16845   */\n      dup10\n        /* \"#utility.yul\":16835:16852   */\n      and\n        /* \"#utility.yul\":16824:16833   */\n      dup3\n        /* \"#utility.yul\":16805:16853   */\n      tag_129\n      jump\t// in\n    tag_308:\n        /* \"#utility.yul\":16797:16803   */\n      dup4\n        /* \"#utility.yul\":16790:16854   */\n      sstore\n        /* \"#utility.yul\":16712:16868   */\n      pop\n        /* \"#utility.yul\":16689:16868   */\n    tag_307:\n        /* \"#utility.yul\":16914:16915   */\n      0x01\n        /* \"#utility.yul\":16910:16911   */\n      0x02\n        /* \"#utility.yul\":16902:16908   */\n      dup9\n        /* \"#utility.yul\":16898:16912   */\n      mul\n        /* \"#utility.yul\":16894:16916   */\n      add\n        /* \"#utility.yul\":16888:16892   */\n      dup9\n        /* \"#utility.yul\":16881:16917   */\n      sstore\n        /* \"#utility.yul\":16316:16927   */\n      pop\n      pop\n      pop\n        /* \"#utility.yul\":16279:17166   */\n    tag_299:\n      pop\n        /* \"#utility.yul\":15869:17172   */\n      pop\n      pop\n      pop\n        /* \"#utility.yul\":15777:17172   */\n      pop\n      pop\n      jump\t// out\n        /* \"#utility.yul\":17178:17822   */\n    tag_68:\n        /* \"#utility.yul\":17375:17379   */\n      0x00\n        /* \"#utility.yul\":17413:17416   */\n      0x80\n        /* \"#utility.yul\":17402:17411   */\n      dup3\n        /* \"#utility.yul\":17398:17417   */\n      add\n        /* \"#utility.yul\":17390:17417   */\n      swap1\n      pop\n        /* \"#utility.yul\":17427:17498   */\n      tag_310\n        /* \"#utility.yul\":17495:17496   */\n      0x00\n        /* \"#utility.yul\":17484:17493   */\n      dup4\n        /* \"#utility.yul\":17480:17497   */\n      add\n        /* \"#utility.yul\":17471:17477   */\n      dup8\n        /* \"#utility.yul\":17427:17498   */\n      tag_86\n      jump\t// in\n    tag_310:\n        /* \"#utility.yul\":17508:17580   */\n      tag_311\n        /* \"#utility.yul\":17576:17578   */\n      0x20\n        /* \"#utility.yul\":17565:17574   */\n      dup4\n        /* \"#utility.yul\":17561:17579   */\n      add\n        /* \"#utility.yul\":17552:17558   */\n      dup7\n        /* \"#utility.yul\":17508:17580   */\n      tag_87\n      jump\t// in\n    tag_311:\n        /* \"#utility.yul\":17627:17636   */\n      dup2\n        /* \"#utility.yul\":17621:17625   */\n      dup2\n        /* \"#utility.yul\":17617:17637   */\n      sub\n        /* \"#utility.yul\":17612:17614   */\n      0x40\n        /* \"#utility.yul\":17601:17610   */\n      dup4\n        /* \"#utility.yul\":17597:17615   */\n      add\n        /* \"#utility.yul\":17590:17638   */\n      mstore\n        /* \"#utility.yul\":17655:17733   */\n      tag_312\n        /* \"#utility.yul\":17728:17732   */\n      dup2\n        /* \"#utility.yul\":17719:17725   */\n      dup6\n        /* \"#utility.yul\":17655:17733   */\n      tag_92\n      jump\t// in\n    tag_312:\n        /* \"#utility.yul\":17647:17733   */\n      swap1\n      pop\n        /* \"#utility.yul\":17743:17815   */\n      tag_313\n        /* \"#utility.yul\":17811:17813   */\n      0x60\n        /* \"#utility.yul\":17800:17809   */\n      dup4\n        /* \"#utility.yul\":17796:17814   */\n      add\n        /* \"#utility.yul\":17787:17793   */\n      dup5\n        /* \"#utility.yul\":17743:17815   */\n      tag_86\n      jump\t// in\n    tag_313:\n        /* \"#utility.yul\":17178:17822   */\n      swap6\n      swap5\n      pop\n      pop\n      pop\n      pop\n      pop\n      jump\t// out\n\n    auxdata: 0xa26469706673582212202ffc2f599a09753be6f26f3913e0f020c48e0bcc1ab4eb11a644563900bdfed364736f6c634300081e0033\n}\n",
				"bytecode": {
					"linkReferences": {},
					"object": "6080604052348015600e575f5ffd5b506111468061001c5f395ff3fe608060405234801561000f575f5ffd5b5060043610610055575f3560e01c806305a1b4a9146100595780632f5899d71461008d57806353256135146100bd5780637c9cd2bc146100db578063e28350b7146100f7575b5f5ffd5b610073600480360381019061006e91906108f1565b61012b565b6040516100849594939291906109bd565b60405180910390f35b6100a760048036038101906100a29190610a15565b61021c565b6040516100b49190610bd4565b60405180910390f35b6100c56103b7565b6040516100d29190610bd4565b60405180910390f35b6100f560048036038101906100f09190610d20565b610514565b005b610111600480360381019061010c9190610d67565b61076e565b6040516101229594939291906109bd565b60405180910390f35b6001602052815f5260405f208181548110610144575f80fd5b905f5260205f2090600502015f9150915050805f015490806001015f9054906101000a900473ffffffffffffffffffffffffffffffffffffffff169080600201805461018f90610dbf565b80601f01602080910402602001604051908101604052809291908181526020018280546101bb90610dbf565b80156102065780601f106101dd57610100808354040283529160200191610206565b820191905f5260205f20905b8154815290600101906020018083116101e957829003601f168201915b5050505050908060030154908060040154905085565b606060015f8373ffffffffffffffffffffffffffffffffffffffff1673ffffffffffffffffffffffffffffffffffffffff1681526020019081526020015f20805480602002602001604051908101604052809291908181526020015f905b828210156103ac578382905f5260205f2090600502016040518060a00160405290815f8201548152602001600182015f9054906101000a900473ffffffffffffffffffffffffffffffffffffffff1673ffffffffffffffffffffffffffffffffffffffff1673ffffffffffffffffffffffffffffffffffffffff16815260200160028201805461030990610dbf565b80601f016020809104026020016040519081016040528092919081815260200182805461033590610dbf565b80156103805780601f1061035757610100808354040283529160200191610380565b820191905f5260205f20905b81548152906001019060200180831161036357829003601f168201915b50505050508152602001600382015481526020016004820154815250508152602001906001019061027a565b505050509050919050565b60605f805480602002602001604051908101604052809291908181526020015f905b8282101561050b578382905f5260205f2090600502016040518060a00160405290815f8201548152602001600182015f9054906101000a900473ffffffffffffffffffffffffffffffffffffffff1673ffffffffffffffffffffffffffffffffffffffff1673ffffffffffffffffffffffffffffffffffffffff16815260200160028201805461046890610dbf565b80601f016020809104026020016040519081016040528092919081815260200182805461049490610dbf565b80156104df5780601f106104b6576101008083540402835291602001916104df565b820191905f5260205f20905b8154815290600101906020018083116104c257829003601f168201915b5050505050815260200160038201548152602001600482015481525050815260200190600101906103d9565b50505050905090565b6101188151111561055a576040517f08c379a000000000000000000000000000000000000000000000000000000000815260040161055190610e39565b60405180910390fd5b5f6040518060a001604052805f8054905081526020013373ffffffffffffffffffffffffffffffffffffffff1681526020018381526020014281526020015f815250905060015f3373ffffffffffffffffffffffffffffffffffffffff1673ffffffffffffffffffffffffffffffffffffffff1681526020019081526020015f2081908060018154018082558091505060019003905f5260205f2090600502015f909190919091505f820151815f01556020820151816001015f6101000a81548173ffffffffffffffffffffffffffffffffffffffff021916908373ffffffffffffffffffffffffffffffffffffffff16021790555060408201518160020190816106659190610ff7565b50606082015181600301556080820151816004015550505f81908060018154018082558091505060019003905f5260205f2090600502015f909190919091505f820151815f01556020820151816001015f6101000a81548173ffffffffffffffffffffffffffffffffffffffff021916908373ffffffffffffffffffffffffffffffffffffffff16021790555060408201518160020190816107079190610ff7565b50606082015181600301556080820151816004015550507f16fd3c13e9d46923e0a8bce11c7b473ec508a72e6c96cd2404b29ce972afc29e815f015182602001518360400151846060015160405161076294939291906110c6565b60405180910390a15050565b5f818154811061077c575f80fd5b905f5260205f2090600502015f91509050805f015490806001015f9054906101000a900473ffffffffffffffffffffffffffffffffffffffff16908060020180546107c690610dbf565b80601f01602080910402602001604051908101604052809291908181526020018280546107f290610dbf565b801561083d5780601f106108145761010080835404028352916020019161083d565b820191905f5260205f20905b81548152906001019060200180831161082057829003601f168201915b5050505050908060030154908060040154905085565b5f604051905090565b5f5ffd5b5f5ffd5b5f73ffffffffffffffffffffffffffffffffffffffff82169050919050565b5f61088d82610864565b9050919050565b61089d81610883565b81146108a7575f5ffd5b50565b5f813590506108b881610894565b92915050565b5f819050919050565b6108d0816108be565b81146108da575f5ffd5b50565b5f813590506108eb816108c7565b92915050565b5f5f604083850312156109075761090661085c565b5b5f610914858286016108aa565b9250506020610925858286016108dd565b9150509250929050565b610938816108be565b82525050565b61094781610883565b82525050565b5f81519050919050565b5f82825260208201905092915050565b8281835e5f83830152505050565b5f601f19601f8301169050919050565b5f61098f8261094d565b6109998185610957565b93506109a9818560208601610967565b6109b281610975565b840191505092915050565b5f60a0820190506109d05f83018861092f565b6109dd602083018761093e565b81810360408301526109ef8186610985565b90506109fe606083018561092f565b610a0b608083018461092f565b9695505050505050565b5f60208284031215610a2a57610a2961085c565b5b5f610a37848285016108aa565b91505092915050565b5f81519050919050565b5f82825260208201905092915050565b5f819050602082019050919050565b610a72816108be565b82525050565b610a8181610883565b82525050565b5f82825260208201905092915050565b5f610aa18261094d565b610aab8185610a87565b9350610abb818560208601610967565b610ac481610975565b840191505092915050565b5f60a083015f830151610ae45f860182610a69565b506020830151610af76020860182610a78565b5060408301518482036040860152610b0f8282610a97565b9150506060830151610b246060860182610a69565b506080830151610b376080860182610a69565b508091505092915050565b5f610b4d8383610acf565b905092915050565b5f602082019050919050565b5f610b6b82610a40565b610b758185610a4a565b935083602082028501610b8785610a5a565b805f5b85811015610bc25784840389528151610ba38582610b42565b9450610bae83610b55565b925060208a01995050600181019050610b8a565b50829750879550505050505092915050565b5f6020820190508181035f830152610bec8184610b61565b905092915050565b5f5ffd5b5f5ffd5b7f4e487b71000000000000000000000000000000000000000000000000000000005f52604160045260245ffd5b610c3282610975565b810181811067ffffffffffffffff82111715610c5157610c50610bfc565b5b80604052505050565b5f610c63610853565b9050610c6f8282610c29565b919050565b5f67ffffffffffffffff821115610c8e57610c8d610bfc565b5b610c9782610975565b9050602081019050919050565b828183375f83830152505050565b5f610cc4610cbf84610c74565b610c5a565b905082815260208101848484011115610ce057610cdf610bf8565b5b610ceb848285610ca4565b509392505050565b5f82601f830112610d0757610d06610bf4565b5b8135610d17848260208601610cb2565b91505092915050565b5f60208284031215610d3557610d3461085c565b5b5f82013567ffffffffffffffff811115610d5257610d51610860565b5b610d5e84828501610cf3565b91505092915050565b5f60208284031215610d7c57610d7b61085c565b5b5f610d89848285016108dd565b91505092915050565b7f4e487b71000000000000000000000000000000000000000000000000000000005f52602260045260245ffd5b5f6002820490506001821680610dd657607f821691505b602082108103610de957610de8610d92565b5b50919050565b7f547765657420697320746f6f206c6f6e672062726f21000000000000000000005f82015250565b5f610e23601683610957565b9150610e2e82610def565b602082019050919050565b5f6020820190508181035f830152610e5081610e17565b9050919050565b5f819050815f5260205f209050919050565b5f6020601f8301049050919050565b5f82821b905092915050565b5f60088302610eb37fffffffffffffffffffffffffffffffffffffffffffffffffffffffffffffffff82610e78565b610ebd8683610e78565b95508019841693508086168417925050509392505050565b5f819050919050565b5f610ef8610ef3610eee846108be565b610ed5565b6108be565b9050919050565b5f819050919050565b610f1183610ede565b610f25610f1d82610eff565b848454610e84565b825550505050565b5f5f905090565b610f3c610f2d565b610f47818484610f08565b505050565b5b81811015610f6a57610f5f5f82610f34565b600181019050610f4d565b5050565b601f821115610faf57610f8081610e57565b610f8984610e69565b81016020851015610f98578190505b610fac610fa485610e69565b830182610f4c565b50505b505050565b5f82821c905092915050565b5f610fcf5f1984600802610fb4565b1980831691505092915050565b5f610fe78383610fc0565b9150826002028217905092915050565b6110008261094d565b67ffffffffffffffff81111561101957611018610bfc565b5b6110238254610dbf565b61102e828285610f6e565b5f60209050601f83116001811461105f575f841561104d578287015190505b6110578582610fdc565b8655506110be565b601f19841661106d86610e57565b5f5b828110156110945784890151825560018201915060208501945060208101905061106f565b868310156110b157848901516110ad601f891682610fc0565b8355505b6001600288020188555050505b505050505050565b5f6080820190506110d95f83018761092f565b6110e6602083018661093e565b81810360408301526110f88185610985565b9050611107606083018461092f565b9594505050505056fea26469706673582212202ffc2f599a09753be6f26f3913e0f020c48e0bcc1ab4eb11a644563900bdfed364736f6c634300081e0033",
					"opcodes": "PUSH1 0x80 PUSH1 0x40 MSTORE CALLVALUE DUP1 ISZERO PUSH1 0xE JUMPI PUSH0 PUSH0 REVERT JUMPDEST POP PUSH2 0x1146 DUP1 PUSH2 0x1C PUSH0 CODECOPY PUSH0 RETURN INVALID PUSH1 0x80 PUSH1 0x40 MSTORE CALLVALUE DUP1 ISZERO PUSH2 0xF JUMPI PUSH0 PUSH0 REVERT JUMPDEST POP PUSH1 0x4 CALLDATASIZE LT PUSH2 0x55 JUMPI PUSH0 CALLDATALOAD PUSH1 0xE0 SHR DUP1 PUSH4 0x5A1B4A9 EQ PUSH2 0x59 JUMPI DUP1 PUSH4 0x2F5899D7 EQ PUSH2 0x8D JUMPI DUP1 PUSH4 0x53256135 EQ PUSH2 0xBD JUMPI DUP1 PUSH4 0x7C9CD2BC EQ PUSH2 0xDB JUMPI DUP1 PUSH4 0xE28350B7 EQ PUSH2 0xF7 JUMPI JUMPDEST PUSH0 PUSH0 REVERT JUMPDEST PUSH2 0x73 PUSH1 0x4 DUP1 CALLDATASIZE SUB DUP2 ADD SWAP1 PUSH2 0x6E SWAP2 SWAP1 PUSH2 0x8F1 JUMP JUMPDEST PUSH2 0x12B JUMP JUMPDEST PUSH1 0x40 MLOAD PUSH2 0x84 SWAP6 SWAP5 SWAP4 SWAP3 SWAP2 SWAP1 PUSH2 0x9BD JUMP JUMPDEST PUSH1 0x40 MLOAD DUP1 SWAP2 SUB SWAP1 RETURN JUMPDEST PUSH2 0xA7 PUSH1 0x4 DUP1 CALLDATASIZE SUB DUP2 ADD SWAP1 PUSH2 0xA2 SWAP2 SWAP1 PUSH2 0xA15 JUMP JUMPDEST PUSH2 0x21C JUMP JUMPDEST PUSH1 0x40 MLOAD PUSH2 0xB4 SWAP2 SWAP1 PUSH2 0xBD4 JUMP JUMPDEST PUSH1 0x40 MLOAD DUP1 SWAP2 SUB SWAP1 RETURN JUMPDEST PUSH2 0xC5 PUSH2 0x3B7 JUMP JUMPDEST PUSH1 0x40 MLOAD PUSH2 0xD2 SWAP2 SWAP1 PUSH2 0xBD4 JUMP JUMPDEST PUSH1 0x40 MLOAD DUP1 SWAP2 SUB SWAP1 RETURN JUMPDEST PUSH2 0xF5 PUSH1 0x4 DUP1 CALLDATASIZE SUB DUP2 ADD SWAP1 PUSH2 0xF0 SWAP2 SWAP1 PUSH2 0xD20 JUMP JUMPDEST PUSH2 0x514 JUMP JUMPDEST STOP JUMPDEST PUSH2 0x111 PUSH1 0x4 DUP1 CALLDATASIZE SUB DUP2 ADD SWAP1 PUSH2 0x10C SWAP2 SWAP1 PUSH2 0xD67 JUMP JUMPDEST PUSH2 0x76E JUMP JUMPDEST PUSH1 0x40 MLOAD PUSH2 0x122 SWAP6 SWAP5 SWAP4 SWAP3 SWAP2 SWAP1 PUSH2 0x9BD JUMP JUMPDEST PUSH1 0x40 MLOAD DUP1 SWAP2 SUB SWAP1 RETURN JUMPDEST PUSH1 0x1 PUSH1 0x20 MSTORE DUP2 PUSH0 MSTORE PUSH1 0x40 PUSH0 KECCAK256 DUP2 DUP2 SLOAD DUP2 LT PUSH2 0x144 JUMPI PUSH0 DUP1 REVERT JUMPDEST SWAP1 PUSH0 MSTORE PUSH1 0x20 PUSH0 KECCAK256 SWAP1 PUSH1 0x5 MUL ADD PUSH0 SWAP2 POP SWAP2 POP POP DUP1 PUSH0 ADD SLOAD SWAP1 DUP1 PUSH1 0x1 ADD PUSH0 SWAP1 SLOAD SWAP1 PUSH2 0x100 EXP SWAP1 DIV PUSH20 0xFFFFFFFFFFFFFFFFFFFFFFFFFFFFFFFFFFFFFFFF AND SWAP1 DUP1 PUSH1 0x2 ADD DUP1 SLOAD PUSH2 0x18F SWAP1 PUSH2 0xDBF JUMP JUMPDEST DUP1 PUSH1 0x1F ADD PUSH1 0x20 DUP1 SWAP2 DIV MUL PUSH1 0x20 ADD PUSH1 0x40 MLOAD SWAP1 DUP2 ADD PUSH1 0x40 MSTORE DUP1 SWAP3 SWAP2 SWAP1 DUP2 DUP2 MSTORE PUSH1 0x20 ADD DUP3 DUP1 SLOAD PUSH2 0x1BB SWAP1 PUSH2 0xDBF JUMP JUMPDEST DUP1 ISZERO PUSH2 0x206 JUMPI DUP1 PUSH1 0x1F LT PUSH2 0x1DD JUMPI PUSH2 0x100 DUP1 DUP4 SLOAD DIV MUL DUP4 MSTORE SWAP2 PUSH1 0x20 ADD SWAP2 PUSH2 0x206 JUMP JUMPDEST DUP3 ADD SWAP2 SWAP1 PUSH0 MSTORE PUSH1 0x20 PUSH0 KECCAK256 SWAP1 JUMPDEST DUP2 SLOAD DUP2 MSTORE SWAP1 PUSH1 0x1 ADD SWAP1 PUSH1 0x20 ADD DUP1 DUP4 GT PUSH2 0x1E9 JUMPI DUP3 SWAP1 SUB PUSH1 0x1F AND DUP3 ADD SWAP2 JUMPDEST POP POP POP POP POP SWAP1 DUP1 PUSH1 0x3 ADD SLOAD SWAP1 DUP1 PUSH1 0x4 ADD SLOAD SWAP1 POP DUP6 JUMP JUMPDEST PUSH1 0x60 PUSH1 0x1 PUSH0 DUP4 PUSH20 0xFFFFFFFFFFFFFFFFFFFFFFFFFFFFFFFFFFFFFFFF AND PUSH20 0xFFFFFFFFFFFFFFFFFFFFFFFFFFFFFFFFFFFFFFFF AND DUP2 MSTORE PUSH1 0x20 ADD SWAP1 DUP2 MSTORE PUSH1 0x20 ADD PUSH0 KECCAK256 DUP1 SLOAD DUP1 PUSH1 0x20 MUL PUSH1 0x20 ADD PUSH1 0x40 MLOAD SWAP1 DUP2 ADD PUSH1 0x40 MSTORE DUP1 SWAP3 SWAP2 SWAP1 DUP2 DUP2 MSTORE PUSH1 0x20 ADD PUSH0 SWAP1 JUMPDEST DUP3 DUP3 LT ISZERO PUSH2 0x3AC JUMPI DUP4 DUP3 SWAP1 PUSH0 MSTORE PUSH1 0x20 PUSH0 KECCAK256 SWAP1 PUSH1 0x5 MUL ADD PUSH1 0x40 MLOAD DUP1 PUSH1 0xA0 ADD PUSH1 0x40 MSTORE SWAP1 DUP2 PUSH0 DUP3 ADD SLOAD DUP2 MSTORE PUSH1 0x20 ADD PUSH1 0x1 DUP3 ADD PUSH0 SWAP1 SLOAD SWAP1 PUSH2 0x100 EXP SWAP1 DIV PUSH20 0xFFFFFFFFFFFFFFFFFFFFFFFFFFFFFFFFFFFFFFFF AND PUSH20 0xFFFFFFFFFFFFFFFFFFFFFFFFFFFFFFFFFFFFFFFF AND PUSH20 0xFFFFFFFFFFFFFFFFFFFFFFFFFFFFFFFFFFFFFFFF AND DUP2 MSTORE PUSH1 0x20 ADD PUSH1 0x2 DUP3 ADD DUP1 SLOAD PUSH2 0x309 SWAP1 PUSH2 0xDBF JUMP JUMPDEST DUP1 PUSH1 0x1F ADD PUSH1 0x20 DUP1 SWAP2 DIV MUL PUSH1 0x20 ADD PUSH1 0x40 MLOAD SWAP1 DUP2 ADD PUSH1 0x40 MSTORE DUP1 SWAP3 SWAP2 SWAP1 DUP2 DUP2 MSTORE PUSH1 0x20 ADD DUP3 DUP1 SLOAD PUSH2 0x335 SWAP1 PUSH2 0xDBF JUMP JUMPDEST DUP1 ISZERO PUSH2 0x380 JUMPI DUP1 PUSH1 0x1F LT PUSH2 0x357 JUMPI PUSH2 0x100 DUP1 DUP4 SLOAD DIV MUL DUP4 MSTORE SWAP2 PUSH1 0x20 ADD SWAP2 PUSH2 0x380 JUMP JUMPDEST DUP3 ADD SWAP2 SWAP1 PUSH0 MSTORE PUSH1 0x20 PUSH0 KECCAK256 SWAP1 JUMPDEST DUP2 SLOAD DUP2 MSTORE SWAP1 PUSH1 0x1 ADD SWAP1 PUSH1 0x20 ADD DUP1 DUP4 GT PUSH2 0x363 JUMPI DUP3 SWAP1 SUB PUSH1 0x1F AND DUP3 ADD SWAP2 JUMPDEST POP POP POP POP POP DUP2 MSTORE PUSH1 0x20 ADD PUSH1 0x3 DUP3 ADD SLOAD DUP2 MSTORE PUSH1 0x20 ADD PUSH1 0x4 DUP3 ADD SLOAD DUP2 MSTORE POP POP DUP2 MSTORE PUSH1 0x20 ADD SWAP1 PUSH1 0x1 ADD SWAP1 PUSH2 0x27A JUMP JUMPDEST POP POP POP POP SWAP1 POP SWAP2 SWAP1 POP JUMP JUMPDEST PUSH1 0x60 PUSH0 DUP1 SLOAD DUP1 PUSH1 0x20 MUL PUSH1 0x20 ADD PUSH1 0x40 MLOAD SWAP1 DUP2 ADD PUSH1 0x40 MSTORE DUP1 SWAP3 SWAP2 SWAP1 DUP2 DUP2 MSTORE PUSH1 0x20 ADD PUSH0 SWAP1 JUMPDEST DUP3 DUP3 LT ISZERO PUSH2 0x50B JUMPI DUP4 DUP3 SWAP1 PUSH0 MSTORE PUSH1 0x20 PUSH0 KECCAK256 SWAP1 PUSH1 0x5 MUL ADD PUSH1 0x40 MLOAD DUP1 PUSH1 0xA0 ADD PUSH1 0x40 MSTORE SWAP1 DUP2 PUSH0 DUP3 ADD SLOAD DUP2 MSTORE PUSH1 0x20 ADD PUSH1 0x1 DUP3 ADD PUSH0 SWAP1 SLOAD SWAP1 PUSH2 0x100 EXP SWAP1 DIV PUSH20 0xFFFFFFFFFFFFFFFFFFFFFFFFFFFFFFFFFFFFFFFF AND PUSH20 0xFFFFFFFFFFFFFFFFFFFFFFFFFFFFFFFFFFFFFFFF AND PUSH20 0xFFFFFFFFFFFFFFFFFFFFFFFFFFFFFFFFFFFFFFFF AND DUP2 MSTORE PUSH1 0x20 ADD PUSH1 0x2 DUP3 ADD DUP1 SLOAD PUSH2 0x468 SWAP1 PUSH2 0xDBF JUMP JUMPDEST DUP1 PUSH1 0x1F ADD PUSH1 0x20 DUP1 SWAP2 DIV MUL PUSH1 0x20 ADD PUSH1 0x40 MLOAD SWAP1 DUP2 ADD PUSH1 0x40 MSTORE DUP1 SWAP3 SWAP2 SWAP1 DUP2 DUP2 MSTORE PUSH1 0x20 ADD DUP3 DUP1 SLOAD PUSH2 0x494 SWAP1 PUSH2 0xDBF JUMP JUMPDEST DUP1 ISZERO PUSH2 0x4DF JUMPI DUP1 PUSH1 0x1F LT PUSH2 0x4B6 JUMPI PUSH2 0x100 DUP1 DUP4 SLOAD DIV MUL DUP4 MSTORE SWAP2 PUSH1 0x20 ADD SWAP2 PUSH2 0x4DF JUMP JUMPDEST DUP3 ADD SWAP2 SWAP1 PUSH0 MSTORE PUSH1 0x20 PUSH0 KECCAK256 SWAP1 JUMPDEST DUP2 SLOAD DUP2 MSTORE SWAP1 PUSH1 0x1 ADD SWAP1 PUSH1 0x20 ADD DUP1 DUP4 GT PUSH2 0x4C2 JUMPI DUP3 SWAP1 SUB PUSH1 0x1F AND DUP3 ADD SWAP2 JUMPDEST POP POP POP POP POP DUP2 MSTORE PUSH1 0x20 ADD PUSH1 0x3 DUP3 ADD SLOAD DUP2 MSTORE PUSH1 0x20 ADD PUSH1 0x4 DUP3 ADD SLOAD DUP2 MSTORE POP POP DUP2 MSTORE PUSH1 0x20 ADD SWAP1 PUSH1 0x1 ADD SWAP1 PUSH2 0x3D9 JUMP JUMPDEST POP POP POP POP SWAP1 POP SWAP1 JUMP JUMPDEST PUSH2 0x118 DUP2 MLOAD GT ISZERO PUSH2 0x55A JUMPI PUSH1 0x40 MLOAD PUSH32 0x8C379A000000000000000000000000000000000000000000000000000000000 DUP2 MSTORE PUSH1 0x4 ADD PUSH2 0x551 SWAP1 PUSH2 0xE39 JUMP JUMPDEST PUSH1 0x40 MLOAD DUP1 SWAP2 SUB SWAP1 REVERT JUMPDEST PUSH0 PUSH1 0x40 MLOAD DUP1 PUSH1 0xA0 ADD PUSH1 0x40 MSTORE DUP1 PUSH0 DUP1 SLOAD SWAP1 POP DUP2 MSTORE PUSH1 0x20 ADD CALLER PUSH20 0xFFFFFFFFFFFFFFFFFFFFFFFFFFFFFFFFFFFFFFFF AND DUP2 MSTORE PUSH1 0x20 ADD DUP4 DUP2 MSTORE PUSH1 0x20 ADD TIMESTAMP DUP2 MSTORE PUSH1 0x20 ADD PUSH0 DUP2 MSTORE POP SWAP1 POP PUSH1 0x1 PUSH0 CALLER PUSH20 0xFFFFFFFFFFFFFFFFFFFFFFFFFFFFFFFFFFFFFFFF AND PUSH20 0xFFFFFFFFFFFFFFFFFFFFFFFFFFFFFFFFFFFFFFFF AND DUP2 MSTORE PUSH1 0x20 ADD SWAP1 DUP2 MSTORE PUSH1 0x20 ADD PUSH0 KECCAK256 DUP2 SWAP1 DUP1 PUSH1 0x1 DUP2 SLOAD ADD DUP1 DUP3 SSTORE DUP1 SWAP2 POP POP PUSH1 0x1 SWAP1 SUB SWAP1 PUSH0 MSTORE PUSH1 0x20 PUSH0 KECCAK256 SWAP1 PUSH1 0x5 MUL ADD PUSH0 SWAP1 SWAP2 SWAP1 SWAP2 SWAP1 SWAP2 POP PUSH0 DUP3 ADD MLOAD DUP2 PUSH0 ADD SSTORE PUSH1 0x20 DUP3 ADD MLOAD DUP2 PUSH1 0x1 ADD PUSH0 PUSH2 0x100 EXP DUP2 SLOAD DUP2 PUSH20 0xFFFFFFFFFFFFFFFFFFFFFFFFFFFFFFFFFFFFFFFF MUL NOT AND SWAP1 DUP4 PUSH20 0xFFFFFFFFFFFFFFFFFFFFFFFFFFFFFFFFFFFFFFFF AND MUL OR SWAP1 SSTORE POP PUSH1 0x40 DUP3 ADD MLOAD DUP2 PUSH1 0x2 ADD SWAP1 DUP2 PUSH2 0x665 SWAP2 SWAP1 PUSH2 0xFF7 JUMP JUMPDEST POP PUSH1 0x60 DUP3 ADD MLOAD DUP2 PUSH1 0x3 ADD SSTORE PUSH1 0x80 DUP3 ADD MLOAD DUP2 PUSH1 0x4 ADD SSTORE POP POP PUSH0 DUP2 SWAP1 DUP1 PUSH1 0x1 DUP2 SLOAD ADD DUP1 DUP3 SSTORE DUP1 SWAP2 POP POP PUSH1 0x1 SWAP1 SUB SWAP1 PUSH0 MSTORE PUSH1 0x20 PUSH0 KECCAK256 SWAP1 PUSH1 0x5 MUL ADD PUSH0 SWAP1 SWAP2 SWAP1 SWAP2 SWAP1 SWAP2 POP PUSH0 DUP3 ADD MLOAD DUP2 PUSH0 ADD SSTORE PUSH1 0x20 DUP3 ADD MLOAD DUP2 PUSH1 0x1 ADD PUSH0 PUSH2 0x100 EXP DUP2 SLOAD DUP2 PUSH20 0xFFFFFFFFFFFFFFFFFFFFFFFFFFFFFFFFFFFFFFFF MUL NOT AND SWAP1 DUP4 PUSH20 0xFFFFFFFFFFFFFFFFFFFFFFFFFFFFFFFFFFFFFFFF AND MUL OR SWAP1 SSTORE POP PUSH1 0x40 DUP3 ADD MLOAD DUP2 PUSH1 0x2 ADD SWAP1 DUP2 PUSH2 0x707 SWAP2 SWAP1 PUSH2 0xFF7 JUMP JUMPDEST POP PUSH1 0x60 DUP3 ADD MLOAD DUP2 PUSH1 0x3 ADD SSTORE PUSH1 0x80 DUP3 ADD MLOAD DUP2 PUSH1 0x4 ADD SSTORE POP POP PUSH32 0x16FD3C13E9D46923E0A8BCE11C7B473EC508A72E6C96CD2404B29CE972AFC29E DUP2 PUSH0 ADD MLOAD DUP3 PUSH1 0x20 ADD MLOAD DUP4 PUSH1 0x40 ADD MLOAD DUP5 PUSH1 0x60 ADD MLOAD PUSH1 0x40 MLOAD PUSH2 0x762 SWAP5 SWAP4 SWAP3 SWAP2 SWAP1 PUSH2 0x10C6 JUMP JUMPDEST PUSH1 0x40 MLOAD DUP1 SWAP2 SUB SWAP1 LOG1 POP POP JUMP JUMPDEST PUSH0 DUP2 DUP2 SLOAD DUP2 LT PUSH2 0x77C JUMPI PUSH0 DUP1 REVERT JUMPDEST SWAP1 PUSH0 MSTORE PUSH1 0x20 PUSH0 KECCAK256 SWAP1 PUSH1 0x5 MUL ADD PUSH0 SWAP2 POP SWAP1 POP DUP1 PUSH0 ADD SLOAD SWAP1 DUP1 PUSH1 0x1 ADD PUSH0 SWAP1 SLOAD SWAP1 PUSH2 0x100 EXP SWAP1 DIV PUSH20 0xFFFFFFFFFFFFFFFFFFFFFFFFFFFFFFFFFFFFFFFF AND SWAP1 DUP1 PUSH1 0x2 ADD DUP1 SLOAD PUSH2 0x7C6 SWAP1 PUSH2 0xDBF JUMP JUMPDEST DUP1 PUSH1 0x1F ADD PUSH1 0x20 DUP1 SWAP2 DIV MUL PUSH1 0x20 ADD PUSH1 0x40 MLOAD SWAP1 DUP2 ADD PUSH1 0x40 MSTORE DUP1 SWAP3 SWAP2 SWAP1 DUP2 DUP2 MSTORE PUSH1 0x20 ADD DUP3 DUP1 SLOAD PUSH2 0x7F2 SWAP1 PUSH2 0xDBF JUMP JUMPDEST DUP1 ISZERO PUSH2 0x83D JUMPI DUP1 PUSH1 0x1F LT PUSH2 0x814 JUMPI PUSH2 0x100 DUP1 DUP4 SLOAD DIV MUL DUP4 MSTORE SWAP2 PUSH1 0x20 ADD SWAP2 PUSH2 0x83D JUMP JUMPDEST DUP3 ADD SWAP2 SWAP1 PUSH0 MSTORE PUSH1 0x20 PUSH0 KECCAK256 SWAP1 JUMPDEST DUP2 SLOAD DUP2 MSTORE SWAP1 PUSH1 0x1 ADD SWAP1 PUSH1 0x20 ADD DUP1 DUP4 GT PUSH2 0x820 JUMPI DUP3 SWAP1 SUB PUSH1 0x1F AND DUP3 ADD SWAP2 JUMPDEST POP POP POP POP POP SWAP1 DUP1 PUSH1 0x3 ADD SLOAD SWAP1 DUP1 PUSH1 0x4 ADD SLOAD SWAP1 POP DUP6 JUMP JUMPDEST PUSH0 PUSH1 0x40 MLOAD SWAP1 POP SWAP1 JUMP JUMPDEST PUSH0 PUSH0 REVERT JUMPDEST PUSH0 PUSH0 REVERT JUMPDEST PUSH0 PUSH20 0xFFFFFFFFFFFFFFFFFFFFFFFFFFFFFFFFFFFFFFFF DUP3 AND SWAP1 POP SWAP2 SWAP1 POP JUMP JUMPDEST PUSH0 PUSH2 0x88D DUP3 PUSH2 0x864 JUMP JUMPDEST SWAP1 POP SWAP2 SWAP1 POP JUMP JUMPDEST PUSH2 0x89D DUP2 PUSH2 0x883 JUMP JUMPDEST DUP2 EQ PUSH2 0x8A7 JUMPI PUSH0 PUSH0 REVERT JUMPDEST POP JUMP JUMPDEST PUSH0 DUP2 CALLDATALOAD SWAP1 POP PUSH2 0x8B8 DUP2 PUSH2 0x894 JUMP JUMPDEST SWAP3 SWAP2 POP POP JUMP JUMPDEST PUSH0 DUP2 SWAP1 POP SWAP2 SWAP1 POP JUMP JUMPDEST PUSH2 0x8D0 DUP2 PUSH2 0x8BE JUMP JUMPDEST DUP2 EQ PUSH2 0x8DA JUMPI PUSH0 PUSH0 REVERT JUMPDEST POP JUMP JUMPDEST PUSH0 DUP2 CALLDATALOAD SWAP1 POP PUSH2 0x8EB DUP2 PUSH2 0x8C7 JUMP JUMPDEST SWAP3 SWAP2 POP POP JUMP JUMPDEST PUSH0 PUSH0 PUSH1 0x40 DUP4 DUP6 SUB SLT ISZERO PUSH2 0x907 JUMPI PUSH2 0x906 PUSH2 0x85C JUMP JUMPDEST JUMPDEST PUSH0 PUSH2 0x914 DUP6 DUP3 DUP7 ADD PUSH2 0x8AA JUMP JUMPDEST SWAP3 POP POP PUSH1 0x20 PUSH2 0x925 DUP6 DUP3 DUP7 ADD PUSH2 0x8DD JUMP JUMPDEST SWAP2 POP POP SWAP3 POP SWAP3 SWAP1 POP JUMP JUMPDEST PUSH2 0x938 DUP2 PUSH2 0x8BE JUMP JUMPDEST DUP3 MSTORE POP POP JUMP JUMPDEST PUSH2 0x947 DUP2 PUSH2 0x883 JUMP JUMPDEST DUP3 MSTORE POP POP JUMP JUMPDEST PUSH0 DUP2 MLOAD SWAP1 POP SWAP2 SWAP1 POP JUMP JUMPDEST PUSH0 DUP3 DUP3 MSTORE PUSH1 0x20 DUP3 ADD SWAP1 POP SWAP3 SWAP2 POP POP JUMP JUMPDEST DUP3 DUP2 DUP4 MCOPY PUSH0 DUP4 DUP4 ADD MSTORE POP POP POP JUMP JUMPDEST PUSH0 PUSH1 0x1F NOT PUSH1 0x1F DUP4 ADD AND SWAP1 POP SWAP2 SWAP1 POP JUMP JUMPDEST PUSH0 PUSH2 0x98F DUP3 PUSH2 0x94D JUMP JUMPDEST PUSH2 0x999 DUP2 DUP6 PUSH2 0x957 JUMP JUMPDEST SWAP4 POP PUSH2 0x9A9 DUP2 DUP6 PUSH1 0x20 DUP7 ADD PUSH2 0x967 JUMP JUMPDEST PUSH2 0x9B2 DUP2 PUSH2 0x975 JUMP JUMPDEST DUP5 ADD SWAP2 POP POP SWAP3 SWAP2 POP POP JUMP JUMPDEST PUSH0 PUSH1 0xA0 DUP3 ADD SWAP1 POP PUSH2 0x9D0 PUSH0 DUP4 ADD DUP9 PUSH2 0x92F JUMP JUMPDEST PUSH2 0x9DD PUSH1 0x20 DUP4 ADD DUP8 PUSH2 0x93E JUMP JUMPDEST DUP2 DUP2 SUB PUSH1 0x40 DUP4 ADD MSTORE PUSH2 0x9EF DUP2 DUP7 PUSH2 0x985 JUMP JUMPDEST SWAP1 POP PUSH2 0x9FE PUSH1 0x60 DUP4 ADD DUP6 PUSH2 0x92F JUMP JUMPDEST PUSH2 0xA0B PUSH1 0x80 DUP4 ADD DUP5 PUSH2 0x92F JUMP JUMPDEST SWAP7 SWAP6 POP POP POP POP POP POP JUMP JUMPDEST PUSH0 PUSH1 0x20 DUP3 DUP5 SUB SLT ISZERO PUSH2 0xA2A JUMPI PUSH2 0xA29 PUSH2 0x85C JUMP JUMPDEST JUMPDEST PUSH0 PUSH2 0xA37 DUP5 DUP3 DUP6 ADD PUSH2 0x8AA JUMP JUMPDEST SWAP2 POP POP SWAP3 SWAP2 POP POP JUMP JUMPDEST PUSH0 DUP2 MLOAD SWAP1 POP SWAP2 SWAP1 POP JUMP JUMPDEST PUSH0 DUP3 DUP3 MSTORE PUSH1 0x20 DUP3 ADD SWAP1 POP SWAP3 SWAP2 POP POP JUMP JUMPDEST PUSH0 DUP2 SWAP1 POP PUSH1 0x20 DUP3 ADD SWAP1 POP SWAP2 SWAP1 POP JUMP JUMPDEST PUSH2 0xA72 DUP2 PUSH2 0x8BE JUMP JUMPDEST DUP3 MSTORE POP POP JUMP JUMPDEST PUSH2 0xA81 DUP2 PUSH2 0x883 JUMP JUMPDEST DUP3 MSTORE POP POP JUMP JUMPDEST PUSH0 DUP3 DUP3 MSTORE PUSH1 0x20 DUP3 ADD SWAP1 POP SWAP3 SWAP2 POP POP JUMP JUMPDEST PUSH0 PUSH2 0xAA1 DUP3 PUSH2 0x94D JUMP JUMPDEST PUSH2 0xAAB DUP2 DUP6 PUSH2 0xA87 JUMP JUMPDEST SWAP4 POP PUSH2 0xABB DUP2 DUP6 PUSH1 0x20 DUP7 ADD PUSH2 0x967 JUMP JUMPDEST PUSH2 0xAC4 DUP2 PUSH2 0x975 JUMP JUMPDEST DUP5 ADD SWAP2 POP POP SWAP3 SWAP2 POP POP JUMP JUMPDEST PUSH0 PUSH1 0xA0 DUP4 ADD PUSH0 DUP4 ADD MLOAD PUSH2 0xAE4 PUSH0 DUP7 ADD DUP3 PUSH2 0xA69 JUMP JUMPDEST POP PUSH1 0x20 DUP4 ADD MLOAD PUSH2 0xAF7 PUSH1 0x20 DUP7 ADD DUP3 PUSH2 0xA78 JUMP JUMPDEST POP PUSH1 0x40 DUP4 ADD MLOAD DUP5 DUP3 SUB PUSH1 0x40 DUP7 ADD MSTORE PUSH2 0xB0F DUP3 DUP3 PUSH2 0xA97 JUMP JUMPDEST SWAP2 POP POP PUSH1 0x60 DUP4 ADD MLOAD PUSH2 0xB24 PUSH1 0x60 DUP7 ADD DUP3 PUSH2 0xA69 JUMP JUMPDEST POP PUSH1 0x80 DUP4 ADD MLOAD PUSH2 0xB37 PUSH1 0x80 DUP7 ADD DUP3 PUSH2 0xA69 JUMP JUMPDEST POP DUP1 SWAP2 POP POP SWAP3 SWAP2 POP POP JUMP JUMPDEST PUSH0 PUSH2 0xB4D DUP4 DUP4 PUSH2 0xACF JUMP JUMPDEST SWAP1 POP SWAP3 SWAP2 POP POP JUMP JUMPDEST PUSH0 PUSH1 0x20 DUP3 ADD SWAP1 POP SWAP2 SWAP1 POP JUMP JUMPDEST PUSH0 PUSH2 0xB6B DUP3 PUSH2 0xA40 JUMP JUMPDEST PUSH2 0xB75 DUP2 DUP6 PUSH2 0xA4A JUMP JUMPDEST SWAP4 POP DUP4 PUSH1 0x20 DUP3 MUL DUP6 ADD PUSH2 0xB87 DUP6 PUSH2 0xA5A JUMP JUMPDEST DUP1 PUSH0 JUMPDEST DUP6 DUP2 LT ISZERO PUSH2 0xBC2 JUMPI DUP5 DUP5 SUB DUP10 MSTORE DUP2 MLOAD PUSH2 0xBA3 DUP6 DUP3 PUSH2 0xB42 JUMP JUMPDEST SWAP5 POP PUSH2 0xBAE DUP4 PUSH2 0xB55 JUMP JUMPDEST SWAP3 POP PUSH1 0x20 DUP11 ADD SWAP10 POP POP PUSH1 0x1 DUP2 ADD SWAP1 POP PUSH2 0xB8A JUMP JUMPDEST POP DUP3 SWAP8 POP DUP8 SWAP6 POP POP POP POP POP POP SWAP3 SWAP2 POP POP JUMP JUMPDEST PUSH0 PUSH1 0x20 DUP3 ADD SWAP1 POP DUP2 DUP2 SUB PUSH0 DUP4 ADD MSTORE PUSH2 0xBEC DUP2 DUP5 PUSH2 0xB61 JUMP JUMPDEST SWAP1 POP SWAP3 SWAP2 POP POP JUMP JUMPDEST PUSH0 PUSH0 REVERT JUMPDEST PUSH0 PUSH0 REVERT JUMPDEST PUSH32 0x4E487B7100000000000000000000000000000000000000000000000000000000 PUSH0 MSTORE PUSH1 0x41 PUSH1 0x4 MSTORE PUSH1 0x24 PUSH0 REVERT JUMPDEST PUSH2 0xC32 DUP3 PUSH2 0x975 JUMP JUMPDEST DUP2 ADD DUP2 DUP2 LT PUSH8 0xFFFFFFFFFFFFFFFF DUP3 GT OR ISZERO PUSH2 0xC51 JUMPI PUSH2 0xC50 PUSH2 0xBFC JUMP JUMPDEST JUMPDEST DUP1 PUSH1 0x40 MSTORE POP POP POP JUMP JUMPDEST PUSH0 PUSH2 0xC63 PUSH2 0x853 JUMP JUMPDEST SWAP1 POP PUSH2 0xC6F DUP3 DUP3 PUSH2 0xC29 JUMP JUMPDEST SWAP2 SWAP1 POP JUMP JUMPDEST PUSH0 PUSH8 0xFFFFFFFFFFFFFFFF DUP3 GT ISZERO PUSH2 0xC8E JUMPI PUSH2 0xC8D PUSH2 0xBFC JUMP JUMPDEST JUMPDEST PUSH2 0xC97 DUP3 PUSH2 0x975 JUMP JUMPDEST SWAP1 POP PUSH1 0x20 DUP2 ADD SWAP1 POP SWAP2 SWAP1 POP JUMP JUMPDEST DUP3 DUP2 DUP4 CALLDATACOPY PUSH0 DUP4 DUP4 ADD MSTORE POP POP POP JUMP JUMPDEST PUSH0 PUSH2 0xCC4 PUSH2 0xCBF DUP5 PUSH2 0xC74 JUMP JUMPDEST PUSH2 0xC5A JUMP JUMPDEST SWAP1 POP DUP3 DUP2 MSTORE PUSH1 0x20 DUP2 ADD DUP5 DUP5 DUP5 ADD GT ISZERO PUSH2 0xCE0 JUMPI PUSH2 0xCDF PUSH2 0xBF8 JUMP JUMPDEST JUMPDEST PUSH2 0xCEB DUP5 DUP3 DUP6 PUSH2 0xCA4 JUMP JUMPDEST POP SWAP4 SWAP3 POP POP POP JUMP JUMPDEST PUSH0 DUP3 PUSH1 0x1F DUP4 ADD SLT PUSH2 0xD07 JUMPI PUSH2 0xD06 PUSH2 0xBF4 JUMP JUMPDEST JUMPDEST DUP2 CALLDATALOAD PUSH2 0xD17 DUP5 DUP3 PUSH1 0x20 DUP7 ADD PUSH2 0xCB2 JUMP JUMPDEST SWAP2 POP POP SWAP3 SWAP2 POP POP JUMP JUMPDEST PUSH0 PUSH1 0x20 DUP3 DUP5 SUB SLT ISZERO PUSH2 0xD35 JUMPI PUSH2 0xD34 PUSH2 0x85C JUMP JUMPDEST JUMPDEST PUSH0 DUP3 ADD CALLDATALOAD PUSH8 0xFFFFFFFFFFFFFFFF DUP2 GT ISZERO PUSH2 0xD52 JUMPI PUSH2 0xD51 PUSH2 0x860 JUMP JUMPDEST JUMPDEST PUSH2 0xD5E DUP5 DUP3 DUP6 ADD PUSH2 0xCF3 JUMP JUMPDEST SWAP2 POP POP SWAP3 SWAP2 POP POP JUMP JUMPDEST PUSH0 PUSH1 0x20 DUP3 DUP5 SUB SLT ISZERO PUSH2 0xD7C JUMPI PUSH2 0xD7B PUSH2 0x85C JUMP JUMPDEST JUMPDEST PUSH0 PUSH2 0xD89 DUP5 DUP3 DUP6 ADD PUSH2 0x8DD JUMP JUMPDEST SWAP2 POP POP SWAP3 SWAP2 POP POP JUMP JUMPDEST PUSH32 0x4E487B7100000000000000000000000000000000000000000000000000000000 PUSH0 MSTORE PUSH1 0x22 PUSH1 0x4 MSTORE PUSH1 0x24 PUSH0 REVERT JUMPDEST PUSH0 PUSH1 0x2 DUP3 DIV SWAP1 POP PUSH1 0x1 DUP3 AND DUP1 PUSH2 0xDD6 JUMPI PUSH1 0x7F DUP3 AND SWAP2 POP JUMPDEST PUSH1 0x20 DUP3 LT DUP2 SUB PUSH2 0xDE9 JUMPI PUSH2 0xDE8 PUSH2 0xD92 JUMP JUMPDEST JUMPDEST POP SWAP2 SWAP1 POP JUMP JUMPDEST PUSH32 0x547765657420697320746F6F206C6F6E672062726F2100000000000000000000 PUSH0 DUP3 ADD MSTORE POP JUMP JUMPDEST PUSH0 PUSH2 0xE23 PUSH1 0x16 DUP4 PUSH2 0x957 JUMP JUMPDEST SWAP2 POP PUSH2 0xE2E DUP3 PUSH2 0xDEF JUMP JUMPDEST PUSH1 0x20 DUP3 ADD SWAP1 POP SWAP2 SWAP1 POP JUMP JUMPDEST PUSH0 PUSH1 0x20 DUP3 ADD SWAP1 POP DUP2 DUP2 SUB PUSH0 DUP4 ADD MSTORE PUSH2 0xE50 DUP2 PUSH2 0xE17 JUMP JUMPDEST SWAP1 POP SWAP2 SWAP1 POP JUMP JUMPDEST PUSH0 DUP2 SWAP1 POP DUP2 PUSH0 MSTORE PUSH1 0x20 PUSH0 KECCAK256 SWAP1 POP SWAP2 SWAP1 POP JUMP JUMPDEST PUSH0 PUSH1 0x20 PUSH1 0x1F DUP4 ADD DIV SWAP1 POP SWAP2 SWAP1 POP JUMP JUMPDEST PUSH0 DUP3 DUP3 SHL SWAP1 POP SWAP3 SWAP2 POP POP JUMP JUMPDEST PUSH0 PUSH1 0x8 DUP4 MUL PUSH2 0xEB3 PUSH32 0xFFFFFFFFFFFFFFFFFFFFFFFFFFFFFFFFFFFFFFFFFFFFFFFFFFFFFFFFFFFFFFFF DUP3 PUSH2 0xE78 JUMP JUMPDEST PUSH2 0xEBD DUP7 DUP4 PUSH2 0xE78 JUMP JUMPDEST SWAP6 POP DUP1 NOT DUP5 AND SWAP4 POP DUP1 DUP7 AND DUP5 OR SWAP3 POP POP POP SWAP4 SWAP3 POP POP POP JUMP JUMPDEST PUSH0 DUP2 SWAP1 POP SWAP2 SWAP1 POP JUMP JUMPDEST PUSH0 PUSH2 0xEF8 PUSH2 0xEF3 PUSH2 0xEEE DUP5 PUSH2 0x8BE JUMP JUMPDEST PUSH2 0xED5 JUMP JUMPDEST PUSH2 0x8BE JUMP JUMPDEST SWAP1 POP SWAP2 SWAP1 POP JUMP JUMPDEST PUSH0 DUP2 SWAP1 POP SWAP2 SWAP1 POP JUMP JUMPDEST PUSH2 0xF11 DUP4 PUSH2 0xEDE JUMP JUMPDEST PUSH2 0xF25 PUSH2 0xF1D DUP3 PUSH2 0xEFF JUMP JUMPDEST DUP5 DUP5 SLOAD PUSH2 0xE84 JUMP JUMPDEST DUP3 SSTORE POP POP POP POP JUMP JUMPDEST PUSH0 PUSH0 SWAP1 POP SWAP1 JUMP JUMPDEST PUSH2 0xF3C PUSH2 0xF2D JUMP JUMPDEST PUSH2 0xF47 DUP2 DUP5 DUP5 PUSH2 0xF08 JUMP JUMPDEST POP POP POP JUMP JUMPDEST JUMPDEST DUP2 DUP2 LT ISZERO PUSH2 0xF6A JUMPI PUSH2 0xF5F PUSH0 DUP3 PUSH2 0xF34 JUMP JUMPDEST PUSH1 0x1 DUP2 ADD SWAP1 POP PUSH2 0xF4D JUMP JUMPDEST POP POP JUMP JUMPDEST PUSH1 0x1F DUP3 GT ISZERO PUSH2 0xFAF JUMPI PUSH2 0xF80 DUP2 PUSH2 0xE57 JUMP JUMPDEST PUSH2 0xF89 DUP5 PUSH2 0xE69 JUMP JUMPDEST DUP2 ADD PUSH1 0x20 DUP6 LT ISZERO PUSH2 0xF98 JUMPI DUP2 SWAP1 POP JUMPDEST PUSH2 0xFAC PUSH2 0xFA4 DUP6 PUSH2 0xE69 JUMP JUMPDEST DUP4 ADD DUP3 PUSH2 0xF4C JUMP JUMPDEST POP POP JUMPDEST POP POP POP JUMP JUMPDEST PUSH0 DUP3 DUP3 SHR SWAP1 POP SWAP3 SWAP2 POP POP JUMP JUMPDEST PUSH0 PUSH2 0xFCF PUSH0 NOT DUP5 PUSH1 0x8 MUL PUSH2 0xFB4 JUMP JUMPDEST NOT DUP1 DUP4 AND SWAP2 POP POP SWAP3 SWAP2 POP POP JUMP JUMPDEST PUSH0 PUSH2 0xFE7 DUP4 DUP4 PUSH2 0xFC0 JUMP JUMPDEST SWAP2 POP DUP3 PUSH1 0x2 MUL DUP3 OR SWAP1 POP SWAP3 SWAP2 POP POP JUMP JUMPDEST PUSH2 0x1000 DUP3 PUSH2 0x94D JUMP JUMPDEST PUSH8 0xFFFFFFFFFFFFFFFF DUP2 GT ISZERO PUSH2 0x1019 JUMPI PUSH2 0x1018 PUSH2 0xBFC JUMP JUMPDEST JUMPDEST PUSH2 0x1023 DUP3 SLOAD PUSH2 0xDBF JUMP JUMPDEST PUSH2 0x102E DUP3 DUP3 DUP6 PUSH2 0xF6E JUMP JUMPDEST PUSH0 PUSH1 0x20 SWAP1 POP PUSH1 0x1F DUP4 GT PUSH1 0x1 DUP2 EQ PUSH2 0x105F JUMPI PUSH0 DUP5 ISZERO PUSH2 0x104D JUMPI DUP3 DUP8 ADD MLOAD SWAP1 POP JUMPDEST PUSH2 0x1057 DUP6 DUP3 PUSH2 0xFDC JUMP JUMPDEST DUP7 SSTORE POP PUSH2 0x10BE JUMP JUMPDEST PUSH1 0x1F NOT DUP5 AND PUSH2 0x106D DUP7 PUSH2 0xE57 JUMP JUMPDEST PUSH0 JUMPDEST DUP3 DUP2 LT ISZERO PUSH2 0x1094 JUMPI DUP5 DUP10 ADD MLOAD DUP3 SSTORE PUSH1 0x1 DUP3 ADD SWAP2 POP PUSH1 0x20 DUP6 ADD SWAP5 POP PUSH1 0x20 DUP2 ADD SWAP1 POP PUSH2 0x106F JUMP JUMPDEST DUP7 DUP4 LT ISZERO PUSH2 0x10B1 JUMPI DUP5 DUP10 ADD MLOAD PUSH2 0x10AD PUSH1 0x1F DUP10 AND DUP3 PUSH2 0xFC0 JUMP JUMPDEST DUP4 SSTORE POP JUMPDEST PUSH1 0x1 PUSH1 0x2 DUP9 MUL ADD DUP9 SSTORE POP POP POP JUMPDEST POP POP POP POP POP POP JUMP JUMPDEST PUSH0 PUSH1 0x80 DUP3 ADD SWAP1 POP PUSH2 0x10D9 PUSH0 DUP4 ADD DUP8 PUSH2 0x92F JUMP JUMPDEST PUSH2 0x10E6 PUSH1 0x20 DUP4 ADD DUP7 PUSH2 0x93E JUMP JUMPDEST DUP2 DUP2 SUB PUSH1 0x40 DUP4 ADD MSTORE PUSH2 0x10F8 DUP2 DUP6 PUSH2 0x985 JUMP JUMPDEST SWAP1 POP PUSH2 0x1107 PUSH1 0x60 DUP4 ADD DUP5 PUSH2 0x92F JUMP JUMPDEST SWAP6 SWAP5 POP POP POP POP POP JUMP INVALID LOG2 PUSH5 0x6970667358 0x22 SLT KECCAK256 0x2F 0xFC 0x2F MSIZE SWAP11 MULMOD PUSH22 0x3BE6F26F3913E0F020C48E0BCC1AB4EB11A644563900 0xBD INVALID 0xD3 PUSH5 0x736F6C6343 STOP ADDMOD 0x1E STOP CALLER "
				},
				"gasEstimates": {
					"creation": {
						"codeDepositCost": "884400",
						"executionCost": "920",
						"totalCost": "885320"
					},
					"external": {
						"allTweets(uint256)": "infinite",
						"createTweet(string)": "infinite",
						"getAllTweets()": "infinite",
						"getUserTweets(address)": "infinite",
						"tweets(address,uint256)": "infinite"
					}
				},
				"methodIdentifiers": {
					"allTweets(uint256)": "e28350b7",
					"createTweet(string)": "7c9cd2bc",
					"getAllTweets()": "53256135",
					"getUserTweets(address)": "2f5899d7",
					"tweets(address,uint256)": "05a1b4a9"
				}
			},
			"storageLayout": {
				"storage": [
					{
						"astId": 19,
						"contract": "contracts/ultimate-solidity-course-for-complete-beginners-main/ultimate-solidity-course-for-complete-beginners-main/Exercises/21-Twitter-AddEvent-Exercise.sol:TwitterDapp",
						"label": "allTweets",
						"offset": 0,
						"slot": "0",
						"type": "t_array(t_struct(Tweet)15_storage)dyn_storage"
					},
					{
						"astId": 25,
						"contract": "contracts/ultimate-solidity-course-for-complete-beginners-main/ultimate-solidity-course-for-complete-beginners-main/Exercises/21-Twitter-AddEvent-Exercise.sol:TwitterDapp",
						"label": "tweets",
						"offset": 0,
						"slot": "1",
						"type": "t_mapping(t_address,t_array(t_struct(Tweet)15_storage)dyn_storage)"
					}
				],
				"types": {
					"t_address": {
						"encoding": "inplace",
						"label": "address",
						"numberOfBytes": "20"
					},
					"t_array(t_struct(Tweet)15_storage)dyn_storage": {
						"base": "t_struct(Tweet)15_storage",
						"encoding": "dynamic_array",
						"label": "struct TwitterDapp.Tweet[]",
						"numberOfBytes": "32"
					},
					"t_mapping(t_address,t_array(t_struct(Tweet)15_storage)dyn_storage)": {
						"encoding": "mapping",
						"key": "t_address",
						"label": "mapping(address => struct TwitterDapp.Tweet[])",
						"numberOfBytes": "32",
						"value": "t_array(t_struct(Tweet)15_storage)dyn_storage"
					},
					"t_string_storage": {
						"encoding": "bytes",
						"label": "string",
						"numberOfBytes": "32"
					},
					"t_struct(Tweet)15_storage": {
						"encoding": "inplace",
						"label": "struct TwitterDapp.Tweet",
						"members": [
							{
								"astId": 6,
								"contract": "contracts/ultimate-solidity-course-for-complete-beginners-main/ultimate-solidity-course-for-complete-beginners-main/Exercises/21-Twitter-AddEvent-Exercise.sol:TwitterDapp",
								"label": "id",
								"offset": 0,
								"slot": "0",
								"type": "t_uint256"
							},
							{
								"astId": 8,
								"contract": "contracts/ultimate-solidity-course-for-complete-beginners-main/ultimate-solidity-course-for-complete-beginners-main/Exercises/21-Twitter-AddEvent-Exercise.sol:TwitterDapp",
								"label": "author",
								"offset": 0,
								"slot": "1",
								"type": "t_address"
							},
							{
								"astId": 10,
								"contract": "contracts/ultimate-solidity-course-for-complete-beginners-main/ultimate-solidity-course-for-complete-beginners-main/Exercises/21-Twitter-AddEvent-Exercise.sol:TwitterDapp",
								"label": "content",
								"offset": 0,
								"slot": "2",
								"type": "t_string_storage"
							},
							{
								"astId": 12,
								"contract": "contracts/ultimate-solidity-course-for-complete-beginners-main/ultimate-solidity-course-for-complete-beginners-main/Exercises/21-Twitter-AddEvent-Exercise.sol:TwitterDapp",
								"label": "timestamp",
								"offset": 0,
								"slot": "3",
								"type": "t_uint256"
							},
							{
								"astId": 14,
								"contract": "contracts/ultimate-solidity-course-for-complete-beginners-main/ultimate-solidity-course-for-complete-beginners-main/Exercises/21-Twitter-AddEvent-Exercise.sol:TwitterDapp",
								"label": "likes",
								"offset": 0,
								"slot": "4",
								"type": "t_uint256"
							}
						],
						"numberOfBytes": "160"
					},
					"t_uint256": {
						"encoding": "inplace",
						"label": "uint256",
						"numberOfBytes": "32"
					}
				}
			},
			"userdoc": {
				"kind": "user",
				"methods": {},
				"version": 1
			}
		}
	}
}