{
	"new.sol": {
		"Verification": {
			"abi": [
				{
					"inputs": [],
					"stateMutability": "nonpayable",
					"type": "constructor"
				},
				{
					"anonymous": false,
					"inputs": [
						{
							"indexed": true,
							"internalType": "address",
							"name": "_exporter",
							"type": "address"
						},
						{
							"indexed": false,
							"internalType": "string",
							"name": "_ipfsHash",
							"type": "string"
						}
					],
					"name": "addHash",
					"type": "event"
				},
				{
					"inputs": [
						{
							"internalType": "bytes32",
							"name": "hash",
							"type": "bytes32"
						},
						{
							"internalType": "string",
							"name": "_ipfs",
							"type": "string"
						}
					],
					"name": "addDocHash",
					"outputs": [],
					"stateMutability": "nonpayable",
					"type": "function"
				},
				{
					"inputs": [
						{
							"internalType": "address",
							"name": "_add",
							"type": "address"
						},
						{
							"internalType": "string",
							"name": "_info",
							"type": "string"
						}
					],
					"name": "add_Exporter",
					"outputs": [],
					"stateMutability": "nonpayable",
					"type": "function"
				},
				{
					"inputs": [
						{
							"internalType": "address",
							"name": "_add",
							"type": "address"
						},
						{
							"internalType": "string",
							"name": "_newInfo",
							"type": "string"
						}
					],
					"name": "alter_Exporter",
					"outputs": [],
					"stateMutability": "nonpayable",
					"type": "function"
				},
				{
					"inputs": [
						{
							"internalType": "address",
							"name": "_newOwner",
							"type": "address"
						}
					],
					"name": "changeOwner",
					"outputs": [],
					"stateMutability": "nonpayable",
					"type": "function"
				},
				{
					"inputs": [],
					"name": "count_Exporters",
					"outputs": [
						{
							"internalType": "uint16",
							"name": "",
							"type": "uint16"
						}
					],
					"stateMutability": "view",
					"type": "function"
				},
				{
					"inputs": [],
					"name": "count_hashes",
					"outputs": [
						{
							"internalType": "uint16",
							"name": "",
							"type": "uint16"
						}
					],
					"stateMutability": "view",
					"type": "function"
				},
				{
					"inputs": [
						{
							"internalType": "bytes32",
							"name": "_hash",
							"type": "bytes32"
						}
					],
					"name": "deleteHash",
					"outputs": [],
					"stateMutability": "nonpayable",
					"type": "function"
				},
				{
					"inputs": [
						{
							"internalType": "address",
							"name": "_add",
							"type": "address"
						}
					],
					"name": "delete_Exporter",
					"outputs": [],
					"stateMutability": "nonpayable",
					"type": "function"
				},
				{
					"inputs": [
						{
							"internalType": "bytes32",
							"name": "_hash",
							"type": "bytes32"
						}
					],
					"name": "findDocHash",
					"outputs": [
						{
							"internalType": "uint256",
							"name": "",
							"type": "uint256"
						},
						{
							"internalType": "uint256",
							"name": "",
							"type": "uint256"
						},
						{
							"internalType": "string",
							"name": "",
							"type": "string"
						},
						{
							"internalType": "string",
							"name": "",
							"type": "string"
						}
					],
					"stateMutability": "view",
					"type": "function"
				},
				{
					"inputs": [
						{
							"internalType": "address",
							"name": "_add",
							"type": "address"
						}
					],
					"name": "getExporterInfo",
					"outputs": [
						{
							"internalType": "string",
							"name": "",
							"type": "string"
						}
					],
					"stateMutability": "view",
					"type": "function"
				},
				{
					"inputs": [],
					"name": "owner",
					"outputs": [
						{
							"internalType": "address",
							"name": "",
							"type": "address"
						}
					],
					"stateMutability": "view",
					"type": "function"
				}
			],
			"devdoc": {
				"kind": "dev",
				"methods": {},
				"version": 1
			},
			"evm": {
				"assembly": "    /* \"new.sol\":74:3504  contract Verification {... */\n  mstore(0x40, 0x80)\n    /* \"new.sol\":177:178  0 */\n  0x00\n    /* \"new.sol\":146:178  uint16 public count_Exporters =0 */\n  0x00\n  exp(0x0100, 0x00)\n  dup2\n  sload\n  dup2\n  0xffff\n  mul\n  not\n  and\n  swap1\n  dup4\n  0xffff\n  and\n  mul\n  or\n  swap1\n  sstore\n  pop\n    /* \"new.sol\":212:213  0 */\n  0x00\n    /* \"new.sol\":185:213  uint16 public count_hashes=0 */\n  0x00\n  exp(0x0100, 0x02)\n  dup2\n  sload\n  dup2\n  0xffff\n  mul\n  not\n  and\n  swap1\n  dup4\n  0xffff\n  and\n  mul\n  or\n  swap1\n  sstore\n  pop\n    /* \"new.sol\":103:140  constructor() { owner = msg.sender; } */\n  callvalue\n  dup1\n  iszero\n  tag_1\n  jumpi\n  revert(0x00, 0x00)\ntag_1:\n  pop\n    /* \"new.sol\":127:137  msg.sender */\n  caller\n    /* \"new.sol\":119:124  owner */\n  0x00\n  0x04\n    /* \"new.sol\":119:137  owner = msg.sender */\n  0x0100\n  exp\n  dup2\n  sload\n  dup2\n  0xffffffffffffffffffffffffffffffffffffffff\n  mul\n  not\n  and\n  swap1\n  dup4\n  0xffffffffffffffffffffffffffffffffffffffff\n  and\n  mul\n  or\n  swap1\n  sstore\n  pop\n    /* \"new.sol\":74:3504  contract Verification {... */\n  dataSize(sub_0)\n  dup1\n  dataOffset(sub_0)\n  0x00\n  codecopy\n  0x00\n  return\nstop\n\nsub_0: assembly {\n        /* \"new.sol\":74:3504  contract Verification {... */\n      mstore(0x40, 0x80)\n      callvalue\n      dup1\n      iszero\n      tag_1\n      jumpi\n      revert(0x00, 0x00)\n    tag_1:\n      pop\n      jumpi(tag_2, lt(calldatasize, 0x04))\n      shr(0xe0, calldataload(0x00))\n      dup1\n      0x63f0bfce\n      gt\n      tag_14\n      jumpi\n      dup1\n      0x63f0bfce\n      eq\n      tag_8\n      jumpi\n      dup1\n      0x6ed73e48\n      eq\n      tag_9\n      jumpi\n      dup1\n      0x8da5cb5b\n      eq\n      tag_10\n      jumpi\n      dup1\n      0xa6f9dae1\n      eq\n      tag_11\n      jumpi\n      dup1\n      0xbf3ccf48\n      eq\n      tag_12\n      jumpi\n      dup1\n      0xcf3457bf\n      eq\n      tag_13\n      jumpi\n      jump(tag_2)\n    tag_14:\n      dup1\n      0x05c8dc19\n      eq\n      tag_3\n      jumpi\n      dup1\n      0x24ac89cb\n      eq\n      tag_4\n      jumpi\n      dup1\n      0x43f6f548\n      eq\n      tag_5\n      jumpi\n      dup1\n      0x4cf00d3f\n      eq\n      tag_6\n      jumpi\n      dup1\n      0x505cd5d0\n      eq\n      tag_7\n      jumpi\n    tag_2:\n      revert(0x00, 0x00)\n        /* \"new.sol\":3375:3501  function  getExporterInfo(address _add) external view returns(string memory){... */\n    tag_3:\n      tag_15\n      0x04\n      dup1\n      calldatasize\n      sub\n      dup2\n      add\n      swap1\n      tag_16\n      swap2\n      swap1\n      tag_17\n      jump\t// in\n    tag_16:\n      tag_18\n      jump\t// in\n    tag_15:\n      mload(0x40)\n      tag_19\n      swap2\n      swap1\n      tag_20\n      jump\t// in\n    tag_19:\n      mload(0x40)\n      dup1\n      swap2\n      sub\n      swap1\n      return\n        /* \"new.sol\":1753:1996  function delete_Exporter(address _add) external  ... */\n    tag_4:\n      tag_21\n      0x04\n      dup1\n      calldatasize\n      sub\n      dup2\n      add\n      swap1\n      tag_22\n      swap2\n      swap1\n      tag_17\n      jump\t// in\n    tag_22:\n      tag_23\n      jump\t// in\n    tag_21:\n      stop\n        /* \"new.sol\":185:213  uint16 public count_hashes=0 */\n    tag_5:\n      tag_24\n      tag_25\n      jump\t// in\n    tag_24:\n      mload(0x40)\n      tag_26\n      swap2\n      swap1\n      tag_27\n      jump\t// in\n    tag_26:\n      mload(0x40)\n      dup1\n      swap2\n      sub\n      swap1\n      return\n        /* \"new.sol\":2852:3104  function findDocHash (bytes32 _hash) ... */\n    tag_6:\n      tag_28\n      0x04\n      dup1\n      calldatasize\n      sub\n      dup2\n      add\n      swap1\n      tag_29\n      swap2\n      swap1\n      tag_30\n      jump\t// in\n    tag_29:\n      tag_31\n      jump\t// in\n    tag_28:\n      mload(0x40)\n      tag_32\n      swap5\n      swap4\n      swap3\n      swap2\n      swap1\n      tag_33\n      jump\t// in\n    tag_32:\n      mload(0x40)\n      dup1\n      swap2\n      sub\n      swap1\n      return\n        /* \"new.sol\":2012:2208  function alter_Exporter(address _add,string calldata    _newInfo) public... */\n    tag_7:\n      tag_34\n      0x04\n      dup1\n      calldatasize\n      sub\n      dup2\n      add\n      swap1\n      tag_35\n      swap2\n      swap1\n      tag_36\n      jump\t// in\n    tag_35:\n      tag_37\n      jump\t// in\n    tag_34:\n      stop\n        /* \"new.sol\":3112:3363  function deleteHash (bytes32 _hash) public... */\n    tag_8:\n      tag_38\n      0x04\n      dup1\n      calldatasize\n      sub\n      dup2\n      add\n      swap1\n      tag_39\n      swap2\n      swap1\n      tag_30\n      jump\t// in\n    tag_39:\n      tag_40\n      jump\t// in\n    tag_38:\n      stop\n        /* \"new.sol\":146:178  uint16 public count_Exporters =0 */\n    tag_9:\n      tag_41\n      tag_42\n      jump\t// in\n    tag_41:\n      mload(0x40)\n      tag_43\n      swap2\n      swap1\n      tag_27\n      jump\t// in\n    tag_43:\n      mload(0x40)\n      dup1\n      swap2\n      sub\n      swap1\n      return\n        /* \"new.sol\":220:240  address public owner */\n    tag_10:\n      tag_44\n      tag_45\n      jump\t// in\n    tag_44:\n      mload(0x40)\n      tag_46\n      swap2\n      swap1\n      tag_47\n      jump\t// in\n    tag_46:\n      mload(0x40)\n      dup1\n      swap2\n      sub\n      swap1\n      return\n        /* \"new.sol\":2216:2333  function changeOwner(address _newOwner) public ... */\n    tag_11:\n      tag_48\n      0x04\n      dup1\n      calldatasize\n      sub\n      dup2\n      add\n      swap1\n      tag_49\n      swap2\n      swap1\n      tag_17\n      jump\t// in\n    tag_49:\n      tag_50\n      jump\t// in\n    tag_48:\n      stop\n        /* \"new.sol\":2409:2836  function addDocHash (bytes32  hash,string calldata _ipfs) public ... */\n    tag_12:\n      tag_51\n      0x04\n      dup1\n      calldatasize\n      sub\n      dup2\n      add\n      swap1\n      tag_52\n      swap2\n      swap1\n      tag_53\n      jump\t// in\n    tag_52:\n      tag_54\n      jump\t// in\n    tag_51:\n      stop\n        /* \"new.sol\":1453:1745  function add_Exporter(address _add,string calldata _info) external... */\n    tag_13:\n      tag_55\n      0x04\n      dup1\n      calldatasize\n      sub\n      dup2\n      add\n      swap1\n      tag_56\n      swap2\n      swap1\n      tag_36\n      jump\t// in\n    tag_56:\n      tag_57\n      jump\t// in\n    tag_55:\n      stop\n        /* \"new.sol\":3375:3501  function  getExporterInfo(address _add) external view returns(string memory){... */\n    tag_18:\n        /* \"new.sol\":3437:3450  string memory */\n      0x60\n        /* \"new.sol\":3472:3481  Exporters */\n      0x02\n        /* \"new.sol\":3472:3487  Exporters[_add] */\n      0x00\n        /* \"new.sol\":3482:3486  _add */\n      dup4\n        /* \"new.sol\":3472:3487  Exporters[_add] */\n      0xffffffffffffffffffffffffffffffffffffffff\n      and\n      0xffffffffffffffffffffffffffffffffffffffff\n      and\n      dup2\n      mstore\n      0x20\n      add\n      swap1\n      dup2\n      mstore\n      0x20\n      add\n      0x00\n      keccak256\n        /* \"new.sol\":3472:3492  Exporters[_add].info */\n      0x01\n      add\n        /* \"new.sol\":3464:3493  return (Exporters[_add].info) */\n      dup1\n      sload\n      tag_59\n      swap1\n      tag_60\n      jump\t// in\n    tag_59:\n      dup1\n      0x1f\n      add\n      0x20\n      dup1\n      swap2\n      div\n      mul\n      0x20\n      add\n      mload(0x40)\n      swap1\n      dup2\n      add\n      0x40\n      mstore\n      dup1\n      swap3\n      swap2\n      swap1\n      dup2\n      dup2\n      mstore\n      0x20\n      add\n      dup3\n      dup1\n      sload\n      tag_61\n      swap1\n      tag_60\n      jump\t// in\n    tag_61:\n      dup1\n      iszero\n      tag_62\n      jumpi\n      dup1\n      0x1f\n      lt\n      tag_63\n      jumpi\n      0x0100\n      dup1\n      dup4\n      sload\n      div\n      mul\n      dup4\n      mstore\n      swap2\n      0x20\n      add\n      swap2\n      jump(tag_62)\n    tag_63:\n      dup3\n      add\n      swap2\n      swap1\n      0x00\n      mstore\n      keccak256(0x00, 0x20)\n      swap1\n    tag_64:\n      dup2\n      sload\n      dup2\n      mstore\n      swap1\n      0x01\n      add\n      swap1\n      0x20\n      add\n      dup1\n      dup4\n      gt\n      tag_64\n      jumpi\n      dup3\n      swap1\n      sub\n      0x1f\n      and\n      dup3\n      add\n      swap2\n    tag_62:\n      pop\n      pop\n      pop\n      pop\n      pop\n      swap1\n      pop\n        /* \"new.sol\":3375:3501  function  getExporterInfo(address _add) external view returns(string memory){... */\n      swap2\n      swap1\n      pop\n      jump\t// out\n        /* \"new.sol\":1753:1996  function delete_Exporter(address _add) external  ... */\n    tag_23:\n        /* \"new.sol\":764:769  owner */\n      0x00\n      0x04\n      swap1\n      sload\n      swap1\n      0x0100\n      exp\n      swap1\n      div\n      0xffffffffffffffffffffffffffffffffffffffff\n      and\n        /* \"new.sol\":750:769  msg.sender != owner */\n      0xffffffffffffffffffffffffffffffffffffffff\n      and\n        /* \"new.sol\":750:760  msg.sender */\n      caller\n        /* \"new.sol\":750:769  msg.sender != owner */\n      0xffffffffffffffffffffffffffffffffffffffff\n      and\n      eq\n        /* \"new.sol\":746:822  if (msg.sender != owner) {... */\n      tag_66\n      jumpi\n        /* \"new.sol\":786:819  revert(\"Caller is not the owner\") */\n      mload(0x40)\n      0x08c379a000000000000000000000000000000000000000000000000000000000\n      dup2\n      mstore\n      0x04\n      add\n      tag_67\n      swap1\n      tag_68\n      jump\t// in\n    tag_67:\n      mload(0x40)\n      dup1\n      swap2\n      sub\n      swap1\n      revert\n        /* \"new.sol\":746:822  if (msg.sender != owner) {... */\n    tag_66:\n        /* \"new.sol\":1870:1871  0 */\n      0x00\n        /* \"new.sol\":1841:1850  Exporters */\n      0x02\n        /* \"new.sol\":1841:1856  Exporters[_add] */\n      0x00\n        /* \"new.sol\":1851:1855  _add */\n      dup4\n        /* \"new.sol\":1841:1856  Exporters[_add] */\n      0xffffffffffffffffffffffffffffffffffffffff\n      and\n      0xffffffffffffffffffffffffffffffffffffffff\n      and\n      dup2\n      mstore\n      0x20\n      add\n      swap1\n      dup2\n      mstore\n      0x20\n      add\n      0x00\n      keccak256\n        /* \"new.sol\":1841:1868  Exporters[_add].blockNumber */\n      0x00\n      add\n      sload\n        /* \"new.sol\":1841:1871  Exporters[_add].blockNumber!=0 */\n      sub\n        /* \"new.sol\":1834:1872  assert(Exporters[_add].blockNumber!=0) */\n      tag_70\n      jumpi\n      tag_71\n      tag_72\n      jump\t// in\n    tag_71:\n    tag_70:\n        /* \"new.sol\":1921:1922  0 */\n      0x00\n        /* \"new.sol\":1893:1902  Exporters */\n      0x02\n        /* \"new.sol\":1893:1908  Exporters[_add] */\n      0x00\n        /* \"new.sol\":1903:1907  _add */\n      dup4\n        /* \"new.sol\":1893:1908  Exporters[_add] */\n      0xffffffffffffffffffffffffffffffffffffffff\n      and\n      0xffffffffffffffffffffffffffffffffffffffff\n      and\n      dup2\n      mstore\n      0x20\n      add\n      swap1\n      dup2\n      mstore\n      0x20\n      add\n      0x00\n      keccak256\n        /* \"new.sol\":1893:1920  Exporters[_add].blockNumber */\n      0x00\n      add\n        /* \"new.sol\":1893:1922  Exporters[_add].blockNumber=0 */\n      dup2\n      swap1\n      sstore\n      pop\n        /* \"new.sol\":1933:1956  Exporters[_add].info=\"\" */\n      mload(0x40)\n      dup1\n      0x20\n      add\n      0x40\n      mstore\n      dup1\n      0x00\n      dup2\n      mstore\n      pop\n        /* \"new.sol\":1933:1942  Exporters */\n      0x02\n        /* \"new.sol\":1933:1948  Exporters[_add] */\n      0x00\n        /* \"new.sol\":1943:1947  _add */\n      dup4\n        /* \"new.sol\":1933:1948  Exporters[_add] */\n      0xffffffffffffffffffffffffffffffffffffffff\n      and\n      0xffffffffffffffffffffffffffffffffffffffff\n      and\n      dup2\n      mstore\n      0x20\n      add\n      swap1\n      dup2\n      mstore\n      0x20\n      add\n      0x00\n      keccak256\n        /* \"new.sol\":1933:1953  Exporters[_add].info */\n      0x01\n      add\n        /* \"new.sol\":1933:1956  Exporters[_add].info=\"\" */\n      swap1\n      dup2\n      tag_73\n      swap2\n      swap1\n      tag_74\n      jump\t// in\n    tag_73:\n      pop\n        /* \"new.sol\":1969:1984  count_Exporters */\n      0x00\n      0x00\n        /* \"new.sol\":1967:1984  --count_Exporters */\n      dup2\n      dup2\n      swap1\n      sload\n      swap1\n      0x0100\n      exp\n      swap1\n      div\n      0xffff\n      and\n      tag_75\n      swap1\n      tag_76\n      jump\t// in\n    tag_75:\n      swap2\n      swap1\n      0x0100\n      exp\n      dup2\n      sload\n      dup2\n      0xffff\n      mul\n      not\n      and\n      swap1\n      dup4\n      0xffff\n      and\n      mul\n      or\n      swap1\n      sstore\n      pop\n        /* \"new.sol\":1753:1996  function delete_Exporter(address _add) external  ... */\n      pop\n      jump\t// out\n        /* \"new.sol\":185:213  uint16 public count_hashes=0 */\n    tag_25:\n      0x00\n      0x02\n      swap1\n      sload\n      swap1\n      0x0100\n      exp\n      swap1\n      div\n      0xffff\n      and\n      dup2\n      jump\t// out\n        /* \"new.sol\":2852:3104  function findDocHash (bytes32 _hash) ... */\n    tag_31:\n        /* \"new.sol\":2920:2924  uint */\n      0x00\n        /* \"new.sol\":2925:2929  uint */\n      0x00\n        /* \"new.sol\":2930:2943  string memory */\n      0x60\n        /* \"new.sol\":2944:2957  string memory */\n      dup1\n        /* \"new.sol\":2987:2996  docHashes */\n      0x01\n        /* \"new.sol\":2987:3003  docHashes[_hash] */\n      0x00\n        /* \"new.sol\":2997:3002  _hash */\n      dup7\n        /* \"new.sol\":2987:3003  docHashes[_hash] */\n      dup2\n      mstore\n      0x20\n      add\n      swap1\n      dup2\n      mstore\n      0x20\n      add\n      0x00\n      keccak256\n        /* \"new.sol\":2987:3015  docHashes[_hash].blockNumber */\n      0x00\n      add\n      sload\n        /* \"new.sol\":3016:3025  docHashes */\n      0x01\n        /* \"new.sol\":3016:3032  docHashes[_hash] */\n      0x00\n        /* \"new.sol\":3026:3031  _hash */\n      dup8\n        /* \"new.sol\":3016:3032  docHashes[_hash] */\n      dup2\n      mstore\n      0x20\n      add\n      swap1\n      dup2\n      mstore\n      0x20\n      add\n      0x00\n      keccak256\n        /* \"new.sol\":3016:3041  docHashes[_hash].minetime */\n      0x01\n      add\n      sload\n        /* \"new.sol\":3042:3051  docHashes */\n      0x01\n        /* \"new.sol\":3042:3058  docHashes[_hash] */\n      0x00\n        /* \"new.sol\":3052:3057  _hash */\n      dup9\n        /* \"new.sol\":3042:3058  docHashes[_hash] */\n      dup2\n      mstore\n      0x20\n      add\n      swap1\n      dup2\n      mstore\n      0x20\n      add\n      0x00\n      keccak256\n        /* \"new.sol\":3042:3063  docHashes[_hash].info */\n      0x02\n      add\n        /* \"new.sol\":3064:3073  docHashes */\n      0x01\n        /* \"new.sol\":3064:3080  docHashes[_hash] */\n      0x00\n        /* \"new.sol\":3074:3079  _hash */\n      dup10\n        /* \"new.sol\":3064:3080  docHashes[_hash] */\n      dup2\n      mstore\n      0x20\n      add\n      swap1\n      dup2\n      mstore\n      0x20\n      add\n      0x00\n      keccak256\n        /* \"new.sol\":3064:3090  docHashes[_hash].ipfs_hash */\n      0x03\n      add\n        /* \"new.sol\":2979:3092  return (docHashes[_hash].blockNumber,docHashes[_hash].minetime,docHashes[_hash].info,docHashes[_hash].ipfs_hash ) */\n      dup2\n      dup1\n      sload\n      tag_78\n      swap1\n      tag_60\n      jump\t// in\n    tag_78:\n      dup1\n      0x1f\n      add\n      0x20\n      dup1\n      swap2\n      div\n      mul\n      0x20\n      add\n      mload(0x40)\n      swap1\n      dup2\n      add\n      0x40\n      mstore\n      dup1\n      swap3\n      swap2\n      swap1\n      dup2\n      dup2\n      mstore\n      0x20\n      add\n      dup3\n      dup1\n      sload\n      tag_79\n      swap1\n      tag_60\n      jump\t// in\n    tag_79:\n      dup1\n      iszero\n      tag_80\n      jumpi\n      dup1\n      0x1f\n      lt\n      tag_81\n      jumpi\n      0x0100\n      dup1\n      dup4\n      sload\n      div\n      mul\n      dup4\n      mstore\n      swap2\n      0x20\n      add\n      swap2\n      jump(tag_80)\n    tag_81:\n      dup3\n      add\n      swap2\n      swap1\n      0x00\n      mstore\n      keccak256(0x00, 0x20)\n      swap1\n    tag_82:\n      dup2\n      sload\n      dup2\n      mstore\n      swap1\n      0x01\n      add\n      swap1\n      0x20\n      add\n      dup1\n      dup4\n      gt\n      tag_82\n      jumpi\n      dup3\n      swap1\n      sub\n      0x1f\n      and\n      dup3\n      add\n      swap2\n    tag_80:\n      pop\n      pop\n      pop\n      pop\n      pop\n      swap2\n      pop\n      dup1\n      dup1\n      sload\n      tag_83\n      swap1\n      tag_60\n      jump\t// in\n    tag_83:\n      dup1\n      0x1f\n      add\n      0x20\n      dup1\n      swap2\n      div\n      mul\n      0x20\n      add\n      mload(0x40)\n      swap1\n      dup2\n      add\n      0x40\n      mstore\n      dup1\n      swap3\n      swap2\n      swap1\n      dup2\n      dup2\n      mstore\n      0x20\n      add\n      dup3\n      dup1\n      sload\n      tag_84\n      swap1\n      tag_60\n      jump\t// in\n    tag_84:\n      dup1\n      iszero\n      tag_85\n      jumpi\n      dup1\n      0x1f\n      lt\n      tag_86\n      jumpi\n      0x0100\n      dup1\n      dup4\n      sload\n      div\n      mul\n      dup4\n      mstore\n      swap2\n      0x20\n      add\n      swap2\n      jump(tag_85)\n    tag_86:\n      dup3\n      add\n      swap2\n      swap1\n      0x00\n      mstore\n      keccak256(0x00, 0x20)\n      swap1\n    tag_87:\n      dup2\n      sload\n      dup2\n      mstore\n      swap1\n      0x01\n      add\n      swap1\n      0x20\n      add\n      dup1\n      dup4\n      gt\n      tag_87\n      jumpi\n      dup3\n      swap1\n      sub\n      0x1f\n      and\n      dup3\n      add\n      swap2\n    tag_85:\n      pop\n      pop\n      pop\n      pop\n      pop\n      swap1\n      pop\n      swap4\n      pop\n      swap4\n      pop\n      swap4\n      pop\n      swap4\n      pop\n        /* \"new.sol\":2852:3104  function findDocHash (bytes32 _hash) ... */\n      swap2\n      swap4\n      pop\n      swap2\n      swap4\n      jump\t// out\n        /* \"new.sol\":2012:2208  function alter_Exporter(address _add,string calldata    _newInfo) public... */\n    tag_37:\n        /* \"new.sol\":764:769  owner */\n      0x00\n      0x04\n      swap1\n      sload\n      swap1\n      0x0100\n      exp\n      swap1\n      div\n      0xffffffffffffffffffffffffffffffffffffffff\n      and\n        /* \"new.sol\":750:769  msg.sender != owner */\n      0xffffffffffffffffffffffffffffffffffffffff\n      and\n        /* \"new.sol\":750:760  msg.sender */\n      caller\n        /* \"new.sol\":750:769  msg.sender != owner */\n      0xffffffffffffffffffffffffffffffffffffffff\n      and\n      eq\n        /* \"new.sol\":746:822  if (msg.sender != owner) {... */\n      tag_89\n      jumpi\n        /* \"new.sol\":786:819  revert(\"Caller is not the owner\") */\n      mload(0x40)\n      0x08c379a000000000000000000000000000000000000000000000000000000000\n      dup2\n      mstore\n      0x04\n      add\n      tag_90\n      swap1\n      tag_68\n      jump\t// in\n    tag_90:\n      mload(0x40)\n      dup1\n      swap2\n      sub\n      swap1\n      revert\n        /* \"new.sol\":746:822  if (msg.sender != owner) {... */\n    tag_89:\n        /* \"new.sol\":2158:2159  0 */\n      0x00\n        /* \"new.sol\":2129:2138  Exporters */\n      0x02\n        /* \"new.sol\":2129:2144  Exporters[_add] */\n      0x00\n        /* \"new.sol\":2139:2143  _add */\n      dup6\n        /* \"new.sol\":2129:2144  Exporters[_add] */\n      0xffffffffffffffffffffffffffffffffffffffff\n      and\n      0xffffffffffffffffffffffffffffffffffffffff\n      and\n      dup2\n      mstore\n      0x20\n      add\n      swap1\n      dup2\n      mstore\n      0x20\n      add\n      0x00\n      keccak256\n        /* \"new.sol\":2129:2156  Exporters[_add].blockNumber */\n      0x00\n      add\n      sload\n        /* \"new.sol\":2129:2159  Exporters[_add].blockNumber!=0 */\n      sub\n        /* \"new.sol\":2122:2160  assert(Exporters[_add].blockNumber!=0) */\n      tag_92\n      jumpi\n      tag_93\n      tag_72\n      jump\t// in\n    tag_93:\n    tag_92:\n        /* \"new.sol\":2197:2205  _newInfo */\n      dup2\n      dup2\n        /* \"new.sol\":2176:2185  Exporters */\n      0x02\n        /* \"new.sol\":2176:2191  Exporters[_add] */\n      0x00\n        /* \"new.sol\":2186:2190  _add */\n      dup7\n        /* \"new.sol\":2176:2191  Exporters[_add] */\n      0xffffffffffffffffffffffffffffffffffffffff\n      and\n      0xffffffffffffffffffffffffffffffffffffffff\n      and\n      dup2\n      mstore\n      0x20\n      add\n      swap1\n      dup2\n      mstore\n      0x20\n      add\n      0x00\n      keccak256\n        /* \"new.sol\":2176:2196  Exporters[_add].info */\n      0x01\n      add\n        /* \"new.sol\":2176:2205  Exporters[_add].info=_newInfo */\n      swap2\n      dup3\n      tag_94\n      swap3\n      swap2\n      swap1\n      tag_95\n      jump\t// in\n    tag_94:\n      pop\n        /* \"new.sol\":2012:2208  function alter_Exporter(address _add,string calldata    _newInfo) public... */\n      pop\n      pop\n      pop\n      jump\t// out\n        /* \"new.sol\":3112:3363  function deleteHash (bytes32 _hash) public... */\n    tag_40:\n        /* \"new.sol\":3180:3185  _hash */\n      dup1\n        /* \"new.sol\":1082:1091  docHashes */\n      0x01\n        /* \"new.sol\":1082:1097  docHashes[_doc] */\n      0x00\n        /* \"new.sol\":1092:1096  _doc */\n      dup3\n        /* \"new.sol\":1082:1097  docHashes[_doc] */\n      dup2\n      mstore\n      0x20\n      add\n      swap1\n      dup2\n      mstore\n      0x20\n      add\n      0x00\n      keccak256\n        /* \"new.sol\":1082:1102  docHashes[_doc].info */\n      0x02\n      add\n        /* \"new.sol\":1064:1104  abi.encodePacked((docHashes[_doc].info)) */\n      add(0x20, mload(0x40))\n      tag_97\n      swap2\n      swap1\n      tag_98\n      jump\t// in\n    tag_97:\n      mload(0x40)\n      0x20\n      dup2\n      dup4\n      sub\n      sub\n      dup2\n      mstore\n      swap1\n      0x40\n      mstore\n        /* \"new.sol\":1054:1105  keccak256(abi.encodePacked((docHashes[_doc].info))) */\n      dup1\n      mload\n      swap1\n      0x20\n      add\n      keccak256\n        /* \"new.sol\":1021:1030  Exporters */\n      0x02\n        /* \"new.sol\":1021:1042  Exporters[msg.sender] */\n      0x00\n        /* \"new.sol\":1031:1041  msg.sender */\n      caller\n        /* \"new.sol\":1021:1042  Exporters[msg.sender] */\n      0xffffffffffffffffffffffffffffffffffffffff\n      and\n      0xffffffffffffffffffffffffffffffffffffffff\n      and\n      dup2\n      mstore\n      0x20\n      add\n      swap1\n      dup2\n      mstore\n      0x20\n      add\n      0x00\n      keccak256\n        /* \"new.sol\":1021:1047  Exporters[msg.sender].info */\n      0x01\n      add\n        /* \"new.sol\":1003:1050  abi.encodePacked((Exporters[msg.sender].info )) */\n      add(0x20, mload(0x40))\n      tag_99\n      swap2\n      swap1\n      tag_98\n      jump\t// in\n    tag_99:\n      mload(0x40)\n      0x20\n      dup2\n      dup4\n      sub\n      sub\n      dup2\n      mstore\n      swap1\n      0x40\n      mstore\n        /* \"new.sol\":993:1051  keccak256(abi.encodePacked((Exporters[msg.sender].info ))) */\n      dup1\n      mload\n      swap1\n      0x20\n      add\n      keccak256\n        /* \"new.sol\":993:1105  keccak256(abi.encodePacked((Exporters[msg.sender].info )))!= keccak256(abi.encodePacked((docHashes[_doc].info))) */\n      eq\n        /* \"new.sol\":989:1181  if (keccak256(abi.encodePacked((Exporters[msg.sender].info )))!= keccak256(abi.encodePacked((docHashes[_doc].info))))... */\n      tag_100\n      jumpi\n        /* \"new.sol\":1124:1181  revert(\"Caller is not  authorised to edit this document\") */\n      mload(0x40)\n      0x08c379a000000000000000000000000000000000000000000000000000000000\n      dup2\n      mstore\n      0x04\n      add\n      tag_101\n      swap1\n      tag_102\n      jump\t// in\n    tag_101:\n      mload(0x40)\n      dup1\n      swap2\n      sub\n      swap1\n      revert\n        /* \"new.sol\":989:1181  if (keccak256(abi.encodePacked((Exporters[msg.sender].info )))!= keccak256(abi.encodePacked((docHashes[_doc].info))))... */\n    tag_100:\n        /* \"new.sol\":1281:1282  0 */\n      0x00\n        /* \"new.sol\":1246:1255  Exporters */\n      0x02\n        /* \"new.sol\":1246:1267  Exporters[msg.sender] */\n      0x00\n        /* \"new.sol\":1256:1266  msg.sender */\n      caller\n        /* \"new.sol\":1246:1267  Exporters[msg.sender] */\n      0xffffffffffffffffffffffffffffffffffffffff\n      and\n      0xffffffffffffffffffffffffffffffffffffffff\n      and\n      dup2\n      mstore\n      0x20\n      add\n      swap1\n      dup2\n      mstore\n      0x20\n      add\n      0x00\n      keccak256\n        /* \"new.sol\":1246:1279  Exporters[msg.sender].blockNumber */\n      0x00\n      add\n      sload\n        /* \"new.sol\":1246:1282  Exporters[msg.sender].blockNumber!=0 */\n      sub\n        /* \"new.sol\":1238:1324  require(Exporters[msg.sender].blockNumber!=0,\"Caller not authorised to add documents\") */\n      tag_104\n      jumpi\n      mload(0x40)\n      0x08c379a000000000000000000000000000000000000000000000000000000000\n      dup2\n      mstore\n      0x04\n      add\n      tag_105\n      swap1\n      tag_106\n      jump\t// in\n    tag_105:\n      mload(0x40)\n      dup1\n      swap2\n      sub\n      swap1\n      revert\n    tag_104:\n        /* \"new.sol\":3249:3250  0 */\n      0x00\n        /* \"new.sol\":3222:3231  docHashes */\n      0x01\n        /* \"new.sol\":3222:3238  docHashes[_hash] */\n      0x00\n        /* \"new.sol\":3232:3237  _hash */\n      dup5\n        /* \"new.sol\":3222:3238  docHashes[_hash] */\n      dup2\n      mstore\n      0x20\n      add\n      swap1\n      dup2\n      mstore\n      0x20\n      add\n      0x00\n      keccak256\n        /* \"new.sol\":3222:3247  docHashes[_hash].minetime */\n      0x01\n      add\n      sload\n        /* \"new.sol\":3222:3250  docHashes[_hash].minetime!=0 */\n      sub\n        /* \"new.sol\":3215:3251  assert(docHashes[_hash].minetime!=0) */\n      tag_108\n      jumpi\n      tag_109\n      tag_72\n      jump\t// in\n    tag_109:\n    tag_108:\n        /* \"new.sol\":3287:3288  0 */\n      0x00\n        /* \"new.sol\":3258:3267  docHashes */\n      0x01\n        /* \"new.sol\":3258:3274  docHashes[_hash] */\n      0x00\n        /* \"new.sol\":3268:3273  _hash */\n      dup5\n        /* \"new.sol\":3258:3274  docHashes[_hash] */\n      dup2\n      mstore\n      0x20\n      add\n      swap1\n      dup2\n      mstore\n      0x20\n      add\n      0x00\n      keccak256\n        /* \"new.sol\":3258:3286  docHashes[_hash].blockNumber */\n      0x00\n      add\n        /* \"new.sol\":3258:3288  docHashes[_hash].blockNumber=0 */\n      dup2\n      swap1\n      sstore\n      pop\n        /* \"new.sol\":3321:3322  0 */\n      0x00\n        /* \"new.sol\":3295:3304  docHashes */\n      0x01\n        /* \"new.sol\":3295:3311  docHashes[_hash] */\n      0x00\n        /* \"new.sol\":3305:3310  _hash */\n      dup5\n        /* \"new.sol\":3295:3311  docHashes[_hash] */\n      dup2\n      mstore\n      0x20\n      add\n      swap1\n      dup2\n      mstore\n      0x20\n      add\n      0x00\n      keccak256\n        /* \"new.sol\":3295:3320  docHashes[_hash].minetime */\n      0x01\n      add\n        /* \"new.sol\":3295:3322  docHashes[_hash].minetime=0 */\n      dup2\n      swap1\n      sstore\n      pop\n        /* \"new.sol\":3337:3349  count_hashes */\n      0x00\n      0x02\n        /* \"new.sol\":3335:3349  --count_hashes */\n      dup2\n      dup2\n      swap1\n      sload\n      swap1\n      0x0100\n      exp\n      swap1\n      div\n      0xffff\n      and\n      tag_110\n      swap1\n      tag_76\n      jump\t// in\n    tag_110:\n      swap2\n      swap1\n      0x0100\n      exp\n      dup2\n      sload\n      dup2\n      0xffff\n      mul\n      not\n      and\n      swap1\n      dup4\n      0xffff\n      and\n      mul\n      or\n      swap1\n      sstore\n      pop\n        /* \"new.sol\":3112:3363  function deleteHash (bytes32 _hash) public... */\n      pop\n      pop\n      jump\t// out\n        /* \"new.sol\":146:178  uint16 public count_Exporters =0 */\n    tag_42:\n      0x00\n      0x00\n      swap1\n      sload\n      swap1\n      0x0100\n      exp\n      swap1\n      div\n      0xffff\n      and\n      dup2\n      jump\t// out\n        /* \"new.sol\":220:240  address public owner */\n    tag_45:\n      0x00\n      0x04\n      swap1\n      sload\n      swap1\n      0x0100\n      exp\n      swap1\n      div\n      0xffffffffffffffffffffffffffffffffffffffff\n      and\n      dup2\n      jump\t// out\n        /* \"new.sol\":2216:2333  function changeOwner(address _newOwner) public ... */\n    tag_50:\n        /* \"new.sol\":764:769  owner */\n      0x00\n      0x04\n      swap1\n      sload\n      swap1\n      0x0100\n      exp\n      swap1\n      div\n      0xffffffffffffffffffffffffffffffffffffffff\n      and\n        /* \"new.sol\":750:769  msg.sender != owner */\n      0xffffffffffffffffffffffffffffffffffffffff\n      and\n        /* \"new.sol\":750:760  msg.sender */\n      caller\n        /* \"new.sol\":750:769  msg.sender != owner */\n      0xffffffffffffffffffffffffffffffffffffffff\n      and\n      eq\n        /* \"new.sol\":746:822  if (msg.sender != owner) {... */\n      tag_112\n      jumpi\n        /* \"new.sol\":786:819  revert(\"Caller is not the owner\") */\n      mload(0x40)\n      0x08c379a000000000000000000000000000000000000000000000000000000000\n      dup2\n      mstore\n      0x04\n      add\n      tag_113\n      swap1\n      tag_68\n      jump\t// in\n    tag_113:\n      mload(0x40)\n      dup1\n      swap2\n      sub\n      swap1\n      revert\n        /* \"new.sol\":746:822  if (msg.sender != owner) {... */\n    tag_112:\n        /* \"new.sol\":2297:2306  _newOwner */\n      dup1\n        /* \"new.sol\":910:911  0 */\n      0x00\n        /* \"new.sol\":893:912  _addr != address(0) */\n      0xffffffffffffffffffffffffffffffffffffffff\n      and\n        /* \"new.sol\":893:898  _addr */\n      dup2\n        /* \"new.sol\":893:912  _addr != address(0) */\n      0xffffffffffffffffffffffffffffffffffffffff\n      and\n      sub\n        /* \"new.sol\":886:913  assert(_addr != address(0)) */\n      tag_115\n      jumpi\n      tag_116\n      tag_72\n      jump\t// in\n    tag_116:\n    tag_115:\n        /* \"new.sol\":2321:2330  _newOwner */\n      dup2\n        /* \"new.sol\":2313:2318  owner */\n      0x00\n      0x04\n        /* \"new.sol\":2313:2330  owner = _newOwner */\n      0x0100\n      exp\n      dup2\n      sload\n      dup2\n      0xffffffffffffffffffffffffffffffffffffffff\n      mul\n      not\n      and\n      swap1\n      dup4\n      0xffffffffffffffffffffffffffffffffffffffff\n      and\n      mul\n      or\n      swap1\n      sstore\n      pop\n        /* \"new.sol\":822:823  _ */\n      pop\n        /* \"new.sol\":2216:2333  function changeOwner(address _newOwner) public ... */\n      pop\n      jump\t// out\n        /* \"new.sol\":2409:2836  function addDocHash (bytes32  hash,string calldata _ipfs) public ... */\n    tag_54:\n        /* \"new.sol\":1281:1282  0 */\n      0x00\n        /* \"new.sol\":1246:1255  Exporters */\n      0x02\n        /* \"new.sol\":1246:1267  Exporters[msg.sender] */\n      0x00\n        /* \"new.sol\":1256:1266  msg.sender */\n      caller\n        /* \"new.sol\":1246:1267  Exporters[msg.sender] */\n      0xffffffffffffffffffffffffffffffffffffffff\n      and\n      0xffffffffffffffffffffffffffffffffffffffff\n      and\n      dup2\n      mstore\n      0x20\n      add\n      swap1\n      dup2\n      mstore\n      0x20\n      add\n      0x00\n      keccak256\n        /* \"new.sol\":1246:1279  Exporters[msg.sender].blockNumber */\n      0x00\n      add\n      sload\n        /* \"new.sol\":1246:1282  Exporters[msg.sender].blockNumber!=0 */\n      sub\n        /* \"new.sol\":1238:1324  require(Exporters[msg.sender].blockNumber!=0,\"Caller not authorised to add documents\") */\n      tag_119\n      jumpi\n      mload(0x40)\n      0x08c379a000000000000000000000000000000000000000000000000000000000\n      dup2\n      mstore\n      0x04\n      add\n      tag_120\n      swap1\n      tag_106\n      jump\t// in\n    tag_120:\n      mload(0x40)\n      dup1\n      swap2\n      sub\n      swap1\n      revert\n    tag_119:\n        /* \"new.sol\":2551:2552  0 */\n      0x00\n        /* \"new.sol\":2522:2531  docHashes */\n      0x01\n        /* \"new.sol\":2522:2537  docHashes[hash] */\n      0x00\n        /* \"new.sol\":2532:2536  hash */\n      dup6\n        /* \"new.sol\":2522:2537  docHashes[hash] */\n      dup2\n      mstore\n      0x20\n      add\n      swap1\n      dup2\n      mstore\n      0x20\n      add\n      0x00\n      keccak256\n        /* \"new.sol\":2522:2549  docHashes[hash].blockNumber */\n      0x00\n      add\n      sload\n        /* \"new.sol\":2522:2552  docHashes[hash].blockNumber==0 */\n      eq\n        /* \"new.sol\":2522:2583  docHashes[hash].blockNumber==0 && docHashes[hash].minetime==0 */\n      dup1\n      iszero\n      tag_122\n      jumpi\n      pop\n        /* \"new.sol\":2582:2583  0 */\n      0x00\n        /* \"new.sol\":2556:2565  docHashes */\n      0x01\n        /* \"new.sol\":2556:2571  docHashes[hash] */\n      0x00\n        /* \"new.sol\":2566:2570  hash */\n      dup6\n        /* \"new.sol\":2556:2571  docHashes[hash] */\n      dup2\n      mstore\n      0x20\n      add\n      swap1\n      dup2\n      mstore\n      0x20\n      add\n      0x00\n      keccak256\n        /* \"new.sol\":2556:2580  docHashes[hash].minetime */\n      0x01\n      add\n      sload\n        /* \"new.sol\":2556:2583  docHashes[hash].minetime==0 */\n      eq\n        /* \"new.sol\":2522:2583  docHashes[hash].blockNumber==0 && docHashes[hash].minetime==0 */\n    tag_122:\n        /* \"new.sol\":2515:2584  assert(docHashes[hash].blockNumber==0 && docHashes[hash].minetime==0) */\n      tag_123\n      jumpi\n      tag_124\n      tag_72\n      jump\t// in\n    tag_124:\n    tag_123:\n        /* \"new.sol\":2599:2623  Record memory  newRecord */\n      0x00\n        /* \"new.sol\":2640:2709  Record(block.number,block.timestamp,Exporters[msg.sender].info,_ipfs) */\n      mload(0x40)\n      dup1\n      0x80\n      add\n      0x40\n      mstore\n      dup1\n        /* \"new.sol\":2647:2659  block.number */\n      number\n        /* \"new.sol\":2640:2709  Record(block.number,block.timestamp,Exporters[msg.sender].info,_ipfs) */\n      dup2\n      mstore\n      0x20\n      add\n        /* \"new.sol\":2660:2675  block.timestamp */\n      timestamp\n        /* \"new.sol\":2640:2709  Record(block.number,block.timestamp,Exporters[msg.sender].info,_ipfs) */\n      dup2\n      mstore\n      0x20\n      add\n        /* \"new.sol\":2676:2685  Exporters */\n      0x02\n        /* \"new.sol\":2676:2697  Exporters[msg.sender] */\n      0x00\n        /* \"new.sol\":2686:2696  msg.sender */\n      caller\n        /* \"new.sol\":2676:2697  Exporters[msg.sender] */\n      0xffffffffffffffffffffffffffffffffffffffff\n      and\n      0xffffffffffffffffffffffffffffffffffffffff\n      and\n      dup2\n      mstore\n      0x20\n      add\n      swap1\n      dup2\n      mstore\n      0x20\n      add\n      0x00\n      keccak256\n        /* \"new.sol\":2676:2702  Exporters[msg.sender].info */\n      0x01\n      add\n        /* \"new.sol\":2640:2709  Record(block.number,block.timestamp,Exporters[msg.sender].info,_ipfs) */\n      dup1\n      sload\n      tag_125\n      swap1\n      tag_60\n      jump\t// in\n    tag_125:\n      dup1\n      0x1f\n      add\n      0x20\n      dup1\n      swap2\n      div\n      mul\n      0x20\n      add\n      mload(0x40)\n      swap1\n      dup2\n      add\n      0x40\n      mstore\n      dup1\n      swap3\n      swap2\n      swap1\n      dup2\n      dup2\n      mstore\n      0x20\n      add\n      dup3\n      dup1\n      sload\n      tag_126\n      swap1\n      tag_60\n      jump\t// in\n    tag_126:\n      dup1\n      iszero\n      tag_127\n      jumpi\n      dup1\n      0x1f\n      lt\n      tag_128\n      jumpi\n      0x0100\n      dup1\n      dup4\n      sload\n      div\n      mul\n      dup4\n      mstore\n      swap2\n      0x20\n      add\n      swap2\n      jump(tag_127)\n    tag_128:\n      dup3\n      add\n      swap2\n      swap1\n      0x00\n      mstore\n      keccak256(0x00, 0x20)\n      swap1\n    tag_129:\n      dup2\n      sload\n      dup2\n      mstore\n      swap1\n      0x01\n      add\n      swap1\n      0x20\n      add\n      dup1\n      dup4\n      gt\n      tag_129\n      jumpi\n      dup3\n      swap1\n      sub\n      0x1f\n      and\n      dup3\n      add\n      swap2\n    tag_127:\n      pop\n      pop\n      pop\n      pop\n      pop\n      dup2\n      mstore\n      0x20\n      add\n        /* \"new.sol\":2703:2708  _ipfs */\n      dup5\n      dup5\n        /* \"new.sol\":2640:2709  Record(block.number,block.timestamp,Exporters[msg.sender].info,_ipfs) */\n      dup1\n      dup1\n      0x1f\n      add\n      0x20\n      dup1\n      swap2\n      div\n      mul\n      0x20\n      add\n      mload(0x40)\n      swap1\n      dup2\n      add\n      0x40\n      mstore\n      dup1\n      swap4\n      swap3\n      swap2\n      swap1\n      dup2\n      dup2\n      mstore\n      0x20\n      add\n      dup4\n      dup4\n      dup1\n      dup3\n      dup5\n      calldatacopy\n      0x00\n      dup2\n      dup5\n      add\n      mstore\n      not(0x1f)\n      0x1f\n      dup3\n      add\n      and\n      swap1\n      pop\n      dup1\n      dup4\n      add\n      swap3\n      pop\n      pop\n      pop\n      pop\n      pop\n      pop\n      pop\n      dup2\n      mstore\n      pop\n        /* \"new.sol\":2599:2709  Record memory  newRecord = ... */\n      swap1\n      pop\n        /* \"new.sol\":2742:2751  newRecord */\n      dup1\n        /* \"new.sol\":2724:2733  docHashes */\n      0x01\n        /* \"new.sol\":2724:2739  docHashes[hash] */\n      0x00\n        /* \"new.sol\":2734:2738  hash */\n      dup7\n        /* \"new.sol\":2724:2739  docHashes[hash] */\n      dup2\n      mstore\n      0x20\n      add\n      swap1\n      dup2\n      mstore\n      0x20\n      add\n      0x00\n      keccak256\n        /* \"new.sol\":2724:2751  docHashes[hash] = newRecord */\n      0x00\n      dup3\n      add\n      mload\n      dup2\n      0x00\n      add\n      sstore\n      0x20\n      dup3\n      add\n      mload\n      dup2\n      0x01\n      add\n      sstore\n      0x40\n      dup3\n      add\n      mload\n      dup2\n      0x02\n      add\n      swap1\n      dup2\n      tag_130\n      swap2\n      swap1\n      tag_74\n      jump\t// in\n    tag_130:\n      pop\n      0x60\n      dup3\n      add\n      mload\n      dup2\n      0x03\n      add\n      swap1\n      dup2\n      tag_131\n      swap2\n      swap1\n      tag_74\n      jump\t// in\n    tag_131:\n      pop\n      swap1\n      pop\n      pop\n        /* \"new.sol\":2769:2781  count_hashes */\n      0x00\n      0x02\n        /* \"new.sol\":2767:2781  ++count_hashes */\n      dup2\n      dup2\n      swap1\n      sload\n      swap1\n      0x0100\n      exp\n      swap1\n      div\n      0xffff\n      and\n      tag_132\n      swap1\n      tag_133\n      jump\t// in\n    tag_132:\n      swap2\n      swap1\n      0x0100\n      exp\n      dup2\n      sload\n      dup2\n      0xffff\n      mul\n      not\n      and\n      swap1\n      dup4\n      0xffff\n      and\n      mul\n      or\n      swap1\n      sstore\n      pop\n        /* \"new.sol\":2809:2819  msg.sender */\n      caller\n        /* \"new.sol\":2801:2826  addHash(msg.sender,_ipfs) */\n      0xffffffffffffffffffffffffffffffffffffffff\n      and\n      0x331f916dac8170a5e3a8a5c82c9de7950bb6cadfb098253c080cb72851b26470\n        /* \"new.sol\":2820:2825  _ipfs */\n      dup5\n      dup5\n        /* \"new.sol\":2801:2826  addHash(msg.sender,_ipfs) */\n      mload(0x40)\n      tag_134\n      swap3\n      swap2\n      swap1\n      tag_135\n      jump\t// in\n    tag_134:\n      mload(0x40)\n      dup1\n      swap2\n      sub\n      swap1\n      log2\n        /* \"new.sol\":2500:2836  {... */\n      pop\n        /* \"new.sol\":2409:2836  function addDocHash (bytes32  hash,string calldata _ipfs) public ... */\n      pop\n      pop\n      pop\n      jump\t// out\n        /* \"new.sol\":1453:1745  function add_Exporter(address _add,string calldata _info) external... */\n    tag_57:\n        /* \"new.sol\":764:769  owner */\n      0x00\n      0x04\n      swap1\n      sload\n      swap1\n      0x0100\n      exp\n      swap1\n      div\n      0xffffffffffffffffffffffffffffffffffffffff\n      and\n        /* \"new.sol\":750:769  msg.sender != owner */\n      0xffffffffffffffffffffffffffffffffffffffff\n      and\n        /* \"new.sol\":750:760  msg.sender */\n      caller\n        /* \"new.sol\":750:769  msg.sender != owner */\n      0xffffffffffffffffffffffffffffffffffffffff\n      and\n      eq\n        /* \"new.sol\":746:822  if (msg.sender != owner) {... */\n      tag_137\n      jumpi\n        /* \"new.sol\":786:819  revert(\"Caller is not the owner\") */\n      mload(0x40)\n      0x08c379a000000000000000000000000000000000000000000000000000000000\n      dup2\n      mstore\n      0x04\n      add\n      tag_138\n      swap1\n      tag_68\n      jump\t// in\n    tag_138:\n      mload(0x40)\n      dup1\n      swap2\n      sub\n      swap1\n      revert\n        /* \"new.sol\":746:822  if (msg.sender != owner) {... */\n    tag_137:\n        /* \"new.sol\":1584:1585  0 */\n      0x00\n        /* \"new.sol\":1555:1564  Exporters */\n      0x02\n        /* \"new.sol\":1555:1570  Exporters[_add] */\n      0x00\n        /* \"new.sol\":1565:1569  _add */\n      dup6\n        /* \"new.sol\":1555:1570  Exporters[_add] */\n      0xffffffffffffffffffffffffffffffffffffffff\n      and\n      0xffffffffffffffffffffffffffffffffffffffff\n      and\n      dup2\n      mstore\n      0x20\n      add\n      swap1\n      dup2\n      mstore\n      0x20\n      add\n      0x00\n      keccak256\n        /* \"new.sol\":1555:1582  Exporters[_add].blockNumber */\n      0x00\n      add\n      sload\n        /* \"new.sol\":1555:1585  Exporters[_add].blockNumber==0 */\n      eq\n        /* \"new.sol\":1548:1586  assert(Exporters[_add].blockNumber==0) */\n      tag_140\n      jumpi\n      tag_141\n      tag_72\n      jump\t// in\n    tag_141:\n    tag_140:\n        /* \"new.sol\":1640:1652  block.number */\n      number\n        /* \"new.sol\":1610:1619  Exporters */\n      0x02\n        /* \"new.sol\":1610:1625  Exporters[_add] */\n      0x00\n        /* \"new.sol\":1620:1624  _add */\n      dup6\n        /* \"new.sol\":1610:1625  Exporters[_add] */\n      0xffffffffffffffffffffffffffffffffffffffff\n      and\n      0xffffffffffffffffffffffffffffffffffffffff\n      and\n      dup2\n      mstore\n      0x20\n      add\n      swap1\n      dup2\n      mstore\n      0x20\n      add\n      0x00\n      keccak256\n        /* \"new.sol\":1610:1637  Exporters[_add].blockNumber */\n      0x00\n      add\n        /* \"new.sol\":1610:1652  Exporters[_add].blockNumber = block.number */\n      dup2\n      swap1\n      sstore\n      pop\n        /* \"new.sol\":1688:1693  _info */\n      dup2\n      dup2\n        /* \"new.sol\":1665:1674  Exporters */\n      0x02\n        /* \"new.sol\":1665:1680  Exporters[_add] */\n      0x00\n        /* \"new.sol\":1675:1679  _add */\n      dup7\n        /* \"new.sol\":1665:1680  Exporters[_add] */\n      0xffffffffffffffffffffffffffffffffffffffff\n      and\n      0xffffffffffffffffffffffffffffffffffffffff\n      and\n      dup2\n      mstore\n      0x20\n      add\n      swap1\n      dup2\n      mstore\n      0x20\n      add\n      0x00\n      keccak256\n        /* \"new.sol\":1665:1685  Exporters[_add].info */\n      0x01\n      add\n        /* \"new.sol\":1665:1693  Exporters[_add].info = _info */\n      swap2\n      dup3\n      tag_142\n      swap3\n      swap2\n      swap1\n      tag_95\n      jump\t// in\n    tag_142:\n      pop\n        /* \"new.sol\":1708:1723  count_Exporters */\n      0x00\n      0x00\n        /* \"new.sol\":1706:1723  ++count_Exporters */\n      dup2\n      dup2\n      swap1\n      sload\n      swap1\n      0x0100\n      exp\n      swap1\n      div\n      0xffff\n      and\n      tag_143\n      swap1\n      tag_133\n      jump\t// in\n    tag_143:\n      swap2\n      swap1\n      0x0100\n      exp\n      dup2\n      sload\n      dup2\n      0xffff\n      mul\n      not\n      and\n      swap1\n      dup4\n      0xffff\n      and\n      mul\n      or\n      swap1\n      sstore\n      pop\n        /* \"new.sol\":1453:1745  function add_Exporter(address _add,string calldata _info) external... */\n      pop\n      pop\n      pop\n      jump\t// out\n        /* \"#utility.yul\":88:205   */\n    tag_145:\n        /* \"#utility.yul\":197:198   */\n      0x00\n        /* \"#utility.yul\":194:195   */\n      0x00\n        /* \"#utility.yul\":187:199   */\n      revert\n        /* \"#utility.yul\":211:328   */\n    tag_146:\n        /* \"#utility.yul\":320:321   */\n      0x00\n        /* \"#utility.yul\":317:318   */\n      0x00\n        /* \"#utility.yul\":310:322   */\n      revert\n        /* \"#utility.yul\":334:460   */\n    tag_147:\n        /* \"#utility.yul\":371:378   */\n      0x00\n        /* \"#utility.yul\":411:453   */\n      0xffffffffffffffffffffffffffffffffffffffff\n        /* \"#utility.yul\":404:409   */\n      dup3\n        /* \"#utility.yul\":400:454   */\n      and\n        /* \"#utility.yul\":389:454   */\n      swap1\n      pop\n        /* \"#utility.yul\":334:460   */\n      swap2\n      swap1\n      pop\n      jump\t// out\n        /* \"#utility.yul\":466:562   */\n    tag_148:\n        /* \"#utility.yul\":503:510   */\n      0x00\n        /* \"#utility.yul\":532:556   */\n      tag_203\n        /* \"#utility.yul\":550:555   */\n      dup3\n        /* \"#utility.yul\":532:556   */\n      tag_147\n      jump\t// in\n    tag_203:\n        /* \"#utility.yul\":521:556   */\n      swap1\n      pop\n        /* \"#utility.yul\":466:562   */\n      swap2\n      swap1\n      pop\n      jump\t// out\n        /* \"#utility.yul\":568:690   */\n    tag_149:\n        /* \"#utility.yul\":641:665   */\n      tag_205\n        /* \"#utility.yul\":659:664   */\n      dup2\n        /* \"#utility.yul\":641:665   */\n      tag_148\n      jump\t// in\n    tag_205:\n        /* \"#utility.yul\":634:639   */\n      dup2\n        /* \"#utility.yul\":631:666   */\n      eq\n        /* \"#utility.yul\":621:684   */\n      tag_206\n      jumpi\n        /* \"#utility.yul\":680:681   */\n      0x00\n        /* \"#utility.yul\":677:678   */\n      0x00\n        /* \"#utility.yul\":670:682   */\n      revert\n        /* \"#utility.yul\":621:684   */\n    tag_206:\n        /* \"#utility.yul\":568:690   */\n      pop\n      jump\t// out\n        /* \"#utility.yul\":696:835   */\n    tag_150:\n        /* \"#utility.yul\":742:747   */\n      0x00\n        /* \"#utility.yul\":780:786   */\n      dup2\n        /* \"#utility.yul\":767:787   */\n      calldataload\n        /* \"#utility.yul\":758:787   */\n      swap1\n      pop\n        /* \"#utility.yul\":796:829   */\n      tag_208\n        /* \"#utility.yul\":823:828   */\n      dup2\n        /* \"#utility.yul\":796:829   */\n      tag_149\n      jump\t// in\n    tag_208:\n        /* \"#utility.yul\":696:835   */\n      swap3\n      swap2\n      pop\n      pop\n      jump\t// out\n        /* \"#utility.yul\":841:1170   */\n    tag_17:\n        /* \"#utility.yul\":900:906   */\n      0x00\n        /* \"#utility.yul\":949:951   */\n      0x20\n        /* \"#utility.yul\":937:946   */\n      dup3\n        /* \"#utility.yul\":928:935   */\n      dup5\n        /* \"#utility.yul\":924:947   */\n      sub\n        /* \"#utility.yul\":920:952   */\n      slt\n        /* \"#utility.yul\":917:1036   */\n      iszero\n      tag_210\n      jumpi\n        /* \"#utility.yul\":955:1034   */\n      tag_211\n      tag_145\n      jump\t// in\n    tag_211:\n        /* \"#utility.yul\":917:1036   */\n    tag_210:\n        /* \"#utility.yul\":1075:1076   */\n      0x00\n        /* \"#utility.yul\":1100:1153   */\n      tag_212\n        /* \"#utility.yul\":1145:1152   */\n      dup5\n        /* \"#utility.yul\":1136:1142   */\n      dup3\n        /* \"#utility.yul\":1125:1134   */\n      dup6\n        /* \"#utility.yul\":1121:1143   */\n      add\n        /* \"#utility.yul\":1100:1153   */\n      tag_150\n      jump\t// in\n    tag_212:\n        /* \"#utility.yul\":1090:1153   */\n      swap2\n      pop\n        /* \"#utility.yul\":1046:1163   */\n      pop\n        /* \"#utility.yul\":841:1170   */\n      swap3\n      swap2\n      pop\n      pop\n      jump\t// out\n        /* \"#utility.yul\":1176:1275   */\n    tag_151:\n        /* \"#utility.yul\":1228:1234   */\n      0x00\n        /* \"#utility.yul\":1262:1267   */\n      dup2\n        /* \"#utility.yul\":1256:1268   */\n      mload\n        /* \"#utility.yul\":1246:1268   */\n      swap1\n      pop\n        /* \"#utility.yul\":1176:1275   */\n      swap2\n      swap1\n      pop\n      jump\t// out\n        /* \"#utility.yul\":1281:1450   */\n    tag_152:\n        /* \"#utility.yul\":1365:1376   */\n      0x00\n        /* \"#utility.yul\":1399:1405   */\n      dup3\n        /* \"#utility.yul\":1394:1397   */\n      dup3\n        /* \"#utility.yul\":1387:1406   */\n      mstore\n        /* \"#utility.yul\":1439:1443   */\n      0x20\n        /* \"#utility.yul\":1434:1437   */\n      dup3\n        /* \"#utility.yul\":1430:1444   */\n      add\n        /* \"#utility.yul\":1415:1444   */\n      swap1\n      pop\n        /* \"#utility.yul\":1281:1450   */\n      swap3\n      swap2\n      pop\n      pop\n      jump\t// out\n        /* \"#utility.yul\":1456:1595   */\n    tag_153:\n        /* \"#utility.yul\":1545:1551   */\n      dup3\n        /* \"#utility.yul\":1540:1543   */\n      dup2\n        /* \"#utility.yul\":1535:1538   */\n      dup4\n        /* \"#utility.yul\":1529:1552   */\n      mcopy\n        /* \"#utility.yul\":1586:1587   */\n      0x00\n        /* \"#utility.yul\":1577:1583   */\n      dup4\n        /* \"#utility.yul\":1572:1575   */\n      dup4\n        /* \"#utility.yul\":1568:1584   */\n      add\n        /* \"#utility.yul\":1561:1588   */\n      mstore\n        /* \"#utility.yul\":1456:1595   */\n      pop\n      pop\n      pop\n      jump\t// out\n        /* \"#utility.yul\":1601:1703   */\n    tag_154:\n        /* \"#utility.yul\":1642:1648   */\n      0x00\n        /* \"#utility.yul\":1693:1695   */\n      0x1f\n        /* \"#utility.yul\":1689:1696   */\n      not\n        /* \"#utility.yul\":1684:1686   */\n      0x1f\n        /* \"#utility.yul\":1677:1682   */\n      dup4\n        /* \"#utility.yul\":1673:1687   */\n      add\n        /* \"#utility.yul\":1669:1697   */\n      and\n        /* \"#utility.yul\":1659:1697   */\n      swap1\n      pop\n        /* \"#utility.yul\":1601:1703   */\n      swap2\n      swap1\n      pop\n      jump\t// out\n        /* \"#utility.yul\":1709:2086   */\n    tag_155:\n        /* \"#utility.yul\":1797:1800   */\n      0x00\n        /* \"#utility.yul\":1825:1864   */\n      tag_218\n        /* \"#utility.yul\":1858:1863   */\n      dup3\n        /* \"#utility.yul\":1825:1864   */\n      tag_151\n      jump\t// in\n    tag_218:\n        /* \"#utility.yul\":1880:1951   */\n      tag_219\n        /* \"#utility.yul\":1944:1950   */\n      dup2\n        /* \"#utility.yul\":1939:1942   */\n      dup6\n        /* \"#utility.yul\":1880:1951   */\n      tag_152\n      jump\t// in\n    tag_219:\n        /* \"#utility.yul\":1873:1951   */\n      swap4\n      pop\n        /* \"#utility.yul\":1960:2025   */\n      tag_220\n        /* \"#utility.yul\":2018:2024   */\n      dup2\n        /* \"#utility.yul\":2013:2016   */\n      dup6\n        /* \"#utility.yul\":2006:2010   */\n      0x20\n        /* \"#utility.yul\":1999:2004   */\n      dup7\n        /* \"#utility.yul\":1995:2011   */\n      add\n        /* \"#utility.yul\":1960:2025   */\n      tag_153\n      jump\t// in\n    tag_220:\n        /* \"#utility.yul\":2050:2079   */\n      tag_221\n        /* \"#utility.yul\":2072:2078   */\n      dup2\n        /* \"#utility.yul\":2050:2079   */\n      tag_154\n      jump\t// in\n    tag_221:\n        /* \"#utility.yul\":2045:2048   */\n      dup5\n        /* \"#utility.yul\":2041:2080   */\n      add\n        /* \"#utility.yul\":2034:2080   */\n      swap2\n      pop\n        /* \"#utility.yul\":1801:2086   */\n      pop\n        /* \"#utility.yul\":1709:2086   */\n      swap3\n      swap2\n      pop\n      pop\n      jump\t// out\n        /* \"#utility.yul\":2092:2405   */\n    tag_20:\n        /* \"#utility.yul\":2205:2209   */\n      0x00\n        /* \"#utility.yul\":2243:2245   */\n      0x20\n        /* \"#utility.yul\":2232:2241   */\n      dup3\n        /* \"#utility.yul\":2228:2246   */\n      add\n        /* \"#utility.yul\":2220:2246   */\n      swap1\n      pop\n        /* \"#utility.yul\":2292:2301   */\n      dup2\n        /* \"#utility.yul\":2286:2290   */\n      dup2\n        /* \"#utility.yul\":2282:2302   */\n      sub\n        /* \"#utility.yul\":2278:2279   */\n      0x00\n        /* \"#utility.yul\":2267:2276   */\n      dup4\n        /* \"#utility.yul\":2263:2280   */\n      add\n        /* \"#utility.yul\":2256:2303   */\n      mstore\n        /* \"#utility.yul\":2320:2398   */\n      tag_223\n        /* \"#utility.yul\":2393:2397   */\n      dup2\n        /* \"#utility.yul\":2384:2390   */\n      dup5\n        /* \"#utility.yul\":2320:2398   */\n      tag_155\n      jump\t// in\n    tag_223:\n        /* \"#utility.yul\":2312:2398   */\n      swap1\n      pop\n        /* \"#utility.yul\":2092:2405   */\n      swap3\n      swap2\n      pop\n      pop\n      jump\t// out\n        /* \"#utility.yul\":2411:2500   */\n    tag_156:\n        /* \"#utility.yul\":2447:2454   */\n      0x00\n        /* \"#utility.yul\":2487:2493   */\n      0xffff\n        /* \"#utility.yul\":2480:2485   */\n      dup3\n        /* \"#utility.yul\":2476:2494   */\n      and\n        /* \"#utility.yul\":2465:2494   */\n      swap1\n      pop\n        /* \"#utility.yul\":2411:2500   */\n      swap2\n      swap1\n      pop\n      jump\t// out\n        /* \"#utility.yul\":2506:2621   */\n    tag_157:\n        /* \"#utility.yul\":2591:2614   */\n      tag_226\n        /* \"#utility.yul\":2608:2613   */\n      dup2\n        /* \"#utility.yul\":2591:2614   */\n      tag_156\n      jump\t// in\n    tag_226:\n        /* \"#utility.yul\":2586:2589   */\n      dup3\n        /* \"#utility.yul\":2579:2615   */\n      mstore\n        /* \"#utility.yul\":2506:2621   */\n      pop\n      pop\n      jump\t// out\n        /* \"#utility.yul\":2627:2845   */\n    tag_27:\n        /* \"#utility.yul\":2718:2722   */\n      0x00\n        /* \"#utility.yul\":2756:2758   */\n      0x20\n        /* \"#utility.yul\":2745:2754   */\n      dup3\n        /* \"#utility.yul\":2741:2759   */\n      add\n        /* \"#utility.yul\":2733:2759   */\n      swap1\n      pop\n        /* \"#utility.yul\":2769:2838   */\n      tag_228\n        /* \"#utility.yul\":2835:2836   */\n      0x00\n        /* \"#utility.yul\":2824:2833   */\n      dup4\n        /* \"#utility.yul\":2820:2837   */\n      add\n        /* \"#utility.yul\":2811:2817   */\n      dup5\n        /* \"#utility.yul\":2769:2838   */\n      tag_157\n      jump\t// in\n    tag_228:\n        /* \"#utility.yul\":2627:2845   */\n      swap3\n      swap2\n      pop\n      pop\n      jump\t// out\n        /* \"#utility.yul\":2851:2928   */\n    tag_158:\n        /* \"#utility.yul\":2888:2895   */\n      0x00\n        /* \"#utility.yul\":2917:2922   */\n      dup2\n        /* \"#utility.yul\":2906:2922   */\n      swap1\n      pop\n        /* \"#utility.yul\":2851:2928   */\n      swap2\n      swap1\n      pop\n      jump\t// out\n        /* \"#utility.yul\":2934:3056   */\n    tag_159:\n        /* \"#utility.yul\":3007:3031   */\n      tag_231\n        /* \"#utility.yul\":3025:3030   */\n      dup2\n        /* \"#utility.yul\":3007:3031   */\n      tag_158\n      jump\t// in\n    tag_231:\n        /* \"#utility.yul\":3000:3005   */\n      dup2\n        /* \"#utility.yul\":2997:3032   */\n      eq\n        /* \"#utility.yul\":2987:3050   */\n      tag_232\n      jumpi\n        /* \"#utility.yul\":3046:3047   */\n      0x00\n        /* \"#utility.yul\":3043:3044   */\n      0x00\n        /* \"#utility.yul\":3036:3048   */\n      revert\n        /* \"#utility.yul\":2987:3050   */\n    tag_232:\n        /* \"#utility.yul\":2934:3056   */\n      pop\n      jump\t// out\n        /* \"#utility.yul\":3062:3201   */\n    tag_160:\n        /* \"#utility.yul\":3108:3113   */\n      0x00\n        /* \"#utility.yul\":3146:3152   */\n      dup2\n        /* \"#utility.yul\":3133:3153   */\n      calldataload\n        /* \"#utility.yul\":3124:3153   */\n      swap1\n      pop\n        /* \"#utility.yul\":3162:3195   */\n      tag_234\n        /* \"#utility.yul\":3189:3194   */\n      dup2\n        /* \"#utility.yul\":3162:3195   */\n      tag_159\n      jump\t// in\n    tag_234:\n        /* \"#utility.yul\":3062:3201   */\n      swap3\n      swap2\n      pop\n      pop\n      jump\t// out\n        /* \"#utility.yul\":3207:3536   */\n    tag_30:\n        /* \"#utility.yul\":3266:3272   */\n      0x00\n        /* \"#utility.yul\":3315:3317   */\n      0x20\n        /* \"#utility.yul\":3303:3312   */\n      dup3\n        /* \"#utility.yul\":3294:3301   */\n      dup5\n        /* \"#utility.yul\":3290:3313   */\n      sub\n        /* \"#utility.yul\":3286:3318   */\n      slt\n        /* \"#utility.yul\":3283:3402   */\n      iszero\n      tag_236\n      jumpi\n        /* \"#utility.yul\":3321:3400   */\n      tag_237\n      tag_145\n      jump\t// in\n    tag_237:\n        /* \"#utility.yul\":3283:3402   */\n    tag_236:\n        /* \"#utility.yul\":3441:3442   */\n      0x00\n        /* \"#utility.yul\":3466:3519   */\n      tag_238\n        /* \"#utility.yul\":3511:3518   */\n      dup5\n        /* \"#utility.yul\":3502:3508   */\n      dup3\n        /* \"#utility.yul\":3491:3500   */\n      dup6\n        /* \"#utility.yul\":3487:3509   */\n      add\n        /* \"#utility.yul\":3466:3519   */\n      tag_160\n      jump\t// in\n    tag_238:\n        /* \"#utility.yul\":3456:3519   */\n      swap2\n      pop\n        /* \"#utility.yul\":3412:3529   */\n      pop\n        /* \"#utility.yul\":3207:3536   */\n      swap3\n      swap2\n      pop\n      pop\n      jump\t// out\n        /* \"#utility.yul\":3542:3619   */\n    tag_161:\n        /* \"#utility.yul\":3579:3586   */\n      0x00\n        /* \"#utility.yul\":3608:3613   */\n      dup2\n        /* \"#utility.yul\":3597:3613   */\n      swap1\n      pop\n        /* \"#utility.yul\":3542:3619   */\n      swap2\n      swap1\n      pop\n      jump\t// out\n        /* \"#utility.yul\":3625:3743   */\n    tag_162:\n        /* \"#utility.yul\":3712:3736   */\n      tag_241\n        /* \"#utility.yul\":3730:3735   */\n      dup2\n        /* \"#utility.yul\":3712:3736   */\n      tag_161\n      jump\t// in\n    tag_241:\n        /* \"#utility.yul\":3707:3710   */\n      dup3\n        /* \"#utility.yul\":3700:3737   */\n      mstore\n        /* \"#utility.yul\":3625:3743   */\n      pop\n      pop\n      jump\t// out\n        /* \"#utility.yul\":3749:4484   */\n    tag_33:\n        /* \"#utility.yul\":3966:3970   */\n      0x00\n        /* \"#utility.yul\":4004:4007   */\n      0x80\n        /* \"#utility.yul\":3993:4002   */\n      dup3\n        /* \"#utility.yul\":3989:4008   */\n      add\n        /* \"#utility.yul\":3981:4008   */\n      swap1\n      pop\n        /* \"#utility.yul\":4018:4089   */\n      tag_243\n        /* \"#utility.yul\":4086:4087   */\n      0x00\n        /* \"#utility.yul\":4075:4084   */\n      dup4\n        /* \"#utility.yul\":4071:4088   */\n      add\n        /* \"#utility.yul\":4062:4068   */\n      dup8\n        /* \"#utility.yul\":4018:4089   */\n      tag_162\n      jump\t// in\n    tag_243:\n        /* \"#utility.yul\":4099:4171   */\n      tag_244\n        /* \"#utility.yul\":4167:4169   */\n      0x20\n        /* \"#utility.yul\":4156:4165   */\n      dup4\n        /* \"#utility.yul\":4152:4170   */\n      add\n        /* \"#utility.yul\":4143:4149   */\n      dup7\n        /* \"#utility.yul\":4099:4171   */\n      tag_162\n      jump\t// in\n    tag_244:\n        /* \"#utility.yul\":4218:4227   */\n      dup2\n        /* \"#utility.yul\":4212:4216   */\n      dup2\n        /* \"#utility.yul\":4208:4228   */\n      sub\n        /* \"#utility.yul\":4203:4205   */\n      0x40\n        /* \"#utility.yul\":4192:4201   */\n      dup4\n        /* \"#utility.yul\":4188:4206   */\n      add\n        /* \"#utility.yul\":4181:4229   */\n      mstore\n        /* \"#utility.yul\":4246:4324   */\n      tag_245\n        /* \"#utility.yul\":4319:4323   */\n      dup2\n        /* \"#utility.yul\":4310:4316   */\n      dup6\n        /* \"#utility.yul\":4246:4324   */\n      tag_155\n      jump\t// in\n    tag_245:\n        /* \"#utility.yul\":4238:4324   */\n      swap1\n      pop\n        /* \"#utility.yul\":4371:4380   */\n      dup2\n        /* \"#utility.yul\":4365:4369   */\n      dup2\n        /* \"#utility.yul\":4361:4381   */\n      sub\n        /* \"#utility.yul\":4356:4358   */\n      0x60\n        /* \"#utility.yul\":4345:4354   */\n      dup4\n        /* \"#utility.yul\":4341:4359   */\n      add\n        /* \"#utility.yul\":4334:4382   */\n      mstore\n        /* \"#utility.yul\":4399:4477   */\n      tag_246\n        /* \"#utility.yul\":4472:4476   */\n      dup2\n        /* \"#utility.yul\":4463:4469   */\n      dup5\n        /* \"#utility.yul\":4399:4477   */\n      tag_155\n      jump\t// in\n    tag_246:\n        /* \"#utility.yul\":4391:4477   */\n      swap1\n      pop\n        /* \"#utility.yul\":3749:4484   */\n      swap6\n      swap5\n      pop\n      pop\n      pop\n      pop\n      pop\n      jump\t// out\n        /* \"#utility.yul\":4490:4607   */\n    tag_163:\n        /* \"#utility.yul\":4599:4600   */\n      0x00\n        /* \"#utility.yul\":4596:4597   */\n      0x00\n        /* \"#utility.yul\":4589:4601   */\n      revert\n        /* \"#utility.yul\":4613:4730   */\n    tag_164:\n        /* \"#utility.yul\":4722:4723   */\n      0x00\n        /* \"#utility.yul\":4719:4720   */\n      0x00\n        /* \"#utility.yul\":4712:4724   */\n      revert\n        /* \"#utility.yul\":4736:4853   */\n    tag_165:\n        /* \"#utility.yul\":4845:4846   */\n      0x00\n        /* \"#utility.yul\":4842:4843   */\n      0x00\n        /* \"#utility.yul\":4835:4847   */\n      revert\n        /* \"#utility.yul\":4873:5426   */\n    tag_166:\n        /* \"#utility.yul\":4931:4939   */\n      0x00\n        /* \"#utility.yul\":4941:4947   */\n      0x00\n        /* \"#utility.yul\":4991:4994   */\n      dup4\n        /* \"#utility.yul\":4984:4988   */\n      0x1f\n        /* \"#utility.yul\":4976:4982   */\n      dup5\n        /* \"#utility.yul\":4972:4989   */\n      add\n        /* \"#utility.yul\":4968:4995   */\n      slt\n        /* \"#utility.yul\":4958:5080   */\n      tag_251\n      jumpi\n        /* \"#utility.yul\":4999:5078   */\n      tag_252\n      tag_163\n      jump\t// in\n    tag_252:\n        /* \"#utility.yul\":4958:5080   */\n    tag_251:\n        /* \"#utility.yul\":5112:5118   */\n      dup3\n        /* \"#utility.yul\":5099:5119   */\n      calldataload\n        /* \"#utility.yul\":5089:5119   */\n      swap1\n      pop\n        /* \"#utility.yul\":5142:5160   */\n      0xffffffffffffffff\n        /* \"#utility.yul\":5134:5140   */\n      dup2\n        /* \"#utility.yul\":5131:5161   */\n      gt\n        /* \"#utility.yul\":5128:5245   */\n      iszero\n      tag_253\n      jumpi\n        /* \"#utility.yul\":5164:5243   */\n      tag_254\n      tag_164\n      jump\t// in\n    tag_254:\n        /* \"#utility.yul\":5128:5245   */\n    tag_253:\n        /* \"#utility.yul\":5278:5282   */\n      0x20\n        /* \"#utility.yul\":5270:5276   */\n      dup4\n        /* \"#utility.yul\":5266:5283   */\n      add\n        /* \"#utility.yul\":5254:5283   */\n      swap2\n      pop\n        /* \"#utility.yul\":5332:5335   */\n      dup4\n        /* \"#utility.yul\":5324:5328   */\n      0x01\n        /* \"#utility.yul\":5316:5322   */\n      dup3\n        /* \"#utility.yul\":5312:5329   */\n      mul\n        /* \"#utility.yul\":5302:5310   */\n      dup4\n        /* \"#utility.yul\":5298:5330   */\n      add\n        /* \"#utility.yul\":5295:5336   */\n      gt\n        /* \"#utility.yul\":5292:5420   */\n      iszero\n      tag_255\n      jumpi\n        /* \"#utility.yul\":5339:5418   */\n      tag_256\n      tag_165\n      jump\t// in\n    tag_256:\n        /* \"#utility.yul\":5292:5420   */\n    tag_255:\n        /* \"#utility.yul\":4873:5426   */\n      swap3\n      pop\n      swap3\n      swap1\n      pop\n      jump\t// out\n        /* \"#utility.yul\":5432:6106   */\n    tag_36:\n        /* \"#utility.yul\":5512:5518   */\n      0x00\n        /* \"#utility.yul\":5520:5526   */\n      0x00\n        /* \"#utility.yul\":5528:5534   */\n      0x00\n        /* \"#utility.yul\":5577:5579   */\n      0x40\n        /* \"#utility.yul\":5565:5574   */\n      dup5\n        /* \"#utility.yul\":5556:5563   */\n      dup7\n        /* \"#utility.yul\":5552:5575   */\n      sub\n        /* \"#utility.yul\":5548:5580   */\n      slt\n        /* \"#utility.yul\":5545:5664   */\n      iszero\n      tag_258\n      jumpi\n        /* \"#utility.yul\":5583:5662   */\n      tag_259\n      tag_145\n      jump\t// in\n    tag_259:\n        /* \"#utility.yul\":5545:5664   */\n    tag_258:\n        /* \"#utility.yul\":5703:5704   */\n      0x00\n        /* \"#utility.yul\":5728:5781   */\n      tag_260\n        /* \"#utility.yul\":5773:5780   */\n      dup7\n        /* \"#utility.yul\":5764:5770   */\n      dup3\n        /* \"#utility.yul\":5753:5762   */\n      dup8\n        /* \"#utility.yul\":5749:5771   */\n      add\n        /* \"#utility.yul\":5728:5781   */\n      tag_150\n      jump\t// in\n    tag_260:\n        /* \"#utility.yul\":5718:5781   */\n      swap4\n      pop\n        /* \"#utility.yul\":5674:5791   */\n      pop\n        /* \"#utility.yul\":5858:5860   */\n      0x20\n        /* \"#utility.yul\":5847:5856   */\n      dup5\n        /* \"#utility.yul\":5843:5861   */\n      add\n        /* \"#utility.yul\":5830:5862   */\n      calldataload\n        /* \"#utility.yul\":5889:5907   */\n      0xffffffffffffffff\n        /* \"#utility.yul\":5881:5887   */\n      dup2\n        /* \"#utility.yul\":5878:5908   */\n      gt\n        /* \"#utility.yul\":5875:5992   */\n      iszero\n      tag_261\n      jumpi\n        /* \"#utility.yul\":5911:5990   */\n      tag_262\n      tag_146\n      jump\t// in\n    tag_262:\n        /* \"#utility.yul\":5875:5992   */\n    tag_261:\n        /* \"#utility.yul\":6024:6089   */\n      tag_263\n        /* \"#utility.yul\":6081:6088   */\n      dup7\n        /* \"#utility.yul\":6072:6078   */\n      dup3\n        /* \"#utility.yul\":6061:6070   */\n      dup8\n        /* \"#utility.yul\":6057:6079   */\n      add\n        /* \"#utility.yul\":6024:6089   */\n      tag_166\n      jump\t// in\n    tag_263:\n        /* \"#utility.yul\":6006:6089   */\n      swap3\n      pop\n      swap3\n      pop\n        /* \"#utility.yul\":5801:6099   */\n      pop\n        /* \"#utility.yul\":5432:6106   */\n      swap3\n      pop\n      swap3\n      pop\n      swap3\n      jump\t// out\n        /* \"#utility.yul\":6112:6230   */\n    tag_167:\n        /* \"#utility.yul\":6199:6223   */\n      tag_265\n        /* \"#utility.yul\":6217:6222   */\n      dup2\n        /* \"#utility.yul\":6199:6223   */\n      tag_148\n      jump\t// in\n    tag_265:\n        /* \"#utility.yul\":6194:6197   */\n      dup3\n        /* \"#utility.yul\":6187:6224   */\n      mstore\n        /* \"#utility.yul\":6112:6230   */\n      pop\n      pop\n      jump\t// out\n        /* \"#utility.yul\":6236:6458   */\n    tag_47:\n        /* \"#utility.yul\":6329:6333   */\n      0x00\n        /* \"#utility.yul\":6367:6369   */\n      0x20\n        /* \"#utility.yul\":6356:6365   */\n      dup3\n        /* \"#utility.yul\":6352:6370   */\n      add\n        /* \"#utility.yul\":6344:6370   */\n      swap1\n      pop\n        /* \"#utility.yul\":6380:6451   */\n      tag_267\n        /* \"#utility.yul\":6448:6449   */\n      0x00\n        /* \"#utility.yul\":6437:6446   */\n      dup4\n        /* \"#utility.yul\":6433:6450   */\n      add\n        /* \"#utility.yul\":6424:6430   */\n      dup5\n        /* \"#utility.yul\":6380:6451   */\n      tag_167\n      jump\t// in\n    tag_267:\n        /* \"#utility.yul\":6236:6458   */\n      swap3\n      swap2\n      pop\n      pop\n      jump\t// out\n        /* \"#utility.yul\":6464:7138   */\n    tag_53:\n        /* \"#utility.yul\":6544:6550   */\n      0x00\n        /* \"#utility.yul\":6552:6558   */\n      0x00\n        /* \"#utility.yul\":6560:6566   */\n      0x00\n        /* \"#utility.yul\":6609:6611   */\n      0x40\n        /* \"#utility.yul\":6597:6606   */\n      dup5\n        /* \"#utility.yul\":6588:6595   */\n      dup7\n        /* \"#utility.yul\":6584:6607   */\n      sub\n        /* \"#utility.yul\":6580:6612   */\n      slt\n        /* \"#utility.yul\":6577:6696   */\n      iszero\n      tag_269\n      jumpi\n        /* \"#utility.yul\":6615:6694   */\n      tag_270\n      tag_145\n      jump\t// in\n    tag_270:\n        /* \"#utility.yul\":6577:6696   */\n    tag_269:\n        /* \"#utility.yul\":6735:6736   */\n      0x00\n        /* \"#utility.yul\":6760:6813   */\n      tag_271\n        /* \"#utility.yul\":6805:6812   */\n      dup7\n        /* \"#utility.yul\":6796:6802   */\n      dup3\n        /* \"#utility.yul\":6785:6794   */\n      dup8\n        /* \"#utility.yul\":6781:6803   */\n      add\n        /* \"#utility.yul\":6760:6813   */\n      tag_160\n      jump\t// in\n    tag_271:\n        /* \"#utility.yul\":6750:6813   */\n      swap4\n      pop\n        /* \"#utility.yul\":6706:6823   */\n      pop\n        /* \"#utility.yul\":6890:6892   */\n      0x20\n        /* \"#utility.yul\":6879:6888   */\n      dup5\n        /* \"#utility.yul\":6875:6893   */\n      add\n        /* \"#utility.yul\":6862:6894   */\n      calldataload\n        /* \"#utility.yul\":6921:6939   */\n      0xffffffffffffffff\n        /* \"#utility.yul\":6913:6919   */\n      dup2\n        /* \"#utility.yul\":6910:6940   */\n      gt\n        /* \"#utility.yul\":6907:7024   */\n      iszero\n      tag_272\n      jumpi\n        /* \"#utility.yul\":6943:7022   */\n      tag_273\n      tag_146\n      jump\t// in\n    tag_273:\n        /* \"#utility.yul\":6907:7024   */\n    tag_272:\n        /* \"#utility.yul\":7056:7121   */\n      tag_274\n        /* \"#utility.yul\":7113:7120   */\n      dup7\n        /* \"#utility.yul\":7104:7110   */\n      dup3\n        /* \"#utility.yul\":7093:7102   */\n      dup8\n        /* \"#utility.yul\":7089:7111   */\n      add\n        /* \"#utility.yul\":7056:7121   */\n      tag_166\n      jump\t// in\n    tag_274:\n        /* \"#utility.yul\":7038:7121   */\n      swap3\n      pop\n      swap3\n      pop\n        /* \"#utility.yul\":6833:7131   */\n      pop\n        /* \"#utility.yul\":6464:7138   */\n      swap3\n      pop\n      swap3\n      pop\n      swap3\n      jump\t// out\n        /* \"#utility.yul\":7144:7324   */\n    tag_168:\n        /* \"#utility.yul\":7192:7269   */\n      0x4e487b7100000000000000000000000000000000000000000000000000000000\n        /* \"#utility.yul\":7189:7190   */\n      0x00\n        /* \"#utility.yul\":7182:7270   */\n      mstore\n        /* \"#utility.yul\":7289:7293   */\n      0x22\n        /* \"#utility.yul\":7286:7287   */\n      0x04\n        /* \"#utility.yul\":7279:7294   */\n      mstore\n        /* \"#utility.yul\":7313:7317   */\n      0x24\n        /* \"#utility.yul\":7310:7311   */\n      0x00\n        /* \"#utility.yul\":7303:7318   */\n      revert\n        /* \"#utility.yul\":7330:7650   */\n    tag_60:\n        /* \"#utility.yul\":7374:7380   */\n      0x00\n        /* \"#utility.yul\":7411:7412   */\n      0x02\n        /* \"#utility.yul\":7405:7409   */\n      dup3\n        /* \"#utility.yul\":7401:7413   */\n      div\n        /* \"#utility.yul\":7391:7413   */\n      swap1\n      pop\n        /* \"#utility.yul\":7458:7459   */\n      0x01\n        /* \"#utility.yul\":7452:7456   */\n      dup3\n        /* \"#utility.yul\":7448:7460   */\n      and\n        /* \"#utility.yul\":7479:7497   */\n      dup1\n        /* \"#utility.yul\":7469:7550   */\n      tag_277\n      jumpi\n        /* \"#utility.yul\":7535:7539   */\n      0x7f\n        /* \"#utility.yul\":7527:7533   */\n      dup3\n        /* \"#utility.yul\":7523:7540   */\n      and\n        /* \"#utility.yul\":7513:7540   */\n      swap2\n      pop\n        /* \"#utility.yul\":7469:7550   */\n    tag_277:\n        /* \"#utility.yul\":7597:7599   */\n      0x20\n        /* \"#utility.yul\":7589:7595   */\n      dup3\n        /* \"#utility.yul\":7586:7600   */\n      lt\n        /* \"#utility.yul\":7566:7584   */\n      dup2\n        /* \"#utility.yul\":7563:7601   */\n      sub\n        /* \"#utility.yul\":7560:7644   */\n      tag_278\n      jumpi\n        /* \"#utility.yul\":7616:7634   */\n      tag_279\n      tag_168\n      jump\t// in\n    tag_279:\n        /* \"#utility.yul\":7560:7644   */\n    tag_278:\n        /* \"#utility.yul\":7381:7650   */\n      pop\n        /* \"#utility.yul\":7330:7650   */\n      swap2\n      swap1\n      pop\n      jump\t// out\n        /* \"#utility.yul\":7656:7829   */\n    tag_169:\n        /* \"#utility.yul\":7796:7821   */\n      0x43616c6c6572206973206e6f7420746865206f776e6572000000000000000000\n        /* \"#utility.yul\":7792:7793   */\n      0x00\n        /* \"#utility.yul\":7784:7790   */\n      dup3\n        /* \"#utility.yul\":7780:7794   */\n      add\n        /* \"#utility.yul\":7773:7822   */\n      mstore\n        /* \"#utility.yul\":7656:7829   */\n      pop\n      jump\t// out\n        /* \"#utility.yul\":7835:8201   */\n    tag_170:\n        /* \"#utility.yul\":7977:7980   */\n      0x00\n        /* \"#utility.yul\":7998:8065   */\n      tag_282\n        /* \"#utility.yul\":8062:8064   */\n      0x17\n        /* \"#utility.yul\":8057:8060   */\n      dup4\n        /* \"#utility.yul\":7998:8065   */\n      tag_152\n      jump\t// in\n    tag_282:\n        /* \"#utility.yul\":7991:8065   */\n      swap2\n      pop\n        /* \"#utility.yul\":8074:8167   */\n      tag_283\n        /* \"#utility.yul\":8163:8166   */\n      dup3\n        /* \"#utility.yul\":8074:8167   */\n      tag_169\n      jump\t// in\n    tag_283:\n        /* \"#utility.yul\":8192:8194   */\n      0x20\n        /* \"#utility.yul\":8187:8190   */\n      dup3\n        /* \"#utility.yul\":8183:8195   */\n      add\n        /* \"#utility.yul\":8176:8195   */\n      swap1\n      pop\n        /* \"#utility.yul\":7835:8201   */\n      swap2\n      swap1\n      pop\n      jump\t// out\n        /* \"#utility.yul\":8207:8626   */\n    tag_68:\n        /* \"#utility.yul\":8373:8377   */\n      0x00\n        /* \"#utility.yul\":8411:8413   */\n      0x20\n        /* \"#utility.yul\":8400:8409   */\n      dup3\n        /* \"#utility.yul\":8396:8414   */\n      add\n        /* \"#utility.yul\":8388:8414   */\n      swap1\n      pop\n        /* \"#utility.yul\":8460:8469   */\n      dup2\n        /* \"#utility.yul\":8454:8458   */\n      dup2\n        /* \"#utility.yul\":8450:8470   */\n      sub\n        /* \"#utility.yul\":8446:8447   */\n      0x00\n        /* \"#utility.yul\":8435:8444   */\n      dup4\n        /* \"#utility.yul\":8431:8448   */\n      add\n        /* \"#utility.yul\":8424:8471   */\n      mstore\n        /* \"#utility.yul\":8488:8619   */\n      tag_285\n        /* \"#utility.yul\":8614:8618   */\n      dup2\n        /* \"#utility.yul\":8488:8619   */\n      tag_170\n      jump\t// in\n    tag_285:\n        /* \"#utility.yul\":8480:8619   */\n      swap1\n      pop\n        /* \"#utility.yul\":8207:8626   */\n      swap2\n      swap1\n      pop\n      jump\t// out\n        /* \"#utility.yul\":8632:8812   */\n    tag_72:\n        /* \"#utility.yul\":8680:8757   */\n      0x4e487b7100000000000000000000000000000000000000000000000000000000\n        /* \"#utility.yul\":8677:8678   */\n      0x00\n        /* \"#utility.yul\":8670:8758   */\n      mstore\n        /* \"#utility.yul\":8777:8781   */\n      0x01\n        /* \"#utility.yul\":8774:8775   */\n      0x04\n        /* \"#utility.yul\":8767:8782   */\n      mstore\n        /* \"#utility.yul\":8801:8805   */\n      0x24\n        /* \"#utility.yul\":8798:8799   */\n      0x00\n        /* \"#utility.yul\":8791:8806   */\n      revert\n        /* \"#utility.yul\":8818:8998   */\n    tag_171:\n        /* \"#utility.yul\":8866:8943   */\n      0x4e487b7100000000000000000000000000000000000000000000000000000000\n        /* \"#utility.yul\":8863:8864   */\n      0x00\n        /* \"#utility.yul\":8856:8944   */\n      mstore\n        /* \"#utility.yul\":8963:8967   */\n      0x41\n        /* \"#utility.yul\":8960:8961   */\n      0x04\n        /* \"#utility.yul\":8953:8968   */\n      mstore\n        /* \"#utility.yul\":8987:8991   */\n      0x24\n        /* \"#utility.yul\":8984:8985   */\n      0x00\n        /* \"#utility.yul\":8977:8992   */\n      revert\n        /* \"#utility.yul\":9004:9145   */\n    tag_172:\n        /* \"#utility.yul\":9053:9057   */\n      0x00\n        /* \"#utility.yul\":9076:9079   */\n      dup2\n        /* \"#utility.yul\":9068:9079   */\n      swap1\n      pop\n        /* \"#utility.yul\":9099:9102   */\n      dup2\n        /* \"#utility.yul\":9096:9097   */\n      0x00\n        /* \"#utility.yul\":9089:9103   */\n      mstore\n        /* \"#utility.yul\":9133:9137   */\n      0x20\n        /* \"#utility.yul\":9130:9131   */\n      0x00\n        /* \"#utility.yul\":9120:9138   */\n      keccak256\n        /* \"#utility.yul\":9112:9138   */\n      swap1\n      pop\n        /* \"#utility.yul\":9004:9145   */\n      swap2\n      swap1\n      pop\n      jump\t// out\n        /* \"#utility.yul\":9151:9244   */\n    tag_173:\n        /* \"#utility.yul\":9188:9194   */\n      0x00\n        /* \"#utility.yul\":9235:9237   */\n      0x20\n        /* \"#utility.yul\":9230:9232   */\n      0x1f\n        /* \"#utility.yul\":9223:9228   */\n      dup4\n        /* \"#utility.yul\":9219:9233   */\n      add\n        /* \"#utility.yul\":9215:9238   */\n      div\n        /* \"#utility.yul\":9205:9238   */\n      swap1\n      pop\n        /* \"#utility.yul\":9151:9244   */\n      swap2\n      swap1\n      pop\n      jump\t// out\n        /* \"#utility.yul\":9250:9357   */\n    tag_174:\n        /* \"#utility.yul\":9294:9302   */\n      0x00\n        /* \"#utility.yul\":9344:9349   */\n      dup3\n        /* \"#utility.yul\":9338:9342   */\n      dup3\n        /* \"#utility.yul\":9334:9350   */\n      shl\n        /* \"#utility.yul\":9313:9350   */\n      swap1\n      pop\n        /* \"#utility.yul\":9250:9357   */\n      swap3\n      swap2\n      pop\n      pop\n      jump\t// out\n        /* \"#utility.yul\":9363:9756   */\n    tag_175:\n        /* \"#utility.yul\":9432:9438   */\n      0x00\n        /* \"#utility.yul\":9482:9483   */\n      0x08\n        /* \"#utility.yul\":9470:9480   */\n      dup4\n        /* \"#utility.yul\":9466:9484   */\n      mul\n        /* \"#utility.yul\":9505:9602   */\n      tag_292\n        /* \"#utility.yul\":9535:9601   */\n      0xffffffffffffffffffffffffffffffffffffffffffffffffffffffffffffffff\n        /* \"#utility.yul\":9524:9533   */\n      dup3\n        /* \"#utility.yul\":9505:9602   */\n      tag_174\n      jump\t// in\n    tag_292:\n        /* \"#utility.yul\":9623:9662   */\n      tag_293\n        /* \"#utility.yul\":9653:9661   */\n      dup7\n        /* \"#utility.yul\":9642:9651   */\n      dup4\n        /* \"#utility.yul\":9623:9662   */\n      tag_174\n      jump\t// in\n    tag_293:\n        /* \"#utility.yul\":9611:9662   */\n      swap6\n      pop\n        /* \"#utility.yul\":9695:9699   */\n      dup1\n        /* \"#utility.yul\":9691:9700   */\n      not\n        /* \"#utility.yul\":9684:9689   */\n      dup5\n        /* \"#utility.yul\":9680:9701   */\n      and\n        /* \"#utility.yul\":9671:9701   */\n      swap4\n      pop\n        /* \"#utility.yul\":9744:9748   */\n      dup1\n        /* \"#utility.yul\":9734:9742   */\n      dup7\n        /* \"#utility.yul\":9730:9749   */\n      and\n        /* \"#utility.yul\":9723:9728   */\n      dup5\n        /* \"#utility.yul\":9720:9750   */\n      or\n        /* \"#utility.yul\":9710:9750   */\n      swap3\n      pop\n        /* \"#utility.yul\":9439:9756   */\n      pop\n      pop\n        /* \"#utility.yul\":9363:9756   */\n      swap4\n      swap3\n      pop\n      pop\n      pop\n      jump\t// out\n        /* \"#utility.yul\":9762:9822   */\n    tag_176:\n        /* \"#utility.yul\":9790:9793   */\n      0x00\n        /* \"#utility.yul\":9811:9816   */\n      dup2\n        /* \"#utility.yul\":9804:9816   */\n      swap1\n      pop\n        /* \"#utility.yul\":9762:9822   */\n      swap2\n      swap1\n      pop\n      jump\t// out\n        /* \"#utility.yul\":9828:9970   */\n    tag_177:\n        /* \"#utility.yul\":9878:9887   */\n      0x00\n        /* \"#utility.yul\":9911:9964   */\n      tag_296\n        /* \"#utility.yul\":9929:9963   */\n      tag_297\n        /* \"#utility.yul\":9938:9962   */\n      tag_298\n        /* \"#utility.yul\":9956:9961   */\n      dup5\n        /* \"#utility.yul\":9938:9962   */\n      tag_161\n      jump\t// in\n    tag_298:\n        /* \"#utility.yul\":9929:9963   */\n      tag_176\n      jump\t// in\n    tag_297:\n        /* \"#utility.yul\":9911:9964   */\n      tag_161\n      jump\t// in\n    tag_296:\n        /* \"#utility.yul\":9898:9964   */\n      swap1\n      pop\n        /* \"#utility.yul\":9828:9970   */\n      swap2\n      swap1\n      pop\n      jump\t// out\n        /* \"#utility.yul\":9976:10051   */\n    tag_178:\n        /* \"#utility.yul\":10019:10022   */\n      0x00\n        /* \"#utility.yul\":10040:10045   */\n      dup2\n        /* \"#utility.yul\":10033:10045   */\n      swap1\n      pop\n        /* \"#utility.yul\":9976:10051   */\n      swap2\n      swap1\n      pop\n      jump\t// out\n        /* \"#utility.yul\":10057:10326   */\n    tag_179:\n        /* \"#utility.yul\":10167:10206   */\n      tag_301\n        /* \"#utility.yul\":10198:10205   */\n      dup4\n        /* \"#utility.yul\":10167:10206   */\n      tag_177\n      jump\t// in\n    tag_301:\n        /* \"#utility.yul\":10228:10319   */\n      tag_302\n        /* \"#utility.yul\":10277:10318   */\n      tag_303\n        /* \"#utility.yul\":10301:10317   */\n      dup3\n        /* \"#utility.yul\":10277:10318   */\n      tag_178\n      jump\t// in\n    tag_303:\n        /* \"#utility.yul\":10269:10275   */\n      dup5\n        /* \"#utility.yul\":10262:10266   */\n      dup5\n        /* \"#utility.yul\":10256:10267   */\n      sload\n        /* \"#utility.yul\":10228:10319   */\n      tag_175\n      jump\t// in\n    tag_302:\n        /* \"#utility.yul\":10222:10226   */\n      dup3\n        /* \"#utility.yul\":10215:10320   */\n      sstore\n        /* \"#utility.yul\":10133:10326   */\n      pop\n        /* \"#utility.yul\":10057:10326   */\n      pop\n      pop\n      pop\n      jump\t// out\n        /* \"#utility.yul\":10332:10405   */\n    tag_180:\n        /* \"#utility.yul\":10377:10380   */\n      0x00\n        /* \"#utility.yul\":10398:10399   */\n      0x00\n        /* \"#utility.yul\":10391:10399   */\n      swap1\n      pop\n        /* \"#utility.yul\":10332:10405   */\n      swap1\n      jump\t// out\n        /* \"#utility.yul\":10411:10600   */\n    tag_181:\n        /* \"#utility.yul\":10488:10520   */\n      tag_306\n      tag_180\n      jump\t// in\n    tag_306:\n        /* \"#utility.yul\":10529:10594   */\n      tag_307\n        /* \"#utility.yul\":10587:10593   */\n      dup2\n        /* \"#utility.yul\":10579:10585   */\n      dup5\n        /* \"#utility.yul\":10573:10577   */\n      dup5\n        /* \"#utility.yul\":10529:10594   */\n      tag_179\n      jump\t// in\n    tag_307:\n        /* \"#utility.yul\":10464:10600   */\n      pop\n        /* \"#utility.yul\":10411:10600   */\n      pop\n      pop\n      jump\t// out\n        /* \"#utility.yul\":10606:10792   */\n    tag_182:\n        /* \"#utility.yul\":10666:10786   */\n    tag_309:\n        /* \"#utility.yul\":10683:10686   */\n      dup2\n        /* \"#utility.yul\":10676:10681   */\n      dup2\n        /* \"#utility.yul\":10673:10687   */\n      lt\n        /* \"#utility.yul\":10666:10786   */\n      iszero\n      tag_311\n      jumpi\n        /* \"#utility.yul\":10737:10776   */\n      tag_312\n        /* \"#utility.yul\":10774:10775   */\n      0x00\n        /* \"#utility.yul\":10767:10772   */\n      dup3\n        /* \"#utility.yul\":10737:10776   */\n      tag_181\n      jump\t// in\n    tag_312:\n        /* \"#utility.yul\":10710:10711   */\n      0x01\n        /* \"#utility.yul\":10703:10708   */\n      dup2\n        /* \"#utility.yul\":10699:10712   */\n      add\n        /* \"#utility.yul\":10690:10712   */\n      swap1\n      pop\n        /* \"#utility.yul\":10666:10786   */\n      jump(tag_309)\n    tag_311:\n        /* \"#utility.yul\":10606:10792   */\n      pop\n      pop\n      jump\t// out\n        /* \"#utility.yul\":10798:11341   */\n    tag_183:\n        /* \"#utility.yul\":10899:10901   */\n      0x1f\n        /* \"#utility.yul\":10894:10897   */\n      dup3\n        /* \"#utility.yul\":10891:10902   */\n      gt\n        /* \"#utility.yul\":10888:11334   */\n      iszero\n      tag_314\n      jumpi\n        /* \"#utility.yul\":10933:10971   */\n      tag_315\n        /* \"#utility.yul\":10965:10970   */\n      dup2\n        /* \"#utility.yul\":10933:10971   */\n      tag_172\n      jump\t// in\n    tag_315:\n        /* \"#utility.yul\":11017:11046   */\n      tag_316\n        /* \"#utility.yul\":11035:11045   */\n      dup5\n        /* \"#utility.yul\":11017:11046   */\n      tag_173\n      jump\t// in\n    tag_316:\n        /* \"#utility.yul\":11007:11015   */\n      dup2\n        /* \"#utility.yul\":11003:11047   */\n      add\n        /* \"#utility.yul\":11200:11202   */\n      0x20\n        /* \"#utility.yul\":11188:11198   */\n      dup6\n        /* \"#utility.yul\":11185:11203   */\n      lt\n        /* \"#utility.yul\":11182:11231   */\n      iszero\n      tag_317\n      jumpi\n        /* \"#utility.yul\":11221:11229   */\n      dup2\n        /* \"#utility.yul\":11206:11229   */\n      swap1\n      pop\n        /* \"#utility.yul\":11182:11231   */\n    tag_317:\n        /* \"#utility.yul\":11244:11324   */\n      tag_318\n        /* \"#utility.yul\":11300:11322   */\n      tag_319\n        /* \"#utility.yul\":11318:11321   */\n      dup6\n        /* \"#utility.yul\":11300:11322   */\n      tag_173\n      jump\t// in\n    tag_319:\n        /* \"#utility.yul\":11290:11298   */\n      dup4\n        /* \"#utility.yul\":11286:11323   */\n      add\n        /* \"#utility.yul\":11273:11284   */\n      dup3\n        /* \"#utility.yul\":11244:11324   */\n      tag_182\n      jump\t// in\n    tag_318:\n        /* \"#utility.yul\":10903:11334   */\n      pop\n      pop\n        /* \"#utility.yul\":10888:11334   */\n    tag_314:\n        /* \"#utility.yul\":10798:11341   */\n      pop\n      pop\n      pop\n      jump\t// out\n        /* \"#utility.yul\":11347:11464   */\n    tag_184:\n        /* \"#utility.yul\":11401:11409   */\n      0x00\n        /* \"#utility.yul\":11451:11456   */\n      dup3\n        /* \"#utility.yul\":11445:11449   */\n      dup3\n        /* \"#utility.yul\":11441:11457   */\n      shr\n        /* \"#utility.yul\":11420:11457   */\n      swap1\n      pop\n        /* \"#utility.yul\":11347:11464   */\n      swap3\n      swap2\n      pop\n      pop\n      jump\t// out\n        /* \"#utility.yul\":11470:11639   */\n    tag_185:\n        /* \"#utility.yul\":11514:11520   */\n      0x00\n        /* \"#utility.yul\":11547:11598   */\n      tag_322\n        /* \"#utility.yul\":11595:11596   */\n      0x00\n        /* \"#utility.yul\":11591:11597   */\n      not\n        /* \"#utility.yul\":11583:11588   */\n      dup5\n        /* \"#utility.yul\":11580:11581   */\n      0x08\n        /* \"#utility.yul\":11576:11589   */\n      mul\n        /* \"#utility.yul\":11547:11598   */\n      tag_184\n      jump\t// in\n    tag_322:\n        /* \"#utility.yul\":11543:11599   */\n      not\n        /* \"#utility.yul\":11628:11632   */\n      dup1\n        /* \"#utility.yul\":11622:11626   */\n      dup4\n        /* \"#utility.yul\":11618:11633   */\n      and\n        /* \"#utility.yul\":11608:11633   */\n      swap2\n      pop\n        /* \"#utility.yul\":11521:11639   */\n      pop\n        /* \"#utility.yul\":11470:11639   */\n      swap3\n      swap2\n      pop\n      pop\n      jump\t// out\n        /* \"#utility.yul\":11644:11939   */\n    tag_186:\n        /* \"#utility.yul\":11720:11724   */\n      0x00\n        /* \"#utility.yul\":11866:11895   */\n      tag_324\n        /* \"#utility.yul\":11891:11894   */\n      dup4\n        /* \"#utility.yul\":11885:11889   */\n      dup4\n        /* \"#utility.yul\":11866:11895   */\n      tag_185\n      jump\t// in\n    tag_324:\n        /* \"#utility.yul\":11858:11895   */\n      swap2\n      pop\n        /* \"#utility.yul\":11928:11931   */\n      dup3\n        /* \"#utility.yul\":11925:11926   */\n      0x02\n        /* \"#utility.yul\":11921:11932   */\n      mul\n        /* \"#utility.yul\":11915:11919   */\n      dup3\n        /* \"#utility.yul\":11912:11933   */\n      or\n        /* \"#utility.yul\":11904:11933   */\n      swap1\n      pop\n        /* \"#utility.yul\":11644:11939   */\n      swap3\n      swap2\n      pop\n      pop\n      jump\t// out\n        /* \"#utility.yul\":11944:13339   */\n    tag_74:\n        /* \"#utility.yul\":12061:12098   */\n      tag_326\n        /* \"#utility.yul\":12094:12097   */\n      dup3\n        /* \"#utility.yul\":12061:12098   */\n      tag_151\n      jump\t// in\n    tag_326:\n        /* \"#utility.yul\":12163:12181   */\n      0xffffffffffffffff\n        /* \"#utility.yul\":12155:12161   */\n      dup2\n        /* \"#utility.yul\":12152:12182   */\n      gt\n        /* \"#utility.yul\":12149:12205   */\n      iszero\n      tag_327\n      jumpi\n        /* \"#utility.yul\":12185:12203   */\n      tag_328\n      tag_171\n      jump\t// in\n    tag_328:\n        /* \"#utility.yul\":12149:12205   */\n    tag_327:\n        /* \"#utility.yul\":12229:12267   */\n      tag_329\n        /* \"#utility.yul\":12261:12265   */\n      dup3\n        /* \"#utility.yul\":12255:12266   */\n      sload\n        /* \"#utility.yul\":12229:12267   */\n      tag_60\n      jump\t// in\n    tag_329:\n        /* \"#utility.yul\":12314:12381   */\n      tag_330\n        /* \"#utility.yul\":12374:12380   */\n      dup3\n        /* \"#utility.yul\":12366:12372   */\n      dup3\n        /* \"#utility.yul\":12360:12364   */\n      dup6\n        /* \"#utility.yul\":12314:12381   */\n      tag_183\n      jump\t// in\n    tag_330:\n        /* \"#utility.yul\":12408:12409   */\n      0x00\n        /* \"#utility.yul\":12432:12436   */\n      0x20\n        /* \"#utility.yul\":12419:12436   */\n      swap1\n      pop\n        /* \"#utility.yul\":12464:12466   */\n      0x1f\n        /* \"#utility.yul\":12456:12462   */\n      dup4\n        /* \"#utility.yul\":12453:12467   */\n      gt\n        /* \"#utility.yul\":12481:12482   */\n      0x01\n        /* \"#utility.yul\":12476:13094   */\n      dup2\n      eq\n      tag_332\n      jumpi\n        /* \"#utility.yul\":13138:13139   */\n      0x00\n        /* \"#utility.yul\":13155:13161   */\n      dup5\n        /* \"#utility.yul\":13152:13229   */\n      iszero\n      tag_333\n      jumpi\n        /* \"#utility.yul\":13204:13213   */\n      dup3\n        /* \"#utility.yul\":13199:13202   */\n      dup8\n        /* \"#utility.yul\":13195:13214   */\n      add\n        /* \"#utility.yul\":13189:13215   */\n      mload\n        /* \"#utility.yul\":13180:13215   */\n      swap1\n      pop\n        /* \"#utility.yul\":13152:13229   */\n    tag_333:\n        /* \"#utility.yul\":13255:13322   */\n      tag_334\n        /* \"#utility.yul\":13315:13321   */\n      dup6\n        /* \"#utility.yul\":13308:13313   */\n      dup3\n        /* \"#utility.yul\":13255:13322   */\n      tag_186\n      jump\t// in\n    tag_334:\n        /* \"#utility.yul\":13249:13253   */\n      dup7\n        /* \"#utility.yul\":13242:13323   */\n      sstore\n        /* \"#utility.yul\":13111:13333   */\n      pop\n        /* \"#utility.yul\":12446:13333   */\n      jump(tag_331)\n        /* \"#utility.yul\":12476:13094   */\n    tag_332:\n        /* \"#utility.yul\":12528:12532   */\n      0x1f\n        /* \"#utility.yul\":12524:12533   */\n      not\n        /* \"#utility.yul\":12516:12522   */\n      dup5\n        /* \"#utility.yul\":12512:12534   */\n      and\n        /* \"#utility.yul\":12562:12599   */\n      tag_335\n        /* \"#utility.yul\":12594:12598   */\n      dup7\n        /* \"#utility.yul\":12562:12599   */\n      tag_172\n      jump\t// in\n    tag_335:\n        /* \"#utility.yul\":12621:12622   */\n      0x00\n        /* \"#utility.yul\":12635:12843   */\n    tag_336:\n        /* \"#utility.yul\":12649:12656   */\n      dup3\n        /* \"#utility.yul\":12646:12647   */\n      dup2\n        /* \"#utility.yul\":12643:12657   */\n      lt\n        /* \"#utility.yul\":12635:12843   */\n      iszero\n      tag_338\n      jumpi\n        /* \"#utility.yul\":12728:12737   */\n      dup5\n        /* \"#utility.yul\":12723:12726   */\n      dup10\n        /* \"#utility.yul\":12719:12738   */\n      add\n        /* \"#utility.yul\":12713:12739   */\n      mload\n        /* \"#utility.yul\":12705:12711   */\n      dup3\n        /* \"#utility.yul\":12698:12740   */\n      sstore\n        /* \"#utility.yul\":12779:12780   */\n      0x01\n        /* \"#utility.yul\":12771:12777   */\n      dup3\n        /* \"#utility.yul\":12767:12781   */\n      add\n        /* \"#utility.yul\":12757:12781   */\n      swap2\n      pop\n        /* \"#utility.yul\":12826:12828   */\n      0x20\n        /* \"#utility.yul\":12815:12824   */\n      dup6\n        /* \"#utility.yul\":12811:12829   */\n      add\n        /* \"#utility.yul\":12798:12829   */\n      swap5\n      pop\n        /* \"#utility.yul\":12672:12676   */\n      0x20\n        /* \"#utility.yul\":12669:12670   */\n      dup2\n        /* \"#utility.yul\":12665:12677   */\n      add\n        /* \"#utility.yul\":12660:12677   */\n      swap1\n      pop\n        /* \"#utility.yul\":12635:12843   */\n      jump(tag_336)\n    tag_338:\n        /* \"#utility.yul\":12871:12877   */\n      dup7\n        /* \"#utility.yul\":12862:12869   */\n      dup4\n        /* \"#utility.yul\":12859:12878   */\n      lt\n        /* \"#utility.yul\":12856:13035   */\n      iszero\n      tag_339\n      jumpi\n        /* \"#utility.yul\":12929:12938   */\n      dup5\n        /* \"#utility.yul\":12924:12927   */\n      dup10\n        /* \"#utility.yul\":12920:12939   */\n      add\n        /* \"#utility.yul\":12914:12940   */\n      mload\n        /* \"#utility.yul\":12972:13020   */\n      tag_340\n        /* \"#utility.yul\":13014:13018   */\n      0x1f\n        /* \"#utility.yul\":13006:13012   */\n      dup10\n        /* \"#utility.yul\":13002:13019   */\n      and\n        /* \"#utility.yul\":12991:13000   */\n      dup3\n        /* \"#utility.yul\":12972:13020   */\n      tag_185\n      jump\t// in\n    tag_340:\n        /* \"#utility.yul\":12964:12970   */\n      dup4\n        /* \"#utility.yul\":12957:13021   */\n      sstore\n        /* \"#utility.yul\":12879:13035   */\n      pop\n        /* \"#utility.yul\":12856:13035   */\n    tag_339:\n        /* \"#utility.yul\":13081:13082   */\n      0x01\n        /* \"#utility.yul\":13077:13078   */\n      0x02\n        /* \"#utility.yul\":13069:13075   */\n      dup9\n        /* \"#utility.yul\":13065:13079   */\n      mul\n        /* \"#utility.yul\":13061:13083   */\n      add\n        /* \"#utility.yul\":13055:13059   */\n      dup9\n        /* \"#utility.yul\":13048:13084   */\n      sstore\n        /* \"#utility.yul\":12483:13094   */\n      pop\n      pop\n      pop\n        /* \"#utility.yul\":12446:13333   */\n    tag_331:\n      pop\n        /* \"#utility.yul\":12036:13339   */\n      pop\n      pop\n      pop\n        /* \"#utility.yul\":11944:13339   */\n      pop\n      pop\n      jump\t// out\n        /* \"#utility.yul\":13345:13525   */\n    tag_187:\n        /* \"#utility.yul\":13393:13470   */\n      0x4e487b7100000000000000000000000000000000000000000000000000000000\n        /* \"#utility.yul\":13390:13391   */\n      0x00\n        /* \"#utility.yul\":13383:13471   */\n      mstore\n        /* \"#utility.yul\":13490:13494   */\n      0x11\n        /* \"#utility.yul\":13487:13488   */\n      0x04\n        /* \"#utility.yul\":13480:13495   */\n      mstore\n        /* \"#utility.yul\":13514:13518   */\n      0x24\n        /* \"#utility.yul\":13511:13512   */\n      0x00\n        /* \"#utility.yul\":13504:13519   */\n      revert\n        /* \"#utility.yul\":13531:13700   */\n    tag_76:\n        /* \"#utility.yul\":13569:13572   */\n      0x00\n        /* \"#utility.yul\":13592:13615   */\n      tag_343\n        /* \"#utility.yul\":13609:13614   */\n      dup3\n        /* \"#utility.yul\":13592:13615   */\n      tag_156\n      jump\t// in\n    tag_343:\n        /* \"#utility.yul\":13583:13615   */\n      swap2\n      pop\n        /* \"#utility.yul\":13637:13641   */\n      0x00\n        /* \"#utility.yul\":13630:13635   */\n      dup3\n        /* \"#utility.yul\":13627:13642   */\n      sub\n        /* \"#utility.yul\":13624:13665   */\n      tag_344\n      jumpi\n        /* \"#utility.yul\":13645:13663   */\n      tag_345\n      tag_187\n      jump\t// in\n    tag_345:\n        /* \"#utility.yul\":13624:13665   */\n    tag_344:\n        /* \"#utility.yul\":13692:13693   */\n      0x01\n        /* \"#utility.yul\":13685:13690   */\n      dup3\n        /* \"#utility.yul\":13681:13694   */\n      sub\n        /* \"#utility.yul\":13674:13694   */\n      swap1\n      pop\n        /* \"#utility.yul\":13531:13700   */\n      swap2\n      swap1\n      pop\n      jump\t// out\n        /* \"#utility.yul\":13706:13803   */\n    tag_188:\n        /* \"#utility.yul\":13765:13771   */\n      0x00\n        /* \"#utility.yul\":13793:13796   */\n      dup3\n        /* \"#utility.yul\":13783:13796   */\n      swap1\n      pop\n        /* \"#utility.yul\":13706:13803   */\n      swap3\n      swap2\n      pop\n      pop\n      jump\t// out\n        /* \"#utility.yul\":13809:15212   */\n    tag_95:\n        /* \"#utility.yul\":13933:13977   */\n      tag_348\n        /* \"#utility.yul\":13973:13976   */\n      dup4\n        /* \"#utility.yul\":13968:13971   */\n      dup4\n        /* \"#utility.yul\":13933:13977   */\n      tag_188\n      jump\t// in\n    tag_348:\n        /* \"#utility.yul\":14042:14060   */\n      0xffffffffffffffff\n        /* \"#utility.yul\":14034:14040   */\n      dup2\n        /* \"#utility.yul\":14031:14061   */\n      gt\n        /* \"#utility.yul\":14028:14084   */\n      iszero\n      tag_349\n      jumpi\n        /* \"#utility.yul\":14064:14082   */\n      tag_350\n      tag_171\n      jump\t// in\n    tag_350:\n        /* \"#utility.yul\":14028:14084   */\n    tag_349:\n        /* \"#utility.yul\":14108:14146   */\n      tag_351\n        /* \"#utility.yul\":14140:14144   */\n      dup3\n        /* \"#utility.yul\":14134:14145   */\n      sload\n        /* \"#utility.yul\":14108:14146   */\n      tag_60\n      jump\t// in\n    tag_351:\n        /* \"#utility.yul\":14193:14260   */\n      tag_352\n        /* \"#utility.yul\":14253:14259   */\n      dup3\n        /* \"#utility.yul\":14245:14251   */\n      dup3\n        /* \"#utility.yul\":14239:14243   */\n      dup6\n        /* \"#utility.yul\":14193:14260   */\n      tag_183\n      jump\t// in\n    tag_352:\n        /* \"#utility.yul\":14287:14288   */\n      0x00\n        /* \"#utility.yul\":14316:14318   */\n      0x1f\n        /* \"#utility.yul\":14308:14314   */\n      dup4\n        /* \"#utility.yul\":14305:14319   */\n      gt\n        /* \"#utility.yul\":14333:14334   */\n      0x01\n        /* \"#utility.yul\":14328:14960   */\n      dup2\n      eq\n      tag_354\n      jumpi\n        /* \"#utility.yul\":15004:15005   */\n      0x00\n        /* \"#utility.yul\":15021:15027   */\n      dup5\n        /* \"#utility.yul\":15018:15102   */\n      iszero\n      tag_355\n      jumpi\n        /* \"#utility.yul\":15077:15086   */\n      dup3\n        /* \"#utility.yul\":15072:15075   */\n      dup8\n        /* \"#utility.yul\":15068:15087   */\n      add\n        /* \"#utility.yul\":15055:15088   */\n      calldataload\n        /* \"#utility.yul\":15046:15088   */\n      swap1\n      pop\n        /* \"#utility.yul\":15018:15102   */\n    tag_355:\n        /* \"#utility.yul\":15128:15195   */\n      tag_356\n        /* \"#utility.yul\":15188:15194   */\n      dup6\n        /* \"#utility.yul\":15181:15186   */\n      dup3\n        /* \"#utility.yul\":15128:15195   */\n      tag_186\n      jump\t// in\n    tag_356:\n        /* \"#utility.yul\":15122:15126   */\n      dup7\n        /* \"#utility.yul\":15115:15196   */\n      sstore\n        /* \"#utility.yul\":14977:15206   */\n      pop\n        /* \"#utility.yul\":14298:15206   */\n      jump(tag_353)\n        /* \"#utility.yul\":14328:14960   */\n    tag_354:\n        /* \"#utility.yul\":14380:14384   */\n      0x1f\n        /* \"#utility.yul\":14376:14385   */\n      not\n        /* \"#utility.yul\":14368:14374   */\n      dup5\n        /* \"#utility.yul\":14364:14386   */\n      and\n        /* \"#utility.yul\":14414:14451   */\n      tag_357\n        /* \"#utility.yul\":14446:14450   */\n      dup7\n        /* \"#utility.yul\":14414:14451   */\n      tag_172\n      jump\t// in\n    tag_357:\n        /* \"#utility.yul\":14473:14474   */\n      0x00\n        /* \"#utility.yul\":14487:14702   */\n    tag_358:\n        /* \"#utility.yul\":14501:14508   */\n      dup3\n        /* \"#utility.yul\":14498:14499   */\n      dup2\n        /* \"#utility.yul\":14495:14509   */\n      lt\n        /* \"#utility.yul\":14487:14702   */\n      iszero\n      tag_360\n      jumpi\n        /* \"#utility.yul\":14587:14596   */\n      dup5\n        /* \"#utility.yul\":14582:14585   */\n      dup10\n        /* \"#utility.yul\":14578:14597   */\n      add\n        /* \"#utility.yul\":14565:14598   */\n      calldataload\n        /* \"#utility.yul\":14557:14563   */\n      dup3\n        /* \"#utility.yul\":14550:14599   */\n      sstore\n        /* \"#utility.yul\":14638:14639   */\n      0x01\n        /* \"#utility.yul\":14630:14636   */\n      dup3\n        /* \"#utility.yul\":14626:14640   */\n      add\n        /* \"#utility.yul\":14616:14640   */\n      swap2\n      pop\n        /* \"#utility.yul\":14685:14687   */\n      0x20\n        /* \"#utility.yul\":14674:14683   */\n      dup6\n        /* \"#utility.yul\":14670:14688   */\n      add\n        /* \"#utility.yul\":14657:14688   */\n      swap5\n      pop\n        /* \"#utility.yul\":14524:14528   */\n      0x20\n        /* \"#utility.yul\":14521:14522   */\n      dup2\n        /* \"#utility.yul\":14517:14529   */\n      add\n        /* \"#utility.yul\":14512:14529   */\n      swap1\n      pop\n        /* \"#utility.yul\":14487:14702   */\n      jump(tag_358)\n    tag_360:\n        /* \"#utility.yul\":14730:14736   */\n      dup7\n        /* \"#utility.yul\":14721:14728   */\n      dup4\n        /* \"#utility.yul\":14718:14737   */\n      lt\n        /* \"#utility.yul\":14715:14901   */\n      iszero\n      tag_361\n      jumpi\n        /* \"#utility.yul\":14795:14804   */\n      dup5\n        /* \"#utility.yul\":14790:14793   */\n      dup10\n        /* \"#utility.yul\":14786:14805   */\n      add\n        /* \"#utility.yul\":14773:14806   */\n      calldataload\n        /* \"#utility.yul\":14838:14886   */\n      tag_362\n        /* \"#utility.yul\":14880:14884   */\n      0x1f\n        /* \"#utility.yul\":14872:14878   */\n      dup10\n        /* \"#utility.yul\":14868:14885   */\n      and\n        /* \"#utility.yul\":14857:14866   */\n      dup3\n        /* \"#utility.yul\":14838:14886   */\n      tag_185\n      jump\t// in\n    tag_362:\n        /* \"#utility.yul\":14830:14836   */\n      dup4\n        /* \"#utility.yul\":14823:14887   */\n      sstore\n        /* \"#utility.yul\":14738:14901   */\n      pop\n        /* \"#utility.yul\":14715:14901   */\n    tag_361:\n        /* \"#utility.yul\":14947:14948   */\n      0x01\n        /* \"#utility.yul\":14943:14944   */\n      0x02\n        /* \"#utility.yul\":14935:14941   */\n      dup9\n        /* \"#utility.yul\":14931:14945   */\n      mul\n        /* \"#utility.yul\":14927:14949   */\n      add\n        /* \"#utility.yul\":14921:14925   */\n      dup9\n        /* \"#utility.yul\":14914:14950   */\n      sstore\n        /* \"#utility.yul\":14335:14960   */\n      pop\n      pop\n      pop\n        /* \"#utility.yul\":14298:15206   */\n    tag_353:\n      pop\n        /* \"#utility.yul\":13908:15212   */\n      pop\n      pop\n      pop\n        /* \"#utility.yul\":13809:15212   */\n      pop\n      pop\n      pop\n      jump\t// out\n        /* \"#utility.yul\":15218:15366   */\n    tag_189:\n        /* \"#utility.yul\":15320:15331   */\n      0x00\n        /* \"#utility.yul\":15357:15360   */\n      dup2\n        /* \"#utility.yul\":15342:15360   */\n      swap1\n      pop\n        /* \"#utility.yul\":15218:15366   */\n      swap3\n      swap2\n      pop\n      pop\n      jump\t// out\n        /* \"#utility.yul\":15396:16270   */\n    tag_190:\n        /* \"#utility.yul\":15499:15502   */\n      0x00\n        /* \"#utility.yul\":15536:15541   */\n      dup2\n        /* \"#utility.yul\":15530:15542   */\n      sload\n        /* \"#utility.yul\":15565:15601   */\n      tag_365\n        /* \"#utility.yul\":15591:15600   */\n      dup2\n        /* \"#utility.yul\":15565:15601   */\n      tag_60\n      jump\t// in\n    tag_365:\n        /* \"#utility.yul\":15617:15706   */\n      tag_366\n        /* \"#utility.yul\":15699:15705   */\n      dup2\n        /* \"#utility.yul\":15694:15697   */\n      dup7\n        /* \"#utility.yul\":15617:15706   */\n      tag_189\n      jump\t// in\n    tag_366:\n        /* \"#utility.yul\":15610:15706   */\n      swap5\n      pop\n        /* \"#utility.yul\":15737:15738   */\n      0x01\n        /* \"#utility.yul\":15726:15735   */\n      dup3\n        /* \"#utility.yul\":15722:15739   */\n      and\n        /* \"#utility.yul\":15753:15754   */\n      0x00\n        /* \"#utility.yul\":15748:15914   */\n      dup2\n      eq\n      tag_368\n      jumpi\n        /* \"#utility.yul\":15928:15929   */\n      0x01\n        /* \"#utility.yul\":15923:16264   */\n      dup2\n      eq\n      tag_369\n      jumpi\n        /* \"#utility.yul\":15715:16264   */\n      jump(tag_367)\n        /* \"#utility.yul\":15748:15914   */\n    tag_368:\n        /* \"#utility.yul\":15832:15836   */\n      0xff\n        /* \"#utility.yul\":15828:15837   */\n      not\n        /* \"#utility.yul\":15817:15826   */\n      dup4\n        /* \"#utility.yul\":15813:15838   */\n      and\n        /* \"#utility.yul\":15808:15811   */\n      dup7\n        /* \"#utility.yul\":15801:15839   */\n      mstore\n        /* \"#utility.yul\":15894:15900   */\n      dup2\n        /* \"#utility.yul\":15887:15901   */\n      iszero\n        /* \"#utility.yul\":15880:15902   */\n      iszero\n        /* \"#utility.yul\":15872:15878   */\n      dup3\n        /* \"#utility.yul\":15868:15903   */\n      mul\n        /* \"#utility.yul\":15863:15866   */\n      dup7\n        /* \"#utility.yul\":15859:15904   */\n      add\n        /* \"#utility.yul\":15852:15904   */\n      swap4\n      pop\n        /* \"#utility.yul\":15748:15914   */\n      jump(tag_367)\n        /* \"#utility.yul\":15923:16264   */\n    tag_369:\n        /* \"#utility.yul\":15990:16028   */\n      tag_370\n        /* \"#utility.yul\":16022:16027   */\n      dup6\n        /* \"#utility.yul\":15990:16028   */\n      tag_172\n      jump\t// in\n    tag_370:\n        /* \"#utility.yul\":16050:16051   */\n      0x00\n        /* \"#utility.yul\":16064:16218   */\n    tag_371:\n        /* \"#utility.yul\":16078:16084   */\n      dup4\n        /* \"#utility.yul\":16075:16076   */\n      dup2\n        /* \"#utility.yul\":16072:16085   */\n      lt\n        /* \"#utility.yul\":16064:16218   */\n      iszero\n      tag_373\n      jumpi\n        /* \"#utility.yul\":16152:16159   */\n      dup2\n        /* \"#utility.yul\":16146:16160   */\n      sload\n        /* \"#utility.yul\":16142:16143   */\n      dup2\n        /* \"#utility.yul\":16137:16140   */\n      dup10\n        /* \"#utility.yul\":16133:16144   */\n      add\n        /* \"#utility.yul\":16126:16161   */\n      mstore\n        /* \"#utility.yul\":16202:16203   */\n      0x01\n        /* \"#utility.yul\":16193:16200   */\n      dup3\n        /* \"#utility.yul\":16189:16204   */\n      add\n        /* \"#utility.yul\":16178:16204   */\n      swap2\n      pop\n        /* \"#utility.yul\":16100:16104   */\n      0x20\n        /* \"#utility.yul\":16097:16098   */\n      dup2\n        /* \"#utility.yul\":16093:16105   */\n      add\n        /* \"#utility.yul\":16088:16105   */\n      swap1\n      pop\n        /* \"#utility.yul\":16064:16218   */\n      jump(tag_371)\n    tag_373:\n        /* \"#utility.yul\":16247:16253   */\n      dup4\n        /* \"#utility.yul\":16242:16245   */\n      dup9\n        /* \"#utility.yul\":16238:16254   */\n      add\n        /* \"#utility.yul\":16231:16254   */\n      swap6\n      pop\n        /* \"#utility.yul\":15930:16264   */\n      pop\n      pop\n        /* \"#utility.yul\":15715:16264   */\n    tag_367:\n      pop\n        /* \"#utility.yul\":15503:16270   */\n      pop\n      pop\n        /* \"#utility.yul\":15396:16270   */\n      swap3\n      swap2\n      pop\n      pop\n      jump\t// out\n        /* \"#utility.yul\":16276:16545   */\n    tag_98:\n        /* \"#utility.yul\":16405:16408   */\n      0x00\n        /* \"#utility.yul\":16427:16519   */\n      tag_375\n        /* \"#utility.yul\":16515:16518   */\n      dup3\n        /* \"#utility.yul\":16506:16512   */\n      dup5\n        /* \"#utility.yul\":16427:16519   */\n      tag_190\n      jump\t// in\n    tag_375:\n        /* \"#utility.yul\":16420:16519   */\n      swap2\n      pop\n        /* \"#utility.yul\":16536:16539   */\n      dup2\n        /* \"#utility.yul\":16529:16539   */\n      swap1\n      pop\n        /* \"#utility.yul\":16276:16545   */\n      swap3\n      swap2\n      pop\n      pop\n      jump\t// out\n        /* \"#utility.yul\":16551:16785   */\n    tag_191:\n        /* \"#utility.yul\":16691:16725   */\n      0x43616c6c6572206973206e6f742020617574686f726973656420746f20656469\n        /* \"#utility.yul\":16687:16688   */\n      0x00\n        /* \"#utility.yul\":16679:16685   */\n      dup3\n        /* \"#utility.yul\":16675:16689   */\n      add\n        /* \"#utility.yul\":16668:16726   */\n      mstore\n        /* \"#utility.yul\":16760:16777   */\n      0x74207468697320646f63756d656e740000000000000000000000000000000000\n        /* \"#utility.yul\":16755:16757   */\n      0x20\n        /* \"#utility.yul\":16747:16753   */\n      dup3\n        /* \"#utility.yul\":16743:16758   */\n      add\n        /* \"#utility.yul\":16736:16778   */\n      mstore\n        /* \"#utility.yul\":16551:16785   */\n      pop\n      jump\t// out\n        /* \"#utility.yul\":16791:17157   */\n    tag_192:\n        /* \"#utility.yul\":16933:16936   */\n      0x00\n        /* \"#utility.yul\":16954:17021   */\n      tag_378\n        /* \"#utility.yul\":17018:17020   */\n      0x2f\n        /* \"#utility.yul\":17013:17016   */\n      dup4\n        /* \"#utility.yul\":16954:17021   */\n      tag_152\n      jump\t// in\n    tag_378:\n        /* \"#utility.yul\":16947:17021   */\n      swap2\n      pop\n        /* \"#utility.yul\":17030:17123   */\n      tag_379\n        /* \"#utility.yul\":17119:17122   */\n      dup3\n        /* \"#utility.yul\":17030:17123   */\n      tag_191\n      jump\t// in\n    tag_379:\n        /* \"#utility.yul\":17148:17150   */\n      0x40\n        /* \"#utility.yul\":17143:17146   */\n      dup3\n        /* \"#utility.yul\":17139:17151   */\n      add\n        /* \"#utility.yul\":17132:17151   */\n      swap1\n      pop\n        /* \"#utility.yul\":16791:17157   */\n      swap2\n      swap1\n      pop\n      jump\t// out\n        /* \"#utility.yul\":17163:17582   */\n    tag_102:\n        /* \"#utility.yul\":17329:17333   */\n      0x00\n        /* \"#utility.yul\":17367:17369   */\n      0x20\n        /* \"#utility.yul\":17356:17365   */\n      dup3\n        /* \"#utility.yul\":17352:17370   */\n      add\n        /* \"#utility.yul\":17344:17370   */\n      swap1\n      pop\n        /* \"#utility.yul\":17416:17425   */\n      dup2\n        /* \"#utility.yul\":17410:17414   */\n      dup2\n        /* \"#utility.yul\":17406:17426   */\n      sub\n        /* \"#utility.yul\":17402:17403   */\n      0x00\n        /* \"#utility.yul\":17391:17400   */\n      dup4\n        /* \"#utility.yul\":17387:17404   */\n      add\n        /* \"#utility.yul\":17380:17427   */\n      mstore\n        /* \"#utility.yul\":17444:17575   */\n      tag_381\n        /* \"#utility.yul\":17570:17574   */\n      dup2\n        /* \"#utility.yul\":17444:17575   */\n      tag_192\n      jump\t// in\n    tag_381:\n        /* \"#utility.yul\":17436:17575   */\n      swap1\n      pop\n        /* \"#utility.yul\":17163:17582   */\n      swap2\n      swap1\n      pop\n      jump\t// out\n        /* \"#utility.yul\":17588:17813   */\n    tag_193:\n        /* \"#utility.yul\":17728:17762   */\n      0x43616c6c6572206e6f7420617574686f726973656420746f2061646420646f63\n        /* \"#utility.yul\":17724:17725   */\n      0x00\n        /* \"#utility.yul\":17716:17722   */\n      dup3\n        /* \"#utility.yul\":17712:17726   */\n      add\n        /* \"#utility.yul\":17705:17763   */\n      mstore\n        /* \"#utility.yul\":17797:17805   */\n      0x756d656e74730000000000000000000000000000000000000000000000000000\n        /* \"#utility.yul\":17792:17794   */\n      0x20\n        /* \"#utility.yul\":17784:17790   */\n      dup3\n        /* \"#utility.yul\":17780:17795   */\n      add\n        /* \"#utility.yul\":17773:17806   */\n      mstore\n        /* \"#utility.yul\":17588:17813   */\n      pop\n      jump\t// out\n        /* \"#utility.yul\":17819:18185   */\n    tag_194:\n        /* \"#utility.yul\":17961:17964   */\n      0x00\n        /* \"#utility.yul\":17982:18049   */\n      tag_384\n        /* \"#utility.yul\":18046:18048   */\n      0x26\n        /* \"#utility.yul\":18041:18044   */\n      dup4\n        /* \"#utility.yul\":17982:18049   */\n      tag_152\n      jump\t// in\n    tag_384:\n        /* \"#utility.yul\":17975:18049   */\n      swap2\n      pop\n        /* \"#utility.yul\":18058:18151   */\n      tag_385\n        /* \"#utility.yul\":18147:18150   */\n      dup3\n        /* \"#utility.yul\":18058:18151   */\n      tag_193\n      jump\t// in\n    tag_385:\n        /* \"#utility.yul\":18176:18178   */\n      0x40\n        /* \"#utility.yul\":18171:18174   */\n      dup3\n        /* \"#utility.yul\":18167:18179   */\n      add\n        /* \"#utility.yul\":18160:18179   */\n      swap1\n      pop\n        /* \"#utility.yul\":17819:18185   */\n      swap2\n      swap1\n      pop\n      jump\t// out\n        /* \"#utility.yul\":18191:18610   */\n    tag_106:\n        /* \"#utility.yul\":18357:18361   */\n      0x00\n        /* \"#utility.yul\":18395:18397   */\n      0x20\n        /* \"#utility.yul\":18384:18393   */\n      dup3\n        /* \"#utility.yul\":18380:18398   */\n      add\n        /* \"#utility.yul\":18372:18398   */\n      swap1\n      pop\n        /* \"#utility.yul\":18444:18453   */\n      dup2\n        /* \"#utility.yul\":18438:18442   */\n      dup2\n        /* \"#utility.yul\":18434:18454   */\n      sub\n        /* \"#utility.yul\":18430:18431   */\n      0x00\n        /* \"#utility.yul\":18419:18428   */\n      dup4\n        /* \"#utility.yul\":18415:18432   */\n      add\n        /* \"#utility.yul\":18408:18455   */\n      mstore\n        /* \"#utility.yul\":18472:18603   */\n      tag_387\n        /* \"#utility.yul\":18598:18602   */\n      dup2\n        /* \"#utility.yul\":18472:18603   */\n      tag_194\n      jump\t// in\n    tag_387:\n        /* \"#utility.yul\":18464:18603   */\n      swap1\n      pop\n        /* \"#utility.yul\":18191:18610   */\n      swap2\n      swap1\n      pop\n      jump\t// out\n        /* \"#utility.yul\":18616:18787   */\n    tag_133:\n        /* \"#utility.yul\":18654:18657   */\n      0x00\n        /* \"#utility.yul\":18677:18700   */\n      tag_389\n        /* \"#utility.yul\":18694:18699   */\n      dup3\n        /* \"#utility.yul\":18677:18700   */\n      tag_156\n      jump\t// in\n    tag_389:\n        /* \"#utility.yul\":18668:18700   */\n      swap2\n      pop\n        /* \"#utility.yul\":18722:18728   */\n      0xffff\n        /* \"#utility.yul\":18715:18720   */\n      dup3\n        /* \"#utility.yul\":18712:18729   */\n      sub\n        /* \"#utility.yul\":18709:18752   */\n      tag_390\n      jumpi\n        /* \"#utility.yul\":18732:18750   */\n      tag_391\n      tag_187\n      jump\t// in\n    tag_391:\n        /* \"#utility.yul\":18709:18752   */\n    tag_390:\n        /* \"#utility.yul\":18779:18780   */\n      0x01\n        /* \"#utility.yul\":18772:18777   */\n      dup3\n        /* \"#utility.yul\":18768:18781   */\n      add\n        /* \"#utility.yul\":18761:18781   */\n      swap1\n      pop\n        /* \"#utility.yul\":18616:18787   */\n      swap2\n      swap1\n      pop\n      jump\t// out\n        /* \"#utility.yul\":18793:18941   */\n    tag_195:\n        /* \"#utility.yul\":18891:18897   */\n      dup3\n        /* \"#utility.yul\":18886:18889   */\n      dup2\n        /* \"#utility.yul\":18881:18884   */\n      dup4\n        /* \"#utility.yul\":18868:18898   */\n      calldatacopy\n        /* \"#utility.yul\":18932:18933   */\n      0x00\n        /* \"#utility.yul\":18923:18929   */\n      dup4\n        /* \"#utility.yul\":18918:18921   */\n      dup4\n        /* \"#utility.yul\":18914:18930   */\n      add\n        /* \"#utility.yul\":18907:18934   */\n      mstore\n        /* \"#utility.yul\":18793:18941   */\n      pop\n      pop\n      pop\n      jump\t// out\n        /* \"#utility.yul\":18971:19288   */\n    tag_196:\n        /* \"#utility.yul\":19069:19072   */\n      0x00\n        /* \"#utility.yul\":19090:19161   */\n      tag_394\n        /* \"#utility.yul\":19154:19160   */\n      dup4\n        /* \"#utility.yul\":19149:19152   */\n      dup6\n        /* \"#utility.yul\":19090:19161   */\n      tag_152\n      jump\t// in\n    tag_394:\n        /* \"#utility.yul\":19083:19161   */\n      swap4\n      pop\n        /* \"#utility.yul\":19171:19227   */\n      tag_395\n        /* \"#utility.yul\":19220:19226   */\n      dup4\n        /* \"#utility.yul\":19215:19218   */\n      dup6\n        /* \"#utility.yul\":19208:19213   */\n      dup5\n        /* \"#utility.yul\":19171:19227   */\n      tag_195\n      jump\t// in\n    tag_395:\n        /* \"#utility.yul\":19252:19281   */\n      tag_396\n        /* \"#utility.yul\":19274:19280   */\n      dup4\n        /* \"#utility.yul\":19252:19281   */\n      tag_154\n      jump\t// in\n    tag_396:\n        /* \"#utility.yul\":19247:19250   */\n      dup5\n        /* \"#utility.yul\":19243:19282   */\n      add\n        /* \"#utility.yul\":19236:19282   */\n      swap1\n      pop\n        /* \"#utility.yul\":18971:19288   */\n      swap4\n      swap3\n      pop\n      pop\n      pop\n      jump\t// out\n        /* \"#utility.yul\":19294:19627   */\n    tag_135:\n        /* \"#utility.yul\":19417:19421   */\n      0x00\n        /* \"#utility.yul\":19455:19457   */\n      0x20\n        /* \"#utility.yul\":19444:19453   */\n      dup3\n        /* \"#utility.yul\":19440:19458   */\n      add\n        /* \"#utility.yul\":19432:19458   */\n      swap1\n      pop\n        /* \"#utility.yul\":19504:19513   */\n      dup2\n        /* \"#utility.yul\":19498:19502   */\n      dup2\n        /* \"#utility.yul\":19494:19514   */\n      sub\n        /* \"#utility.yul\":19490:19491   */\n      0x00\n        /* \"#utility.yul\":19479:19488   */\n      dup4\n        /* \"#utility.yul\":19475:19492   */\n      add\n        /* \"#utility.yul\":19468:19515   */\n      mstore\n        /* \"#utility.yul\":19532:19620   */\n      tag_398\n        /* \"#utility.yul\":19615:19619   */\n      dup2\n        /* \"#utility.yul\":19606:19612   */\n      dup5\n        /* \"#utility.yul\":19598:19604   */\n      dup7\n        /* \"#utility.yul\":19532:19620   */\n      tag_196\n      jump\t// in\n    tag_398:\n        /* \"#utility.yul\":19524:19620   */\n      swap1\n      pop\n        /* \"#utility.yul\":19294:19627   */\n      swap4\n      swap3\n      pop\n      pop\n      pop\n      jump\t// out\n\n    auxdata: 0xa26469706673582212200c2b0d371b1f5d33228bf3831fdbe81aa978299ce790cd063f2620431595909464736f6c634300081e0033\n}\n",
				"bytecode": {
					"linkReferences": {},
					"object": "60806040525f5f5f6101000a81548161ffff021916908361ffff1602179055505f5f60026101000a81548161ffff021916908361ffff1602179055503480156045575f5ffd5b50335f60046101000a81548173ffffffffffffffffffffffffffffffffffffffff021916908373ffffffffffffffffffffffffffffffffffffffff160217905550611990806100935f395ff3fe608060405234801561000f575f5ffd5b50600436106100a7575f3560e01c806363f0bfce1161006f57806363f0bfce146101645780636ed73e48146101805780638da5cb5b1461019e578063a6f9dae1146101bc578063bf3ccf48146101d8578063cf3457bf146101f4576100a7565b806305c8dc19146100ab57806324ac89cb146100db57806343f6f548146100f75780634cf00d3f14610115578063505cd5d014610148575b5f5ffd5b6100c560048036038101906100c09190610f66565b610210565b6040516100d29190611001565b60405180910390f35b6100f560048036038101906100f09190610f66565b6102e0565b005b6100ff610495565b60405161010c919061103d565b60405180910390f35b61012f600480360381019061012a9190611089565b6104a8565b60405161013f94939291906110cc565b60405180910390f35b610162600480360381019061015d919061117e565b610621565b005b61017e60048036038101906101799190611089565b610754565b005b610188610944565b604051610195919061103d565b60405180910390f35b6101a6610956565b6040516101b391906111ea565b60405180910390f35b6101d660048036038101906101d19190610f66565b61097b565b005b6101f260048036038101906101ed9190611203565b610a8b565b005b61020e6004803603810190610209919061117e565b610d59565b005b606060025f8373ffffffffffffffffffffffffffffffffffffffff1673ffffffffffffffffffffffffffffffffffffffff1681526020019081526020015f20600101805461025d9061128d565b80601f01602080910402602001604051908101604052809291908181526020018280546102899061128d565b80156102d45780601f106102ab576101008083540402835291602001916102d4565b820191905f5260205f20905b8154815290600101906020018083116102b757829003601f168201915b50505050509050919050565b5f60049054906101000a900473ffffffffffffffffffffffffffffffffffffffff1673ffffffffffffffffffffffffffffffffffffffff163373ffffffffffffffffffffffffffffffffffffffff161461036f576040517f08c379a000000000000000000000000000000000000000000000000000000000815260040161036690611307565b60405180910390fd5b5f60025f8373ffffffffffffffffffffffffffffffffffffffff1673ffffffffffffffffffffffffffffffffffffffff1681526020019081526020015f205f0154036103be576103bd611325565b5b5f60025f8373ffffffffffffffffffffffffffffffffffffffff1673ffffffffffffffffffffffffffffffffffffffff1681526020019081526020015f205f018190555060405180602001604052805f81525060025f8373ffffffffffffffffffffffffffffffffffffffff1673ffffffffffffffffffffffffffffffffffffffff1681526020019081526020015f20600101908161045d919061151f565b505f5f81819054906101000a900461ffff166104789061161b565b91906101000a81548161ffff021916908361ffff16021790555050565b5f60029054906101000a900461ffff1681565b5f5f60608060015f8681526020019081526020015f205f015460015f8781526020019081526020015f206001015460015f8881526020019081526020015f2060020160015f8981526020019081526020015f2060030181805461050a9061128d565b80601f01602080910402602001604051908101604052809291908181526020018280546105369061128d565b80156105815780601f1061055857610100808354040283529160200191610581565b820191905f5260205f20905b81548152906001019060200180831161056457829003601f168201915b505050505091508080546105949061128d565b80601f01602080910402602001604051908101604052809291908181526020018280546105c09061128d565b801561060b5780601f106105e25761010080835404028352916020019161060b565b820191905f5260205f20905b8154815290600101906020018083116105ee57829003601f168201915b5050505050905093509350935093509193509193565b5f60049054906101000a900473ffffffffffffffffffffffffffffffffffffffff1673ffffffffffffffffffffffffffffffffffffffff163373ffffffffffffffffffffffffffffffffffffffff16146106b0576040517f08c379a00000000000000000000000000000000000000000000000000000000081526004016106a790611307565b60405180910390fd5b5f60025f8573ffffffffffffffffffffffffffffffffffffffff1673ffffffffffffffffffffffffffffffffffffffff1681526020019081526020015f205f0154036106ff576106fe611325565b5b818160025f8673ffffffffffffffffffffffffffffffffffffffff1673ffffffffffffffffffffffffffffffffffffffff1681526020019081526020015f20600101918261074e92919061164c565b50505050565b8060015f8281526020019081526020015f2060020160405160200161077991906117a3565b6040516020818303038152906040528051906020012060025f3373ffffffffffffffffffffffffffffffffffffffff1673ffffffffffffffffffffffffffffffffffffffff1681526020019081526020015f206001016040516020016107df91906117a3565b6040516020818303038152906040528051906020012014610835576040517f08c379a000000000000000000000000000000000000000000000000000000000815260040161082c90611829565b60405180910390fd5b5f60025f3373ffffffffffffffffffffffffffffffffffffffff1673ffffffffffffffffffffffffffffffffffffffff1681526020019081526020015f205f0154036108b6576040517f08c379a00000000000000000000000000000000000000000000000000000000081526004016108ad906118b7565b60405180910390fd5b5f60015f8481526020019081526020015f2060010154036108da576108d9611325565b5b5f60015f8481526020019081526020015f205f01819055505f60015f8481526020019081526020015f20600101819055505f600281819054906101000a900461ffff166109269061161b565b91906101000a81548161ffff021916908361ffff1602179055505050565b5f5f9054906101000a900461ffff1681565b5f60049054906101000a900473ffffffffffffffffffffffffffffffffffffffff1681565b5f60049054906101000a900473ffffffffffffffffffffffffffffffffffffffff1673ffffffffffffffffffffffffffffffffffffffff163373ffffffffffffffffffffffffffffffffffffffff1614610a0a576040517f08c379a0000000000000000000000000000000000000000000000000000000008152600401610a0190611307565b60405180910390fd5b805f73ffffffffffffffffffffffffffffffffffffffff168173ffffffffffffffffffffffffffffffffffffffff1603610a4757610a46611325565b5b815f60046101000a81548173ffffffffffffffffffffffffffffffffffffffff021916908373ffffffffffffffffffffffffffffffffffffffff1602179055505050565b5f60025f3373ffffffffffffffffffffffffffffffffffffffff1673ffffffffffffffffffffffffffffffffffffffff1681526020019081526020015f205f015403610b0c576040517f08c379a0000000000000000000000000000000000000000000000000000000008152600401610b03906118b7565b60405180910390fd5b5f60015f8581526020019081526020015f205f0154148015610b4157505f60015f8581526020019081526020015f2060010154145b610b4e57610b4d611325565b5b5f604051806080016040528043815260200142815260200160025f3373ffffffffffffffffffffffffffffffffffffffff1673ffffffffffffffffffffffffffffffffffffffff1681526020019081526020015f206001018054610bb19061128d565b80601f0160208091040260200160405190810160405280929190818152602001828054610bdd9061128d565b8015610c285780601f10610bff57610100808354040283529160200191610c28565b820191905f5260205f20905b815481529060010190602001808311610c0b57829003601f168201915b5050505050815260200184848080601f0160208091040260200160405190810160405280939291908181526020018383808284375f81840152601f19601f8201169050808301925050505050505081525090508060015f8681526020019081526020015f205f820151815f0155602082015181600101556040820151816002019081610cb4919061151f565b506060820151816003019081610cca919061151f565b509050505f600281819054906101000a900461ffff16610ce9906118d5565b91906101000a81548161ffff021916908361ffff1602179055503373ffffffffffffffffffffffffffffffffffffffff167f331f916dac8170a5e3a8a5c82c9de7950bb6cadfb098253c080cb72851b264708484604051610d4b929190611938565b60405180910390a250505050565b5f60049054906101000a900473ffffffffffffffffffffffffffffffffffffffff1673ffffffffffffffffffffffffffffffffffffffff163373ffffffffffffffffffffffffffffffffffffffff1614610de8576040517f08c379a0000000000000000000000000000000000000000000000000000000008152600401610ddf90611307565b60405180910390fd5b5f60025f8573ffffffffffffffffffffffffffffffffffffffff1673ffffffffffffffffffffffffffffffffffffffff1681526020019081526020015f205f015414610e3757610e36611325565b5b4360025f8573ffffffffffffffffffffffffffffffffffffffff1673ffffffffffffffffffffffffffffffffffffffff1681526020019081526020015f205f0181905550818160025f8673ffffffffffffffffffffffffffffffffffffffff1673ffffffffffffffffffffffffffffffffffffffff1681526020019081526020015f206001019182610eca92919061164c565b505f5f81819054906101000a900461ffff16610ee5906118d5565b91906101000a81548161ffff021916908361ffff160217905550505050565b5f5ffd5b5f5ffd5b5f73ffffffffffffffffffffffffffffffffffffffff82169050919050565b5f610f3582610f0c565b9050919050565b610f4581610f2b565b8114610f4f575f5ffd5b50565b5f81359050610f6081610f3c565b92915050565b5f60208284031215610f7b57610f7a610f04565b5b5f610f8884828501610f52565b91505092915050565b5f81519050919050565b5f82825260208201905092915050565b8281835e5f83830152505050565b5f601f19601f8301169050919050565b5f610fd382610f91565b610fdd8185610f9b565b9350610fed818560208601610fab565b610ff681610fb9565b840191505092915050565b5f6020820190508181035f8301526110198184610fc9565b905092915050565b5f61ffff82169050919050565b61103781611021565b82525050565b5f6020820190506110505f83018461102e565b92915050565b5f819050919050565b61106881611056565b8114611072575f5ffd5b50565b5f813590506110838161105f565b92915050565b5f6020828403121561109e5761109d610f04565b5b5f6110ab84828501611075565b91505092915050565b5f819050919050565b6110c6816110b4565b82525050565b5f6080820190506110df5f8301876110bd565b6110ec60208301866110bd565b81810360408301526110fe8185610fc9565b905081810360608301526111128184610fc9565b905095945050505050565b5f5ffd5b5f5ffd5b5f5ffd5b5f5f83601f84011261113e5761113d61111d565b5b8235905067ffffffffffffffff81111561115b5761115a611121565b5b60208301915083600182028301111561117757611176611125565b5b9250929050565b5f5f5f6040848603121561119557611194610f04565b5b5f6111a286828701610f52565b935050602084013567ffffffffffffffff8111156111c3576111c2610f08565b5b6111cf86828701611129565b92509250509250925092565b6111e481610f2b565b82525050565b5f6020820190506111fd5f8301846111db565b92915050565b5f5f5f6040848603121561121a57611219610f04565b5b5f61122786828701611075565b935050602084013567ffffffffffffffff81111561124857611247610f08565b5b61125486828701611129565b92509250509250925092565b7f4e487b71000000000000000000000000000000000000000000000000000000005f52602260045260245ffd5b5f60028204905060018216806112a457607f821691505b6020821081036112b7576112b6611260565b5b50919050565b7f43616c6c6572206973206e6f7420746865206f776e65720000000000000000005f82015250565b5f6112f1601783610f9b565b91506112fc826112bd565b602082019050919050565b5f6020820190508181035f83015261131e816112e5565b9050919050565b7f4e487b71000000000000000000000000000000000000000000000000000000005f52600160045260245ffd5b7f4e487b71000000000000000000000000000000000000000000000000000000005f52604160045260245ffd5b5f819050815f5260205f209050919050565b5f6020601f8301049050919050565b5f82821b905092915050565b5f600883026113db7fffffffffffffffffffffffffffffffffffffffffffffffffffffffffffffffff826113a0565b6113e586836113a0565b95508019841693508086168417925050509392505050565b5f819050919050565b5f61142061141b611416846110b4565b6113fd565b6110b4565b9050919050565b5f819050919050565b61143983611406565b61144d61144582611427565b8484546113ac565b825550505050565b5f5f905090565b611464611455565b61146f818484611430565b505050565b5b81811015611492576114875f8261145c565b600181019050611475565b5050565b601f8211156114d7576114a88161137f565b6114b184611391565b810160208510156114c0578190505b6114d46114cc85611391565b830182611474565b50505b505050565b5f82821c905092915050565b5f6114f75f19846008026114dc565b1980831691505092915050565b5f61150f83836114e8565b9150826002028217905092915050565b61152882610f91565b67ffffffffffffffff81111561154157611540611352565b5b61154b825461128d565b611556828285611496565b5f60209050601f831160018114611587575f8415611575578287015190505b61157f8582611504565b8655506115e6565b601f1984166115958661137f565b5f5b828110156115bc57848901518255600182019150602085019450602081019050611597565b868310156115d957848901516115d5601f8916826114e8565b8355505b6001600288020188555050505b505050505050565b7f4e487b71000000000000000000000000000000000000000000000000000000005f52601160045260245ffd5b5f61162582611021565b91505f8203611637576116366115ee565b5b600182039050919050565b5f82905092915050565b6116568383611642565b67ffffffffffffffff81111561166f5761166e611352565b5b611679825461128d565b611684828285611496565b5f601f8311600181146116b1575f841561169f578287013590505b6116a98582611504565b865550611710565b601f1984166116bf8661137f565b5f5b828110156116e6578489013582556001820191506020850194506020810190506116c1565b8683101561170357848901356116ff601f8916826114e8565b8355505b6001600288020188555050505b50505050505050565b5f81905092915050565b5f815461172f8161128d565b6117398186611719565b9450600182165f811461175357600181146117685761179a565b60ff198316865281151582028601935061179a565b6117718561137f565b5f5b8381101561179257815481890152600182019150602081019050611773565b838801955050505b50505092915050565b5f6117ae8284611723565b915081905092915050565b7f43616c6c6572206973206e6f742020617574686f726973656420746f206564695f8201527f74207468697320646f63756d656e740000000000000000000000000000000000602082015250565b5f611813602f83610f9b565b915061181e826117b9565b604082019050919050565b5f6020820190508181035f83015261184081611807565b9050919050565b7f43616c6c6572206e6f7420617574686f726973656420746f2061646420646f635f8201527f756d656e74730000000000000000000000000000000000000000000000000000602082015250565b5f6118a1602683610f9b565b91506118ac82611847565b604082019050919050565b5f6020820190508181035f8301526118ce81611895565b9050919050565b5f6118df82611021565b915061ffff82036118f3576118f26115ee565b5b600182019050919050565b828183375f83830152505050565b5f6119178385610f9b565b93506119248385846118fe565b61192d83610fb9565b840190509392505050565b5f6020820190508181035f83015261195181848661190c565b9050939250505056fea26469706673582212200c2b0d371b1f5d33228bf3831fdbe81aa978299ce790cd063f2620431595909464736f6c634300081e0033",
					"opcodes": "PUSH1 0x80 PUSH1 0x40 MSTORE PUSH0 PUSH0 PUSH0 PUSH2 0x100 EXP DUP2 SLOAD DUP2 PUSH2 0xFFFF MUL NOT AND SWAP1 DUP4 PUSH2 0xFFFF AND MUL OR SWAP1 SSTORE POP PUSH0 PUSH0 PUSH1 0x2 PUSH2 0x100 EXP DUP2 SLOAD DUP2 PUSH2 0xFFFF MUL NOT AND SWAP1 DUP4 PUSH2 0xFFFF AND MUL OR SWAP1 SSTORE POP CALLVALUE DUP1 ISZERO PUSH1 0x45 JUMPI PUSH0 PUSH0 REVERT JUMPDEST POP CALLER PUSH0 PUSH1 0x4 PUSH2 0x100 EXP DUP2 SLOAD DUP2 PUSH20 0xFFFFFFFFFFFFFFFFFFFFFFFFFFFFFFFFFFFFFFFF MUL NOT AND SWAP1 DUP4 PUSH20 0xFFFFFFFFFFFFFFFFFFFFFFFFFFFFFFFFFFFFFFFF AND MUL OR SWAP1 SSTORE POP PUSH2 0x1990 DUP1 PUSH2 0x93 PUSH0 CODECOPY PUSH0 RETURN INVALID PUSH1 0x80 PUSH1 0x40 MSTORE CALLVALUE DUP1 ISZERO PUSH2 0xF JUMPI PUSH0 PUSH0 REVERT JUMPDEST POP PUSH1 0x4 CALLDATASIZE LT PUSH2 0xA7 JUMPI PUSH0 CALLDATALOAD PUSH1 0xE0 SHR DUP1 PUSH4 0x63F0BFCE GT PUSH2 0x6F JUMPI DUP1 PUSH4 0x63F0BFCE EQ PUSH2 0x164 JUMPI DUP1 PUSH4 0x6ED73E48 EQ PUSH2 0x180 JUMPI DUP1 PUSH4 0x8DA5CB5B EQ PUSH2 0x19E JUMPI DUP1 PUSH4 0xA6F9DAE1 EQ PUSH2 0x1BC JUMPI DUP1 PUSH4 0xBF3CCF48 EQ PUSH2 0x1D8 JUMPI DUP1 PUSH4 0xCF3457BF EQ PUSH2 0x1F4 JUMPI PUSH2 0xA7 JUMP JUMPDEST DUP1 PUSH4 0x5C8DC19 EQ PUSH2 0xAB JUMPI DUP1 PUSH4 0x24AC89CB EQ PUSH2 0xDB JUMPI DUP1 PUSH4 0x43F6F548 EQ PUSH2 0xF7 JUMPI DUP1 PUSH4 0x4CF00D3F EQ PUSH2 0x115 JUMPI DUP1 PUSH4 0x505CD5D0 EQ PUSH2 0x148 JUMPI JUMPDEST PUSH0 PUSH0 REVERT JUMPDEST PUSH2 0xC5 PUSH1 0x4 DUP1 CALLDATASIZE SUB DUP2 ADD SWAP1 PUSH2 0xC0 SWAP2 SWAP1 PUSH2 0xF66 JUMP JUMPDEST PUSH2 0x210 JUMP JUMPDEST PUSH1 0x40 MLOAD PUSH2 0xD2 SWAP2 SWAP1 PUSH2 0x1001 JUMP JUMPDEST PUSH1 0x40 MLOAD DUP1 SWAP2 SUB SWAP1 RETURN JUMPDEST PUSH2 0xF5 PUSH1 0x4 DUP1 CALLDATASIZE SUB DUP2 ADD SWAP1 PUSH2 0xF0 SWAP2 SWAP1 PUSH2 0xF66 JUMP JUMPDEST PUSH2 0x2E0 JUMP JUMPDEST STOP JUMPDEST PUSH2 0xFF PUSH2 0x495 JUMP JUMPDEST PUSH1 0x40 MLOAD PUSH2 0x10C SWAP2 SWAP1 PUSH2 0x103D JUMP JUMPDEST PUSH1 0x40 MLOAD DUP1 SWAP2 SUB SWAP1 RETURN JUMPDEST PUSH2 0x12F PUSH1 0x4 DUP1 CALLDATASIZE SUB DUP2 ADD SWAP1 PUSH2 0x12A SWAP2 SWAP1 PUSH2 0x1089 JUMP JUMPDEST PUSH2 0x4A8 JUMP JUMPDEST PUSH1 0x40 MLOAD PUSH2 0x13F SWAP5 SWAP4 SWAP3 SWAP2 SWAP1 PUSH2 0x10CC JUMP JUMPDEST PUSH1 0x40 MLOAD DUP1 SWAP2 SUB SWAP1 RETURN JUMPDEST PUSH2 0x162 PUSH1 0x4 DUP1 CALLDATASIZE SUB DUP2 ADD SWAP1 PUSH2 0x15D SWAP2 SWAP1 PUSH2 0x117E JUMP JUMPDEST PUSH2 0x621 JUMP JUMPDEST STOP JUMPDEST PUSH2 0x17E PUSH1 0x4 DUP1 CALLDATASIZE SUB DUP2 ADD SWAP1 PUSH2 0x179 SWAP2 SWAP1 PUSH2 0x1089 JUMP JUMPDEST PUSH2 0x754 JUMP JUMPDEST STOP JUMPDEST PUSH2 0x188 PUSH2 0x944 JUMP JUMPDEST PUSH1 0x40 MLOAD PUSH2 0x195 SWAP2 SWAP1 PUSH2 0x103D JUMP JUMPDEST PUSH1 0x40 MLOAD DUP1 SWAP2 SUB SWAP1 RETURN JUMPDEST PUSH2 0x1A6 PUSH2 0x956 JUMP JUMPDEST PUSH1 0x40 MLOAD PUSH2 0x1B3 SWAP2 SWAP1 PUSH2 0x11EA JUMP JUMPDEST PUSH1 0x40 MLOAD DUP1 SWAP2 SUB SWAP1 RETURN JUMPDEST PUSH2 0x1D6 PUSH1 0x4 DUP1 CALLDATASIZE SUB DUP2 ADD SWAP1 PUSH2 0x1D1 SWAP2 SWAP1 PUSH2 0xF66 JUMP JUMPDEST PUSH2 0x97B JUMP JUMPDEST STOP JUMPDEST PUSH2 0x1F2 PUSH1 0x4 DUP1 CALLDATASIZE SUB DUP2 ADD SWAP1 PUSH2 0x1ED SWAP2 SWAP1 PUSH2 0x1203 JUMP JUMPDEST PUSH2 0xA8B JUMP JUMPDEST STOP JUMPDEST PUSH2 0x20E PUSH1 0x4 DUP1 CALLDATASIZE SUB DUP2 ADD SWAP1 PUSH2 0x209 SWAP2 SWAP1 PUSH2 0x117E JUMP JUMPDEST PUSH2 0xD59 JUMP JUMPDEST STOP JUMPDEST PUSH1 0x60 PUSH1 0x2 PUSH0 DUP4 PUSH20 0xFFFFFFFFFFFFFFFFFFFFFFFFFFFFFFFFFFFFFFFF AND PUSH20 0xFFFFFFFFFFFFFFFFFFFFFFFFFFFFFFFFFFFFFFFF AND DUP2 MSTORE PUSH1 0x20 ADD SWAP1 DUP2 MSTORE PUSH1 0x20 ADD PUSH0 KECCAK256 PUSH1 0x1 ADD DUP1 SLOAD PUSH2 0x25D SWAP1 PUSH2 0x128D JUMP JUMPDEST DUP1 PUSH1 0x1F ADD PUSH1 0x20 DUP1 SWAP2 DIV MUL PUSH1 0x20 ADD PUSH1 0x40 MLOAD SWAP1 DUP2 ADD PUSH1 0x40 MSTORE DUP1 SWAP3 SWAP2 SWAP1 DUP2 DUP2 MSTORE PUSH1 0x20 ADD DUP3 DUP1 SLOAD PUSH2 0x289 SWAP1 PUSH2 0x128D JUMP JUMPDEST DUP1 ISZERO PUSH2 0x2D4 JUMPI DUP1 PUSH1 0x1F LT PUSH2 0x2AB JUMPI PUSH2 0x100 DUP1 DUP4 SLOAD DIV MUL DUP4 MSTORE SWAP2 PUSH1 0x20 ADD SWAP2 PUSH2 0x2D4 JUMP JUMPDEST DUP3 ADD SWAP2 SWAP1 PUSH0 MSTORE PUSH1 0x20 PUSH0 KECCAK256 SWAP1 JUMPDEST DUP2 SLOAD DUP2 MSTORE SWAP1 PUSH1 0x1 ADD SWAP1 PUSH1 0x20 ADD DUP1 DUP4 GT PUSH2 0x2B7 JUMPI DUP3 SWAP1 SUB PUSH1 0x1F AND DUP3 ADD SWAP2 JUMPDEST POP POP POP POP POP SWAP1 POP SWAP2 SWAP1 POP JUMP JUMPDEST PUSH0 PUSH1 0x4 SWAP1 SLOAD SWAP1 PUSH2 0x100 EXP SWAP1 DIV PUSH20 0xFFFFFFFFFFFFFFFFFFFFFFFFFFFFFFFFFFFFFFFF AND PUSH20 0xFFFFFFFFFFFFFFFFFFFFFFFFFFFFFFFFFFFFFFFF AND CALLER PUSH20 0xFFFFFFFFFFFFFFFFFFFFFFFFFFFFFFFFFFFFFFFF AND EQ PUSH2 0x36F JUMPI PUSH1 0x40 MLOAD PUSH32 0x8C379A000000000000000000000000000000000000000000000000000000000 DUP2 MSTORE PUSH1 0x4 ADD PUSH2 0x366 SWAP1 PUSH2 0x1307 JUMP JUMPDEST PUSH1 0x40 MLOAD DUP1 SWAP2 SUB SWAP1 REVERT JUMPDEST PUSH0 PUSH1 0x2 PUSH0 DUP4 PUSH20 0xFFFFFFFFFFFFFFFFFFFFFFFFFFFFFFFFFFFFFFFF AND PUSH20 0xFFFFFFFFFFFFFFFFFFFFFFFFFFFFFFFFFFFFFFFF AND DUP2 MSTORE PUSH1 0x20 ADD SWAP1 DUP2 MSTORE PUSH1 0x20 ADD PUSH0 KECCAK256 PUSH0 ADD SLOAD SUB PUSH2 0x3BE JUMPI PUSH2 0x3BD PUSH2 0x1325 JUMP JUMPDEST JUMPDEST PUSH0 PUSH1 0x2 PUSH0 DUP4 PUSH20 0xFFFFFFFFFFFFFFFFFFFFFFFFFFFFFFFFFFFFFFFF AND PUSH20 0xFFFFFFFFFFFFFFFFFFFFFFFFFFFFFFFFFFFFFFFF AND DUP2 MSTORE PUSH1 0x20 ADD SWAP1 DUP2 MSTORE PUSH1 0x20 ADD PUSH0 KECCAK256 PUSH0 ADD DUP2 SWAP1 SSTORE POP PUSH1 0x40 MLOAD DUP1 PUSH1 0x20 ADD PUSH1 0x40 MSTORE DUP1 PUSH0 DUP2 MSTORE POP PUSH1 0x2 PUSH0 DUP4 PUSH20 0xFFFFFFFFFFFFFFFFFFFFFFFFFFFFFFFFFFFFFFFF AND PUSH20 0xFFFFFFFFFFFFFFFFFFFFFFFFFFFFFFFFFFFFFFFF AND DUP2 MSTORE PUSH1 0x20 ADD SWAP1 DUP2 MSTORE PUSH1 0x20 ADD PUSH0 KECCAK256 PUSH1 0x1 ADD SWAP1 DUP2 PUSH2 0x45D SWAP2 SWAP1 PUSH2 0x151F JUMP JUMPDEST POP PUSH0 PUSH0 DUP2 DUP2 SWAP1 SLOAD SWAP1 PUSH2 0x100 EXP SWAP1 DIV PUSH2 0xFFFF AND PUSH2 0x478 SWAP1 PUSH2 0x161B JUMP JUMPDEST SWAP2 SWAP1 PUSH2 0x100 EXP DUP2 SLOAD DUP2 PUSH2 0xFFFF MUL NOT AND SWAP1 DUP4 PUSH2 0xFFFF AND MUL OR SWAP1 SSTORE POP POP JUMP JUMPDEST PUSH0 PUSH1 0x2 SWAP1 SLOAD SWAP1 PUSH2 0x100 EXP SWAP1 DIV PUSH2 0xFFFF AND DUP2 JUMP JUMPDEST PUSH0 PUSH0 PUSH1 0x60 DUP1 PUSH1 0x1 PUSH0 DUP7 DUP2 MSTORE PUSH1 0x20 ADD SWAP1 DUP2 MSTORE PUSH1 0x20 ADD PUSH0 KECCAK256 PUSH0 ADD SLOAD PUSH1 0x1 PUSH0 DUP8 DUP2 MSTORE PUSH1 0x20 ADD SWAP1 DUP2 MSTORE PUSH1 0x20 ADD PUSH0 KECCAK256 PUSH1 0x1 ADD SLOAD PUSH1 0x1 PUSH0 DUP9 DUP2 MSTORE PUSH1 0x20 ADD SWAP1 DUP2 MSTORE PUSH1 0x20 ADD PUSH0 KECCAK256 PUSH1 0x2 ADD PUSH1 0x1 PUSH0 DUP10 DUP2 MSTORE PUSH1 0x20 ADD SWAP1 DUP2 MSTORE PUSH1 0x20 ADD PUSH0 KECCAK256 PUSH1 0x3 ADD DUP2 DUP1 SLOAD PUSH2 0x50A SWAP1 PUSH2 0x128D JUMP JUMPDEST DUP1 PUSH1 0x1F ADD PUSH1 0x20 DUP1 SWAP2 DIV MUL PUSH1 0x20 ADD PUSH1 0x40 MLOAD SWAP1 DUP2 ADD PUSH1 0x40 MSTORE DUP1 SWAP3 SWAP2 SWAP1 DUP2 DUP2 MSTORE PUSH1 0x20 ADD DUP3 DUP1 SLOAD PUSH2 0x536 SWAP1 PUSH2 0x128D JUMP JUMPDEST DUP1 ISZERO PUSH2 0x581 JUMPI DUP1 PUSH1 0x1F LT PUSH2 0x558 JUMPI PUSH2 0x100 DUP1 DUP4 SLOAD DIV MUL DUP4 MSTORE SWAP2 PUSH1 0x20 ADD SWAP2 PUSH2 0x581 JUMP JUMPDEST DUP3 ADD SWAP2 SWAP1 PUSH0 MSTORE PUSH1 0x20 PUSH0 KECCAK256 SWAP1 JUMPDEST DUP2 SLOAD DUP2 MSTORE SWAP1 PUSH1 0x1 ADD SWAP1 PUSH1 0x20 ADD DUP1 DUP4 GT PUSH2 0x564 JUMPI DUP3 SWAP1 SUB PUSH1 0x1F AND DUP3 ADD SWAP2 JUMPDEST POP POP POP POP POP SWAP2 POP DUP1 DUP1 SLOAD PUSH2 0x594 SWAP1 PUSH2 0x128D JUMP JUMPDEST DUP1 PUSH1 0x1F ADD PUSH1 0x20 DUP1 SWAP2 DIV MUL PUSH1 0x20 ADD PUSH1 0x40 MLOAD SWAP1 DUP2 ADD PUSH1 0x40 MSTORE DUP1 SWAP3 SWAP2 SWAP1 DUP2 DUP2 MSTORE PUSH1 0x20 ADD DUP3 DUP1 SLOAD PUSH2 0x5C0 SWAP1 PUSH2 0x128D JUMP JUMPDEST DUP1 ISZERO PUSH2 0x60B JUMPI DUP1 PUSH1 0x1F LT PUSH2 0x5E2 JUMPI PUSH2 0x100 DUP1 DUP4 SLOAD DIV MUL DUP4 MSTORE SWAP2 PUSH1 0x20 ADD SWAP2 PUSH2 0x60B JUMP JUMPDEST DUP3 ADD SWAP2 SWAP1 PUSH0 MSTORE PUSH1 0x20 PUSH0 KECCAK256 SWAP1 JUMPDEST DUP2 SLOAD DUP2 MSTORE SWAP1 PUSH1 0x1 ADD SWAP1 PUSH1 0x20 ADD DUP1 DUP4 GT PUSH2 0x5EE JUMPI DUP3 SWAP1 SUB PUSH1 0x1F AND DUP3 ADD SWAP2 JUMPDEST POP POP POP POP POP SWAP1 POP SWAP4 POP SWAP4 POP SWAP4 POP SWAP4 POP SWAP2 SWAP4 POP SWAP2 SWAP4 JUMP JUMPDEST PUSH0 PUSH1 0x4 SWAP1 SLOAD SWAP1 PUSH2 0x100 EXP SWAP1 DIV PUSH20 0xFFFFFFFFFFFFFFFFFFFFFFFFFFFFFFFFFFFFFFFF AND PUSH20 0xFFFFFFFFFFFFFFFFFFFFFFFFFFFFFFFFFFFFFFFF AND CALLER PUSH20 0xFFFFFFFFFFFFFFFFFFFFFFFFFFFFFFFFFFFFFFFF AND EQ PUSH2 0x6B0 JUMPI PUSH1 0x40 MLOAD PUSH32 0x8C379A000000000000000000000000000000000000000000000000000000000 DUP2 MSTORE PUSH1 0x4 ADD PUSH2 0x6A7 SWAP1 PUSH2 0x1307 JUMP JUMPDEST PUSH1 0x40 MLOAD DUP1 SWAP2 SUB SWAP1 REVERT JUMPDEST PUSH0 PUSH1 0x2 PUSH0 DUP6 PUSH20 0xFFFFFFFFFFFFFFFFFFFFFFFFFFFFFFFFFFFFFFFF AND PUSH20 0xFFFFFFFFFFFFFFFFFFFFFFFFFFFFFFFFFFFFFFFF AND DUP2 MSTORE PUSH1 0x20 ADD SWAP1 DUP2 MSTORE PUSH1 0x20 ADD PUSH0 KECCAK256 PUSH0 ADD SLOAD SUB PUSH2 0x6FF JUMPI PUSH2 0x6FE PUSH2 0x1325 JUMP JUMPDEST JUMPDEST DUP2 DUP2 PUSH1 0x2 PUSH0 DUP7 PUSH20 0xFFFFFFFFFFFFFFFFFFFFFFFFFFFFFFFFFFFFFFFF AND PUSH20 0xFFFFFFFFFFFFFFFFFFFFFFFFFFFFFFFFFFFFFFFF AND DUP2 MSTORE PUSH1 0x20 ADD SWAP1 DUP2 MSTORE PUSH1 0x20 ADD PUSH0 KECCAK256 PUSH1 0x1 ADD SWAP2 DUP3 PUSH2 0x74E SWAP3 SWAP2 SWAP1 PUSH2 0x164C JUMP JUMPDEST POP POP POP POP JUMP JUMPDEST DUP1 PUSH1 0x1 PUSH0 DUP3 DUP2 MSTORE PUSH1 0x20 ADD SWAP1 DUP2 MSTORE PUSH1 0x20 ADD PUSH0 KECCAK256 PUSH1 0x2 ADD PUSH1 0x40 MLOAD PUSH1 0x20 ADD PUSH2 0x779 SWAP2 SWAP1 PUSH2 0x17A3 JUMP JUMPDEST PUSH1 0x40 MLOAD PUSH1 0x20 DUP2 DUP4 SUB SUB DUP2 MSTORE SWAP1 PUSH1 0x40 MSTORE DUP1 MLOAD SWAP1 PUSH1 0x20 ADD KECCAK256 PUSH1 0x2 PUSH0 CALLER PUSH20 0xFFFFFFFFFFFFFFFFFFFFFFFFFFFFFFFFFFFFFFFF AND PUSH20 0xFFFFFFFFFFFFFFFFFFFFFFFFFFFFFFFFFFFFFFFF AND DUP2 MSTORE PUSH1 0x20 ADD SWAP1 DUP2 MSTORE PUSH1 0x20 ADD PUSH0 KECCAK256 PUSH1 0x1 ADD PUSH1 0x40 MLOAD PUSH1 0x20 ADD PUSH2 0x7DF SWAP2 SWAP1 PUSH2 0x17A3 JUMP JUMPDEST PUSH1 0x40 MLOAD PUSH1 0x20 DUP2 DUP4 SUB SUB DUP2 MSTORE SWAP1 PUSH1 0x40 MSTORE DUP1 MLOAD SWAP1 PUSH1 0x20 ADD KECCAK256 EQ PUSH2 0x835 JUMPI PUSH1 0x40 MLOAD PUSH32 0x8C379A000000000000000000000000000000000000000000000000000000000 DUP2 MSTORE PUSH1 0x4 ADD PUSH2 0x82C SWAP1 PUSH2 0x1829 JUMP JUMPDEST PUSH1 0x40 MLOAD DUP1 SWAP2 SUB SWAP1 REVERT JUMPDEST PUSH0 PUSH1 0x2 PUSH0 CALLER PUSH20 0xFFFFFFFFFFFFFFFFFFFFFFFFFFFFFFFFFFFFFFFF AND PUSH20 0xFFFFFFFFFFFFFFFFFFFFFFFFFFFFFFFFFFFFFFFF AND DUP2 MSTORE PUSH1 0x20 ADD SWAP1 DUP2 MSTORE PUSH1 0x20 ADD PUSH0 KECCAK256 PUSH0 ADD SLOAD SUB PUSH2 0x8B6 JUMPI PUSH1 0x40 MLOAD PUSH32 0x8C379A000000000000000000000000000000000000000000000000000000000 DUP2 MSTORE PUSH1 0x4 ADD PUSH2 0x8AD SWAP1 PUSH2 0x18B7 JUMP JUMPDEST PUSH1 0x40 MLOAD DUP1 SWAP2 SUB SWAP1 REVERT JUMPDEST PUSH0 PUSH1 0x1 PUSH0 DUP5 DUP2 MSTORE PUSH1 0x20 ADD SWAP1 DUP2 MSTORE PUSH1 0x20 ADD PUSH0 KECCAK256 PUSH1 0x1 ADD SLOAD SUB PUSH2 0x8DA JUMPI PUSH2 0x8D9 PUSH2 0x1325 JUMP JUMPDEST JUMPDEST PUSH0 PUSH1 0x1 PUSH0 DUP5 DUP2 MSTORE PUSH1 0x20 ADD SWAP1 DUP2 MSTORE PUSH1 0x20 ADD PUSH0 KECCAK256 PUSH0 ADD DUP2 SWAP1 SSTORE POP PUSH0 PUSH1 0x1 PUSH0 DUP5 DUP2 MSTORE PUSH1 0x20 ADD SWAP1 DUP2 MSTORE PUSH1 0x20 ADD PUSH0 KECCAK256 PUSH1 0x1 ADD DUP2 SWAP1 SSTORE POP PUSH0 PUSH1 0x2 DUP2 DUP2 SWAP1 SLOAD SWAP1 PUSH2 0x100 EXP SWAP1 DIV PUSH2 0xFFFF AND PUSH2 0x926 SWAP1 PUSH2 0x161B JUMP JUMPDEST SWAP2 SWAP1 PUSH2 0x100 EXP DUP2 SLOAD DUP2 PUSH2 0xFFFF MUL NOT AND SWAP1 DUP4 PUSH2 0xFFFF AND MUL OR SWAP1 SSTORE POP POP POP JUMP JUMPDEST PUSH0 PUSH0 SWAP1 SLOAD SWAP1 PUSH2 0x100 EXP SWAP1 DIV PUSH2 0xFFFF AND DUP2 JUMP JUMPDEST PUSH0 PUSH1 0x4 SWAP1 SLOAD SWAP1 PUSH2 0x100 EXP SWAP1 DIV PUSH20 0xFFFFFFFFFFFFFFFFFFFFFFFFFFFFFFFFFFFFFFFF AND DUP2 JUMP JUMPDEST PUSH0 PUSH1 0x4 SWAP1 SLOAD SWAP1 PUSH2 0x100 EXP SWAP1 DIV PUSH20 0xFFFFFFFFFFFFFFFFFFFFFFFFFFFFFFFFFFFFFFFF AND PUSH20 0xFFFFFFFFFFFFFFFFFFFFFFFFFFFFFFFFFFFFFFFF AND CALLER PUSH20 0xFFFFFFFFFFFFFFFFFFFFFFFFFFFFFFFFFFFFFFFF AND EQ PUSH2 0xA0A JUMPI PUSH1 0x40 MLOAD PUSH32 0x8C379A000000000000000000000000000000000000000000000000000000000 DUP2 MSTORE PUSH1 0x4 ADD PUSH2 0xA01 SWAP1 PUSH2 0x1307 JUMP JUMPDEST PUSH1 0x40 MLOAD DUP1 SWAP2 SUB SWAP1 REVERT JUMPDEST DUP1 PUSH0 PUSH20 0xFFFFFFFFFFFFFFFFFFFFFFFFFFFFFFFFFFFFFFFF AND DUP2 PUSH20 0xFFFFFFFFFFFFFFFFFFFFFFFFFFFFFFFFFFFFFFFF AND SUB PUSH2 0xA47 JUMPI PUSH2 0xA46 PUSH2 0x1325 JUMP JUMPDEST JUMPDEST DUP2 PUSH0 PUSH1 0x4 PUSH2 0x100 EXP DUP2 SLOAD DUP2 PUSH20 0xFFFFFFFFFFFFFFFFFFFFFFFFFFFFFFFFFFFFFFFF MUL NOT AND SWAP1 DUP4 PUSH20 0xFFFFFFFFFFFFFFFFFFFFFFFFFFFFFFFFFFFFFFFF AND MUL OR SWAP1 SSTORE POP POP POP JUMP JUMPDEST PUSH0 PUSH1 0x2 PUSH0 CALLER PUSH20 0xFFFFFFFFFFFFFFFFFFFFFFFFFFFFFFFFFFFFFFFF AND PUSH20 0xFFFFFFFFFFFFFFFFFFFFFFFFFFFFFFFFFFFFFFFF AND DUP2 MSTORE PUSH1 0x20 ADD SWAP1 DUP2 MSTORE PUSH1 0x20 ADD PUSH0 KECCAK256 PUSH0 ADD SLOAD SUB PUSH2 0xB0C JUMPI PUSH1 0x40 MLOAD PUSH32 0x8C379A000000000000000000000000000000000000000000000000000000000 DUP2 MSTORE PUSH1 0x4 ADD PUSH2 0xB03 SWAP1 PUSH2 0x18B7 JUMP JUMPDEST PUSH1 0x40 MLOAD DUP1 SWAP2 SUB SWAP1 REVERT JUMPDEST PUSH0 PUSH1 0x1 PUSH0 DUP6 DUP2 MSTORE PUSH1 0x20 ADD SWAP1 DUP2 MSTORE PUSH1 0x20 ADD PUSH0 KECCAK256 PUSH0 ADD SLOAD EQ DUP1 ISZERO PUSH2 0xB41 JUMPI POP PUSH0 PUSH1 0x1 PUSH0 DUP6 DUP2 MSTORE PUSH1 0x20 ADD SWAP1 DUP2 MSTORE PUSH1 0x20 ADD PUSH0 KECCAK256 PUSH1 0x1 ADD SLOAD EQ JUMPDEST PUSH2 0xB4E JUMPI PUSH2 0xB4D PUSH2 0x1325 JUMP JUMPDEST JUMPDEST PUSH0 PUSH1 0x40 MLOAD DUP1 PUSH1 0x80 ADD PUSH1 0x40 MSTORE DUP1 NUMBER DUP2 MSTORE PUSH1 0x20 ADD TIMESTAMP DUP2 MSTORE PUSH1 0x20 ADD PUSH1 0x2 PUSH0 CALLER PUSH20 0xFFFFFFFFFFFFFFFFFFFFFFFFFFFFFFFFFFFFFFFF AND PUSH20 0xFFFFFFFFFFFFFFFFFFFFFFFFFFFFFFFFFFFFFFFF AND DUP2 MSTORE PUSH1 0x20 ADD SWAP1 DUP2 MSTORE PUSH1 0x20 ADD PUSH0 KECCAK256 PUSH1 0x1 ADD DUP1 SLOAD PUSH2 0xBB1 SWAP1 PUSH2 0x128D JUMP JUMPDEST DUP1 PUSH1 0x1F ADD PUSH1 0x20 DUP1 SWAP2 DIV MUL PUSH1 0x20 ADD PUSH1 0x40 MLOAD SWAP1 DUP2 ADD PUSH1 0x40 MSTORE DUP1 SWAP3 SWAP2 SWAP1 DUP2 DUP2 MSTORE PUSH1 0x20 ADD DUP3 DUP1 SLOAD PUSH2 0xBDD SWAP1 PUSH2 0x128D JUMP JUMPDEST DUP1 ISZERO PUSH2 0xC28 JUMPI DUP1 PUSH1 0x1F LT PUSH2 0xBFF JUMPI PUSH2 0x100 DUP1 DUP4 SLOAD DIV MUL DUP4 MSTORE SWAP2 PUSH1 0x20 ADD SWAP2 PUSH2 0xC28 JUMP JUMPDEST DUP3 ADD SWAP2 SWAP1 PUSH0 MSTORE PUSH1 0x20 PUSH0 KECCAK256 SWAP1 JUMPDEST DUP2 SLOAD DUP2 MSTORE SWAP1 PUSH1 0x1 ADD SWAP1 PUSH1 0x20 ADD DUP1 DUP4 GT PUSH2 0xC0B JUMPI DUP3 SWAP1 SUB PUSH1 0x1F AND DUP3 ADD SWAP2 JUMPDEST POP POP POP POP POP DUP2 MSTORE PUSH1 0x20 ADD DUP5 DUP5 DUP1 DUP1 PUSH1 0x1F ADD PUSH1 0x20 DUP1 SWAP2 DIV MUL PUSH1 0x20 ADD PUSH1 0x40 MLOAD SWAP1 DUP2 ADD PUSH1 0x40 MSTORE DUP1 SWAP4 SWAP3 SWAP2 SWAP1 DUP2 DUP2 MSTORE PUSH1 0x20 ADD DUP4 DUP4 DUP1 DUP3 DUP5 CALLDATACOPY PUSH0 DUP2 DUP5 ADD MSTORE PUSH1 0x1F NOT PUSH1 0x1F DUP3 ADD AND SWAP1 POP DUP1 DUP4 ADD SWAP3 POP POP POP POP POP POP POP DUP2 MSTORE POP SWAP1 POP DUP1 PUSH1 0x1 PUSH0 DUP7 DUP2 MSTORE PUSH1 0x20 ADD SWAP1 DUP2 MSTORE PUSH1 0x20 ADD PUSH0 KECCAK256 PUSH0 DUP3 ADD MLOAD DUP2 PUSH0 ADD SSTORE PUSH1 0x20 DUP3 ADD MLOAD DUP2 PUSH1 0x1 ADD SSTORE PUSH1 0x40 DUP3 ADD MLOAD DUP2 PUSH1 0x2 ADD SWAP1 DUP2 PUSH2 0xCB4 SWAP2 SWAP1 PUSH2 0x151F JUMP JUMPDEST POP PUSH1 0x60 DUP3 ADD MLOAD DUP2 PUSH1 0x3 ADD SWAP1 DUP2 PUSH2 0xCCA SWAP2 SWAP1 PUSH2 0x151F JUMP JUMPDEST POP SWAP1 POP POP PUSH0 PUSH1 0x2 DUP2 DUP2 SWAP1 SLOAD SWAP1 PUSH2 0x100 EXP SWAP1 DIV PUSH2 0xFFFF AND PUSH2 0xCE9 SWAP1 PUSH2 0x18D5 JUMP JUMPDEST SWAP2 SWAP1 PUSH2 0x100 EXP DUP2 SLOAD DUP2 PUSH2 0xFFFF MUL NOT AND SWAP1 DUP4 PUSH2 0xFFFF AND MUL OR SWAP1 SSTORE POP CALLER PUSH20 0xFFFFFFFFFFFFFFFFFFFFFFFFFFFFFFFFFFFFFFFF AND PUSH32 0x331F916DAC8170A5E3A8A5C82C9DE7950BB6CADFB098253C080CB72851B26470 DUP5 DUP5 PUSH1 0x40 MLOAD PUSH2 0xD4B SWAP3 SWAP2 SWAP1 PUSH2 0x1938 JUMP JUMPDEST PUSH1 0x40 MLOAD DUP1 SWAP2 SUB SWAP1 LOG2 POP POP POP POP JUMP JUMPDEST PUSH0 PUSH1 0x4 SWAP1 SLOAD SWAP1 PUSH2 0x100 EXP SWAP1 DIV PUSH20 0xFFFFFFFFFFFFFFFFFFFFFFFFFFFFFFFFFFFFFFFF AND PUSH20 0xFFFFFFFFFFFFFFFFFFFFFFFFFFFFFFFFFFFFFFFF AND CALLER PUSH20 0xFFFFFFFFFFFFFFFFFFFFFFFFFFFFFFFFFFFFFFFF AND EQ PUSH2 0xDE8 JUMPI PUSH1 0x40 MLOAD PUSH32 0x8C379A000000000000000000000000000000000000000000000000000000000 DUP2 MSTORE PUSH1 0x4 ADD PUSH2 0xDDF SWAP1 PUSH2 0x1307 JUMP JUMPDEST PUSH1 0x40 MLOAD DUP1 SWAP2 SUB SWAP1 REVERT JUMPDEST PUSH0 PUSH1 0x2 PUSH0 DUP6 PUSH20 0xFFFFFFFFFFFFFFFFFFFFFFFFFFFFFFFFFFFFFFFF AND PUSH20 0xFFFFFFFFFFFFFFFFFFFFFFFFFFFFFFFFFFFFFFFF AND DUP2 MSTORE PUSH1 0x20 ADD SWAP1 DUP2 MSTORE PUSH1 0x20 ADD PUSH0 KECCAK256 PUSH0 ADD SLOAD EQ PUSH2 0xE37 JUMPI PUSH2 0xE36 PUSH2 0x1325 JUMP JUMPDEST JUMPDEST NUMBER PUSH1 0x2 PUSH0 DUP6 PUSH20 0xFFFFFFFFFFFFFFFFFFFFFFFFFFFFFFFFFFFFFFFF AND PUSH20 0xFFFFFFFFFFFFFFFFFFFFFFFFFFFFFFFFFFFFFFFF AND DUP2 MSTORE PUSH1 0x20 ADD SWAP1 DUP2 MSTORE PUSH1 0x20 ADD PUSH0 KECCAK256 PUSH0 ADD DUP2 SWAP1 SSTORE POP DUP2 DUP2 PUSH1 0x2 PUSH0 DUP7 PUSH20 0xFFFFFFFFFFFFFFFFFFFFFFFFFFFFFFFFFFFFFFFF AND PUSH20 0xFFFFFFFFFFFFFFFFFFFFFFFFFFFFFFFFFFFFFFFF AND DUP2 MSTORE PUSH1 0x20 ADD SWAP1 DUP2 MSTORE PUSH1 0x20 ADD PUSH0 KECCAK256 PUSH1 0x1 ADD SWAP2 DUP3 PUSH2 0xECA SWAP3 SWAP2 SWAP1 PUSH2 0x164C JUMP JUMPDEST POP PUSH0 PUSH0 DUP2 DUP2 SWAP1 SLOAD SWAP1 PUSH2 0x100 EXP SWAP1 DIV PUSH2 0xFFFF AND PUSH2 0xEE5 SWAP1 PUSH2 0x18D5 JUMP JUMPDEST SWAP2 SWAP1 PUSH2 0x100 EXP DUP2 SLOAD DUP2 PUSH2 0xFFFF MUL NOT AND SWAP1 DUP4 PUSH2 0xFFFF AND MUL OR SWAP1 SSTORE POP POP POP POP JUMP JUMPDEST PUSH0 PUSH0 REVERT JUMPDEST PUSH0 PUSH0 REVERT JUMPDEST PUSH0 PUSH20 0xFFFFFFFFFFFFFFFFFFFFFFFFFFFFFFFFFFFFFFFF DUP3 AND SWAP1 POP SWAP2 SWAP1 POP JUMP JUMPDEST PUSH0 PUSH2 0xF35 DUP3 PUSH2 0xF0C JUMP JUMPDEST SWAP1 POP SWAP2 SWAP1 POP JUMP JUMPDEST PUSH2 0xF45 DUP2 PUSH2 0xF2B JUMP JUMPDEST DUP2 EQ PUSH2 0xF4F JUMPI PUSH0 PUSH0 REVERT JUMPDEST POP JUMP JUMPDEST PUSH0 DUP2 CALLDATALOAD SWAP1 POP PUSH2 0xF60 DUP2 PUSH2 0xF3C JUMP JUMPDEST SWAP3 SWAP2 POP POP JUMP JUMPDEST PUSH0 PUSH1 0x20 DUP3 DUP5 SUB SLT ISZERO PUSH2 0xF7B JUMPI PUSH2 0xF7A PUSH2 0xF04 JUMP JUMPDEST JUMPDEST PUSH0 PUSH2 0xF88 DUP5 DUP3 DUP6 ADD PUSH2 0xF52 JUMP JUMPDEST SWAP2 POP POP SWAP3 SWAP2 POP POP JUMP JUMPDEST PUSH0 DUP2 MLOAD SWAP1 POP SWAP2 SWAP1 POP JUMP JUMPDEST PUSH0 DUP3 DUP3 MSTORE PUSH1 0x20 DUP3 ADD SWAP1 POP SWAP3 SWAP2 POP POP JUMP JUMPDEST DUP3 DUP2 DUP4 MCOPY PUSH0 DUP4 DUP4 ADD MSTORE POP POP POP JUMP JUMPDEST PUSH0 PUSH1 0x1F NOT PUSH1 0x1F DUP4 ADD AND SWAP1 POP SWAP2 SWAP1 POP JUMP JUMPDEST PUSH0 PUSH2 0xFD3 DUP3 PUSH2 0xF91 JUMP JUMPDEST PUSH2 0xFDD DUP2 DUP6 PUSH2 0xF9B JUMP JUMPDEST SWAP4 POP PUSH2 0xFED DUP2 DUP6 PUSH1 0x20 DUP7 ADD PUSH2 0xFAB JUMP JUMPDEST PUSH2 0xFF6 DUP2 PUSH2 0xFB9 JUMP JUMPDEST DUP5 ADD SWAP2 POP POP SWAP3 SWAP2 POP POP JUMP JUMPDEST PUSH0 PUSH1 0x20 DUP3 ADD SWAP1 POP DUP2 DUP2 SUB PUSH0 DUP4 ADD MSTORE PUSH2 0x1019 DUP2 DUP5 PUSH2 0xFC9 JUMP JUMPDEST SWAP1 POP SWAP3 SWAP2 POP POP JUMP JUMPDEST PUSH0 PUSH2 0xFFFF DUP3 AND SWAP1 POP SWAP2 SWAP1 POP JUMP JUMPDEST PUSH2 0x1037 DUP2 PUSH2 0x1021 JUMP JUMPDEST DUP3 MSTORE POP POP JUMP JUMPDEST PUSH0 PUSH1 0x20 DUP3 ADD SWAP1 POP PUSH2 0x1050 PUSH0 DUP4 ADD DUP5 PUSH2 0x102E JUMP JUMPDEST SWAP3 SWAP2 POP POP JUMP JUMPDEST PUSH0 DUP2 SWAP1 POP SWAP2 SWAP1 POP JUMP JUMPDEST PUSH2 0x1068 DUP2 PUSH2 0x1056 JUMP JUMPDEST DUP2 EQ PUSH2 0x1072 JUMPI PUSH0 PUSH0 REVERT JUMPDEST POP JUMP JUMPDEST PUSH0 DUP2 CALLDATALOAD SWAP1 POP PUSH2 0x1083 DUP2 PUSH2 0x105F JUMP JUMPDEST SWAP3 SWAP2 POP POP JUMP JUMPDEST PUSH0 PUSH1 0x20 DUP3 DUP5 SUB SLT ISZERO PUSH2 0x109E JUMPI PUSH2 0x109D PUSH2 0xF04 JUMP JUMPDEST JUMPDEST PUSH0 PUSH2 0x10AB DUP5 DUP3 DUP6 ADD PUSH2 0x1075 JUMP JUMPDEST SWAP2 POP POP SWAP3 SWAP2 POP POP JUMP JUMPDEST PUSH0 DUP2 SWAP1 POP SWAP2 SWAP1 POP JUMP JUMPDEST PUSH2 0x10C6 DUP2 PUSH2 0x10B4 JUMP JUMPDEST DUP3 MSTORE POP POP JUMP JUMPDEST PUSH0 PUSH1 0x80 DUP3 ADD SWAP1 POP PUSH2 0x10DF PUSH0 DUP4 ADD DUP8 PUSH2 0x10BD JUMP JUMPDEST PUSH2 0x10EC PUSH1 0x20 DUP4 ADD DUP7 PUSH2 0x10BD JUMP JUMPDEST DUP2 DUP2 SUB PUSH1 0x40 DUP4 ADD MSTORE PUSH2 0x10FE DUP2 DUP6 PUSH2 0xFC9 JUMP JUMPDEST SWAP1 POP DUP2 DUP2 SUB PUSH1 0x60 DUP4 ADD MSTORE PUSH2 0x1112 DUP2 DUP5 PUSH2 0xFC9 JUMP JUMPDEST SWAP1 POP SWAP6 SWAP5 POP POP POP POP POP JUMP JUMPDEST PUSH0 PUSH0 REVERT JUMPDEST PUSH0 PUSH0 REVERT JUMPDEST PUSH0 PUSH0 REVERT JUMPDEST PUSH0 PUSH0 DUP4 PUSH1 0x1F DUP5 ADD SLT PUSH2 0x113E JUMPI PUSH2 0x113D PUSH2 0x111D JUMP JUMPDEST JUMPDEST DUP3 CALLDATALOAD SWAP1 POP PUSH8 0xFFFFFFFFFFFFFFFF DUP2 GT ISZERO PUSH2 0x115B JUMPI PUSH2 0x115A PUSH2 0x1121 JUMP JUMPDEST JUMPDEST PUSH1 0x20 DUP4 ADD SWAP2 POP DUP4 PUSH1 0x1 DUP3 MUL DUP4 ADD GT ISZERO PUSH2 0x1177 JUMPI PUSH2 0x1176 PUSH2 0x1125 JUMP JUMPDEST JUMPDEST SWAP3 POP SWAP3 SWAP1 POP JUMP JUMPDEST PUSH0 PUSH0 PUSH0 PUSH1 0x40 DUP5 DUP7 SUB SLT ISZERO PUSH2 0x1195 JUMPI PUSH2 0x1194 PUSH2 0xF04 JUMP JUMPDEST JUMPDEST PUSH0 PUSH2 0x11A2 DUP7 DUP3 DUP8 ADD PUSH2 0xF52 JUMP JUMPDEST SWAP4 POP POP PUSH1 0x20 DUP5 ADD CALLDATALOAD PUSH8 0xFFFFFFFFFFFFFFFF DUP2 GT ISZERO PUSH2 0x11C3 JUMPI PUSH2 0x11C2 PUSH2 0xF08 JUMP JUMPDEST JUMPDEST PUSH2 0x11CF DUP7 DUP3 DUP8 ADD PUSH2 0x1129 JUMP JUMPDEST SWAP3 POP SWAP3 POP POP SWAP3 POP SWAP3 POP SWAP3 JUMP JUMPDEST PUSH2 0x11E4 DUP2 PUSH2 0xF2B JUMP JUMPDEST DUP3 MSTORE POP POP JUMP JUMPDEST PUSH0 PUSH1 0x20 DUP3 ADD SWAP1 POP PUSH2 0x11FD PUSH0 DUP4 ADD DUP5 PUSH2 0x11DB JUMP JUMPDEST SWAP3 SWAP2 POP POP JUMP JUMPDEST PUSH0 PUSH0 PUSH0 PUSH1 0x40 DUP5 DUP7 SUB SLT ISZERO PUSH2 0x121A JUMPI PUSH2 0x1219 PUSH2 0xF04 JUMP JUMPDEST JUMPDEST PUSH0 PUSH2 0x1227 DUP7 DUP3 DUP8 ADD PUSH2 0x1075 JUMP JUMPDEST SWAP4 POP POP PUSH1 0x20 DUP5 ADD CALLDATALOAD PUSH8 0xFFFFFFFFFFFFFFFF DUP2 GT ISZERO PUSH2 0x1248 JUMPI PUSH2 0x1247 PUSH2 0xF08 JUMP JUMPDEST JUMPDEST PUSH2 0x1254 DUP7 DUP3 DUP8 ADD PUSH2 0x1129 JUMP JUMPDEST SWAP3 POP SWAP3 POP POP SWAP3 POP SWAP3 POP SWAP3 JUMP JUMPDEST PUSH32 0x4E487B7100000000000000000000000000000000000000000000000000000000 PUSH0 MSTORE PUSH1 0x22 PUSH1 0x4 MSTORE PUSH1 0x24 PUSH0 REVERT JUMPDEST PUSH0 PUSH1 0x2 DUP3 DIV SWAP1 POP PUSH1 0x1 DUP3 AND DUP1 PUSH2 0x12A4 JUMPI PUSH1 0x7F DUP3 AND SWAP2 POP JUMPDEST PUSH1 0x20 DUP3 LT DUP2 SUB PUSH2 0x12B7 JUMPI PUSH2 0x12B6 PUSH2 0x1260 JUMP JUMPDEST JUMPDEST POP SWAP2 SWAP1 POP JUMP JUMPDEST PUSH32 0x43616C6C6572206973206E6F7420746865206F776E6572000000000000000000 PUSH0 DUP3 ADD MSTORE POP JUMP JUMPDEST PUSH0 PUSH2 0x12F1 PUSH1 0x17 DUP4 PUSH2 0xF9B JUMP JUMPDEST SWAP2 POP PUSH2 0x12FC DUP3 PUSH2 0x12BD JUMP JUMPDEST PUSH1 0x20 DUP3 ADD SWAP1 POP SWAP2 SWAP1 POP JUMP JUMPDEST PUSH0 PUSH1 0x20 DUP3 ADD SWAP1 POP DUP2 DUP2 SUB PUSH0 DUP4 ADD MSTORE PUSH2 0x131E DUP2 PUSH2 0x12E5 JUMP JUMPDEST SWAP1 POP SWAP2 SWAP1 POP JUMP JUMPDEST PUSH32 0x4E487B7100000000000000000000000000000000000000000000000000000000 PUSH0 MSTORE PUSH1 0x1 PUSH1 0x4 MSTORE PUSH1 0x24 PUSH0 REVERT JUMPDEST PUSH32 0x4E487B7100000000000000000000000000000000000000000000000000000000 PUSH0 MSTORE PUSH1 0x41 PUSH1 0x4 MSTORE PUSH1 0x24 PUSH0 REVERT JUMPDEST PUSH0 DUP2 SWAP1 POP DUP2 PUSH0 MSTORE PUSH1 0x20 PUSH0 KECCAK256 SWAP1 POP SWAP2 SWAP1 POP JUMP JUMPDEST PUSH0 PUSH1 0x20 PUSH1 0x1F DUP4 ADD DIV SWAP1 POP SWAP2 SWAP1 POP JUMP JUMPDEST PUSH0 DUP3 DUP3 SHL SWAP1 POP SWAP3 SWAP2 POP POP JUMP JUMPDEST PUSH0 PUSH1 0x8 DUP4 MUL PUSH2 0x13DB PUSH32 0xFFFFFFFFFFFFFFFFFFFFFFFFFFFFFFFFFFFFFFFFFFFFFFFFFFFFFFFFFFFFFFFF DUP3 PUSH2 0x13A0 JUMP JUMPDEST PUSH2 0x13E5 DUP7 DUP4 PUSH2 0x13A0 JUMP JUMPDEST SWAP6 POP DUP1 NOT DUP5 AND SWAP4 POP DUP1 DUP7 AND DUP5 OR SWAP3 POP POP POP SWAP4 SWAP3 POP POP POP JUMP JUMPDEST PUSH0 DUP2 SWAP1 POP SWAP2 SWAP1 POP JUMP JUMPDEST PUSH0 PUSH2 0x1420 PUSH2 0x141B PUSH2 0x1416 DUP5 PUSH2 0x10B4 JUMP JUMPDEST PUSH2 0x13FD JUMP JUMPDEST PUSH2 0x10B4 JUMP JUMPDEST SWAP1 POP SWAP2 SWAP1 POP JUMP JUMPDEST PUSH0 DUP2 SWAP1 POP SWAP2 SWAP1 POP JUMP JUMPDEST PUSH2 0x1439 DUP4 PUSH2 0x1406 JUMP JUMPDEST PUSH2 0x144D PUSH2 0x1445 DUP3 PUSH2 0x1427 JUMP JUMPDEST DUP5 DUP5 SLOAD PUSH2 0x13AC JUMP JUMPDEST DUP3 SSTORE POP POP POP POP JUMP JUMPDEST PUSH0 PUSH0 SWAP1 POP SWAP1 JUMP JUMPDEST PUSH2 0x1464 PUSH2 0x1455 JUMP JUMPDEST PUSH2 0x146F DUP2 DUP5 DUP5 PUSH2 0x1430 JUMP JUMPDEST POP POP POP JUMP JUMPDEST JUMPDEST DUP2 DUP2 LT ISZERO PUSH2 0x1492 JUMPI PUSH2 0x1487 PUSH0 DUP3 PUSH2 0x145C JUMP JUMPDEST PUSH1 0x1 DUP2 ADD SWAP1 POP PUSH2 0x1475 JUMP JUMPDEST POP POP JUMP JUMPDEST PUSH1 0x1F DUP3 GT ISZERO PUSH2 0x14D7 JUMPI PUSH2 0x14A8 DUP2 PUSH2 0x137F JUMP JUMPDEST PUSH2 0x14B1 DUP5 PUSH2 0x1391 JUMP JUMPDEST DUP2 ADD PUSH1 0x20 DUP6 LT ISZERO PUSH2 0x14C0 JUMPI DUP2 SWAP1 POP JUMPDEST PUSH2 0x14D4 PUSH2 0x14CC DUP6 PUSH2 0x1391 JUMP JUMPDEST DUP4 ADD DUP3 PUSH2 0x1474 JUMP JUMPDEST POP POP JUMPDEST POP POP POP JUMP JUMPDEST PUSH0 DUP3 DUP3 SHR SWAP1 POP SWAP3 SWAP2 POP POP JUMP JUMPDEST PUSH0 PUSH2 0x14F7 PUSH0 NOT DUP5 PUSH1 0x8 MUL PUSH2 0x14DC JUMP JUMPDEST NOT DUP1 DUP4 AND SWAP2 POP POP SWAP3 SWAP2 POP POP JUMP JUMPDEST PUSH0 PUSH2 0x150F DUP4 DUP4 PUSH2 0x14E8 JUMP JUMPDEST SWAP2 POP DUP3 PUSH1 0x2 MUL DUP3 OR SWAP1 POP SWAP3 SWAP2 POP POP JUMP JUMPDEST PUSH2 0x1528 DUP3 PUSH2 0xF91 JUMP JUMPDEST PUSH8 0xFFFFFFFFFFFFFFFF DUP2 GT ISZERO PUSH2 0x1541 JUMPI PUSH2 0x1540 PUSH2 0x1352 JUMP JUMPDEST JUMPDEST PUSH2 0x154B DUP3 SLOAD PUSH2 0x128D JUMP JUMPDEST PUSH2 0x1556 DUP3 DUP3 DUP6 PUSH2 0x1496 JUMP JUMPDEST PUSH0 PUSH1 0x20 SWAP1 POP PUSH1 0x1F DUP4 GT PUSH1 0x1 DUP2 EQ PUSH2 0x1587 JUMPI PUSH0 DUP5 ISZERO PUSH2 0x1575 JUMPI DUP3 DUP8 ADD MLOAD SWAP1 POP JUMPDEST PUSH2 0x157F DUP6 DUP3 PUSH2 0x1504 JUMP JUMPDEST DUP7 SSTORE POP PUSH2 0x15E6 JUMP JUMPDEST PUSH1 0x1F NOT DUP5 AND PUSH2 0x1595 DUP7 PUSH2 0x137F JUMP JUMPDEST PUSH0 JUMPDEST DUP3 DUP2 LT ISZERO PUSH2 0x15BC JUMPI DUP5 DUP10 ADD MLOAD DUP3 SSTORE PUSH1 0x1 DUP3 ADD SWAP2 POP PUSH1 0x20 DUP6 ADD SWAP5 POP PUSH1 0x20 DUP2 ADD SWAP1 POP PUSH2 0x1597 JUMP JUMPDEST DUP7 DUP4 LT ISZERO PUSH2 0x15D9 JUMPI DUP5 DUP10 ADD MLOAD PUSH2 0x15D5 PUSH1 0x1F DUP10 AND DUP3 PUSH2 0x14E8 JUMP JUMPDEST DUP4 SSTORE POP JUMPDEST PUSH1 0x1 PUSH1 0x2 DUP9 MUL ADD DUP9 SSTORE POP POP POP JUMPDEST POP POP POP POP POP POP JUMP JUMPDEST PUSH32 0x4E487B7100000000000000000000000000000000000000000000000000000000 PUSH0 MSTORE PUSH1 0x11 PUSH1 0x4 MSTORE PUSH1 0x24 PUSH0 REVERT JUMPDEST PUSH0 PUSH2 0x1625 DUP3 PUSH2 0x1021 JUMP JUMPDEST SWAP2 POP PUSH0 DUP3 SUB PUSH2 0x1637 JUMPI PUSH2 0x1636 PUSH2 0x15EE JUMP JUMPDEST JUMPDEST PUSH1 0x1 DUP3 SUB SWAP1 POP SWAP2 SWAP1 POP JUMP JUMPDEST PUSH0 DUP3 SWAP1 POP SWAP3 SWAP2 POP POP JUMP JUMPDEST PUSH2 0x1656 DUP4 DUP4 PUSH2 0x1642 JUMP JUMPDEST PUSH8 0xFFFFFFFFFFFFFFFF DUP2 GT ISZERO PUSH2 0x166F JUMPI PUSH2 0x166E PUSH2 0x1352 JUMP JUMPDEST JUMPDEST PUSH2 0x1679 DUP3 SLOAD PUSH2 0x128D JUMP JUMPDEST PUSH2 0x1684 DUP3 DUP3 DUP6 PUSH2 0x1496 JUMP JUMPDEST PUSH0 PUSH1 0x1F DUP4 GT PUSH1 0x1 DUP2 EQ PUSH2 0x16B1 JUMPI PUSH0 DUP5 ISZERO PUSH2 0x169F JUMPI DUP3 DUP8 ADD CALLDATALOAD SWAP1 POP JUMPDEST PUSH2 0x16A9 DUP6 DUP3 PUSH2 0x1504 JUMP JUMPDEST DUP7 SSTORE POP PUSH2 0x1710 JUMP JUMPDEST PUSH1 0x1F NOT DUP5 AND PUSH2 0x16BF DUP7 PUSH2 0x137F JUMP JUMPDEST PUSH0 JUMPDEST DUP3 DUP2 LT ISZERO PUSH2 0x16E6 JUMPI DUP5 DUP10 ADD CALLDATALOAD DUP3 SSTORE PUSH1 0x1 DUP3 ADD SWAP2 POP PUSH1 0x20 DUP6 ADD SWAP5 POP PUSH1 0x20 DUP2 ADD SWAP1 POP PUSH2 0x16C1 JUMP JUMPDEST DUP7 DUP4 LT ISZERO PUSH2 0x1703 JUMPI DUP5 DUP10 ADD CALLDATALOAD PUSH2 0x16FF PUSH1 0x1F DUP10 AND DUP3 PUSH2 0x14E8 JUMP JUMPDEST DUP4 SSTORE POP JUMPDEST PUSH1 0x1 PUSH1 0x2 DUP9 MUL ADD DUP9 SSTORE POP POP POP JUMPDEST POP POP POP POP POP POP POP JUMP JUMPDEST PUSH0 DUP2 SWAP1 POP SWAP3 SWAP2 POP POP JUMP JUMPDEST PUSH0 DUP2 SLOAD PUSH2 0x172F DUP2 PUSH2 0x128D JUMP JUMPDEST PUSH2 0x1739 DUP2 DUP7 PUSH2 0x1719 JUMP JUMPDEST SWAP5 POP PUSH1 0x1 DUP3 AND PUSH0 DUP2 EQ PUSH2 0x1753 JUMPI PUSH1 0x1 DUP2 EQ PUSH2 0x1768 JUMPI PUSH2 0x179A JUMP JUMPDEST PUSH1 0xFF NOT DUP4 AND DUP7 MSTORE DUP2 ISZERO ISZERO DUP3 MUL DUP7 ADD SWAP4 POP PUSH2 0x179A JUMP JUMPDEST PUSH2 0x1771 DUP6 PUSH2 0x137F JUMP JUMPDEST PUSH0 JUMPDEST DUP4 DUP2 LT ISZERO PUSH2 0x1792 JUMPI DUP2 SLOAD DUP2 DUP10 ADD MSTORE PUSH1 0x1 DUP3 ADD SWAP2 POP PUSH1 0x20 DUP2 ADD SWAP1 POP PUSH2 0x1773 JUMP JUMPDEST DUP4 DUP9 ADD SWAP6 POP POP POP JUMPDEST POP POP POP SWAP3 SWAP2 POP POP JUMP JUMPDEST PUSH0 PUSH2 0x17AE DUP3 DUP5 PUSH2 0x1723 JUMP JUMPDEST SWAP2 POP DUP2 SWAP1 POP SWAP3 SWAP2 POP POP JUMP JUMPDEST PUSH32 0x43616C6C6572206973206E6F742020617574686F726973656420746F20656469 PUSH0 DUP3 ADD MSTORE PUSH32 0x74207468697320646F63756D656E740000000000000000000000000000000000 PUSH1 0x20 DUP3 ADD MSTORE POP JUMP JUMPDEST PUSH0 PUSH2 0x1813 PUSH1 0x2F DUP4 PUSH2 0xF9B JUMP JUMPDEST SWAP2 POP PUSH2 0x181E DUP3 PUSH2 0x17B9 JUMP JUMPDEST PUSH1 0x40 DUP3 ADD SWAP1 POP SWAP2 SWAP1 POP JUMP JUMPDEST PUSH0 PUSH1 0x20 DUP3 ADD SWAP1 POP DUP2 DUP2 SUB PUSH0 DUP4 ADD MSTORE PUSH2 0x1840 DUP2 PUSH2 0x1807 JUMP JUMPDEST SWAP1 POP SWAP2 SWAP1 POP JUMP JUMPDEST PUSH32 0x43616C6C6572206E6F7420617574686F726973656420746F2061646420646F63 PUSH0 DUP3 ADD MSTORE PUSH32 0x756D656E74730000000000000000000000000000000000000000000000000000 PUSH1 0x20 DUP3 ADD MSTORE POP JUMP JUMPDEST PUSH0 PUSH2 0x18A1 PUSH1 0x26 DUP4 PUSH2 0xF9B JUMP JUMPDEST SWAP2 POP PUSH2 0x18AC DUP3 PUSH2 0x1847 JUMP JUMPDEST PUSH1 0x40 DUP3 ADD SWAP1 POP SWAP2 SWAP1 POP JUMP JUMPDEST PUSH0 PUSH1 0x20 DUP3 ADD SWAP1 POP DUP2 DUP2 SUB PUSH0 DUP4 ADD MSTORE PUSH2 0x18CE DUP2 PUSH2 0x1895 JUMP JUMPDEST SWAP1 POP SWAP2 SWAP1 POP JUMP JUMPDEST PUSH0 PUSH2 0x18DF DUP3 PUSH2 0x1021 JUMP JUMPDEST SWAP2 POP PUSH2 0xFFFF DUP3 SUB PUSH2 0x18F3 JUMPI PUSH2 0x18F2 PUSH2 0x15EE JUMP JUMPDEST JUMPDEST PUSH1 0x1 DUP3 ADD SWAP1 POP SWAP2 SWAP1 POP JUMP JUMPDEST DUP3 DUP2 DUP4 CALLDATACOPY PUSH0 DUP4 DUP4 ADD MSTORE POP POP POP JUMP JUMPDEST PUSH0 PUSH2 0x1917 DUP4 DUP6 PUSH2 0xF9B JUMP JUMPDEST SWAP4 POP PUSH2 0x1924 DUP4 DUP6 DUP5 PUSH2 0x18FE JUMP JUMPDEST PUSH2 0x192D DUP4 PUSH2 0xFB9 JUMP JUMPDEST DUP5 ADD SWAP1 POP SWAP4 SWAP3 POP POP POP JUMP JUMPDEST PUSH0 PUSH1 0x20 DUP3 ADD SWAP1 POP DUP2 DUP2 SUB PUSH0 DUP4 ADD MSTORE PUSH2 0x1951 DUP2 DUP5 DUP7 PUSH2 0x190C JUMP JUMPDEST SWAP1 POP SWAP4 SWAP3 POP POP POP JUMP INVALID LOG2 PUSH5 0x6970667358 0x22 SLT KECCAK256 0xC 0x2B 0xD CALLDATACOPY SHL 0x1F TSTORE CALLER 0x22 DUP12 RETURN DUP4 0x1F 0xDB 0xE8 BYTE 0xA9 PUSH25 0x299CE790CD063F2620431595909464736F6C634300081E0033 "
				},
				"gasEstimates": {
					"creation": {
						"codeDepositCost": "1308800",
						"executionCost": "74255",
						"totalCost": "1383055"
					},
					"external": {
						"addDocHash(bytes32,string)": "infinite",
						"add_Exporter(address,string)": "infinite",
						"alter_Exporter(address,string)": "infinite",
						"changeOwner(address)": "27089",
						"count_Exporters()": "2487",
						"count_hashes()": "2561",
						"deleteHash(bytes32)": "infinite",
						"delete_Exporter(address)": "infinite",
						"findDocHash(bytes32)": "infinite",
						"getExporterInfo(address)": "infinite",
						"owner()": "2602"
					}
				},
				"methodIdentifiers": {
					"addDocHash(bytes32,string)": "bf3ccf48",
					"add_Exporter(address,string)": "cf3457bf",
					"alter_Exporter(address,string)": "505cd5d0",
					"changeOwner(address)": "a6f9dae1",
					"count_Exporters()": "6ed73e48",
					"count_hashes()": "43f6f548",
					"deleteHash(bytes32)": "63f0bfce",
					"delete_Exporter(address)": "24ac89cb",
					"findDocHash(bytes32)": "4cf00d3f",
					"getExporterInfo(address)": "05c8dc19",
					"owner()": "8da5cb5b"
				}
			},
			"storageLayout": {
				"storage": [
					{
						"astId": 13,
						"contract": "new.sol:Verification",
						"label": "count_Exporters",
						"offset": 0,
						"slot": "0",
						"type": "t_uint16"
					},
					{
						"astId": 16,
						"contract": "new.sol:Verification",
						"label": "count_hashes",
						"offset": 2,
						"slot": "0",
						"type": "t_uint16"
					},
					{
						"astId": 18,
						"contract": "new.sol:Verification",
						"label": "owner",
						"offset": 4,
						"slot": "0",
						"type": "t_address"
					},
					{
						"astId": 37,
						"contract": "new.sol:Verification",
						"label": "docHashes",
						"offset": 0,
						"slot": "1",
						"type": "t_mapping(t_bytes32,t_struct(Record)27_storage)"
					},
					{
						"astId": 42,
						"contract": "new.sol:Verification",
						"label": "Exporters",
						"offset": 0,
						"slot": "2",
						"type": "t_mapping(t_address,t_struct(Exporter_Record)32_storage)"
					}
				],
				"types": {
					"t_address": {
						"encoding": "inplace",
						"label": "address",
						"numberOfBytes": "20"
					},
					"t_bytes32": {
						"encoding": "inplace",
						"label": "bytes32",
						"numberOfBytes": "32"
					},
					"t_mapping(t_address,t_struct(Exporter_Record)32_storage)": {
						"encoding": "mapping",
						"key": "t_address",
						"label": "mapping(address => struct Verification.Exporter_Record)",
						"numberOfBytes": "32",
						"value": "t_struct(Exporter_Record)32_storage"
					},
					"t_mapping(t_bytes32,t_struct(Record)27_storage)": {
						"encoding": "mapping",
						"key": "t_bytes32",
						"label": "mapping(bytes32 => struct Verification.Record)",
						"numberOfBytes": "32",
						"value": "t_struct(Record)27_storage"
					},
					"t_string_storage": {
						"encoding": "bytes",
						"label": "string",
						"numberOfBytes": "32"
					},
					"t_struct(Exporter_Record)32_storage": {
						"encoding": "inplace",
						"label": "struct Verification.Exporter_Record",
						"members": [
							{
								"astId": 29,
								"contract": "new.sol:Verification",
								"label": "blockNumber",
								"offset": 0,
								"slot": "0",
								"type": "t_uint256"
							},
							{
								"astId": 31,
								"contract": "new.sol:Verification",
								"label": "info",
								"offset": 0,
								"slot": "1",
								"type": "t_string_storage"
							}
						],
						"numberOfBytes": "64"
					},
					"t_struct(Record)27_storage": {
						"encoding": "inplace",
						"label": "struct Verification.Record",
						"members": [
							{
								"astId": 20,
								"contract": "new.sol:Verification",
								"label": "blockNumber",
								"offset": 0,
								"slot": "0",
								"type": "t_uint256"
							},
							{
								"astId": 22,
								"contract": "new.sol:Verification",
								"label": "minetime",
								"offset": 0,
								"slot": "1",
								"type": "t_uint256"
							},
							{
								"astId": 24,
								"contract": "new.sol:Verification",
								"label": "info",
								"offset": 0,
								"slot": "2",
								"type": "t_string_storage"
							},
							{
								"astId": 26,
								"contract": "new.sol:Verification",
								"label": "ipfs_hash",
								"offset": 0,
								"slot": "3",
								"type": "t_string_storage"
							}
						],
						"numberOfBytes": "128"
					},
					"t_uint16": {
						"encoding": "inplace",
						"label": "uint16",
						"numberOfBytes": "2"
					},
					"t_uint256": {
						"encoding": "inplace",
						"label": "uint256",
						"numberOfBytes": "32"
					}
				}
			},
			"userdoc": {
				"kind": "user",
				"methods": {},
				"version": 1
			}
		}
	}
}