{
	"solidityCourse2/Module1/mapping.sol": {
		"Mapping": {
			"abi": [
				{
					"inputs": [
						{
							"internalType": "address",
							"name": "_myAdd",
							"type": "address"
						},
						{
							"internalType": "uint256",
							"name": "_i",
							"type": "uint256"
						}
					],
					"name": "addVal",
					"outputs": [],
					"stateMutability": "nonpayable",
					"type": "function"
				},
				{
					"inputs": [
						{
							"internalType": "address",
							"name": "_adr",
							"type": "address"
						}
					],
					"name": "deleteVal",
					"outputs": [],
					"stateMutability": "nonpayable",
					"type": "function"
				},
				{
					"inputs": [
						{
							"internalType": "address",
							"name": "",
							"type": "address"
						}
					],
					"name": "myMap",
					"outputs": [
						{
							"internalType": "uint256",
							"name": "",
							"type": "uint256"
						}
					],
					"stateMutability": "view",
					"type": "function"
				},
				{
					"inputs": [
						{
							"internalType": "address",
							"name": "_adr",
							"type": "address"
						}
					],
					"name": "showVal",
					"outputs": [
						{
							"internalType": "uint256",
							"name": "",
							"type": "uint256"
						}
					],
					"stateMutability": "view",
					"type": "function"
				}
			],
			"devdoc": {
				"kind": "dev",
				"methods": {},
				"version": 1
			},
			"evm": {
				"assembly": "    /* \"solidityCourse2/Module1/mapping.sol\":61:395  contract Mapping{... */\n  mstore(0x40, 0x80)\n  callvalue\n  dup1\n  iszero\n  tag_1\n  jumpi\n  revert(0x00, 0x00)\ntag_1:\n  pop\n  dataSize(sub_0)\n  dup1\n  dataOffset(sub_0)\n  0x00\n  codecopy\n  0x00\n  return\nstop\n\nsub_0: assembly {\n        /* \"solidityCourse2/Module1/mapping.sol\":61:395  contract Mapping{... */\n      mstore(0x40, 0x80)\n      callvalue\n      dup1\n      iszero\n      tag_1\n      jumpi\n      revert(0x00, 0x00)\n    tag_1:\n      pop\n      jumpi(tag_2, lt(calldatasize, 0x04))\n      shr(0xe0, calldataload(0x00))\n      dup1\n      0x27cbd529\n      eq\n      tag_3\n      jumpi\n      dup1\n      0x503f2de1\n      eq\n      tag_4\n      jumpi\n      dup1\n      0x60a9d1b0\n      eq\n      tag_5\n      jumpi\n      dup1\n      0xcfe12d80\n      eq\n      tag_6\n      jumpi\n    tag_2:\n      revert(0x00, 0x00)\n        /* \"solidityCourse2/Module1/mapping.sol\":84:119  mapping(address=>uint) public myMap */\n    tag_3:\n      tag_7\n      0x04\n      dup1\n      calldatasize\n      sub\n      dup2\n      add\n      swap1\n      tag_8\n      swap2\n      swap1\n      tag_9\n      jump\t// in\n    tag_8:\n      tag_10\n      jump\t// in\n    tag_7:\n      mload(0x40)\n      tag_11\n      swap2\n      swap1\n      tag_12\n      jump\t// in\n    tag_11:\n      mload(0x40)\n      dup1\n      swap2\n      sub\n      swap1\n      return\n        /* \"solidityCourse2/Module1/mapping.sol\":217:309  function showVal(address _adr)public view returns(uint){... */\n    tag_4:\n      tag_13\n      0x04\n      dup1\n      calldatasize\n      sub\n      dup2\n      add\n      swap1\n      tag_14\n      swap2\n      swap1\n      tag_9\n      jump\t// in\n    tag_14:\n      tag_15\n      jump\t// in\n    tag_13:\n      mload(0x40)\n      tag_16\n      swap2\n      swap1\n      tag_12\n      jump\t// in\n    tag_16:\n      mload(0x40)\n      dup1\n      swap2\n      sub\n      swap1\n      return\n        /* \"solidityCourse2/Module1/mapping.sol\":317:392  function deleteVal(address _adr)public{... */\n    tag_5:\n      tag_17\n      0x04\n      dup1\n      calldatasize\n      sub\n      dup2\n      add\n      swap1\n      tag_18\n      swap2\n      swap1\n      tag_9\n      jump\t// in\n    tag_18:\n      tag_19\n      jump\t// in\n    tag_17:\n      stop\n        /* \"solidityCourse2/Module1/mapping.sol\":128:209  function addVal(address _myAdd, uint _i)public{... */\n    tag_6:\n      tag_20\n      0x04\n      dup1\n      calldatasize\n      sub\n      dup2\n      add\n      swap1\n      tag_21\n      swap2\n      swap1\n      tag_22\n      jump\t// in\n    tag_21:\n      tag_23\n      jump\t// in\n    tag_20:\n      stop\n        /* \"solidityCourse2/Module1/mapping.sol\":84:119  mapping(address=>uint) public myMap */\n    tag_10:\n      mstore(0x20, 0x00)\n      dup1\n      0x00\n      mstore\n      keccak256(0x00, 0x40)\n      0x00\n      swap2\n      pop\n      swap1\n      pop\n      sload\n      dup2\n      jump\t// out\n        /* \"solidityCourse2/Module1/mapping.sol\":217:309  function showVal(address _adr)public view returns(uint){... */\n    tag_15:\n        /* \"solidityCourse2/Module1/mapping.sol\":267:271  uint */\n      0x00\n        /* \"solidityCourse2/Module1/mapping.sol\":290:295  myMap */\n      0x00\n        /* \"solidityCourse2/Module1/mapping.sol\":290:301  myMap[_adr] */\n      0x00\n        /* \"solidityCourse2/Module1/mapping.sol\":296:300  _adr */\n      dup4\n        /* \"solidityCourse2/Module1/mapping.sol\":290:301  myMap[_adr] */\n      0xffffffffffffffffffffffffffffffffffffffff\n      and\n      0xffffffffffffffffffffffffffffffffffffffff\n      and\n      dup2\n      mstore\n      0x20\n      add\n      swap1\n      dup2\n      mstore\n      0x20\n      add\n      0x00\n      keccak256\n      sload\n        /* \"solidityCourse2/Module1/mapping.sol\":283:301  return myMap[_adr] */\n      swap1\n      pop\n        /* \"solidityCourse2/Module1/mapping.sol\":217:309  function showVal(address _adr)public view returns(uint){... */\n      swap2\n      swap1\n      pop\n      jump\t// out\n        /* \"solidityCourse2/Module1/mapping.sol\":317:392  function deleteVal(address _adr)public{... */\n    tag_19:\n        /* \"solidityCourse2/Module1/mapping.sol\":373:378  myMap */\n      0x00\n        /* \"solidityCourse2/Module1/mapping.sol\":373:384  myMap[_adr] */\n      0x00\n        /* \"solidityCourse2/Module1/mapping.sol\":379:383  _adr */\n      dup3\n        /* \"solidityCourse2/Module1/mapping.sol\":373:384  myMap[_adr] */\n      0xffffffffffffffffffffffffffffffffffffffff\n      and\n      0xffffffffffffffffffffffffffffffffffffffff\n      and\n      dup2\n      mstore\n      0x20\n      add\n      swap1\n      dup2\n      mstore\n      0x20\n      add\n      0x00\n      keccak256\n        /* \"solidityCourse2/Module1/mapping.sol\":366:384  delete myMap[_adr] */\n      0x00\n      swap1\n      sstore\n        /* \"solidityCourse2/Module1/mapping.sol\":317:392  function deleteVal(address _adr)public{... */\n      pop\n      jump\t// out\n        /* \"solidityCourse2/Module1/mapping.sol\":128:209  function addVal(address _myAdd, uint _i)public{... */\n    tag_23:\n        /* \"solidityCourse2/Module1/mapping.sol\":199:201  _i */\n      dup1\n        /* \"solidityCourse2/Module1/mapping.sol\":185:190  myMap */\n      0x00\n        /* \"solidityCourse2/Module1/mapping.sol\":185:198  myMap[_myAdd] */\n      0x00\n        /* \"solidityCourse2/Module1/mapping.sol\":191:197  _myAdd */\n      dup5\n        /* \"solidityCourse2/Module1/mapping.sol\":185:198  myMap[_myAdd] */\n      0xffffffffffffffffffffffffffffffffffffffff\n      and\n      0xffffffffffffffffffffffffffffffffffffffff\n      and\n      dup2\n      mstore\n      0x20\n      add\n      swap1\n      dup2\n      mstore\n      0x20\n      add\n      0x00\n      keccak256\n        /* \"solidityCourse2/Module1/mapping.sol\":185:201  myMap[_myAdd]=_i */\n      dup2\n      swap1\n      sstore\n      pop\n        /* \"solidityCourse2/Module1/mapping.sol\":128:209  function addVal(address _myAdd, uint _i)public{... */\n      pop\n      pop\n      jump\t// out\n        /* \"#utility.yul\":88:205   */\n    tag_28:\n        /* \"#utility.yul\":197:198   */\n      0x00\n        /* \"#utility.yul\":194:195   */\n      0x00\n        /* \"#utility.yul\":187:199   */\n      revert\n        /* \"#utility.yul\":334:460   */\n    tag_30:\n        /* \"#utility.yul\":371:378   */\n      0x00\n        /* \"#utility.yul\":411:453   */\n      0xffffffffffffffffffffffffffffffffffffffff\n        /* \"#utility.yul\":404:409   */\n      dup3\n        /* \"#utility.yul\":400:454   */\n      and\n        /* \"#utility.yul\":389:454   */\n      swap1\n      pop\n        /* \"#utility.yul\":334:460   */\n      swap2\n      swap1\n      pop\n      jump\t// out\n        /* \"#utility.yul\":466:562   */\n    tag_31:\n        /* \"#utility.yul\":503:510   */\n      0x00\n        /* \"#utility.yul\":532:556   */\n      tag_44\n        /* \"#utility.yul\":550:555   */\n      dup3\n        /* \"#utility.yul\":532:556   */\n      tag_30\n      jump\t// in\n    tag_44:\n        /* \"#utility.yul\":521:556   */\n      swap1\n      pop\n        /* \"#utility.yul\":466:562   */\n      swap2\n      swap1\n      pop\n      jump\t// out\n        /* \"#utility.yul\":568:690   */\n    tag_32:\n        /* \"#utility.yul\":641:665   */\n      tag_46\n        /* \"#utility.yul\":659:664   */\n      dup2\n        /* \"#utility.yul\":641:665   */\n      tag_31\n      jump\t// in\n    tag_46:\n        /* \"#utility.yul\":634:639   */\n      dup2\n        /* \"#utility.yul\":631:666   */\n      eq\n        /* \"#utility.yul\":621:684   */\n      tag_47\n      jumpi\n        /* \"#utility.yul\":680:681   */\n      0x00\n        /* \"#utility.yul\":677:678   */\n      0x00\n        /* \"#utility.yul\":670:682   */\n      revert\n        /* \"#utility.yul\":621:684   */\n    tag_47:\n        /* \"#utility.yul\":568:690   */\n      pop\n      jump\t// out\n        /* \"#utility.yul\":696:835   */\n    tag_33:\n        /* \"#utility.yul\":742:747   */\n      0x00\n        /* \"#utility.yul\":780:786   */\n      dup2\n        /* \"#utility.yul\":767:787   */\n      calldataload\n        /* \"#utility.yul\":758:787   */\n      swap1\n      pop\n        /* \"#utility.yul\":796:829   */\n      tag_49\n        /* \"#utility.yul\":823:828   */\n      dup2\n        /* \"#utility.yul\":796:829   */\n      tag_32\n      jump\t// in\n    tag_49:\n        /* \"#utility.yul\":696:835   */\n      swap3\n      swap2\n      pop\n      pop\n      jump\t// out\n        /* \"#utility.yul\":841:1170   */\n    tag_9:\n        /* \"#utility.yul\":900:906   */\n      0x00\n        /* \"#utility.yul\":949:951   */\n      0x20\n        /* \"#utility.yul\":937:946   */\n      dup3\n        /* \"#utility.yul\":928:935   */\n      dup5\n        /* \"#utility.yul\":924:947   */\n      sub\n        /* \"#utility.yul\":920:952   */\n      slt\n        /* \"#utility.yul\":917:1036   */\n      iszero\n      tag_51\n      jumpi\n        /* \"#utility.yul\":955:1034   */\n      tag_52\n      tag_28\n      jump\t// in\n    tag_52:\n        /* \"#utility.yul\":917:1036   */\n    tag_51:\n        /* \"#utility.yul\":1075:1076   */\n      0x00\n        /* \"#utility.yul\":1100:1153   */\n      tag_53\n        /* \"#utility.yul\":1145:1152   */\n      dup5\n        /* \"#utility.yul\":1136:1142   */\n      dup3\n        /* \"#utility.yul\":1125:1134   */\n      dup6\n        /* \"#utility.yul\":1121:1143   */\n      add\n        /* \"#utility.yul\":1100:1153   */\n      tag_33\n      jump\t// in\n    tag_53:\n        /* \"#utility.yul\":1090:1153   */\n      swap2\n      pop\n        /* \"#utility.yul\":1046:1163   */\n      pop\n        /* \"#utility.yul\":841:1170   */\n      swap3\n      swap2\n      pop\n      pop\n      jump\t// out\n        /* \"#utility.yul\":1176:1253   */\n    tag_34:\n        /* \"#utility.yul\":1213:1220   */\n      0x00\n        /* \"#utility.yul\":1242:1247   */\n      dup2\n        /* \"#utility.yul\":1231:1247   */\n      swap1\n      pop\n        /* \"#utility.yul\":1176:1253   */\n      swap2\n      swap1\n      pop\n      jump\t// out\n        /* \"#utility.yul\":1259:1377   */\n    tag_35:\n        /* \"#utility.yul\":1346:1370   */\n      tag_56\n        /* \"#utility.yul\":1364:1369   */\n      dup2\n        /* \"#utility.yul\":1346:1370   */\n      tag_34\n      jump\t// in\n    tag_56:\n        /* \"#utility.yul\":1341:1344   */\n      dup3\n        /* \"#utility.yul\":1334:1371   */\n      mstore\n        /* \"#utility.yul\":1259:1377   */\n      pop\n      pop\n      jump\t// out\n        /* \"#utility.yul\":1383:1605   */\n    tag_12:\n        /* \"#utility.yul\":1476:1480   */\n      0x00\n        /* \"#utility.yul\":1514:1516   */\n      0x20\n        /* \"#utility.yul\":1503:1512   */\n      dup3\n        /* \"#utility.yul\":1499:1517   */\n      add\n        /* \"#utility.yul\":1491:1517   */\n      swap1\n      pop\n        /* \"#utility.yul\":1527:1598   */\n      tag_58\n        /* \"#utility.yul\":1595:1596   */\n      0x00\n        /* \"#utility.yul\":1584:1593   */\n      dup4\n        /* \"#utility.yul\":1580:1597   */\n      add\n        /* \"#utility.yul\":1571:1577   */\n      dup5\n        /* \"#utility.yul\":1527:1598   */\n      tag_35\n      jump\t// in\n    tag_58:\n        /* \"#utility.yul\":1383:1605   */\n      swap3\n      swap2\n      pop\n      pop\n      jump\t// out\n        /* \"#utility.yul\":1611:1733   */\n    tag_36:\n        /* \"#utility.yul\":1684:1708   */\n      tag_60\n        /* \"#utility.yul\":1702:1707   */\n      dup2\n        /* \"#utility.yul\":1684:1708   */\n      tag_34\n      jump\t// in\n    tag_60:\n        /* \"#utility.yul\":1677:1682   */\n      dup2\n        /* \"#utility.yul\":1674:1709   */\n      eq\n        /* \"#utility.yul\":1664:1727   */\n      tag_61\n      jumpi\n        /* \"#utility.yul\":1723:1724   */\n      0x00\n        /* \"#utility.yul\":1720:1721   */\n      0x00\n        /* \"#utility.yul\":1713:1725   */\n      revert\n        /* \"#utility.yul\":1664:1727   */\n    tag_61:\n        /* \"#utility.yul\":1611:1733   */\n      pop\n      jump\t// out\n        /* \"#utility.yul\":1739:1878   */\n    tag_37:\n        /* \"#utility.yul\":1785:1790   */\n      0x00\n        /* \"#utility.yul\":1823:1829   */\n      dup2\n        /* \"#utility.yul\":1810:1830   */\n      calldataload\n        /* \"#utility.yul\":1801:1830   */\n      swap1\n      pop\n        /* \"#utility.yul\":1839:1872   */\n      tag_63\n        /* \"#utility.yul\":1866:1871   */\n      dup2\n        /* \"#utility.yul\":1839:1872   */\n      tag_36\n      jump\t// in\n    tag_63:\n        /* \"#utility.yul\":1739:1878   */\n      swap3\n      swap2\n      pop\n      pop\n      jump\t// out\n        /* \"#utility.yul\":1884:2358   */\n    tag_22:\n        /* \"#utility.yul\":1952:1958   */\n      0x00\n        /* \"#utility.yul\":1960:1966   */\n      0x00\n        /* \"#utility.yul\":2009:2011   */\n      0x40\n        /* \"#utility.yul\":1997:2006   */\n      dup4\n        /* \"#utility.yul\":1988:1995   */\n      dup6\n        /* \"#utility.yul\":1984:2007   */\n      sub\n        /* \"#utility.yul\":1980:2012   */\n      slt\n        /* \"#utility.yul\":1977:2096   */\n      iszero\n      tag_65\n      jumpi\n        /* \"#utility.yul\":2015:2094   */\n      tag_66\n      tag_28\n      jump\t// in\n    tag_66:\n        /* \"#utility.yul\":1977:2096   */\n    tag_65:\n        /* \"#utility.yul\":2135:2136   */\n      0x00\n        /* \"#utility.yul\":2160:2213   */\n      tag_67\n        /* \"#utility.yul\":2205:2212   */\n      dup6\n        /* \"#utility.yul\":2196:2202   */\n      dup3\n        /* \"#utility.yul\":2185:2194   */\n      dup7\n        /* \"#utility.yul\":2181:2203   */\n      add\n        /* \"#utility.yul\":2160:2213   */\n      tag_33\n      jump\t// in\n    tag_67:\n        /* \"#utility.yul\":2150:2213   */\n      swap3\n      pop\n        /* \"#utility.yul\":2106:2223   */\n      pop\n        /* \"#utility.yul\":2262:2264   */\n      0x20\n        /* \"#utility.yul\":2288:2341   */\n      tag_68\n        /* \"#utility.yul\":2333:2340   */\n      dup6\n        /* \"#utility.yul\":2324:2330   */\n      dup3\n        /* \"#utility.yul\":2313:2322   */\n      dup7\n        /* \"#utility.yul\":2309:2331   */\n      add\n        /* \"#utility.yul\":2288:2341   */\n      tag_37\n      jump\t// in\n    tag_68:\n        /* \"#utility.yul\":2278:2341   */\n      swap2\n      pop\n        /* \"#utility.yul\":2233:2351   */\n      pop\n        /* \"#utility.yul\":1884:2358   */\n      swap3\n      pop\n      swap3\n      swap1\n      pop\n      jump\t// out\n\n    auxdata: 0xa26469706673582212206d3597fff7e262599b9287cec0c9a739cd482c300614054a72f1094f79d1211f64736f6c634300081e0033\n}\n",
				"bytecode": {
					"linkReferences": {},
					"object": "6080604052348015600e575f5ffd5b5061031e8061001c5f395ff3fe608060405234801561000f575f5ffd5b506004361061004a575f3560e01c806327cbd5291461004e578063503f2de11461007e57806360a9d1b0146100ae578063cfe12d80146100ca575b5f5ffd5b61006860048036038101906100639190610224565b6100e6565b6040516100759190610267565b60405180910390f35b61009860048036038101906100939190610224565b6100fa565b6040516100a59190610267565b60405180910390f35b6100c860048036038101906100c39190610224565b61013f565b005b6100e460048036038101906100df91906102aa565b610181565b005b5f602052805f5260405f205f915090505481565b5f5f5f8373ffffffffffffffffffffffffffffffffffffffff1673ffffffffffffffffffffffffffffffffffffffff1681526020019081526020015f20549050919050565b5f5f8273ffffffffffffffffffffffffffffffffffffffff1673ffffffffffffffffffffffffffffffffffffffff1681526020019081526020015f205f905550565b805f5f8473ffffffffffffffffffffffffffffffffffffffff1673ffffffffffffffffffffffffffffffffffffffff1681526020019081526020015f20819055505050565b5f5ffd5b5f73ffffffffffffffffffffffffffffffffffffffff82169050919050565b5f6101f3826101ca565b9050919050565b610203816101e9565b811461020d575f5ffd5b50565b5f8135905061021e816101fa565b92915050565b5f60208284031215610239576102386101c6565b5b5f61024684828501610210565b91505092915050565b5f819050919050565b6102618161024f565b82525050565b5f60208201905061027a5f830184610258565b92915050565b6102898161024f565b8114610293575f5ffd5b50565b5f813590506102a481610280565b92915050565b5f5f604083850312156102c0576102bf6101c6565b5b5f6102cd85828601610210565b92505060206102de85828601610296565b915050925092905056fea26469706673582212206d3597fff7e262599b9287cec0c9a739cd482c300614054a72f1094f79d1211f64736f6c634300081e0033",
					"opcodes": "PUSH1 0x80 PUSH1 0x40 MSTORE CALLVALUE DUP1 ISZERO PUSH1 0xE JUMPI PUSH0 PUSH0 REVERT JUMPDEST POP PUSH2 0x31E DUP1 PUSH2 0x1C PUSH0 CODECOPY PUSH0 RETURN INVALID PUSH1 0x80 PUSH1 0x40 MSTORE CALLVALUE DUP1 ISZERO PUSH2 0xF JUMPI PUSH0 PUSH0 REVERT JUMPDEST POP PUSH1 0x4 CALLDATASIZE LT PUSH2 0x4A JUMPI PUSH0 CALLDATALOAD PUSH1 0xE0 SHR DUP1 PUSH4 0x27CBD529 EQ PUSH2 0x4E JUMPI DUP1 PUSH4 0x503F2DE1 EQ PUSH2 0x7E JUMPI DUP1 PUSH4 0x60A9D1B0 EQ PUSH2 0xAE JUMPI DUP1 PUSH4 0xCFE12D80 EQ PUSH2 0xCA JUMPI JUMPDEST PUSH0 PUSH0 REVERT JUMPDEST PUSH2 0x68 PUSH1 0x4 DUP1 CALLDATASIZE SUB DUP2 ADD SWAP1 PUSH2 0x63 SWAP2 SWAP1 PUSH2 0x224 JUMP JUMPDEST PUSH2 0xE6 JUMP JUMPDEST PUSH1 0x40 MLOAD PUSH2 0x75 SWAP2 SWAP1 PUSH2 0x267 JUMP JUMPDEST PUSH1 0x40 MLOAD DUP1 SWAP2 SUB SWAP1 RETURN JUMPDEST PUSH2 0x98 PUSH1 0x4 DUP1 CALLDATASIZE SUB DUP2 ADD SWAP1 PUSH2 0x93 SWAP2 SWAP1 PUSH2 0x224 JUMP JUMPDEST PUSH2 0xFA JUMP JUMPDEST PUSH1 0x40 MLOAD PUSH2 0xA5 SWAP2 SWAP1 PUSH2 0x267 JUMP JUMPDEST PUSH1 0x40 MLOAD DUP1 SWAP2 SUB SWAP1 RETURN JUMPDEST PUSH2 0xC8 PUSH1 0x4 DUP1 CALLDATASIZE SUB DUP2 ADD SWAP1 PUSH2 0xC3 SWAP2 SWAP1 PUSH2 0x224 JUMP JUMPDEST PUSH2 0x13F JUMP JUMPDEST STOP JUMPDEST PUSH2 0xE4 PUSH1 0x4 DUP1 CALLDATASIZE SUB DUP2 ADD SWAP1 PUSH2 0xDF SWAP2 SWAP1 PUSH2 0x2AA JUMP JUMPDEST PUSH2 0x181 JUMP JUMPDEST STOP JUMPDEST PUSH0 PUSH1 0x20 MSTORE DUP1 PUSH0 MSTORE PUSH1 0x40 PUSH0 KECCAK256 PUSH0 SWAP2 POP SWAP1 POP SLOAD DUP2 JUMP JUMPDEST PUSH0 PUSH0 PUSH0 DUP4 PUSH20 0xFFFFFFFFFFFFFFFFFFFFFFFFFFFFFFFFFFFFFFFF AND PUSH20 0xFFFFFFFFFFFFFFFFFFFFFFFFFFFFFFFFFFFFFFFF AND DUP2 MSTORE PUSH1 0x20 ADD SWAP1 DUP2 MSTORE PUSH1 0x20 ADD PUSH0 KECCAK256 SLOAD SWAP1 POP SWAP2 SWAP1 POP JUMP JUMPDEST PUSH0 PUSH0 DUP3 PUSH20 0xFFFFFFFFFFFFFFFFFFFFFFFFFFFFFFFFFFFFFFFF AND PUSH20 0xFFFFFFFFFFFFFFFFFFFFFFFFFFFFFFFFFFFFFFFF AND DUP2 MSTORE PUSH1 0x20 ADD SWAP1 DUP2 MSTORE PUSH1 0x20 ADD PUSH0 KECCAK256 PUSH0 SWAP1 SSTORE POP JUMP JUMPDEST DUP1 PUSH0 PUSH0 DUP5 PUSH20 0xFFFFFFFFFFFFFFFFFFFFFFFFFFFFFFFFFFFFFFFF AND PUSH20 0xFFFFFFFFFFFFFFFFFFFFFFFFFFFFFFFFFFFFFFFF AND DUP2 MSTORE PUSH1 0x20 ADD SWAP1 DUP2 MSTORE PUSH1 0x20 ADD PUSH0 KECCAK256 DUP2 SWAP1 SSTORE POP POP POP JUMP JUMPDEST PUSH0 PUSH0 REVERT JUMPDEST PUSH0 PUSH20 0xFFFFFFFFFFFFFFFFFFFFFFFFFFFFFFFFFFFFFFFF DUP3 AND SWAP1 POP SWAP2 SWAP1 POP JUMP JUMPDEST PUSH0 PUSH2 0x1F3 DUP3 PUSH2 0x1CA JUMP JUMPDEST SWAP1 POP SWAP2 SWAP1 POP JUMP JUMPDEST PUSH2 0x203 DUP2 PUSH2 0x1E9 JUMP JUMPDEST DUP2 EQ PUSH2 0x20D JUMPI PUSH0 PUSH0 REVERT JUMPDEST POP JUMP JUMPDEST PUSH0 DUP2 CALLDATALOAD SWAP1 POP PUSH2 0x21E DUP2 PUSH2 0x1FA JUMP JUMPDEST SWAP3 SWAP2 POP POP JUMP JUMPDEST PUSH0 PUSH1 0x20 DUP3 DUP5 SUB SLT ISZERO PUSH2 0x239 JUMPI PUSH2 0x238 PUSH2 0x1C6 JUMP JUMPDEST JUMPDEST PUSH0 PUSH2 0x246 DUP5 DUP3 DUP6 ADD PUSH2 0x210 JUMP JUMPDEST SWAP2 POP POP SWAP3 SWAP2 POP POP JUMP JUMPDEST PUSH0 DUP2 SWAP1 POP SWAP2 SWAP1 POP JUMP JUMPDEST PUSH2 0x261 DUP2 PUSH2 0x24F JUMP JUMPDEST DUP3 MSTORE POP POP JUMP JUMPDEST PUSH0 PUSH1 0x20 DUP3 ADD SWAP1 POP PUSH2 0x27A PUSH0 DUP4 ADD DUP5 PUSH2 0x258 JUMP JUMPDEST SWAP3 SWAP2 POP POP JUMP JUMPDEST PUSH2 0x289 DUP2 PUSH2 0x24F JUMP JUMPDEST DUP2 EQ PUSH2 0x293 JUMPI PUSH0 PUSH0 REVERT JUMPDEST POP JUMP JUMPDEST PUSH0 DUP2 CALLDATALOAD SWAP1 POP PUSH2 0x2A4 DUP2 PUSH2 0x280 JUMP JUMPDEST SWAP3 SWAP2 POP POP JUMP JUMPDEST PUSH0 PUSH0 PUSH1 0x40 DUP4 DUP6 SUB SLT ISZERO PUSH2 0x2C0 JUMPI PUSH2 0x2BF PUSH2 0x1C6 JUMP JUMPDEST JUMPDEST PUSH0 PUSH2 0x2CD DUP6 DUP3 DUP7 ADD PUSH2 0x210 JUMP JUMPDEST SWAP3 POP POP PUSH1 0x20 PUSH2 0x2DE DUP6 DUP3 DUP7 ADD PUSH2 0x296 JUMP JUMPDEST SWAP2 POP POP SWAP3 POP SWAP3 SWAP1 POP JUMP INVALID LOG2 PUSH5 0x6970667358 0x22 SLT KECCAK256 PUSH14 0x3597FFF7E262599B9287CEC0C9A7 CODECOPY 0xCD BASEFEE 0x2C ADDRESS MOD EQ SDIV BLOBBASEFEE PUSH19 0xF1094F79D1211F64736F6C634300081E003300 "
				},
				"gasEstimates": {
					"creation": {
						"codeDepositCost": "159600",
						"executionCost": "200",
						"totalCost": "159800"
					},
					"external": {
						"addVal(address,uint256)": "22864",
						"deleteVal(address)": "5566",
						"myMap(address)": "2779",
						"showVal(address)": "2828"
					}
				},
				"methodIdentifiers": {
					"addVal(address,uint256)": "cfe12d80",
					"deleteVal(address)": "60a9d1b0",
					"myMap(address)": "27cbd529",
					"showVal(address)": "503f2de1"
				}
			},
			"storageLayout": {
				"storage": [
					{
						"astId": 5,
						"contract": "solidityCourse2/Module1/mapping.sol:Mapping",
						"label": "myMap",
						"offset": 0,
						"slot": "0",
						"type": "t_mapping(t_address,t_uint256)"
					}
				],
				"types": {
					"t_address": {
						"encoding": "inplace",
						"label": "address",
						"numberOfBytes": "20"
					},
					"t_mapping(t_address,t_uint256)": {
						"encoding": "mapping",
						"key": "t_address",
						"label": "mapping(address => uint256)",
						"numberOfBytes": "32",
						"value": "t_uint256"
					},
					"t_uint256": {
						"encoding": "inplace",
						"label": "uint256",
						"numberOfBytes": "32"
					}
				}
			},
			"userdoc": {
				"kind": "user",
				"methods": {},
				"version": 1
			}
		}
	}
}