{
	"solidityCourse2/Module1/mappingStruct.sol": {
		"Mapping": {
			"abi": [
				{
					"inputs": [
						{
							"internalType": "uint256",
							"name": "_i",
							"type": "uint256"
						}
					],
					"name": "addMovie",
					"outputs": [
						{
							"components": [
								{
									"internalType": "string",
									"name": "name",
									"type": "string"
								},
								{
									"internalType": "string",
									"name": "director",
									"type": "string"
								}
							],
							"internalType": "struct Mapping.Movie",
							"name": "",
							"type": "tuple"
						}
					],
					"stateMutability": "view",
					"type": "function"
				},
				{
					"inputs": [
						{
							"internalType": "string",
							"name": "n",
							"type": "string"
						},
						{
							"internalType": "string",
							"name": "t",
							"type": "string"
						},
						{
							"internalType": "uint256",
							"name": "_i",
							"type": "uint256"
						}
					],
					"name": "addMovie",
					"outputs": [],
					"stateMutability": "nonpayable",
					"type": "function"
				},
				{
					"inputs": [
						{
							"internalType": "uint256",
							"name": "",
							"type": "uint256"
						}
					],
					"name": "myMap",
					"outputs": [
						{
							"internalType": "string",
							"name": "name",
							"type": "string"
						},
						{
							"internalType": "string",
							"name": "director",
							"type": "string"
						}
					],
					"stateMutability": "view",
					"type": "function"
				},
				{
					"inputs": [
						{
							"internalType": "uint256",
							"name": "_i",
							"type": "uint256"
						}
					],
					"name": "remMov",
					"outputs": [],
					"stateMutability": "nonpayable",
					"type": "function"
				},
				{
					"inputs": [
						{
							"internalType": "uint256",
							"name": "_i",
							"type": "uint256"
						}
					],
					"name": "show",
					"outputs": [
						{
							"components": [
								{
									"internalType": "string",
									"name": "name",
									"type": "string"
								},
								{
									"internalType": "string",
									"name": "director",
									"type": "string"
								}
							],
							"internalType": "struct Mapping.Movie",
							"name": "",
							"type": "tuple"
						}
					],
					"stateMutability": "view",
					"type": "function"
				}
			],
			"devdoc": {
				"kind": "dev",
				"methods": {},
				"version": 1
			},
			"evm": {
				"assembly": "    /* \"solidityCourse2/Module1/mappingStruct.sol\":61:635  contract Mapping{... */\n  mstore(0x40, 0x80)\n  callvalue\n  dup1\n  iszero\n  tag_1\n  jumpi\n  revert(0x00, 0x00)\ntag_1:\n  pop\n  dataSize(sub_0)\n  dup1\n  dataOffset(sub_0)\n  0x00\n  codecopy\n  0x00\n  return\nstop\n\nsub_0: assembly {\n        /* \"solidityCourse2/Module1/mappingStruct.sol\":61:635  contract Mapping{... */\n      mstore(0x40, 0x80)\n      callvalue\n      dup1\n      iszero\n      tag_1\n      jumpi\n      revert(0x00, 0x00)\n    tag_1:\n      pop\n      jumpi(tag_2, lt(calldatasize, 0x04))\n      shr(0xe0, calldataload(0x00))\n      dup1\n      0x6af390aa\n      eq\n      tag_3\n      jumpi\n      dup1\n      0x7404f9c7\n      eq\n      tag_4\n      jumpi\n      dup1\n      0x8b514ed7\n      eq\n      tag_5\n      jumpi\n      dup1\n      0xcc1935b4\n      eq\n      tag_6\n      jumpi\n      dup1\n      0xf012666e\n      eq\n      tag_7\n      jumpi\n    tag_2:\n      revert(0x00, 0x00)\n        /* \"solidityCourse2/Module1/mappingStruct.sol\":176:209  mapping(uint=>Movie) public myMap */\n    tag_3:\n      tag_8\n      0x04\n      dup1\n      calldatasize\n      sub\n      dup2\n      add\n      swap1\n      tag_9\n      swap2\n      swap1\n      tag_10\n      jump\t// in\n    tag_9:\n      tag_11\n      jump\t// in\n    tag_8:\n      mload(0x40)\n      tag_12\n      swap3\n      swap2\n      swap1\n      tag_13\n      jump\t// in\n    tag_12:\n      mload(0x40)\n      dup1\n      swap2\n      sub\n      swap1\n      return\n        /* \"solidityCourse2/Module1/mappingStruct.sol\":351:457  function addMovie(uint _i) public  view returns(Movie memory){... */\n    tag_4:\n      tag_14\n      0x04\n      dup1\n      calldatasize\n      sub\n      dup2\n      add\n      swap1\n      tag_15\n      swap2\n      swap1\n      tag_10\n      jump\t// in\n    tag_15:\n      tag_16\n      jump\t// in\n    tag_14:\n      mload(0x40)\n      tag_17\n      swap2\n      swap1\n      tag_18\n      jump\t// in\n    tag_17:\n      mload(0x40)\n      dup1\n      swap2\n      sub\n      swap1\n      return\n        /* \"solidityCourse2/Module1/mappingStruct.sol\":535:626  function show(uint _i) public view returns(Movie memory){... */\n    tag_5:\n      tag_19\n      0x04\n      dup1\n      calldatasize\n      sub\n      dup2\n      add\n      swap1\n      tag_20\n      swap2\n      swap1\n      tag_10\n      jump\t// in\n    tag_20:\n      tag_21\n      jump\t// in\n    tag_19:\n      mload(0x40)\n      tag_22\n      swap2\n      swap1\n      tag_18\n      jump\t// in\n    tag_22:\n      mload(0x40)\n      dup1\n      swap2\n      sub\n      swap1\n      return\n        /* \"solidityCourse2/Module1/mappingStruct.sol\":463:529  function remMov(uint _i) public{... */\n    tag_6:\n      tag_23\n      0x04\n      dup1\n      calldatasize\n      sub\n      dup2\n      add\n      swap1\n      tag_24\n      swap2\n      swap1\n      tag_10\n      jump\t// in\n    tag_24:\n      tag_25\n      jump\t// in\n    tag_23:\n      stop\n        /* \"solidityCourse2/Module1/mappingStruct.sol\":218:345  function addMovie(string memory n, string memory t,uint _i) public{... */\n    tag_7:\n      tag_26\n      0x04\n      dup1\n      calldatasize\n      sub\n      dup2\n      add\n      swap1\n      tag_27\n      swap2\n      swap1\n      tag_28\n      jump\t// in\n    tag_27:\n      tag_29\n      jump\t// in\n    tag_26:\n      stop\n        /* \"solidityCourse2/Module1/mappingStruct.sol\":176:209  mapping(uint=>Movie) public myMap */\n    tag_11:\n      mstore(0x20, 0x02)\n      dup1\n      0x00\n      mstore\n      keccak256(0x00, 0x40)\n      0x00\n      swap2\n      pop\n      swap1\n      pop\n      dup1\n      0x00\n      add\n      dup1\n      sload\n      tag_30\n      swap1\n      tag_31\n      jump\t// in\n    tag_30:\n      dup1\n      0x1f\n      add\n      0x20\n      dup1\n      swap2\n      div\n      mul\n      0x20\n      add\n      mload(0x40)\n      swap1\n      dup2\n      add\n      0x40\n      mstore\n      dup1\n      swap3\n      swap2\n      swap1\n      dup2\n      dup2\n      mstore\n      0x20\n      add\n      dup3\n      dup1\n      sload\n      tag_32\n      swap1\n      tag_31\n      jump\t// in\n    tag_32:\n      dup1\n      iszero\n      tag_33\n      jumpi\n      dup1\n      0x1f\n      lt\n      tag_34\n      jumpi\n      0x0100\n      dup1\n      dup4\n      sload\n      div\n      mul\n      dup4\n      mstore\n      swap2\n      0x20\n      add\n      swap2\n      jump(tag_33)\n    tag_34:\n      dup3\n      add\n      swap2\n      swap1\n      0x00\n      mstore\n      keccak256(0x00, 0x20)\n      swap1\n    tag_35:\n      dup2\n      sload\n      dup2\n      mstore\n      swap1\n      0x01\n      add\n      swap1\n      0x20\n      add\n      dup1\n      dup4\n      gt\n      tag_35\n      jumpi\n      dup3\n      swap1\n      sub\n      0x1f\n      and\n      dup3\n      add\n      swap2\n    tag_33:\n      pop\n      pop\n      pop\n      pop\n      pop\n      swap1\n      dup1\n      0x01\n      add\n      dup1\n      sload\n      tag_36\n      swap1\n      tag_31\n      jump\t// in\n    tag_36:\n      dup1\n      0x1f\n      add\n      0x20\n      dup1\n      swap2\n      div\n      mul\n      0x20\n      add\n      mload(0x40)\n      swap1\n      dup2\n      add\n      0x40\n      mstore\n      dup1\n      swap3\n      swap2\n      swap1\n      dup2\n      dup2\n      mstore\n      0x20\n      add\n      dup3\n      dup1\n      sload\n      tag_37\n      swap1\n      tag_31\n      jump\t// in\n    tag_37:\n      dup1\n      iszero\n      tag_38\n      jumpi\n      dup1\n      0x1f\n      lt\n      tag_39\n      jumpi\n      0x0100\n      dup1\n      dup4\n      sload\n      div\n      mul\n      dup4\n      mstore\n      swap2\n      0x20\n      add\n      swap2\n      jump(tag_38)\n    tag_39:\n      dup3\n      add\n      swap2\n      swap1\n      0x00\n      mstore\n      keccak256(0x00, 0x20)\n      swap1\n    tag_40:\n      dup2\n      sload\n      dup2\n      mstore\n      swap1\n      0x01\n      add\n      swap1\n      0x20\n      add\n      dup1\n      dup4\n      gt\n      tag_40\n      jumpi\n      dup3\n      swap1\n      sub\n      0x1f\n      and\n      dup3\n      add\n      swap2\n    tag_38:\n      pop\n      pop\n      pop\n      pop\n      pop\n      swap1\n      pop\n      dup3\n      jump\t// out\n        /* \"solidityCourse2/Module1/mappingStruct.sol\":351:457  function addMovie(uint _i) public  view returns(Movie memory){... */\n    tag_16:\n        /* \"solidityCourse2/Module1/mappingStruct.sol\":399:411  Movie memory */\n      tag_41\n      tag_42\n      jump\t// in\n    tag_41:\n        /* \"solidityCourse2/Module1/mappingStruct.sol\":430:435  myMap */\n      0x02\n        /* \"solidityCourse2/Module1/mappingStruct.sol\":430:439  myMap[_i] */\n      0x00\n        /* \"solidityCourse2/Module1/mappingStruct.sol\":436:438  _i */\n      dup4\n        /* \"solidityCourse2/Module1/mappingStruct.sol\":430:439  myMap[_i] */\n      dup2\n      mstore\n      0x20\n      add\n      swap1\n      dup2\n      mstore\n      0x20\n      add\n      0x00\n      keccak256\n        /* \"solidityCourse2/Module1/mappingStruct.sol\":423:439  return myMap[_i] */\n      mload(0x40)\n      dup1\n      0x40\n      add\n      0x40\n      mstore\n      swap1\n      dup2\n      0x00\n      dup3\n      add\n      dup1\n      sload\n      tag_44\n      swap1\n      tag_31\n      jump\t// in\n    tag_44:\n      dup1\n      0x1f\n      add\n      0x20\n      dup1\n      swap2\n      div\n      mul\n      0x20\n      add\n      mload(0x40)\n      swap1\n      dup2\n      add\n      0x40\n      mstore\n      dup1\n      swap3\n      swap2\n      swap1\n      dup2\n      dup2\n      mstore\n      0x20\n      add\n      dup3\n      dup1\n      sload\n      tag_45\n      swap1\n      tag_31\n      jump\t// in\n    tag_45:\n      dup1\n      iszero\n      tag_46\n      jumpi\n      dup1\n      0x1f\n      lt\n      tag_47\n      jumpi\n      0x0100\n      dup1\n      dup4\n      sload\n      div\n      mul\n      dup4\n      mstore\n      swap2\n      0x20\n      add\n      swap2\n      jump(tag_46)\n    tag_47:\n      dup3\n      add\n      swap2\n      swap1\n      0x00\n      mstore\n      keccak256(0x00, 0x20)\n      swap1\n    tag_48:\n      dup2\n      sload\n      dup2\n      mstore\n      swap1\n      0x01\n      add\n      swap1\n      0x20\n      add\n      dup1\n      dup4\n      gt\n      tag_48\n      jumpi\n      dup3\n      swap1\n      sub\n      0x1f\n      and\n      dup3\n      add\n      swap2\n    tag_46:\n      pop\n      pop\n      pop\n      pop\n      pop\n      dup2\n      mstore\n      0x20\n      add\n      0x01\n      dup3\n      add\n      dup1\n      sload\n      tag_49\n      swap1\n      tag_31\n      jump\t// in\n    tag_49:\n      dup1\n      0x1f\n      add\n      0x20\n      dup1\n      swap2\n      div\n      mul\n      0x20\n      add\n      mload(0x40)\n      swap1\n      dup2\n      add\n      0x40\n      mstore\n      dup1\n      swap3\n      swap2\n      swap1\n      dup2\n      dup2\n      mstore\n      0x20\n      add\n      dup3\n      dup1\n      sload\n      tag_50\n      swap1\n      tag_31\n      jump\t// in\n    tag_50:\n      dup1\n      iszero\n      tag_51\n      jumpi\n      dup1\n      0x1f\n      lt\n      tag_52\n      jumpi\n      0x0100\n      dup1\n      dup4\n      sload\n      div\n      mul\n      dup4\n      mstore\n      swap2\n      0x20\n      add\n      swap2\n      jump(tag_51)\n    tag_52:\n      dup3\n      add\n      swap2\n      swap1\n      0x00\n      mstore\n      keccak256(0x00, 0x20)\n      swap1\n    tag_53:\n      dup2\n      sload\n      dup2\n      mstore\n      swap1\n      0x01\n      add\n      swap1\n      0x20\n      add\n      dup1\n      dup4\n      gt\n      tag_53\n      jumpi\n      dup3\n      swap1\n      sub\n      0x1f\n      and\n      dup3\n      add\n      swap2\n    tag_51:\n      pop\n      pop\n      pop\n      pop\n      pop\n      dup2\n      mstore\n      pop\n      pop\n      swap1\n      pop\n        /* \"solidityCourse2/Module1/mappingStruct.sol\":351:457  function addMovie(uint _i) public  view returns(Movie memory){... */\n      swap2\n      swap1\n      pop\n      jump\t// out\n        /* \"solidityCourse2/Module1/mappingStruct.sol\":535:626  function show(uint _i) public view returns(Movie memory){... */\n    tag_21:\n        /* \"solidityCourse2/Module1/mappingStruct.sol\":578:590  Movie memory */\n      tag_54\n      tag_42\n      jump\t// in\n    tag_54:\n        /* \"solidityCourse2/Module1/mappingStruct.sol\":609:614  myMap */\n      0x02\n        /* \"solidityCourse2/Module1/mappingStruct.sol\":609:618  myMap[_i] */\n      0x00\n        /* \"solidityCourse2/Module1/mappingStruct.sol\":615:617  _i */\n      dup4\n        /* \"solidityCourse2/Module1/mappingStruct.sol\":609:618  myMap[_i] */\n      dup2\n      mstore\n      0x20\n      add\n      swap1\n      dup2\n      mstore\n      0x20\n      add\n      0x00\n      keccak256\n        /* \"solidityCourse2/Module1/mappingStruct.sol\":602:618  return myMap[_i] */\n      mload(0x40)\n      dup1\n      0x40\n      add\n      0x40\n      mstore\n      swap1\n      dup2\n      0x00\n      dup3\n      add\n      dup1\n      sload\n      tag_56\n      swap1\n      tag_31\n      jump\t// in\n    tag_56:\n      dup1\n      0x1f\n      add\n      0x20\n      dup1\n      swap2\n      div\n      mul\n      0x20\n      add\n      mload(0x40)\n      swap1\n      dup2\n      add\n      0x40\n      mstore\n      dup1\n      swap3\n      swap2\n      swap1\n      dup2\n      dup2\n      mstore\n      0x20\n      add\n      dup3\n      dup1\n      sload\n      tag_57\n      swap1\n      tag_31\n      jump\t// in\n    tag_57:\n      dup1\n      iszero\n      tag_58\n      jumpi\n      dup1\n      0x1f\n      lt\n      tag_59\n      jumpi\n      0x0100\n      dup1\n      dup4\n      sload\n      div\n      mul\n      dup4\n      mstore\n      swap2\n      0x20\n      add\n      swap2\n      jump(tag_58)\n    tag_59:\n      dup3\n      add\n      swap2\n      swap1\n      0x00\n      mstore\n      keccak256(0x00, 0x20)\n      swap1\n    tag_60:\n      dup2\n      sload\n      dup2\n      mstore\n      swap1\n      0x01\n      add\n      swap1\n      0x20\n      add\n      dup1\n      dup4\n      gt\n      tag_60\n      jumpi\n      dup3\n      swap1\n      sub\n      0x1f\n      and\n      dup3\n      add\n      swap2\n    tag_58:\n      pop\n      pop\n      pop\n      pop\n      pop\n      dup2\n      mstore\n      0x20\n      add\n      0x01\n      dup3\n      add\n      dup1\n      sload\n      tag_61\n      swap1\n      tag_31\n      jump\t// in\n    tag_61:\n      dup1\n      0x1f\n      add\n      0x20\n      dup1\n      swap2\n      div\n      mul\n      0x20\n      add\n      mload(0x40)\n      swap1\n      dup2\n      add\n      0x40\n      mstore\n      dup1\n      swap3\n      swap2\n      swap1\n      dup2\n      dup2\n      mstore\n      0x20\n      add\n      dup3\n      dup1\n      sload\n      tag_62\n      swap1\n      tag_31\n      jump\t// in\n    tag_62:\n      dup1\n      iszero\n      tag_63\n      jumpi\n      dup1\n      0x1f\n      lt\n      tag_64\n      jumpi\n      0x0100\n      dup1\n      dup4\n      sload\n      div\n      mul\n      dup4\n      mstore\n      swap2\n      0x20\n      add\n      swap2\n      jump(tag_63)\n    tag_64:\n      dup3\n      add\n      swap2\n      swap1\n      0x00\n      mstore\n      keccak256(0x00, 0x20)\n      swap1\n    tag_65:\n      dup2\n      sload\n      dup2\n      mstore\n      swap1\n      0x01\n      add\n      swap1\n      0x20\n      add\n      dup1\n      dup4\n      gt\n      tag_65\n      jumpi\n      dup3\n      swap1\n      sub\n      0x1f\n      and\n      dup3\n      add\n      swap2\n    tag_63:\n      pop\n      pop\n      pop\n      pop\n      pop\n      dup2\n      mstore\n      pop\n      pop\n      swap1\n      pop\n        /* \"solidityCourse2/Module1/mappingStruct.sol\":535:626  function show(uint _i) public view returns(Movie memory){... */\n      swap2\n      swap1\n      pop\n      jump\t// out\n        /* \"solidityCourse2/Module1/mappingStruct.sol\":463:529  function remMov(uint _i) public{... */\n    tag_25:\n        /* \"solidityCourse2/Module1/mappingStruct.sol\":512:517  myMap */\n      0x02\n        /* \"solidityCourse2/Module1/mappingStruct.sol\":512:521  myMap[_i] */\n      0x00\n        /* \"solidityCourse2/Module1/mappingStruct.sol\":518:520  _i */\n      dup3\n        /* \"solidityCourse2/Module1/mappingStruct.sol\":512:521  myMap[_i] */\n      dup2\n      mstore\n      0x20\n      add\n      swap1\n      dup2\n      mstore\n      0x20\n      add\n      0x00\n      keccak256\n      0x00\n        /* \"solidityCourse2/Module1/mappingStruct.sol\":505:521  delete myMap[_i] */\n      0x00\n      dup3\n      add\n      0x00\n      tag_67\n      swap2\n      swap1\n      tag_68\n      jump\t// in\n    tag_67:\n      0x01\n      dup3\n      add\n      0x00\n      tag_69\n      swap2\n      swap1\n      tag_68\n      jump\t// in\n    tag_69:\n      pop\n      pop\n        /* \"solidityCourse2/Module1/mappingStruct.sol\":463:529  function remMov(uint _i) public{... */\n      pop\n      jump\t// out\n        /* \"solidityCourse2/Module1/mappingStruct.sol\":218:345  function addMovie(string memory n, string memory t,uint _i) public{... */\n    tag_29:\n        /* \"solidityCourse2/Module1/mappingStruct.sol\":301:311  Movie(n,t) */\n      mload(0x40)\n      dup1\n      0x40\n      add\n      0x40\n      mstore\n      dup1\n        /* \"solidityCourse2/Module1/mappingStruct.sol\":307:308  n */\n      dup5\n        /* \"solidityCourse2/Module1/mappingStruct.sol\":301:311  Movie(n,t) */\n      dup2\n      mstore\n      0x20\n      add\n        /* \"solidityCourse2/Module1/mappingStruct.sol\":309:310  t */\n      dup4\n        /* \"solidityCourse2/Module1/mappingStruct.sol\":301:311  Movie(n,t) */\n      dup2\n      mstore\n      pop\n        /* \"solidityCourse2/Module1/mappingStruct.sol\":295:300  movie */\n      0x00\n        /* \"solidityCourse2/Module1/mappingStruct.sol\":295:311  movie=Movie(n,t) */\n      0x00\n      dup3\n      add\n      mload\n      dup2\n      0x00\n      add\n      swap1\n      dup2\n      tag_71\n      swap2\n      swap1\n      tag_72\n      jump\t// in\n    tag_71:\n      pop\n      0x20\n      dup3\n      add\n      mload\n      dup2\n      0x01\n      add\n      swap1\n      dup2\n      tag_73\n      swap2\n      swap1\n      tag_72\n      jump\t// in\n    tag_73:\n      pop\n      swap1\n      pop\n      pop\n        /* \"solidityCourse2/Module1/mappingStruct.sol\":332:337  movie */\n      0x00\n        /* \"solidityCourse2/Module1/mappingStruct.sol\":322:327  myMap */\n      0x02\n        /* \"solidityCourse2/Module1/mappingStruct.sol\":322:331  myMap[_i] */\n      0x00\n        /* \"solidityCourse2/Module1/mappingStruct.sol\":328:330  _i */\n      dup4\n        /* \"solidityCourse2/Module1/mappingStruct.sol\":322:331  myMap[_i] */\n      dup2\n      mstore\n      0x20\n      add\n      swap1\n      dup2\n      mstore\n      0x20\n      add\n      0x00\n      keccak256\n        /* \"solidityCourse2/Module1/mappingStruct.sol\":322:337  myMap[_i]=movie */\n      0x00\n      dup3\n      add\n      dup2\n      0x00\n      add\n      swap1\n      dup2\n      tag_74\n      swap2\n      swap1\n      tag_75\n      jump\t// in\n    tag_74:\n      pop\n      0x01\n      dup3\n      add\n      dup2\n      0x01\n      add\n      swap1\n      dup2\n      tag_76\n      swap2\n      swap1\n      tag_75\n      jump\t// in\n    tag_76:\n      pop\n      swap1\n      pop\n      pop\n        /* \"solidityCourse2/Module1/mappingStruct.sol\":218:345  function addMovie(string memory n, string memory t,uint _i) public{... */\n      pop\n      pop\n      pop\n      jump\t// out\n    tag_42:\n      mload(0x40)\n      dup1\n      0x40\n      add\n      0x40\n      mstore\n      dup1\n      0x60\n      dup2\n      mstore\n      0x20\n      add\n      0x60\n      dup2\n      mstore\n      pop\n      swap1\n      jump\t// out\n    tag_68:\n      pop\n      dup1\n      sload\n      tag_77\n      swap1\n      tag_31\n      jump\t// in\n    tag_77:\n      0x00\n      dup3\n      sstore\n      dup1\n      0x1f\n      lt\n      tag_79\n      jumpi\n      pop\n      jump(tag_78)\n    tag_79:\n      0x1f\n      add\n      0x20\n      swap1\n      div\n      swap1\n      0x00\n      mstore\n      keccak256(0x00, 0x20)\n      swap1\n      dup2\n      add\n      swap1\n      tag_80\n      swap2\n      swap1\n      tag_81\n      jump\t// in\n    tag_80:\n    tag_78:\n      pop\n      jump\t// out\n    tag_81:\n    tag_82:\n      dup1\n      dup3\n      gt\n      iszero\n      tag_83\n      jumpi\n      0x00\n      dup2\n      0x00\n      swap1\n      sstore\n      pop\n      0x01\n      add\n      jump(tag_82)\n    tag_83:\n      pop\n      swap1\n      jump\t// out\n        /* \"#utility.yul\":7:82   */\n    tag_84:\n        /* \"#utility.yul\":40:46   */\n      0x00\n        /* \"#utility.yul\":73:75   */\n      0x40\n        /* \"#utility.yul\":67:76   */\n      mload\n        /* \"#utility.yul\":57:76   */\n      swap1\n      pop\n        /* \"#utility.yul\":7:82   */\n      swap1\n      jump\t// out\n        /* \"#utility.yul\":88:205   */\n    tag_85:\n        /* \"#utility.yul\":197:198   */\n      0x00\n        /* \"#utility.yul\":194:195   */\n      0x00\n        /* \"#utility.yul\":187:199   */\n      revert\n        /* \"#utility.yul\":211:328   */\n    tag_86:\n        /* \"#utility.yul\":320:321   */\n      0x00\n        /* \"#utility.yul\":317:318   */\n      0x00\n        /* \"#utility.yul\":310:322   */\n      revert\n        /* \"#utility.yul\":334:411   */\n    tag_87:\n        /* \"#utility.yul\":371:378   */\n      0x00\n        /* \"#utility.yul\":400:405   */\n      dup2\n        /* \"#utility.yul\":389:405   */\n      swap1\n      pop\n        /* \"#utility.yul\":334:411   */\n      swap2\n      swap1\n      pop\n      jump\t// out\n        /* \"#utility.yul\":417:539   */\n    tag_88:\n        /* \"#utility.yul\":490:514   */\n      tag_130\n        /* \"#utility.yul\":508:513   */\n      dup2\n        /* \"#utility.yul\":490:514   */\n      tag_87\n      jump\t// in\n    tag_130:\n        /* \"#utility.yul\":483:488   */\n      dup2\n        /* \"#utility.yul\":480:515   */\n      eq\n        /* \"#utility.yul\":470:533   */\n      tag_131\n      jumpi\n        /* \"#utility.yul\":529:530   */\n      0x00\n        /* \"#utility.yul\":526:527   */\n      0x00\n        /* \"#utility.yul\":519:531   */\n      revert\n        /* \"#utility.yul\":470:533   */\n    tag_131:\n        /* \"#utility.yul\":417:539   */\n      pop\n      jump\t// out\n        /* \"#utility.yul\":545:684   */\n    tag_89:\n        /* \"#utility.yul\":591:596   */\n      0x00\n        /* \"#utility.yul\":629:635   */\n      dup2\n        /* \"#utility.yul\":616:636   */\n      calldataload\n        /* \"#utility.yul\":607:636   */\n      swap1\n      pop\n        /* \"#utility.yul\":645:678   */\n      tag_133\n        /* \"#utility.yul\":672:677   */\n      dup2\n        /* \"#utility.yul\":645:678   */\n      tag_88\n      jump\t// in\n    tag_133:\n        /* \"#utility.yul\":545:684   */\n      swap3\n      swap2\n      pop\n      pop\n      jump\t// out\n        /* \"#utility.yul\":690:1019   */\n    tag_10:\n        /* \"#utility.yul\":749:755   */\n      0x00\n        /* \"#utility.yul\":798:800   */\n      0x20\n        /* \"#utility.yul\":786:795   */\n      dup3\n        /* \"#utility.yul\":777:784   */\n      dup5\n        /* \"#utility.yul\":773:796   */\n      sub\n        /* \"#utility.yul\":769:801   */\n      slt\n        /* \"#utility.yul\":766:885   */\n      iszero\n      tag_135\n      jumpi\n        /* \"#utility.yul\":804:883   */\n      tag_136\n      tag_85\n      jump\t// in\n    tag_136:\n        /* \"#utility.yul\":766:885   */\n    tag_135:\n        /* \"#utility.yul\":924:925   */\n      0x00\n        /* \"#utility.yul\":949:1002   */\n      tag_137\n        /* \"#utility.yul\":994:1001   */\n      dup5\n        /* \"#utility.yul\":985:991   */\n      dup3\n        /* \"#utility.yul\":974:983   */\n      dup6\n        /* \"#utility.yul\":970:992   */\n      add\n        /* \"#utility.yul\":949:1002   */\n      tag_89\n      jump\t// in\n    tag_137:\n        /* \"#utility.yul\":939:1002   */\n      swap2\n      pop\n        /* \"#utility.yul\":895:1012   */\n      pop\n        /* \"#utility.yul\":690:1019   */\n      swap3\n      swap2\n      pop\n      pop\n      jump\t// out\n        /* \"#utility.yul\":1025:1124   */\n    tag_90:\n        /* \"#utility.yul\":1077:1083   */\n      0x00\n        /* \"#utility.yul\":1111:1116   */\n      dup2\n        /* \"#utility.yul\":1105:1117   */\n      mload\n        /* \"#utility.yul\":1095:1117   */\n      swap1\n      pop\n        /* \"#utility.yul\":1025:1124   */\n      swap2\n      swap1\n      pop\n      jump\t// out\n        /* \"#utility.yul\":1130:1299   */\n    tag_91:\n        /* \"#utility.yul\":1214:1225   */\n      0x00\n        /* \"#utility.yul\":1248:1254   */\n      dup3\n        /* \"#utility.yul\":1243:1246   */\n      dup3\n        /* \"#utility.yul\":1236:1255   */\n      mstore\n        /* \"#utility.yul\":1288:1292   */\n      0x20\n        /* \"#utility.yul\":1283:1286   */\n      dup3\n        /* \"#utility.yul\":1279:1293   */\n      add\n        /* \"#utility.yul\":1264:1293   */\n      swap1\n      pop\n        /* \"#utility.yul\":1130:1299   */\n      swap3\n      swap2\n      pop\n      pop\n      jump\t// out\n        /* \"#utility.yul\":1305:1444   */\n    tag_92:\n        /* \"#utility.yul\":1394:1400   */\n      dup3\n        /* \"#utility.yul\":1389:1392   */\n      dup2\n        /* \"#utility.yul\":1384:1387   */\n      dup4\n        /* \"#utility.yul\":1378:1401   */\n      mcopy\n        /* \"#utility.yul\":1435:1436   */\n      0x00\n        /* \"#utility.yul\":1426:1432   */\n      dup4\n        /* \"#utility.yul\":1421:1424   */\n      dup4\n        /* \"#utility.yul\":1417:1433   */\n      add\n        /* \"#utility.yul\":1410:1437   */\n      mstore\n        /* \"#utility.yul\":1305:1444   */\n      pop\n      pop\n      pop\n      jump\t// out\n        /* \"#utility.yul\":1450:1552   */\n    tag_93:\n        /* \"#utility.yul\":1491:1497   */\n      0x00\n        /* \"#utility.yul\":1542:1544   */\n      0x1f\n        /* \"#utility.yul\":1538:1545   */\n      not\n        /* \"#utility.yul\":1533:1535   */\n      0x1f\n        /* \"#utility.yul\":1526:1531   */\n      dup4\n        /* \"#utility.yul\":1522:1536   */\n      add\n        /* \"#utility.yul\":1518:1546   */\n      and\n        /* \"#utility.yul\":1508:1546   */\n      swap1\n      pop\n        /* \"#utility.yul\":1450:1552   */\n      swap2\n      swap1\n      pop\n      jump\t// out\n        /* \"#utility.yul\":1558:1935   */\n    tag_94:\n        /* \"#utility.yul\":1646:1649   */\n      0x00\n        /* \"#utility.yul\":1674:1713   */\n      tag_143\n        /* \"#utility.yul\":1707:1712   */\n      dup3\n        /* \"#utility.yul\":1674:1713   */\n      tag_90\n      jump\t// in\n    tag_143:\n        /* \"#utility.yul\":1729:1800   */\n      tag_144\n        /* \"#utility.yul\":1793:1799   */\n      dup2\n        /* \"#utility.yul\":1788:1791   */\n      dup6\n        /* \"#utility.yul\":1729:1800   */\n      tag_91\n      jump\t// in\n    tag_144:\n        /* \"#utility.yul\":1722:1800   */\n      swap4\n      pop\n        /* \"#utility.yul\":1809:1874   */\n      tag_145\n        /* \"#utility.yul\":1867:1873   */\n      dup2\n        /* \"#utility.yul\":1862:1865   */\n      dup6\n        /* \"#utility.yul\":1855:1859   */\n      0x20\n        /* \"#utility.yul\":1848:1853   */\n      dup7\n        /* \"#utility.yul\":1844:1860   */\n      add\n        /* \"#utility.yul\":1809:1874   */\n      tag_92\n      jump\t// in\n    tag_145:\n        /* \"#utility.yul\":1899:1928   */\n      tag_146\n        /* \"#utility.yul\":1921:1927   */\n      dup2\n        /* \"#utility.yul\":1899:1928   */\n      tag_93\n      jump\t// in\n    tag_146:\n        /* \"#utility.yul\":1894:1897   */\n      dup5\n        /* \"#utility.yul\":1890:1929   */\n      add\n        /* \"#utility.yul\":1883:1929   */\n      swap2\n      pop\n        /* \"#utility.yul\":1650:1935   */\n      pop\n        /* \"#utility.yul\":1558:1935   */\n      swap3\n      swap2\n      pop\n      pop\n      jump\t// out\n        /* \"#utility.yul\":1941:2455   */\n    tag_13:\n        /* \"#utility.yul\":2102:2106   */\n      0x00\n        /* \"#utility.yul\":2140:2142   */\n      0x40\n        /* \"#utility.yul\":2129:2138   */\n      dup3\n        /* \"#utility.yul\":2125:2143   */\n      add\n        /* \"#utility.yul\":2117:2143   */\n      swap1\n      pop\n        /* \"#utility.yul\":2189:2198   */\n      dup2\n        /* \"#utility.yul\":2183:2187   */\n      dup2\n        /* \"#utility.yul\":2179:2199   */\n      sub\n        /* \"#utility.yul\":2175:2176   */\n      0x00\n        /* \"#utility.yul\":2164:2173   */\n      dup4\n        /* \"#utility.yul\":2160:2177   */\n      add\n        /* \"#utility.yul\":2153:2200   */\n      mstore\n        /* \"#utility.yul\":2217:2295   */\n      tag_148\n        /* \"#utility.yul\":2290:2294   */\n      dup2\n        /* \"#utility.yul\":2281:2287   */\n      dup6\n        /* \"#utility.yul\":2217:2295   */\n      tag_94\n      jump\t// in\n    tag_148:\n        /* \"#utility.yul\":2209:2295   */\n      swap1\n      pop\n        /* \"#utility.yul\":2342:2351   */\n      dup2\n        /* \"#utility.yul\":2336:2340   */\n      dup2\n        /* \"#utility.yul\":2332:2352   */\n      sub\n        /* \"#utility.yul\":2327:2329   */\n      0x20\n        /* \"#utility.yul\":2316:2325   */\n      dup4\n        /* \"#utility.yul\":2312:2330   */\n      add\n        /* \"#utility.yul\":2305:2353   */\n      mstore\n        /* \"#utility.yul\":2370:2448   */\n      tag_149\n        /* \"#utility.yul\":2443:2447   */\n      dup2\n        /* \"#utility.yul\":2434:2440   */\n      dup5\n        /* \"#utility.yul\":2370:2448   */\n      tag_94\n      jump\t// in\n    tag_149:\n        /* \"#utility.yul\":2362:2448   */\n      swap1\n      pop\n        /* \"#utility.yul\":1941:2455   */\n      swap4\n      swap3\n      pop\n      pop\n      pop\n      jump\t// out\n        /* \"#utility.yul\":2461:2620   */\n    tag_95:\n        /* \"#utility.yul\":2535:2546   */\n      0x00\n        /* \"#utility.yul\":2569:2575   */\n      dup3\n        /* \"#utility.yul\":2564:2567   */\n      dup3\n        /* \"#utility.yul\":2557:2576   */\n      mstore\n        /* \"#utility.yul\":2609:2613   */\n      0x20\n        /* \"#utility.yul\":2604:2607   */\n      dup3\n        /* \"#utility.yul\":2600:2614   */\n      add\n        /* \"#utility.yul\":2585:2614   */\n      swap1\n      pop\n        /* \"#utility.yul\":2461:2620   */\n      swap3\n      swap2\n      pop\n      pop\n      jump\t// out\n        /* \"#utility.yul\":2626:2983   */\n    tag_96:\n        /* \"#utility.yul\":2704:2707   */\n      0x00\n        /* \"#utility.yul\":2732:2771   */\n      tag_152\n        /* \"#utility.yul\":2765:2770   */\n      dup3\n        /* \"#utility.yul\":2732:2771   */\n      tag_90\n      jump\t// in\n    tag_152:\n        /* \"#utility.yul\":2787:2848   */\n      tag_153\n        /* \"#utility.yul\":2841:2847   */\n      dup2\n        /* \"#utility.yul\":2836:2839   */\n      dup6\n        /* \"#utility.yul\":2787:2848   */\n      tag_95\n      jump\t// in\n    tag_153:\n        /* \"#utility.yul\":2780:2848   */\n      swap4\n      pop\n        /* \"#utility.yul\":2857:2922   */\n      tag_154\n        /* \"#utility.yul\":2915:2921   */\n      dup2\n        /* \"#utility.yul\":2910:2913   */\n      dup6\n        /* \"#utility.yul\":2903:2907   */\n      0x20\n        /* \"#utility.yul\":2896:2901   */\n      dup7\n        /* \"#utility.yul\":2892:2908   */\n      add\n        /* \"#utility.yul\":2857:2922   */\n      tag_92\n      jump\t// in\n    tag_154:\n        /* \"#utility.yul\":2947:2976   */\n      tag_155\n        /* \"#utility.yul\":2969:2975   */\n      dup2\n        /* \"#utility.yul\":2947:2976   */\n      tag_93\n      jump\t// in\n    tag_155:\n        /* \"#utility.yul\":2942:2945   */\n      dup5\n        /* \"#utility.yul\":2938:2977   */\n      add\n        /* \"#utility.yul\":2931:2977   */\n      swap2\n      pop\n        /* \"#utility.yul\":2708:2983   */\n      pop\n        /* \"#utility.yul\":2626:2983   */\n      swap3\n      swap2\n      pop\n      pop\n      jump\t// out\n        /* \"#utility.yul\":3041:3712   */\n    tag_97:\n        /* \"#utility.yul\":3150:3153   */\n      0x00\n        /* \"#utility.yul\":3186:3190   */\n      0x40\n        /* \"#utility.yul\":3181:3184   */\n      dup4\n        /* \"#utility.yul\":3177:3191   */\n      add\n        /* \"#utility.yul\":3273:3277   */\n      0x00\n        /* \"#utility.yul\":3266:3271   */\n      dup4\n        /* \"#utility.yul\":3262:3278   */\n      add\n        /* \"#utility.yul\":3256:3279   */\n      mload\n        /* \"#utility.yul\":3326:3329   */\n      dup5\n        /* \"#utility.yul\":3320:3324   */\n      dup3\n        /* \"#utility.yul\":3316:3330   */\n      sub\n        /* \"#utility.yul\":3309:3313   */\n      0x00\n        /* \"#utility.yul\":3304:3307   */\n      dup7\n        /* \"#utility.yul\":3300:3314   */\n      add\n        /* \"#utility.yul\":3293:3331   */\n      mstore\n        /* \"#utility.yul\":3352:3425   */\n      tag_157\n        /* \"#utility.yul\":3420:3424   */\n      dup3\n        /* \"#utility.yul\":3406:3418   */\n      dup3\n        /* \"#utility.yul\":3352:3425   */\n      tag_96\n      jump\t// in\n    tag_157:\n        /* \"#utility.yul\":3344:3425   */\n      swap2\n      pop\n        /* \"#utility.yul\":3201:3436   */\n      pop\n        /* \"#utility.yul\":3522:3526   */\n      0x20\n        /* \"#utility.yul\":3515:3520   */\n      dup4\n        /* \"#utility.yul\":3511:3527   */\n      add\n        /* \"#utility.yul\":3505:3528   */\n      mload\n        /* \"#utility.yul\":3575:3578   */\n      dup5\n        /* \"#utility.yul\":3569:3573   */\n      dup3\n        /* \"#utility.yul\":3565:3579   */\n      sub\n        /* \"#utility.yul\":3558:3562   */\n      0x20\n        /* \"#utility.yul\":3553:3556   */\n      dup7\n        /* \"#utility.yul\":3549:3563   */\n      add\n        /* \"#utility.yul\":3542:3580   */\n      mstore\n        /* \"#utility.yul\":3601:3674   */\n      tag_158\n        /* \"#utility.yul\":3669:3673   */\n      dup3\n        /* \"#utility.yul\":3655:3667   */\n      dup3\n        /* \"#utility.yul\":3601:3674   */\n      tag_96\n      jump\t// in\n    tag_158:\n        /* \"#utility.yul\":3593:3674   */\n      swap2\n      pop\n        /* \"#utility.yul\":3446:3685   */\n      pop\n        /* \"#utility.yul\":3702:3706   */\n      dup1\n        /* \"#utility.yul\":3695:3706   */\n      swap2\n      pop\n        /* \"#utility.yul\":3155:3712   */\n      pop\n        /* \"#utility.yul\":3041:3712   */\n      swap3\n      swap2\n      pop\n      pop\n      jump\t// out\n        /* \"#utility.yul\":3718:4071   */\n    tag_18:\n        /* \"#utility.yul\":3851:3855   */\n      0x00\n        /* \"#utility.yul\":3889:3891   */\n      0x20\n        /* \"#utility.yul\":3878:3887   */\n      dup3\n        /* \"#utility.yul\":3874:3892   */\n      add\n        /* \"#utility.yul\":3866:3892   */\n      swap1\n      pop\n        /* \"#utility.yul\":3938:3947   */\n      dup2\n        /* \"#utility.yul\":3932:3936   */\n      dup2\n        /* \"#utility.yul\":3928:3948   */\n      sub\n        /* \"#utility.yul\":3924:3925   */\n      0x00\n        /* \"#utility.yul\":3913:3922   */\n      dup4\n        /* \"#utility.yul\":3909:3926   */\n      add\n        /* \"#utility.yul\":3902:3949   */\n      mstore\n        /* \"#utility.yul\":3966:4064   */\n      tag_160\n        /* \"#utility.yul\":4059:4063   */\n      dup2\n        /* \"#utility.yul\":4050:4056   */\n      dup5\n        /* \"#utility.yul\":3966:4064   */\n      tag_97\n      jump\t// in\n    tag_160:\n        /* \"#utility.yul\":3958:4064   */\n      swap1\n      pop\n        /* \"#utility.yul\":3718:4071   */\n      swap3\n      swap2\n      pop\n      pop\n      jump\t// out\n        /* \"#utility.yul\":4077:4194   */\n    tag_98:\n        /* \"#utility.yul\":4186:4187   */\n      0x00\n        /* \"#utility.yul\":4183:4184   */\n      0x00\n        /* \"#utility.yul\":4176:4188   */\n      revert\n        /* \"#utility.yul\":4200:4317   */\n    tag_99:\n        /* \"#utility.yul\":4309:4310   */\n      0x00\n        /* \"#utility.yul\":4306:4307   */\n      0x00\n        /* \"#utility.yul\":4299:4311   */\n      revert\n        /* \"#utility.yul\":4323:4503   */\n    tag_100:\n        /* \"#utility.yul\":4371:4448   */\n      0x4e487b7100000000000000000000000000000000000000000000000000000000\n        /* \"#utility.yul\":4368:4369   */\n      0x00\n        /* \"#utility.yul\":4361:4449   */\n      mstore\n        /* \"#utility.yul\":4468:4472   */\n      0x41\n        /* \"#utility.yul\":4465:4466   */\n      0x04\n        /* \"#utility.yul\":4458:4473   */\n      mstore\n        /* \"#utility.yul\":4492:4496   */\n      0x24\n        /* \"#utility.yul\":4489:4490   */\n      0x00\n        /* \"#utility.yul\":4482:4497   */\n      revert\n        /* \"#utility.yul\":4509:4790   */\n    tag_101:\n        /* \"#utility.yul\":4592:4619   */\n      tag_165\n        /* \"#utility.yul\":4614:4618   */\n      dup3\n        /* \"#utility.yul\":4592:4619   */\n      tag_93\n      jump\t// in\n    tag_165:\n        /* \"#utility.yul\":4584:4590   */\n      dup2\n        /* \"#utility.yul\":4580:4620   */\n      add\n        /* \"#utility.yul\":4722:4728   */\n      dup2\n        /* \"#utility.yul\":4710:4720   */\n      dup2\n        /* \"#utility.yul\":4707:4729   */\n      lt\n        /* \"#utility.yul\":4686:4704   */\n      0xffffffffffffffff\n        /* \"#utility.yul\":4674:4684   */\n      dup3\n        /* \"#utility.yul\":4671:4705   */\n      gt\n        /* \"#utility.yul\":4668:4730   */\n      or\n        /* \"#utility.yul\":4665:4753   */\n      iszero\n      tag_166\n      jumpi\n        /* \"#utility.yul\":4733:4751   */\n      tag_167\n      tag_100\n      jump\t// in\n    tag_167:\n        /* \"#utility.yul\":4665:4753   */\n    tag_166:\n        /* \"#utility.yul\":4773:4783   */\n      dup1\n        /* \"#utility.yul\":4769:4771   */\n      0x40\n        /* \"#utility.yul\":4762:4784   */\n      mstore\n        /* \"#utility.yul\":4552:4790   */\n      pop\n        /* \"#utility.yul\":4509:4790   */\n      pop\n      pop\n      jump\t// out\n        /* \"#utility.yul\":4796:4925   */\n    tag_102:\n        /* \"#utility.yul\":4830:4836   */\n      0x00\n        /* \"#utility.yul\":4857:4877   */\n      tag_169\n      tag_84\n      jump\t// in\n    tag_169:\n        /* \"#utility.yul\":4847:4877   */\n      swap1\n      pop\n        /* \"#utility.yul\":4886:4919   */\n      tag_170\n        /* \"#utility.yul\":4914:4918   */\n      dup3\n        /* \"#utility.yul\":4906:4912   */\n      dup3\n        /* \"#utility.yul\":4886:4919   */\n      tag_101\n      jump\t// in\n    tag_170:\n        /* \"#utility.yul\":4796:4925   */\n      swap2\n      swap1\n      pop\n      jump\t// out\n        /* \"#utility.yul\":4931:5239   */\n    tag_103:\n        /* \"#utility.yul\":4993:4997   */\n      0x00\n        /* \"#utility.yul\":5083:5101   */\n      0xffffffffffffffff\n        /* \"#utility.yul\":5075:5081   */\n      dup3\n        /* \"#utility.yul\":5072:5102   */\n      gt\n        /* \"#utility.yul\":5069:5125   */\n      iszero\n      tag_172\n      jumpi\n        /* \"#utility.yul\":5105:5123   */\n      tag_173\n      tag_100\n      jump\t// in\n    tag_173:\n        /* \"#utility.yul\":5069:5125   */\n    tag_172:\n        /* \"#utility.yul\":5143:5172   */\n      tag_174\n        /* \"#utility.yul\":5165:5171   */\n      dup3\n        /* \"#utility.yul\":5143:5172   */\n      tag_93\n      jump\t// in\n    tag_174:\n        /* \"#utility.yul\":5135:5172   */\n      swap1\n      pop\n        /* \"#utility.yul\":5227:5231   */\n      0x20\n        /* \"#utility.yul\":5221:5225   */\n      dup2\n        /* \"#utility.yul\":5217:5232   */\n      add\n        /* \"#utility.yul\":5209:5232   */\n      swap1\n      pop\n        /* \"#utility.yul\":4931:5239   */\n      swap2\n      swap1\n      pop\n      jump\t// out\n        /* \"#utility.yul\":5245:5393   */\n    tag_104:\n        /* \"#utility.yul\":5343:5349   */\n      dup3\n        /* \"#utility.yul\":5338:5341   */\n      dup2\n        /* \"#utility.yul\":5333:5336   */\n      dup4\n        /* \"#utility.yul\":5320:5350   */\n      calldatacopy\n        /* \"#utility.yul\":5384:5385   */\n      0x00\n        /* \"#utility.yul\":5375:5381   */\n      dup4\n        /* \"#utility.yul\":5370:5373   */\n      dup4\n        /* \"#utility.yul\":5366:5382   */\n      add\n        /* \"#utility.yul\":5359:5386   */\n      mstore\n        /* \"#utility.yul\":5245:5393   */\n      pop\n      pop\n      pop\n      jump\t// out\n        /* \"#utility.yul\":5399:5824   */\n    tag_105:\n        /* \"#utility.yul\":5477:5482   */\n      0x00\n        /* \"#utility.yul\":5502:5568   */\n      tag_177\n        /* \"#utility.yul\":5518:5567   */\n      tag_178\n        /* \"#utility.yul\":5560:5566   */\n      dup5\n        /* \"#utility.yul\":5518:5567   */\n      tag_103\n      jump\t// in\n    tag_178:\n        /* \"#utility.yul\":5502:5568   */\n      tag_102\n      jump\t// in\n    tag_177:\n        /* \"#utility.yul\":5493:5568   */\n      swap1\n      pop\n        /* \"#utility.yul\":5591:5597   */\n      dup3\n        /* \"#utility.yul\":5584:5589   */\n      dup2\n        /* \"#utility.yul\":5577:5598   */\n      mstore\n        /* \"#utility.yul\":5629:5633   */\n      0x20\n        /* \"#utility.yul\":5622:5627   */\n      dup2\n        /* \"#utility.yul\":5618:5634   */\n      add\n        /* \"#utility.yul\":5667:5670   */\n      dup5\n        /* \"#utility.yul\":5658:5664   */\n      dup5\n        /* \"#utility.yul\":5653:5656   */\n      dup5\n        /* \"#utility.yul\":5649:5665   */\n      add\n        /* \"#utility.yul\":5646:5671   */\n      gt\n        /* \"#utility.yul\":5643:5755   */\n      iszero\n      tag_179\n      jumpi\n        /* \"#utility.yul\":5674:5753   */\n      tag_180\n      tag_99\n      jump\t// in\n    tag_180:\n        /* \"#utility.yul\":5643:5755   */\n    tag_179:\n        /* \"#utility.yul\":5764:5818   */\n      tag_181\n        /* \"#utility.yul\":5811:5817   */\n      dup5\n        /* \"#utility.yul\":5806:5809   */\n      dup3\n        /* \"#utility.yul\":5801:5804   */\n      dup6\n        /* \"#utility.yul\":5764:5818   */\n      tag_104\n      jump\t// in\n    tag_181:\n        /* \"#utility.yul\":5483:5824   */\n      pop\n        /* \"#utility.yul\":5399:5824   */\n      swap4\n      swap3\n      pop\n      pop\n      pop\n      jump\t// out\n        /* \"#utility.yul\":5844:6184   */\n    tag_106:\n        /* \"#utility.yul\":5900:5905   */\n      0x00\n        /* \"#utility.yul\":5949:5952   */\n      dup3\n        /* \"#utility.yul\":5942:5946   */\n      0x1f\n        /* \"#utility.yul\":5934:5940   */\n      dup4\n        /* \"#utility.yul\":5930:5947   */\n      add\n        /* \"#utility.yul\":5926:5953   */\n      slt\n        /* \"#utility.yul\":5916:6038   */\n      tag_183\n      jumpi\n        /* \"#utility.yul\":5957:6036   */\n      tag_184\n      tag_98\n      jump\t// in\n    tag_184:\n        /* \"#utility.yul\":5916:6038   */\n    tag_183:\n        /* \"#utility.yul\":6074:6080   */\n      dup2\n        /* \"#utility.yul\":6061:6081   */\n      calldataload\n        /* \"#utility.yul\":6099:6178   */\n      tag_185\n        /* \"#utility.yul\":6174:6177   */\n      dup5\n        /* \"#utility.yul\":6166:6172   */\n      dup3\n        /* \"#utility.yul\":6159:6163   */\n      0x20\n        /* \"#utility.yul\":6151:6157   */\n      dup7\n        /* \"#utility.yul\":6147:6164   */\n      add\n        /* \"#utility.yul\":6099:6178   */\n      tag_105\n      jump\t// in\n    tag_185:\n        /* \"#utility.yul\":6090:6178   */\n      swap2\n      pop\n        /* \"#utility.yul\":5906:6184   */\n      pop\n        /* \"#utility.yul\":5844:6184   */\n      swap3\n      swap2\n      pop\n      pop\n      jump\t// out\n        /* \"#utility.yul\":6190:7169   */\n    tag_28:\n        /* \"#utility.yul\":6287:6293   */\n      0x00\n        /* \"#utility.yul\":6295:6301   */\n      0x00\n        /* \"#utility.yul\":6303:6309   */\n      0x00\n        /* \"#utility.yul\":6352:6354   */\n      0x60\n        /* \"#utility.yul\":6340:6349   */\n      dup5\n        /* \"#utility.yul\":6331:6338   */\n      dup7\n        /* \"#utility.yul\":6327:6350   */\n      sub\n        /* \"#utility.yul\":6323:6355   */\n      slt\n        /* \"#utility.yul\":6320:6439   */\n      iszero\n      tag_187\n      jumpi\n        /* \"#utility.yul\":6358:6437   */\n      tag_188\n      tag_85\n      jump\t// in\n    tag_188:\n        /* \"#utility.yul\":6320:6439   */\n    tag_187:\n        /* \"#utility.yul\":6506:6507   */\n      0x00\n        /* \"#utility.yul\":6495:6504   */\n      dup5\n        /* \"#utility.yul\":6491:6508   */\n      add\n        /* \"#utility.yul\":6478:6509   */\n      calldataload\n        /* \"#utility.yul\":6536:6554   */\n      0xffffffffffffffff\n        /* \"#utility.yul\":6528:6534   */\n      dup2\n        /* \"#utility.yul\":6525:6555   */\n      gt\n        /* \"#utility.yul\":6522:6639   */\n      iszero\n      tag_189\n      jumpi\n        /* \"#utility.yul\":6558:6637   */\n      tag_190\n      tag_86\n      jump\t// in\n    tag_190:\n        /* \"#utility.yul\":6522:6639   */\n    tag_189:\n        /* \"#utility.yul\":6663:6726   */\n      tag_191\n        /* \"#utility.yul\":6718:6725   */\n      dup7\n        /* \"#utility.yul\":6709:6715   */\n      dup3\n        /* \"#utility.yul\":6698:6707   */\n      dup8\n        /* \"#utility.yul\":6694:6716   */\n      add\n        /* \"#utility.yul\":6663:6726   */\n      tag_106\n      jump\t// in\n    tag_191:\n        /* \"#utility.yul\":6653:6726   */\n      swap4\n      pop\n        /* \"#utility.yul\":6449:6736   */\n      pop\n        /* \"#utility.yul\":6803:6805   */\n      0x20\n        /* \"#utility.yul\":6792:6801   */\n      dup5\n        /* \"#utility.yul\":6788:6806   */\n      add\n        /* \"#utility.yul\":6775:6807   */\n      calldataload\n        /* \"#utility.yul\":6834:6852   */\n      0xffffffffffffffff\n        /* \"#utility.yul\":6826:6832   */\n      dup2\n        /* \"#utility.yul\":6823:6853   */\n      gt\n        /* \"#utility.yul\":6820:6937   */\n      iszero\n      tag_192\n      jumpi\n        /* \"#utility.yul\":6856:6935   */\n      tag_193\n      tag_86\n      jump\t// in\n    tag_193:\n        /* \"#utility.yul\":6820:6937   */\n    tag_192:\n        /* \"#utility.yul\":6961:7024   */\n      tag_194\n        /* \"#utility.yul\":7016:7023   */\n      dup7\n        /* \"#utility.yul\":7007:7013   */\n      dup3\n        /* \"#utility.yul\":6996:7005   */\n      dup8\n        /* \"#utility.yul\":6992:7014   */\n      add\n        /* \"#utility.yul\":6961:7024   */\n      tag_106\n      jump\t// in\n    tag_194:\n        /* \"#utility.yul\":6951:7024   */\n      swap3\n      pop\n        /* \"#utility.yul\":6746:7034   */\n      pop\n        /* \"#utility.yul\":7073:7075   */\n      0x40\n        /* \"#utility.yul\":7099:7152   */\n      tag_195\n        /* \"#utility.yul\":7144:7151   */\n      dup7\n        /* \"#utility.yul\":7135:7141   */\n      dup3\n        /* \"#utility.yul\":7124:7133   */\n      dup8\n        /* \"#utility.yul\":7120:7142   */\n      add\n        /* \"#utility.yul\":7099:7152   */\n      tag_89\n      jump\t// in\n    tag_195:\n        /* \"#utility.yul\":7089:7152   */\n      swap2\n      pop\n        /* \"#utility.yul\":7044:7162   */\n      pop\n        /* \"#utility.yul\":6190:7169   */\n      swap3\n      pop\n      swap3\n      pop\n      swap3\n      jump\t// out\n        /* \"#utility.yul\":7175:7355   */\n    tag_107:\n        /* \"#utility.yul\":7223:7300   */\n      0x4e487b7100000000000000000000000000000000000000000000000000000000\n        /* \"#utility.yul\":7220:7221   */\n      0x00\n        /* \"#utility.yul\":7213:7301   */\n      mstore\n        /* \"#utility.yul\":7320:7324   */\n      0x22\n        /* \"#utility.yul\":7317:7318   */\n      0x04\n        /* \"#utility.yul\":7310:7325   */\n      mstore\n        /* \"#utility.yul\":7344:7348   */\n      0x24\n        /* \"#utility.yul\":7341:7342   */\n      0x00\n        /* \"#utility.yul\":7334:7349   */\n      revert\n        /* \"#utility.yul\":7361:7681   */\n    tag_31:\n        /* \"#utility.yul\":7405:7411   */\n      0x00\n        /* \"#utility.yul\":7442:7443   */\n      0x02\n        /* \"#utility.yul\":7436:7440   */\n      dup3\n        /* \"#utility.yul\":7432:7444   */\n      div\n        /* \"#utility.yul\":7422:7444   */\n      swap1\n      pop\n        /* \"#utility.yul\":7489:7490   */\n      0x01\n        /* \"#utility.yul\":7483:7487   */\n      dup3\n        /* \"#utility.yul\":7479:7491   */\n      and\n        /* \"#utility.yul\":7510:7528   */\n      dup1\n        /* \"#utility.yul\":7500:7581   */\n      tag_198\n      jumpi\n        /* \"#utility.yul\":7566:7570   */\n      0x7f\n        /* \"#utility.yul\":7558:7564   */\n      dup3\n        /* \"#utility.yul\":7554:7571   */\n      and\n        /* \"#utility.yul\":7544:7571   */\n      swap2\n      pop\n        /* \"#utility.yul\":7500:7581   */\n    tag_198:\n        /* \"#utility.yul\":7628:7630   */\n      0x20\n        /* \"#utility.yul\":7620:7626   */\n      dup3\n        /* \"#utility.yul\":7617:7631   */\n      lt\n        /* \"#utility.yul\":7597:7615   */\n      dup2\n        /* \"#utility.yul\":7594:7632   */\n      sub\n        /* \"#utility.yul\":7591:7675   */\n      tag_199\n      jumpi\n        /* \"#utility.yul\":7647:7665   */\n      tag_200\n      tag_107\n      jump\t// in\n    tag_200:\n        /* \"#utility.yul\":7591:7675   */\n    tag_199:\n        /* \"#utility.yul\":7412:7681   */\n      pop\n        /* \"#utility.yul\":7361:7681   */\n      swap2\n      swap1\n      pop\n      jump\t// out\n        /* \"#utility.yul\":7687:7828   */\n    tag_108:\n        /* \"#utility.yul\":7736:7740   */\n      0x00\n        /* \"#utility.yul\":7759:7762   */\n      dup2\n        /* \"#utility.yul\":7751:7762   */\n      swap1\n      pop\n        /* \"#utility.yul\":7782:7785   */\n      dup2\n        /* \"#utility.yul\":7779:7780   */\n      0x00\n        /* \"#utility.yul\":7772:7786   */\n      mstore\n        /* \"#utility.yul\":7816:7820   */\n      0x20\n        /* \"#utility.yul\":7813:7814   */\n      0x00\n        /* \"#utility.yul\":7803:7821   */\n      keccak256\n        /* \"#utility.yul\":7795:7821   */\n      swap1\n      pop\n        /* \"#utility.yul\":7687:7828   */\n      swap2\n      swap1\n      pop\n      jump\t// out\n        /* \"#utility.yul\":7834:7927   */\n    tag_109:\n        /* \"#utility.yul\":7871:7877   */\n      0x00\n        /* \"#utility.yul\":7918:7920   */\n      0x20\n        /* \"#utility.yul\":7913:7915   */\n      0x1f\n        /* \"#utility.yul\":7906:7911   */\n      dup4\n        /* \"#utility.yul\":7902:7916   */\n      add\n        /* \"#utility.yul\":7898:7921   */\n      div\n        /* \"#utility.yul\":7888:7921   */\n      swap1\n      pop\n        /* \"#utility.yul\":7834:7927   */\n      swap2\n      swap1\n      pop\n      jump\t// out\n        /* \"#utility.yul\":7933:8040   */\n    tag_110:\n        /* \"#utility.yul\":7977:7985   */\n      0x00\n        /* \"#utility.yul\":8027:8032   */\n      dup3\n        /* \"#utility.yul\":8021:8025   */\n      dup3\n        /* \"#utility.yul\":8017:8033   */\n      shl\n        /* \"#utility.yul\":7996:8033   */\n      swap1\n      pop\n        /* \"#utility.yul\":7933:8040   */\n      swap3\n      swap2\n      pop\n      pop\n      jump\t// out\n        /* \"#utility.yul\":8046:8439   */\n    tag_111:\n        /* \"#utility.yul\":8115:8121   */\n      0x00\n        /* \"#utility.yul\":8165:8166   */\n      0x08\n        /* \"#utility.yul\":8153:8163   */\n      dup4\n        /* \"#utility.yul\":8149:8167   */\n      mul\n        /* \"#utility.yul\":8188:8285   */\n      tag_205\n        /* \"#utility.yul\":8218:8284   */\n      0xffffffffffffffffffffffffffffffffffffffffffffffffffffffffffffffff\n        /* \"#utility.yul\":8207:8216   */\n      dup3\n        /* \"#utility.yul\":8188:8285   */\n      tag_110\n      jump\t// in\n    tag_205:\n        /* \"#utility.yul\":8306:8345   */\n      tag_206\n        /* \"#utility.yul\":8336:8344   */\n      dup7\n        /* \"#utility.yul\":8325:8334   */\n      dup4\n        /* \"#utility.yul\":8306:8345   */\n      tag_110\n      jump\t// in\n    tag_206:\n        /* \"#utility.yul\":8294:8345   */\n      swap6\n      pop\n        /* \"#utility.yul\":8378:8382   */\n      dup1\n        /* \"#utility.yul\":8374:8383   */\n      not\n        /* \"#utility.yul\":8367:8372   */\n      dup5\n        /* \"#utility.yul\":8363:8384   */\n      and\n        /* \"#utility.yul\":8354:8384   */\n      swap4\n      pop\n        /* \"#utility.yul\":8427:8431   */\n      dup1\n        /* \"#utility.yul\":8417:8425   */\n      dup7\n        /* \"#utility.yul\":8413:8432   */\n      and\n        /* \"#utility.yul\":8406:8411   */\n      dup5\n        /* \"#utility.yul\":8403:8433   */\n      or\n        /* \"#utility.yul\":8393:8433   */\n      swap3\n      pop\n        /* \"#utility.yul\":8122:8439   */\n      pop\n      pop\n        /* \"#utility.yul\":8046:8439   */\n      swap4\n      swap3\n      pop\n      pop\n      pop\n      jump\t// out\n        /* \"#utility.yul\":8445:8505   */\n    tag_112:\n        /* \"#utility.yul\":8473:8476   */\n      0x00\n        /* \"#utility.yul\":8494:8499   */\n      dup2\n        /* \"#utility.yul\":8487:8499   */\n      swap1\n      pop\n        /* \"#utility.yul\":8445:8505   */\n      swap2\n      swap1\n      pop\n      jump\t// out\n        /* \"#utility.yul\":8511:8653   */\n    tag_113:\n        /* \"#utility.yul\":8561:8570   */\n      0x00\n        /* \"#utility.yul\":8594:8647   */\n      tag_209\n        /* \"#utility.yul\":8612:8646   */\n      tag_210\n        /* \"#utility.yul\":8621:8645   */\n      tag_211\n        /* \"#utility.yul\":8639:8644   */\n      dup5\n        /* \"#utility.yul\":8621:8645   */\n      tag_87\n      jump\t// in\n    tag_211:\n        /* \"#utility.yul\":8612:8646   */\n      tag_112\n      jump\t// in\n    tag_210:\n        /* \"#utility.yul\":8594:8647   */\n      tag_87\n      jump\t// in\n    tag_209:\n        /* \"#utility.yul\":8581:8647   */\n      swap1\n      pop\n        /* \"#utility.yul\":8511:8653   */\n      swap2\n      swap1\n      pop\n      jump\t// out\n        /* \"#utility.yul\":8659:8734   */\n    tag_114:\n        /* \"#utility.yul\":8702:8705   */\n      0x00\n        /* \"#utility.yul\":8723:8728   */\n      dup2\n        /* \"#utility.yul\":8716:8728   */\n      swap1\n      pop\n        /* \"#utility.yul\":8659:8734   */\n      swap2\n      swap1\n      pop\n      jump\t// out\n        /* \"#utility.yul\":8740:9009   */\n    tag_115:\n        /* \"#utility.yul\":8850:8889   */\n      tag_214\n        /* \"#utility.yul\":8881:8888   */\n      dup4\n        /* \"#utility.yul\":8850:8889   */\n      tag_113\n      jump\t// in\n    tag_214:\n        /* \"#utility.yul\":8911:9002   */\n      tag_215\n        /* \"#utility.yul\":8960:9001   */\n      tag_216\n        /* \"#utility.yul\":8984:9000   */\n      dup3\n        /* \"#utility.yul\":8960:9001   */\n      tag_114\n      jump\t// in\n    tag_216:\n        /* \"#utility.yul\":8952:8958   */\n      dup5\n        /* \"#utility.yul\":8945:8949   */\n      dup5\n        /* \"#utility.yul\":8939:8950   */\n      sload\n        /* \"#utility.yul\":8911:9002   */\n      tag_111\n      jump\t// in\n    tag_215:\n        /* \"#utility.yul\":8905:8909   */\n      dup3\n        /* \"#utility.yul\":8898:9003   */\n      sstore\n        /* \"#utility.yul\":8816:9009   */\n      pop\n        /* \"#utility.yul\":8740:9009   */\n      pop\n      pop\n      pop\n      jump\t// out\n        /* \"#utility.yul\":9015:9088   */\n    tag_116:\n        /* \"#utility.yul\":9060:9063   */\n      0x00\n        /* \"#utility.yul\":9081:9082   */\n      0x00\n        /* \"#utility.yul\":9074:9082   */\n      swap1\n      pop\n        /* \"#utility.yul\":9015:9088   */\n      swap1\n      jump\t// out\n        /* \"#utility.yul\":9094:9283   */\n    tag_117:\n        /* \"#utility.yul\":9171:9203   */\n      tag_219\n      tag_116\n      jump\t// in\n    tag_219:\n        /* \"#utility.yul\":9212:9277   */\n      tag_220\n        /* \"#utility.yul\":9270:9276   */\n      dup2\n        /* \"#utility.yul\":9262:9268   */\n      dup5\n        /* \"#utility.yul\":9256:9260   */\n      dup5\n        /* \"#utility.yul\":9212:9277   */\n      tag_115\n      jump\t// in\n    tag_220:\n        /* \"#utility.yul\":9147:9283   */\n      pop\n        /* \"#utility.yul\":9094:9283   */\n      pop\n      pop\n      jump\t// out\n        /* \"#utility.yul\":9289:9475   */\n    tag_118:\n        /* \"#utility.yul\":9349:9469   */\n    tag_222:\n        /* \"#utility.yul\":9366:9369   */\n      dup2\n        /* \"#utility.yul\":9359:9364   */\n      dup2\n        /* \"#utility.yul\":9356:9370   */\n      lt\n        /* \"#utility.yul\":9349:9469   */\n      iszero\n      tag_224\n      jumpi\n        /* \"#utility.yul\":9420:9459   */\n      tag_225\n        /* \"#utility.yul\":9457:9458   */\n      0x00\n        /* \"#utility.yul\":9450:9455   */\n      dup3\n        /* \"#utility.yul\":9420:9459   */\n      tag_117\n      jump\t// in\n    tag_225:\n        /* \"#utility.yul\":9393:9394   */\n      0x01\n        /* \"#utility.yul\":9386:9391   */\n      dup2\n        /* \"#utility.yul\":9382:9395   */\n      add\n        /* \"#utility.yul\":9373:9395   */\n      swap1\n      pop\n        /* \"#utility.yul\":9349:9469   */\n      jump(tag_222)\n    tag_224:\n        /* \"#utility.yul\":9289:9475   */\n      pop\n      pop\n      jump\t// out\n        /* \"#utility.yul\":9481:10024   */\n    tag_119:\n        /* \"#utility.yul\":9582:9584   */\n      0x1f\n        /* \"#utility.yul\":9577:9580   */\n      dup3\n        /* \"#utility.yul\":9574:9585   */\n      gt\n        /* \"#utility.yul\":9571:10017   */\n      iszero\n      tag_227\n      jumpi\n        /* \"#utility.yul\":9616:9654   */\n      tag_228\n        /* \"#utility.yul\":9648:9653   */\n      dup2\n        /* \"#utility.yul\":9616:9654   */\n      tag_108\n      jump\t// in\n    tag_228:\n        /* \"#utility.yul\":9700:9729   */\n      tag_229\n        /* \"#utility.yul\":9718:9728   */\n      dup5\n        /* \"#utility.yul\":9700:9729   */\n      tag_109\n      jump\t// in\n    tag_229:\n        /* \"#utility.yul\":9690:9698   */\n      dup2\n        /* \"#utility.yul\":9686:9730   */\n      add\n        /* \"#utility.yul\":9883:9885   */\n      0x20\n        /* \"#utility.yul\":9871:9881   */\n      dup6\n        /* \"#utility.yul\":9868:9886   */\n      lt\n        /* \"#utility.yul\":9865:9914   */\n      iszero\n      tag_230\n      jumpi\n        /* \"#utility.yul\":9904:9912   */\n      dup2\n        /* \"#utility.yul\":9889:9912   */\n      swap1\n      pop\n        /* \"#utility.yul\":9865:9914   */\n    tag_230:\n        /* \"#utility.yul\":9927:10007   */\n      tag_231\n        /* \"#utility.yul\":9983:10005   */\n      tag_232\n        /* \"#utility.yul\":10001:10004   */\n      dup6\n        /* \"#utility.yul\":9983:10005   */\n      tag_109\n      jump\t// in\n    tag_232:\n        /* \"#utility.yul\":9973:9981   */\n      dup4\n        /* \"#utility.yul\":9969:10006   */\n      add\n        /* \"#utility.yul\":9956:9967   */\n      dup3\n        /* \"#utility.yul\":9927:10007   */\n      tag_118\n      jump\t// in\n    tag_231:\n        /* \"#utility.yul\":9586:10017   */\n      pop\n      pop\n        /* \"#utility.yul\":9571:10017   */\n    tag_227:\n        /* \"#utility.yul\":9481:10024   */\n      pop\n      pop\n      pop\n      jump\t// out\n        /* \"#utility.yul\":10030:10147   */\n    tag_120:\n        /* \"#utility.yul\":10084:10092   */\n      0x00\n        /* \"#utility.yul\":10134:10139   */\n      dup3\n        /* \"#utility.yul\":10128:10132   */\n      dup3\n        /* \"#utility.yul\":10124:10140   */\n      shr\n        /* \"#utility.yul\":10103:10140   */\n      swap1\n      pop\n        /* \"#utility.yul\":10030:10147   */\n      swap3\n      swap2\n      pop\n      pop\n      jump\t// out\n        /* \"#utility.yul\":10153:10322   */\n    tag_121:\n        /* \"#utility.yul\":10197:10203   */\n      0x00\n        /* \"#utility.yul\":10230:10281   */\n      tag_235\n        /* \"#utility.yul\":10278:10279   */\n      0x00\n        /* \"#utility.yul\":10274:10280   */\n      not\n        /* \"#utility.yul\":10266:10271   */\n      dup5\n        /* \"#utility.yul\":10263:10264   */\n      0x08\n        /* \"#utility.yul\":10259:10272   */\n      mul\n        /* \"#utility.yul\":10230:10281   */\n      tag_120\n      jump\t// in\n    tag_235:\n        /* \"#utility.yul\":10226:10282   */\n      not\n        /* \"#utility.yul\":10311:10315   */\n      dup1\n        /* \"#utility.yul\":10305:10309   */\n      dup4\n        /* \"#utility.yul\":10301:10316   */\n      and\n        /* \"#utility.yul\":10291:10316   */\n      swap2\n      pop\n        /* \"#utility.yul\":10204:10322   */\n      pop\n        /* \"#utility.yul\":10153:10322   */\n      swap3\n      swap2\n      pop\n      pop\n      jump\t// out\n        /* \"#utility.yul\":10327:10622   */\n    tag_122:\n        /* \"#utility.yul\":10403:10407   */\n      0x00\n        /* \"#utility.yul\":10549:10578   */\n      tag_237\n        /* \"#utility.yul\":10574:10577   */\n      dup4\n        /* \"#utility.yul\":10568:10572   */\n      dup4\n        /* \"#utility.yul\":10549:10578   */\n      tag_121\n      jump\t// in\n    tag_237:\n        /* \"#utility.yul\":10541:10578   */\n      swap2\n      pop\n        /* \"#utility.yul\":10611:10614   */\n      dup3\n        /* \"#utility.yul\":10608:10609   */\n      0x02\n        /* \"#utility.yul\":10604:10615   */\n      mul\n        /* \"#utility.yul\":10598:10602   */\n      dup3\n        /* \"#utility.yul\":10595:10616   */\n      or\n        /* \"#utility.yul\":10587:10616   */\n      swap1\n      pop\n        /* \"#utility.yul\":10327:10622   */\n      swap3\n      swap2\n      pop\n      pop\n      jump\t// out\n        /* \"#utility.yul\":10627:12022   */\n    tag_72:\n        /* \"#utility.yul\":10744:10781   */\n      tag_239\n        /* \"#utility.yul\":10777:10780   */\n      dup3\n        /* \"#utility.yul\":10744:10781   */\n      tag_90\n      jump\t// in\n    tag_239:\n        /* \"#utility.yul\":10846:10864   */\n      0xffffffffffffffff\n        /* \"#utility.yul\":10838:10844   */\n      dup2\n        /* \"#utility.yul\":10835:10865   */\n      gt\n        /* \"#utility.yul\":10832:10888   */\n      iszero\n      tag_240\n      jumpi\n        /* \"#utility.yul\":10868:10886   */\n      tag_241\n      tag_100\n      jump\t// in\n    tag_241:\n        /* \"#utility.yul\":10832:10888   */\n    tag_240:\n        /* \"#utility.yul\":10912:10950   */\n      tag_242\n        /* \"#utility.yul\":10944:10948   */\n      dup3\n        /* \"#utility.yul\":10938:10949   */\n      sload\n        /* \"#utility.yul\":10912:10950   */\n      tag_31\n      jump\t// in\n    tag_242:\n        /* \"#utility.yul\":10997:11064   */\n      tag_243\n        /* \"#utility.yul\":11057:11063   */\n      dup3\n        /* \"#utility.yul\":11049:11055   */\n      dup3\n        /* \"#utility.yul\":11043:11047   */\n      dup6\n        /* \"#utility.yul\":10997:11064   */\n      tag_119\n      jump\t// in\n    tag_243:\n        /* \"#utility.yul\":11091:11092   */\n      0x00\n        /* \"#utility.yul\":11115:11119   */\n      0x20\n        /* \"#utility.yul\":11102:11119   */\n      swap1\n      pop\n        /* \"#utility.yul\":11147:11149   */\n      0x1f\n        /* \"#utility.yul\":11139:11145   */\n      dup4\n        /* \"#utility.yul\":11136:11150   */\n      gt\n        /* \"#utility.yul\":11164:11165   */\n      0x01\n        /* \"#utility.yul\":11159:11777   */\n      dup2\n      eq\n      tag_245\n      jumpi\n        /* \"#utility.yul\":11821:11822   */\n      0x00\n        /* \"#utility.yul\":11838:11844   */\n      dup5\n        /* \"#utility.yul\":11835:11912   */\n      iszero\n      tag_246\n      jumpi\n        /* \"#utility.yul\":11887:11896   */\n      dup3\n        /* \"#utility.yul\":11882:11885   */\n      dup8\n        /* \"#utility.yul\":11878:11897   */\n      add\n        /* \"#utility.yul\":11872:11898   */\n      mload\n        /* \"#utility.yul\":11863:11898   */\n      swap1\n      pop\n        /* \"#utility.yul\":11835:11912   */\n    tag_246:\n        /* \"#utility.yul\":11938:12005   */\n      tag_247\n        /* \"#utility.yul\":11998:12004   */\n      dup6\n        /* \"#utility.yul\":11991:11996   */\n      dup3\n        /* \"#utility.yul\":11938:12005   */\n      tag_122\n      jump\t// in\n    tag_247:\n        /* \"#utility.yul\":11932:11936   */\n      dup7\n        /* \"#utility.yul\":11925:12006   */\n      sstore\n        /* \"#utility.yul\":11794:12016   */\n      pop\n        /* \"#utility.yul\":11129:12016   */\n      jump(tag_244)\n        /* \"#utility.yul\":11159:11777   */\n    tag_245:\n        /* \"#utility.yul\":11211:11215   */\n      0x1f\n        /* \"#utility.yul\":11207:11216   */\n      not\n        /* \"#utility.yul\":11199:11205   */\n      dup5\n        /* \"#utility.yul\":11195:11217   */\n      and\n        /* \"#utility.yul\":11245:11282   */\n      tag_248\n        /* \"#utility.yul\":11277:11281   */\n      dup7\n        /* \"#utility.yul\":11245:11282   */\n      tag_108\n      jump\t// in\n    tag_248:\n        /* \"#utility.yul\":11304:11305   */\n      0x00\n        /* \"#utility.yul\":11318:11526   */\n    tag_249:\n        /* \"#utility.yul\":11332:11339   */\n      dup3\n        /* \"#utility.yul\":11329:11330   */\n      dup2\n        /* \"#utility.yul\":11326:11340   */\n      lt\n        /* \"#utility.yul\":11318:11526   */\n      iszero\n      tag_251\n      jumpi\n        /* \"#utility.yul\":11411:11420   */\n      dup5\n        /* \"#utility.yul\":11406:11409   */\n      dup10\n        /* \"#utility.yul\":11402:11421   */\n      add\n        /* \"#utility.yul\":11396:11422   */\n      mload\n        /* \"#utility.yul\":11388:11394   */\n      dup3\n        /* \"#utility.yul\":11381:11423   */\n      sstore\n        /* \"#utility.yul\":11462:11463   */\n      0x01\n        /* \"#utility.yul\":11454:11460   */\n      dup3\n        /* \"#utility.yul\":11450:11464   */\n      add\n        /* \"#utility.yul\":11440:11464   */\n      swap2\n      pop\n        /* \"#utility.yul\":11509:11511   */\n      0x20\n        /* \"#utility.yul\":11498:11507   */\n      dup6\n        /* \"#utility.yul\":11494:11512   */\n      add\n        /* \"#utility.yul\":11481:11512   */\n      swap5\n      pop\n        /* \"#utility.yul\":11355:11359   */\n      0x20\n        /* \"#utility.yul\":11352:11353   */\n      dup2\n        /* \"#utility.yul\":11348:11360   */\n      add\n        /* \"#utility.yul\":11343:11360   */\n      swap1\n      pop\n        /* \"#utility.yul\":11318:11526   */\n      jump(tag_249)\n    tag_251:\n        /* \"#utility.yul\":11554:11560   */\n      dup7\n        /* \"#utility.yul\":11545:11552   */\n      dup4\n        /* \"#utility.yul\":11542:11561   */\n      lt\n        /* \"#utility.yul\":11539:11718   */\n      iszero\n      tag_252\n      jumpi\n        /* \"#utility.yul\":11612:11621   */\n      dup5\n        /* \"#utility.yul\":11607:11610   */\n      dup10\n        /* \"#utility.yul\":11603:11622   */\n      add\n        /* \"#utility.yul\":11597:11623   */\n      mload\n        /* \"#utility.yul\":11655:11703   */\n      tag_253\n        /* \"#utility.yul\":11697:11701   */\n      0x1f\n        /* \"#utility.yul\":11689:11695   */\n      dup10\n        /* \"#utility.yul\":11685:11702   */\n      and\n        /* \"#utility.yul\":11674:11683   */\n      dup3\n        /* \"#utility.yul\":11655:11703   */\n      tag_121\n      jump\t// in\n    tag_253:\n        /* \"#utility.yul\":11647:11653   */\n      dup4\n        /* \"#utility.yul\":11640:11704   */\n      sstore\n        /* \"#utility.yul\":11562:11718   */\n      pop\n        /* \"#utility.yul\":11539:11718   */\n    tag_252:\n        /* \"#utility.yul\":11764:11765   */\n      0x01\n        /* \"#utility.yul\":11760:11761   */\n      0x02\n        /* \"#utility.yul\":11752:11758   */\n      dup9\n        /* \"#utility.yul\":11748:11762   */\n      mul\n        /* \"#utility.yul\":11744:11766   */\n      add\n        /* \"#utility.yul\":11738:11742   */\n      dup9\n        /* \"#utility.yul\":11731:11767   */\n      sstore\n        /* \"#utility.yul\":11166:11777   */\n      pop\n      pop\n      pop\n        /* \"#utility.yul\":11129:12016   */\n    tag_244:\n      pop\n        /* \"#utility.yul\":10719:12022   */\n      pop\n      pop\n      pop\n        /* \"#utility.yul\":10627:12022   */\n      pop\n      pop\n      jump\t// out\n        /* \"#utility.yul\":12028:12177   */\n    tag_123:\n        /* \"#utility.yul\":12077:12083   */\n      0x00\n        /* \"#utility.yul\":12111:12116   */\n      dup2\n        /* \"#utility.yul\":12105:12117   */\n      sload\n        /* \"#utility.yul\":12095:12117   */\n      swap1\n      pop\n        /* \"#utility.yul\":12137:12170   */\n      tag_255\n        /* \"#utility.yul\":12163:12169   */\n      dup2\n        /* \"#utility.yul\":12137:12170   */\n      tag_31\n      jump\t// in\n    tag_255:\n        /* \"#utility.yul\":12127:12170   */\n      swap1\n      pop\n        /* \"#utility.yul\":12028:12177   */\n      swap2\n      swap1\n      pop\n      jump\t// out\n        /* \"#utility.yul\":12183:13634   */\n    tag_75:\n        /* \"#utility.yul\":12294:12297   */\n      dup2\n        /* \"#utility.yul\":12288:12292   */\n      dup2\n        /* \"#utility.yul\":12285:12298   */\n      sub\n        /* \"#utility.yul\":12282:12308   */\n      tag_257\n      jumpi\n        /* \"#utility.yul\":12301:12306   */\n      pop\n      pop\n      jump(tag_256)\n        /* \"#utility.yul\":12282:12308   */\n    tag_257:\n        /* \"#utility.yul\":12332:12366   */\n      tag_258\n        /* \"#utility.yul\":12362:12365   */\n      dup3\n        /* \"#utility.yul\":12332:12366   */\n      tag_123\n      jump\t// in\n    tag_258:\n        /* \"#utility.yul\":12431:12449   */\n      0xffffffffffffffff\n        /* \"#utility.yul\":12423:12429   */\n      dup2\n        /* \"#utility.yul\":12420:12450   */\n      gt\n        /* \"#utility.yul\":12417:12473   */\n      iszero\n      tag_259\n      jumpi\n        /* \"#utility.yul\":12453:12471   */\n      tag_260\n      tag_100\n      jump\t// in\n    tag_260:\n        /* \"#utility.yul\":12417:12473   */\n    tag_259:\n        /* \"#utility.yul\":12497:12535   */\n      tag_261\n        /* \"#utility.yul\":12529:12533   */\n      dup3\n        /* \"#utility.yul\":12523:12534   */\n      sload\n        /* \"#utility.yul\":12497:12535   */\n      tag_31\n      jump\t// in\n    tag_261:\n        /* \"#utility.yul\":12582:12649   */\n      tag_262\n        /* \"#utility.yul\":12642:12648   */\n      dup3\n        /* \"#utility.yul\":12634:12640   */\n      dup3\n        /* \"#utility.yul\":12628:12632   */\n      dup6\n        /* \"#utility.yul\":12582:12649   */\n      tag_119\n      jump\t// in\n    tag_262:\n        /* \"#utility.yul\":12676:12677   */\n      0x00\n        /* \"#utility.yul\":12705:12707   */\n      0x1f\n        /* \"#utility.yul\":12697:12703   */\n      dup4\n        /* \"#utility.yul\":12694:12708   */\n      gt\n        /* \"#utility.yul\":12722:12723   */\n      0x01\n        /* \"#utility.yul\":12717:13389   */\n      dup2\n      eq\n      tag_264\n      jumpi\n        /* \"#utility.yul\":13433:13434   */\n      0x00\n        /* \"#utility.yul\":13450:13456   */\n      dup5\n        /* \"#utility.yul\":13447:13524   */\n      iszero\n      tag_265\n      jumpi\n        /* \"#utility.yul\":13499:13508   */\n      dup3\n        /* \"#utility.yul\":13494:13497   */\n      dup8\n        /* \"#utility.yul\":13490:13509   */\n      add\n        /* \"#utility.yul\":13484:13510   */\n      sload\n        /* \"#utility.yul\":13475:13510   */\n      swap1\n      pop\n        /* \"#utility.yul\":13447:13524   */\n    tag_265:\n        /* \"#utility.yul\":13550:13617   */\n      tag_266\n        /* \"#utility.yul\":13610:13616   */\n      dup6\n        /* \"#utility.yul\":13603:13608   */\n      dup3\n        /* \"#utility.yul\":13550:13617   */\n      tag_122\n      jump\t// in\n    tag_266:\n        /* \"#utility.yul\":13544:13548   */\n      dup7\n        /* \"#utility.yul\":13537:13618   */\n      sstore\n        /* \"#utility.yul\":13406:13628   */\n      pop\n        /* \"#utility.yul\":12687:13628   */\n      jump(tag_263)\n        /* \"#utility.yul\":12717:13389   */\n    tag_264:\n        /* \"#utility.yul\":12769:12773   */\n      0x1f\n        /* \"#utility.yul\":12765:12774   */\n      not\n        /* \"#utility.yul\":12757:12763   */\n      dup5\n        /* \"#utility.yul\":12753:12775   */\n      and\n        /* \"#utility.yul\":12795:12831   */\n      tag_267\n        /* \"#utility.yul\":12827:12830   */\n      dup8\n        /* \"#utility.yul\":12795:12831   */\n      tag_108\n      jump\t// in\n    tag_267:\n        /* \"#utility.yul\":12788:12831   */\n      swap7\n      pop\n        /* \"#utility.yul\":12858:12895   */\n      tag_268\n        /* \"#utility.yul\":12890:12894   */\n      dup7\n        /* \"#utility.yul\":12858:12895   */\n      tag_108\n      jump\t// in\n    tag_268:\n        /* \"#utility.yul\":12917:12918   */\n      0x00\n        /* \"#utility.yul\":12931:13138   */\n    tag_269:\n        /* \"#utility.yul\":12945:12952   */\n      dup3\n        /* \"#utility.yul\":12942:12943   */\n      dup2\n        /* \"#utility.yul\":12939:12953   */\n      lt\n        /* \"#utility.yul\":12931:13138   */\n      iszero\n      tag_271\n      jumpi\n        /* \"#utility.yul\":13024:13033   */\n      dup5\n        /* \"#utility.yul\":13019:13022   */\n      dup10\n        /* \"#utility.yul\":13015:13034   */\n      add\n        /* \"#utility.yul\":13009:13035   */\n      sload\n        /* \"#utility.yul\":13001:13007   */\n      dup3\n        /* \"#utility.yul\":12994:13036   */\n      sstore\n        /* \"#utility.yul\":13075:13076   */\n      0x01\n        /* \"#utility.yul\":13067:13073   */\n      dup3\n        /* \"#utility.yul\":13063:13077   */\n      add\n        /* \"#utility.yul\":13053:13077   */\n      swap2\n      pop\n        /* \"#utility.yul\":13122:13123   */\n      0x01\n        /* \"#utility.yul\":13111:13120   */\n      dup6\n        /* \"#utility.yul\":13107:13124   */\n      add\n        /* \"#utility.yul\":13094:13124   */\n      swap5\n      pop\n        /* \"#utility.yul\":12968:12972   */\n      0x20\n        /* \"#utility.yul\":12965:12966   */\n      dup2\n        /* \"#utility.yul\":12961:12973   */\n      add\n        /* \"#utility.yul\":12956:12973   */\n      swap1\n      pop\n        /* \"#utility.yul\":12931:13138   */\n      jump(tag_269)\n    tag_271:\n        /* \"#utility.yul\":13166:13172   */\n      dup7\n        /* \"#utility.yul\":13157:13164   */\n      dup4\n        /* \"#utility.yul\":13154:13173   */\n      lt\n        /* \"#utility.yul\":13151:13330   */\n      iszero\n      tag_272\n      jumpi\n        /* \"#utility.yul\":13224:13233   */\n      dup5\n        /* \"#utility.yul\":13219:13222   */\n      dup10\n        /* \"#utility.yul\":13215:13234   */\n      add\n        /* \"#utility.yul\":13209:13235   */\n      sload\n        /* \"#utility.yul\":13267:13315   */\n      tag_273\n        /* \"#utility.yul\":13309:13313   */\n      0x1f\n        /* \"#utility.yul\":13301:13307   */\n      dup10\n        /* \"#utility.yul\":13297:13314   */\n      and\n        /* \"#utility.yul\":13286:13295   */\n      dup3\n        /* \"#utility.yul\":13267:13315   */\n      tag_121\n      jump\t// in\n    tag_273:\n        /* \"#utility.yul\":13259:13265   */\n      dup4\n        /* \"#utility.yul\":13252:13316   */\n      sstore\n        /* \"#utility.yul\":13174:13330   */\n      pop\n        /* \"#utility.yul\":13151:13330   */\n    tag_272:\n        /* \"#utility.yul\":13376:13377   */\n      0x01\n        /* \"#utility.yul\":13372:13373   */\n      0x02\n        /* \"#utility.yul\":13364:13370   */\n      dup9\n        /* \"#utility.yul\":13360:13374   */\n      mul\n        /* \"#utility.yul\":13356:13378   */\n      add\n        /* \"#utility.yul\":13350:13354   */\n      dup9\n        /* \"#utility.yul\":13343:13379   */\n      sstore\n        /* \"#utility.yul\":12724:13389   */\n      pop\n      pop\n      pop\n        /* \"#utility.yul\":12687:13628   */\n    tag_263:\n      pop\n        /* \"#utility.yul\":12272:13634   */\n      pop\n      pop\n      pop\n        /* \"#utility.yul\":12183:13634   */\n      pop\n      pop\n    tag_256:\n      jump\t// out\n\n    auxdata: 0xa2646970667358221220e1c521570baec2de281c26097cd5f34c36ad759c09a4007bbb4526f4a4d034d364736f6c634300081e0033\n}\n",
				"bytecode": {
					"linkReferences": {},
					"object": "6080604052348015600e575f5ffd5b50610d7a8061001c5f395ff3fe608060405234801561000f575f5ffd5b5060043610610055575f3560e01c80636af390aa146100595780637404f9c71461008a5780638b514ed7146100ba578063cc1935b4146100ea578063f012666e14610106575b5f5ffd5b610073600480360381019061006e9190610651565b610122565b6040516100819291906106ec565b60405180910390f35b6100a4600480360381019061009f9190610651565b61024e565b6040516100b191906107aa565b60405180910390f35b6100d460048036038101906100cf9190610651565b610398565b6040516100e191906107aa565b60405180910390f35b61010460048036038101906100ff9190610651565b6104e2565b005b610120600480360381019061011b91906108f6565b610516565b005b6002602052805f5260405f205f91509050805f018054610141906109ab565b80601f016020809104026020016040519081016040528092919081815260200182805461016d906109ab565b80156101b85780601f1061018f576101008083540402835291602001916101b8565b820191905f5260205f20905b81548152906001019060200180831161019b57829003601f168201915b5050505050908060010180546101cd906109ab565b80601f01602080910402602001604051908101604052809291908181526020018280546101f9906109ab565b80156102445780601f1061021b57610100808354040283529160200191610244565b820191905f5260205f20905b81548152906001019060200180831161022757829003601f168201915b5050505050905082565b61025661059b565b60025f8381526020019081526020015f206040518060400160405290815f82018054610281906109ab565b80601f01602080910402602001604051908101604052809291908181526020018280546102ad906109ab565b80156102f85780601f106102cf576101008083540402835291602001916102f8565b820191905f5260205f20905b8154815290600101906020018083116102db57829003601f168201915b50505050508152602001600182018054610311906109ab565b80601f016020809104026020016040519081016040528092919081815260200182805461033d906109ab565b80156103885780601f1061035f57610100808354040283529160200191610388565b820191905f5260205f20905b81548152906001019060200180831161036b57829003601f168201915b5050505050815250509050919050565b6103a061059b565b60025f8381526020019081526020015f206040518060400160405290815f820180546103cb906109ab565b80601f01602080910402602001604051908101604052809291908181526020018280546103f7906109ab565b80156104425780601f1061041957610100808354040283529160200191610442565b820191905f5260205f20905b81548152906001019060200180831161042557829003601f168201915b5050505050815260200160018201805461045b906109ab565b80601f0160208091040260200160405190810160405280929190818152602001828054610487906109ab565b80156104d25780601f106104a9576101008083540402835291602001916104d2565b820191905f5260205f20905b8154815290600101906020018083116104b557829003601f168201915b5050505050815250509050919050565b60025f8281526020019081526020015f205f5f82015f61050291906105b5565b600182015f61051191906105b5565b505050565b6040518060400160405280848152602001838152505f5f820151815f01908161053f9190610b7b565b5060208201518160010190816105559190610b7b565b509050505f60025f8381526020019081526020015f205f8201815f01908161057d9190610c5f565b50600182018160010190816105929190610c5f565b50905050505050565b604051806040016040528060608152602001606081525090565b5080546105c1906109ab565b5f825580601f106105d257506105ef565b601f0160209004905f5260205f20908101906105ee91906105f2565b5b50565b5b80821115610609575f815f9055506001016105f3565b5090565b5f604051905090565b5f5ffd5b5f5ffd5b5f819050919050565b6106308161061e565b811461063a575f5ffd5b50565b5f8135905061064b81610627565b92915050565b5f6020828403121561066657610665610616565b5b5f6106738482850161063d565b91505092915050565b5f81519050919050565b5f82825260208201905092915050565b8281835e5f83830152505050565b5f601f19601f8301169050919050565b5f6106be8261067c565b6106c88185610686565b93506106d8818560208601610696565b6106e1816106a4565b840191505092915050565b5f6040820190508181035f83015261070481856106b4565b9050818103602083015261071881846106b4565b90509392505050565b5f82825260208201905092915050565b5f61073b8261067c565b6107458185610721565b9350610755818560208601610696565b61075e816106a4565b840191505092915050565b5f604083015f8301518482035f8601526107838282610731565b9150506020830151848203602086015261079d8282610731565b9150508091505092915050565b5f6020820190508181035f8301526107c28184610769565b905092915050565b5f5ffd5b5f5ffd5b7f4e487b71000000000000000000000000000000000000000000000000000000005f52604160045260245ffd5b610808826106a4565b810181811067ffffffffffffffff82111715610827576108266107d2565b5b80604052505050565b5f61083961060d565b905061084582826107ff565b919050565b5f67ffffffffffffffff821115610864576108636107d2565b5b61086d826106a4565b9050602081019050919050565b828183375f83830152505050565b5f61089a6108958461084a565b610830565b9050828152602081018484840111156108b6576108b56107ce565b5b6108c184828561087a565b509392505050565b5f82601f8301126108dd576108dc6107ca565b5b81356108ed848260208601610888565b91505092915050565b5f5f5f6060848603121561090d5761090c610616565b5b5f84013567ffffffffffffffff81111561092a5761092961061a565b5b610936868287016108c9565b935050602084013567ffffffffffffffff8111156109575761095661061a565b5b610963868287016108c9565b92505060406109748682870161063d565b9150509250925092565b7f4e487b71000000000000000000000000000000000000000000000000000000005f52602260045260245ffd5b5f60028204905060018216806109c257607f821691505b6020821081036109d5576109d461097e565b5b50919050565b5f819050815f5260205f209050919050565b5f6020601f8301049050919050565b5f82821b905092915050565b5f60088302610a377fffffffffffffffffffffffffffffffffffffffffffffffffffffffffffffffff826109fc565b610a4186836109fc565b95508019841693508086168417925050509392505050565b5f819050919050565b5f610a7c610a77610a728461061e565b610a59565b61061e565b9050919050565b5f819050919050565b610a9583610a62565b610aa9610aa182610a83565b848454610a08565b825550505050565b5f5f905090565b610ac0610ab1565b610acb818484610a8c565b505050565b5b81811015610aee57610ae35f82610ab8565b600181019050610ad1565b5050565b601f821115610b3357610b04816109db565b610b0d846109ed565b81016020851015610b1c578190505b610b30610b28856109ed565b830182610ad0565b50505b505050565b5f82821c905092915050565b5f610b535f1984600802610b38565b1980831691505092915050565b5f610b6b8383610b44565b9150826002028217905092915050565b610b848261067c565b67ffffffffffffffff811115610b9d57610b9c6107d2565b5b610ba782546109ab565b610bb2828285610af2565b5f60209050601f831160018114610be3575f8415610bd1578287015190505b610bdb8582610b60565b865550610c42565b601f198416610bf1866109db565b5f5b82811015610c1857848901518255600182019150602085019450602081019050610bf3565b86831015610c355784890151610c31601f891682610b44565b8355505b6001600288020188555050505b505050505050565b5f81549050610c58816109ab565b9050919050565b818103610c6d575050610d42565b610c7682610c4a565b67ffffffffffffffff811115610c8f57610c8e6107d2565b5b610c9982546109ab565b610ca4828285610af2565b5f601f831160018114610cd1575f8415610cbf578287015490505b610cc98582610b60565b865550610d3b565b601f198416610cdf876109db565b9650610cea866109db565b5f5b82811015610d1157848901548255600182019150600185019450602081019050610cec565b86831015610d2e5784890154610d2a601f891682610b44565b8355505b6001600288020188555050505b5050505050505b56fea2646970667358221220e1c521570baec2de281c26097cd5f34c36ad759c09a4007bbb4526f4a4d034d364736f6c634300081e0033",
					"opcodes": "PUSH1 0x80 PUSH1 0x40 MSTORE CALLVALUE DUP1 ISZERO PUSH1 0xE JUMPI PUSH0 PUSH0 REVERT JUMPDEST POP PUSH2 0xD7A DUP1 PUSH2 0x1C PUSH0 CODECOPY PUSH0 RETURN INVALID PUSH1 0x80 PUSH1 0x40 MSTORE CALLVALUE DUP1 ISZERO PUSH2 0xF JUMPI PUSH0 PUSH0 REVERT JUMPDEST POP PUSH1 0x4 CALLDATASIZE LT PUSH2 0x55 JUMPI PUSH0 CALLDATALOAD PUSH1 0xE0 SHR DUP1 PUSH4 0x6AF390AA EQ PUSH2 0x59 JUMPI DUP1 PUSH4 0x7404F9C7 EQ PUSH2 0x8A JUMPI DUP1 PUSH4 0x8B514ED7 EQ PUSH2 0xBA JUMPI DUP1 PUSH4 0xCC1935B4 EQ PUSH2 0xEA JUMPI DUP1 PUSH4 0xF012666E EQ PUSH2 0x106 JUMPI JUMPDEST PUSH0 PUSH0 REVERT JUMPDEST PUSH2 0x73 PUSH1 0x4 DUP1 CALLDATASIZE SUB DUP2 ADD SWAP1 PUSH2 0x6E SWAP2 SWAP1 PUSH2 0x651 JUMP JUMPDEST PUSH2 0x122 JUMP JUMPDEST PUSH1 0x40 MLOAD PUSH2 0x81 SWAP3 SWAP2 SWAP1 PUSH2 0x6EC JUMP JUMPDEST PUSH1 0x40 MLOAD DUP1 SWAP2 SUB SWAP1 RETURN JUMPDEST PUSH2 0xA4 PUSH1 0x4 DUP1 CALLDATASIZE SUB DUP2 ADD SWAP1 PUSH2 0x9F SWAP2 SWAP1 PUSH2 0x651 JUMP JUMPDEST PUSH2 0x24E JUMP JUMPDEST PUSH1 0x40 MLOAD PUSH2 0xB1 SWAP2 SWAP1 PUSH2 0x7AA JUMP JUMPDEST PUSH1 0x40 MLOAD DUP1 SWAP2 SUB SWAP1 RETURN JUMPDEST PUSH2 0xD4 PUSH1 0x4 DUP1 CALLDATASIZE SUB DUP2 ADD SWAP1 PUSH2 0xCF SWAP2 SWAP1 PUSH2 0x651 JUMP JUMPDEST PUSH2 0x398 JUMP JUMPDEST PUSH1 0x40 MLOAD PUSH2 0xE1 SWAP2 SWAP1 PUSH2 0x7AA JUMP JUMPDEST PUSH1 0x40 MLOAD DUP1 SWAP2 SUB SWAP1 RETURN JUMPDEST PUSH2 0x104 PUSH1 0x4 DUP1 CALLDATASIZE SUB DUP2 ADD SWAP1 PUSH2 0xFF SWAP2 SWAP1 PUSH2 0x651 JUMP JUMPDEST PUSH2 0x4E2 JUMP JUMPDEST STOP JUMPDEST PUSH2 0x120 PUSH1 0x4 DUP1 CALLDATASIZE SUB DUP2 ADD SWAP1 PUSH2 0x11B SWAP2 SWAP1 PUSH2 0x8F6 JUMP JUMPDEST PUSH2 0x516 JUMP JUMPDEST STOP JUMPDEST PUSH1 0x2 PUSH1 0x20 MSTORE DUP1 PUSH0 MSTORE PUSH1 0x40 PUSH0 KECCAK256 PUSH0 SWAP2 POP SWAP1 POP DUP1 PUSH0 ADD DUP1 SLOAD PUSH2 0x141 SWAP1 PUSH2 0x9AB JUMP JUMPDEST DUP1 PUSH1 0x1F ADD PUSH1 0x20 DUP1 SWAP2 DIV MUL PUSH1 0x20 ADD PUSH1 0x40 MLOAD SWAP1 DUP2 ADD PUSH1 0x40 MSTORE DUP1 SWAP3 SWAP2 SWAP1 DUP2 DUP2 MSTORE PUSH1 0x20 ADD DUP3 DUP1 SLOAD PUSH2 0x16D SWAP1 PUSH2 0x9AB JUMP JUMPDEST DUP1 ISZERO PUSH2 0x1B8 JUMPI DUP1 PUSH1 0x1F LT PUSH2 0x18F JUMPI PUSH2 0x100 DUP1 DUP4 SLOAD DIV MUL DUP4 MSTORE SWAP2 PUSH1 0x20 ADD SWAP2 PUSH2 0x1B8 JUMP JUMPDEST DUP3 ADD SWAP2 SWAP1 PUSH0 MSTORE PUSH1 0x20 PUSH0 KECCAK256 SWAP1 JUMPDEST DUP2 SLOAD DUP2 MSTORE SWAP1 PUSH1 0x1 ADD SWAP1 PUSH1 0x20 ADD DUP1 DUP4 GT PUSH2 0x19B JUMPI DUP3 SWAP1 SUB PUSH1 0x1F AND DUP3 ADD SWAP2 JUMPDEST POP POP POP POP POP SWAP1 DUP1 PUSH1 0x1 ADD DUP1 SLOAD PUSH2 0x1CD SWAP1 PUSH2 0x9AB JUMP JUMPDEST DUP1 PUSH1 0x1F ADD PUSH1 0x20 DUP1 SWAP2 DIV MUL PUSH1 0x20 ADD PUSH1 0x40 MLOAD SWAP1 DUP2 ADD PUSH1 0x40 MSTORE DUP1 SWAP3 SWAP2 SWAP1 DUP2 DUP2 MSTORE PUSH1 0x20 ADD DUP3 DUP1 SLOAD PUSH2 0x1F9 SWAP1 PUSH2 0x9AB JUMP JUMPDEST DUP1 ISZERO PUSH2 0x244 JUMPI DUP1 PUSH1 0x1F LT PUSH2 0x21B JUMPI PUSH2 0x100 DUP1 DUP4 SLOAD DIV MUL DUP4 MSTORE SWAP2 PUSH1 0x20 ADD SWAP2 PUSH2 0x244 JUMP JUMPDEST DUP3 ADD SWAP2 SWAP1 PUSH0 MSTORE PUSH1 0x20 PUSH0 KECCAK256 SWAP1 JUMPDEST DUP2 SLOAD DUP2 MSTORE SWAP1 PUSH1 0x1 ADD SWAP1 PUSH1 0x20 ADD DUP1 DUP4 GT PUSH2 0x227 JUMPI DUP3 SWAP1 SUB PUSH1 0x1F AND DUP3 ADD SWAP2 JUMPDEST POP POP POP POP POP SWAP1 POP DUP3 JUMP JUMPDEST PUSH2 0x256 PUSH2 0x59B JUMP JUMPDEST PUSH1 0x2 PUSH0 DUP4 DUP2 MSTORE PUSH1 0x20 ADD SWAP1 DUP2 MSTORE PUSH1 0x20 ADD PUSH0 KECCAK256 PUSH1 0x40 MLOAD DUP1 PUSH1 0x40 ADD PUSH1 0x40 MSTORE SWAP1 DUP2 PUSH0 DUP3 ADD DUP1 SLOAD PUSH2 0x281 SWAP1 PUSH2 0x9AB JUMP JUMPDEST DUP1 PUSH1 0x1F ADD PUSH1 0x20 DUP1 SWAP2 DIV MUL PUSH1 0x20 ADD PUSH1 0x40 MLOAD SWAP1 DUP2 ADD PUSH1 0x40 MSTORE DUP1 SWAP3 SWAP2 SWAP1 DUP2 DUP2 MSTORE PUSH1 0x20 ADD DUP3 DUP1 SLOAD PUSH2 0x2AD SWAP1 PUSH2 0x9AB JUMP JUMPDEST DUP1 ISZERO PUSH2 0x2F8 JUMPI DUP1 PUSH1 0x1F LT PUSH2 0x2CF JUMPI PUSH2 0x100 DUP1 DUP4 SLOAD DIV MUL DUP4 MSTORE SWAP2 PUSH1 0x20 ADD SWAP2 PUSH2 0x2F8 JUMP JUMPDEST DUP3 ADD SWAP2 SWAP1 PUSH0 MSTORE PUSH1 0x20 PUSH0 KECCAK256 SWAP1 JUMPDEST DUP2 SLOAD DUP2 MSTORE SWAP1 PUSH1 0x1 ADD SWAP1 PUSH1 0x20 ADD DUP1 DUP4 GT PUSH2 0x2DB JUMPI DUP3 SWAP1 SUB PUSH1 0x1F AND DUP3 ADD SWAP2 JUMPDEST POP POP POP POP POP DUP2 MSTORE PUSH1 0x20 ADD PUSH1 0x1 DUP3 ADD DUP1 SLOAD PUSH2 0x311 SWAP1 PUSH2 0x9AB JUMP JUMPDEST DUP1 PUSH1 0x1F ADD PUSH1 0x20 DUP1 SWAP2 DIV MUL PUSH1 0x20 ADD PUSH1 0x40 MLOAD SWAP1 DUP2 ADD PUSH1 0x40 MSTORE DUP1 SWAP3 SWAP2 SWAP1 DUP2 DUP2 MSTORE PUSH1 0x20 ADD DUP3 DUP1 SLOAD PUSH2 0x33D SWAP1 PUSH2 0x9AB JUMP JUMPDEST DUP1 ISZERO PUSH2 0x388 JUMPI DUP1 PUSH1 0x1F LT PUSH2 0x35F JUMPI PUSH2 0x100 DUP1 DUP4 SLOAD DIV MUL DUP4 MSTORE SWAP2 PUSH1 0x20 ADD SWAP2 PUSH2 0x388 JUMP JUMPDEST DUP3 ADD SWAP2 SWAP1 PUSH0 MSTORE PUSH1 0x20 PUSH0 KECCAK256 SWAP1 JUMPDEST DUP2 SLOAD DUP2 MSTORE SWAP1 PUSH1 0x1 ADD SWAP1 PUSH1 0x20 ADD DUP1 DUP4 GT PUSH2 0x36B JUMPI DUP3 SWAP1 SUB PUSH1 0x1F AND DUP3 ADD SWAP2 JUMPDEST POP POP POP POP POP DUP2 MSTORE POP POP SWAP1 POP SWAP2 SWAP1 POP JUMP JUMPDEST PUSH2 0x3A0 PUSH2 0x59B JUMP JUMPDEST PUSH1 0x2 PUSH0 DUP4 DUP2 MSTORE PUSH1 0x20 ADD SWAP1 DUP2 MSTORE PUSH1 0x20 ADD PUSH0 KECCAK256 PUSH1 0x40 MLOAD DUP1 PUSH1 0x40 ADD PUSH1 0x40 MSTORE SWAP1 DUP2 PUSH0 DUP3 ADD DUP1 SLOAD PUSH2 0x3CB SWAP1 PUSH2 0x9AB JUMP JUMPDEST DUP1 PUSH1 0x1F ADD PUSH1 0x20 DUP1 SWAP2 DIV MUL PUSH1 0x20 ADD PUSH1 0x40 MLOAD SWAP1 DUP2 ADD PUSH1 0x40 MSTORE DUP1 SWAP3 SWAP2 SWAP1 DUP2 DUP2 MSTORE PUSH1 0x20 ADD DUP3 DUP1 SLOAD PUSH2 0x3F7 SWAP1 PUSH2 0x9AB JUMP JUMPDEST DUP1 ISZERO PUSH2 0x442 JUMPI DUP1 PUSH1 0x1F LT PUSH2 0x419 JUMPI PUSH2 0x100 DUP1 DUP4 SLOAD DIV MUL DUP4 MSTORE SWAP2 PUSH1 0x20 ADD SWAP2 PUSH2 0x442 JUMP JUMPDEST DUP3 ADD SWAP2 SWAP1 PUSH0 MSTORE PUSH1 0x20 PUSH0 KECCAK256 SWAP1 JUMPDEST DUP2 SLOAD DUP2 MSTORE SWAP1 PUSH1 0x1 ADD SWAP1 PUSH1 0x20 ADD DUP1 DUP4 GT PUSH2 0x425 JUMPI DUP3 SWAP1 SUB PUSH1 0x1F AND DUP3 ADD SWAP2 JUMPDEST POP POP POP POP POP DUP2 MSTORE PUSH1 0x20 ADD PUSH1 0x1 DUP3 ADD DUP1 SLOAD PUSH2 0x45B SWAP1 PUSH2 0x9AB JUMP JUMPDEST DUP1 PUSH1 0x1F ADD PUSH1 0x20 DUP1 SWAP2 DIV MUL PUSH1 0x20 ADD PUSH1 0x40 MLOAD SWAP1 DUP2 ADD PUSH1 0x40 MSTORE DUP1 SWAP3 SWAP2 SWAP1 DUP2 DUP2 MSTORE PUSH1 0x20 ADD DUP3 DUP1 SLOAD PUSH2 0x487 SWAP1 PUSH2 0x9AB JUMP JUMPDEST DUP1 ISZERO PUSH2 0x4D2 JUMPI DUP1 PUSH1 0x1F LT PUSH2 0x4A9 JUMPI PUSH2 0x100 DUP1 DUP4 SLOAD DIV MUL DUP4 MSTORE SWAP2 PUSH1 0x20 ADD SWAP2 PUSH2 0x4D2 JUMP JUMPDEST DUP3 ADD SWAP2 SWAP1 PUSH0 MSTORE PUSH1 0x20 PUSH0 KECCAK256 SWAP1 JUMPDEST DUP2 SLOAD DUP2 MSTORE SWAP1 PUSH1 0x1 ADD SWAP1 PUSH1 0x20 ADD DUP1 DUP4 GT PUSH2 0x4B5 JUMPI DUP3 SWAP1 SUB PUSH1 0x1F AND DUP3 ADD SWAP2 JUMPDEST POP POP POP POP POP DUP2 MSTORE POP POP SWAP1 POP SWAP2 SWAP1 POP JUMP JUMPDEST PUSH1 0x2 PUSH0 DUP3 DUP2 MSTORE PUSH1 0x20 ADD SWAP1 DUP2 MSTORE PUSH1 0x20 ADD PUSH0 KECCAK256 PUSH0 PUSH0 DUP3 ADD PUSH0 PUSH2 0x502 SWAP2 SWAP1 PUSH2 0x5B5 JUMP JUMPDEST PUSH1 0x1 DUP3 ADD PUSH0 PUSH2 0x511 SWAP2 SWAP1 PUSH2 0x5B5 JUMP JUMPDEST POP POP POP JUMP JUMPDEST PUSH1 0x40 MLOAD DUP1 PUSH1 0x40 ADD PUSH1 0x40 MSTORE DUP1 DUP5 DUP2 MSTORE PUSH1 0x20 ADD DUP4 DUP2 MSTORE POP PUSH0 PUSH0 DUP3 ADD MLOAD DUP2 PUSH0 ADD SWAP1 DUP2 PUSH2 0x53F SWAP2 SWAP1 PUSH2 0xB7B JUMP JUMPDEST POP PUSH1 0x20 DUP3 ADD MLOAD DUP2 PUSH1 0x1 ADD SWAP1 DUP2 PUSH2 0x555 SWAP2 SWAP1 PUSH2 0xB7B JUMP JUMPDEST POP SWAP1 POP POP PUSH0 PUSH1 0x2 PUSH0 DUP4 DUP2 MSTORE PUSH1 0x20 ADD SWAP1 DUP2 MSTORE PUSH1 0x20 ADD PUSH0 KECCAK256 PUSH0 DUP3 ADD DUP2 PUSH0 ADD SWAP1 DUP2 PUSH2 0x57D SWAP2 SWAP1 PUSH2 0xC5F JUMP JUMPDEST POP PUSH1 0x1 DUP3 ADD DUP2 PUSH1 0x1 ADD SWAP1 DUP2 PUSH2 0x592 SWAP2 SWAP1 PUSH2 0xC5F JUMP JUMPDEST POP SWAP1 POP POP POP POP POP JUMP JUMPDEST PUSH1 0x40 MLOAD DUP1 PUSH1 0x40 ADD PUSH1 0x40 MSTORE DUP1 PUSH1 0x60 DUP2 MSTORE PUSH1 0x20 ADD PUSH1 0x60 DUP2 MSTORE POP SWAP1 JUMP JUMPDEST POP DUP1 SLOAD PUSH2 0x5C1 SWAP1 PUSH2 0x9AB JUMP JUMPDEST PUSH0 DUP3 SSTORE DUP1 PUSH1 0x1F LT PUSH2 0x5D2 JUMPI POP PUSH2 0x5EF JUMP JUMPDEST PUSH1 0x1F ADD PUSH1 0x20 SWAP1 DIV SWAP1 PUSH0 MSTORE PUSH1 0x20 PUSH0 KECCAK256 SWAP1 DUP2 ADD SWAP1 PUSH2 0x5EE SWAP2 SWAP1 PUSH2 0x5F2 JUMP JUMPDEST JUMPDEST POP JUMP JUMPDEST JUMPDEST DUP1 DUP3 GT ISZERO PUSH2 0x609 JUMPI PUSH0 DUP2 PUSH0 SWAP1 SSTORE POP PUSH1 0x1 ADD PUSH2 0x5F3 JUMP JUMPDEST POP SWAP1 JUMP JUMPDEST PUSH0 PUSH1 0x40 MLOAD SWAP1 POP SWAP1 JUMP JUMPDEST PUSH0 PUSH0 REVERT JUMPDEST PUSH0 PUSH0 REVERT JUMPDEST PUSH0 DUP2 SWAP1 POP SWAP2 SWAP1 POP JUMP JUMPDEST PUSH2 0x630 DUP2 PUSH2 0x61E JUMP JUMPDEST DUP2 EQ PUSH2 0x63A JUMPI PUSH0 PUSH0 REVERT JUMPDEST POP JUMP JUMPDEST PUSH0 DUP2 CALLDATALOAD SWAP1 POP PUSH2 0x64B DUP2 PUSH2 0x627 JUMP JUMPDEST SWAP3 SWAP2 POP POP JUMP JUMPDEST PUSH0 PUSH1 0x20 DUP3 DUP5 SUB SLT ISZERO PUSH2 0x666 JUMPI PUSH2 0x665 PUSH2 0x616 JUMP JUMPDEST JUMPDEST PUSH0 PUSH2 0x673 DUP5 DUP3 DUP6 ADD PUSH2 0x63D JUMP JUMPDEST SWAP2 POP POP SWAP3 SWAP2 POP POP JUMP JUMPDEST PUSH0 DUP2 MLOAD SWAP1 POP SWAP2 SWAP1 POP JUMP JUMPDEST PUSH0 DUP3 DUP3 MSTORE PUSH1 0x20 DUP3 ADD SWAP1 POP SWAP3 SWAP2 POP POP JUMP JUMPDEST DUP3 DUP2 DUP4 MCOPY PUSH0 DUP4 DUP4 ADD MSTORE POP POP POP JUMP JUMPDEST PUSH0 PUSH1 0x1F NOT PUSH1 0x1F DUP4 ADD AND SWAP1 POP SWAP2 SWAP1 POP JUMP JUMPDEST PUSH0 PUSH2 0x6BE DUP3 PUSH2 0x67C JUMP JUMPDEST PUSH2 0x6C8 DUP2 DUP6 PUSH2 0x686 JUMP JUMPDEST SWAP4 POP PUSH2 0x6D8 DUP2 DUP6 PUSH1 0x20 DUP7 ADD PUSH2 0x696 JUMP JUMPDEST PUSH2 0x6E1 DUP2 PUSH2 0x6A4 JUMP JUMPDEST DUP5 ADD SWAP2 POP POP SWAP3 SWAP2 POP POP JUMP JUMPDEST PUSH0 PUSH1 0x40 DUP3 ADD SWAP1 POP DUP2 DUP2 SUB PUSH0 DUP4 ADD MSTORE PUSH2 0x704 DUP2 DUP6 PUSH2 0x6B4 JUMP JUMPDEST SWAP1 POP DUP2 DUP2 SUB PUSH1 0x20 DUP4 ADD MSTORE PUSH2 0x718 DUP2 DUP5 PUSH2 0x6B4 JUMP JUMPDEST SWAP1 POP SWAP4 SWAP3 POP POP POP JUMP JUMPDEST PUSH0 DUP3 DUP3 MSTORE PUSH1 0x20 DUP3 ADD SWAP1 POP SWAP3 SWAP2 POP POP JUMP JUMPDEST PUSH0 PUSH2 0x73B DUP3 PUSH2 0x67C JUMP JUMPDEST PUSH2 0x745 DUP2 DUP6 PUSH2 0x721 JUMP JUMPDEST SWAP4 POP PUSH2 0x755 DUP2 DUP6 PUSH1 0x20 DUP7 ADD PUSH2 0x696 JUMP JUMPDEST PUSH2 0x75E DUP2 PUSH2 0x6A4 JUMP JUMPDEST DUP5 ADD SWAP2 POP POP SWAP3 SWAP2 POP POP JUMP JUMPDEST PUSH0 PUSH1 0x40 DUP4 ADD PUSH0 DUP4 ADD MLOAD DUP5 DUP3 SUB PUSH0 DUP7 ADD MSTORE PUSH2 0x783 DUP3 DUP3 PUSH2 0x731 JUMP JUMPDEST SWAP2 POP POP PUSH1 0x20 DUP4 ADD MLOAD DUP5 DUP3 SUB PUSH1 0x20 DUP7 ADD MSTORE PUSH2 0x79D DUP3 DUP3 PUSH2 0x731 JUMP JUMPDEST SWAP2 POP POP DUP1 SWAP2 POP POP SWAP3 SWAP2 POP POP JUMP JUMPDEST PUSH0 PUSH1 0x20 DUP3 ADD SWAP1 POP DUP2 DUP2 SUB PUSH0 DUP4 ADD MSTORE PUSH2 0x7C2 DUP2 DUP5 PUSH2 0x769 JUMP JUMPDEST SWAP1 POP SWAP3 SWAP2 POP POP JUMP JUMPDEST PUSH0 PUSH0 REVERT JUMPDEST PUSH0 PUSH0 REVERT JUMPDEST PUSH32 0x4E487B7100000000000000000000000000000000000000000000000000000000 PUSH0 MSTORE PUSH1 0x41 PUSH1 0x4 MSTORE PUSH1 0x24 PUSH0 REVERT JUMPDEST PUSH2 0x808 DUP3 PUSH2 0x6A4 JUMP JUMPDEST DUP2 ADD DUP2 DUP2 LT PUSH8 0xFFFFFFFFFFFFFFFF DUP3 GT OR ISZERO PUSH2 0x827 JUMPI PUSH2 0x826 PUSH2 0x7D2 JUMP JUMPDEST JUMPDEST DUP1 PUSH1 0x40 MSTORE POP POP POP JUMP JUMPDEST PUSH0 PUSH2 0x839 PUSH2 0x60D JUMP JUMPDEST SWAP1 POP PUSH2 0x845 DUP3 DUP3 PUSH2 0x7FF JUMP JUMPDEST SWAP2 SWAP1 POP JUMP JUMPDEST PUSH0 PUSH8 0xFFFFFFFFFFFFFFFF DUP3 GT ISZERO PUSH2 0x864 JUMPI PUSH2 0x863 PUSH2 0x7D2 JUMP JUMPDEST JUMPDEST PUSH2 0x86D DUP3 PUSH2 0x6A4 JUMP JUMPDEST SWAP1 POP PUSH1 0x20 DUP2 ADD SWAP1 POP SWAP2 SWAP1 POP JUMP JUMPDEST DUP3 DUP2 DUP4 CALLDATACOPY PUSH0 DUP4 DUP4 ADD MSTORE POP POP POP JUMP JUMPDEST PUSH0 PUSH2 0x89A PUSH2 0x895 DUP5 PUSH2 0x84A JUMP JUMPDEST PUSH2 0x830 JUMP JUMPDEST SWAP1 POP DUP3 DUP2 MSTORE PUSH1 0x20 DUP2 ADD DUP5 DUP5 DUP5 ADD GT ISZERO PUSH2 0x8B6 JUMPI PUSH2 0x8B5 PUSH2 0x7CE JUMP JUMPDEST JUMPDEST PUSH2 0x8C1 DUP5 DUP3 DUP6 PUSH2 0x87A JUMP JUMPDEST POP SWAP4 SWAP3 POP POP POP JUMP JUMPDEST PUSH0 DUP3 PUSH1 0x1F DUP4 ADD SLT PUSH2 0x8DD JUMPI PUSH2 0x8DC PUSH2 0x7CA JUMP JUMPDEST JUMPDEST DUP2 CALLDATALOAD PUSH2 0x8ED DUP5 DUP3 PUSH1 0x20 DUP7 ADD PUSH2 0x888 JUMP JUMPDEST SWAP2 POP POP SWAP3 SWAP2 POP POP JUMP JUMPDEST PUSH0 PUSH0 PUSH0 PUSH1 0x60 DUP5 DUP7 SUB SLT ISZERO PUSH2 0x90D JUMPI PUSH2 0x90C PUSH2 0x616 JUMP JUMPDEST JUMPDEST PUSH0 DUP5 ADD CALLDATALOAD PUSH8 0xFFFFFFFFFFFFFFFF DUP2 GT ISZERO PUSH2 0x92A JUMPI PUSH2 0x929 PUSH2 0x61A JUMP JUMPDEST JUMPDEST PUSH2 0x936 DUP7 DUP3 DUP8 ADD PUSH2 0x8C9 JUMP JUMPDEST SWAP4 POP POP PUSH1 0x20 DUP5 ADD CALLDATALOAD PUSH8 0xFFFFFFFFFFFFFFFF DUP2 GT ISZERO PUSH2 0x957 JUMPI PUSH2 0x956 PUSH2 0x61A JUMP JUMPDEST JUMPDEST PUSH2 0x963 DUP7 DUP3 DUP8 ADD PUSH2 0x8C9 JUMP JUMPDEST SWAP3 POP POP PUSH1 0x40 PUSH2 0x974 DUP7 DUP3 DUP8 ADD PUSH2 0x63D JUMP JUMPDEST SWAP2 POP POP SWAP3 POP SWAP3 POP SWAP3 JUMP JUMPDEST PUSH32 0x4E487B7100000000000000000000000000000000000000000000000000000000 PUSH0 MSTORE PUSH1 0x22 PUSH1 0x4 MSTORE PUSH1 0x24 PUSH0 REVERT JUMPDEST PUSH0 PUSH1 0x2 DUP3 DIV SWAP1 POP PUSH1 0x1 DUP3 AND DUP1 PUSH2 0x9C2 JUMPI PUSH1 0x7F DUP3 AND SWAP2 POP JUMPDEST PUSH1 0x20 DUP3 LT DUP2 SUB PUSH2 0x9D5 JUMPI PUSH2 0x9D4 PUSH2 0x97E JUMP JUMPDEST JUMPDEST POP SWAP2 SWAP1 POP JUMP JUMPDEST PUSH0 DUP2 SWAP1 POP DUP2 PUSH0 MSTORE PUSH1 0x20 PUSH0 KECCAK256 SWAP1 POP SWAP2 SWAP1 POP JUMP JUMPDEST PUSH0 PUSH1 0x20 PUSH1 0x1F DUP4 ADD DIV SWAP1 POP SWAP2 SWAP1 POP JUMP JUMPDEST PUSH0 DUP3 DUP3 SHL SWAP1 POP SWAP3 SWAP2 POP POP JUMP JUMPDEST PUSH0 PUSH1 0x8 DUP4 MUL PUSH2 0xA37 PUSH32 0xFFFFFFFFFFFFFFFFFFFFFFFFFFFFFFFFFFFFFFFFFFFFFFFFFFFFFFFFFFFFFFFF DUP3 PUSH2 0x9FC JUMP JUMPDEST PUSH2 0xA41 DUP7 DUP4 PUSH2 0x9FC JUMP JUMPDEST SWAP6 POP DUP1 NOT DUP5 AND SWAP4 POP DUP1 DUP7 AND DUP5 OR SWAP3 POP POP POP SWAP4 SWAP3 POP POP POP JUMP JUMPDEST PUSH0 DUP2 SWAP1 POP SWAP2 SWAP1 POP JUMP JUMPDEST PUSH0 PUSH2 0xA7C PUSH2 0xA77 PUSH2 0xA72 DUP5 PUSH2 0x61E JUMP JUMPDEST PUSH2 0xA59 JUMP JUMPDEST PUSH2 0x61E JUMP JUMPDEST SWAP1 POP SWAP2 SWAP1 POP JUMP JUMPDEST PUSH0 DUP2 SWAP1 POP SWAP2 SWAP1 POP JUMP JUMPDEST PUSH2 0xA95 DUP4 PUSH2 0xA62 JUMP JUMPDEST PUSH2 0xAA9 PUSH2 0xAA1 DUP3 PUSH2 0xA83 JUMP JUMPDEST DUP5 DUP5 SLOAD PUSH2 0xA08 JUMP JUMPDEST DUP3 SSTORE POP POP POP POP JUMP JUMPDEST PUSH0 PUSH0 SWAP1 POP SWAP1 JUMP JUMPDEST PUSH2 0xAC0 PUSH2 0xAB1 JUMP JUMPDEST PUSH2 0xACB DUP2 DUP5 DUP5 PUSH2 0xA8C JUMP JUMPDEST POP POP POP JUMP JUMPDEST JUMPDEST DUP2 DUP2 LT ISZERO PUSH2 0xAEE JUMPI PUSH2 0xAE3 PUSH0 DUP3 PUSH2 0xAB8 JUMP JUMPDEST PUSH1 0x1 DUP2 ADD SWAP1 POP PUSH2 0xAD1 JUMP JUMPDEST POP POP JUMP JUMPDEST PUSH1 0x1F DUP3 GT ISZERO PUSH2 0xB33 JUMPI PUSH2 0xB04 DUP2 PUSH2 0x9DB JUMP JUMPDEST PUSH2 0xB0D DUP5 PUSH2 0x9ED JUMP JUMPDEST DUP2 ADD PUSH1 0x20 DUP6 LT ISZERO PUSH2 0xB1C JUMPI DUP2 SWAP1 POP JUMPDEST PUSH2 0xB30 PUSH2 0xB28 DUP6 PUSH2 0x9ED JUMP JUMPDEST DUP4 ADD DUP3 PUSH2 0xAD0 JUMP JUMPDEST POP POP JUMPDEST POP POP POP JUMP JUMPDEST PUSH0 DUP3 DUP3 SHR SWAP1 POP SWAP3 SWAP2 POP POP JUMP JUMPDEST PUSH0 PUSH2 0xB53 PUSH0 NOT DUP5 PUSH1 0x8 MUL PUSH2 0xB38 JUMP JUMPDEST NOT DUP1 DUP4 AND SWAP2 POP POP SWAP3 SWAP2 POP POP JUMP JUMPDEST PUSH0 PUSH2 0xB6B DUP4 DUP4 PUSH2 0xB44 JUMP JUMPDEST SWAP2 POP DUP3 PUSH1 0x2 MUL DUP3 OR SWAP1 POP SWAP3 SWAP2 POP POP JUMP JUMPDEST PUSH2 0xB84 DUP3 PUSH2 0x67C JUMP JUMPDEST PUSH8 0xFFFFFFFFFFFFFFFF DUP2 GT ISZERO PUSH2 0xB9D JUMPI PUSH2 0xB9C PUSH2 0x7D2 JUMP JUMPDEST JUMPDEST PUSH2 0xBA7 DUP3 SLOAD PUSH2 0x9AB JUMP JUMPDEST PUSH2 0xBB2 DUP3 DUP3 DUP6 PUSH2 0xAF2 JUMP JUMPDEST PUSH0 PUSH1 0x20 SWAP1 POP PUSH1 0x1F DUP4 GT PUSH1 0x1 DUP2 EQ PUSH2 0xBE3 JUMPI PUSH0 DUP5 ISZERO PUSH2 0xBD1 JUMPI DUP3 DUP8 ADD MLOAD SWAP1 POP JUMPDEST PUSH2 0xBDB DUP6 DUP3 PUSH2 0xB60 JUMP JUMPDEST DUP7 SSTORE POP PUSH2 0xC42 JUMP JUMPDEST PUSH1 0x1F NOT DUP5 AND PUSH2 0xBF1 DUP7 PUSH2 0x9DB JUMP JUMPDEST PUSH0 JUMPDEST DUP3 DUP2 LT ISZERO PUSH2 0xC18 JUMPI DUP5 DUP10 ADD MLOAD DUP3 SSTORE PUSH1 0x1 DUP3 ADD SWAP2 POP PUSH1 0x20 DUP6 ADD SWAP5 POP PUSH1 0x20 DUP2 ADD SWAP1 POP PUSH2 0xBF3 JUMP JUMPDEST DUP7 DUP4 LT ISZERO PUSH2 0xC35 JUMPI DUP5 DUP10 ADD MLOAD PUSH2 0xC31 PUSH1 0x1F DUP10 AND DUP3 PUSH2 0xB44 JUMP JUMPDEST DUP4 SSTORE POP JUMPDEST PUSH1 0x1 PUSH1 0x2 DUP9 MUL ADD DUP9 SSTORE POP POP POP JUMPDEST POP POP POP POP POP POP JUMP JUMPDEST PUSH0 DUP2 SLOAD SWAP1 POP PUSH2 0xC58 DUP2 PUSH2 0x9AB JUMP JUMPDEST SWAP1 POP SWAP2 SWAP1 POP JUMP JUMPDEST DUP2 DUP2 SUB PUSH2 0xC6D JUMPI POP POP PUSH2 0xD42 JUMP JUMPDEST PUSH2 0xC76 DUP3 PUSH2 0xC4A JUMP JUMPDEST PUSH8 0xFFFFFFFFFFFFFFFF DUP2 GT ISZERO PUSH2 0xC8F JUMPI PUSH2 0xC8E PUSH2 0x7D2 JUMP JUMPDEST JUMPDEST PUSH2 0xC99 DUP3 SLOAD PUSH2 0x9AB JUMP JUMPDEST PUSH2 0xCA4 DUP3 DUP3 DUP6 PUSH2 0xAF2 JUMP JUMPDEST PUSH0 PUSH1 0x1F DUP4 GT PUSH1 0x1 DUP2 EQ PUSH2 0xCD1 JUMPI PUSH0 DUP5 ISZERO PUSH2 0xCBF JUMPI DUP3 DUP8 ADD SLOAD SWAP1 POP JUMPDEST PUSH2 0xCC9 DUP6 DUP3 PUSH2 0xB60 JUMP JUMPDEST DUP7 SSTORE POP PUSH2 0xD3B JUMP JUMPDEST PUSH1 0x1F NOT DUP5 AND PUSH2 0xCDF DUP8 PUSH2 0x9DB JUMP JUMPDEST SWAP7 POP PUSH2 0xCEA DUP7 PUSH2 0x9DB JUMP JUMPDEST PUSH0 JUMPDEST DUP3 DUP2 LT ISZERO PUSH2 0xD11 JUMPI DUP5 DUP10 ADD SLOAD DUP3 SSTORE PUSH1 0x1 DUP3 ADD SWAP2 POP PUSH1 0x1 DUP6 ADD SWAP5 POP PUSH1 0x20 DUP2 ADD SWAP1 POP PUSH2 0xCEC JUMP JUMPDEST DUP7 DUP4 LT ISZERO PUSH2 0xD2E JUMPI DUP5 DUP10 ADD SLOAD PUSH2 0xD2A PUSH1 0x1F DUP10 AND DUP3 PUSH2 0xB44 JUMP JUMPDEST DUP4 SSTORE POP JUMPDEST PUSH1 0x1 PUSH1 0x2 DUP9 MUL ADD DUP9 SSTORE POP POP POP JUMPDEST POP POP POP POP POP POP JUMPDEST JUMP INVALID LOG2 PUSH5 0x6970667358 0x22 SLT KECCAK256 RJUMPI 0xC521 JUMPI SIGNEXTEND 0xAE 0xC2 0xDE 0x28 SHR 0x26 MULMOD PUSH29 0xD5F34C36AD759C09A4007BBB4526F4A4D034D364736F6C634300081E00 CALLER "
				},
				"gasEstimates": {
					"creation": {
						"codeDepositCost": "690000",
						"executionCost": "719",
						"totalCost": "690719"
					},
					"external": {
						"addMovie(string,string,uint256)": "infinite",
						"addMovie(uint256)": "infinite",
						"myMap(uint256)": "infinite",
						"remMov(uint256)": "infinite",
						"show(uint256)": "infinite"
					}
				},
				"methodIdentifiers": {
					"addMovie(string,string,uint256)": "f012666e",
					"addMovie(uint256)": "7404f9c7",
					"myMap(uint256)": "6af390aa",
					"remMov(uint256)": "cc1935b4",
					"show(uint256)": "8b514ed7"
				}
			},
			"storageLayout": {
				"storage": [
					{
						"astId": 9,
						"contract": "solidityCourse2/Module1/mappingStruct.sol:Mapping",
						"label": "movie",
						"offset": 0,
						"slot": "0",
						"type": "t_struct(Movie)6_storage"
					},
					{
						"astId": 14,
						"contract": "solidityCourse2/Module1/mappingStruct.sol:Mapping",
						"label": "myMap",
						"offset": 0,
						"slot": "2",
						"type": "t_mapping(t_uint256,t_struct(Movie)6_storage)"
					}
				],
				"types": {
					"t_mapping(t_uint256,t_struct(Movie)6_storage)": {
						"encoding": "mapping",
						"key": "t_uint256",
						"label": "mapping(uint256 => struct Mapping.Movie)",
						"numberOfBytes": "32",
						"value": "t_struct(Movie)6_storage"
					},
					"t_string_storage": {
						"encoding": "bytes",
						"label": "string",
						"numberOfBytes": "32"
					},
					"t_struct(Movie)6_storage": {
						"encoding": "inplace",
						"label": "struct Mapping.Movie",
						"members": [
							{
								"astId": 3,
								"contract": "solidityCourse2/Module1/mappingStruct.sol:Mapping",
								"label": "name",
								"offset": 0,
								"slot": "0",
								"type": "t_string_storage"
							},
							{
								"astId": 5,
								"contract": "solidityCourse2/Module1/mappingStruct.sol:Mapping",
								"label": "director",
								"offset": 0,
								"slot": "1",
								"type": "t_string_storage"
							}
						],
						"numberOfBytes": "64"
					},
					"t_uint256": {
						"encoding": "inplace",
						"label": "uint256",
						"numberOfBytes": "32"
					}
				}
			},
			"userdoc": {
				"kind": "user",
				"methods": {},
				"version": 1
			}
		}
	}
}