{
	"data": {
		"bytecode": {
			"linkReferences": {},
			"object": "60806040526040518060400160405280600481526020017f53776172000000000000000000000000000000000000000000000000000000008152506001908161004891906102bc565b50348015610054575f80fd5b50604051610ab8380380610ab8833981810160405281019061007691906103b9565b805f81905550506103e4565b5f81519050919050565b7f4e487b71000000000000000000000000000000000000000000000000000000005f52604160045260245ffd5b7f4e487b71000000000000000000000000000000000000000000000000000000005f52602260045260245ffd5b5f60028204905060018216806100fd57607f821691505b6020821081036101105761010f6100b9565b5b50919050565b5f819050815f5260205f209050919050565b5f6020601f8301049050919050565b5f82821b905092915050565b5f600883026101727fffffffffffffffffffffffffffffffffffffffffffffffffffffffffffffffff82610137565b61017c8683610137565b95508019841693508086168417925050509392505050565b5f819050919050565b5f819050919050565b5f6101c06101bb6101b684610194565b61019d565b610194565b9050919050565b5f819050919050565b6101d9836101a6565b6101ed6101e5826101c7565b848454610143565b825550505050565b5f90565b6102016101f5565b61020c8184846101d0565b505050565b5b8181101561022f576102245f826101f9565b600181019050610212565b5050565b601f8211156102745761024581610116565b61024e84610128565b8101602085101561025d578190505b61027161026985610128565b830182610211565b50505b505050565b5f82821c905092915050565b5f6102945f1984600802610279565b1980831691505092915050565b5f6102ac8383610285565b9150826002028217905092915050565b6102c582610082565b67ffffffffffffffff8111156102de576102dd61008c565b5b6102e882546100e6565b6102f3828285610233565b5f60209050601f831160018114610324575f8415610312578287015190505b61031c85826102a1565b865550610383565b601f19841661033286610116565b5f5b8281101561035957848901518255600182019150602085019450602081019050610334565b868310156103765784890151610372601f891682610285565b8355505b6001600288020188555050505b505050505050565b5f80fd5b61039881610194565b81146103a2575f80fd5b50565b5f815190506103b38161038f565b92915050565b5f602082840312156103ce576103cd61038b565b5b5f6103db848285016103a5565b91505092915050565b6106c7806103f15f395ff3fe608060405234801561000f575f80fd5b506004361061003f575f3560e01c806306fdde031461004357806318562dae14610061578063262a9dff1461007d575b5f80fd5b61004b61009b565b60405161005891906101b6565b60405180910390f35b61007b60048036038101906100769190610346565b610127565b005b610085610141565b60405161009291906103af565b60405180910390f35b600180546100a8906103f5565b80601f01602080910402602001604051908101604052809291908181526020018280546100d4906103f5565b801561011f5780601f106100f65761010080835404028352916020019161011f565b820191905f5260205f20905b81548152906001019060200180831161010257829003601f168201915b505050505081565b815f81905550806001908161013c91906105c2565b505050565b5f5481565b5f81519050919050565b5f82825260208201905092915050565b8281835e5f83830152505050565b5f601f19601f8301169050919050565b5f61018882610146565b6101928185610150565b93506101a2818560208601610160565b6101ab8161016e565b840191505092915050565b5f6020820190508181035f8301526101ce818461017e565b905092915050565b5f604051905090565b5f80fd5b5f80fd5b5f819050919050565b6101f9816101e7565b8114610203575f80fd5b50565b5f81359050610214816101f0565b92915050565b5f80fd5b5f80fd5b7f4e487b71000000000000000000000000000000000000000000000000000000005f52604160045260245ffd5b6102588261016e565b810181811067ffffffffffffffff8211171561027757610276610222565b5b80604052505050565b5f6102896101d6565b9050610295828261024f565b919050565b5f67ffffffffffffffff8211156102b4576102b3610222565b5b6102bd8261016e565b9050602081019050919050565b828183375f83830152505050565b5f6102ea6102e58461029a565b610280565b9050828152602081018484840111156103065761030561021e565b5b6103118482856102ca565b509392505050565b5f82601f83011261032d5761032c61021a565b5b813561033d8482602086016102d8565b91505092915050565b5f806040838503121561035c5761035b6101df565b5b5f61036985828601610206565b925050602083013567ffffffffffffffff81111561038a576103896101e3565b5b61039685828601610319565b9150509250929050565b6103a9816101e7565b82525050565b5f6020820190506103c25f8301846103a0565b92915050565b7f4e487b71000000000000000000000000000000000000000000000000000000005f52602260045260245ffd5b5f600282049050600182168061040c57607f821691505b60208210810361041f5761041e6103c8565b5b50919050565b5f819050815f5260205f209050919050565b5f6020601f8301049050919050565b5f82821b905092915050565b5f600883026104817fffffffffffffffffffffffffffffffffffffffffffffffffffffffffffffffff82610446565b61048b8683610446565b95508019841693508086168417925050509392505050565b5f819050919050565b5f6104c66104c16104bc846101e7565b6104a3565b6101e7565b9050919050565b5f819050919050565b6104df836104ac565b6104f36104eb826104cd565b848454610452565b825550505050565b5f90565b6105076104fb565b6105128184846104d6565b505050565b5b818110156105355761052a5f826104ff565b600181019050610518565b5050565b601f82111561057a5761054b81610425565b61055484610437565b81016020851015610563578190505b61057761056f85610437565b830182610517565b50505b505050565b5f82821c905092915050565b5f61059a5f198460080261057f565b1980831691505092915050565b5f6105b2838361058b565b9150826002028217905092915050565b6105cb82610146565b67ffffffffffffffff8111156105e4576105e3610222565b5b6105ee82546103f5565b6105f9828285610539565b5f60209050601f83116001811461062a575f8415610618578287015190505b61062285826105a7565b865550610689565b601f19841661063886610425565b5f5b8281101561065f5784890151825560018201915060208501945060208101905061063a565b8683101561067c5784890151610678601f89168261058b565b8355505b6001600288020188555050505b50505050505056fea2646970667358221220c56c95a6854f3497178344ec37e402db99438abe4ad46758fe5b2b12d8fe82ef64736f6c634300081a0033",
			"opcodes": "PUSH1 0x80 PUSH1 0x40 MSTORE PUSH1 0x40 MLOAD DUP1 PUSH1 0x40 ADD PUSH1 0x40 MSTORE DUP1 PUSH1 0x4 DUP2 MSTORE PUSH1 0x20 ADD PUSH32 0x5377617200000000000000000000000000000000000000000000000000000000 DUP2 MSTORE POP PUSH1 0x1 SWAP1 DUP2 PUSH2 0x48 SWAP2 SWAP1 PUSH2 0x2BC JUMP JUMPDEST POP CALLVALUE DUP1 ISZERO PUSH2 0x54 JUMPI PUSH0 DUP1 REVERT JUMPDEST POP PUSH1 0x40 MLOAD PUSH2 0xAB8 CODESIZE SUB DUP1 PUSH2 0xAB8 DUP4 CODECOPY DUP2 DUP2 ADD PUSH1 0x40 MSTORE DUP2 ADD SWAP1 PUSH2 0x76 SWAP2 SWAP1 PUSH2 0x3B9 JUMP JUMPDEST DUP1 PUSH0 DUP2 SWAP1 SSTORE POP POP PUSH2 0x3E4 JUMP JUMPDEST PUSH0 DUP2 MLOAD SWAP1 POP SWAP2 SWAP1 POP JUMP JUMPDEST PUSH32 0x4E487B7100000000000000000000000000000000000000000000000000000000 PUSH0 MSTORE PUSH1 0x41 PUSH1 0x4 MSTORE PUSH1 0x24 PUSH0 REVERT JUMPDEST PUSH32 0x4E487B7100000000000000000000000000000000000000000000000000000000 PUSH0 MSTORE PUSH1 0x22 PUSH1 0x4 MSTORE PUSH1 0x24 PUSH0 REVERT JUMPDEST PUSH0 PUSH1 0x2 DUP3 DIV SWAP1 POP PUSH1 0x1 DUP3 AND DUP1 PUSH2 0xFD JUMPI PUSH1 0x7F DUP3 AND SWAP2 POP JUMPDEST PUSH1 0x20 DUP3 LT DUP2 SUB PUSH2 0x110 JUMPI PUSH2 0x10F PUSH2 0xB9 JUMP JUMPDEST JUMPDEST POP SWAP2 SWAP1 POP JUMP JUMPDEST PUSH0 DUP2 SWAP1 POP DUP2 PUSH0 MSTORE PUSH1 0x20 PUSH0 KECCAK256 SWAP1 POP SWAP2 SWAP1 POP JUMP JUMPDEST PUSH0 PUSH1 0x20 PUSH1 0x1F DUP4 ADD DIV SWAP1 POP SWAP2 SWAP1 POP JUMP JUMPDEST PUSH0 DUP3 DUP3 SHL SWAP1 POP SWAP3 SWAP2 POP POP JUMP JUMPDEST PUSH0 PUSH1 0x8 DUP4 MUL PUSH2 0x172 PUSH32 0xFFFFFFFFFFFFFFFFFFFFFFFFFFFFFFFFFFFFFFFFFFFFFFFFFFFFFFFFFFFFFFFF DUP3 PUSH2 0x137 JUMP JUMPDEST PUSH2 0x17C DUP7 DUP4 PUSH2 0x137 JUMP JUMPDEST SWAP6 POP DUP1 NOT DUP5 AND SWAP4 POP DUP1 DUP7 AND DUP5 OR SWAP3 POP POP POP SWAP4 SWAP3 POP POP POP JUMP JUMPDEST PUSH0 DUP2 SWAP1 POP SWAP2 SWAP1 POP JUMP JUMPDEST PUSH0 DUP2 SWAP1 POP SWAP2 SWAP1 POP JUMP JUMPDEST PUSH0 PUSH2 0x1C0 PUSH2 0x1BB PUSH2 0x1B6 DUP5 PUSH2 0x194 JUMP JUMPDEST PUSH2 0x19D JUMP JUMPDEST PUSH2 0x194 JUMP JUMPDEST SWAP1 POP SWAP2 SWAP1 POP JUMP JUMPDEST PUSH0 DUP2 SWAP1 POP SWAP2 SWAP1 POP JUMP JUMPDEST PUSH2 0x1D9 DUP4 PUSH2 0x1A6 JUMP JUMPDEST PUSH2 0x1ED PUSH2 0x1E5 DUP3 PUSH2 0x1C7 JUMP JUMPDEST DUP5 DUP5 SLOAD PUSH2 0x143 JUMP JUMPDEST DUP3 SSTORE POP POP POP POP JUMP JUMPDEST PUSH0 SWAP1 JUMP JUMPDEST PUSH2 0x201 PUSH2 0x1F5 JUMP JUMPDEST PUSH2 0x20C DUP2 DUP5 DUP5 PUSH2 0x1D0 JUMP JUMPDEST POP POP POP JUMP JUMPDEST JUMPDEST DUP2 DUP2 LT ISZERO PUSH2 0x22F JUMPI PUSH2 0x224 PUSH0 DUP3 PUSH2 0x1F9 JUMP JUMPDEST PUSH1 0x1 DUP2 ADD SWAP1 POP PUSH2 0x212 JUMP JUMPDEST POP POP JUMP JUMPDEST PUSH1 0x1F DUP3 GT ISZERO PUSH2 0x274 JUMPI PUSH2 0x245 DUP2 PUSH2 0x116 JUMP JUMPDEST PUSH2 0x24E DUP5 PUSH2 0x128 JUMP JUMPDEST DUP2 ADD PUSH1 0x20 DUP6 LT ISZERO PUSH2 0x25D JUMPI DUP2 SWAP1 POP JUMPDEST PUSH2 0x271 PUSH2 0x269 DUP6 PUSH2 0x128 JUMP JUMPDEST DUP4 ADD DUP3 PUSH2 0x211 JUMP JUMPDEST POP POP JUMPDEST POP POP POP JUMP JUMPDEST PUSH0 DUP3 DUP3 SHR SWAP1 POP SWAP3 SWAP2 POP POP JUMP JUMPDEST PUSH0 PUSH2 0x294 PUSH0 NOT DUP5 PUSH1 0x8 MUL PUSH2 0x279 JUMP JUMPDEST NOT DUP1 DUP4 AND SWAP2 POP POP SWAP3 SWAP2 POP POP JUMP JUMPDEST PUSH0 PUSH2 0x2AC DUP4 DUP4 PUSH2 0x285 JUMP JUMPDEST SWAP2 POP DUP3 PUSH1 0x2 MUL DUP3 OR SWAP1 POP SWAP3 SWAP2 POP POP JUMP JUMPDEST PUSH2 0x2C5 DUP3 PUSH2 0x82 JUMP JUMPDEST PUSH8 0xFFFFFFFFFFFFFFFF DUP2 GT ISZERO PUSH2 0x2DE JUMPI PUSH2 0x2DD PUSH2 0x8C JUMP JUMPDEST JUMPDEST PUSH2 0x2E8 DUP3 SLOAD PUSH2 0xE6 JUMP JUMPDEST PUSH2 0x2F3 DUP3 DUP3 DUP6 PUSH2 0x233 JUMP JUMPDEST PUSH0 PUSH1 0x20 SWAP1 POP PUSH1 0x1F DUP4 GT PUSH1 0x1 DUP2 EQ PUSH2 0x324 JUMPI PUSH0 DUP5 ISZERO PUSH2 0x312 JUMPI DUP3 DUP8 ADD MLOAD SWAP1 POP JUMPDEST PUSH2 0x31C DUP6 DUP3 PUSH2 0x2A1 JUMP JUMPDEST DUP7 SSTORE POP PUSH2 0x383 JUMP JUMPDEST PUSH1 0x1F NOT DUP5 AND PUSH2 0x332 DUP7 PUSH2 0x116 JUMP JUMPDEST PUSH0 JUMPDEST DUP3 DUP2 LT ISZERO PUSH2 0x359 JUMPI DUP5 DUP10 ADD MLOAD DUP3 SSTORE PUSH1 0x1 DUP3 ADD SWAP2 POP PUSH1 0x20 DUP6 ADD SWAP5 POP PUSH1 0x20 DUP2 ADD SWAP1 POP PUSH2 0x334 JUMP JUMPDEST DUP7 DUP4 LT ISZERO PUSH2 0x376 JUMPI DUP5 DUP10 ADD MLOAD PUSH2 0x372 PUSH1 0x1F DUP10 AND DUP3 PUSH2 0x285 JUMP JUMPDEST DUP4 SSTORE POP JUMPDEST PUSH1 0x1 PUSH1 0x2 DUP9 MUL ADD DUP9 SSTORE POP POP POP JUMPDEST POP POP POP POP POP POP JUMP JUMPDEST PUSH0 DUP1 REVERT JUMPDEST PUSH2 0x398 DUP2 PUSH2 0x194 JUMP JUMPDEST DUP2 EQ PUSH2 0x3A2 JUMPI PUSH0 DUP1 REVERT JUMPDEST POP JUMP JUMPDEST PUSH0 DUP2 MLOAD SWAP1 POP PUSH2 0x3B3 DUP2 PUSH2 0x38F JUMP JUMPDEST SWAP3 SWAP2 POP POP JUMP JUMPDEST PUSH0 PUSH1 0x20 DUP3 DUP5 SUB SLT ISZERO PUSH2 0x3CE JUMPI PUSH2 0x3CD PUSH2 0x38B JUMP JUMPDEST JUMPDEST PUSH0 PUSH2 0x3DB DUP5 DUP3 DUP6 ADD PUSH2 0x3A5 JUMP JUMPDEST SWAP2 POP POP SWAP3 SWAP2 POP POP JUMP JUMPDEST PUSH2 0x6C7 DUP1 PUSH2 0x3F1 PUSH0 CODECOPY PUSH0 RETURN INVALID PUSH1 0x80 PUSH1 0x40 MSTORE CALLVALUE DUP1 ISZERO PUSH2 0xF JUMPI PUSH0 DUP1 REVERT JUMPDEST POP PUSH1 0x4 CALLDATASIZE LT PUSH2 0x3F JUMPI PUSH0 CALLDATALOAD PUSH1 0xE0 SHR DUP1 PUSH4 0x6FDDE03 EQ PUSH2 0x43 JUMPI DUP1 PUSH4 0x18562DAE EQ PUSH2 0x61 JUMPI DUP1 PUSH4 0x262A9DFF EQ PUSH2 0x7D JUMPI JUMPDEST PUSH0 DUP1 REVERT JUMPDEST PUSH2 0x4B PUSH2 0x9B JUMP JUMPDEST PUSH1 0x40 MLOAD PUSH2 0x58 SWAP2 SWAP1 PUSH2 0x1B6 JUMP JUMPDEST PUSH1 0x40 MLOAD DUP1 SWAP2 SUB SWAP1 RETURN JUMPDEST PUSH2 0x7B PUSH1 0x4 DUP1 CALLDATASIZE SUB DUP2 ADD SWAP1 PUSH2 0x76 SWAP2 SWAP1 PUSH2 0x346 JUMP JUMPDEST PUSH2 0x127 JUMP JUMPDEST STOP JUMPDEST PUSH2 0x85 PUSH2 0x141 JUMP JUMPDEST PUSH1 0x40 MLOAD PUSH2 0x92 SWAP2 SWAP1 PUSH2 0x3AF JUMP JUMPDEST PUSH1 0x40 MLOAD DUP1 SWAP2 SUB SWAP1 RETURN JUMPDEST PUSH1 0x1 DUP1 SLOAD PUSH2 0xA8 SWAP1 PUSH2 0x3F5 JUMP JUMPDEST DUP1 PUSH1 0x1F ADD PUSH1 0x20 DUP1 SWAP2 DIV MUL PUSH1 0x20 ADD PUSH1 0x40 MLOAD SWAP1 DUP2 ADD PUSH1 0x40 MSTORE DUP1 SWAP3 SWAP2 SWAP1 DUP2 DUP2 MSTORE PUSH1 0x20 ADD DUP3 DUP1 SLOAD PUSH2 0xD4 SWAP1 PUSH2 0x3F5 JUMP JUMPDEST DUP1 ISZERO PUSH2 0x11F JUMPI DUP1 PUSH1 0x1F LT PUSH2 0xF6 JUMPI PUSH2 0x100 DUP1 DUP4 SLOAD DIV MUL DUP4 MSTORE SWAP2 PUSH1 0x20 ADD SWAP2 PUSH2 0x11F JUMP JUMPDEST DUP3 ADD SWAP2 SWAP1 PUSH0 MSTORE PUSH1 0x20 PUSH0 KECCAK256 SWAP1 JUMPDEST DUP2 SLOAD DUP2 MSTORE SWAP1 PUSH1 0x1 ADD SWAP1 PUSH1 0x20 ADD DUP1 DUP4 GT PUSH2 0x102 JUMPI DUP3 SWAP1 SUB PUSH1 0x1F AND DUP3 ADD SWAP2 JUMPDEST POP POP POP POP POP DUP2 JUMP JUMPDEST DUP2 PUSH0 DUP2 SWAP1 SSTORE POP DUP1 PUSH1 0x1 SWAP1 DUP2 PUSH2 0x13C SWAP2 SWAP1 PUSH2 0x5C2 JUMP JUMPDEST POP POP POP JUMP JUMPDEST PUSH0 SLOAD DUP2 JUMP JUMPDEST PUSH0 DUP2 MLOAD SWAP1 POP SWAP2 SWAP1 POP JUMP JUMPDEST PUSH0 DUP3 DUP3 MSTORE PUSH1 0x20 DUP3 ADD SWAP1 POP SWAP3 SWAP2 POP POP JUMP JUMPDEST DUP3 DUP2 DUP4 MCOPY PUSH0 DUP4 DUP4 ADD MSTORE POP POP POP JUMP JUMPDEST PUSH0 PUSH1 0x1F NOT PUSH1 0x1F DUP4 ADD AND SWAP1 POP SWAP2 SWAP1 POP JUMP JUMPDEST PUSH0 PUSH2 0x188 DUP3 PUSH2 0x146 JUMP JUMPDEST PUSH2 0x192 DUP2 DUP6 PUSH2 0x150 JUMP JUMPDEST SWAP4 POP PUSH2 0x1A2 DUP2 DUP6 PUSH1 0x20 DUP7 ADD PUSH2 0x160 JUMP JUMPDEST PUSH2 0x1AB DUP2 PUSH2 0x16E JUMP JUMPDEST DUP5 ADD SWAP2 POP POP SWAP3 SWAP2 POP POP JUMP JUMPDEST PUSH0 PUSH1 0x20 DUP3 ADD SWAP1 POP DUP2 DUP2 SUB PUSH0 DUP4 ADD MSTORE PUSH2 0x1CE DUP2 DUP5 PUSH2 0x17E JUMP JUMPDEST SWAP1 POP SWAP3 SWAP2 POP POP JUMP JUMPDEST PUSH0 PUSH1 0x40 MLOAD SWAP1 POP SWAP1 JUMP JUMPDEST PUSH0 DUP1 REVERT JUMPDEST PUSH0 DUP1 REVERT JUMPDEST PUSH0 DUP2 SWAP1 POP SWAP2 SWAP1 POP JUMP JUMPDEST PUSH2 0x1F9 DUP2 PUSH2 0x1E7 JUMP JUMPDEST DUP2 EQ PUSH2 0x203 JUMPI PUSH0 DUP1 REVERT JUMPDEST POP JUMP JUMPDEST PUSH0 DUP2 CALLDATALOAD SWAP1 POP PUSH2 0x214 DUP2 PUSH2 0x1F0 JUMP JUMPDEST SWAP3 SWAP2 POP POP JUMP JUMPDEST PUSH0 DUP1 REVERT JUMPDEST PUSH0 DUP1 REVERT JUMPDEST PUSH32 0x4E487B7100000000000000000000000000000000000000000000000000000000 PUSH0 MSTORE PUSH1 0x41 PUSH1 0x4 MSTORE PUSH1 0x24 PUSH0 REVERT JUMPDEST PUSH2 0x258 DUP3 PUSH2 0x16E JUMP JUMPDEST DUP2 ADD DUP2 DUP2 LT PUSH8 0xFFFFFFFFFFFFFFFF DUP3 GT OR ISZERO PUSH2 0x277 JUMPI PUSH2 0x276 PUSH2 0x222 JUMP JUMPDEST JUMPDEST DUP1 PUSH1 0x40 MSTORE POP POP POP JUMP JUMPDEST PUSH0 PUSH2 0x289 PUSH2 0x1D6 JUMP JUMPDEST SWAP1 POP PUSH2 0x295 DUP3 DUP3 PUSH2 0x24F JUMP JUMPDEST SWAP2 SWAP1 POP JUMP JUMPDEST PUSH0 PUSH8 0xFFFFFFFFFFFFFFFF DUP3 GT ISZERO PUSH2 0x2B4 JUMPI PUSH2 0x2B3 PUSH2 0x222 JUMP JUMPDEST JUMPDEST PUSH2 0x2BD DUP3 PUSH2 0x16E JUMP JUMPDEST SWAP1 POP PUSH1 0x20 DUP2 ADD SWAP1 POP SWAP2 SWAP1 POP JUMP JUMPDEST DUP3 DUP2 DUP4 CALLDATACOPY PUSH0 DUP4 DUP4 ADD MSTORE POP POP POP JUMP JUMPDEST PUSH0 PUSH2 0x2EA PUSH2 0x2E5 DUP5 PUSH2 0x29A JUMP JUMPDEST PUSH2 0x280 JUMP JUMPDEST SWAP1 POP DUP3 DUP2 MSTORE PUSH1 0x20 DUP2 ADD DUP5 DUP5 DUP5 ADD GT ISZERO PUSH2 0x306 JUMPI PUSH2 0x305 PUSH2 0x21E JUMP JUMPDEST JUMPDEST PUSH2 0x311 DUP5 DUP3 DUP6 PUSH2 0x2CA JUMP JUMPDEST POP SWAP4 SWAP3 POP POP POP JUMP JUMPDEST PUSH0 DUP3 PUSH1 0x1F DUP4 ADD SLT PUSH2 0x32D JUMPI PUSH2 0x32C PUSH2 0x21A JUMP JUMPDEST JUMPDEST DUP2 CALLDATALOAD PUSH2 0x33D DUP5 DUP3 PUSH1 0x20 DUP7 ADD PUSH2 0x2D8 JUMP JUMPDEST SWAP2 POP POP SWAP3 SWAP2 POP POP JUMP JUMPDEST PUSH0 DUP1 PUSH1 0x40 DUP4 DUP6 SUB SLT ISZERO PUSH2 0x35C JUMPI PUSH2 0x35B PUSH2 0x1DF JUMP JUMPDEST JUMPDEST PUSH0 PUSH2 0x369 DUP6 DUP3 DUP7 ADD PUSH2 0x206 JUMP JUMPDEST SWAP3 POP POP PUSH1 0x20 DUP4 ADD CALLDATALOAD PUSH8 0xFFFFFFFFFFFFFFFF DUP2 GT ISZERO PUSH2 0x38A JUMPI PUSH2 0x389 PUSH2 0x1E3 JUMP JUMPDEST JUMPDEST PUSH2 0x396 DUP6 DUP3 DUP7 ADD PUSH2 0x319 JUMP JUMPDEST SWAP2 POP POP SWAP3 POP SWAP3 SWAP1 POP JUMP JUMPDEST PUSH2 0x3A9 DUP2 PUSH2 0x1E7 JUMP JUMPDEST DUP3 MSTORE POP POP JUMP JUMPDEST PUSH0 PUSH1 0x20 DUP3 ADD SWAP1 POP PUSH2 0x3C2 PUSH0 DUP4 ADD DUP5 PUSH2 0x3A0 JUMP JUMPDEST SWAP3 SWAP2 POP POP JUMP JUMPDEST PUSH32 0x4E487B7100000000000000000000000000000000000000000000000000000000 PUSH0 MSTORE PUSH1 0x22 PUSH1 0x4 MSTORE PUSH1 0x24 PUSH0 REVERT JUMPDEST PUSH0 PUSH1 0x2 DUP3 DIV SWAP1 POP PUSH1 0x1 DUP3 AND DUP1 PUSH2 0x40C JUMPI PUSH1 0x7F DUP3 AND SWAP2 POP JUMPDEST PUSH1 0x20 DUP3 LT DUP2 SUB PUSH2 0x41F JUMPI PUSH2 0x41E PUSH2 0x3C8 JUMP JUMPDEST JUMPDEST POP SWAP2 SWAP1 POP JUMP JUMPDEST PUSH0 DUP2 SWAP1 POP DUP2 PUSH0 MSTORE PUSH1 0x20 PUSH0 KECCAK256 SWAP1 POP SWAP2 SWAP1 POP JUMP JUMPDEST PUSH0 PUSH1 0x20 PUSH1 0x1F DUP4 ADD DIV SWAP1 POP SWAP2 SWAP1 POP JUMP JUMPDEST PUSH0 DUP3 DUP3 SHL SWAP1 POP SWAP3 SWAP2 POP POP JUMP JUMPDEST PUSH0 PUSH1 0x8 DUP4 MUL PUSH2 0x481 PUSH32 0xFFFFFFFFFFFFFFFFFFFFFFFFFFFFFFFFFFFFFFFFFFFFFFFFFFFFFFFFFFFFFFFF DUP3 PUSH2 0x446 JUMP JUMPDEST PUSH2 0x48B DUP7 DUP4 PUSH2 0x446 JUMP JUMPDEST SWAP6 POP DUP1 NOT DUP5 AND SWAP4 POP DUP1 DUP7 AND DUP5 OR SWAP3 POP POP POP SWAP4 SWAP3 POP POP POP JUMP JUMPDEST PUSH0 DUP2 SWAP1 POP SWAP2 SWAP1 POP JUMP JUMPDEST PUSH0 PUSH2 0x4C6 PUSH2 0x4C1 PUSH2 0x4BC DUP5 PUSH2 0x1E7 JUMP JUMPDEST PUSH2 0x4A3 JUMP JUMPDEST PUSH2 0x1E7 JUMP JUMPDEST SWAP1 POP SWAP2 SWAP1 POP JUMP JUMPDEST PUSH0 DUP2 SWAP1 POP SWAP2 SWAP1 POP JUMP JUMPDEST PUSH2 0x4DF DUP4 PUSH2 0x4AC JUMP JUMPDEST PUSH2 0x4F3 PUSH2 0x4EB DUP3 PUSH2 0x4CD JUMP JUMPDEST DUP5 DUP5 SLOAD PUSH2 0x452 JUMP JUMPDEST DUP3 SSTORE POP POP POP POP JUMP JUMPDEST PUSH0 SWAP1 JUMP JUMPDEST PUSH2 0x507 PUSH2 0x4FB JUMP JUMPDEST PUSH2 0x512 DUP2 DUP5 DUP5 PUSH2 0x4D6 JUMP JUMPDEST POP POP POP JUMP JUMPDEST JUMPDEST DUP2 DUP2 LT ISZERO PUSH2 0x535 JUMPI PUSH2 0x52A PUSH0 DUP3 PUSH2 0x4FF JUMP JUMPDEST PUSH1 0x1 DUP2 ADD SWAP1 POP PUSH2 0x518 JUMP JUMPDEST POP POP JUMP JUMPDEST PUSH1 0x1F DUP3 GT ISZERO PUSH2 0x57A JUMPI PUSH2 0x54B DUP2 PUSH2 0x425 JUMP JUMPDEST PUSH2 0x554 DUP5 PUSH2 0x437 JUMP JUMPDEST DUP2 ADD PUSH1 0x20 DUP6 LT ISZERO PUSH2 0x563 JUMPI DUP2 SWAP1 POP JUMPDEST PUSH2 0x577 PUSH2 0x56F DUP6 PUSH2 0x437 JUMP JUMPDEST DUP4 ADD DUP3 PUSH2 0x517 JUMP JUMPDEST POP POP JUMPDEST POP POP POP JUMP JUMPDEST PUSH0 DUP3 DUP3 SHR SWAP1 POP SWAP3 SWAP2 POP POP JUMP JUMPDEST PUSH0 PUSH2 0x59A PUSH0 NOT DUP5 PUSH1 0x8 MUL PUSH2 0x57F JUMP JUMPDEST NOT DUP1 DUP4 AND SWAP2 POP POP SWAP3 SWAP2 POP POP JUMP JUMPDEST PUSH0 PUSH2 0x5B2 DUP4 DUP4 PUSH2 0x58B JUMP JUMPDEST SWAP2 POP DUP3 PUSH1 0x2 MUL DUP3 OR SWAP1 POP SWAP3 SWAP2 POP POP JUMP JUMPDEST PUSH2 0x5CB DUP3 PUSH2 0x146 JUMP JUMPDEST PUSH8 0xFFFFFFFFFFFFFFFF DUP2 GT ISZERO PUSH2 0x5E4 JUMPI PUSH2 0x5E3 PUSH2 0x222 JUMP JUMPDEST JUMPDEST PUSH2 0x5EE DUP3 SLOAD PUSH2 0x3F5 JUMP JUMPDEST PUSH2 0x5F9 DUP3 DUP3 DUP6 PUSH2 0x539 JUMP JUMPDEST PUSH0 PUSH1 0x20 SWAP1 POP PUSH1 0x1F DUP4 GT PUSH1 0x1 DUP2 EQ PUSH2 0x62A JUMPI PUSH0 DUP5 ISZERO PUSH2 0x618 JUMPI DUP3 DUP8 ADD MLOAD SWAP1 POP JUMPDEST PUSH2 0x622 DUP6 DUP3 PUSH2 0x5A7 JUMP JUMPDEST DUP7 SSTORE POP PUSH2 0x689 JUMP JUMPDEST PUSH1 0x1F NOT DUP5 AND PUSH2 0x638 DUP7 PUSH2 0x425 JUMP JUMPDEST PUSH0 JUMPDEST DUP3 DUP2 LT ISZERO PUSH2 0x65F JUMPI DUP5 DUP10 ADD MLOAD DUP3 SSTORE PUSH1 0x1 DUP3 ADD SWAP2 POP PUSH1 0x20 DUP6 ADD SWAP5 POP PUSH1 0x20 DUP2 ADD SWAP1 POP PUSH2 0x63A JUMP JUMPDEST DUP7 DUP4 LT ISZERO PUSH2 0x67C JUMPI DUP5 DUP10 ADD MLOAD PUSH2 0x678 PUSH1 0x1F DUP10 AND DUP3 PUSH2 0x58B JUMP JUMPDEST DUP4 SSTORE POP JUMPDEST PUSH1 0x1 PUSH1 0x2 DUP9 MUL ADD DUP9 SSTORE POP POP POP JUMPDEST POP POP POP POP POP POP JUMP INVALID LOG2 PUSH5 0x6970667358 0x22 SLT KECCAK256 0xC5 PUSH13 0x95A6854F3497178344EC37E402 0xDB SWAP10 NUMBER DUP11 0xBE BLOBBASEFEE 0xD4 PUSH8 0x58FE5B2B12D8FE82 0xEF PUSH5 0x736F6C6343 STOP ADDMOD BYTE STOP CALLER "
		},
		"gasEstimates": {
			"creation": {
				"codeDepositCost": "347000",
				"executionCost": "infinite",
				"totalCost": "infinite"
			},
			"external": {
				"age()": "2446",
				"name()": "infinite",
				"setData(uint256,string)": "infinite"
			}
		},
		"methodIdentifiers": {
			"age()": "262a9dff",
			"name()": "06fdde03",
			"setData(uint256,string)": "18562dae"
		}
	},
	"abi": [
		{
			"inputs": [
				{
					"internalType": "uint256",
					"name": "_age",
					"type": "uint256"
				}
			],
			"stateMutability": "nonpayable",
			"type": "constructor"
		},
		{
			"inputs": [],
			"name": "age",
			"outputs": [
				{
					"internalType": "uint256",
					"name": "",
					"type": "uint256"
				}
			],
			"stateMutability": "view",
			"type": "function"
		},
		{
			"inputs": [],
			"name": "name",
			"outputs": [
				{
					"internalType": "string",
					"name": "",
					"type": "string"
				}
			],
			"stateMutability": "view",
			"type": "function"
		},
		{
			"inputs": [
				{
					"internalType": "uint256",
					"name": "_age",
					"type": "uint256"
				},
				{
					"internalType": "string",
					"name": "_name",
					"type": "string"
				}
			],
			"name": "setData",
			"outputs": [],
			"stateMutability": "nonpayable",
			"type": "function"
		}
	]
}