{
	"data": {
		"bytecode": {
			"linkReferences": {},
			"object": "6080604052348015600e575f80fd5b506101898061001c5f395ff3fe608060405234801561000f575f80fd5b5060043610610029575f3560e01c8063978aceda1461002d575b5f80fd5b61003561004c565b604051610043929190610125565b60405180910390f35b5f60605f600a90505f6040518060400160405280600681526020017f6d616b6b6869000000000000000000000000000000000000000000000000000081525090506038915081819350935050509091565b5f819050919050565b6100af8161009d565b82525050565b5f81519050919050565b5f82825260208201905092915050565b8281835e5f83830152505050565b5f601f19601f8301169050919050565b5f6100f7826100b5565b61010181856100bf565b93506101118185602086016100cf565b61011a816100dd565b840191505092915050565b5f6040820190506101385f8301856100a6565b818103602083015261014a81846100ed565b9050939250505056fea26469706673582212209ca3cd6c72d3e441dab54366b812f49884ed032af598f17355d4322121280f5b64736f6c634300081a0033",
			"opcodes": "PUSH1 0x80 PUSH1 0x40 MSTORE CALLVALUE DUP1 ISZERO PUSH1 0xE JUMPI PUSH0 DUP1 REVERT JUMPDEST POP PUSH2 0x189 DUP1 PUSH2 0x1C PUSH0 CODECOPY PUSH0 RETURN INVALID PUSH1 0x80 PUSH1 0x40 MSTORE CALLVALUE DUP1 ISZERO PUSH2 0xF JUMPI PUSH0 DUP1 REVERT JUMPDEST POP PUSH1 0x4 CALLDATASIZE LT PUSH2 0x29 JUMPI PUSH0 CALLDATALOAD PUSH1 0xE0 SHR DUP1 PUSH4 0x978ACEDA EQ PUSH2 0x2D JUMPI JUMPDEST PUSH0 DUP1 REVERT JUMPDEST PUSH2 0x35 PUSH2 0x4C JUMP JUMPDEST PUSH1 0x40 MLOAD PUSH2 0x43 SWAP3 SWAP2 SWAP1 PUSH2 0x125 JUMP JUMPDEST PUSH1 0x40 MLOAD DUP1 SWAP2 SUB SWAP1 RETURN JUMPDEST PUSH0 PUSH1 0x60 PUSH0 PUSH1 0xA SWAP1 POP PUSH0 PUSH1 0x40 MLOAD DUP1 PUSH1 0x40 ADD PUSH1 0x40 MSTORE DUP1 PUSH1 0x6 DUP2 MSTORE PUSH1 0x20 ADD PUSH32 0x6D616B6B68690000000000000000000000000000000000000000000000000000 DUP2 MSTORE POP SWAP1 POP PUSH1 0x38 SWAP2 POP DUP2 DUP2 SWAP4 POP SWAP4 POP POP POP SWAP1 SWAP2 JUMP JUMPDEST PUSH0 DUP2 SWAP1 POP SWAP2 SWAP1 POP JUMP JUMPDEST PUSH2 0xAF DUP2 PUSH2 0x9D JUMP JUMPDEST DUP3 MSTORE POP POP JUMP JUMPDEST PUSH0 DUP2 MLOAD SWAP1 POP SWAP2 SWAP1 POP JUMP JUMPDEST PUSH0 DUP3 DUP3 MSTORE PUSH1 0x20 DUP3 ADD SWAP1 POP SWAP3 SWAP2 POP POP JUMP JUMPDEST DUP3 DUP2 DUP4 MCOPY PUSH0 DUP4 DUP4 ADD MSTORE POP POP POP JUMP JUMPDEST PUSH0 PUSH1 0x1F NOT PUSH1 0x1F DUP4 ADD AND SWAP1 POP SWAP2 SWAP1 POP JUMP JUMPDEST PUSH0 PUSH2 0xF7 DUP3 PUSH2 0xB5 JUMP JUMPDEST PUSH2 0x101 DUP2 DUP6 PUSH2 0xBF JUMP JUMPDEST SWAP4 POP PUSH2 0x111 DUP2 DUP6 PUSH1 0x20 DUP7 ADD PUSH2 0xCF JUMP JUMPDEST PUSH2 0x11A DUP2 PUSH2 0xDD JUMP JUMPDEST DUP5 ADD SWAP2 POP POP SWAP3 SWAP2 POP POP JUMP JUMPDEST PUSH0 PUSH1 0x40 DUP3 ADD SWAP1 POP PUSH2 0x138 PUSH0 DUP4 ADD DUP6 PUSH2 0xA6 JUMP JUMPDEST DUP2 DUP2 SUB PUSH1 0x20 DUP4 ADD MSTORE PUSH2 0x14A DUP2 DUP5 PUSH2 0xED JUMP JUMPDEST SWAP1 POP SWAP4 SWAP3 POP POP POP JUMP INVALID LOG2 PUSH5 0x6970667358 0x22 SLT KECCAK256 SWAP13 LOG3 0xCD PUSH13 0x72D3E441DAB54366B812F49884 0xED SUB 0x2A CREATE2 SWAP9 CALL PUSH20 0x55D4322121280F5B64736F6C634300081A003300 "
		},
		"gasEstimates": {
			"creation": {
				"codeDepositCost": "78600",
				"executionCost": "127",
				"totalCost": "78727"
			},
			"external": {
				"testvar()": "infinite"
			}
		},
		"methodIdentifiers": {
			"testvar()": "978aceda"
		}
	},
	"abi": [
		{
			"inputs": [],
			"name": "testvar",
			"outputs": [
				{
					"internalType": "uint256",
					"name": "",
					"type": "uint256"
				},
				{
					"internalType": "string",
					"name": "",
					"type": "string"
				}
			],
			"stateMutability": "pure",
			"type": "function"
		}
	]
}