{
	"data": {
		"bytecode": {
			"linkReferences": {},
			"object": "6080604052348015600e575f5ffd5b5060e58061001b5f395ff3fe608060405260043610601e575f3560e01c8063b69ef8a814605657601f565b5b7ff82c50f1848136e6c140b186ea0c768b7deda5efffe42c25e96336a90b26c7445a604051604c91906098565b60405180910390a1005b3480156060575f5ffd5b506067607b565b604051607291906098565b60405180910390f35b5f47905090565b5f819050919050565b6092816082565b82525050565b5f60208201905060a95f830184608b565b9291505056fea26469706673582212200a9902de711572419f24d39da22cdbbd790a89d2ad44f423e0b4cf7092e1cd1d64736f6c634300081e0033",
			"opcodes": "PUSH1 0x80 PUSH1 0x40 MSTORE CALLVALUE DUP1 ISZERO PUSH1 0xE JUMPI PUSH0 PUSH0 REVERT JUMPDEST POP PUSH1 0xE5 DUP1 PUSH2 0x1B PUSH0 CODECOPY PUSH0 RETURN INVALID PUSH1 0x80 PUSH1 0x40 MSTORE PUSH1 0x4 CALLDATASIZE LT PUSH1 0x1E JUMPI PUSH0 CALLDATALOAD PUSH1 0xE0 SHR DUP1 PUSH4 0xB69EF8A8 EQ PUSH1 0x56 JUMPI PUSH1 0x1F JUMP JUMPDEST JUMPDEST PUSH32 0xF82C50F1848136E6C140B186EA0C768B7DEDA5EFFFE42C25E96336A90B26C744 GAS PUSH1 0x40 MLOAD PUSH1 0x4C SWAP2 SWAP1 PUSH1 0x98 JUMP JUMPDEST PUSH1 0x40 MLOAD DUP1 SWAP2 SUB SWAP1 LOG1 STOP JUMPDEST CALLVALUE DUP1 ISZERO PUSH1 0x60 JUMPI PUSH0 PUSH0 REVERT JUMPDEST POP PUSH1 0x67 PUSH1 0x7B JUMP JUMPDEST PUSH1 0x40 MLOAD PUSH1 0x72 SWAP2 SWAP1 PUSH1 0x98 JUMP JUMPDEST PUSH1 0x40 MLOAD DUP1 SWAP2 SUB SWAP1 RETURN JUMPDEST PUSH0 SELFBALANCE SWAP1 POP SWAP1 JUMP JUMPDEST PUSH0 DUP2 SWAP1 POP SWAP2 SWAP1 POP JUMP JUMPDEST PUSH1 0x92 DUP2 PUSH1 0x82 JUMP JUMPDEST DUP3 MSTORE POP POP JUMP JUMPDEST PUSH0 PUSH1 0x20 DUP3 ADD SWAP1 POP PUSH1 0xA9 PUSH0 DUP4 ADD DUP5 PUSH1 0x8B JUMP JUMPDEST SWAP3 SWAP2 POP POP JUMP INVALID LOG2 PUSH5 0x6970667358 0x22 SLT KECCAK256 EXP SWAP10 MUL 0xDE PUSH18 0x1572419F24D39DA22CDBBD790A89D2AD44F4 0x23 RJUMP 0xB4CF PUSH17 0x92E1CD1D64736F6C634300081E00330000 "
		},
		"gasEstimates": {
			"creation": {
				"codeDepositCost": "45800",
				"executionCost": "97",
				"totalCost": "45897"
			},
			"external": {
				"": "1271",
				"balance()": "312"
			}
		},
		"methodIdentifiers": {
			"balance()": "b69ef8a8"
		}
	},
	"abi": [
		{
			"anonymous": false,
			"inputs": [
				{
					"indexed": false,
					"internalType": "uint256",
					"name": "gas",
					"type": "uint256"
				}
			],
			"name": "log",
			"type": "event"
		},
		{
			"stateMutability": "payable",
			"type": "fallback"
		},
		{
			"inputs": [],
			"name": "balance",
			"outputs": [
				{
					"internalType": "uint256",
					"name": "",
					"type": "uint256"
				}
			],
			"stateMutability": "view",
			"type": "function"
		}
	]
}